:10000000E009002025290000A92100003129000075
:100010003129000031290000312900003129000078
:100020000000000000000000000000003129000076
:1000300031290000000000003129000031290000B2
:100040002D1400002D140000AD2800000000000059
:1000500000000000000000000000000000000000A0
:100060000000000000000000000000000000000090
:100070000000000000000000000000000000000080
:100080000000000000000000000000000000000070
:100090000000000000000000000000000000000060
:1000A0000000000000000000000000000000000050
:1000B0000000000000000000000000000000000040
:10040000FFFFFFFFDF8EFFFFFCFFFF00FFFFFF008E
:10041000FCFFFF00FFFFFF00FCFFFF00FFFFFF00EE
:10042000FCFF0F20FFFF0F20FCFF7F40FFFF7F40FE
:10043000FCFF0D40FFFF0D40FFFFFFFF0D0A41478E
:1004400054302074696D6572206F70656E2066612E
:10045000696C65642E0D0A52657374617274207440
:100460006865204170706C69636174696F6E0D0A14
:10047000000000000D0A4F6E652073686F742074D1
:10048000696D657220636C6F7365206661696C6568
:10049000642E0D0A5265737461727420746865204D
:1004A0004170706C69636174696F6E0D0A000000C1
:1004B0000D0A414754312074696D6572206F706573
:1004C0006E206661696C65642E0D0A5265737461F5
:1004D000727420746865204170706C69636174691E
:1004E0006F6E0D0A000000000D0A41475431204391
:1004F000616E6E6F742062652073746172746564DE
:1005000020696E20506572696F646963206D6F6445
:10051000650000000D0A4572726F723A204E6F201E
:100520004C6564277320466F756E64206F6E20746F
:10053000686520626F617264000000000D0A4C451E
:10054000445F50494E2073746174652063616E6E20
:100550006F7420626520746F67676C6564000000CB
:100560002A2A20525F4147545F436C6F73652041D4
:10057000504920666F72206368616E6E656C203032
:10058000206661696C6564202A2A20200D0A00001B
:100590002A2A20525F4147545F436C6F73652041A4
:1005A000504920666F72206368616E6E656C203101
:1005B000206661696C6564202A2A20200D0A0000EB
:1005C00001000000661E0000400000010000000164
:1005D000000000000080000000000000000000009B
:1005E00001020100F50E000000000000C805000037
:1005F0004000000100000001010000000080000038
:10060000000000000000000000020000A10E000039
:1006100000000000F00500000D0A2A2A2A2A2A2AD2
:100620002A2A2A2A2A2A2A2A2A2A2A2A2A2A2A2A2A
:100630002A2A2A2A2A2A2A2A2A2A2A2A2A2A2A2A1A
:100640002A2A2A2A2A2A2A2A2A2A2A2A2A2A2A2A0A
:100650002A2A2A2A2A2A2A2A2A2A2A2A0D0A2A2041
:10066000202052656E657361732046535020457893
:10067000616D706C652050726F6A65637420666F7F
:100680007220725F616774204D6F64756C65202005
:100690002020202020202020202020202020202A50
:1006A0000D0A2A2020204578616D706C65205072FB
:1006B0006F6A6563742056657273696F6E20257367
:1006C000202020202020202020202020202020202A
:1006D000202020202020202020202020202020201A
:1006E00020202A0D0A2A202020466C657820536F8E
:1006F000667477617265205061636B205665727312
:10070000696F6E202025642E25642E25642020200C
:1007100020202020202020202020202020202020D9
:100720002020202020202020202A0D0A2A2A2A2AC0
:100730002A2A2A2A2A2A2A2A2A2A2A2A2A2A2A2A19
:100740002A2A2A2A2A2A2A2A2A2A2A2A2A2A2A2A09
:100750002A2A2A2A2A2A2A2A2A2A2A2A2A2A2A2AF9
:100760002A2A2A2A2A2A2A2A2A2A2A2A2A2A0D0A26
:10077000526566657220746F20726561646D652EC6
:100780007478742066696C6520666F72206D6F7274
:10079000652064657461696C73206F6E20457861B3
:1007A0006D706C652050726F6A65637420616E6451
:1007B0000D0A46535020557365722773204D616EA4
:1007C00075616C20666F72206D6F726520696E6650
:1007D0006F726D6174696F6E2061626F75742072E3
:1007E0005F616774206472697665720D0A000000AB
:1007F0000D0A54686973204578616D706C652050EE
:10080000726F6A6563742064656D6F6E7374726174
:10081000746573207468652066756E6374696F6EA5
:10082000616C697479206F662041475420696E209D
:10083000706572696F646963206D6F646520616EB5
:1008400064206F6E652D73686F74206D6F64652E04
:10085000200D0A4F6E2070726F766964696E672092
:10086000616E7920696E707574206F6E2074686592
:10087000205254547669657765722C204147542084
:100880006368616E6E656C2030207374617274737E
:1008900020696E206F6E652D73686F74206D6F64B4
:1008A000652E20414754206368616E6E656C20316F
:1008B000200D0A73746172747320696E2070657202
:1008C000696F646963206D6F6465207768656E2069
:1008D000414754206368616E6E656C2030206578F6
:1008E00070697265732E2054696D657220696E207F
:1008F000706572696F646963206D6F6465206578E7
:10090000706972657320706572696F646963616C88
:100910006C790D0A617420612074696D65207065C1
:1009200072696F64207370656369666965642062CB
:1009300079207573657220616E6420746F67676CCF
:10094000657320746865206F6E2D626F617264201C
:100950004C45442E0D0A00000D0A506C656173650C
:1009600020656E7465722074696D652070657269AA
:100970006F642076616C75657320666F72206F6E90
:10098000652D73686F7420616E6420706572696F85
:10099000646963206D6F64652074696D657273208E
:1009A000696E206D696C6C697365636F6E64730A40
:1009B0002056616C69642072616E67653A2031204F
:1009C000746F20323030300D0A0000000D0A546977
:1009D0006D6520706572696F6420666F72206F6E3E
:1009E000652D73686F74206D6F64652074696D6523
:1009F000723A2025640D0A000D0A496E76616C6911
:100A00006420696E7075742E20506C65617365206A
:100A1000656E7465722076616C696420696E7075AC
:100A2000740D0A000D0A54696D6520706572696F56
:100A30006420666F7220706572696F646963206DEF
:100A40006F64652074696D65723A2025640D0A0033
:100A50000D0A496E666F47657420415049206661F2
:100A6000696C65642E436C6F73696E6720616C6C92
:100A700020647269766572732E2052657374617298
:100A80007420746865204170706C69636174696F6B
:100A90006E0D0A000D0A506572696F64536574200B
:100AA000415049206661696C65642E436C6F7369BF
:100AB0006E6720616C6C20647269766572732E209B
:100AC0005265737461727420746865204170706C33
:100AD00069636174696F6E0D0A0000000D0A50654C
:100AE00072696F6453657420415049206661696C76
:100AF00065642E20436C6F73696E6720616C6C2097
:100B0000647269766572732E5265737461727420B3
:100B1000746865204170706C69636174696F6E0DF3
:100B20000A0000000D0A456E74657220616E79201E
:100B30006B657920746F207374617274206F7220FA
:100B400073746F70207468652074696D65727300CA
:100B50000D0A4147543020697320456E61626C650F
:100B60006420696E204F6E6553686F74206D6F64EA
:100B7000650000000D0A0D0A4F6E652D73686F74D5
:100B8000206D6F6465204147542074696D65722043
:100B9000656C6170736564000D0A0D0A414754313C
:100BA00020697320456E61626C656420696E205017
:100BB0006572696F646963206D6F64650000000091
:100BC0000D0A4C45442077696C6C20746F67676C24
:100BD0006520666F72207365742074696D6520707E
:100BE0006572696F640000000D0A456E74657220BD
:100BF000616E79206B657920746F2073746F70203B
:100C000074696D6572730D0A000000000D0A0D0A0B
:100C10004F6E652D73686F74206D6F64652041475A
:100C2000542074696D657220656C61707365640A27
:100C3000000000000D0A0D0A41475431206973205D
:100C4000616C72656164792072756E6E696E672081
:100C5000696E20506572696F646963206D6F6465A9
:100C6000000000000D0A456E74657220616E7920E7
:100C70006B657920746F2073746F702074686520C1
:100C800074696D65720D0A000D0A4F6E652D7368EB
:100C90006F742074696D65722073746F7070656411
:100CA0002E20456E74657220616E79206B65792007
:100CB000746F2073746172742074696D6572732E21
:100CC0000D0A00000D0A506572696F646963207433
:100CD000696D65722073746F707065642E20456E47
:100CE00074657220616E79206B657920746F207352
:100CF000746172742074696D6572732E0D0A000040
:100D00000080000004000000000001060001000057
:100D100000000106010100000000010602010000C0
:100D20000000010603010000004000000501000072
:100D3000040000000601000000000100080100009E
:100D40000000010009010000000001000A0100008C
:100D50000000010C0F0100000000010C0502000062
:100D60000000010000030000040000000004000077
:100D7000000001050104000000000105020400005C
:100D80000400000003040000000001130704000039
:100D9000000001130E090000000001130F090000FC
:100DA00014000000000D0000000000001E210100E2
:100DB0000000000000000000000000000000000033
:100DC00000000000000000000000000000002115ED
:100DD000110E0D0C0B0B0A0A09090909090808086C
:100DE000080808080707070707070707070707078F
:100DF000070000003031323334353637383961621C
:100E0000636465666768696A6B6C6D6E6F7071723A
:100E1000737475767778797A000000002DE9F041D7
:100E2000544D5549284600F011F9040007D0534BA2
:100E30000FF27C1261A1002000F05CFD1CE0504923
:100E4000504800F003F9040016D0284600F074FA68
:100E50000FF2681656A7DFF8248130B108F1380385
:100E60003A463146002000F045FD08F174033A4649
:100E70003146002000F03EFD2046BDE8F081000034
:100E800010B53C4800F0A6F9040007D00FF260133B
:100E90000FF2441249A1002000F02CFD204610BDA5
:100EA0000079002800D070471CB5364C69462046B2
:100EB00000F011FA18B134490120086013BD9DF803
:100EC0000400012812D0204600F084F950B12E49C8
:100ED000DFF8B8304EA201200860002037A100F0F2
:100EE00009FD13BD2A490120087013BD28480222BC
:100EF000027013BD10B5274B198821B9224C264B1F
:100F00000120206011E025490A7882F001020A7070
:100F1000007990B90A7858680188214800F044FDAA
:100F200058B119491F4B012008600020BDE810404E
:100F30000FF2F40221A100F0DDBC10BD80B50D4818
:100F400000F0FAF930B1184B0FF2F4021BA10020A7
:100F500000F0D0FC0B4800F0EFF948B1BDE80050BC
:100F6000DFF848300FF2D80214A1002000F0C2BC14
:100F700001BD0000EC000020F80500003C0400006A
:100F8000D0050000CC00002014010020E80400007F
:100F90000D010020C0050000140500000000002025
:100FA000C40000203C050000600500009005000022
:100FB0006167745F696E6974000000005B4552529E
:100FC0005D20496E2046756E6374696F6E3A202508
:100FD0007328292C202573006167745F7374617214
:100FE000745F6F6E6573686F745F74696D657200AE
:100FF0000D0A20414754302074696D657220737466
:10100000617274206661696C65642E0D0A000000CF
:101010006F6E655F73686F745F74696D65725F632F
:10102000616C6C6261636B00706572696F646963A7
:101030005F74696D65725F63616C6C6261636B00A4
:101040006167745F6465696E69740000F8B50400D7
:101050000D4618BF002D23D0E86908B32268DFF8D9
:101060005464B24241D0696911B92A78012A05D184
:1010700095F91210002901D50B20F2BD0021217332
:101080006560696861B1B1F1011F09D2297C032251
:10109000CA40D30726D50078502803D1C80708D402
:1010A0000120F2BD2A7A40B9042AF9DA022A06D1CF
:1010B000F6E7287A0028F3D101E0082AF0DADFF811
:1010C000F823207B02EB0122A260002814BF02F16A
:1010D0000C0102F10801EFF31082012787F3108859
:1010E000287C04E040F27A50F2BD0E20F2BDDFF819
:1010F000CC33D3F800C0C0F1030007FA00F02CEAAB
:1011000000001860186882F31088002008700878C2
:10111000C0F340000028FAD18870207BA168002825
:1011200014BF0C310831D5F81CE09EF804C09EF8BD
:1011300000009EF803E0024600230EF0070E28B9D7
:10114000287A30B1020182F0200202E0502818BF54
:101150002B7A81F804C0002088714EEA02024A709E
:101160008B702046696800F02EF995F91200010095
:1011700028D46B7CDFF848C302461B010CF8023010
:10118000DFF8403343F82140DFF83C3303EB810CB8
:10119000DCF800E02EF4803ECCF800E053F821109B
:1011A000BFF35F8FDFF8243300F01F00510907FA07
:1011B00000F043F8210002F01F02DFF8140397400B
:1011C00040F82170686960610020A969E161A0614F
:1011D0002660F2BD38B5044600F0DCF890B9207BFB
:1011E000A168002814BF01F10C0501F10805606831
:1011F0000178012903D12169204600F0E4F8F120AB
:101200002870002032BDE8B10168DFF8A8229142C1
:1012100001D007207047017B0029816814BF0C3181
:1012200008310A7802F001020B78C3F340039A42B6
:10123000FAD18168007B002814BF01F10C0001F194
:10124000080001E001207047F02101700020704784
:1012500038B505460C4600F09DF860B9287B28B9E2
:1012600014B1B4F1011F01D3012032BD214628463B
:1012700000F0A9F8002032BD70B50C00054611D071
:1012800000F088F830BB2869A0606868C1690A78F6
:10129000502A18D1017C8F4E4A1ED2B256F8220035
:1012A00010B914E0012070BDA868297BA0F58070FA
:1012B00000F098F869680A7C531EDBB256F82310D8
:1012C000B0FBF1F003E0297BA86800F08BF86060C8
:1012D0000020207070BD002918BF002827D00268A8
:1012E000744B9A4201D007207047027B002A826823
:1012F00014BF0C320832137803F0010392F800C0D7
:10130000CCF3400C6345F9D1027B8368002A14BFFB
:1013100003F10C0203F108021278C2F340020A71D1
:101320008268007B002814BF1068108801E001204B
:10133000704708600020704710B5044600F02AF896
:1013400038BB207BA168002814BF01F10C0001F11B
:101350000800F421017000220271606890F91210F7
:1013600011F1210F13D008000BD4012201F01F004E
:10137000594B8240490943F82120BFF34F8FBFF3F7
:101380006F8F61684F4891F9122040F82240002089
:10139000206010BD98B10168464A914211D1017B8D
:1013A0008068002914BF0C300830017801F0010179
:1013B0000278C2F340029142FAD100207047012026
:1013C0007047072070474368027BDFF808C101615E
:1013D0001B7C4CF82310491E80680AB101607047DD
:1013E00001807047002914BF00F10C0200F10802CF
:1013F0005078C0F3021111F0FC0F10D1374A384871
:1014000012680068130E03F00703120A984002F0F6
:101410000702D0400A0007D081F0020104E0917871
:101420004FF4004001F00701C8407047F0B583B0A9
:10143000EFF30380103840B2234901EB80021368B8
:1014400023F48033136051F820101E4951F82040D6
:10145000207B0028A06814BF00F10C0500F10805EE
:10146000297860680278012A04D1F420287001F0FC
:10147000F00129706069C0B1A06900280FBF6846FB
:101480006A4690E8C80082E8C800890644BF002286
:101490000271E269026061698847A06920B169460A
:1014A00091E81C0080E81C00297801F00F012970E8
:1014B00003B0F0BD544741000040084008700440AC
:1014C00000E400E03C0000200063004080E200E017
:1014D00000E100E01801002080E100E020E0014090
:1014E000D805002038B50446A0686368421C9342C2
:1014F00005D325682954A260E068401CE060A2681A
:10150000606882420CD12168206900F036FCA16835
:10151000884203D04FF0FF30E06031BD0021A16070
:1015200031BD2DE9F84F0746884691469A46012578
:10153000012002E0B1FBF9F1401C4945FAD20B9EB3
:10154000824528BF50460090F0070A9C17D4B4B1DA
:10155000B00702D5BAF1000F02D04FF0200B0BE01C
:101560004FF0300B08E059463846FFF7BBFFF868EC
:10157000641E002803D454B10098A042F3D3F96844
:1015800000292FD403E0AAF1010A09FB05F5BAF1FD
:10159000010FF8D8B8FBF5F0484528BF09FB05F561
:1015A000F8D20FF26C31B8FBF5F005FB1088095C3E
:1015B0003846FFF797FFF868002803D4B5FBF9F524
:1015C000002DEED1F0070DD564B1009DA54209D2E2
:1015D00020213846FFF786FFF868641E002801D4F2
:1015E000002CF3D1BDE8F18F2DE9F04F97B0834681
:1015F0000E4607A840210023029003910493CDF8E2
:1016000018B00593174616F8010B002800F05F810B
:10161000252840F05481002502E045F00105761CA4
:10162000307823280CD02B2807D02D28F5D030284F
:1016300008BF45F00205F2D005E045F00405EEE7ED
:1016400045F00805EBE7002406E004EB840100EB1D
:101650004100761CA0F1300431780846A0F1300238
:101660000A2AF2D300202E29804617D116F8011F2E
:101670002A290ED1396851F8048B3960761C012073
:101680000CE008EB880201EB42010120761CA1F17D
:1016900030083178A1F130020A2AF2D3317801E022
:1016A00016F8011F6C2918BF6829F9D0252900F008
:1016B0000181582900F0B98063290ED0642912D025
:1016C000702900F0EA80732900F0B780752900F0D6
:1016D000A380782900F0A980EFE038680168021D36
:1016E0003A60C9B2E6E0386850F8049B3860484672
:1016F000002848BF4042012106E07D4A80FB0232BB
:10170000901000EBD070491C0A28F6DAC2468845D2
:1017100038BF8A462CB1B9F1000F01D4680700D553
:10172000641EA80702D5B8F1000F27D0E80725D41A
:1017300024B3A24522D20499039A641E481C824213
:1017400007D2049A039882420BD00598002813D53B
:1017500014E0029B20225A5404900598401C0590E6
:10176000EFE70299069800F008FB0499884204BF4D
:1017700000200490E9D040E024B1DAE70598002881
:1017800000F19B80B9F1000F03D5C9F100092D21AB
:1017900002E0680707D52B2102A8FFF7A3FE0598F2
:1017A000002800F18A8005F00301022908BFB8F182
:1017B000000F2BD154B3A24525D20499039A641E7D
:1017C000481C824207D2049A039882420BD00598A3
:1017D000002816D517E0029B30225A540490059831
:1017E000401C0590EFE70299069800F0C6FA0499AC
:1017F000884204BF00200490E9D04FF0FF300590EC
:1018000072E01CB1D7E70598002856D401950094E2
:1018100043460A22494649E0386850F8041B3860BC
:101820000195009443460A2240E0386850F8041BB2
:10183000386001950094434637E0396851F8044B0D
:1018400039600CB930A40020054614F8010BA0B390
:1018500015B1B8F1000F30D0049A039B511C8B4294
:1018600009D2049A039882420CD005980028A8F166
:101870000108EAD521E0029B985404910598401C88
:101880000590EEE70299069800F077FA04998842ED
:1018900004BF00200490E8D0AFE7386850F8041B7C
:1018A00038600022082301920093102202A8FFF75B
:1018B00038FE02E002A8FFF715FE761C03E00146A1
:1018C00002A8FFF70FFE059800287FF59CAE05984B
:1018D000002809DD049A1AB107A9584600F04DFA0C
:1018E0000599049841180591059817B0BDE8F08F47
:1018F000676666660CB480B502AB00936A46FFF774
:1019000073FE02BC5DF80CFB284E554C4C290000C0
:101910003031323334353637383941424344454625
:10192000EFF31081012282F31088DFF8FC211068A8
:1019300038B9DFF8F801002303704FF0400C80F84D
:1019400000C01068401C106013E0EFF3108101220A
:1019500082F31088DFF8D021106810B113685B1E85
:101960001360106828B9DFF8C401002202708023D8
:10197000037081F31088704780B5002818BF0029D4
:101980000AD04A680AB90B8833B90368DFF8A02186
:10199000934203D10E2002BD012002BD0260084621
:1019A00000F02FF8002002BD30B488B10068604B11
:1019B00098420ED1022A0DDA0020002321F0FF0404
:1019C000012505FA01F1002A0CBF0B04084602E0CC
:1019D0000BE00DE00FE024B25749C4F3072201EBFE
:1019E000421180B21843886008E030BC0120704783
:1019F00030BC0720704730BC03207047002030BC4B
:101A0000704738B5044600F02BF8FFF789FF002532
:101A100009E0606850F83510001D30F8350000F01E
:101A200008F86D1CADB220888542F2DBBDE831407C
:101A30008BE7404A030A02EB8312CB0300F0FF005E
:101A40000BD502EB8003D3F800C02CF4803CC3F824
:101A500000C021F4803342F8203042F82010704753
:101A60002DE9F84F4FF0000B8046D946334E26E063
:101A70000127A7403278F9B20A400BDC2878C00968
:101A800013D02A7802F07F022A700121C82000F0CA
:101A9000B9F90AE0012000F007FA307820EA0707D8
:101AA0003770012000F0E0F9E8E7641CAD1C032C5E
:101AB0000AF1020A0BD30BF1010B09F10809B8F87E
:101AC000000083452CD200240FF2780A1C4DD8F870
:101AD0000400BAF80020031D33F809109142E4D144
:101AE00050F8090000F0F850B0F1807F18BFB0F155
:101AF000106FBDD101273178A740394208D10120AC
:101B000000F0D2F9307807433770012000F0ACF9CB
:101B10002878C009C9D1287840F080002870B4E73F
:101B2000BDE8F18F0000000038000020030D0440E4
:101B300054524F500008044000000440BBE40140F0
:101B4000404004400204030404040000F8B5DFF838
:101B50008442A821204600F0CDF90322226103200F
:101B6000606104F1A8010FF27C20A061E1614FF4F3
:101B7000806222620021A16200226262E16220662C
:101B8000102104F595606066A166002020670021A1
:101B9000E16600286067BFF35F8F0FF2542101F107
:101BA0000F0201F10F0312F8046904F8016B401CE5
:101BB0004542401C13F805C001F10F06474204F8E6
:101BC00001CB401C16F807E004F801EB4542401C2D
:101BD0005E5D04F8016B1028E5D3BFF35F8FF1BDA4
:101BE0002DE9F84305468846EE6814464FF0000993
:101BF0002F69A868801BBE4234BFBF1B3F187F1EE1
:101C0000874215D2A74288BF274668683A464146B0
:101C1000801900F073F9A968E41BBE198E42B9441B
:101C2000B84407D0BFF35F8F002CEE60E0D103E033
:101C30000746E7E70026F5E74846BDE8F2830000DF
:101C40002DE9F0410446E768A56860681646ED1B7B
:101C5000AE428846384405D200F050F9BFF35F8F9A
:101C6000F6190BE02A4600F049F9761B6068324607
:101C700008EB050100F042F9BFF35F8FE660BDE8B5
:101C8000F08101460869CA68824201D300F0A4B815
:101C90009DE02DE9F843DFF83C510446287888465A
:101CA0009146532818BFFFF751FF04EB440005EBA2
:101CB000C00000F1600600253769F468BC4212D20A
:101CC000B568ED1B4D4588BF4D467068C1192A4661
:101CD000404600F013F9B168EF19A844A9EB0509D3
:101CE0008F4208BF0027E41B4C4588BF4C463CB1DF
:101CF0007068C1192246404600F000F96519E719DD
:101D000005B137612846BDE8F28310B5EFF31184C1
:101D1000202383F31188FFF7BCFF84F3118810BDE3
:101D200070B50C461546DFF8AC1000EB400201EB35
:101D3000C20000F11806716919B1022913D006D347
:101D400018E03046FFF79DFFA84206D212E0304669
:101D5000FFF797FFA84298BF05462A46214630461E
:101D6000FFF76EFF07E02A4621463046FFF738FFAF
:101D7000054600E00025284670BDF8B50546DFF8A9
:101D800054000E4601781746532918BFFFF7DEFEB0
:101D9000EFF31184202080F311883A46314628461B
:101DA000FFF7BEFF84F31188F2BD10B5DFF82440C1
:101DB0002078532818BFFFF7C9FE04F160000169BD
:101DC000C068814201D0012010BD002010BD801AE2
:101DD000401E7047200100208968491E8A1A801819
:101DE000704700005465726D696E616C0000000000
:101DF000000000000000545452205245474745530C
:101E00000000000090B4134B134A1C68B2FBF4FCB2
:101E100048434FF47A740021A4FB002314FB0133E0
:101E20000127BB4207D2B2FBFCF0800808B190BC8E
:101E300014E090BC70474FEA8C03B0FBF3F2002330
:101E4000A4FB020114FB0311B94200D8EED34FF0FA
:101E5000FF30ECE7D805002000CA9A3B0138002883
:101E6000FCD1704770470601EFF31082012181F326
:101E700010881C4B33F8101029B133F81010A1F161
:101E8000010C23F810C033F8101049B916490FF2AD
:101E90005C0C0B883CF8100043F4254383430B8013
:101EA00082F310887047000070B4EFF310820121B4
:101EB00081F310880B4B33F8101049B9DFF8284034
:101EC0000AA6258836F810100D4345F425452580CF
:101ED00033F81010491C23F8101082F3108870BCDE
:101EE00070470000BC000020FEE30140010002003A
:101EF00008001000002200F03DB8000062B38B071C
:101F000008D0521E11F8013B00F8013B00F024807C
:101F10008B07F6D1830740F0208000BF103A07D32B
:101F200030B4B1E83810103AA0E83810F9D230BC1B
:101F3000530724BFB1E80810A0E8081044BF51F8C7
:101F4000043B40F8043BD20724BF31F8022B20F8B1
:101F5000022B44BF0B7803707047083A07D3B1E8EF
:101F60000810083A40F8043B40F804CBF7D2530776
:101F7000E4E70000401810F0030308D0C91A1FD38B
:101F8000DB0748BF00F8012D28BF20F8022D130001
:101F900030B414461546103928BF20E93C00FAD861
:101FA000490728BF20E90C0048BF40F8042D8900EC
:101FB00028BF20F8022D48BF00F8012D30BC704723
:101FC000C91818BF00F8012DCB0728BF00F8012D54
:101FD000704700005E4A1378984211D05D4B197823
:101FE00019B999795FEAC17CFBD51178C1F3001169
:101FF0000029FAD110701078C0F300100028FAD12F
:1020000070475649544A8879096852F82000090EE9
:1020100001F00701C84052490860704738B5514C7B
:102020005149524B524D4AF20352228000200880FF
:102030004FF4004148484F4A0260816001614360AB
:102040004D4A4E49C2604161FFF7DBFF00204C4A18
:102050006075092111702878002804BF687810F095
:10206000030F04D14FF47A7000F03FF80DE02878A8
:1020700038B901212970C820FFF7C4FE287801284B
:10208000FCD100216970002028700020FFF7A2FF1A
:10209000324D0120A8750021A974287FC0F3C0002B
:1020A0000028FAD04720E8720720FFF7D7FE00206B
:1020B000A872287FC0F340100028FAD0012068746D
:1020C000052230492960AA71FFF79BFF2E490020A5
:1020D00008704FF425422449228001208880888896
:1020E0000028FCD101220A8031BD704710B5274C71
:1020F0000022A2710121C820FFF784FE0021A170F7
:10210000A0780028FCD1A07840F00200A070A07850
:10211000C0F340000028FAD1217020780028FCD1BB
:1021200004F11E020321137803F07F03137010786B
:10213000C009FCD1921C491EF5D10120FFF7B4FE65
:102140001349002008700120BDE81040FFF78CBE45
:10215000A0E0014036E00140E00D002020E0014019
:10216000D8050020FEE3014000C1014000127A00C2
:1021700080E4014000366E01001BB700006CDC02F9
:10218000A2E0014000010110D0E0014022400440E3
:10219000BBE4014020B103490A6802600020704797
:1021A00001207047EC2A0000F8B50C4C0A4F258836
:1021B000208C0540002625FA06F0C00703D53968B3
:1021C00009B1F0B28847761C3F1DF0B20D28F2DB52
:1021D0002582F1BD000000000400002020610040C5
:1021E00000210B4A0B4B107800B118605078491C45
:1021F00000B158609078491C00B19860D078491CB3
:1022000000B1D860491C1033121D2029EBD3704750
:10221000AC0D0000006300402DE9F04F0FF2E041EB
:10222000DFF8C0B3086899B000210290002203A82B
:102230000023002480E81E000AA907AD002600271D
:10224000944681E81C0085E8C01002A8FFF7A2FFB1
:102250009DF809009DF80A100190009117A29DF8C1
:102260000B3059460020FFF745FB0BF5EC710020C1
:10227000FFF740FBFEF7D2FD040010D00FF2A833A9
:102280000FF27C320FF284310020FFF733FB34B1C0
:1022900022460FF2B0310020FFF72CFB00BE0BF5F9
:1022A00050710020FFF726FB0FF2B8310020FFF736
:1022B00021FB0BF5787440F2D17505E0312E310029
:1022C00021460020FFF716FBFFF76FFD0028FBD02B
:1022D00003A800210022002380E84E00102203A959
:1022E0000020FFF712FD03A800F0ADFA0746AF4249
:1022F000E6D2002FE4D03A460BF56D710020FFF7CF
:10230000F9FA0FF2743100E021460020FFF7F2FAEB
:10231000FFF74BFD0028FBD003A80021002200237B
:1023200080E84E00102203A90020FFF7EEFC03A86E
:1023300000F089FA8046A845E6D2B8F1000FE3D054
:1023400042460BF20C410020FFF7D4FADFF898A2C6
:102350000AA95046FEF790FF5FEA00060FF2E42953
:102360000FF2A824A6A50FD0FEF7E8FD0BF58763B2
:102370002A4621460020FFF7BDFA2EB132464946D3
:102380000020FFF7B7FA00BE0B98984A4743A7FB17
:102390000221490A5046FEF75BFF06000FD0FEF708
:1023A000CDFD0BF27C432A4621460020FFF7A2FA1E
:1023B0002EB1324649460020FFF79CFA00BE8C4EF3
:1023C00007A93046FEF758FF07000FD0FEF7B6FD0D
:1023D0000BF587632A4621460020FFF78BFA2FB1C1
:1023E0003A4649460020FFF785FA00BE08987F4A22
:1023F00000FB08F8A8FB0221490A3046FEF728FF37
:1024000007000FD0FEF79AFD0BF2C4432A4621467F
:102410000020FFF76FFA2FB13A4649460020FFF738
:1024200069FA00BE0BF20C510020FFF763FA0BF2C1
:102430004C610BF21C62149113920BF2F4510BF5E8
:10244000BA62129111920BF5B5610BF5B062109161
:102450000F920BF25C510BF5A7620E910D920BF2ED
:10246000AC610BF5CE620191CDF800208EA7DFF8AC
:1024700084814EE0002088F800000D99FFF73AFAB9
:1024800030E0002088F801000E99FFF733FA0F9929
:102490000020FFF72FFA10990020FFF72BFA11996F
:1024A0000020FFF727FA21E015A95046FEF713FF99
:1024B0005FEA000B58D19DF85800002870D05046B4
:1024C000FEF7A1FE5FEA000B00F0058081A100206D
:1024D000FFF710FA4EE00099FFF70CFA98F80000A9
:1024E0000128C7D098F801000128CAD098F8010047
:1024F00002280ED1002188F8011000201299FFF760
:10250000F9F913990020FFF7F5F914990020FFF766
:10251000F1F9FFF74AFC70B103A800210022002363
:102520008C4680E80E10102203A90020FFF7EDFB77
:102530000120C8F80400D8F804000128CED10023F7
:102540000FF2C012C8F80430D2E90001CDE917013A
:102550006EA017A9D0E90023CDE915233046FEF778
:10256000BAFE5FEA000B9FD054A33A4621460020F2
:10257000FFF7C0F9BBF1000FB0D0FEF7DFFC00BFE2
:1025800042A32A4621460020FFF7B4F9BBF1000F11
:10259000A4D05A4649460020FFF7ACF900BE9DE79B
:1025A0009DF8600050B13046FEF72DFE5FEA000B4B
:1025B00018BF0FF22013D8D101998DE7FEF760FC08
:1025C0005FEA000B18BF0FF22413CED1012088F868
:1025D000000083E7022803D107490848FFF7CCB978
:1025E0007047000018060000EC000020986E12836F
:1025F000CC0000200C010020A00D0000C400002031
:1026000068616C5F656E7472790000005B455252C0
:102610005D20496E2046756E6374696F6E3A2025A1
:102620007328292C202573000D0A202A2A204147CF
:102630005420494E4954204641494C4544202A2AB9
:10264000200D0A000D0A52657475726E656420458E
:1026500072726F7220436F64653A2030782578205B
:10266000200D0A000D0A4F6E652D73686F74206D82
:102670006F64653A000000000D0A506572696F646E
:102680006963206D6F64653A000000000D0A5469AB
:102690006D65722073746172742F73746F7020662D
:1026A00061696C656400000074696D65725F7374C4
:1026B000617475735F636865636B00000D0A537422
:1026C0006174757347657420415049206661696C77
:1026D000656400000D0A4147542053746F70204117
:1026E0005049206661696C65640000000D0A204154
:1026F0004754207374617274206661696C6564006C
:1027000000000000000000000000000000000000C9
:10271000000000002DE9F84F84B00BB100241C60CC
:102720000446274600E07F1C3878A0F10903052BFA
:10273000F9D32028F7D02D2816BF2B2817F8018BA6
:102740004FF02B08002A019103D4012A01D0252A39
:1027500003DB002950D00C604EE0002A0ADD102A6D
:1027600004BF3878302802BF787840F020007828FD
:102770000ED10AE03878302818BF0A2208D17878BC
:1027800040F02000782802D11022BF1C00E008226F
:10279000039700E07F1C38783028FBD0DFF81CB0AE
:1027A000FB440BF1180B4FF000090BF128000297C6
:1027B000CA468DF8000015460BE000BF10E6FFFF8B
:1027C00006469DF80000361ACA46F6B205FB0969AE
:1027D0007F1C3978A1F141001A2838BF20312A46E0
:1027E0000BF1280000F036F80028E9D10399B9422E
:1027F00004D1019800B10460002020E002991BF888
:102800000500791A091A002910D406DCB9EB06066E
:1028100003D3B6FBF5F0504508D0AFF30080049821
:1028200008B1012101604FF0FF3904E0B8F12D0F2C
:1028300008BFC9F10009019800B10760484605B01A
:10284000BDE8F08F03E0FFE70A220021FAE700234A
:1028500060E70000C9B2830706D0521E22D310F8E9
:10286000013B9942F7D11FE0083A13D302F1040269
:1028700041EA012141EA014150F8043B121F21BF06
:102880004B40A3F1013C2CEA030C1CF0803FF3D039
:10289000C9B2001F0832521E24BF10F8013B91EA52
:1028A000030FF8D818BF0120401E70473EB5EFF364
:1028B0000380A0F110051A486DB250F82510174892
:1028C0004A79805C002400F00300032808BF01243B
:1028D00009D0114800EB8500026822F480320260C2
:1028E0000D4850F8250000291CBF8868002806D034
:1028F000487901906846CB680093896888474CB155
:10290000054800EB8500016821F480310160024830
:1029100050F8250003B030BD006300400060004067
:102920003C00002080B500F005F800F0B9F8FEE7A3
:1029300000BE704738B54349434B444A4FF47000DA
:1029400008601A604AF202544148424A0480012158
:10295000117041490A78C2F30012002AFAD04FF4EC
:10296000254404800020FFF735FEFFF757FB0020C9
:102970008DF8000001209DF80010FFF795FAEFF3A5
:102980001080012181F31088344A136823F000433A
:102990001360136880F31088314B186800F0010051
:1029A0008DF800001D6805F001058DF800501B68CA
:1029B00003F001038DF80030EFF3108081F31088ED
:1029C000116841F000411160116880F31088012006
:1029D000FFF74AFA0120FFF7FDFD22481B4B0021BB
:1029E000818004801968A1F580628260C1604FF423
:1029F00080511D4A1180012383801C491C48FFF728
:102A000079FA1C4A1C491D48FFF778FA1C4A1D49EF
:102A10001D48FFF773FA1D4A1D491E48FFF76EFA5D
:102A20001D491E4800F042F8FFF7EBFAFFF75EFB86
:102A30000220FFF7CFFDFFF7D3FBBDE832400020B7
:102A400000F040B888ED00E008ED00E00000000074
:102A5000FEE301401FE40140B1E401400470044082
:102A600000080440000D004020610040D80500002F
:102A700004000020040000003C2B000000000020A7
:102A80000000000000000000000000000000000046
:102A90000000000000000000000000000000000036
:102AA00080B5FFF7B9FB002002BD000038B5044631
:102AB0000D46AC4205D0206820188047241DAC424A
:102AC000F9D131BD704700004EF68851CEF20001B9
:102AD000086840F470000860BFF34F8FBFF36F8F3A
:102AE0004FF00170E1EE100A704700000000080589
:102AF000352E382E300000004275696C74207769DD
:102B000074682052656E6573617320416476616EEE
:102B100063656420466C657869626C6520536F66F6
:102B20007477617265205061636B616765207665BB
:102B30007273696F6E20352E382E30000100000050
:020000040101F8
:10001800FFFFFFFFFFFFFFFFFFFFFFFFFFFFFFFFE8
:0C002800FFFFFFFFFFFFFFFFFFFFFFFFD8
:0400000500002925A9
:00000001FF
