:020000040200F8
:10000000400D0022C9060002910000028900000292
:1000100089000002890000028900000289000002B4
:100020000000000000000000000000008900000245
:10003000890000020000000089000002890000021F
:1000400040EA01039B0703D009E008C9121F08C05A
:10005000042AFAD203E011F8013B00F8013B521EDA
:10006000F9D27047D2B201E000F8012B491EFBD251
:1000700070470022F6E710B513460A4604461946B3
:10008000FFF7F0FF204610BD00BE704700000000E3
:10009000F0B581B04CF2201540F6AC07C4F2000573
:1000A0000024C2F2002735F8200C2988084086B2C7
:1000B00004E000BF01340437102C09D026FA04F004
:1000C000C007F7D039680029F4D020468847F1E707
:1000D00025F8106C2888304208D0288830421CBF90
:1000E0002888304202D028883042F3D101B0F0BDD8
:1000F000704700000000000010B542F22800002404
:10010000C4F220000470012000F0DEF84EF64C41ED
:100110000120C4F201010C70BDE8104000F0FCB8F1
:100120006DED81CF4AF60E4220F08051C4F20002FC
:10013000914218BF40F0805108889FEC100AFDECF6
:1001400081CF9FE80E9074476DED81CF4EF2200273
:1001500020F08051C4F20102914218BF40F080515A
:1001600008689FEC100AFDEC81CF9FE80E90744761
:100170006DED81CF41F6DC7120F08050CBF6FE7141
:1001800042180021522A00F23580DFE802F02A3CB2
:100190002A3C3C3C2A3C3C3C3C3C3C3C3C3C3C3CC3
:1001A0003C3C2A3C3C3C3C3C3C3C3C3C3C3C3C3CA1
:1001B0003C3C3C3C2A3C3C3C3C3C3C3C3C3C2A2AB5
:1001C0002A2A3C3C3C3C3C3C3C3C3C3C3C3C3C3C93
:1001D0003C3C3C3C3C3C3C3C3C3C3C3C3C3C3C3C5F
:1001E0002A00084300789FEC100AFDEC81CF9FE8BD
:1001F0000E9074474EF2A002C4F20102904218BF62
:100200004FF08051EDE74FF08051EAE70000000029
:10021000B0B548F20000C0F2002040F0805465689C
:10022000681C1CD142F200004EF2FE71C2F20020A6
:1002300040F0805500F180502030298080F388887C
:100240002DE9F00F25F00105A2B02DEC000A9FE882
:10025000DF9FAC473DEC000A22B0BDE8F00F4EF640
:100260000850CEF202000460206880F388882DE9EF
:10027000F00F25F00105A2B02DEC000A9FE8DF9FEA
:10028000AC473DEC000A22B0BDE8F00FB0BD000065
:1002900040F630504FF0FF31C4F24000A1F57062DB
:1002A0000180818002818181018281820183818339
:1002B000018481840185818501868186018781870A
:1002C000704700000000000010B5EFF3108101221C
:1002D00082F3108840F6F402C2F2002232F81030A5
:1002E00083B94EF2FA3E41F20A4CC4F2010EC0F25A
:1002F000002CBEF800403CF81030234343F4254363
:10030000AEF8003032F81030013322F8103081F3AB
:10031000108810BD00000000EFF31081012282F36D
:10032000108840F6F402C2F2002232F8103023B1F5
:1003300032F81030013B22F8103032F8102012B1A0
:1003400081F3108870474EF2FA3241F20A4CC4F23F
:100350000102C0F2002C13883CF8100043F425433E
:1003600023EA0000108081F310887047000000002D
:10037000F0B581B003200327FFF7A6FF4EF204502B
:1003800040F20001CEF2010040F20002C0F2000192
:10039000C0F200020368511A03F00F024909D1406C
:1003A0004FF0FF3202FA01F1C16040F2000140F269
:1003B0000003C2F20001C2F20003D0F80041591A52
:1003C00004F00F034909D94042F2000402FA01F196
:1003D000C0F80C1148F2A010C2F20024C4F20000D0
:1003E0004EF6D85304F4FF11CEF20003C0F86012A9
:1003F000C0F8641243F2000148F20002C0F200218A
:10040000C0F2002241F200064FF0000CC3F800C019
:1004100021F01F015960511E4FF6E175C2F200260E
:1004200067F304019960012119604FF08052C1F611
:10043000FF755A609D6002221A6026F01F025A6002
:10044000621E49F6F77667F304029A601F604FF068
:1004500040525A6005F100529A6004221A604FF02F
:10046000A0425A604FF6E172CDF6FF729A6043F8EF
:10047000081C49F61035BFF34F8FBFF36F8FC3F8D9
:1004800078C1CFF64D05BFF34F8FBFF36F8F53F891
:10049000CC2C32400826C0F2FA56324343F8CC2C1A
:1004A00053F84C2C44F2040642F4406243F84C2CBE
:1004B000D3F85C21C4F2200642F0E052C3F85C217C
:1004C00044F214024AF20153C4F2000213804FF4C2
:1004D000254322F8043C138043F683123560C8F6A6
:1004E00001424FF63003726040F20E32C1F6510302
:1004F000B360CFF6FC72F2604EF2C0320023C4F259
:100500000102C8F2400333610F235360D76043F602
:10051000FD3340F20717C0F27F43C0F22E0713608D
:1005200097604FF6FF7347F6FF77CAF61F73C0F266
:100530000307136257621F2313614FF6A0624FF641
:10054000FF73CFF6FF720027CFF61D7783504FF66B
:10055000A462CFF6FF726FF0010383504FF6B063D1
:100560000268CFF6FF7342F0FF0202604FF6B462FA
:10057000C750CFF6FF7247F60873835041F2E0028E
:10058000C4F22002C0F860C4072313604CF240128A
:10059000C4F2010240F2037313804FF67062CFF68B
:1005A000FF7240F283138350FF2240F8702C4FF605
:1005B00094624FF69063CFF6FF72CFF6FF7340F868
:1005C000A01C40F89C1C40F8901C8150C150FFF7C3
:1005D0005FFEFFF78DFD032001B0BDE8F040FFF79F
:1005E0009BBE00000000000040F6A80241F200237C
:1005F000C2F20022C0F27A03484312689A420AD338
:100600004DF68361C4F21B31A2FB0112910CA0FBD9
:100610000101C9B11DE04CF60021C3F69A31B1FBCE
:10062000F2F148F63812C0F24102904205D24FF47E
:100630007A725043B0FBF1F006E0B0FBF1F090426B
:1006400007D24FF47A714843002808BF704700F082
:10065000D3BD4FF0FF3000F0CFBD00000000000020
:10066000022818BF704740F6EC0041F21441C2F274
:100670000020C0F2002100F003B8000000000000DC
:100680000122002818BF002901D1104670474A688E
:1006900022B90A88002A1CBF0120704745F2542263
:1006A0000368C5F24F02934201D10E20704780B516
:1006B0000260084600F038FE0022BDE88040104687
:1006C000704700000000000000F06AF800F024FE0F
:1006D000FEE70000000000004EF22400C4F201001A
:1006E0000346D0F89C13CA074EF22602C5F2010257
:1006F00061F31C7308BF821C1078197801F00F0297
:10070000A2F10801032911D8DFE801F0021826340C
:1007100040F60011C2F2002151F820004AF6AB2148
:10072000CAF6AA21A0FB0101480830E040F60011FA
:10073000C2F2002151F82000D04028E040F600111C
:10074000C2F2002151F820004AF6AB21CAF6AA21D4
:10075000A0FB010188081AE040F60011C2F2002156
:1007600051F820004AF6AB21CAF6AA21A0FB0101EC
:10077000C8080CE040F60011C2F2002151F8200038
:100780004AF6AB21CAF6AA21A0FB0101080940F6EE
:10079000A801C2F2002108607047000000000000BC
:1007A0002DE9F0414EF6145840F20120CEF2000837
:1007B000C0F20E0040F200054EF6A552C8F8000047
:1007C0004EF20000BFF34F8FCEF20100C0F20025C1
:1007D000BFF36F8F0168CFF6F56241F0040101604D
:1007E0004EF208000024BFF34F8FCEF20000BFF39B
:1007F0006F8F016841F480310160BFF34F8FBFF309
:100800006F8F4FF47001C8F8741029680A60C0F83F
:10081000005D0020FFF724FF00F01AFA01200127F5
:10082000FFF71EFF286840F6F801A0F5806080F30E
:100830000A8840F20800C0F20001C2F20020FFF76F
:1008400018FC40F2000041F2786140F20402C2F26A
:100850000020C0F20021C0F20002FFF7F1FB42F2DB
:10086000000642F2000142F2000C42F20003C0F224
:100870000026C0F20021C0F2002CC0F20023891B28
:1008800040F20005A3EB0C03C908C0F2000541F0DB
:1008900009C800BF00BF00BFF6E80201E5E8020199
:1008A0000FF007C0D80840F2000140F20003C2F286
:1008B0000001C2F2000340F20006C2F200065D1A17
:1008C00040F009C000BF00BFFCE80223E6E80223B5
:1008D0000FF007C0E808254640F007C000BF00BF82
:1008E000E1E802450FF005C0BFF34F8F40F240052D
:1008F00040F24000BFF36F8FC8F83C42C0F20025C1
:10090000C0F20020BFF34F8F401BBFF36F8F8110E9
:10091000012909DB2E46C8BF871000BF56F8040B1B
:1009200028448047013FF9D1FFF7D6FEFFF7E4FBEB
:100930000320FFF7C9FC40F63050C4F240000480A9
:100940008480048184810482848204838483048477
:1009500084840485848504868486048784870320B0
:10096000FFF7DAFCFFF704FD0220FFF779FE00F045
:100970003BFB0020BDE8F04100F032BB000000006E
:100980006DED81CF10B5EFF3058030B140F200017D
:10099000C2F200210A68501C01D3002013E002EBD0
:1009A000420340F2080CC2F2002C40F2680E02EB47
:1009B0004212C2F2002E0CEB83045EF832200A6071
:1009C0005CF82310A160BDE810409FEC100AFDEC1C
:1009D00081CF9FE80E9074476DED81CF01460938B5
:1009E00010F1080F4FF00000EFF305821FD3F2B1B2
:1009F000013940F20802C2F2002201EB410002EB91
:100A0000800252F8080F00284FF000000FD010604D
:100A100040F2000240F2680C01EB4110C2F20022E9
:100A2000C2F2002C13684CF83030012011609FECAA
:100A3000100AFDEC81CF9FE80E9074470000000083
:100A40006DED81CF2DE9F041EFF3058000284FF0E7
:100A5000000000F07E8040F2080340F26801C2F21C
:100A60000023C2F2002101F5807E4EF6A552C3E9B3
:100A700000E101F5467EC3F828E003F12C0ECFF625
:100A8000F562C1F80021C1F80822C1F81023C1F8AD
:100A90001824C1F82025C1F82826C1F83027C1F84C
:100AA00038284FF0FF32C1F8382740F2000201F534
:100AB000847401F50275C3E902050425C1F81853D1
:100AC00001F58465C3E9044001F5A464C2F2002283
:100AD0004FF0010C8EE8310003F1500EC1F800C058
:100AE0004FF0020CC1F808C101F5047601F5447716
:100AF000C3E906760327C1F8107201F5836605275E
:100B0000C1F8207401F5A56801F5C56718625E6239
:100B1000C3E90E070627C1F8287501F5C66701F578
:100B2000E6660725C1F8305601F5E76501F6380499
:100B3000C3E91080D8651060C3E912678EE8310000
:100B400081F30B8881F309888CF314880120BFF3AB
:100B50006F8FBDE8F0419FEC100AFDEC81CF9FE85C
:100B60000E907447000000006DED81CFEFF305811A
:100B700001B30146093810F1080F4FF00000EFF300
:100B8000148218D312F0020215D0481E40F2080158
:100B9000C2F2002100EB400001EB8001084650F852
:100BA000082F3AB1496881F30B88006880F30988FF
:100BB000012000E000209FEC100AFDEC81CF9FE8AF
:100BC0000E907447000000006DED81CFEFF30581BA
:100BD00001B30146093810F1080F4FF00000EFF3A0
:100BE000148218D312F0020215D0481E40F20801F8
:100BF000C2F2002100EB400001EB8001084650F8F2
:100C0000082F3AB1EFF309824B689A4202D3096880
:100C10008A4207D900209FEC100AFDEC81CF9FE8A3
:100C20000E907447026040F26800C2F20020EFF3B9
:100C3000098121ED010AB1EC010A80F30B8880F3F0
:100C400009880120E7E70000000000000000000024
:100C50002DE9F04F81B04EF2FA394CF20410C4F293
:100C60000109C4F201004AF201514AF20158CFF6DB
:100C7000FF710231A9F8001001210180018849B1FA
:100C8000018800291CBF0188002903D0018809B10F
:100C90002FF00DC0CEA140F6001BC2F2002B4EF289
:100CA0003C0691ED001F4EF22405C4F2010643F606
:100CB0000001012220F8042CC5F201058BED001F74
:100CC000C1F69C410022AC1CCBE904212A46CBE9A9
:100CD0000711D6F8841311F00101214604BFA6F1D3
:100CE0001601A6F118020978127802F00F03A3F199
:100CF0000802032A0DD8DFE802F002101A244AF68F
:100D0000AB225BF82110CAF6AA22A1FB02125108FD
:100D100020E05BF82110D9401CE04AF6AB225BF8DA
:100D20002110CAF6AA22A1FB0212910812E04AF68B
:100D3000AB225BF82110CAF6AA22A1FB0212D1084D
:100D400008E04AF6AB225BF82110CAF6AA22A1FB02
:100D50000212110940F6A80A1622C2F2002ACAF8A5
:100D600000104EF65021C4F201010A70092286F8E3
:100D70006620012281F8B021002106F80A1C317892
:100D8000090709D4317809075CBF31785FEA01713E
:100D900002D431780907F2D544F6017126F8141C03
:100DA00040F211113182002106F8121C31788906B7
:100DB00009D4317889065CBF31785FEA816102D459
:100DC00031788906F2D5042101763146324642F265
:100DD00032370120C3F2121746F81C7C01F8180DB7
:100DE000052002F8160DD2F89A0310F0010052EA1D
:100DF000048051EA05810078097801F00F02A2F120
:100E0000080103290DD8DFE801F002101A244AF680
:100E1000AB215BF82000CAF6AA21A0FB010148081B
:100E200020E05BF82000D0401CE04AF6AB215BF8E4
:100E30002000CAF6AA21A0FB0101880812E04AF6A8
:100E4000AB215BF82000CAF6AA21A0FB0101C8086B
:100E500008E04AF6AB215BF82000CAF6AA21A0FB05
:100E600001010809CAF8000096200121FFF7BCFB28
:100E70003146002001F8180D41F8047CD1F89C039C
:100E800010F00100204651EA058208BF881C007856
:100E9000117801F00F02A2F1080103290DD8DFE853
:100EA00001F002101A244AF6AB215BF82000CAF6C2
:100EB000AA21A0FB0101480820E05BF82000D040F7
:100EC0001CE04AF6AB215BF82000CAF6AA21A0FB81
:100ED0000101880812E04AF6AB215BF82000CAF64F
:100EE000AA21A0FB0101C80808E04AF6AB215BF883
:100EF0002000CAF6AA21A0FB01010809CAF80000D7
:100F000096200121FFF770FB3146052001F8160DF0
:100F1000D1F89A0310F0010051EA048008BF8D1E39
:100F20000078297801F00F02A2F1080103290DD8F9
:100F3000DFE801F002101A244AF6AB215BF820002A
:100F4000CAF6AA21A0FB0101480820E05BF82000B6
:100F5000D0401CE04AF6AB215BF82000CAF6AA217B
:100F6000A0FB0101880812E04AF6AB215BF82000E3
:100F7000CAF6AA21A0FB0101C80808E04AF6AB2185
:100F80005BF82000CAF6AA21A0FB0101080942F281
:100F90000001CAF80000C4F2000101204FF425420C
:100FA000A1F80080BFF35F8F0872BFF35F8F0A80E4
:100FB00006F80C0CB075F075A9F8002001B0BDE87A
:100FC000F08F00BF00BF00BF00BF00BF00BF00BF69
:100FD000006CDC0200127A000080000000366E0116
:100FE00070470000000000002DE9F04184B00320AC
:100FF000FFF76AF94FF0FF300390CDE9010041F2AD
:1010000040484FF00C0EC0F20028F64608F11000E0
:101010000721012201AB05E008312030BEF1010EAD
:1010200000D176E050F8104C002CA1F1070409D053
:1010300004F01805660902FA05F553F82670AF4367
:1010400043F8267050F80C7C5FB18F1F660907F0DB
:10105000190702FA07F753F8265025EA070743F85D
:10106000267050F8087C5FB14F1F660907F01A0719
:1010700002FA07F753F8265025EA070743F82670C7
:1010800050F8047C5FB10F1F660907F01B0702FAD6
:1010900007F753F8265025EA070743F82670076834
:1010A0005FB1CF1E660907F01C0702FA07F753F875
:1010B000265025EA070743F8267047685FB18F1E60
:1010C000660907F01D0702FA07F753F8265025EACC
:1010D000070743F8267087685FB14F1E660907F05F
:1010E0001E0702FA07F753F8265025EA070743F8C8
:1010F0002670C768002F3FF48FAF01F01F07660905
:1011000002FA07F753F8265025EA070743F8267036
:1011100082E748F270034EF2803701AAC4F200035E
:10112000CEF2000707CA1860386003205960796062
:101130009A60BA60FFF7F0F84FF0060E4CF22031DB
:1011400008F12000C4F2000150F8202C002A18BF3A
:1011500041F8202C50F81C2C002A18BF41F81C2CF8
:1011600050F8182C002A18BF41F8182C50F8142CED
:10117000002A18BF41F8142C50F8102C002A18BF70
:1011800041F8102C50F80C2C002A18BF41F80C2CF8
:1011900050F8082C002A18BF41F8082C50F8042CED
:1011A000002A18BF41F8042C0268002A18BF0A6000
:1011B0004268002A18BF4A608268002A18BF8A6005
:1011C000C268002A18BFCA600269002A18BF0A61F3
:1011D0004269002A18BF4A618269002A18BF8A61E1
:1011E000C2694030002A18BFCA6140310FF055C0B3
:1011F00004B0BDE8F081000001380028FCD1704740
:101200002DE9F04F81B083464EF2D03044F2100108
:10121000C4F20100C4F2200100680968BBF8002094
:10122000090742F20001C5F220015CBF42F2000151
:10123000C4F22001002A61D04EF64C450027C5F2C9
:1012400001054FF0010A400701F140005CBF4EF676
:101250004C45C4F20105009005E000BFBBF800005A
:10126000013787424AD20026009C0FF2980808E016
:101270002070C8200121FFF7B7F901360234032E90
:10128000ECD0DBF8040058F8042B00EBC7014968E8
:101290009142F2D150F83700297800F0B8500AFA9C
:1012A00006F9B0F1807F09EA010013D148B90120A5
:1012B000FFF70AF8287840EA090028700120FFF7B4
:1012C0002BF894F900000028D7D4207840F0800053
:1012D000CEE700BF48B10120FEF7F6FF287820EAEC
:1012E000090028700120FFF717F894F90000B0F109
:1012F000FF3FC2DC207800F07F00B9E701B0BDE815
:10130000F08F00BF0204000003040000040400008A
:10131000FEF77EBF0000000080B5FFF7F9FF002058
:1013200080BD00000000000070B50446FFF768FFB4
:1013300040F6FC0CEFF31081C2F2002C012080F388
:101340001088DCF8000038B940F614500022C4F2CE
:101350004000027040220270DCF800000130CCF83E
:10136000000081F31088208830B340F6000E002181
:10137000C4F2400E08E000BF0EEB8212013142F8C9
:1013800020302088814217D2606800EBC10250F8FB
:1013900031305068DA034FEA1022C0B2ECD50EEBC0
:1013A000821555F8206026F4803645F8206023F435
:1013B000803645F82060DFE70120EFF3108180F3ED
:1013C0001088DCF8000020B1DCF800000138CCF80F
:1013D0000000DCF8000010B181F3108870BD40F609
:1013E00014500022C4F2400002708022027081F387
:1013F000108870BD000000006DED81CF9FEC100AD9
:10140000FDEC81CF9FE80F907447010002000800B7
:101410001000000004000000201400020000000082
:1014200000000100080200000000010009020000A5
:10143000000001000A020000000001000B02000091
:10144000000000000000000000000000000000009C
:10145000000000000000000000000000000000008C
:10146000000000000000000000000000000000007C
:10147000000000000000000000000000000000006C
:10148000000000000000000000000000000000005C
:10149000000000000000000000000000000000004C
:1014A000000000000000000000000000000000003C
:1014B000000000000000000000000000000000002C
:1014C000000000000000000000000000000000001C
:1014D000000000000000000000000000000000000C
:1014E00000000000000000000000000000000000FC
:1014F00000000000000000000000000000000000EC
:1015000000000000000000000000000000000000DB
:1015100000000000000000000000000000000000CB
:1015200000000000000000000000000000000000BB
:1015300000000000000000000000000000000000AB
:10154000000000000000000000000000000000009B
:10155000000000000000000000000000000000008B
:10156000000000000000000000000000000000007B
:10157000000000000000000000000000000000006B
:10158000000000000000000000000000000000005B
:10159000000000000000000000000000000000004B
:1015A000000000000000000000000000000000003B
:1015B000000000000000000000000000000000002B
:1015C0000030000200100022000000270000002070
:1015D00000800002000000000000000080A1000365
:1015E00000A30003000000800000009000000060E5
:1015F00000200022000000680000002700000020FA
:1016000000000002000000000000000000A1000334
:1016100000A20003000000800000009000000060B5
:10162000000000220000006800000505352E352E60
:1016300030004275696C7420776974682052656E59
:101640006573617320416476616E63656420466CE6
:10165000657869626C6520536F6674776172652086
:101660005061636B6167652076657273696F6E2088
:10167000352E352E30000000FFFFFFFF0000000078
:10168000000000000000000000000000000000005A
:10169000000000000000000000000000000000004A
:1016A000000000000000000000000000000000003A
:1016B000000000000000000000000000000000002A
:020000040200F8
:103000007FE97FE9FEF7F8B97FE97FE9FDF7B0B81E
:103010007FE97FE9FDF784B87FE97FE9FDF794B8A0
:103020007FE97FE9FDF70CBD7FE97FE9FDF7A8BCEB
:103030007FE97FE9FDF7D0BC7FE97FE9FDF794BD2B
:103040007FE97FE9FDF7C0BD00000000000000003F
:103050000000000000000000000000000000000070
:020000040300F7
:10A10000FFFFFFFFFFFFFFFFFFFFFFFFFFFFFFFF5F
:10A11000FFFFFFFFFFFFFFFFFFFFFFFFFFFFFFFF4F
:10A12000FFFFFFFFFFFFFFFFFFFFFFFFFFFFFFFF3F
:10A13000FFFFFFFFFFFFFFFFFFFFFFFFFFFFFFFF2F
:10A14000FFFFFFFFFFFFFFFFFFFFFFFFFFFFFFFF1F
:10A15000FFFFFFFFFFFFFFFFFFFFFFFFFFFFFFFF0F
:10A16000FFFFFFFFFFFFFFFFFFFFFFFFFFFFFFFFFF
:10A17000FFFFFFFFFFFFFFFFFFFFFFFFFFFFFFFFEF
:020000040300F7
:10A20000FFFFFFFDFFFFFFFFFFFFFFFFFFFFFFFF60
:10A21000FFFFFFFFFFFFFFFFFFFFFFFFFFFFFFFF4E
:10A22000FFFFFFFFFFFFFFFFFFFFFFFFFFFFFFFF3E
:10A23000FFFFFFFFFFFFFFFFFFFFFFFFFFFFFFFF2E
:10A24000FFFFFFFFFFFFFFFFFFFFFFFFFFFFFFFF1E
:10A25000FFFFFFFFFFFFFFFFFFFFFFFFFFFFFFFF0E
:10A26000FFFFFFFFFFFFFFFFFFFFFFFFFFFFFFFFFE
:10A27000FFFFFFFFFFFFFFFFFFFFFFFFFFFFFFFFEE
:10A28000000F0000FFFFFFFFFFFFFFFFFFFFFFFFCB
:10A29000FFFFFFFFFFFFFFFFFFFFFFFFFFFFFFFFCE
:10A2A000FFFFFFFFFFFFFFFFFFFFFFFFFFFFFFFFBE
:10A2B000FFFFFFFFFFFFFFFFFFFFFFFFFFFFFFFFAE
:10A2C000FFFFFFFFFFFFFFFFFFFFFFFFFFFFFFFF9E
:020000042703D0
:04000005020006C926
:00000001FF
