:10000000D81E0020AD22000091210000A92200008E
:10001000A9220000A9220000A9220000A9220000B4
:10002000000000000000000000000000A922000005
:10003000A922000000000000A9220000A92200005F
:10004000491300003D14000085140000000000006A
:1000500000000000000000000000000000000000A0
:100060000000000000000000000000000000000090
:100070000000000000000000000000000000000080
:100080000000000000000000000000000000000070
:10040000FFFFFFFFDF8EFFFFFCFFFF00FFFFFF008E
:10041000FCFFFF00FFFFFF00FCFFFF00FFFFFF00EE
:10042000FCFF0F20FFFF0F20FCFF7F40FFFF7F40FE
:10043000FCFF0D40FFFF0D40FFFFFFFFFFFFFFFF31
:10044000FFFFFFFFFFFFFFFFFFFFFFFFFFFFFFFFBC
:10045000FFFFFFFFFFFFFFFFFFFFFFFFFFFFFFFFAC
:10046000FFFFFFFFFFFFFFFFFFFFFFFFFFFFFFFF9C
:10047000FFFFFFFFFFFFFFFFFFFFFFFFFFFFFFFF8C
:10048000FFFFFFFFFFFFFFFFFFFFFFFFFFFFFFFF7C
:10049000FFFFFFFFFFFFFFFFFFFFFFFFFFFFFFFF6C
:1004A000FFFFFFFFFFFFFFFFFFFFFFFFFFFFFFFF5C
:1004B000FFFFFFFFFFFFFFFFFFFFFFFFFFFFFFFF4C
:1004C000FFFFFFFFFFFFFFFFFFFFFFFFFFFFFFFF3C
:1004D000FFFFFFFFFFFFFFFFFFFFFFFFFFFFFFFF2C
:1004E000FFFFFFFFFFFFFFFFFFFFFFFFFFFFFFFF1C
:1004F000FFFFFFFFFFFFFFFFFFFFFFFFFFFFFFFF0C
:1005000010B5054C237833B9044B13B10448AFF34D
:1005100000800123237010BDC800002000000000EF
:100520001C3B000008B5034B1BB103490348AFF364
:10053000008008BD00000000CC0000201C3B000033
:100540002DE9F843C568D0F80890A9EB0508904557
:100550000446164609D94068284401F06BFFBFF3F2
:100560005F8F3544E560BDE8F88340682844354432
:100570000F464246A5EB090501F05CFF60682A467C
:1005800007EB080101F056FFBFF35F8FE560BDE8A0
:10059000F88300BF2DE9F8430646D0E902048946F6
:1005A00017464FF0000833699C42A0EB040503F1A5
:1005B000FF3224BF03F1FF321218BD4228BF3D466F
:1005C000121B9542706828BF1546494620442A46AA
:1005D00001F030FFB0682C44A844A9447F1BA0421E
:1005E00008BF0024BFF35F8FF460002FDBD14046CB
:1005F000BDE8F88310B5164CA8220021204601F072
:1006000027FF03212161134A61611348A2614FF45E
:100610008061E061002321621048A36210216362BF
:10062000E36222666066A1662367E3666367BFF3E1
:100630005F8F0B4B5321A3F10F0C184601E013F908
:100640000119C21A6345A154F9D1BFF35F8F10BDE0
:10065000E4000020C82400009C0100208C01002040
:10066000E224000038B5204B00EB400403EBC40E3D
:100670000130DEF82C4000EB4000012C8C46154682
:1006800003EBC00005D0022C29D0ACB100242046D9
:1006900038BDDEF82830DEF8242093429CBFDEF817
:1006A00020401B19013B9C1AAC4228BF2C46224615
:1006B000FFF746FF204638BDDEF82830DEF824205C
:1006C00093429CBFDEF820105B18013B9B1A9D42B1
:1006D000DDD82A466146FFF733FF2C46D7E7BDE851
:1006E0003840FFF757BF00BFE400002030B50C4B87
:1006F0001B7883B00C4663B1EFF311854FF02001F6
:1007000081F311882146FFF7ADFF85F3118803B00F
:1007100030BDCDE90002FFF76DFFDDE90002EBE738
:10072000E4000020D0E9012310B50446581C904293
:1007300007D82268D154E3686268A0600133E3609F
:1007400003469A4200D010BD21682069FFF7CEFF12
:10075000A368984215BF4FF0FF330023E360A36006
:1007600010BD00BF2DE9F84F1546A942DDF82890CD
:100770000B9A0F4683461E4661D30B464FF0010885
:10078000B3FBF5F39D4208F10108F9D9B04538BF34
:10079000B04612F0010A02D1B9F1000F36D1DBF8F0
:1007A0000C30002B30DB012402E0013E05FB04F499
:1007B000012EFAD8B7FBF4F39D42F7D9214E06E09B
:1007C000AC42B4FBF5F30CD31C46B7FBF3F3F15684
:1007D000584604FB1377FFF7A5FFDBF80C30002B1E
:1007E000EEDABAF1000F0FD0B9F1000F0CD0C84506
:1007F0004FF02001584609F1FF3905D2FFF792FF6B
:10080000DBF80C30002BEFDABDE8F88F930711D43A
:1008100020240AE0FFF786FFDBF80C30002B09F1FB
:10082000FF39F1DBB9F1000FBDD0C845214658466C
:10083000F0D3B4E7002E0CBF30242024F5E74FF0AE
:100840000108A3E7E82400002DE9F04F9BB0402306
:100850000DF1280ACDE905A30023CDE90830DFF822
:10086000CC92079380460D46174605E005A8FFF792
:1008700059FF0898002867DB15F9011B002966D08D
:100880002529F3D1294600260D4611F9013BA3F194
:1008900023020D2A08D8DFE802F0490707070707F7
:1008A000070746074C070743A3F13002D2B2092AD3
:1008B0004FF000040CD804EB840403EB440415F956
:1008C000013FA3F13002D2B2092AA4F13004F2D9D7
:1008D0002E2B00F0D28095F90010002301E015F9CD
:1008E000011F21F00402682AF9D0252924D05839A3
:1008F000CAB2202A23D8202921D8DFE801F03320EA
:10090000202020202020202020B460202020202013
:1009100020202020202052202042203F2020330071
:1009200046F00206B0E746F00406ADE746F00806DA
:10093000AAE746F00106A7E705A8FFF7F3FE089827
:10094000002805F1010597DA1BB0BDE8F08F089883
:100950000028F9DD079A002A40F0A98010441BB056
:10096000BDE8F08F3868102201680430CDE90046F8
:10097000386005A8FFF7F6FE0898E1E738680A2214
:10098000F2E73B681A1D3A601C6804E0FFF7CAFEF4
:1009900008980028D4DB14F9011B05A80029F5D11B
:1009A000CDE73A68116804323A60082300220192C8
:1009B00005A800931022FFF7D5FE0898C0E73A6813
:1009C000D2F800B004323A608BEAEB72A2EBEB7221
:1009D000092A4FF0010008DD11466329A9FB02C274
:1009E00000F101004FEAD202F6DC9842024638BF1D
:1009F0001A46039284B3BBF1000F60DB72075ED42A
:100A0000B00700D543B3F10726D42CB3039AA24212
:100A10004FF0200105A81FD20293FFF783FEDDF8F7
:100A200020C0BCF1000F04F1FF34604688DB029B5C
:100A3000002CEBD1BBF1000F43DB720751D406F061
:100A40000301022954D005A8CDE9004659460A22DF
:100A5000FFF788FE089873E7DDF820C0BCF1000FAF
:100A60006046E7DA6CE73B681A1D05A893F90010A9
:100A70003A60FFF757FE089862E795F90110A1F177
:100A80003003DBB2092B05F101054FF000033FF6FF
:100A900028AF03EB830301EB430315F9011FA1F119
:100AA0003002D2B2092AA3F13003F2D919E7514634
:100AB0004046FFF71BFEDDE9072010444FE7013CED
:100AC0009EE72D2105A80293FFF72CFE029BCBF198
:100AD000000BDDF820C0BCF1000F6046FFF630AF20
:100AE000ADE72B2105A80293FFF71CFE029BF0E760
:100AF000002BA8D1C4B1039AA2424FF0300105A83F
:100B00000DD20293FFF70EFEDDF820C0BCF1000FFE
:100B100004F1FF346046FFF613AF029BEAE760463C
:100B20000028FFF60DAF8EE700248CE7CDCCCCCCAF
:100B30000EB400B582B003AB01AA53F8041B0193B5
:100B4000FFF782FE02B05DF804EB03B0704700BF10
:100B500010B5064800F094F900B910BDBDE810408A
:100B6000034B044A04490020FFF7E2BFA41500200C
:100B7000F8240000482900001825000010B5064898
:100B800000F066FF00B910BDBDE81040034B044AF9
:100B900004490020FFF7CCBFD0150020F824000046
:100BA0003C2900001825000030B585B000244FF620
:100BB000FF7302A80393029401F0ACFA9DF80900B8
:100BC0009DF80A109DF80B303F4ACDE900103F49CF
:100BD0002046FFF7ADFF3E492046FFF7A9FF3D49FC
:100BE0003D4800F0EBF900282ED13C493C4800F08C
:100BF000DBFD0446002857D1394800F061FD04466A
:100C0000002840D1374A384933484FF4805300F028
:100C10006BFB044630BB354A1378002BFCD1039C98
:100C2000631E0393002CF7D12E492F484FF48052B6
:100C300001F0F0FB18B92E49FFF77AFFFEE72D49C6
:100C40002046FFF775FFF9E72B4B2C492C4A054648
:100C50002046FFF76DFF2B492A462046FFF768FF25
:100C600000BEC2E7284B2549254A0020FFF760FF58
:100C7000FFF76EFFFFF782FF224922460020FFF7B1
:100C800057FF00BEC7E7214B1C491D4A0020FFF754
:100C90004FFFFFF75DFFFFF771FF1A492246002063
:100CA000FFF746FF00BEADE7194B1449144A002078
:100CB000FFF73EFFFFF74CFF124922460020FFF7E7
:100CC00037FF00BE98E700BF34250000382500003C
:100CD0001027000060390000A415002088390000AA
:100CE000D01500209C050020602900008000002015
:100CF00090280000E8280000D827000018250000F0
:100D000054290000F027000060280000342800006B
:100D10001028000010B1024B02791A70704700BF12
:100D200080000020022800D070470249024800F0ED
:100D3000AFBC00BF083A00009C15002008B5FFF7C3
:100D400033FF002008BD00BFD0E901210B6823F06C
:100D5000705323F0030343F0007310B50446D068CA
:100D60000B600B6923F00C030B6120B183680068F2
:100D70001B6998476268936823B19A681868136979
:100D800098476268D279A1680023D2070A61C4E952
:100D90000333C4E9053310BD70B5836884695969AC
:100DA000057FC1F30521A14228BF2146022D35D080
:100DB000012D0CD14269002943D002EB4106944633
:100DC000B3F81CE02CF802EBB445F9D10FE0DDB923
:100DD0004269002935D0541800E083681B7F02F86F
:100DE000013BA242F9D14269057F8469836801FA17
:100DF00005F5641A2A44C0E905244FF48032596984
:100E00005A6104B9446170BD426901FA05F5641A7A
:100E10001544846145610029F3D0EEE74669002955
:100E2000EFD04FEA810C06EB81053246DC6942F8CF
:100E3000044BAA42FAD184696644641A466184610B
:100E4000DBE7C0E90524DCE730B5436A83B004463C
:100E50000A466D468BB193E8030085E803001A71DA
:100E6000A16A226A196018469047636A1BB195E827
:100E7000030083E8030003B030BD2B46EFE700BF5B
:100E8000002865D0334B02689A4210B504465DD104
:100E900082684168002303601360136191F9213077
:100EA0002D485A090121203203F01F0301FA03F3F0
:100EB00040F82230BFF34F8FBFF36F8F636893F911
:100EC0002020002A0CDB5309203302F01F0201FA14
:100ED00002F240F82320BFF34F8FBFF36F8F636898
:100EE00093F91F20002A0EDB53091B4801212033F0
:100EF00002F01F0201FA02F240F82320BFF34F8FE5
:100F0000BFF36F8F6368DA6822B1936810681B6A59
:100F1000984763689B681BB19A681868136A98477A
:100F2000EFF31080012383F3108861680B4A09688E
:100F3000D2F80441C1F108018B402343C2F80431C7
:100F4000D2F8043180F31088002010BD072010BDB6
:100F5000012070474953530000E100E0006F044056
:100F600030B4056805F0030431EA040321D0E4B984
:100F700043689A0119D5026942F0030303610261D3
:100F800003699A42FCD10D438B0744BF45F00055DD
:100F900042F00802CB0744BF45F0806542F00402EE
:100FA00002610560204630BC70470824204630BCF2
:100FB00070470024204630BC704700BF2DE9F04147
:100FC000B0B10C46A1B10B6993B191F92130002B5E
:100FD0000EDBCD79012D064661D0E36863B15A6816
:100FE00052682AB194F9201092F90020914203D05E
:100FF00001252846BDE8F081A2684AB151684968D8
:101000000029F5D091F9001094F91F008842EFD122
:1010100091493068884200F005812568002D40F034
:10102000FC8094F80480B8F1000F3CD0B8F1010FB7
:1010300040F00A814FF08057AAB1D2E9011310683D
:101040001A680B68DFF82CC2C3F808C047F0084CD8
:10105000C3F800C04FF0020CA3F80EC09047002860
:1010600040F0DE80E36803B347F00042D3E90117A4
:1010700018680B683F6842F4C0121A60774A5A60D9
:101080000222DA81B847074678B1A368002B00F046
:10109000E0809A681868136A98473D46A9E78B690B
:1010A000002B9AD1A5E74746C6E76D4B86F81C8012
:1010B000C6E901436B4F94F92130A27F6A48F918C1
:1010C0001201D2B281F80023684940F8236003F18D
:1010D000C00251F822C06FF3104C41F822C051F801
:1010E0002220BFF35F8F5A09920002F1604202F59D
:1010F00061424FF0010C03F01F030CFA03F3C2F836
:101100008031136094F92030002B20DB227F1F44B4
:101110001201D2B287F8002303F1C00240F8236025
:1011200051F822706FF3104741F8227051F82220D5
:10113000BFF35F8F5A09920002F1604202F56142EB
:1011400003F01F030CFA03F3C2F88031136094F923
:101150001F30002B24DB627F03F1604101F5614108
:101160001201D2B281F8002303F1C00140F82360DC
:101170003E4A52F821006FF3104042F8210052F825
:101180002120BFF35F8F03F01F015B099B0003F178
:10119000604303F5614301228A40C3F880211A604D
:1011A0006379E07922791B0443EA803343EAC2433E
:1011B000023A032A98BF43F4007301284FEAC07132
:1011C00032D00027226932626269B2620022726202
:1011D000EFF3108C012282F3108870680068C0F170
:1011E000080082402248D0F8044124EA0202C0F8F4
:1011F0000421D0F804218CF31088B268136041F404
:1012000080331361116113699942FCD140F20133BB
:101210005362114B17623360EBE640F27A55E8E611
:101220000546E6E60E25E4E6A069A279002A0278E2
:1012300040784FEA827242EA001243EA020314BF86
:1012400000274FF48077BDE74FF000574FF00208BA
:10125000F2E60546CDE600BF495353001CE00440CA
:1012600000E0044000E100E048160020006000407B
:10127000006F044018E0044038B50446007F22FAAD
:1012800000F06268926862B19568C0F34F03AD6880
:1012900010680022A84718B90346C4E903300020AB
:1012A00038BD0B46F9E700BFF8B50446007F154688
:1012B00022FA00F36268D2680E4682B15B08013BF5
:1012C00008D0916810688F689BB232460021B847F9
:1012D00040B9207F02232E4403FA00F0361AC4E9F5
:1012E00005630020F8BD00BF28B3F8B541B117462B
:1012F00032B102681E46134B9A42044602D11EB90F
:101300000120F8BD0720F8BD3246FFF7B5FF0028E1
:10131000F7D1324639462046FFF7C6FF0028F0D104
:10132000A06843689A0008D45B0108D4BDE8F8407F
:101330000321FFF715BE012070470D20F8BD0C20DA
:10134000F8BD00BF49535300F0B5EFF30383103BE2
:101350005BB2384A384803F1C00150F8230052F814
:1013600021406FF3104442F8214052F82130C66802
:10137000AEB3826805695369047FC3F30563C3F1A3
:101380000803AB4228BF2B46022C36D0012C1BD1C0
:10139000002B4BD0B446002101313CF802EBA2F8FF
:1013A00018E08B42F8D103FA04F4ED1A3444C0E992
:1013B00003450123516953612DB9C5605369C3F3D6
:1013C0000563042B14D8F0BD3CBB7BB3F718314642
:1013D00011F801CB82F818C08F42F9D1E3E7036915
:1013E000002BF0D182685369C3F30563042BEAD95B
:1013F000BDE8F0400121FFF727BD002BDCD03446CB
:101400000021013154F8047B97618B42F9D1ED1A28
:1014100006EB8303C0E90335CBE703FA04F4344455
:10142000ED1AC0E90345002BC6D0C2E7C0E9036549
:10143000C2E700BF006000404816002010B5EFF37F
:101440000383103B5BB20D4A0D4803F1C00150F815
:10145000230052F821406FF3104442F8214052F823
:101460002130436923B1FFF797FC836903B110BDB5
:10147000BDE810400221FFF7E7BC00BF006000405C
:101480004816002010B5EFF30383103B114A5CB2FD
:10149000002152F8240083685A685960920111D4DF
:1014A00043690BB1FFF778FCFFF74EFC0A4A04F1E1
:1014B000C00352F823106FF3104142F8231052F882
:1014C000233010BD1A6861F359621A60FFF7BCFC43
:1014D000ECE700BF48160020006000400388002BA6
:1014E00079D02DE9F04FDFF8F490DFF8F4B083B055
:1014F00007464FF000087B68374E4FEAC805591978
:1015000040F20242898891424FF000044FF0010AF4
:1015100009D00134032C26D07B6836F8022B5919E8
:1015200089889142F5D15B5999F8BB2403F0B853EF
:10153000B3F1807F0AFA04F3D9B21CD013423BD135
:1015400004F120031BF81320D209E2D01BF813206A
:101550006FF3C7120BF813200121C820013400F0EB
:10156000E9FD032CD8D13B8808F101084345C2D8D6
:1015700003B0BDE8F08F134210D004F120031BF834
:101580001320D209C5D11BF8132042F080020BF8BA
:1015900013200121C82000F0CDFDBAE70120019100
:1015A00000F058FE99F8BB340199194389F8BB142F
:1015B000012000F01FFEE0E70120019100F04AFE4B
:1015C00099F8BB34019923EA010189F8BB14012081
:1015D00000F010FEB4E77047EA3A000000E0014076
:1015E00000400440F8B50446FFF778FFEFF310829F
:1015F000012383F31088234E33681BB92249CB7033
:101600004023CB7033680133336082F31088258820
:101610002DB362681D4C013DADB202F1080101EB32
:10162000C50500E008311068928810F4803F4FEA49
:1016300012235FFA82FC0CEB031E09D054F82E70C3
:1016400020F480326FF3104744F82E7044F82E20B7
:101650001B0163448D4244F823000A46E2D1EFF3B4
:101660001082012383F31088336813B13368013B80
:10167000336033681BB904498020CB70C87082F393
:101680001088F8BD44160020000D044000080440F6
:1016900068B161B108B54B686BB1084B02689A42FA
:1016A00007D003600846FFF79DFF002008BD01201A
:1016B00070470E2008BD012008BD00BF54524F5096
:1016C00050B1064B02689A4204D1D0E902320020A0
:1016D0005A607047072070470120704754504700F8
:1016E00030B48C6E01342AB1944203D9013A30BC33
:1016F0001A607047029D496B0078ED0754BF01F0F6
:101700001F01C1F30441032808D9090981F001012F
:101710006AB9A1B9022230BC5A60704701F00C01CD
:10172000A1F10401B1FA81F14909002AF1D09442F2
:1017300001D80029EED1032230BC5A607047002C3A
:10174000E8D0F8E7002800DA704710B400F16043F1
:10175000134C03F561430901C9B283F8001300F18A
:10176000C001104B44F8202053F821206FF31042A1
:1017700043F8212053F82130BFF35F8F43099B00CA
:1017800003F16043012203F5614300F01F0002FAF8
:1017900000F0C3F8800118605DF8044B704700BF8B
:1017A0004816002000600040002900F0BF802DE9AD
:1017B000F043CE6985B00C46002E00F0B18005469E
:1017C000002800F0AD800B7AD90700F1A9800A2B20
:1017D00000F2A6802178032900F2A6809A4B0268C5
:1017E0009A4200F01A81237C01229A40C260D0B252
:1017F000002800F00F816069002800F0DE8094F975
:1018000012100029C0F21381920703F580030CBF68
:101810000122002203F5F0632A741B02AB60A36966
:10182000EB6100236C606861AB61EFF3108701200E
:1018300080F31088854A217C0229D2F8081134BF30
:101840006FF0200C6FF0400C01EA0C01C2F8081197
:10185000D2F8082187F31088A968D4F804C04FF49F
:1018600025420A60CB62CB638B64227A94F800E055
:10187000C240BEF1030F4FEA02620CF1FF3700F0E5
:10188000A080D6E90698CA624FF000420A6103932D
:101890004A618A614B628B624FF0FF33C1F81C9042
:1018A0000293C1F820808F664F66F76ABEF1000F81
:1018B00040F0B5804FEA5C03013B02933A464FF09B
:1018C000030C4B658B659ABB3378002B5DD1227876
:1018D000B378C3B196F803E0022A4FEA0E1343EA45
:1018E0008E1300F0A980032A00F0AB80BEF1000F38
:1018F00014BF4FF0090E4FF0060E43EA0E0347EAFD
:10190000034747F0807700238B63C1F8883096F84F
:10191000213096F820E05B0743EA4E331F430CE08A
:10192000012005B0BDE8F0830520FAE701207047EB
:1019300000238B63C1F8883022784FF4AA03012A70
:101940000B6402D10023CB640B65EB68CB604F6363
:10195000C1F830C00863617C94F912002A46FFF791
:10196000F1FE96F8221096F924002A46FFF7EAFEC7
:1019700096F9250096F823102A46FFF7E3FE324B2E
:101980002B60002005B0BDE8F08396F801E02278D6
:101990004FEA0E13022A43EA8E134AD0032A4ED08E
:1019A000BEF1000F14BF4FF0090E4FF0060E43EAD0
:1019B0000E031F4347F480778AE701297FF424AFA1
:1019C0001DE7D6E906C042F48032CA624FF00042F9
:1019D0000A6103934A618A614B628B62C1F81CC041
:1019E0004FF0FF3308628F664F66F76A0293002359
:1019F0000093E268686802ABFFF772FEDDE902322D
:101A0000100440EA026040F0030CA968F26A40F05A
:101A1000010056E740F27A5083E70E2081E7BEF1DD
:101A2000010FE4D170463A464FF0030C49E70B2012
:101A300077E74FF0090EBAE74FF0090E5DE79646DB
:101A4000B5E7964659E700BF54504700006F044081
:101A5000002852D02A4B02689A424CD130B44268D6
:101A600092F91230D269002B11DB5909254D03F090
:101A70001F0C2031012404FA0CF445F82140BFF377
:101A80004F8FBFF36F8F2049002441F8234092F914
:101A90002430002B11DB59091A4D03F01F0C2031A3
:101AA000012404FA0CF445F82140BFF34F8FBFF333
:101AB0006F8F1549002441F8234092F92530002BFF
:101AC00010DB03F01F045A090121A14020320D4C04
:101AD00044F82210BFF34F8FBFF36F8F0A4A0021E3
:101AE00042F823108268C1680023036030BC1846A6
:101AF000916053637047072070470120704700BF13
:101B00005450470000E100E04816002006207047CE
:101B10000620704788B10A4B02689A420BD190F9AF
:101B20000430084AC033002052F823106FF31861C4
:101B300042F823107047072070470120704700BF0C
:101B40000043544400600040C27802F00C03042BB0
:101B500013D0837803F00C0104290ED012F0C00FCB
:101B600004D0C28992B2B2F5807F08D813F0C003C6
:101B700000F11000E8D11846704706207047012098
:101B8000704700BF10B51B4B90F904404FF0FF3E6B
:101B900053F8243015E09A7802F00C0004281BD08A
:101BA000586820B3986810B3986830EA01011ED1D4
:101BB000586810EA0C0003F1100318D112F0C00F9E
:101BC0000CD0DA78C2F3011102F00C020EFA01F126
:101BD000042A6FEA010CDED1062010BD064AC0348B
:101BE00052F8243043F0807342F8243010BD0120B5
:101BF00010BD00BF000000200060004030B583B081
:101C000001910092002843D0234A0168914236D1C5
:101C100090F904C0214A224C0CF1C00152F8215025
:101C20006FF3186542F8215052F82110C1F30801F2
:101C300041F40041E28992B28A42FBD0082222702C
:101C4000019A0AB3174A019C52F82C104C60009973
:101C500019B152F82C10009C8C6052F82C10CA78E4
:101C600002F0C002802A11D062B10D4B18221A7006
:101C7000FFF788FF002818BF132003B030BD0720EE
:101C800003B030BDCB81F0E7064AE0E78B81ECE79B
:101C9000012003B030BD00BF004354440060004049
:101CA000005400400000002038B1054A0368934208
:101CB00001D007207047FFF765BF0120704700BFC4
:101CC00000435444E8B1194B02689A421BD1C1B198
:101CD00010B4174B90F9040053F82040E378002229
:101CE00013F0C0000A604A600FD04FF480738B601D
:101CF000E3898028DBB2CB6010D010465DF8044B3E
:101D000070470120704707207047E3894FF4803205
:101D10009BB2C1E902235DF8044B7047A3894FF4DD
:101D200080309BB2C1E900031046F4E700435444FD
:101D300000000020D8B10F4A01689142034614D137
:101D400010B490F904100C4A01F1C00052F8204080
:101D50006FF3186442F8204008485DF8044B0022F5
:101D600040F8212010461A60704707207047012074
:101D7000704700BF00435444006000400000002052
:101D80002DE9F041E0B12F4B02689A4206461BD084
:101D90000C46A9B14B689BB1086888B1FFF7D4FE27
:101DA000054670B9284B1A787AB3636893F9000036
:101DB000002844DB254F57F820304BB1082500E0C0
:101DC00001252846BDE8F0810E252846BDE8F081B2
:101DD000307124682346DA7812F0C00F194604D017
:101DE000DA89D2B242EA0222DA818A7812F0C00F8E
:101DF00003F11003EFD1164B124A08211970182174
:101E000047F8204019703260DBE701271F70EFF3BD
:101E1000108187F310880F4BDA6922F48002DA61AF
:101E2000DB6981F31088DFF8248001468022404678
:101E300000F00EFB064BC3F804801F73B5E70B25BB
:101E4000BFE700BF004354440016002000000020FC
:101E50000054004000E00140002848D0F8B5026876
:101E6000244B9A42044640D10D4600293BD00846F7
:101E7000FFF76AFE002836D194F904101E4B1F4E5E
:101E800001F1C00253F8227060F3186743F8227022
:101E900053F82220C2F3080242F40042F3899BB2B5
:101EA0009A42FBD02B46DA7812F0C00F9C4604D041
:101EB000DA89D2B242EA0222DA819CF8022012F0D8
:101EC000C00F03F11003EED10C4B08221A700C4A1C
:101ED00042F82150182220461A70FFF753FE0028BE
:101EE00018BF1320F8BD0120F8BD0720F8BD012060
:101EF000704700BF0043544400600040005400405D
:101F000000000020064B074993F826001A6A51F892
:101F100020300549C2F30262D3400B60704700BF16
:101F200000E00140AC000020D0160020494B4A4997
:101F30004A4A70B500204A4D4A4E4AF20354A3F86B
:101F4000FE43A1F8000148496960484C48492A60AD
:101F50004FF40042C5E9022193F82610C5E9042494
:101F600055F82120196AC1F30261CA400921326083
:101F700083F8130483F8A21093F88024002A60D019
:101F8000344B002283F8812483F8802493F8A02026
:101F90008AB193F83620002A4AD02E4A92F8A0300F
:101FA000D806C3F30011F9D42A4882F8A01090F89B
:101FB000A030D906FBD4274C0122002384F8362018
:101FC00084F8323094F83C301A07FBD5472384F864
:101FD0002B30072000F0A8F800231E4A84F82A308E
:101FE00092F83C309B06FBD5224B1B49012482F81A
:101FF00031401362052382F8263092F82630106AA9
:1020000055F82330C0F30260C340336000254FF41D
:10201000254382F8D050A2F8FE33A1F80441B1F86C
:1020200004319BB2002BFAD10123A1F8003170BD1D
:1020300093F83C20D407B0D493F83C20D407F7D5CC
:10204000ABE7012183F8801440F2C44000F072F83D
:1020500096E700BF00E0014000C0014000366E017D
:10206000AC000020D016002000127A00006CDC02C8
:10207000001BB7000001011038B5244C002584F87E
:1020800028500121C82000F055F884F8245094F815
:102090002430002BFBD194F824301C4A43F0020377
:1020A00084F8243092F82430C3F340009B07F9D41D
:1020B00082F8220092F84030144960F3C71382F886
:1020C000403091F84030DB09FBD191F842000F4AD3
:1020D00063F3C71081F8420092F84230DB09FBD16C
:1020E00092F84400094963F3C71082F8440091F85C
:1020F0004430DC09FBD1012000F0ACF8044B012096
:1021000083F8BB44BDE8384000F074B80040044098
:1021100000E0014018B1034B03600020704701202C
:10212000704700BF00000404A0F101000028FBD1AB
:10213000704700BF30B5144D144A00FB01F14FF455
:102140007A732868B2FBF0F2A1FB03C44FF0FF30B2
:102150004FF0000E60457EEB040407D3BCFBF2F0A9
:10216000800878B1BDE83040FFF7DEBF9200B1FBD8
:10217000F2F1A1FB031388427EEB0303F2D308467E
:102180000028EFD130BD00BFD016002000CA9A3B16
:102190000B4B70B5B3F840510A4E0024ADB225FA8E
:1021A00004F3DB07E0B203D556F8243003B19847B7
:1021B0000134102CF3D1024BA3F8305170BD00BF95
:1021C0000060004004160020084B10B4084C03F1D6
:1021D000200C5842C21813F8011FC032634544F85E
:1021E0002210F7D15DF8044B704700BFC73A0000DA
:1021F00000600040EFF31081012383F31088124B3D
:1022000033F8102092B22AB133F81020013A92B27A
:1022100023F8102033F810309BB293B90B4A10B456
:10222000B2F8FE330A4C9BB234F8100043F4254355
:1022300023EA0003A2F8FE3381F310885DF8044B13
:10224000704781F310887047C816002000E00140F5
:10225000143B000030B4EFF31081012383F31088A6
:102260000E4A32F810309BB26BB90D4C0D4DB4F8DC
:10227000FE3335F810C09BB243EA0C0343F4254308
:102280009BB2A4F8FE3332F8103001339BB222F82F
:10229000103081F3108830BC704700BFC816002092
:1022A00000E00140143B000000BE704708B500F09C
:1022B00003F8FEF743FDFEE7F0B5474B474A484EAB
:1022C0004FF47000C3F888004AF202519E60012367
:1022D000A2F8FE1383B082F81F3492F8B134DB0603
:1022E000FBD500204FF425470446A2F8FE73FEF705
:1022F00019FDFFF71BFE8DF8074001209DF8073000
:10230000FFF7A8FFEFF31081012585F31088354B07
:10231000D3F8042122F00042C3F80421D3F80421A9
:1023200081F31088304A1168C1F300018DF807105D
:102330001168C1F300018DF807101268C2F30002A2
:102340008DF80720EFF3108185F31088D3F804216E
:1023500042F00042C3F80421D3F8043181F310881D
:102360002846FFF747FF2846FEF7DCFC32681F4B84
:102370001F489C80A2F580611F809960DA601D492A
:102380001D4A4FF48056A1F82061121A9D80214603
:1023900000F05EF819481A4A1A491B4D121A00F04B
:1023A00049F81A4B5B1BA3424FEAA30605DD55F81B
:1023B000043B01349847A642F9DCFFF7A3FDFFF781
:1023C0005BFE0220FEF7AEFCFFF7FEFE002003B02E
:1023D000BDE8F04000F01CB800ED00E000E0014076
:1023E00000000000006F044000080440000D0040A1
:1023F000C800002000600040D416002080000020AB
:10240000AC000020203B0000A4000020A800002019
:10241000704700BF10B501390244904201D100203D
:1024200005E0037811F8014FA34201D0181B10BD3D
:102430000130F2E70A44914200F1FF3300D17047C6
:1024400010B511F8014B03F8014F9142F9D110BDBD
:1024500002440346934200D1704703F8011BF9E799
:102460004275696C7420776974682052656E657373
:10247000617320416476616E63656420466C6578A3
:1024800069626C6520536F66747761726520506174
:10249000636B6167652076657273696F6E20342E99
:1024A000342E3000342E342E30000000000004049E
:1024B000F8B500BFF8BC08BC9E467047F8B500BF31
:1024C000F8BC08BC9E4670475465726D696E616CBD
:1024D00000FFFFFF0000000000005454522052454E
:1024E0004747455300FFFFFF30313233343536372D
:1024F00038394142434445460D0A20525F535349FF
:102500005F436C6F736520415049204661696C657B
:1025100064200D0A000000005B4552525D20496EA8
:102520002046756E6374696F6E3A20257328292CD6
:1025300020257300312E30000D0A2A2A2A2A2A2A41
:102540002A2A2A2A2A2A2A2A2A2A2A2A2A2A2A2AEB
:102550002A2A2A2A2A2A2A2A2A2A2A2A2A2A2A2ADB
:102560002A2A2A2A2A2A2A2A2A2A2A2A2A2A2A2ACB
:102570002A2A2A2A2A2A2A2A2A2A2A2A0D0A2A2002
:10258000202052656E657361732046535020457854
:10259000616D706C652050726F6A65637420666F40
:1025A0007220725F737369204D6F64756C652020B3
:1025B0002020202020202020202020202020202A11
:1025C0000D0A2A2020204578616D706C65205072BC
:1025D0006F6A6563742056657273696F6E20257328
:1025E00020202020202020202020202020202020EB
:1025F00020202020202020202020202020202020DB
:1026000020202A0D0A2A202020466C657820536F4E
:10261000667477617265205061636B2056657273D2
:10262000696F6E202025642E25642E2564202020CD
:10263000202020202020202020202020202020209A
:102640002020202020202020202A0D0A2A2A2A2A81
:102650002A2A2A2A2A2A2A2A2A2A2A2A2A2A2A2ADA
:102660002A2A2A2A2A2A2A2A2A2A2A2A2A2A2A2ACA
:102670002A2A2A2A2A2A2A2A2A2A2A2A2A2A2A2ABA
:102680002A2A2A2A2A2A2A2A2A2A2A2A2A2A0D0AE7
:10269000526566657220746F20726561646D652E87
:1026A0007478742066696C6520666F72206D6F7235
:1026B000652064657461696C73206F6E2045786174
:1026C0006D706C652050726F6A65637420616E6412
:1026D0000D0A46535020557365722773204D616E65
:1026E00075616C20666F72206D6F726520696E6611
:1026F0006F726D6174696F6E2061626F75742072A4
:102700005F737369206472697665720D0A00000058
:102710000D0A5468652070726F6A65637420646581
:102720006D6F6E7374726174657320535349206DBD
:102730006F64756C65206279207472616E736D6967
:102740007474696E6720616E642072656365697672
:10275000696E67200D0A7468652073616D706C6521
:1027600020617564696F206461746120696E206CFA
:102770006F6F70206261636B20636F6E6E65637450
:10278000696F6E20616E64207072696E747320745C
:1027900068652073746174757320200D0A62792056
:1027A000636F6D706172696E672074686520747202
:1027B000616E736D697474656420616E6420726506
:1027C000636569766564206461746120627566661C
:1027D000657273200D0A00000D0A20535349206FC3
:1027E00070656E206661696C6564200D0A000000EA
:1027F0000D0A52657475726E6564204572726F724F
:1028000020436F64653A203078257820200D0A0037
:102810000D0A20475054206F70656E206661696C08
:1028200065642C20436C6F73696E67205353492095
:102830000D0A00000D0A2047505420737461727411
:10284000206661696C65642C20436C6F73696E67E8
:102850002053534920616E6420475054200D0A00D4
:102860000D0A2057726974655265616420415049B0
:10287000206661696C65642C20436C6F73696E67B8
:102880002053534920616E6420475054200D0A00A4
:102890000D0A436F6D706172656420746865207401
:1028A00072616E736D69747465642073616D706CB0
:1028B0006520617564696F2064617461206F6620B2
:1028C000535349207769746820726563656976653A
:1028D0006420646174612069732073756363657338
:1028E0007366756C000000000D0A436F6D706172B5
:1028F000656420746865207472616E736D697474A8
:1029000065642073616D706C6520617564696F200A
:1029100064617461206F662053534920776974683D
:1029200020726563656976656420646174612069FD
:1029300073206661696C656400FFFFFF6465696E02
:1029400069745F67707400FF6465696E69745F73B2
:10295000736900FF68616C5F656E74727900FFFFD8
:10296000690098FF69FF58FF99FC2B01950AEF0C4D
:10297000AF0260F6AAF781F755FF37062DFF79FB06
:1029800001FACFFB1F02ED09BC139F086DFB6CFE23
:10299000820089078A0ABC01C1FE3CFF0DFE44FF8C
:1029A0003FFBC4E7CAE85708EB142927DF21D30F00
:1029B0009F118C05AA03AF04B1F480EA52F5B1F778
:1029C00027F6A9F39CF38813C82FDE2A2E2B15199E
:1029D0005BF51300F20B1906C8E87ABC2DD4590632
:1029E0007C18741632031EFC48326C56753CEF1688
:1029F000CCE371E02D092B036DD1BFC6ACD24EFAEA
:102A0000F427A4281B284F0A9AFE7C352942C114BA
:102A1000AAF287D519D940EB7BEBC4F007F034ED6F
:102A2000E71CA73AFA2270284B24DB1181123410DC
:102A3000CCFA29E02DDA85E5A3F4950F1305A2EF72
:102A40001C08F335F354A233800AF1FA8DF51F0503
:102A50001EF4C0D03ACA37DC79009A1CC916E706C2
:102A6000D911802EB748BD3F5A12D3EC0EE25BDF7E
:102A70003CE254D5C9BD6FCD00FF5326203AA034A7
:102A8000CE2B8831912AD22CB72691E67FAE55BC49
:102A90003FDEAAF35EF0C5E3BDECF80FA33F2E6066
:102AA0009446441E4419E412E9056BE7A8BA9AABB0
:102AB000FFC172E127F985F64FFA451A703E8F592A
:102AC0007A57EB28BBFAA4F761F76DE901DBE7BEA3
:102AD00005BA30DD48F4020C2C14A8148E2EB9422D
:102AE0000341D32F1608A5E430E987E79ED624CD0D
:102AF000BBC70BDCDC0B911EB2243F26761CE132F7
:102B0000A03F6E28F2070AD8C6C0E6D6E3E5DAE9A8
:102B1000B1E260E328003724C634B52EE922BD11A6
:102B20005013F20F96F1EED8B8C20AC0B6E119F808
:102B30008F05451016146B2F6042183CC2232803E2
:102B4000E0E841EA2BEA52D78CCCEBCAEBDE8102FB
:102B50009C194A182C207828A137023CCC175DF22A
:102B6000C9DB4ECC87CE2DD93FDC56E4B6ECAB03A7
:102B70006A2D01441237011F77112011670FC7FA20
:102B80001BD13CB532B8B1D514F4C3FB59FFF00AE0
:102B90002820C23A6C3A8B22530F13FFB5FBFAF28E
:102BA000B7D7BBBD38C0EFD6EEF7E61808191D0F32
:102BB00034140122D62E281D7AF9BCE907E7AFE6C6
:102BC000DEE23CD7B2CF55DEC000DC206330682D9A
:102BD00079264B259E1ED80C0DF09CD352D2C6E20E
:102BE000D2EAB7F249F136F5C50A4E1DDF30FC30A6
:102BF000481828014FF5D2EB67E53DDFE5D4AFD6A5
:102C0000CEE7B70495171F158B13DC2139302F271A
:102C10000408D2E123CFACD5E5DDD5E07AD92FD7B2
:102C2000D3F430155926A12D1823BD1B54208B1C1D
:102C30009908EAE50ECA54C449D1C3DC72DCBAE48F
:102C4000C3F64218BE3A423DA32B1F19310C57065A
:102C50001EFAAEE2E0C947B94EBDD8D203EEADFFD1
:102C6000850C91173029563FAE40772ABF08C2EE37
:102C700062E5B8E403D6BCC5C0BBF2C954EF6A1024
:102C8000F41CAA1B162560369E42B4336D0B33D953
:102C90007AC3B3CB32D943DA2BD0FED6C8F13B1C72
:102CA000E03B593DDF2FDB1BBF11C5149C09ACE98C
:102CB0001EC556B873CA07E32FECCDF01DFF0B18E5
:102CC000A133FE395827D10AECF745F0E7E7D4D510
:102CD00032BE54BEF7D7FCF53C0C2D122C137E19D6
:102CE0005824B830D627D10588E10DCFD1D3CBDE1B
:102CF00082DB10CF5FD083E8CE12F22F0232622A3D
:102D0000231F1F183E1238FD99DC2BC56BBE31CE38
:102D1000B0E40AED8CF5A704431C17305E35842B14
:102D2000CC16840691FACEEBB0DFACD00DC554CAF8
:102D3000B2D83EEECDFE500ED4207830A53AA23463
:102D40007C1C400882F256DE95CC22BB15C1DCD635
:102D5000DAEEA40281145724BD2F922FF5293C1BD3
:102D6000980658ED6FDDAED8FDCE57CDDBCF50DBEA
:102D700075F22511E32D7937B92F7B241516CA0B6F
:102D80006CFC4ADFF3C1E9B32BC1CED59AEA6FFAE6
:102D90002D04A91458288E32D82915139BFAC7EF91
:102DA000E8EBB9E424D32FC27EC541DE73035C187F
:102DB000A5234A253625A42F5B2AFC128EF078D055
:102DC0000EC6E6CD18D4F9D31BD477E7890E9A3412
:102DD0008C445C3835243F196914D707C7EF46CEB9
:102DE000FDB516B9BAD41BED7CF788FA7508352CF9
:102DF000F747FA47CB2A8305A1F171E7C4D92AC75F
:102E0000C7B2A5AF76CA9BF44D15681E391DA5251E
:102E1000353B554043265AFF07DC38CECCCC5DCA43
:102E2000BEC875C987D2BAEFDB12462BE6305322F3
:102E3000C81D6925FF1D23FE22D560BCF4BFA4CFA9
:102E4000FCDB91E5EBF4A0088F1F97330C3A40317F
:102E5000DD187F017AF03BDFEDCC05C0C4BF3AD26C
:102E600007EBBFFB9C0ABD177F23E72F4A33DD2604
:102E70002C0ED0F465E1AFD0A9C778C251C6CFDC23
:102E800035FD811A322AFC3079334D3192282211D6
:102E9000CBEE77CEBBBBE6C18ED0B3D70FDBDCE584
:102EA00017FFAA200A380D3B0B30D7206618E2071F
:102EB00057EF3BCEFCB2B0B393C93DE529F236FCE7
:102EC000280D0B271640AF41C32BAB0C1AF099E02D
:102ED0007DDB55D5C1C755BB7DC54FE3C706841DF6
:102EE000AE244128E02C2B31882A7C1101ED1ECD27
:102EF00070C10FC89CCD7ED187D886ECD60B502BE5
:102F0000A13B7F32F121A517E31183FEAEE223CA74
:102F10006CBC37C20FD3D1E495F3A505C618F52EC6
:102F2000AD3FB13B5C27980B00F644E936DB09C79F
:102F3000DFB98BBE79D23AEEAF05FC1825252E2BD2
:102F4000D62FD72CE21C7BFF47E2E7CE3DC967CDE9
:102F500016D11EDAF0E9DE00771D2431BF390133C6
:102F60000F23DB1621083AF105D23FB9F5B5C6C4E7
:102F700060DAA9EC0FFBEF0EAA28FF3B6E3FFD3194
:102F80001F1D08052CF158DFBFCB06C0AEBDF5CB29
:102F900054E7D4012917B926D82FE432222DEF1F88
:102FA000CA0CE7F23EDB9BC903C175C124C7A3D796
:102FB00074F0200C0928FA39623B8E2DD01CB80C15
:102FC0007BF76CE247D06CC31AC3CACD75E034F509
:102FD0006F089A1CE62A5930C82A221F2F1121FD9A
:102FE00072E6CAD1FEC324C5D9D0B2E170F5D905C5
:102FF0006A1A832BBE344232AA21450A8FF4B9E5FE
:1030000092D71BCA5CC3BBC7DED56DED5B06D51876
:10301000F2245D2D7331C12CD91C1B0310E5F5D0B2
:103020005CC866C828CF4ED9A8EAC4FFE01A263586
:10303000BA3FE9396F2984175406F8F184DAF4C4E9
:10304000CDBE67C83BD92CEA17F9C50AD4221C3972
:103050004542EC37901CF60194F095E39AD4F1C206
:103060004EBABDC47BDD88FC4A1537239A2A8C31C1
:10307000F9343B29FF11B4F380D832CB54C7ECC8E4
:103080006DCF34DABCEEF6092F2217300631DB297A
:103090007F1FAC129BFEE5E4B1CD93C1E5C565D5BC
:1030A00085E5CAF35C01C712D427C433D531FF22AA
:1030B000960D11FCF6EABBDA72CDB1C7F8CFEBE1A1
:1030C00011F8BF0A4318FA22002DDE32FC2AE2145E
:1030D000C7FA3FE600DC9DD64DD2E1D2A2DC2FEF4D
:1030E000AC074E1CE2291530822D1728581ABD0551
:1030F000BBECFAD7EDCE1BCFB2D550DE56EBC7FDF9
:103100001915D628E435293524270616DE044BF494
:103110008DE119D006C6A2C7DCD50BEA88FBFD0AF3
:10312000CC1B0A2EDB3848356F22B009FDF35BE279
:1031300007D46BC8BCC34EC9FADA0EF4E30C381FCF
:10314000E52AF82F0531F729F717C9FEF6E422D34F
:10315000B7CB58CBA1CFC2D84EE93101141AC82D34
:10316000E7342C2EE620DA1068FED1EA5BD5BBC727
:1031700019C8DED30AE51CF60C064518D42A1D37FB
:103180003336BC276413DCFE40EE19DF02D217C9C8
:1031900079CB69DBCCF2F308C81A832772309B34F1
:1031A000D02D471AEBFF25E96CD998D162CFAAD16F
:1031B0009BDA04EC5403311AB82A4232C32F4F274A
:1031C000E11AA60875F297DB42C9DAC344CB85DA67
:1031D0008AEB34FEC215C129A4379D3ADA30222089
:1031E0002D0C7DF8D9E24ECEE9C117C225D0DAE424
:1031F0007EFA390F3B211731033B71385B290012EE
:1032000099F8EAE379D4F7CA69C8FECCD6DC93F51D
:10321000B30F6624EE302035293051253F13AFFB24
:10322000EEE34CD154CB6ED071DAEFE6E8F5D0097D
:10323000F61FAD2F05346C2CA41F8F1191012CEEBD
:10324000E0D90DCB6ECAC9D74CEBEBFEDB0C561B9D
:10325000E62950349B33E024600F67FA9AEA6DDD6B
:1032600049D2D7CCF4D023E1DFF76D0F4A21C92B27
:10327000473302346E2BB619EDFF39E7F5D68BCE06
:10328000B1CE0DD33FDEABEE3503261C4F2FD53923
:103290001037442BB71BF10738F1DDDB71CBA7C525
:1032A0001FCBEFD7A3E964FC991286281038203A87
:1032B0001C2FEE1DEE093FF638E3FAD0C8C336C422
:1032C000A0D235E9E801F117B829B136093EE33952
:1032D00095283610B5F645E3FED4E8CAE3C9D3D243
:1032E000F4E543FD94121C24842EA8311E2D5B218D
:1032F0004D1016FBFAE711D9C8D135D4E8DC19EA2C
:10330000C2FA130ED5209E2E9B34C92F9020590D42
:10331000F9F808E871DBF0D21ED313DA43E7CEF8F0
:103320001409C41816275230FB300526081338FF3D
:10333000E0EF25E2E2D69BD136D5C0E2FBF6040CE5
:10334000121D7328032E142EE625E0160B02E7EC5F
:10335000D8DC0DD3D2D00DD556E0D1F2CD07D21B9B
:10336000EA2A1B3310323B28C61AD208B8F5F9E214
:10337000F3D42FCFF2D299DF47F10804691508255D
:10338000EA2F4C333D2B361BF507ACF582E67ADA93
:10339000F8D3AED3B6DB5BEB6AFF5C12C5217D2CA4
:1033A0008E31E02F4023D70F0EFAF6E73BDDF2D740
:1033B000F5D6A2DB39E8D4FAFE0E9220322B952DF9
:1033C0005A2B26223D1528055BF2C6E245D9B9D80D
:1033D00018DF05E9BEF6CC074819F8270A2D2A2977
:1033E000031FCF100101D0F1E6E414DAFDD5DAD9DC
:1033F0008EE4FAF4D806EF160E24B12CD32DF62560
:103400009C171806AFF455E6C2DC31D9DCDB12E4B8
:1034100014F3FF0477160E259E2BF02AA52492198B
:10342000BD08F5F5DDE4AED9FDD63FDCA2E60EF22F
:103430008B016712C822282D352E6B27721AD00AED
:10344000B4F9FDE8DEDC28D60AD604E023EEB3FEAC
:10345000FC0EC51C6F28F52E242DF0216D102AFEC0
:10346000C0EE38E2F1DAC0D85DDDA3E9CAFA510E48
:10347000C51E3F29BA2D562CCD230B15BA02FBEFE2
:10348000FBE13EDBE4D938DDF0E503F396042117D8
:10349000F724A62B7E2A33238617DC08BDF7E3E644
:1034A000C5DB01D8FCDBE0E470F2BB021A12142089
:1034B0009A291A2CA326DC1997082FF865E9BCDD98
:1034C00036D8EBD8EAE11EF09B0137137B206F2A38
:1034D000CC2CBD281A1D1D0CD0F9E7E9ACDF1FDA92
:1034E00018DB37E2B8EEE0FEEF10BB20642B432D73
:1034F000AE27541D1E0FECFE33EF20E1F9D8D8D8CB
:1035000019DFD8EB15FBE80CB51C2F28CB2D2B2A87
:10351000BD20DD120D03E3F22AE410DB5BD8F7DCFB
:103520000EE944F89F081119D225EA2C392DDB2623
:103530000F1AFE08DDF747E8B1DD2CDA0EDDE1E613
:1035400079F5A20652174B24D82C092FC4291B1F2A
:103550003C0F21FCE5EA02DF41DA71DB0FE30AEF01
:103560009CFE280F311E5D291E2C2A280B1E990F48
:1035700048FEECEDF1E171DAA4D93DE03DEC2EFC22
:103580002A0DF71B6926332BEB28D71FFE1002FFED
:103590008EF065E44CDE9EDCD9DFD3E992F90E0DA6
:1035A000021C1126A3281F27DA2044141904C9F28B
:1035B000F2E377DB60DC97E2FDECE7F8F105E4137A
:1035C000C21F7E27F426EA1FE5152C09D9FAEEED75
:1035D000E0E215DDBCDEE1E7CDF6B4051514CB1E47
:1035E000CF27342BAF25611A0C0897F6CCE93CE2C3
:1035F000FEDFDCE135E9FAF52D061B14891D4424B4
:1036000010283926591D0C0F3BFCCEED24E537DF81
:10361000EFDD47E14CEC51FEB913DD24382CB9291C
:103620002422ED183E0C4DFC00ECB5DF09DB05DE75
:10363000FFE404F021FE290BFB18BD23F129FC282F
:10364000D81D480F05FEC1EF42E4C1DA48D7D3DCEC
:103650004BEB17FE370F211D9825EF27F8260F1F7C
:10366000A812FF02F8F3FCE834E239E095E324EC19
:103670000FFBE50C251C3F252F27EF2523213F16A7
:10368000C40462F130E1D0D90BDCC9E21FEC19F8B7
:10369000CF0641174524E4293228B420E614040754
:1036A000F0F8F7EB27E3A3E0F3E23CEA12F6E404D8
:1036B000EC14C022DB2BF52BD32428183B09E6FAA7
:1036C000F6EDB3E5E6E1E8E307EBADF6EF052A1327
:1036D000591DFE220924F6207019BA0C30FB29EB83
:1036E000C8E0F8DC02DEFEE21FEC15FB5A0CF91C08
:1036F0007728432A4E23C618C70F1F034DF4DFE572
:103700003CDCB4DBEBE237EF18FDE60CB51AD42451
:103710003E2909272F1FEB112D048EF5BAE822E070
:1037200003DE09E300ECDCF84B07EF151721042753
:103730000B25AC1EC0142E072EFAE3EB13E2C6DFF6
:103740000BE41BECF8F649050E1429211128C426B8
:103750008D20BB152F0ADBFC6CED58E32CE024E533
:10376000E0EC77F50B001E0D251CFE28F32DA52897
:10377000011C970C03FE1DF0BCE40BDDF6DCFAE443
:1037800031F19CFF450EAB1A8B230027C923701A19
:10379000A70C11FED2EFEBE302DDC9DA76DE26E8F4
:1037A0000BF76B0834183124DB299E29E822A41674
:1037B0001907E3F69EE84ADF18DE0EE3BEEBE4F7F6
:1037C000D405F1127D1FA7264C25F81C1E1094026B
:1037D00006F617EAE0E0B3DD27E20AED60FAAB0790
:1037E0001A14AE1CAC2127231B1F1C15190602F945
:1037F000D2EF13E944E5E1E5E5EB1EF7FF044212E1
:10380000B41CDC22CA23F11F3D18360A24FC04F044
:10381000D5E720E5E0E547EB12F5D3013D10E71BC6
:103820000B211E21951C7E14E70A24010CF612EAD6
:1038300016E1C4DED6E3F4EED9FB7F09BB151B20ED
:10384000EE253B24F31BE00FEE0103F5D9EB06E573
:10385000F4E175E3DAED30FAE30722135B1CF7239A
:103860002724901E1B139905AEF83EEEE7E5FCE118
:103870005FE2B0E963F4C6026C12271DBC21AD20E3
:103880001A1BEA12F30721FA0FEE43E560E3EBE4BB
:10389000F3EA38F59301F00E0B1A31200B20F51ADC
:1038A0004F121009D6FEF5F21CE89EE2CEE4D1ECF0
:1038B000EFF70C04570FE4194B2142247F20051722
:1038C000930A0EFC01F132E9CCE306E4E6E8D7F214
:1038D0000FFF010B3316F71EE123E422CE1BDB0F93
:1038E000FB01D2F405EA21E3A1E203E757EFF2FA84
:1038F0000407E912061C09212721431B2E11C104CC
:1039000030F7BFEB31E3C1E0FFE4E0EDBCF8C40306
:10391000B90E3B19EC20E7217C1BCE0FE604DAF848
:103920002AEECEE5B4E001E3A3EAC8F66202250D73
:103930004F184F1FD021301E0015400A12FDE5F12F
:10394000C2E815E301E424E9E1F33A00280D761812
:10395000071FE821761DDD130B0A1AFD67F1BBE88E
:103960000000000001010101D8390000F039000019
:10397000150D000000000000843900000202020062
:10398000010200000101FFFF000000005D000000D7
:10399000000000002E00000001FFDF00000000001A
:1039A00000000000A8390000010000000000000035
:1039B0000000000000000000000000000000000007
:1039C00000000000000000000000FFFFDFDF00003B
:1039D0000000000000000000F0150020E4390000A5
:1039E000F03A000084000020EC39000000FFFFFFE7
:1039F000F8150020FC390000F03A00009400002087
:103A0000043A000001FFFFFF17000000103A000019
:103A1000008000000400000000000106000100001A
:103A20000000010601010000000001060201000083
:103A30000000010603010000004000000501000035
:103A40000400000006010000000001000801000061
:103A50000000010009010000000001000A0100004F
:103A60000000010C0F0100000000010C0502000025
:103A7000000001000003000004000000000400003A
:103A8000000001050104000000000105020400001F
:103A900000000112030400000000011204040000F1
:103AA00000000112050400000000011206040000DD
:103AB0000000011307040000000001130E090000BC
:103AC000000001130F0900003E3F4100000000000C
:103AD00000000000000000000000000000000000E6
:103AE0000000000000000000020403040404FFFFC3
:103AF000811D0000591E0000FD1B0000A91C0000D4
:103B0000151B00000D1B0000111B0000C51C000050
:103B1000351D000001000200080010000000000038
:103B200001000000000010A80000000000000000DC
:103B300000000000000008A00000000000000000DD
:0C3B400000000000250500000105000049
:020000040101F8
:10001800FFFFFFFFFFFFFFFFFFFFFFFFFFFFFFFFE8
:0C002800FFFFFFFFFFFFFFFFFFFFFFFFD8
:04000003000022AD2A
:00000001FF
