:100000000808FE1F2D1F0000F1170000391F000017
:10001000391F0000391F0000391F0000391F000080
:10002000000000000000000000000000391F000078
:10003000391F000000000000391F0000391F0000B8
:10004000510A0000510A0000B51E00002008FE1FE2
:10005000840DFE1F000000030000FE1F0000FE1FB5
:100060000000006000010C030000FE1F0000FE1FE6
:1000700000001040000002030000FE1F0400FE1FED
:100080004004000000000103010000004C000000DB
:0800900003000000580000000D
:08040000FFFFFFFFFFFDFFFFFE
:100440000100000038B5524D5249284600F010F91D
:10045000040008D0DFF840310FF2781260A10020CC
:1004600000F05AFD18E04D494D4800F001F9040034
:1004700012D0284600F072FA30B14A4B0FF25412F3
:1004800057A1002000F048FDDFF81C310FF24412A4
:1004900053A1002000F040FD204632BD10B53C487D
:1004A00000F0AEF9040007D00FF268130FF24C12FF
:1004B0004BA1002000F030FD204610BD007900283F
:1004C00000D070471CB5364C6946204600F017FA3C
:1004D00018B136490120086013BD9DF804000128B9
:1004E00012D0204600F08CF950B13049DFF8C0300E
:1004F00050A201200860002039A100F00DFD13BDBD
:100500002C490120087013BD2A480222027013BD35
:1005100010B5294B198821B9244C284B01202060A3
:1005200011E027490A7882F001020A70007990B937
:100530000A7858680188234800F048FD58B11B49E3
:10054000214B012008600020BDE810400FF2FC02A2
:1005500023A100F0E1BC10BD80B50D4800F0FEF90C
:1005600030B11A4B0FF2FC021DA1002000F0D4FCA8
:100570000B4800F0F3F948B1BDE80050DFF8503007
:100580000FF2E00216A1002000F0C6BC01BD000081
:100590009408FE1F80220000C420000058220000A2
:1005A0007408FE1FFC20000038210000BC08FE1F5C
:1005B00070210000B508FE1F482200009C210000A9
:1005C0000000FE1F6C08FE1FC4210000E82100008F
:1005D000182200006167745F696E69740000000092
:1005E0005B4552525D20496E2046756E6374696F9B
:1005F0006E3A20257328292C202573006167745FCB
:1006000073746172745F6F6E6573686F745F746921
:100610006D6572000D0A20414754302074696D6584
:1006200072207374617274206661696C65642E0D4A
:100630000A0000006F6E655F73686F745F74696DA8
:1006400065725F63616C6C6261636B007065726997
:100650006F6469635F74696D65725F63616C6C621E
:1006600061636B006167745F6465696E6974000043
:10067000F8B504000D4618BF002D23D0E86908B373
:100680002268DFF85464B24242D0696911B92A780D
:10069000012A05D195F91210002901D50B20F2BDD0
:1006A000002121736560696861B1B1F1011F09D250
:1006B000297C0322CA40D30727D50078502803D1CC
:1006C000C80709D40120F2BD0028287A08D10428DF
:1006D000F8DA022806D1F5E7287A0028F2D101E0FD
:1006E0000828EFDADFF8F423207B02EB0122A26076
:1006F000002814BF02F10C0102F10801EFF310828F
:10070000012787F31088287C04E040F27A50F2BD7C
:100710000E20F2BDDFF8C833D3F800C0C0F10300EB
:1007200007FA00F02CEA00001860186882F31088BD
:10073000002008700878C0F340000028FAD1002299
:100740008A70207B0028A06814BF00F10C0100F122
:100750000801D5F81CE09EF804C09EF800009EF841
:1007600003E0024600230EF0070E28B9287A30B1C4
:10077000020182F0200202E0502818BF2B7A81F893
:1007800004C0002088714EEA02024A708B70204635
:10079000696800F028F995F91200010028D46B7CF3
:1007A000DFF840C302461B010CF80230DFF8383393
:1007B00043F82140DFF8343303EB810CDCF800E030
:1007C0002EF4803ECCF800E053F82110BFF35F8F89
:1007D000DFF81C3300F01F00510907FA00F043F85E
:1007E000210002F01F02DFF80C03974040F821704F
:1007F000686960610020A969E161A0612660F2BDBD
:1008000038B5044600F0D6F890B9207B0028A068DF
:1008100014BF00F10C0500F108056068017801299A
:1008200003D12169204600F0DEF8F1202870002075
:1008300032BDD8B10168DFF8A022914201D0072073
:100840007047017B0029816814BF0C3108310A7898
:1008500002F001020B78C3F340039A42FAD1017B04
:100860008068002914BF0C30083001E00120704777
:10087000F02101700020704738B505460C4600F0A5
:1008800099F860B9287B28B914B1B4F1011F01D3DC
:10089000012032BD2146284600F0A5F8002032BDD7
:1008A00070B50C00054611D000F084F830BB286903
:1008B000A0606868C1690A78502A18D1017C8E4E00
:1008C0004A1ED2B256F8220010B914E0012070BDC1
:1008D000A868297BA0F5807000F095F869680A7C0B
:1008E000531EDBB256F82310B0FBF1F003E0297B76
:1008F000A86800F088F860600020207070BD0029B2
:1009000018BF002825D00268734B9A4201D00720F7
:100910007047027B002A826814BF0C3208321378B9
:1009200003F0010392F800C0CCF3400C6345F9D109
:10093000027B002A826814BF0C3208321278C2F39C
:1009400040020A71027B8068002A14BF0068008898
:1009500001E00120704708600020704710B5044690
:1009600000F028F828BB207B0028A06814BF0C30BA
:100970000830F421017000220271606890F91210B1
:1009800011F1210F13D008000BD4012201F01F0038
:100990005A4B8240490943F82120BFF34F8FBFF3E0
:1009A0006F8F6168504891F9122040F82240002072
:1009B000206010BD98B10168474A914211D1017B76
:1009C0008068002914BF0C300830017801F0010163
:1009D0000278C2F340029142FAD100207047012010
:1009E0007047072070474368027BDFF80CC1016144
:1009F0001B7C4CF82310491E12B1806801607047BF
:100A0000826811807047002914BF00F10C0200F1C8
:100A100008025078C0F3021111F0FC0F10D1384ACF
:100A2000384812680068130E03F00703120A984052
:100A300002F00702D0400A0007D081F0020104E072
:100A400091784FF4004001F00701C8407047000062
:100A5000F0B583B0EFF30380103840B2234901EBC7
:100A60008002136823F48033136051F820101E496C
:100A700051F82040207B0028A06814BF00F10C052D
:100A800000F10805297860680278012A04D1F42071
:100A9000287001F0F00129706069C0B1A0690028D8
:100AA0000FBF68466A4690E8C80082E8C800890619
:100AB00044BF00220271E269026061698847A0694F
:100AC00020B1694691E81C0080E81C00297801F0FB
:100AD0000F01297003B0F0BD5447410000400840A9
:100AE0000870044000E400E05808FE1F0063004066
:100AF00080E200E000E100E0C008FE1F80E100E0CD
:100B000020E00140800DFE1F38B50446A0686368F0
:100B1000421C934205D325682954A260E068401C1A
:100B2000E060A268606882420CD12168206900F010
:100B300040FCA168884203D04FF0FF30E06031BD37
:100B40000021A16031BD2DE9F84F07468846914646
:100B50009A460125012002E0B1FBF9F1401C49450C
:100B6000FAD20B9E824528BF50460090F0070A9C9F
:100B700017D4B4B1B00702D5BAF1000F02D04FF0CC
:100B8000200B0BE04FF0300B08E059463846FFF7DA
:100B9000BBFFF868641E002803D454B10098A0423B
:100BA000F3D3F96800292FD403E0AAF1010A09FB65
:100BB00005F5BAF1010FF8D8B8FBF5F0484528BFA4
:100BC00009FB05F5F8D20FF26C31B8FBF5F005FB27
:100BD0001088095C3846FFF797FFF868002803D4AF
:100BE000B5FBF9F5002DEED1F0070DD564B1009DF0
:100BF000A54209D220213846FFF786FFF868641E17
:100C0000002801D4002CF3D1BDE8F18F2DE9F04F7D
:100C100097B083460E4607A8402100230290039117
:100C20000493CDF818B00593174616F8010B002869
:100C300000F05F81252840F05481002502E045F056
:100C40000105761C307823280CD02B2807D02D28BE
:100C5000F5D0302808BF45F00205F2D005E045F098
:100C60000405EEE745F00805EBE7002406E004EB99
:100C7000840100EB4100761CA0F130043178084675
:100C8000A0F130020A2AF2D300202E29804617D183
:100C900016F8011F2A290ED1396851F8048B3960E2
:100CA000761C01200CE008EB880201EB42010120D8
:100CB000761CA1F130083178A1F130020A2AF2D372
:100CC000317801E016F8011F6C2918BF6829F9D0A6
:100CD000252900F00181582900F0B98063290ED040
:100CE000642912D0702900F0EA80732900F0B780DF
:100CF000752900F0A380782900F0A980EFE038681A
:100D00000168021D3A60C9B2E6E0386850F8049BF9
:100D100038604846002848BF4042012106E07D4A2D
:100D200080FB0232901000EBD070491C0A28F6DAE2
:100D3000C246884538BF8A462CB1B9F1000F01D4AC
:100D4000680700D5641EA80702D5B8F1000F27D0A8
:100D5000E80725D424B3A24522D20499039A641E3D
:100D6000481C824207D2049A039882420BD005980D
:100D7000002813D514E0029B20225A5404900598B1
:100D8000401C0590EFE70299069800F012FB0499C9
:100D9000884204BF00200490E9D040E024B1DAE7A3
:100DA0000598002800F19B80B9F1000F03D5C9F127
:100DB00000092D2102E0680707D52B2102A8FFF7C3
:100DC000A3FE0598002800F18A8005F0030102299E
:100DD00008BFB8F1000F2BD154B3A24525D2049916
:100DE000039A641E481C824207D2049A03988242E6
:100DF0000BD00598002816D517E0029B30225A54D4
:100E000004900598401C0590EFE70299069800F0C1
:100E1000D0FA0499884204BF00200490E9D04FF032
:100E2000FF30059072E01CB1D7E70598002856D432
:100E30000195009443460A22494649E0386850F833
:100E4000041B38600195009443460A2240E038684C
:100E500050F8041B386001950094434637E0396828
:100E600051F8044B39600CB930A40020054614F841
:100E7000010BA0B315B1B8F1000F30D0049A039B59
:100E8000511C8B4209D2049A039882420CD00598D7
:100E90000028A8F10108EAD521E0029B98540491AA
:100EA0000598401C0590EEE70299069800F081FA3B
:100EB0000499884204BF00200490E8D0AFE7386866
:100EC00050F8041B3860002208230192009310227E
:100ED00002A8FFF738FE02E002A8FFF715FE761C15
:100EE00003E0014602A8FFF70FFE059800287FF5F2
:100EF0009CAE0598002809DD049A1AB107A9584646
:100F000000F057FA0599049841180591059817B013
:100F1000BDE8F08F676666660CB480B502AB0093DF
:100F20006A46FFF773FE02BC5DF80CFB284E554C79
:100F30004C290000303132333435363738394142AC
:100F400043444546EFF31081012282F31088DFF815
:100F50000822106838B9DFF80402002303704FF04C
:100F6000400C80F800C01068401C106013E0EFF3E4
:100F70001081012282F31088DFF8DC21106810B1A3
:100F800013685B1E1360106828B9DFF8D0010022D7
:100F900002708023037081F31088704780B50028A9
:100FA00018BF00290AD04A680AB90B8833B9036808
:100FB000DFF8AC21934203D10E2002BD012002BD17
:100FC0000260084600F02FF8002002BD30B488B15E
:100FD0000068634B98420ED1022A0DDA00200023EC
:100FE00021F0FF04012505FA01F1002A0CBF0B04D2
:100FF000084602E00BE00DE00FE024B25A49C4F3CA
:10100000072201EB421180B21843886008E030BC2F
:101010000120704730BC0720704730BC0320704768
:10102000002030BC704738B5044600F031F8FFF7B7
:1010300089FF002509E0606850F83510001D30F880
:10104000350000F008F86D1CADB220888542F2DB57
:10105000BDE831408BE730B4CA030FD5414B040AD9
:1010600003EB841300F0FF0203EB8204256825F4F0
:101070008035256021F4803443F82240030A394A40
:1010800002EB831400F0FF0044F8201030BC7047DE
:101090002DE9F84F4FF0000B8046D94627E0334C3E
:1010A00022780126BE40F1B20A400BDC2878C00944
:1010B00013D02A7802F07F022A700121C82000F0A4
:1010C000BDF90AE0012000F021FA207820EA0606A6
:1010D0002670012000F0FAF9E8E77F1CAD1C032F11
:1010E0000AF1020A0BD30BF1010B09F10809B8F858
:1010F000000083452DD200270FF2780A1C4DD8F846
:101100000400BAF80020031D33F809109142E4D11D
:1011100050F8090000F0F850B0F1807F18BFB0F12E
:10112000106FBCD1114C21780126BE40314208D14C
:10113000012000F0EBF9207806432670012000F032
:10114000C5F92878C009C8D1287840F080002870F7
:10115000B3E7BDE8F18F00005408FE1F030D044003
:1011600054524F500008044000000440BBE40140CA
:10117000404004400204030404040000F8B5DFF812
:101180008C42A821204600F0E7F9032222610320C7
:10119000606104F1A8010FF28420A061E1614FF4C5
:1011A000806222620021A16200226262E162206606
:1011B000102104F595606066A1660020206700217B
:1011C000E16600286067BFF35F8F0FF25C2101F1D9
:1011D0000F0201F10F0312F8046904F8016B401CBF
:1011E0004542401C13F805C001F10F06474204F8C0
:1011F00001CB401C16F807E004F801EB4542401C07
:101200005E5D04F8016B1028E5D3BFF35F8FF1BD7D
:101210002DE9F84305468846EE6814464FF000096C
:101220002F69BE4231BFBF1BA868801B3F18A8684A
:101230007F1E801B874215D2A74288BF2746686859
:101240003A464146801900F08BF9A968E41BBE19A3
:101250008E42B944B84407D0BFF35F8F002CEE60D4
:10126000DED103E00746E7E70026F5E74846BDE89C
:10127000F28300002DE9F0410446E768A5681646B0
:10128000ED1BAE42884607D26068384400F068F92A
:10129000BFF35F8FF6190DE063682A46D81900F096
:1012A0005FF9761B6068324608EB050100F058F9DB
:1012B000BFF35F8FE660BDE8F08101460869CA6848
:1012C000824201D300F0A4B89DE02DE9F843DFF895
:1012D0003C510446287888469146532818BFFFF7AA
:1012E0004DFF04EB440005EBC00000F16006002553
:1012F0003769F468BC4212D2B568ED1B4D4588BF12
:101300004D467068C1192A46404600F029F9B16877
:10131000EF19A844A9EB05098F4208BF0027E41B79
:101320004C4588BF4C463CB17068C11922464046C6
:1013300000F016F96519E71905B137612846BDE8CF
:10134000F28310B5EFF31184202383F31188FFF7A4
:10135000BCFF84F3118810BD70B50C461546DFF84C
:10136000AC1000EB400201EBC20000F118067169FD
:1013700019B1022913D006D318E03046FFF79DFFBC
:10138000A84206D212E03046FFF797FFA84298BF66
:1013900005462A4621463046FFF76CFF07E02A46FD
:1013A00021463046FFF734FF054600E00025284679
:1013B00070BDF8B50546DFF854000E4601781746B3
:1013C000532918BFFFF7DAFEEFF31184202080F3D2
:1013D00011883A4631462846FFF7BEFF84F311884C
:1013E000F2BD10B5DFF824402078532818BFFFF76E
:1013F000C5FE04F160000169C068814201D001208E
:1014000010BD002010BD801A401E7047C808FE1F86
:101410008968491E8A1A8018704700005465726DE9
:10142000696E616C00000000000000000000545470
:10143000522052454747455300000000B8B4484386
:101440001A491B4B0A689A420FD31A491A4D8A1837
:10145000A2FB0554640DA4FB00010123994221D293
:1014600008B1B2BC2CE0B1BC7047144BB3FBF2FC2A
:101470004FF47A740021A4FB002314FB01330127ED
:10148000BB4203D2B2FBFCF08008E9E74FEA8C03D1
:10149000B0FBF3F20023A4FB020114FB0311B942D9
:1014A00000D8DDD34FF0FF30DBE70000800DFE1FDA
:1014B00000127A00FF083D0006BD378600CA9A3B3D
:1014C00001380028FCD1704770470000EFF310820C
:1014D000012181F310881C4B33F8101029B133F827
:1014E0001010A1F1010C23F810C033F8101049B905
:1014F00016490FF25C0C0B883CF8100043F42543AE
:1015000083430B8082F310887047000070B4EFF3C0
:101510001082012181F310880B4B33F8101049B968
:10152000DFF828400AA6258836F810100D4345F448
:101530002545258033F81010491C23F8101082F33C
:10154000108870BC704700006408FE1FFEE3014075
:101550000100020008001000002200F03DB8000069
:1015600062B38B0708D0521E11F8013B00F8013B13
:1015700000F024808B07F6D1830740F0208000BF65
:10158000103A07D330B4B1E83810103AA0E8381058
:10159000F9D230BC530724BFB1E80810A0E8081006
:1015A00044BF51F8043B40F8043BD20724BF31F854
:1015B000022B20F8022B44BF0B7803707047083AC7
:1015C00007D3B1E80810083A40F8043B40F804CBD0
:1015D000F7D25307E4E70000401810F0030308D0E7
:1015E000C91A1FD3DB0748BF00F8012D28BF20F818
:1015F000022D130030B414461546103928BF20E9D7
:101600003C00FAD8490728BF20E90C0048BF40F841
:10161000042D890028BF20F8022D48BF00F8012DB5
:1016200030BC7047C91818BF00F8012DCB0728BF80
:1016300000F8012D704700005949584A8879096817
:1016400052F82000090E01F00701C8405549086012
:101650007047000070B5554C5549564B564D574E86
:101660004AF203522280002008804FF400414B4888
:10167000534A0260816001614360524A5249C2602C
:101680004161FFF7D9FF202060750921297030786A
:10169000002804BF707810F0030F04D14FF47A7063
:1016A00000F048F80DE0307838B901213170C820D9
:1016B000FFF7C4FE30780128FCD1002171700020B2
:1016C00030700621364EE9700020B074307FC0F3D0
:1016D000C0000028FAD04FF41C5030810021B172B4
:1016E000307FC0F340100028FAD00220304D374937
:1016F000287731600522B271FFF79EFF2A48F12159
:101700000170BFF35F8F0E220271BFF35F8FF02174
:10171000017001222E49327401200870402232717A
:101720004FF4254020800121A980A8880028FCD101
:10173000298070BD704710B5264C0022A27101218E
:10174000C820FFF77BFE0021A170A0780028FCD103
:10175000A07840F00200A070A078C0F340000028FC
:10176000FAD1217020780028FCD104F11E02032157
:10177000137803F07F0313701078C009FCD1921C1A
:10178000491EF5D10120FFF7C1FE13490020087062
:101790000120BDE81040FFF799BE00000808FE1FB9
:1017A00020E00140800DFE1F04200040FEE30140C8
:1017B00000C1014000127A00A2E0014080E4014033
:1017C000002D3101001BB700001C4E0E211201211B
:1017D00052E0014022400440BBE4014020B10349F3
:1017E0000A6802600020704701207047802A0000CC
:1017F000F8B50C4C0A4F2588208C0540002625FAA8
:1018000006F0C00703D5396809B1F0B28847761CE5
:101810003F1DF0B20D28F2DB2582F1BD0000000073
:101820002008FE1F206100400849B1F9000008B1FE
:10183000074A1060B1F9020008B1054A5060B1F9D9
:10184000040008B102498860704700BF242A0000E4
:10185000006300402DE9F8410FF2AC4108688FB0F9
:1018600000210290002203A80023002480E81E002B
:101870000AA907AD00260027944681E81C0085E8E8
:10188000C01002A8FFF7AAFF9DF809009DF80A10F2
:1018900001900091DFF854539DF80B3013A22946B4
:1018A0000020FFF739FB05F5EC710020FFF734FB52
:1018B000FEF7C8FD040010D00FF274330FF2483267
:1018C0000FF250310020FFF727FB34B122460FF210
:1018D0007C310020FFF720FB00BE05F55071002091
:1018E000FFF71AFB0FF2843104E000BF312E310004
:1018F00005F578710020FFF70FFBFFF772FD002858
:10190000FBD003A8002100220023002480E81E0051
:10191000102203A90020FFF714FD03A800F097FA96
:10192000074640F2D174A742E2D2002FE0D03A46F7
:1019300005F56D710020FFF7EFFA0FF2443101E079
:1019400005F578710020FFF7E7FAFFF74AFD002858
:10195000FBD003A800210022002380E84E001022C3
:1019600003A90020FFF7EDFC03A800F070FA804601
:10197000A045E5D2B8F1000FE2D0424605F20C4195
:101980000020FFF7C9FA9A4E0AA93046FEF788FFF1
:10199000040010D0FEF7E0FD05F587630FF2682222
:1019A0009CA10020FFF7B8FA2CB12246A7A1002085
:1019B000FFF7B2FA00BE0B988E4A4743A7FB0221FD
:1019C000490A3046FEF758FF040010D0FEF7C4FD68
:1019D00005F27C430FF230228EA10020FFF79CFA23
:1019E0002CB1224699A10020FFF796FA00BE824F43
:1019F00007A93846FEF754FF040010D0FEF7ACFDEF
:101A000005F587630FF2002282A10020FFF784FA18
:101A10002CB122468DA10020FFF77EFA00BE089867
:101A2000744A00FB08F8A8FB0221490A3846FEF771
:101A300023FF040000F01180FEF78EFD05F2C44381
:101A40000FF2C41273A10020FFF766FA2CB12246F0
:101A50007EA10020FFF760FA00BE05F20C510020C5
:101A6000FFF75AFADFF8948156E0002088F800006A
:101A700005F5A761FFF750FA34E0002088F801006F
:101A800005F25C51FFF748FA05F5B0610020FFF759
:101A900043FA05F5B5610020FFF73EFA05F5BA6196
:101AA0000020FFF739FA21E069463046FEF727FFAC
:101AB00004005CD19DF80400002800F077803046D7
:101AC000FEF7B7FE040004D084A10020FFF724FA3B
:101AD00056E005F5CE610020FFF71EFA98F80000E9
:101AE0000128C2D098F801000128C6D098F801005A
:101AF000022811D1002188F80110002005F2F451CC
:101B0000FFF70AFA05F21C610020FFF705FA05F25B
:101B10004C610020FFF700FAFFF763FC70B103A8E7
:101B2000002100220023002480E81E00102203A9C7
:101B30000020FFF706FC414601204860D8F8040069
:101B40000128CBD1002300BF0FF2C01271A4C8F846
:101B50000430D2E90001D4E90023CDE90D01CDE93B
:101B600000230DA93846FEF7CAFE04009CD000BF32
:101B700054A300BF0FF2381226A10020FFF7CCF9C2
:101B8000002CABD0FEF7E8FC0FF208130FF278023E
:101B900020A10020FFF7C0F9002C9FD04FEA0402DB
:101BA0002AA10020FFF7B8F900BE97E79DF838009A
:101BB00050B13846FEF73DFE040018BF0FF21C136B
:101BC000D7D105F2AC6186E7FEF768FC040018BFC8
:101BD0000FF22013CDD1012088F800007EE7022803
:101BE00003D107490748FFF7D9B97047A022000081
:101BF0009408FE1F986E12837408FE1FB408FE1F1F
:101C0000182A00006C08FE1F68616C5F656E7472B4
:101C1000790000005B4552525D20496E2046756E8A
:101C20006374696F6E3A20257328292C2025730070
:101C30000D0A202A2A2041475420494E4954204663
:101C400041494C4544202A2A200D0A000D0A5265BC
:101C50007475726E6564204572726F7220436F6492
:101C6000653A203078257820200D0A000D0A4F6E45
:101C7000652D73686F74206D6F64653A0000000015
:101C80000D0A506572696F646963206D6F64653A0F
:101C9000000000000D0A54696D6572207374617252
:101CA000742F73746F70206661696C656400000046
:101CB00074696D65725F7374617475735F63686571
:101CC000636B00000D0A537461747573476574206B
:101CD000415049206661696C656400000D0A414706
:101CE000542053746F7020415049206661696C65BF
:101CF000640000000D0A204147542073746172741F
:101D0000206661696C65640000000000000000004E
:101D10000000000000000000000000002DE9F84F66
:101D200084B00BB100241C600446274600E07F1CF1
:101D30003878A0F10903052BF9D32028F7D02D28F6
:101D400016BF2B2817F8018B4FF02B08002A0191A2
:101D500003D4012A01D0252A03DB002950D00C60CE
:101D60004EE0002A0ADD102A04BF3878302802BF6E
:101D7000787840F0200078280ED10AE038783028B2
:101D800018BF0A2208D1787840F02000782802D1C4
:101D90001022BF1C00E00822039700E07F1C387867
:101DA0003028FBD0DFF81CB0FB440BF1180B4FF0D0
:101DB00000090BF128000297CA468DF8000015466D
:101DC0000BE000BF680C000006469DF80000361AC4
:101DD000CA46F6B205FB09697F1C3978A1F14100BA
:101DE0001A2838BF20312A460BF1280000F036F8B7
:101DF0000028E9D10399B94204D1019800B10460E7
:101E0000002020E002991BF80500791A091A002920
:101E100010D406DCB9EB060603D3B6FBF5F050454B
:101E200008D0AFF30080049808B1012101604FF0A1
:101E3000FF3904E0B8F12D0F08BFC9F1000901987E
:101E400000B10760484605B0BDE8F08F03E0FFE74A
:101E50000A220021FAE7002360E70000C9B28307E5
:101E600006D0521E22D310F8013B9942F7D11FE051
:101E7000083A13D302F1040241EA012141EA014187
:101E800050F8043B121F21BF4B40A3F1013C2CEA48
:101E9000030C1CF0803FF3D0C9B2001F0832521E61
:101EA00024BF10F8013B91EA030FF8D818BF0120B6
:101EB000401E70473EB5EFF30380A0F110051A48AD
:101EC0006DB250F8251017484A79805C002400F064
:101ED0000300032808BF012409D0114800EB850046
:101EE000026822F4803202600D4850F82500002973
:101EF0001CBF8868002806D0487901906846CB68E6
:101F00000093896888474CB1054800EB850001685B
:101F100021F480310160024850F8250003B030BD43
:101F200000630040006000405808FE1F80B500F0CC
:101F30002EF800F083F8FEE700BE7047F8B5334E88
:101F4000346805467CB17768B868C0F307208542DD
:101F500003D00C37641EF7D105E038687968091A98
:101F600000F072F8F5E7B46884B1F668F068C0F381
:101F70000720854203D01036641EF7D1F1BD3068CA
:101F80007268B168121AFFF7FBFAF4E7F1BD80B589
:101F90001F49204B204A4FF4700008601A6000204F
:101FA000FFF71DFEFFF756FB0120FFF718FE1B4849
:101FB000002181804FF4254202801949194A81602D
:101FC00001F58063C3604FF4805111800123838049
:101FD0000020FFF7B3FFFFF72FFBFFF7ACFB02205A
:101FE000FFF7FDFD0120FFF7A9FF0F4A0F49104839
:101FF000FFF7B6FA0F49104800F02AF8FFF714FC73
:10200000BDE80240002000F02FB80000880000006A
:1020100088ED00E008ED00E000000000000D004049
:102020000804FE1F206100400000000000000000C6
:1020300000000000000000000000000080B5FFF775
:1020400009FC002002BD0000002200F00FB80000D3
:1020500038B504460D46AC4205D0206820188047AC
:10206000241DAC42F9D131BD7047000000B500BF5E
:10207000130096469446103928BFA0E80C50FAD8B1
:102080005FEA417C28BF0CC048BF40F8042BC90759
:1020900028BF20F8022B48BF00F8012B00BD00002C
:1020A0004EF68851CEF20001086840F470000860D6
:1020B000BFF34F8FBFF36F8F4FF00170E1EE100A47
:1020C000704700000D0A414754302074696D6572F5
:1020D000206F70656E206661696C65642E0D0A5212
:1020E00065737461727420746865204170706C69E6
:1020F000636174696F6E0D0A000000000D0A4F6E77
:10210000652073686F742074696D657220636C6FED
:102110007365206661696C65642E0D0A526573747F
:1021200061727420746865204170706C69636174B9
:10213000696F6E0D0A0000000D0A4147543120748A
:10214000696D6572206F70656E206661696C65648B
:102150002E0D0A5265737461727420746865204193
:1021600070706C69636174696F6E0D0A0000000025
:102170000D0A414754312043616E6E6F74206265D1
:10218000207374617274656420696E205065726991
:102190006F646963206D6F64650000000D0A45720D
:1021A000726F723A204E6F204C6564277320466F21
:1021B000756E64206F6E2074686520626F61726452
:1021C000000000000D0A4C45445F50494E207374D6
:1021D0006174652063616E6E6F7420626520746F38
:1021E00067676C65640000002A2A20525F414754EB
:1021F0005F436C6F73652041504920666F722063A6
:1022000068616E6E656C2030206661696C65642063
:102210002A2A20200D0A00002A2A20525F41475412
:102220005F436C6F73652041504920666F72206375
:1022300068616E6E656C2031206661696C65642032
:102240002A2A20200D0A0000010000007C2A00003C
:1022500040000001000000010000000000800000BC
:102260000000000000000000010201001105000054
:1022700000000000502200004000000100000001AA
:1022800001000000008000000000000000000000CD
:1022900000020000BD0400000000000078220000E1
:1022A0000D0A2A2A2A2A2A2A2A2A2A2A2A2A2A2ACB
:1022B0002A2A2A2A2A2A2A2A2A2A2A2A2A2A2A2A7E
:1022C0002A2A2A2A2A2A2A2A2A2A2A2A2A2A2A2A6E
:1022D0002A2A2A2A2A2A2A2A2A2A2A2A2A2A2A2A5E
:1022E0002A2A2A2A0D0A2A20202052656E65736147
:1022F0007320465350204578616D706C6520507294
:102300006F6A65637420666F7220725F6167742004
:102310004D6F64756C652020202020202020202017
:10232000202020202020202A0D0A2A202020457845
:10233000616D706C652050726F6A656374205665BC
:102340007273696F6E2025732020202020202020AA
:10235000202020202020202020202020202020207D
:10236000202020202020202020202A0D0A2A202082
:1023700020466C657820536F6674776172652050D3
:1023800061636B2056657273696F6E202025642E21
:1023900025642E256420202020202020202020209D
:1023A000202020202020202020202020202020202D
:1023B000202A0D0A2A2A2A2A2A2A2A2A2A2A2A2AC4
:1023C0002A2A2A2A2A2A2A2A2A2A2A2A2A2A2A2A6D
:1023D0002A2A2A2A2A2A2A2A2A2A2A2A2A2A2A2A5D
:1023E0002A2A2A2A2A2A2A2A2A2A2A2A2A2A2A2A4D
:1023F0002A2A2A2A2A2A0D0A526566657220746FD3
:1024000020726561646D652E7478742066696C65F0
:1024100020666F72206D6F72652064657461696CEF
:1024200073206F6E204578616D706C652050726FFF
:102430006A65637420616E640D0A465350205573BB
:1024400065722773204D616E75616C20666F722016
:102450006D6F726520696E666F726D6174696F6E03
:102460002061626F757420725F61677420647269A5
:102470007665720D0A0000000D0A546869732045E4
:1024800078616D706C652050726F6A65637420644A
:10249000656D6F6E73747261746573207468652006
:1024A00066756E6374696F6E616C697479206F66AE
:1024B0002041475420696E20706572696F646963BA
:1024C000206D6F646520616E64206F6E652D73688A
:1024D0006F74206D6F64652E200D0A4F6E20707230
:1024E0006F766964696E6720616E7920696E7075B8
:1024F00074206F6E20746865205254547669657735
:1025000065722C20414754206368616E6E656C20B3
:10251000302073746172747320696E206F6E652D44
:1025200073686F74206D6F64652E2041475420637B
:1025300068616E6E656C2031200D0A73746172746F
:102540007320696E20706572696F646963206D6FB6
:102550006465207768656E20414754206368616E2A
:102560006E656C203020657870697265732E20541A
:10257000696D657220696E20706572696F64696348
:10258000206D6F6465206578706972657320706571
:1025900072696F646963616C6C790D0A61742061A2
:1025A0002074696D6520706572696F642073706551
:1025B000636966696564206279207573657220615C
:1025C0006E6420746F67676C657320746865206F34
:1025D0006E2D626F617264204C45442E0D0A00001E
:1025E0000D0A506C6561736520656E7465722074A8
:1025F000696D6520706572696F642076616C7565C0
:102600007320666F72206F6E652D73686F74206122
:102610006E6420706572696F646963206D6F6465B4
:102620002074696D65727320696E206D696C6C69C8
:102630007365636F6E64730A2056616C69642072FF
:10264000616E67653A203120746F20323030300D72
:102650000A0000000D0A54696D6520706572696F8B
:102660006420666F72206F6E652D73686F74206DC5
:102670006F64652074696D65723A2025640D0A00E7
:102680000D0A496E76616C696420696E7075742EEE
:1026900020506C6561736520656E7465722076618B
:1026A0006C696420696E7075740D0A000D0A5469B6
:1026B0006D6520706572696F6420666F7220706549
:1026C00072696F646963206D6F64652074696D65FC
:1026D000723A2025640D0A000D0A496E666F47653F
:1026E0007420415049206661696C65642E436C6FAB
:1026F00073696E6720616C6C2064726976657273B1
:102700002E20526573746172742074686520417064
:10271000706C69636174696F6E0D0A000D0A506513
:1027200072696F6453657420415049206661696C19
:1027300065642E436C6F73696E6720616C6C2064F6
:102740007269766572732E2052657374617274209B
:10275000746865204170706C69636174696F6E0D97
:102760000A0000000D0A506572696F645365742099
:10277000415049206661696C65642E20436C6F731B
:10278000696E6720616C6C20647269766572732E65
:102790005265737461727420746865204170706C46
:1027A00069636174696F6E0D0A0000000D0A456E61
:1027B00074657220616E79206B657920746F207367
:1027C00074617274206F722073746F702074686506
:1027D0002074696D657273000D0A41475430206999
:1027E0007320456E61626C656420696E204F6E6572
:1027F00053686F74206D6F64650000000D0A0D0A48
:102800004F6E652D73686F74206D6F64652041474E
:10281000542074696D657220656C61707365640025
:102820000D0A0D0A4147543120697320456E6162DB
:102830006C656420696E20506572696F64696320FD
:102840006D6F6465000000000D0A4C4544207769F7
:102850006C6C20746F67676C6520666F722073659F
:10286000742074696D6520706572696F6400000082
:102870000D0A456E74657220616E79206B65792052
:10288000746F2073746F702074696D6572730D0AB4
:10289000000000000D0A0D0A4F6E652D73686F74FD
:1028A000206D6F6465204147542074696D65722006
:1028B000656C61707365640A000000000D0A0D0A02
:1028C0004147543120697320616C726561647920DD
:1028D00072756E6E696E6720696E20506572696FE1
:1028E000646963206D6F6465000000000D0A456E29
:1028F00074657220616E79206B657920746F207326
:10290000746F70207468652074696D65720D0A00BB
:102910000D0A4F6E652D73686F742074696D657252
:102920002073746F707065642E20456E746572201C
:10293000616E79206B657920746F20737461727495
:102940002074696D6572732E0D0A00000D0A5065C2
:1029500072696F6469632074696D65722073746F46
:10296000707065642E20456E74657220616E7920EA
:102970006B657920746F2073746172742074696D53
:102980006572732E0D0A0000008000000400000034
:102990000000010600010000000001060101000026
:1029A0000000010602010000000001060301000012
:1029B0000000010404010000000001040501000002
:1029C00004000000060100000400000007010000F0
:1029D00000000100080100000000010009010000E2
:1029E000000001000A010000040000000C010000CA
:1029F00000000000010200000000010C05020000C0
:102A00000000010C070200000000010000030000AC
:102A100000000113070400001200000088290000D4
:102A200000000000400043000900000000002115E4
:102A3000110E0D0C0B0B0A0A0909090909080808EF
:102A40000808080807070707070707070707070712
:102A5000070000003031323334353637383961629F
:102A6000636465666768696A6B6C6D6E6F707172BE
:102A7000737475767778797A000000000C01000095
:102A800000000006362E302E300000004275696CC2
:102A90007420776974682052656E65736173204194
:102AA0006476616E63656420466C657869626C6506
:102AB00020536F667477617265205061636B616744
:102AC000652076657273696F6E20362E302E300069
:102AD00000000000000000000000000000000000F6
:102AE00000000000000000000000000000000000E6
:102AF00000000000000000000000000000000000D6
:102B000000000000000000000000000000000000C5
:102B100000000000000000000000000000000000B5
:102B200000000000000000000000000000000000A5
:102B30000000000000000000000000000000000095
:102B40000000000000000000000000000000000085
:102B50000000000000000000000000000000000075
:102B60000000000000000000000000000000000065
:102B70000000000000000000000000000000000055
:102B80000000000000000000000000000000000045
:102B90000000000000000000000000000000000035
:102BA0000000000000000000000000000000000025
:102BB0000000000000000000000000000000000015
:102BC0000000000000000000000000000000000005
:102BD00000000000000000000000000000000000F5
:102BE00000000000000000000000000000000000E5
:102BF00000000000000000000000000000000000D5
:0400000500001F2DAB
:00000001FF
