:100000009876FE1F817100006D7000007D71000008
:100010007D7100007D7100007D7100007D71000028
:1000200000000000000000000000000005120000B9
:100030007D710000000000001D1200007912000018
:100040008D380000BD380000F13800001139000083
:100050001539000045390000493900000000000052
:100060000000000000000000000000000000000090
:100070000000000000000000000000000000000080
:100080000000000000000000000000000000000070
:100090000000000000000000000000000000000060
:10040000FFFFFFFFFFFDFFFFFCFFFFFFFFFFFFFF01
:10041000FCFFFFFFFFFFFFFFFCFFFF00FFFFFF00F0
:10042000FCFF0F20FFFF0F20FCFF7F40FFFF7F40FE
:10043000FCFF0D40FFFF0D40FFFFFFFFFFFFFFFF31
:10044000FFFFFFFFFFFFFFFFFFFFFFFFFFFFFFFFBC
:10045000FFFFFFFFFFFFFFFFFFFFFFFFFFFFFFFFAC
:10046000FFFFFFFFFFFFFFFFFFFFFFFFFFFFFFFF9C
:10047000FFFFFFFFFFFFFFFFFFFFFFFFFFFFFFFF8C
:10048000FFFFFFFFFFFFFFFFFFFFFFFFFFFFFFFF7C
:10049000FFFFFFFFFFFFFFFFFFFFFFFFFFFFFFFF6C
:1004A000FFFFFFFFFFFFFFFFFFFFFFFFFFFFFFFF5C
:1004B000FFFFFFFFFFFFFFFFFFFFFFFFFFFFFFFF4C
:1004C000FFFFFFFFFFFFFFFFFFFFFFFFFFFFFFFF3C
:1004D000FFFFFFFFFFFFFFFFFFFFFFFFFFFFFFFF2C
:1004E000FFFFFFFFFFFFFFFFFFFFFFFFFFFFFFFF1C
:1004F000FFFFFFFFFFFFFFFFFFFFFFFFFFFFFFFF0C
:1005000010B5054C237833B9044B13B10448AFF34D
:1005100000800123237010BD3803FE1F000000007F
:1005200038C1000008B5034B1BB103490348AFF3C2
:10053000008008BD000000003C03FE1F38C1000021
:100540002DE9F843D0E90295A9EB0508904504464A
:10055000164609D94068284408F048FABFF35F8F6F
:100560003544E560BDE8F8834068284435440F46CB
:100570004246A5EB090508F039FA606807EB080167
:100580002A4608F033FABFF35F8FE560BDE8F883D1
:100590002DE9F8430646D0E90204894617464FF094
:1005A000000833699C42A0EB040503F1FF3224BF2D
:1005B00003F1FF321218BD4228BF3D46121B95427F
:1005C000706828BF154649462A46204408F00EFAAE
:1005D000B0682C44A8447F1BA944A04208BF002453
:1005E000BFF35F8FF460002FDBD14046BDE8F88396
:1005F000154A164B10681649032270B41A61154E3D
:100600005A61154CC3F8070000224FF40065102012
:100610009961DE611D629A625A62DA6219665C66ED
:1006200098661A67DA665A67BFF35F8F0B4A92E8DB
:10063000030018609980BFF35F8F20229A71BFF387
:100640005F8F70BC704700BF8C8A00006456FE1F2D
:10065000808A00006403FE1F5403FE1F908A00007E
:1006600070B5204D00EB400305EBC3030130DC6A9D
:1006700000EB4000012C05EBC0000E46154605D0EE
:10068000022C20D08CB10024204670BD9A6A5C6A8E
:10069000A24221D9013A141BAC4228BF2C46314654
:1006A0002246FFF74DFF204670BD9A6A596A8A427A
:1006B0000DD9013A521A9542E6D831462A46FFF73B
:1006C0003FFF2C46E0E7BDE87040FFF761BF1B6AC3
:1006D0001344013B5A1AEEE71B6A1344013B1C1BEF
:1006E000DAE700BF6456FE1F30B50C4B1B7883B0B1
:1006F0000C4663B1EFF311854FF0200181F31188AF
:100700002146FFF7ADFF85F3118803B030BDCDE979
:100710000002FFF76DFFDDE90002EBE76456FE1F04
:10072000D0E9012310B50446581C904207D822682E
:10073000D154E3686268A060591CE16003469A42A4
:1007400000D010BD21682069FFF7CEFFA368984252
:1007500015BF4FF0FF330023E360A36010BD00BF5F
:100760002DE9F84F1546A942DDE90A920F46834666
:100770001E4661D30B464FF00108B3FBF5F39D42D3
:1007800008F10108F9D9B04538BFB04612F0010AA6
:1007900002D1B9F1000F36D1DBF80C30002B30DB81
:1007A000012402E0013E05FB04F4012EFAD8B7FB58
:1007B000F4F39D42F7D9224E06E0AC42B4FBF5F3C8
:1007C0000CD31C46B7FBF3F3F156584604FB1377E2
:1007D000FFF7A6FFDBF80C30002BEEDABAF1000FC2
:1007E0000FD0B9F1000F0CD0C8454FF0200158468A
:1007F00009F1FF3905D2FFF793FFDBF80C30002B2E
:10080000EFDABDE8F88F930711D420240AE0FFF750
:1008100087FFDBF80C30002B09F1FF39F1DBB9F170
:10082000000FBDD0C84521465846F0D3B4E7002E8E
:100830000CBF30242024F5E74FF00108A3E700BFE8
:10084000988A00002DE9F04FADF50D7D804600231C
:100850004FF400700DF1300ACDE907A0CDE909335E
:10086000DFF8FC92CDF82C800C4616469B4606E03D
:1008700007A8FFF755FF0A980028C0F2BF8014F9B7
:10088000011B002900F0BE802529F1D10027254653
:1008900014F9011BA1F123030D2B08D8DFE803F0A5
:1008A0004A0707070707070747074D070744A1F14E
:1008B0003003DBB2092B4FF000040CD804EB8404A6
:1008C00001EB440415F9011FA1F13003DBB2092B40
:1008D000A4F13004F2D92E2900F0E68095F9001039
:1008E000002301E015F9011F21F00402682AF9D064
:1008F000252900F0F3805839C8B2202878D820295B
:1009000076D8DFE801F0BE75757575757575757506
:1009100075B41D7575757575757575757575A6756F
:100920007596758A7575BE0047F00207AFE747F008
:100930000407ACE747F00807A9E747F00107A6E777
:10094000306802680292002AB8BF52420430092A75
:10095000114630604FF0010C08DD0A46632AA9FBFE
:1009600001010CF1010C4FEAD101F6DC9C45624615
:1009700038BF1A460392002C00F09280029A002A97
:1009800001DB7A0700D5013CB80702D5002B00F047
:100990008780F90700F18480002C00F081800495A5
:1009A0002546039C0593AC424FF0200107A874D262
:1009B000FFF7B6FE0A98002805F1FF35C0F2CD809A
:1009C000002DF0D12C46DDE90453029A002AC0F232
:1009D00092807A0700F19C8007F00301022900F061
:1009E0009E80CDE9004702990A2207A8FFF7B8FECA
:1009F0000A98002805F10104BFF641AF0DF50D7D01
:100A0000BDE8F08F0A980028F8DD099A002A6AD11B
:100A100010440DF50D7DBDE8F08F30680168019739
:100A2000043030600A2207A80094FFF799FE0A9864
:100A3000DFE733681A1D32601C6804E0FFF770FEC0
:100A40000A980028D5DB14F9011B07A80029F5D165
:100A5000CEE7326808231168CDF804B00432326062
:100A600007A800931022FFF77BFE0A98C1E73368BE
:100A70001A1D07A893F900103260FFF751FE0A987B
:100A8000B7E730680168019704303060102207A88A
:100A90000094FFF765FE0A98ABE72C46DDE90453A6
:100AA0000A98002891DAA4E795F90110A1F1300322
:100AB000DBB2092B05F101054FF000033FF614AF3F
:100AC00003EB830301EB430315F9011FA1F130028E
:100AD000D2B2092AA3F13003F2D905E707A8FFF73C
:100AE0001FFE0A9885E751464046FFF7FDFDDDE908
:100AF000092010448DE704932D21534207A8029347
:100B0000FFF70EFE049B0A980028FFF672AF63E71A
:100B10002B2107A80493FFF703FE049BF3E7002BA8
:100B20007FF45FAF8CB10493039BA3424FF030017D
:100B300007A80CD2FFF7F4FD0A98002804F1FF344F
:100B4000FFF657AF002CEFD1049B002449E70A9829
:100B5000049B0028FFF64DAF43E7049D49E700BF23
:100B6000CDCCCCCC0EB400B582B003AB01AA53F807
:100B7000041B0193FFF766FE02B05DF804EB03B0BF
:100B8000704700BF024B01221A700020704700BF5F
:100B9000AC12FE1F024B01221A700020704700BFEA
:100BA000AC12FE1F012300208B700B704870704741
:100BB0004FF4007240230020C1E9002308817047F0
:100BC0000020704708B5104910484FF4007207F034
:100BD0000DFF0F490F484FF4007207F007FF0E4951
:100BE0000E484FF4007207F001FF0D490D484FF415
:100BF000007207F0FBFE0C490C484FF4005207F05E
:100C0000F5FE002008BD00BFA88A0000008000207B
:100C1000A8AC000000820020A8AE000000840020E4
:100C2000A8B0000000860020A88C000000880020EA
:100C300008B502F580124032084651025A0207F008
:100C4000D5FE024B01221A70002008BDAC12FE1F17
:100C500008B502F5801040305A02400207F0C6FE87
:100C6000024B01221A70002008BD00BFAC12FE1F0B
:100C700000207047022800D070470249024806F061
:100C800007B900BF70BC00000C57FE1F38B5044602
:100C90000B480D4605F088FD50B929460020FFF7A6
:100CA00061FF084922460020FFF75CFF00BE38BD07
:100CB000054B064A06490020FFF754FFEDE700BF49
:100CC0000458FE1F28B30000E8B2000060BC00001A
:100CD0000CB30000374B1A6830B5938903F47F4397
:100CE000B3F5005F83B00FD0938903F47F43B3F56E
:100CF000045F2AD0938903F47F43B3F5085F38D0AB
:100D00000024204603B030BD2B4D2C490020FFF7B6
:100D100029FF2B482946072205F098FF044640B1D9
:100D2000284B294A29490020FFF71CFF204603B021
:100D300030BDAA796B792649CDE900322B792A6832
:100D4000FFF710FF204603B030BD1B4D21490020A6
:100D5000FFF708FF1A482946072205F08BFF0446D3
:100D60000028E6D01C4B184A18490020FFF7FAFE6D
:100D7000C7E71A490020FFF7F5FE194B194A5B68CF
:100D800019480025157019882A4605F0ADFF4FF463
:100D90007A71052006F03CF90948294605F07EFFE6
:100DA00004460028ADD0114B074A08492846FFF7F2
:100DB000D9FEA6E7740DFE1F6C0DFE1F48B30000A0
:100DC0000458FE1F94B300004CBC00000CB300009C
:100DD000BCB30000FCB3000048B4000070B40000D5
:100DE00010C10000780DFE1F0C57FE1FC4B4000098
:100DF00010B5414C22689379033B072B11D8DFE8EB
:100E000003F05A1322132C043851938903F47F43BF
:100E1000B3F5005F6AD0938903F47F43B3F5045FB1
:100E20005ED00024204610BD34490020FFF79AFE12
:100E30000021334B334819700C464FF4007207F011
:100E4000E3FD204610BD30490020FFF78BFE2C4B00
:100E5000012200241A70204610BDFFF73BFF044614
:100E60000028DFD0294B2A4A2A490020FFF77AFEC2
:100E7000D8E729490020FFF775FE214B1B78002B8E
:100E8000CFD023681F499A682448802305F08AFE42
:100E900004460028C6D0224B1D4A1E490020FFF7F9
:100EA00061FEBFE71F490020FFF75CFE144B1B7873
:100EB000002BB6D003E01C490020FFF753FE114978
:100EC000164880234FF4007205F01AFE04460028ED
:100ED000A8D0164B0E4A0F490020FFF743FEA1E7AA
:100EE00013490020FFF73EFE00249BE71149002034
:100EF000FFF738FE002495E7740DFE1F64B600006E
:100F0000640BFE1F680BFE1F9CB600009CB5000022
:100F100038BC00000CB3000054B500000458FE1F9C
:100F200080B5000028B50000ECB400000CB500004E
:100F300010B60000BCB500002DE9F04184B00024DB
:100F400003A8039406F054F89DF80D209DF80E3088
:100F5000284901920093284A9DF80F302046FFF758
:100F600001FE26492046FFF7FDFD254B254A5B681B
:100F70002548198805F09EFE2449254805F05CFCAB
:100F800048BB2449244F254EDFF8B080244D254C22
:100F90000020FFF7E7FD12E0294630684FF0FF32EE
:100FA00006F0C6FC012821464FF0120001D0FFF7E1
:100FB0006DFEFFF71DFF50B9012007F025FA3B78C1
:100FC000002BE9D041461220FFF760FEE4E7164906
:100FD000FFF75CFEF0E7154B154A1649054620461B
:100FE000FFF7C0FD14492A462046FFF7BBFD00BEAF
:100FF000C7E700BFC4B60000C0B60000ECB80000F0
:1010000010C10000780DFE1F0C57FE1FACBF000082
:101010000458FE1F80BB0000680DFE1FAC57FE1F6A
:10102000740DFE1FD0BB0000FCBB000068BB0000BD
:101030001CBC00000CB3000028B30000A0BB0000E3
:1010400000B5084A83B00023019001A910681A4630
:1010500006F076FB012802D0034B01221A7003B080
:101060005DF804FBAC57FE1F680DFE1F00B583B092
:1010700000230093084A094B0421142006F008FBC2
:10108000074B186010B103B05DF804FB014603B0D4
:101090005DF804EB00F008B81457FE1F6457FE1FFC
:1010A000AC57FE1FFFF7E2BF00BE704738B5164CC5
:1010B0004FF0FF31206806F0E3FC012803D02068E0
:1010C0000021FFF7F1FF114B1A7802B138BD012260
:1010D0000F4D1A70FFF7E6FF2B68013B2B60002BCA
:1010E000F4D00023194620681A4606F029FB01288F
:1010F0004FF00001F0D02068FFF7D6FF2B68013BCE
:101100002B60002BEDD138BDFC57FE1F0058FE1F91
:10111000F857FE1F38B50C4D0C4C0D4A0023012129
:101120004FF480702B60237006F0F6FA094B1860BC
:1011300028B100F039F807F097F8002038BD0146D3
:10114000FFF7B2FFF5E700BFF857FE1F0058FE1F7C
:10115000B057FE1FFC57FE1F044B036010B48023E2
:10116000034C0C605DF8044B136070477C11FE1F4C
:101170007C0DFE1F044B036010B48023034C0C60F5
:101180005DF8044B13607047DC11FE1F7C0FFE1FDF
:1011900000B583B00190FFF789FF019803B05DF8B7
:1011A00004EBFFF7C9BE00BF10B50E4C0E4A236812
:1011B0000E4884B0012102925A18CDE900100C4B60
:1011C00022600C490C484FF4007206F085FF0B4B6F
:1011D000186008B104B010BD014604B0BDE810406D
:1011E000FFF762BFF857FE1F3C12FE1F9876FE1FE6
:1011F000D8BF000098BF0000911100002858FE1FC2
:1012000000BEFEE71EF0040F0CBFEFF30880EFF303
:101210000980014908470000911200000D4B196830
:10122000EFF309821EF0100F08BF22ED108A22E9A9
:10123000F04F0A604FF0100080F31188BFF34F8F1A
:10124000BFF36F8F07F012F94FF0000080F31188A1
:1012500000F002B86854FE1F064801680A68B2E848
:10126000F04F1EF0100F08BFB2EC108A82F309880D
:10127000704700006854FE1F08B507F0E7F818B182
:10128000024B4FF080525A6008BD00BF00ED00E0F5
:10129000836913F8023C022B03D0032B00D900BE54
:1012A0007047FFF7D9BF00BF22F0010210B409490F
:1012B00040F8082C4FF080746FF0020240F8044CA4
:1012C00040F8203C40F80C1C40F8242C5DF8044BFE
:1012D0004438704701120000EFF31181102383F3AB
:1012E0001188084A13680133012B136000D070473E
:1012F000054A064B11605B68C3F30803002BF6D068
:1013000000BE7047A812FE1F9C12FE1F00ED00E0F9
:10131000064A13680BB900BE1368013B13601BB982
:10132000034B1B6883F31188704700BFA812FE1F90
:101330009C12FE1F00B3184A938918B2002830B4DB
:1013400099B21ADBBFF34F8F30BFBFF36F8F62B616
:10135000BFF36F8F72B600280CDA0F4AB2F8FE3373
:101360009BB243F425434AF20250A2F8FE03918156
:10137000A2F8FE3330BC70477047B2F8FE339BB220
:1013800043F425434AF202550024A2F8FE53948107
:10139000A2F8FE33D6E700BF00E0014008B572B600
:1013A00006F09AFF0120FFF7C5FF62B6BDE80840CE
:1013B00006F09ABF0C4B0D4A1B68A2FB03239B0946
:1013C000013BB3F1807F0DD2094A0A4810B4F024E2
:1013D0005360002180F82340072391605DF8044B9F
:1013E00013607047704700BF342DFE1FD34D62104D
:1013F00010E000E000ED00E030B5244B244C1A78FA
:10140000244883B0D2B2FF218DF8032019701B78D5
:10141000DBB20193019B019AC3F30013072112066B
:101420002370016048BF06220BD5019B5B0001932E
:10143000019B1B06114602F1FF32F6D4032901601D
:1014400000D000BE03689DF8032013490F4D1B0216
:1014500003F4E063D2B2F02403602A7081F82240E2
:10146000FFF7A8FF0D4A536843F04043536062B64C
:10147000BFF36F8FEFF3148C2CF0040C8CF31488F3
:10148000BFF36F8F02DF00BEFDE700BF00E400E0A6
:10149000A012FE1FA412FE1F00ED00E030EF00E0DE
:1014A000EFF30383103B5BB2002B0ADB03F16043D5
:1014B00003F56143094993F800230B78B3EB121F3E
:1014C00009D8074B074ADB681268C3F302239A4224
:1014D00000D200BE704700BEF3E700BFA012FE1F9F
:1014E00000ED00E0A412FE1FF0B54FF0FF32164DE4
:1014F000164E83B003E0337853B9013A04D02B7809
:1015000003F0FF01002BF6D000232B7003B0F0BDD9
:101510000F4FADF804108DF806106FF0010401E0D4
:10152000013C09D03B689A681868936901A99847FB
:101530009DF80530002BF3D100232B70337000236E
:101540002B7003B0F0BD00BFAC12FE1FAD12FE1F2A
:101550003458FE1F00283DD010B583681F4C1B680F
:10156000206084B0D0E90001984730BB23689A68B6
:1015700018685368984723689A68D8B918689369B7
:1015800069469847E8B99DF80030D3B19DF801301D
:10159000BBB99DF80230A3B123689A681868D36973
:1015A00001A9984768B9DDE901240D490D4B0C608C
:1015B0001A6004E01868136A984740F2DC5004B0DF
:1015C00010BD23689A681868136A984740F2DC5087
:1015D00004B010BD40F2DC50704700BF3458FE1F0D
:1015E0002C58FE1F3058FE1F024B1B689A68186863
:1015F000136A18473458FE1F2DE9F041154F3D6816
:10160000AE6884B0044688462868B66903A91546C2
:10161000B04728B99DF80C302BB90F4B01221A7036
:1016200004B0BDE8F0819DF80D30002BF5D19DF898
:101630000E30002BF1D03B689A68186896682B46EC
:1016400042462146B0470028EAD10190FFF74CFFFF
:101650000198E5E73458FE1FAF12FE1F2DE9F04157
:10166000154F3D68AE6884B0044688462868B66960
:1016700003A91546B04728B99DF80C302BB90F4B7C
:1016800001221A7004B0BDE8F0819DF80D30002BE6
:10169000F5D19DF80E30002BF1D03B689A681868A0
:1016A000D6682B4642462146B0470028EAD1019031
:1016B000FFF71AFF0198E5E73458FE1FAF12FE1F2F
:1016C00010B5032884B00C4607D8012813D802D1DE
:1016D0000B4B1B680B6004B010BD0528FBD1094BF8
:1016E0001B689A681868D36901A998479DF80D305E
:1016F000236004B010BD044B1B680B6004B010BD28
:101700002C58FE1F3458FE1F3058FE1F0378022B42
:1017100011D0012B03D10A4B00221A707047042B01
:1017200003D1084B01221A707047DB0602D5064B25
:1017300001221A707047024B01221A70704700BFD5
:10174000AE12FE1FAC12FE1FAD12FE1F70B582B0AE
:10175000044600230D46052001A916460193FFF714
:10176000AFFF1C2C12D81C2C21D8DFE804F0232654
:101770002020202020202920202020202020202060
:101780002020202020202020202C1D003F2C0ED1A6
:101790000E4B2C222A60DA78019942EAC112DA70E3
:1017A00006B1336002B070BD094B1422F2E7094B59
:1017B0000822EFE7084B0822ECE7084B1422E9E780
:1017C000074B1422E6E7074B1422E3E7E801FE1F6C
:1017D0003C02FE1F0013FE1F0813FE1F5002FE1FD7
:1017E0002802FE1F1402FE1F2DE9F0476E4D2A68E5
:1017F0001378282B82B019D8022B56D9033B252BFE
:1018000053D8DFE803F05B525252525252525252B6
:101810005252525252675252525252525252525293
:101820005252525252528052A452522A5A2B3CD1F6
:1018300090785E4E5E4F5F4A00F03F003146FFF702
:1018400085FF34687B68A34204D22A681278282A6C
:1018500000D0336002B0BDE8F087574B1B78002BF7
:1018600000F09A80DFF87481D8F80010504F7A6841
:10187000B2F5805F80F08B804FEA52294FEA49240D
:10188000C2F34722DFF858A1484E5046FFF7B4FE96
:10189000D8F80030474A34604B44C8F800307B68C1
:1018A000C2F800A0A342D0D3D4E7424A3F4B4349F9
:1018B000116000221A6002B0BDE8F0873C4B3D4A3F
:1018C0005B683A4E3E491160112B4FF012023260B4
:1018D000BFD9BFE73B4A3C4C3C4B364E3C4F27629E
:1018E00092E8030004F1080282E803000FCB304FB6
:1018F0003460103484E80F007B682C4E2424A3420B
:101900003460A2D3A6E769460120FFF7D9FE01A9FA
:101910000320FFF7D5FE00992E4B2648BDF8042082
:10192000234F036009BA52BA00205960D9609DF86C
:1019300006105A815A8218721874597259747B6849
:101940001A4E1424A3423460FFF47FAF82E7694645
:101950000120FFF7B5FE01A90320FFF7B1FEDDE985
:10196000003114481C4A124F0260013B180E1070DF
:10197000D370180C1B0A93707B680C4E50700824AF
:1019800009BAA34251603460FFF45FAF62E70822F6
:1019900091464FF4805475E7D2F80210DFF83C808E
:1019A00009BAC8F8001061E7F412FE1F2023FE1FD9
:1019B0003C58FE1F1823FE1FFC12FE1FBCC0000077
:1019C000C4C000009CC00000C401FE1FA8C00000ED
:1019D000312E30306402FE1F1013FE1FF812FE1F5E
:1019E0001813FE1F10B503784C494D4A086084B0A7
:1019F00000242A2B1470019420D82A2B37D8DFE832
:101A000003F02F36365C36363636363636363636D0
:101A1000363636367236363636363636363636362A
:101A20003636363636653616363675363D00082477
:101A300024233C4AC2E9003404B010BD5A2B36D1ED
:101A4000B0F807308078224600F03F0001A95CBA68
:101A5000FFF77CFE019BA4B2A3424FD3002C3CD1E4
:101A6000304A00242123C2E9003404B010BD2D4ABD
:101A700000242623C2E9003404B010BDB0F80740AA
:101A800002A90120FFF71CFE03A90320FFF718FE9F
:101A9000DDE9023264BAA4B2640203FB02F39C42A1
:101AA00031D3019BA34202D2002B18BF1C461D4A12
:101AB0002623C2E9003404B010BD037912249C42ED
:101AC0000BD3002BCCD01C462423B2E7B0F8073050
:101AD0005BBA9BB214249C42F3D2124A2423C2E97B
:101AE000003404B010BD03792424E8E7B0F80730CF
:101AF0005BBA9BB25C02002BB2D0EEE7002B18BFA2
:101B00001C46242395E7019BA34204D2002B18BF57
:101B10001C4625238DE7002CA2D0FAE7F412FE1F05
:101B2000FC12FE1F3C58FE1F2DE9F0430678814C45
:101B30002A2E206083B0144619D82A2E19D8DFE83F
:101B400006F03C181834181818181818181818180F
:101B500018181818341818181818181818181818E9
:101B60004318181818341834181834184A005A2E04
:101B70001BD071497148724AD1F800C00768002132
:101B8000117003216F4A7048D2E90E650022018569
:101B900080F8243011462346C56386638760C0F809
:101BA00010C003B0BDE8F0431847654D2F78002FF3
:101BB0003FD1664A5268002A5BD160495E4A0F688D
:101BC000D2F800C00021DDE75C495B4A0F68D2F81B
:101BD00000C00121D6E75A4D2A78FAB95B4AD2F8FB
:101BE00004C0BCF1000FE8D0D0F80220584E524992
:101BF0005248C1F800C012BA3260BCF5805F554A45
:101C0000026003D94FF480520A609446524A514F01
:101C10000021116001222A700221B3E7032937D085
:101C2000454A4649D2F800C00F6800222A700121B7
:101C3000A8E70129F4D1484FDFF8FC8043483A680F
:101C4000D8F800C0406862443A60871A59D1DFF87A
:101C50000CE1DEF80020904264D05A2E5DD0232E95
:101C60005BD0364E101A00223768CEF800002A707A
:101C700088E70193FFF7B8FD374A2F492F481760CF
:101C80000122D1F800C00768019B2A70022179E780
:101C9000DFF8A480DFF8A490D8F800602D4AC9F8D6
:101CA0000020C6F30802760A02B10136284F2948FF
:101CB00039680193F2B2FFF7D1FC27482349026843
:101CC000D8F800C03B68496862441E4402608A1A22
:101CD000019B3E600AD0944591BFD9F80070D9F8B5
:101CE0000070C8F80020944602214BE71B482A7078
:101CF0000268D9F80070551A891A056018BF0121C9
:101D000040E70193FFF770FDD8F800C00B4A019B34
:101D1000BC4509D81768022134E7904234BF00213E
:101D200001219EE739469CE7C8F80070BC460221B5
:101D3000176827E7F412FE1F2023FE1F1823FE1F3B
:101D4000FC12FE1F4458FE1FB012FE1F3C58FE1F1F
:101D5000F812FE1F1813FE1F1C23FE1F3858FE1F0B
:101D600008B54FF480520021044806F04DFE0449A6
:101D7000044A00230B60136008BD00BF1813FE1F48
:101D8000F412FE1FF812FE1F70B50F4A0F4C104DD3
:101D9000104B2468117310496D689460116003241E
:101DA0000D2182600161448490F8246055601846DA
:101DB0000A4D9A6083F824605C8419615D6003F0C9
:101DC000EBF8074B1C7070BD4423FE1F3858FE1FF4
:101DD0002423FE1F4458FE1F55534253FD1D00008F
:101DE0005423FE1F0121FFF7CFBF00BF0021FFF7E3
:101DF000CBBF00BF0221FFF7C7BF00BF10B5014630
:101E000004460A2002F022FC014B228D1A8010BDEC
:101E10005623FE1F038D042B31D8DFE803F02D235A
:101E20000A30030003461C4A03214FF4B27003F04A
:101E3000D9B830B4194B1B78012B26D0022B22D1F4
:101E4000174B826805699A60042290F82440428406
:101E500083F8244013491D61184630BC5A845960E8
:101E600003F09AB8104B1B6853B103460F4A032185
:101E70004FF4B27003F0B6B80021FFF785BF70478A
:101E80000121FFF781BF30BC7047054B82689A6023
:101E900005690322D9E700BFED1D00005423FE1F92
:101EA0004458FE1FFD1D00003858FE1FE51D0000B0
:101EB00070B50C4B0C49816004241F2244840261DC
:101EC0000A4D90F824005C8483F82400002418460E
:101ED000074E99601A615E602C6003F05DF8054B57
:101EE0001C7070BD4458FE1F2423FE1F3858FE1F6F
:101EF000FD1D00005423FE1F10B50446144382B09C
:101F000018460ED12146019302F014FA0198FFF70A
:101F1000CFFF01980146204602B0BDE8104002F014
:101F20004FBD02B0BDE8104001F0ACBE30B583B08B
:101F300000211D468DF8071008B9012A04D0284653
:101F400001F0A0FE03B030BD04460DF107011046BC
:101F50001A4602F0C9FC2946204602F031FD03B0C2
:101F600030BD00BF38B50024094B0A4D0A481C801B
:101F7000214620222C7006F047FD084B084A0949EB
:101F8000C3E90044C3E90244C2E900440C6038BD1F
:101F90005623FE1F5423FE1F2423FE1F4423FE1F2F
:101FA0003C58FE1F3858FE1F2DE9F04FAF4C2378E8
:101FB00095B0002B00F03581AD4EAE4CAE4DDFF844
:101FC000C4A2DFF8C4B2DFF8C482DFF8C49206F11D
:101FD0000F074FF47A7202A90A2002F019FB0028B9
:101FE000F7D12378032BF4D8DFE803F0201509029A
:101FF0002B88012BEDD10298FFF75AFFE9E72988DA
:10200000CB1E022BE5D8029B424693F8243038467B
:10201000FFF78AFDDDE729880129DAD1029B4246D4
:1020200093F824303846FFF77FFDD2E72B88032B47
:10203000CFD1326896F80CC0717B029BB07B93F8CD
:1020400024308DF830304A450CBFFF2204221CF0AA
:102050007F0F18BF052201F00F0E11F0F00F20F0D6
:102060001F01019318BF052251EA0E0307D0834ACE
:1020700003AB03214FF4B27002F0B4FFA9E700F004
:102080001F000C28F3D8FF2A40F0D280B268CAF8AB
:1020900000203846FFF7A6FCDBF80020019B213A20
:1020A000052AE4D801A151F822F000BFE920000080
:1020B0006F2000006F200000C5200000E12100001B
:1020C000C1210000DAF80010DBF80400002940F01C
:1020D000A3800021CAF80010694A03AB03214FF422
:1020E000B27002F07FFF74E7DAF80010DBF804004A
:1020F000002900F08880102296F90CC0BCF1000F76
:10210000B4BF42F0020242F00302113A222A4CD834
:102110000FF2040C5CF822F0072200006F20000090
:10212000D1210000AB210000AB210000AB21000059
:10213000AB210000AB210000AB210000AB2100006F
:10214000AB210000AB210000AB210000AB2100005F
:10215000AB210000AB210000D3200000F3210000E0
:10216000AB210000AB210000AB210000AB2100003F
:10217000AB210000AB210000AB210000AB2100002F
:10218000AB210000AB210000AB210000AB2100001F
:10219000AB210000AB210000D3200000D3200000C1
:1021A000A5210000814213D82FD00021CAF80010C9
:1021B000334A03AB04214FF4B27002F013FF08E777
:1021C000DAF800301BB396F90C30002BFFF64FAF56
:1021D0002A4A03AB04214FF4B27002F003FFF8E681
:1021E000DAF80010DBF8040000293FF472AF302267
:1021F00082E7814212D90120207029884246384660
:10220000FFF792FCE5E60320F6E70220F4E7012160
:1022100003A8FFF7B9FDDCE620226DE77FF459AF94
:10222000E9E7FFF79FFEFFF79BFD01232370C3E65D
:10223000043A052A3FF6CDAE01A353F822F000BFC1
:10224000592200006F200000D1210000D32000009F
:10225000AB2100000F220000B368CAF80030002B49
:10226000D5D01CF0800FB3D001E700BF5823FE1F6C
:102270002423FE1F5423FE1F5623FE1FE51D0000CE
:10228000F51D00003858FE1F3C58FE1F151E0000AB
:10229000555342431D4B1B88012B00D0704710B58E
:1022A00090F82210038DD0E903248AB002298DF81A
:1022B0000610A2EB04020CBF80218221042B8DF8B2
:1022C0000710039213D0052B1AD0032B14D040F221
:1022D000DC53ADF8083090F82420C3698DF8042051
:1022E00001A90920069302F04BF80AB010BD40F294
:1022F000DE53ADF80830EEE70023ADF80830EAE72A
:1023000040F2DF53ADF80830E5E700BF7C5CFE1F0C
:10231000174B1B88012B00D0704700B590F8223076
:102320008BB0012B8DF806301DD0C3B181238DF801
:102330000730038D90F82410C2698DF80410012B2A
:1023400001A940F2DC534FF00A0008BF0023ADF8AA
:102350000830069202F014F80BB05DF804FB8223FB
:102360008DF80730E5E780238DF80730E1E700BFFF
:102370007C5CFE1F38B542EA010444F4004248F296
:102380002F030021054600F057FB0021284600F0EE
:1023900019FB00F02F008442F7D138BD10B5044678
:1023A00061B900F001FEC30502D54FF4807010BD85
:1023B000204600F02DFE00F07F0010BD00F06CFE06
:1023C000204600F081FE10F4807F204606D000F009
:1023D000C1FE800A0130800180B210BD00F0D0FE45
:1023E000C0F30A0010BD00BF2DE9F0475A4B90F82A
:1023F000247033F817309BB2022B04460D4653D09D
:1024000000F066FC2946204600F09AFC294620464A
:1024100000F0E2FC2946204601F092FF29462046C2
:1024200000F03AFE642303FB07F2DFF8348105EB8A
:10243000850302EB430343441FFA87FA59884FEAA6
:102440008509204600F05CFEBAF1010F6FD06426CA
:10245000A94406FB07F606EB490646442046F188E8
:1024600000F0AAFE3189204600F0BEFE2046002181
:1024700000F012FE2946204600F05EFF2946204665
:1024800001F04AFF2946204600F0F8FE2946204682
:1024900000F0CEFC2946204600F0EAFC2946204602
:1024A000BDE8F04700F004BD2C4E56F8210008B1FD
:1024B00004F094FF00232946204646F8253002F018
:1024C000BDFF29468046204694F8247000F000FCA9
:1024D0002946204600F034FC2946204600F07CFCCA
:1024E00008F1FF382946204601F02AFF1FFA88F834
:1024F0002946204600F0D0FD6423B8F1010F1FFAF1
:1025000087FA03FB07F21CD8DFF8548005EB85033C
:1025100002EB430343442046598841F480615980CB
:1025200000F0EEFDBAF1010F4FEA85098FD109EBFA
:10253000050308EB43032046B3F8681000F0F8FDEC
:1025400085E7DFF81C800A2303FB052343444FEA99
:102550008509598875E700BFE42CFE1F8C58FE1FC3
:10256000DC58FE1F70B5314B90F8242033F8123040
:102570009BB2022B04460D464ED02946204601F060
:10258000DFFE2946204600F0A3FB2946204600F046
:10259000D7FB2946204600F01FFC002211462046AA
:1025A000FFF7E8FE2946204600F076FD2046002190
:1025B00000F0A6FD2046002100F0BAFD20460021D3
:1025C00000F0FAFD2046002100F00EFE204600211A
:1025D00000F062FD2946204600F0AEFE2946204666
:1025E00001F09AFE2946204600F048FE2946204682
:1025F00000F04EFF2946204600F068FF294620469D
:1026000000F016FC2946204600F032FC2946204600
:10261000BDE8704000F04CBC054E56F8210008B1F2
:1026200004F0DCFE002346F82530A6E7E42CFE1F6C
:102630008C58FE1F70B5012206460D4600F0E2FEE2
:102640004FF6FF742946304600F0E6FD013C10F0DD
:10265000200FA4B200D170BD002CF3D170BD00BF1B
:1026600070B516460546B2B164240AE000F040F8A1
:10267000013C284600F0C0F8A4B20A2001F000F99D
:102680006CB13146284600F057FA03469A042846B2
:10269000ECD5184670BD1A46FFF76CFEE4E7FF2341
:1026A000184670BD02B170471A46FFF763BE00BFFF
:1026B00030B583B004460D46019200F007FF29466D
:1026C0002046019A00F020FF2946204603B0BDE8CD
:1026D000304000F0BFBE00BF38B504460D4600F0E4
:1026E000D7FE29462046BDE8384000F0EFBE00BFC7
:1026F000094B90F8242033F812309BB2022B01D002
:10270000002070471AB9054B188880B27047044BF7
:10271000188880B2704700BFE42CFE1F00000940FB
:1027200000000640012805D1034A13889BB243F4F8
:1027300080731380704700BF00000640094B90F87B
:10274000242033F812309BB2022B00D07047012AAC
:10275000FCD1054A138823F480731B041B0C1380DF
:10276000704700BFE42CFE1F00000640084B90F8A5
:10277000242033F812309BB2022B00D07047012A7C
:10278000FCD1044A13889BB243F080031380704746
:10279000E42CFE1F00000640094B90F8242033F87B
:1027A00012309BB2022B00D07047012AFCD1054A9F
:1027B000B2F840319BB21943A2F84011704700BFF4
:1027C000E42CFE1F00000640094B90F8242033F84B
:1027D00012309BB2022B00D07047012AFCD1054A6F
:1027E000B2F840319BB223EA0101A2F840117047D0
:1027F000E42CFE1F00000640094B90F8242033F81B
:1028000012309BB2022B01D0002070471AB9054B41
:10281000988880B27047044B988880B2704700BF98
:10282000E42CFE1F0000094000000640094B90F810
:10283000242033F812309BB2022B01D000207047C5
:102840001AB9054B188980B27047044B188980B2B9
:10285000704700BFE42CFE1F000009400000064046
:10286000064B90F8242033F812309BB2022B00D094
:102870007047002AFCD0024B99817047E42CFE1F60
:1028800000000640084B90F8242033F812309BB229
:10289000022B01D0002070470029FBD1012AF9D179
:1028A000024B5869704700BFE42CFE1F0000064031
:1028B000074B90F8240033F810309BB2022B00D065
:1028C00070470029FCD1012804BF024B5A617047B0
:1028D000E42CFE1F00000640094B90F8242033F83A
:1028E00012309BB2022B01D0002070470029FBD18F
:1028F000012A0BBF034B044BD88A988A80B27047D9
:10290000E42CFE1F0000064000000940134B90F825
:10291000240033F810309BB2022B05D0012914D0CB
:1029200002290FD059B170470128F7D1012912D0DF
:1029300002290DD00029F6D1094BDA827047094BE4
:102940009A827047074B9A837047064B1A837047E9
:10295000034BDA83E7E7024B5A837047E42CFE1FF0
:102960000000064000000940134B90F8240033F8A3
:1029700010309BB2022B05D0012914D002290FD0B0
:1029800059B170470128F7D1012912D002290DD081
:102990000029F6D1094BDA757047094B1A75704753
:1029A000074B1A777047064B1A767047034BDA7756
:1029B000E7E7024BDA767047E42CFE1F0000064082
:1029C00000000940154B90F8242033F812309BB2D8
:1029D000022B1FD1012914D0022908D11049114B13
:1029E000012A0CBF0A461A46108880B2704789B97E
:1029F0000D490E4B012A0CBF0A461A46108880B2B8
:102A000070470B490B4B012A0CBF0A461A46108827
:102A100080B2704700231B88FFDE00BFE42CFE1F3E
:102A20002C0006402C0009402000064020000940F0
:102A3000280006402800094030B4154D90F8244085
:102A400035F8140080B202281ED1012916D00229BF
:102A500005D110481049012C08BF014605E099B97D
:102A60000E480F49012C08BF0146088880B21A4061
:102A700020EA0303134330BC0B80704709480A491E
:102A8000012C08BF0146F0E700231B88FFDE00BFD2
:102A9000E42CFE1F2C0006402C00094020000640BC
:102AA00020000940280006402800094010B41B4CB3
:102AB00090F8240034F810309BB2022B04D1012985
:102AC00026D002291ED0B9B1002134F810309BB2B3
:102AD000022B02D05DF8044B70470B8823F440634F
:102AE0001B041B0C0B80002AF4D00B885DF8044BF0
:102AF0009BB21A430A80704709490A4B012818BF44
:102B00001946E2E70849094B012818BF1946DCE7D6
:102B10000749084B012818BF1946D6E7E42CFE1FC9
:102B200020000640200009402C0006402C000940EF
:102B30002800064028000940154B90F8242033F85F
:102B400012309BB2022B1FD1012914D0022908D1C7
:102B50001049114B012A0CBF0A461A46108880B250
:102B6000704789B90D490E4B012A0CBF0A461A4617
:102B7000108880B270470B490B4B012A0CBF0A46E4
:102B80001A46108880B2704700231B88FFDE00BF02
:102B9000E42CFE1F2E0006402E00094022000640B5
:102BA000220009402A0006402A000940154B90F8EF
:102BB000242033F812309BB2022B20D1012917D0E8
:102BC000022906D11049114B012A0CBF0A461A46A8
:102BD00006E0A1B90E490F4B012A0CBF0A461A465E
:102BE00013886FEA43436FEA53439BB213807047E5
:102BF00009490A4B012A0CBF0A461A46F0E700238E
:102C00001B88FFDEE42CFE1F2E0006402E0009402C
:102C100022000640220009402A0006402A000940FE
:102C2000164B90F8242033F812309BB2022B22D19D
:102C3000012916D0022909D1114B1249012A0CBFD2
:102C40000A461A464FF480431380704799B90E4BD9
:102C50000E49012A0CBF0A461A464FF480431380DE
:102C600070470B4B0B49012A0CBF0A461A464FF41A
:102C700080431380704700231B80FFDEE42CFE1F7F
:102C80002E0009402E000640220009402200064086
:102C90002A0009402A0006400A4B90F8242033F805
:102CA00012309BB2022B00D0704742B1064AD08E40
:102CB000012303FA01F1014389B2D1867047034A27
:102CC000F5E700BFE42CFE1F0000064000000940AD
:102CD0000A4B90F8242033F812309BB2022B00D01C
:102CE00070474AB10648C38E01229BB202FA01F135
:102CF00023EA0101C18670470248F4E7E42CFE1F75
:102D000000000640000009400A4B90F8242033F8E8
:102D100012309BB2022B00D0704742B1064A108F8E
:102D2000012303FA01F1014389B211877047034A75
:102D3000F5E700BFE42CFE1F00000640000009403C
:102D40000A4B90F8242033F812309BB2022B00D0AB
:102D500070474AB10648038F01229BB202FA01F183
:102D600023EA0101018770470248F4E7E42CFE1FC3
:102D70000000064000000940134B90F8242033F86F
:102D800012309BB2022B00D070475AB90F4B10483B
:102D900023F811200123428F03FA01F1114389B274
:102DA0004187704701F10A00084B0A4A10B4002419
:102DB00023F810400123508F5DF8044B03FA01F112
:102DC000014389B251877047E42CFE1FA459FE1FAE
:102DD00000000940000006400A4B90F8242033F818
:102DE00012309BB2022B00D070474AB10648438F85
:102DF00001229BB202FA01F123EA010141877047E7
:102E00000248F4E7E42CFE1F0000064000000940E1
:102E100020B9054BB3F8400080B27047034BB3F8BC
:102E2000400080B2704700BF00000940000006402B
:102E30000C4B90F8242033F812309BB2022B00D0B8
:102E40007047012303FA01F1C9432AB9064BC1F3C4
:102E50000901A3F846107047044BC1F30901A3F818
:102E600046107047E42CFE1F000009400000064099
:102E70000C4B90F8242033F812309BB2022B00D078
:102E80007047012303FA01F1C9432AB9064BC1F384
:102E90000901A3F848107047044BC1F30901A3F8D6
:102EA00048107047E42CFE1F000009400000064057
:102EB0000C4B90F8242033F812309BB2022B00D038
:102EC0007047012303FA01F1C9432AB9064BC1F344
:102ED0000901A3F84A107047044BC1F30901A3F894
:102EE0004A107047E42CFE1F000009400000064015
:102EF0000A4B90F8242033F812309BB2022B01D0F9
:102F00000020704722B9064BB3F84C0080B27047DE
:102F1000044BB3F84C0080B2704700BFE42CFE1F96
:102F2000000009400000064020B9054BB3F85400EA
:102F300080B27047034BB3F8540080B2704700BFB3
:102F4000000009400000064020B9054BB3F85600C8
:102F500080B27047034BB3F8560080B2704700BF91
:102F6000000009400000064020B9054BB3F85800A6
:102F700080B27047034BB3F8580080B2704700BF6F
:102F8000000009400000064020B9054BB3F85A0084
:102F900080B27047034BB3F85A0080B2704700BF4D
:102FA00000000940000006400A4B90F8242033F846
:102FB00012309BB2022B01D00020704722B9064B81
:102FC000B3F85C0080B27047044BB3F85C0080B289
:102FD000704700BFE42CFE1F0000094000000640BF
:102FE000084B90F8242033F812309BB2022B00D00B
:102FF00070471AB9044BA3F85C107047034BA3F851
:103000005C107047E42CFE1F0000094000000640E1
:103010000A4B90F8242033F812309BB2022B01D0D7
:103020000020704722B9064BB3F85E0080B27047AB
:10303000044BB3F85E0080B2704700BFE42CFE1F63
:103040000000094000000640084B90F8242033F8A7
:1030500012309BB2022B00D070471AB9044BA3F870
:103060005E107047034BA3F85E107047E42CFE1F00
:10307000000009400000064020B9054BB3F860008D
:1030800080B27047034BB3F8600080B2704700BF56
:103090000000094000000640084B90F8242033F857
:1030A00012309BB2022B00D070471AB9044BA3F820
:1030B00064107047034BA3F864107047E42CFE1FA4
:1030C00000000940000006400A4B90F8242033F825
:1030D00012309BB2022B01D00020704722B9064B60
:1030E000B3F8680080B27047044BB3F8680080B250
:1030F000704700BFE42CFE1F00000940000006409E
:10310000084B90F8242033F812309BB2022B00D0E9
:1031100070471AB9044BA3F868107047034BA3F823
:1031200068107047E42CFE1F0000094000000640B4
:10313000064B90F8242033F812309BB2022B04D1B6
:10314000012A04BF024BA3F86A107047E42CFE1F4B
:1031500000000640084B90F8240033F810309BB272
:10316000022B01D0002070470028FCD0034BB3F89D
:103170006A0080B2704700BFE42CFE1F00000640CA
:103180000A4B90F8242033F812309BB2022B01D066
:103190000020704722B9064BB3F86C0080B270472C
:1031A000044BB3F86C0080B2704700BFE42CFE1FE4
:1031B0000000094000000640084B90F8242033F836
:1031C00012309BB2022B00D070471AB9044BA3F8FF
:1031D0006C107047034BA3F86C107047E42CFE1F73
:1031E0000000094000000640084B90F8242033F806
:1031F00012309BB2022B00D070471AB9044BA3F8CF
:103200006E107047034BA3F86E107047E42CFE1F3E
:10321000000009400000064010B483B090F824205C
:10322000114B0024ADF8064033F812309BB2022B4C
:1032300006D0BDF8060080B203B05DF8044B7047BD
:1032400042B161B1094B03EB41010B889BB2ADF870
:103250000630EEE729B1064B03EB4101F5E70549DE
:10326000F3E70549F1E700BFE42CFE1F6E000640BE
:103270006E00094060000640600009400B4B90F86A
:10328000242033F812309BB2022B00D0704742B199
:10329000074B03EB41010B889BB243F400530B80B7
:1032A0007047044B03EB4101F5E700BFE42CFE1F20
:1032B0006E0006406E0009400D4B90F8242033F854
:1032C00012309BB2022B00D0704742B9094A32F843
:1032D00011309BB243F4007322F811307047064A54
:1032E00032F811309BB243F4007322F8113070476A
:1032F000E42CFE1F6E0009406E0006400B4B90F858
:10330000242033F812309BB2022B00D070474AB110
:10331000074B03EB41010B8823F400731B041B0CC8
:103320000B807047034B03EB4101F4E7E42CFE1FD5
:103330006E0006406E000940174B90F8242033F8C9
:1033400012309BB2022B00D070474AB9D9B9134A48
:10335000B2F860309BB243F48073A2F860307047DB
:1033600041B90F4AB2F860309BB243F48073A2F8BF
:10337000603070470B4A32F811309BB243F48073CF
:1033800022F81130E0E7084A32F811309BB243F4DA
:10339000807322F811307047E42CFE1F00000940B2
:1033A000000006406E0006406E000940104B90F889
:1033B000240033F810309BB2022B00D0704770B15C
:1033C00091B10C4B03EB41010B8823F003031B0469
:1033D0001B0C0B800B889BB21A430A80704729B1E3
:1033E000054B03EB4101EFE70449EDE70449EBE747
:1033F000E42CFE1F6E0006406E000940600006408F
:10340000600009400E4B90F8240033F810309BB256
:10341000022B00D0704748B169B10A4B03EB410160
:103420000B889BB223EA02020A80704729B1064B3F
:1034300003EB4101F4E70549F2E70549F0E700BF76
:10344000E42CFE1F6E0006406E000940600006403E
:10345000600009400B4B90F8242033F812309BB2E7
:10346000022B00D0704742B1074A89000A441388F2
:103470009BB243F4007313807047044A89000A44E6
:10348000F5E700BFE42CFE1F8C0006408C000940CD
:103490000B4B90F8242033F812309BB2022B00D053
:1034A00070474AB1074A89000A44138823F400731D
:1034B0001B041B0C13807047034A89000A44F4E77D
:1034C000E42CFE1F8C0006408C0009400B4B90F84A
:1034D000242033F812309BB2022B00D0704742B147
:1034E000074A89000A4413889BB243F4807313800F
:1034F0007047044A89000A44F5E700BFE42CFE1F28
:103500008C0006408C000940094B90F8240033F8E9
:1035100010309BB2022B00D0704720B1054B8900C0
:103520000B441A807047044B89000B44F9E700BF35
:10353000E42CFE1F8E0006408E000940084B90F8D8
:10354000242033F812309BB2022B01D000207047A8
:10355000012AFBD1034BB3F8400180B2704700BF92
:10356000E42CFE1F00000640012807D1044AB2F8EF
:1035700002319BB243F48043A2F80231704700BF8E
:1035800000000640012808D1044AB2F8023123F4B1
:1035900080431B041B0CA2F8023170470000064058
:1035A000124B1A6870B911051CD5EFF31081012276
:1035B00082F310881A6822F400621A601B6881F393
:1035C00010887047D2040DD5EFF31081012282F3E9
:1035D00010881A6822F480521A601B6881F31088E0
:1035E0000020704740F2DD50704700BF007004407B
:1035F00010B4002854D15D4C23681905C3F3C022D0
:1036000000F1A9805A4B80211A81A3F86010A3F819
:103610007020A3F87220A3F87420A3F87620A3F8F2
:103620007820A3F87A20A3F87C20A3F87E20A3F8C2
:103630008020DA861A875A871A865A86198821F0D6
:1036400010010904090C1980198821F020010904CE
:10365000090C1980198821F001010904090C19804D
:10366000198821F040010904090C1980A3F84620AB
:10367000A3F84820A3F84A202368C3F3C0201B0501
:103680006ED4EFF31082012383F31088236843F490
:1036900000632360236882F310885DF8044B704751
:1036A000012853D1314C2368D904C3F3003252D4DA
:1036B000304B80211A81A3F86010A3F87020A3F882
:1036C0007220A3F87420A3F87620A3F87820A3F83A
:1036D0007A20A3F87C20A3F87E20A3F88020DA8645
:1036E0001A875A871A865A86198821F01001090408
:1036F000090C1980198821F020010904090C19808E
:10370000198821F001010904090C1980198821F098
:1037100040010904090C1980A3F84620A3F84820A9
:10372000A3F84A202268C2F30033D20418D4EFF37E
:10373000108180F31088226842F48052226022684F
:1037400081F3108818465DF8044B704740F2E25050
:103750005DF8044B704740F2DC505DF8044B704755
:103760004FF4BC605DF8044B704700BF007004402C
:103770000000094000000640F0B500284DD13B4B49
:10378000DFF8F8C0D3F80024394F3A4C3A4D60F3D3
:103790000412C3F8002491F90D300A7D0CEB0306E6
:1037A0001201D2B286F8002347F8231003F1C006B5
:1037B0005A0954F826E0920002F1604260F3104E7C
:1037C00044F826E002F56142012603F01F0306FAE1
:1037D00003F3C2F88031136091F90C20CB7C944440
:1037E0001B01DBB28CF8003347F8221002F1C00C49
:1037F00053099B0054F82C7003F1604303F56143B7
:1038000002F01F0206FA02F260F3104744F82C702F
:10381000C3F880211A602960F0BD0128FCD191F91C
:103820001020CB7D124E134D02F1604404F561442B
:103830001B01DBB284F8003346F8221002F1C00409
:10384000530955F824609B0002F01F0203F1604306
:103850006FF3104645F82460904003F56143064A33
:10386000C3F8800118601160F0BD00BF000009407E
:10387000C460FE1F006000408858FE1F00E100E0A9
:10388000012103F0C5BB00BF04F0BEBDEFF303830D
:10389000103B5BB2C033074A074852F823106FF35E
:1038A000104142F8231003889BB2012B00D17047CE
:1038B00001F024BD00600040E42CFE1F10B4EFF3C3
:1038C0000383103B5BB203F1C001074A074C52F877
:1038D00021006FF3104042F8210054F823305DF8C6
:1038E000044B987800F05EBB00600040C460FE1F8F
:1038F000EFF30383103B5BB2044AC03352F823104A
:103900006FF3104142F82310704700BF0060004081
:10391000FFF7EEBFEFF30383103B5BB2C033074A00
:10392000074852F823106FF3104142F823104388E0
:103930009BB2012B00D1704701F0E0BC0060004059
:10394000E42CFE1FFFF7D4BFFFF7D2BF2DE9F043F1
:10395000012A83B006463FD0834BB3F84050B3F8FA
:103960004670B3F848E0B3F84AC01C8ED88EB3F85E
:1039700038805B8FADB2BFB21FFA8EFE1FFA8CFC8F
:10398000A4B280B21FFA88F81FFA83F9002315F455
:103990007F4F33800B800DD005EA04035C040CD507
:1039A000012A0CBF714B704B4BF6FF72A3F84020FD
:1039B0001223338003B0BDE8F0831C0428D49C0498
:1039C00033D5012A0CBF694B674B4DF6FF72A3F844
:1039D000402013233380EDE7644BB3F84050B3F835
:1039E0004670B3F848E0B3F84AC01C8ED88EB3F8DE
:1039F0003880B3F83A90ADB2BFB21FFA8EFE1FFA0C
:103A00008CFCA4B280B21FFA88F81FFA89F9BDE7CE
:103A1000012A0CBF554B544B47F6FF72A3F84020C8
:103A20001123338003B0BDE8F083DC0412D413F417
:103A3000807400EA070019D0C50717D5012A0CBF0A
:103A40004A4B494B40F2FE32A3F846200123338013
:103A50000B80AFE7012A0CBF444B434B4EF6FF727D
:103A6000A3F84020142333800D80A3E713F480656E
:103A70000CEA090C0FD01CF0010F0CD0012A0CBF6E
:103A80003A4B394B40F2FE32A3F84A20022201237E
:103A900032800B808EE713F400770EEA08080FD00F
:103AA00018F0010F0CD0012A0CBF304B2E4B40F206
:103AB000FE32A3F848200322012332800B8079E7ED
:103AC0001B051ED464B1012A0CBF284A264AC343F1
:103AD000C3F30903A2F8463001233380088069E765
:103AE000002D2FD0012A0CBF204A1F4A6FEA0C0379
:103AF000C3F30903A2F84A3002233380A1F800C0BF
:103B000058E7104601910092FFF782F9009A019957
:103B1000012A0CBF154B144B08804FF2FF70A3F81D
:103B20004000152333800B7803F00703062B7FF446
:103B300041AF1046009100F047FA0099002333800E
:103B40000B8037E7002F3FF435AF012A0CBF074A3F
:103B5000054A6FEA0803C3F30903A2F848300323B8
:103B60003380A1F8008025E70000094000000640EE
:103B700010B5044600F028FA2046FFF7D5F90A4BA5
:103B8000024620461A80FFF7DFF9084B024620461E
:103B90001A80FFF7E9F9064B024620461A80FFF724
:103BA000F3F9044B188010BD9A5CFE1FFA59FE1FF2
:103BB000985CFE1FF859FE1F08B590F82400FFF727
:103BC00027F900F07000A0F13000B0FA80F0400951
:103BD00008BD00BF0F4B1B8870B50F4DFF22012B96
:103BE0002A8000D070BD044600F0CCF92046FFF7D3
:103BF0000FF910F4804606D14306F3D5204600F0B5
:103C000099F92E8070BDD52320462B80BDE87040E9
:103C100000F0C8B90A24FE1FA05CFE1F38B50F4D86
:103C20002B8803F47F43B3F5407F04460AD006D8BF
:103C3000B3F5807F06D0B3F5007F03D038BDB3F570
:103C4000806FFBD120460021FEF70AFE298820461E
:103C5000090ABDE83840FEF703BE00BF9E5CFE1FA8
:103C600010B5044690F8240000F09CF994F8240064
:103C7000BDE8104000F086B9034602220846194606
:103C8000FFF794BB02220021FFF790BB2DE9F04122
:103C90001F4693F8243006468846144623BB420844
:103CA00040D0551EADB2013504EB450534F8022B6A
:103CB00041463846FEF72AFEAC42F7D1F1072CD533
:103CC000414638460022FEF7F1FE15F8012B414629
:103CD0003846FEF749FE384641464FF48062FEF70B
:103CE000E5FE2846BDE8F081820819D0551EADB228
:103CF000013504EB850554F8042B41463846FEF7A0
:103D0000D7FDAC42F7D1B2071AD4F3070CD4414621
:103D100038464FF40062FEF7C9FE2846BDE8F08140
:103D20002546F0E72546C9E7414638460022FEF71A
:103D3000BDFE15F8012B41463846FEF715FEE6E7B5
:103D4000414638464FF48062FEF7B0FE35F8022B4C
:103D500041463846FEF7DAFDD7E700BF2DE9F041CE
:103D60001E4693F8243080460F461446A3B94308F4
:103D70003DD05D1EADB2013502EB450539463046FA
:103D8000FEF7AAFD24F8020BAC42F7D118F0010FA0
:103D90002FD12846BDE8F081830823D05D1EADB247
:103DA000013502EB850539463046FEF76BFD44F8D8
:103DB000040BAC42F7D108F00308B8F1000FE8D0CB
:103DC00039463046FEF75EFD08F1FF339BB2013302
:103DD0002B4405F8010B9D424FEA1020F9D12846EB
:103DE000BDE8F0811546B8F1000FD2D0E8E71546DE
:103DF000CCE739463046FEF76FFD05F8010B284643
:103E0000BDE8F0812DE9F0410446154610460F4605
:103E10002146FEF70FFC21462846FEF759FF2146B2
:103E20002846FEF78DFF21462846FEF7D5FF21469E
:103E30002846FEF751FC28460021FEF7C3FD00F09E
:103E40000F0084422DD021462846DFF8688000F01C
:103E500063FA21462846FFF711FA58F82460F6B1B4
:103E6000134B378553F82430336128462146FFF73A
:103E7000D3F958F8243070855D682DB100221846BA
:103E80001146A84758F82430184603F0A7FA002036
:103E900048F824002146BDE8F04100F057BCBDE8D9
:103EA000F08100231A4619462846FEF7FBFBCAE7B5
:103EB000CC59FE1F8C58FE1F10B5064C238803B941
:103EC00010BDFFF751FB6420FFF7DAFC00232380CD
:103ED00010BD00BF5A23FE1FFFF7EEBF024B0122A9
:103EE0001A80FFF74FBB00BF5A23FE1F30B9074AA5
:103EF00013889BB243F0100313807047044A138861
:103F00009BB243F010031380704700BF00000940CC
:103F10000000064038B9054A138823F010031B043B
:103F20001B0C13807047024AF6E700BF00000940EF
:103F30000000064030B9074A13899BB243F48073EE
:103F400013817047044A13899BB243F48073138131
:103F5000704700BF000009400000064030B9074A22
:103F6000138E9BB243F4804313867047044A138E2A
:103F70009BB243F480431386704700BF00000940A2
:103F80000000064038B9054A138E23F480431B0411
:103F90001B0C13867047024AF6E700BF0000094079
:103FA0000000064028B9064B4BF6FF72A3F84020EC
:103FB0007047044B4BF6FF72A3F84020704700BFD8
:103FC000000009400000064028B9064B4FF6F77282
:103FD000A3F840207047044B4FF6F772A3F8402037
:103FE000704700BF000009400000064040B9094A80
:103FF000B2F860309BB243F00403A2F8603070471F
:10400000054AB2F860309BB243F00403A2F8603076
:10401000704700BF0000094000000640F8B92D4B72
:104020001A8892B242F480621A801A885105FCD52F
:104030000522C3F8F0201A8822F020021204120C84
:104040001A801A8892B24FF4806142F001024FF454
:104050001D401A801984198599851886704710B5F6
:104060001D4C0120FFF70CFCE38F23F001031B0420
:104070001B0CE3870120FFF707FCE38F23F002030B
:104080001B041B0CE387238823F020031B041B0C59
:10409000238023889BB243F001032380B4F80231CC
:1040A0009BB243F48043A4F802312346DA88D20756
:1040B000FCD540F607725A80DA8F92B24FF4006155
:1040C00042F480724FF41D40DA871984198599856E
:1040D000188610BD000009400000064088B90C4A4F
:1040E000B2F8603023F003031B041B0CA2F860300D
:1040F000B2F860309BB231B943F00103A2F86030EE
:104100007047044AECE743F00203A2F860307047BE
:1041100000000940000006400E4B007833F81030D4
:104120009BB2022B01D0002070470B4B1B88012B48
:104130000DD010B592B0094B8DF82800012410461F
:1041400001AA1C8000F014FC002012B010BDD52084
:10415000704700BFE42CFE1FFC59FE1F9C5CFE1F35
:1041600030B504469BB0237820488DF8483030F8AD
:1041700013309BB2022B02D000201BB030BD0D4685
:1041800071B11B4B1B88012B2AD01A4B29461046B4
:10419000012409AA1C8000F0A7FB00201BB030BD41
:1041A000002AEED1A38809A8E3B1FFF76BFDD4E99B
:1041B000030123788DF80030002403AB8C2283E8C0
:1041C00003008DF803200294ADF8044004F012FAC5
:1041D000694603460820059300F0D2F82046CCE754
:1041E000D520CAE700F0A6F8E1E700BFE42CFE1FE7
:1041F000FC59FE1F9C5CFE1FC378052B16D870B5BA
:104200005B0092B00A4E0B4D00788DF82800DCB2AE
:1042100001A8345D55F823300592CDE90312ADF8BD
:104220002640029300F0B8FE12B070BD0020704727
:10423000D8C000007802FE1FC378052B11D85B00A0
:1042400030B55C1C114DE4B293B02C5D062C0AD144
:104250000F4A0D7815724D7803920A215572059117
:1042600004E00020704703910592A4B20949027846
:104270008DF82820013301A851F82330ADF82640ED
:10428000029300F089FE13B030BD00BFD8C000001B
:10429000D802FE1F7802FE1F092900D97047FEF7D9
:1042A00033BD00BF092901D90020704708B5FEF7CA
:1042B000B3FF00F0030008BD09290FD810B541B1C4
:1042C0000446FEF7E9FE2046FEF75AFFC0F30A0057
:1042D00010BDFEF79DFEC0F30A0010BD0020704720
:1042E000092901D90020704710B50446FEF7D4FE15
:1042F0002046FEF7E9FE00F0100010BD092901D9A3
:104300000020704710B50446FEF7C6FE2046FEF7B3
:10431000DBFE00F4404010BD092900D9704738B5D4
:104320000C460546FEF7C8FF21462846BDE8384042
:10433000FEF7E4BF092900D970470122FFF736B81C
:10434000092900D9704738B50C460546FEF772F9C1
:10435000214628460222BDE83840FFF753B800BF87
:1043600008B5FEF763FA00F00700013880B20328B1
:1043700096BF024B002033F8100008BDE4C00000D7
:104380002DE9F0418871354EDFF8E080B6F800E0A5
:104390000D4607468C460FCD0EEBCE0408EB840489
:1043A0000FC40FCD0FC4013F2B68236072464FEA44
:1043B000CE000C2F1DD8DFE807F0281C2835352843
:1043C00028073E3E282828009CF80040244B33F85C
:1043D00014309BB2012B0CD0BCF81220214B002AC8
:1043E00037D17044114653F8243008EB80009847C9
:1043F00032881D4B0132A3FB0213DB0803EB83035E
:10440000A2EB43033380BDE8F0819CF80010154B0C
:104410000022704453F8213008EB80001146984781
:104420003288E6E79CF800100D4B33F811309BB250
:10443000012BECD1DDE70B4B9CF80020DCF81410CD
:1044400053F822307044002208EB800098473288ED
:10445000CFE7DCF8141053F82430F3E75C23FE1F99
:10446000E42CFE1FA45CFE1FCDCCCCCC585FFE1FFD
:10447000F0B5012883B02CD1304A13889BB21BBB06
:104480002F4D304E05F15007A6F1140400220421EF
:104490000A2003F023F944F8040B90B3B442F5D199
:1044A000A5F12804002204210A2003F017F944F89A
:1044B000040F30B3AC42F5D12835BD4206F11406E5
:1044C000E2D1002003B0F0BD53889BB2002BD7D0BF
:1044D000F7E7002204210A2003F000F91A4B1860C4
:1044E00090B11A4B0193042419491A4800940023EF
:1044F0004FF4007203F024FE012808D0032003B01B
:10450000F0BD022003B0F0BD012003B0F0BD214694
:1045100000220A2003F0E2F80F4B18600028F3D0C5
:104520000E4B0193032300930D490E4800234FF4D3
:10453000007203F005FE01289ED0DFE7E42CFE1F89
:10454000D423FE1F9C23FE1F8023FE1F8423FE1FF7
:10455000ECC00000314B00000024FE1F0424FE1FAD
:10456000F4C00000A91F000038B5214C34F8103009
:104570009BB2012B0FD01F4B186803F015FE1E4B8A
:10458000186803F015FB1D4B186803F00DFE1C4B5B
:10459000186803F00DFB23889BB213B163889BB2AC
:1045A0001BBB184DA5F1140454F8040B03F000FBD9
:1045B000AC42F9D1144C04F1280554F8040F03F06F
:1045C000F7FAAC42F9D10F4C04F1140554F8040B7E
:1045D00003F0EEFAAC42F9D10C4C04F1280554F882
:1045E000040F03F0E5FAAC42F9D1002038BD00BF5A
:1045F000E42CFE1F8423FE1F8023FE1F0424FE1FC5
:104600000024FE1F9C23FE1FAC23FE1FD423FE1F8D
:10461000B9B138B50C4B53F82030002518680D603F
:1046200040F6B833AA4208BF1A460C4603F080F998
:10463000012801D0FF2038BD2368002BFAD028467E
:1046400038BDFF20704700BFE402FE1F00B583B0F5
:10465000019151B1094B53F820200023106801A9A2
:104660001A4603F06DF8012803D0FF2003B05DF86F
:1046700004FB002003B05DF804FB00BFE402FE1F52
:1046800010B584B000240191039451B10D4B53F83F
:10469000202001A91068234603AA03F0F9F8012895
:1046A00002D0FF2004B010BD03980028FAD0064BBA
:1046B0004FF080525A60BFF34F8FBFF36F8F204689
:1046C00004B010BDE402FE1F00ED00E030B50C4662
:1046D00083B090F8245002F081FE631E082B11D89D
:1046E00005EB850104EB4104074D03E0019848B157
:1046F00002F074FE55F82400002201A903F018F915
:104700000128F3D003B030BDB023FE1F70B50C46B6
:1047100082B090F8245002F061FE631E042B10D882
:1047200005EB8505084E2C4403E0019848B102F0E2
:1047300055FE56F82400002201A903F0F9F80128DB
:10474000F3D002B070BD00BF8823FE1F4B1E082BA4
:1047500000D9704710B500EB800301EB4301114B0A
:1047600082B00446002253F8210001A903F0E0F8CA
:10477000012801D002B010BD019B002BFAD00A4BDA
:104780000A4A33F814309BB2012B18BF05200023CE
:1047900052F8202001A910681A4602F0D1FF02B099
:1047A00010BD00BFB023FE1FE42CFE1FE402FE1F5D
:1047B00000B54B1E83B0082B01900DD890F8243023
:1047C000074A03EB830301EB4301002352F8210066
:1047D0001A4601A902F0B4FF03B05DF804FB00BF64
:1047E000B023FE1F38B5054690F82400FDF79AFF68
:1047F00028460121FDF7D0FF05200024FFF744F8EB
:104800002846FDF7F9FF03469A074FF00B0008D141
:10481000FFF73AF82846FDF7EFFF0B348307A4B201
:104820000DD001340120A4B2FFF72EF8B4F5167FA5
:10483000E6D328460121FDF7C7FF002038BD2846F2
:104840000121FDF7C1FF012038BD00BF10B50621D1
:104850000446FDF7A1FF2A20FFF716F82046FEF7D1
:104860006DFE0621034620461C46FDF7ADFF1620CF
:10487000FFF70AF8C4F3002010BD00BF38B51821B7
:104880000446FDF789FF2A20FEF7FEFF2046FEF7CB
:1048900055FE182105462046FDF796FFC5F340203A
:1048A00038BD00BF10B504468AB0FFF79BFF204615
:1048B000FFF7CCFF18B90B4B18800AB010BD20468B
:1048C000FFF7DCFF94F82420064B8DF80420002825
:1048D00014BF0222012201A90B201A80FFF750FD0C
:1048E0000AB010BDF459FE1F70B514461D4D1E4A86
:1048F0001E4B106029600022012511461D802046B4
:104900002023FDF7CFFE20460021FEF789F920463F
:104910000021FEF7CDFA00212246084600F0C4FD32
:104920000128054605D020F00206B6B25EB1284641
:1049300070BD20460021FFF7AFFC20460021FFF7A5
:10494000F9FC284670BD31462046FEF715FA31467F
:104950002046FFF7A1FC20463146FFF7EBFC284636
:1049600070BD00BFB458FE1FCC59FE1FFC59FE1F7E
:1049700038B514460F4B104A104D186011600023D3
:1049800001211A46204629801946FDF78BFE204654
:104990000021FEF745F920460021FEF77DF920466B
:1049A0000021FFF779FC20460021BDE83840FFF7E1
:1049B000C1BC00BFCC59FE1FB458FE1FFC59FE1FDE
:1049C00038B51A4A1A4B0C4605460021204611807C
:1049D0001980FEF701FA00212046FEF779F900213F
:1049E0002046FEF7ADF994F82430012B0CBF4FF4AC
:1049F00000624FF4806200212046FEF757F825F050
:104A00000203052B07D0082D0AD094F82400BDE836
:104A10003840FFF7EBBA2046BDE83840FFF732B91F
:104A200020460021BDE83840FDF704BEFC59FE1FBA
:104A30009C5CFE1F704700BF704700BF00B58BB085
:104A400090F824308DF8043001A90420FFF798FC79
:104A50000BB05DF804FB00BF00B58BB090F82420CC
:104A6000C3698DF8042001A905200693FFF788FC8F
:104A70000BB05DF804FB00BF10B58AB0084B90F88E
:104A800024208DF804200446012201A903201A8065
:104A9000FFF776FC2046FDF70BFA0AB010BD00BF09
:104AA0007C5CFE1FFDF704BA094B1A88012A00D06E
:104AB000704700B58BB090F824208DF8042001A930
:104AC000002206201A80FFF75BFC0BB05DF804FBA8
:104AD0007C5CFE1F38B5458C0446FFF76DF8012855
:104AE0000AD0294620461DB1FFF7F0FD002038BD51
:104AF000FFF70CFE002038BD0C4B53F825202AB1DF
:104B000020462946FFF754FE002038BD204629469E
:104B100043F82540FFF7E4FB18B9284600F050FDA4
:104B2000E4E7284600F092FCE0E700BF8C58FE1F47
:104B30002DE9F04F864D874E874FDFF824A2DFF82E
:104B40002492DFF8248285B0AB464FF47A7203A931
:104B50000520FFF75DFD0028F7D1039C238C6FF43F
:104B6000A8721344042BF0D801A252F823F000BF1E
:104B7000AD4B0000A54B0000994B00004B4B0000D3
:104B8000854B000094F82400FFF7A6F9039B93F8E7
:104B90002400FFF71FF8D8E7608C22460821FFF7B2
:104BA00031F9D2E72046FFF795FFCEE7638C228DDF
:104BB000013B142BC9D801A151F823F0AB4C0000E4
:104BC000A14C0000974C00004B4B00004B4B0000E9
:104BD0004B4B00004B4B00004B4B00004B4B00007D
:104BE0004B4B00004B4B00004B4B00004B4B00006D
:104BF0004B4B00004B4B00004B4B00007B4C00002C
:104C0000674C00004B4B00004F4C0000114C000063
:104C100012F0070159D1514B1B88012B00F08A80FB
:104C20003A8812F0600F00F08F80F36ABAF800C083
:104C3000B9F800002A80B8F80020A5F802C0A880C2
:104C4000EA80002B81D02246584698477DE702F043
:104C50007003402B35D02DD8102B7FF476AF204633
:104C600000F06AFF71E7736A1BB10022114620460B
:104C700098472046FEF7F4FF67E794F82400FDF715
:104C800051FD94F8240000F0FFFF4028204647D053
:104C900000F080FF59E71146204600F005FB54E77D
:104CA0001146204600F006FB4FE71146204600F073
:104CB000CBFA4AE7602B04D002F05002502A7FF46E
:104CC00044AF204600F0AAFF3FE702F00502012AA8
:104CD00029D0052927D03A8812F0600FA5D10139D3
:104CE000052918D8DFE801F00F0B0703131720463A
:104CF00001F0EAFB29E7204601F0EEF925E720461E
:104D000001F084FB21E7204601F09EF81DE72046D4
:104D100001F0E4F919E721460720FFF751FE14E7F7
:104D200000F02AFF11E794F824000191FEF720FF1C
:104D30000199D0E720460191FEF770FF3A8801996A
:104D400012F0600F7FF471AF204601F03DF8FCE6F1
:104D5000005AFE1F485CFE1F9A5CFE1F0C24FE1FBB
:104D6000FA59FE1F985CFE1FF859FE1F06490748B6
:104D7000074B00220A80028003F5FF7123F8022FFF
:104D80008B42FBD1704700BF0A24FE1F0824FE1F80
:104D9000465AFE1F054A064B108003F5FF7100229C
:104DA00023F8022F8B42FBD1704700BF0824FE1F5F
:104DB000465AFE1F044BFF2203F1200123F8022F65
:104DC0008B421A84FAD17047065AFE1F014B9B682A
:104DD00018797047485CFE1F30B4104B9B689C7874
:104DE000DA78197844EA0224A1420B4411D28AB23B
:104DF00000255978042903D19978814208BFDD78CC
:104E000019780A4492B2A2420B44F2D3284630BC2D
:104E100070470025284630BC704700BF485CFE1F25
:104E20002DE9F041214B9B68DA789D781C7805EBE1
:104E30000225ADB2AC42234430D24FF0000CDFF873
:104E400070E0A2B2E046664618E0052C10D1664537
:104E50000ED29F7893F9024007F00F07E40F07EB9B
:104E6000041708EB0604E4B201362EF81740B6B278
:104E70001F783A4492B2AA423B440FD25C78042C89
:104E8000E3D19C7884420BD01C7944441FFA84F807
:104E90001C782244D2B2AA422344EFD3BDE8F08169
:104EA000DC788C42F0D193F804C0F1E7485CFE1F37
:104EB000085AFE1F044B188820B1044B9B68D87910
:104EC000C0F34010704700BF0824FE1F485CFE1F5F
:104ED000024B9B68D879C0F380107047485CFE1F76
:104EE000092800D9704738B50446154600F0A8FBDC
:104EF000032819D8DFE800F0110A020338BD2A465A
:104F000020460521BDE83840FEF77CBF2A462046F2
:104F10000421BDE8384000F007BC2A4620460321A2
:104F2000BDE8384000F000BC2A4620460721BDE815
:104F30003840FEF767BF00BF092800D9704770B539
:104F400004460E46154601461046FDF7C1FE2A46A8
:104F50003146204600F0A8FA012809D82146284603
:104F6000FDF70AFF21462846BDE87040FFF794B9D7
:104F7000022809D121462846FDF78EFE2146284603
:104F8000BDE87040FFF788B92A4620460721BDE8F2
:104F90007040FEF737BF00BF38B5438CCBB100225D
:104FA0004FF4A973026003840446442002F080F9A0
:104FB000054670B12146442203F018FD03F01AFBA8
:104FC0002946E8610520FFF741FB044620B9204649
:104FD00038BDFF24204638BD284602F0FFF92046A0
:104FE00038BD00BF70B56FF4AA74041916460F2CB3
:104FF00017D8DFE804F00816232916161616161619
:105000001616161616171349002240F255130520DE
:105010000A600B84FFF71AFB80B210B10E4BFF221F
:105020001A8070BD0D4628461946FEF725FE0B4A2C
:105030000B4B012122F815101E6070BDBDE87040B9
:1050400093F82400FEF752BFBDE8704093F82400A7
:10505000FEF760BF1024FE1FA05CFE1F805CFE1FD9
:10506000945CFE1F70B4D0E90212D0E900540D4BDD
:10507000066A1D605C60056944699960DA6081694F
:10508000C2691D615C61456A846A9961DA61C16ABD
:1050900090F8302083F83020C3E90865C3E90A415D
:1050A00070BC7047485CFE1F084B094A0949D96229
:1050B0000021C3E90011C3E90211C3E90412C3E9E5
:1050C0000622C3E908229A62704700BF485CFE1FAF
:1050D000354A0000394A000070B54B68104819681D
:1050E000DA685C680F4D104E8EB00191029299689B
:1050F0001A6903941B7D049105920C490C4A0D4CCE
:105100008DF8343007900C4B069601A8CDE9085471
:10511000CDE90A120C93FFF7A5FF0EB070BD00BFDA
:10512000794A0000A94A0000A1510000594A000034
:10513000A54A00003D4A0000416700002DE9F84FF4
:105140000478944226D2074690469B464FF0000AC8
:105150004FF0FF0906E0052E12D02D782C44A4B2A2
:10516000A0450AD93D196E78042EF4D195F805A012
:105170002D782C44A4B2A045F4D84846BDE8F88F59
:1051800052465946284600F0A5FB002818BF4FF0AC
:105190000009E2E74FF0FF094846BDE8F88F00BF7D
:1051A000F0B5274B1A888DB0012A05460E4603AF8D
:1051B00034D0C02E234B24D09C68002C3BD002223C
:1051C0006270DB681BB107225A7004B9FEE7E3780E
:1051D000A27895F8240002EB032292B2019200F02B
:1051E00019FC019A2B4631462046FFF7A7FF95F898
:1051F00024308DF80C3039460120FFF7C1F80DB08E
:10520000F0BDD3E90224A2B107215170DB68002B65
:10521000DBD002225A70002CD8D0D8E7002095F8B5
:1052200024201880394606208DF80C20FFF7A8F8B6
:10523000BFE72346EBE7DB68002BC4D1C6E700BF1E
:105240007C5CFE1F485CFE1FCB0719D510B5002102
:1052500004462246084600F0F3F9032819D007D87F
:1052600002280FD120460021BDE81040FFF762B8A8
:10527000FF280DD121460720BDE81040FFF7A0BB55
:1052800000F058BA20460021BDE81040FDF720BDCF
:1052900010BD20460021FDF7C3FC21460520BDE8D6
:1052A0001040FFF78DBB00BFCB0700D5704700F063
:1052B00071BA00BFCB0717D510B5002104462246AE
:1052C000084600F0F1F8022811D005D82046002148
:1052D000BDE81040FDF780BDFF2807D1214607201B
:1052E000BDE81040FFF76CBB00F080BA10BD20464F
:1052F0000021BDE81040FFF71DB800BF164AF8B501
:105300001688731C03F01F0313803401EFF303822C
:10531000103A124B52B253F82250A878FEF7CCFD47
:105320000F48A31900EB8304D5E9097C40F2511220
:1053300022849B00AA7884F8242003F128012233D8
:105340000144C4E90E7C1844FEF700FB2146052009
:10535000BDE8F840FFF794B95424FE1FC460FE1F57
:105360005824FE1F2DE9F041044615461046884694
:105370002146FDF75FF921462846FDF7A9FC2146A5
:105380002846FDF7DDFC164E21462846FDF724FD94
:1053900021462846FDF7A0F956F82470F7B1114BC5
:1053A000A7F8288053F824303B6121462846FDF7B2
:1053B00033FF56F82430788500225D685C841846F7
:1053C0001146A84756F8240002F008F8002046F8D5
:1053D00024002146BDE8F041FFF7B8B9BDE8F081EF
:1053E0008C58FE1FCC59FE1F10B491F82420124B8C
:1053F000C40802EB820200F00F0002EB820204F00C
:105400001004044303EB8203012004E088B20A285D
:1054100003F10A030CD05A89012A00F10101F5D1E8
:105420009A8902F01F029442F0D15DF8044B704754
:10543000FF205DF8044B7047DC58FE1F00207047CA
:1054400008B5FDF755F9C0F3C01008BD092800D90B
:105450007047124B70B553F8205004460146284659
:105460002E69FDF7E7F80E490E4BAA6841F8246053
:105470002846214643F82420FDF71AFD21462846F8
:10548000FDF7D6FC20462A460021FFF755FD2146B0
:105490002846BDE87040FEF74DBF00BF8C58FE1F88
:1054A000CC59FE1FB458FE1F2DE9F04F092883B0D8
:1054B00058D8154650EA010204460E4666D00A4600
:1054C000002301462846FDF7CBF8FF284AD02146A5
:1054D0002846FCF763FFDFF8E090074621462846A0
:1054E000FEF7EAFE59F82430BB42BB462AD94FF0FA
:1054F000020821462846FEF7D5FEDFF8C0A0034685
:10550000214628460193FDF795F82B465AF82420AA
:1055100031463846FEF7BAFB59F824304AF82400E1
:105520009B4525D8DF1B49F8247021462846FDF706
:10553000BFFC019B03F00303012B31D0404603B0B5
:10554000BDE8F08F43B39FB2B7FBF0F800FB1870D3
:105550001FFA80F8B8F1000F2AD1002C08BF4FF0D5
:105560000208C6E74FF0FF08404603B0BDE8F08FE1
:1055700000233146284649F82430FDF7DDFA0304BC
:10558000D3D431462846FDF711FBCEE72023114640
:105590002846FDF765F898E71F464FF00108A8E791
:1055A00028462146FEF7C6FE404603B0BDE8F08F10
:1055B0004FF001089DE700BFCC59FE1FB458FE1FF5
:1055C000092800D97047F8B51A4B53F82050044603
:1055D000014628462E69FDF72DF8174B1749AF688D
:1055E00043F82460002341F82470284621461A46D7
:1055F000FDF758F821462846FEF75EFE4EB1B6FB91
:10560000F0F200FB126090B992B221462846FDF7F5
:105610004FF821462846FEF78DFE21462846FDF725
:105620003BFB21462846BDE8F840FEF735BE013277
:10563000EAE700BF8C58FE1FCC59FE1FB458FE1F6E
:1056400009282DE9F84F36D8164604460A468846FA
:10565000002301463046FDF703F8FF2805462AD00F
:10566000DFF8BC9021463046FEF726FE59F824307C
:10567000C5F30B05AB42AA462BD339D0FDB1B5FB20
:10568000F0F300FB135080B2002842D10227DFF86C
:1056900094B033465BF8242041462846FEF75EFB73
:1056A0004BF8240059F82430A3EB0A0349F82430BE
:1056B0003846BDE8F88FFF273846BDE8F88F214609
:1056C0003046FCF7B7FF012741463046FDF7A8FA00
:1056D000E8E721463046FCF7ADFF59F8243049F899
:1056E00024509AB292460327002DEDD01546CEE7FE
:1056F00044B9B5FBF0F300FB135080B210B92A4651
:105700000227F1E721463046FCF794FF00272A469E
:10571000EAE721463046FCF78DFF0127B7E700BFD7
:10572000CC59FE1FB458FE1F092800D97047FFF757
:1057300019BE00BF2DE9F8430124DFF85490074655
:105740000E46A04602E001340A2C1BD008FA04F3EE
:105750001E42A5B2F7D029463846FDF7A9FB59F8F5
:10576000243029463846002BEDD0FEF7B9FD10282D
:105770003A464FF00001284606D00134FFF7B0FB4F
:105780000A2CE3D1BDE8F883FFF7D6FBDBE700BFC7
:105790008C58FE1F2DE9F8430124DFF84C90804619
:1057A0000E46274607FA04F31E42A5B209D059F85F
:1057B00024302946404623B1FEF7A0FDB0F5404F06
:1057C00004D001340A2CEDD1BDE8F8834046FDF742
:1057D0008FFB10F4004F4FF007014246284618BFD8
:1057E0000521FEF70FFBECE78C58FE1F2DE9F04773
:1057F0000124DFF8D8A0DFF8D89005460E46A04671
:1058000008FA04F31E42A7B22AD05AF824303BB358
:1058100095F8243003EB830304EB4303394639F84E
:105820001330012B28461BD0FEF73CFD034613F036
:10583000020F394628462A4637D1FDF7EDFC10F411
:10584000804F2A464FF00101384636D195F8243072
:1058500003EB830304EB430329F81380FFF782FD76
:105860000134062CCCD1DFF864904FF0010808FA1F
:1058700004F31E42A7B20FD059F824303946284607
:1058800053B1FEF70FFD10F0020F2A464FF006014C
:10589000384606D0FEF7B6FA01340A2CE7D1BDE847
:1058A000F0870121FFF75EFDF6E738460621013457
:1058B000FEF7A8FA062CA3D1D5E7394628460134CD
:1058C000FDF75AFA062C9BD1CDE700BF8C58FE1F7E
:1058D000A459FE1F4378052B0CD12DE9F041C37864
:1058E00003F00303022B1ED0032B06D0002318461F
:1058F000BDE8F08100231846704790F902308478A3
:10590000002BF3DA022AF1D191F824603E49642396
:1059100003FB06139B8F002BE8D10625DFF8F0E090
:105920002B46182725E090F902508478002D08DBDB
:105930000A2A5AD0082AD9D104252B464FF4854E7D
:1059400007E00A2A42D0082AD0D103252B4644F288
:10595000102E91F824602C49642205EB850702FB88
:1059600006F202EB4702AF008A5A012ABED00FFAB4
:105970008EFE642207EB050C02FB06F290F8058010
:1059800002EB4C0290F804C004F00F0488184CEAB3
:10599000082C4FF001084EEA040446454FF0000E73
:1059A00021F802804480A0F806C0A0F808E09ED14B
:1059B0005A1E92B2032A98BF14483D4401EB450198
:1059C00098BF30F812E0A1F868E090E791F8246001
:1059D0000D49642303FB06135B89002B86D1012547
:1059E0002B4644F2102E0427C3E791F824600649A1
:1059F000642202FB0612928A002A7FF477AF4FF4EA
:105A0000854E1D460827B4E7DC58FE1F00C1000084
:105A10001080FFFF104B30B400EB80046FF0630583
:105A200004EB840205FB00F503F15A0404EB820445
:105A300003EB8203723500215A89012A06D101281D
:105A40005981998108BF5953198259820A33A34257
:105A5000F2D130BC704700BFDC58FE1F2DE9F04189
:105A6000254F05460124642602E001340A2C2BD080
:105A700095F8242004EB840306FB02F202EB4303B7
:105A8000FB5A012BF1D100212846FCF79BFF1FFA9E
:105A900084F800F00F00804518D001212846FCF75B
:105AA00091FF00F00F0080451ED002212846FCF730
:105AB00089FF00F00F0080450FD041462846013491
:105AC000FCF792FC0A2CD3D1BDE8F08100231A46E2
:105AD00019462846FCF7E6FDDFE7002319460222B7
:105AE0002846FCF7DFFDE8E7002319460122284697
:105AF000FCF7D8FDD9E700BFDC58FE1FF8B50D4E06
:105B000005460124642702E001340A2C11D095F8DF
:105B1000242004EB840307FB02F202EB4303F35A55
:105B2000012BF1D1A1B228460134FCF71BFD0A2C50
:105B3000EDD1F8BDDC58FE1F38B504460C4D00F021
:105B4000C1F8FFF713F92046FEF70AFC6B6923B191
:105B5000084A014612882046984720460021FDF752
:105B60003FFA2B682046D979BDE83840FDF76CBA7A
:105B7000485CFE1FF459FE1F10B504460A20FDF7CD
:105B800083FE2046FEF78EFE94F82400BDE8104008
:105B9000FEF7ACB92DE9F0410546FCF7CFFD95F8CD
:105BA00024001A4FFEF7B6F919491A4A00230B8050
:105BB00013800124642601E00A2C19D095F82430C2
:105BC00004EB840206FB03F303EB42031FFA84F8A1
:105BD000FB5A012B04F10104EED12A46082140466C
:105BE000FEF710F941462846FCF7BCFC0A2CE5D12B
:105BF000094BDB691BB1002211462846984795F8EE
:105C00002400BDE8F041FEF769B900BFDC58FE1F73
:105C10000824FE1F0A24FE1F485CFE1F70B50446C0
:105C200090F82400FEF79AF994F82400FDF7F0F8B4
:105C300005462046FCF7E0FD6B0603D500F00300A7
:105C4000012809D094F82400FEF7ACF994F8240058
:105C5000BDE87040FEF796B994F82400FEF73EF9CF
:105C600000F032F8054B1B6A33B1054A2046118813
:105C7000BDE870400022184770BD00BF485CFE1FA1
:105C80000A24FE1FFDF7FEBF70B506463046FDF73D
:105C9000BFF805460A20FDF7F3FD3046FDF7B8F8DA
:105CA00004460A20FDF7ECFD3046FDF7B1F86040F0
:105CB0006C4004432306E9D415F0800F14BF402044
:105CC000432070BD704700BF704700BFF8B52A4B36
:105CD0000E46054603F12001002223F8022F8B42D5
:105CE0001A84FAD1254B002403F5FF7223F8024FE2
:105CF0009342FBD1224B23481C80234A2349244B47
:105D0000048014800C801C802248234B234A2449A1
:105D1000244F048014800C80342200211C605C60BD
:105D200021483C6002F070FE204B214903F128001D
:105D3000002243F8042B834241F8042BF9D11D4B78
:105D40000E2103F5B472997124339342FBD11A4B9F
:105D50001A4903F11400002223F8022B834241F870
:105D6000042BF9D11649174B0A80284631461A8070
:105D7000BDE8F840FFF7B0B9065AFE1F465AFE1FAD
:105D80009E5CFE1F9A5CFE1FFA59FE1F985CFE1F68
:105D9000F859FE1FFC59FE1F005AFE1F9C5CFE1F97
:105DA0007C5CFE1F945CFE1F485CFE1FB458FE1F07
:105DB000CC59FE1F585FFE1F805CFE1F8C58FE1FD3
:105DC0000824FE1F0A24FE1F184B194A1B8803F4DF
:105DD0007F432DE9F041B3F5106F4FF000051580BA
:105DE0000ED0B3F5306F19D1124B9B6AB3B1124A82
:105DF000124914882A4631F81410BDE8F0411847BA
:105E00000F4E104F04463088B7F80080FEF7C2FFEF
:105E10003388434502D0074B9B690BB9BDE8F0813D
:105E200039882A462046BDE8F04118479A5CFE1F93
:105E30009C5CFE1F485CFE1F985CFE1F485AFE1FBC
