:10000000B841002075270000DD25000071270000A1
:100010007127000071270000712700007127000080
:100020000000000000000000000000007127000038
:1000300071270000000000007127000071270000F8
:10004000752300007D230000752300007D23000040
:100050005D180000F1180000000000000000000022
:100060000000000000000000000000000000000090
:100070000000000000000000000000000000000080
:100080000000000000000000000000000000000070
:100090000000000000000000000000000000000060
:1000A0000000000000000000000000000000000050
:1000B0000000000000000000000000000000000040
:1000C0000000000000000000000000000000000030
:1000D0000000000000000000000000000000000020
:1000E0000000000000000000000000000000000010
:1000F0000000000000000000000000000000000000
:1001000000000000000000000000000000000000EF
:1001100000000000000000000000000000000000DF
:1001200000000000000000000000000000000000CF
:1001300000000000000000000000000000000000BF
:1001400000000000000000000000000000000000AF
:10015000000000000000000000000000000000009F
:10016000000000000000000000000000000000008F
:10017000000000000000000000000000000000007F
:10018000000000000000000000000000000000006F
:10019000000000000000000000000000000000005F
:1001A000000000000000000000000000000000004F
:1001B000000000000000000000000000000000003F
:1001C0000348044B834202D0034B03B118477047E6
:1001D000480200204802002000000000064B0749AA
:1001E000C91A891048BF0131491003D0044B0BB123
:1001F00001481847704700BF48020020480200200D
:100200000000000010B5064C237843B9FFF7D8FF73
:10021000044B13B10448AFF300800123237010BDD9
:100220006802002000000000D839000008B5054B26
:100230001BB105490548AFF30080BDE80840FFF752
:10024000CDBF00BF000000006C020020D8390000C4
:100250002DE9F041D0E902850446A8EB0507406886
:1002600097422844154408D80E463A46A5EB08059F
:1002700002F0F8FA2A466068F11902F0F3FABFF3C7
:100280005F8FE560BDE8F0812DE9F8434FF000098C
:10029000064688461746D0E902243369151B9C425E
:1002A00003F1FF3125BF03F1FF339B180B1B1B1B11
:1002B000BD4228BF3D469D4228BF1D46706841464D
:1002C0002A46204402F0CEFAB2682C44A24208BF6B
:1002D0000024A944A8447F1BBFF35F8FF460002F64
:1002E000DBD14846BDE8F883F8B5164CA8220021BA
:1002F000204602F0C4FA4FF40066002303211020C8
:10030000114A124F124D21616161A261E7612662BB
:10031000A3626362E36222666566A0662367E366A2
:100320006367BFF35F8F0B4B9C46A3F11000ACEBF0
:10033000030213F9011D8342A154F8D1BFF35F8F6B
:10034000F8BD00BF940A0020F828000094020020A5
:10035000840200202034000038B5214B00EB40041B
:1003600003EBC40EDEF82C40013000EB4000012C02
:100370008C46154603EBC00015D0022C0FD034BBC1
:10038000DEF82830DEF8242093429CBFDEF82010EF
:100390005B18013B9A1A95421CD9204638BDBDE82E
:1003A0003840FFF771BFDEF82830DEF82440A34262
:1003B0009CBFDEF820105B18013B1C1B944228BF39
:1003C000144661462246FFF743FF204638BD00240D
:1003D000204638BD2A466146FFF73AFF2C46DCE747
:1003E000940A0020F8B50B4B04461B780D46532B9E
:1003F000164601D0FFF778FFEFF311874FF0200189
:1004000081F31188324629462046FFF7A5FF87F37E
:100410001188F8BD940A0020D0E9013210B50446D5
:10042000501C984207D8236899540246E1686368D3
:100430000131C4E902019A4200D010BD216820694F
:10044000FFF7D0FFA368984215BF4FF0FF3300239A
:10045000E360A36010BD00BF2DE9F84F91420F4645
:10046000DDE90A94154683461E4668D30B464FF0D5
:100470000108B3FBF5F39D4208F10108F9D9B04535
:1004800038BFB04614F0010A02D1B9F1000F3DD1D6
:10049000DBF80C30002B29DB012402E005FB04F41F
:1004A000013E012EFAD8B7FBF4F39D4205D805FBB7
:1004B00004F4B7FBF4F39D42F9D9224E06E0AC42B6
:1004C000B4FBF5F30CD31C46B7FBF3F3F1565846D7
:1004D00004FB1377FFF7A0FFDBF80C30002BEEDAFC
:1004E000BAF1000F02D0B9F1000F09D1BDE8F88FC1
:1004F00020215846FFF790FFDBF80C30002BF5DB8E
:10050000C14509F1FF39F3D8BDE8F88FA30711D42D
:1005100020240CE021465846FFF77EFFDBF80C3024
:1005200009F1FF39002BE1DBB9F1000FB2D0C14571
:10053000F0D8ADE7002E0CBF30242024F7E74FF0B1
:1005400001089CE7243400002DE9F04F00238024AB
:10055000ABB00DF1280ACDE904A481460C4617463C
:10056000CDE90633089006E004A8FFF755FF079B86
:10057000002BC0F2AE8014F9011B002900F0A1800D
:100580002529F1D10026234613F9012BA2F12301DD
:100590000D2908D8DFE801F08007070707070707DC
:1005A0007C0784070778A2F13001C9B209294FF00E
:1005B00000050FD805EB850502EB450593F90020F2
:1005C0001C46A2F13001C9B20929A5F1300503F199
:1005D0000103EFD92E2A00F0FF804FF0000B94F9B1
:1005E000001021F0040068281C465DD02529BBD0EE
:1005F0005839CBB2202BBAD82029B8D801A353F848
:1006000021F000BFDB0600006F0500006F05000051
:100610006F0500006F0500006F0500006F0500000A
:100620006F0500006F0500006F0500006F050000FA
:10063000C50700005D0700006F0500006F050000A2
:100640006F0500006F0500006F0500006F050000DA
:100650006F0500006F0500006F0500006F050000CA
:100660006F050000250700006F0500006F05000002
:10067000F70600006F050000430700006F0500004B
:100680006F050000DB0600001C4646F002067AE714
:100690001C4646F0040676E71C4646F0080672E75C
:1006A0001C4646F001066EE714F9011B21F0040315
:1006B000682B9BD114F9011B21F00403682B95D101
:1006C000F2E7079B002B04DD069C002C40F09D8088
:1006D000234418462BB0BDE8F08F102238685B46E3
:1006E00001680430CDE9005638600DEB0200FFF7D9
:1006F000B3FE079B3CE73B68784A191D39601D68CB
:10070000002D08BF154615F9011B00293FF42FAF36
:1007100004A8FFF781FE079B002BF4DA18462BB0E4
:10072000BDE8F08F082310220025386801680430E6
:100730003860CDE900350DEB0200FFF78DFE079B19
:1007400016E738685B4601680430CDE900560A2296
:10075000386004A8FFF780FE079B09E73B684FF06D
:1007600001081A6804333B6082EAE273A3EBE27388
:10077000092B039209DD5A481946A0FB03C36329DC
:1007800008F101084FEAD303F6DCD84538BFD84654
:10079000002D43D1079900250B46002999DB039BC7
:1007A000002B65DB73076FD406F00303022B74D0B4
:1007B0005B460A22CDE90056039904A8FFF74CFED8
:1007C000079BD5E63B6804A81A1D93F900103A6010
:1007D000FFF722FE079BCBE694F90110A1F130024E
:1007E000D2B2092A55D81C464FF0000B0BEB8B02F6
:1007F00001EB420214F9011FA2F1300BA1F1300309
:10080000DBB2092BF2D9631CEBE62246514648467F
:100810000393FFF7E7FD039B23445AE7039A06F08F
:100820000203002A1ADB720718D4002B4CD0BBF14C
:10083000000F10D0F0070CD50DE0202104A8FFF721
:10084000EBFD0799013D00290B46FFF642AF002D55
:10085000A3D0A845F1D307990B469EE7013D13B1FC
:10086000BBF1000FF7D0F207F5D4002DF1D191E7DD
:100870005B422D2104A80393FFF7CEFD07990029C1
:100880000B46FFF626AF8FE72B2104A8FFF7C4FD28
:10089000F4E74FF0000B0133A3E6BBF1000F87D163
:1008A000002D85D0454516D9302104A8FFF7B4FDA9
:1008B0000799013D00290B46FFF60BAF002DF1D142
:1008C0000029FFF606AF73E7F107C2D5079B002B9F
:1008D000BFF66EAFFDE60B46F2E700BF042900004D
:1008E000CDCCCCCC0EB400B582B003AB53F8041B16
:1008F00001AA0193FFF728FE02B05DF804EB03B0F4
:10090000704700BF10B501F039FA044608B9204617
:1009100010BD044B044A05490020FFF7E3FF2046C1
:1009200010BD00BF0C290000683400002C29000015
:1009300010B501F01DFB044608B9204610BD044B5C
:10094000044A05490020FFF7CDFF204610BD00BF37
:1009500048290000543400002C29000010B501F093
:1009600083FC00B910BD0020BDE81040024B034AD3
:100970000349FFF7B7BF00BF6829000044340000F7
:100980002C29000010B501F0A9F9044608B9204649
:1009900010BD044B044A05490020FFF7A3FF204681
:1009A00010BD00BF68290000343400002C2900006D
:1009B000837843B1012B03D00122054B1A70704795
:1009C000044A137070470122034B1A70704700BF2E
:1009D0003D0B0020400B0020410B0020837843B1E9
:1009E000012B03D00122054B1A707047044A137083
:1009F00070470122034B1A70704700BF3C0B002068
:100A00003E0B00203F0B002010B501F0A9F8044672
:100A100008B9204610BD044B044A05490020FFF7E1
:100A200061FF204610BD00BF88290000A8340000E7
:100A30002C29000010B501F043F8044608B92046FF
:100A400010BD044B044A05490020FFF74BFF204628
:100A500010BD00BFA8290000943400002C2900001C
:100A600010B501F01DF8044608B9204610BD044B2E
:100A7000044A05490020FFF735FF204610BD00BF9E
:100A8000CC290000883400002C29000010B500F0AB
:100A9000A7FF00B910BD0020BDE81040024B034A7B
:100AA0000349FFF71FBF00BFEC29000078340000A6
:100AB0002C29000010B500F045FF044608B9204677
:100AC00010BD044B044A05490020FFF70BFF2046E8
:100AD00010BD00BF0C2A0000D43400002C290000F7
:100AE00010B500F01DFF044608B9204610BD044BA8
:100AF000044A05490020FFF7F5FE204610BD00BF5F
:100B00002C2A0000C83400002C29000010B500F089
:100B1000F3FE00B910BD0020BDE81040024B034AAF
:100B20000349FFF7DFBE00BF4C2A0000B8340000C5
:100B30002C29000010B500F0C3FC044608B920467B
:100B400010BD044B044A05490020FFF7CBFE2046A8
:100B500010BD00BF6C2A0000043500002C290000E5
:100B600010B500F01FFE00B910BD0020BDE8104018
:100B7000024B034A0349FFF7B5BE00BF8C2A0000B1
:100B8000F43400002C29000010B500F09DFB044651
:100B900008B9204610BD044B044A05490020FFF760
:100BA000A1FE204610BD00BFAC2A0000E4340000C6
:100BB0002C29000038B504460D46092A1ED8DFE866
:100BC00002F0282C333D4A4E61771D054548FFF75A
:100BD0009DFF4548FFF7C2FE4448FFF7BFFE44486B
:100BE000FFF7BEFF4348FFF751FF4348FFF74EFFB3
:100BF0004248FFF74BFF4248FFF748FF29460020D5
:100C0000FFF770FE22463F490020FFF76BFE00BE53
:100C100038BD3448FFF77AFFF0E73248FFF776FF38
:100C20003448FFF733FFE9E72E48FFF76FFF3148FD
:100C3000FFF72CFF3048FFF729FFDFE72948FFF7D0
:100C400065FF2C48FFF722FF2B48FFF71FFF2B48BB
:100C5000FFF71CFFD2E72348FFF758FFC2E7214800
:100C6000FFF754FF2348FFF711FF2348FFF70EFF5C
:100C70002248FFF70BFF2248FFF708FF1A48FFF74B
:100C80006DFEBBE71748FFF741FF1A48FFF7FEFE6E
:100C90001948FFF7FBFE1948FFF7F8FE1848FFF761
:100CA000F5FE1148FFF75AFE1048FFF757FEA5E77B
:100CB0000C48FFF72BFF0F48FFF7E8FE0E48FFF741
:100CC000E5FE0E48FFF7E2FE0D48FFF7DFFE06489F
:100CD000FFF744FE0548FFF741FE0548FFF740FFD8
:100CE0008CE700BF502B0020582B00207C2B0020CD
:100CF000A02B0020C02B0020C82B0020D02B0020D0
:100D0000D82B0020CC2A00002DE9F04F002485B01C
:100D100003A8039401F026FC9DF80D009DF80E3009
:100D20009F4ACDE900309F499DF80F302046FFF7DC
:100D3000D9FD9D492046FFF7D5FD9C499C48FFF70A
:100D4000B9FE002840F0CA819A499B48FFF75CFE33
:100D500018B100229949FFF72DFF99499648FFF7EE
:100D600069FE18B101229749FFF724FF9649974879
:100D7000FFF74AFE18B102229549FFF71BFF95497C
:100D80009248FFF757FE18B103229349FFF712FF6D
:100D900092499348FFF738FE18B101228C49FFF7BA
:100DA00009FF90498E48FFF745FE18B102228E498F
:100DB000FFF700FF8D498E48FFF726FE18B103228A
:100DC0008C49FFF7F7FE8C498948FFF733FE18B1CD
:100DD00004228149FFF7EEFE88498948FFF792FD1A
:100DE00018B104228749FFF7E5FE87498448FFF7D9
:100DF0009FFD18B105228549FFF7DCFE844985482F
:100E0000FFF780FD18B105228349FFF7D3FE834920
:100E10008048FFF78DFD18B106228149FFF7CAFE11
:100E200080498148FFF786FE18B106227F49FFF707
:100E3000C1FE5F48FFF754FE18B109227C49FFF755
:100E4000B9FE5D48FFF70CFE18B109227949FFF79A
:100E5000B1FE5E48FFF704FE18B109227649FFF79C
:100E6000A9FE5F48FFF7FCFD18B109227349FFF79F
:100E7000A1FE5F48FFF7F4FD18B109227049FFF7A2
:100E800099FE00206F49FFF72DFD5D48FFF77AFDC1
:100E900018B109226C49FFF78DFE5E48FFF772FD1D
:100EA00018B109226949FFF785FE5F48FFF76CFE1C
:100EB00018B109226649FFF77DFE00206549FFF75A
:100EC00011FD654EDFF8A881644D3D4CDFF8A4911B
:100ED000DFF8A4A13F4FDFF8A4B13378EBB198F865
:100EE00000304FF48071B3FA83F35B0905EB4322C2
:100EF00088F80030A26002F58062A2612E48E1818C
:100F0000E183FFF7ADFD18B109225549FFF752FE05
:100F1000002333703378002BE1D199F80030EBB126
:100F20009AF800304FF48072B3FA83F35B098AF8C1
:100F30000030043305EB4321B960244801F580619A
:100F4000B961FA81FA83FFF78BFD18B1092245498F
:100F5000FFF730FE002389F80030BEE79BF8003031
:100F6000002B00F08D8040494FF480720B781C48B4
:100F7000B3FA83F35B090B70083305EB4321A162DD
:100F800001F58061A163E285E287FFF769FD18B191
:100F900009223649FFF70EFE00238BF800309CE74C
:100FA000EC2A0000F02A0000F82C00003435000084
:100FB000502B00202C360000C02B0020D42E000027
:100FC000C0010020042F000038360000C82B00208C
:100FD000402F000080010020702F000044360000E8
:100FE000D02B0020E0010020AC2F00005036000084
:100FF000D82B0020E82F0000A0010020743500004D
:10100000582B0020183000006035000040300000F0
:10101000AC3500007C2B00207030000098350000BB
:1010200098300000D0350000A02B0020C830000010
:10103000F030000010310000443100007831000031
:10104000AC310000E0310000043200002C3200001E
:101050005432000078320000410B0020440B002085
:10106000EC32000020330000452B002054330000F8
:10107000472B0020400B0020462B00203F0B002078
:101080001D4B1B78E3B11D494FF480720B781C484F
:10109000B3FA83F35B090B700C3305EB4321B962A0
:1010A00001F58061B963FA85FA87FFF7D9FC18B1B9
:1010B00009221449FFF77EFD00230F4A13700CE745
:1010C000114B1B7823B9114B1B78002B3FF405AF54
:1010D000092212200E49FFF76DFDFEE605460D4B75
:1010E00020460D4A0D49FFF7FDFB2A4620460C49D4
:1010F000FFF7F8FB00BE27E63E0B0020442B002044
:10110000D82B0020883300003D0B00203C0B002032
:10111000BC330000B42E0000143500002C29000060
:10112000CC2A0000022800D070470249024800F093
:10113000AFB800BF5C360000482B002008B5FFF7B1
:10114000E3FD002008BD00BF2DE9F84F0388DBB1A7
:1011500080464FF000094FF0010BDFF884A0002417
:101160001E4D4FEAC907D8F8043035F8022BD919BB
:10117000898891420AD00134032CF4D1B8F80030A8
:1011800009F101094B45EAD8BDE8F88FDB590BFAA4
:1011900004F603F0B853B3F1807FF6B29AF8BB348B
:1011A0000ED03342E7D0012001F0B8FA9AF8BB34F0
:1011B000012023EA06038AF8BB3401F07FFADAE75C
:1011C0003342D8D1012001F0A9FA9AF8BB340120AA
:1011D00033438AF8BB3401F071FACCE7C039000020
:1011E00000E00140F8B50446FFF7AEFFEFF31082D0
:1011F000012383F31088234F3B681BB92249CB702E
:101200004023CB703B6801333B6082F31088238816
:101210002BB361681D4C01EBC30E06E01B010831C6
:1012200013448E4544F8230019D008688A88C50302
:101230004FEA1223D2B2F1D502EB031C54F82C6012
:101240001B01083120F4803526F4803613448E4586
:1012500044F82C6044F82C5044F82300E5D1EFF317
:101260001082012383F310883B6813B13B68013B74
:101270003B603B681BB980200349CB70C87082F388
:101280001088F8BD242C0020000D084000080840FC
:1012900098B191B14A6808B503464AB1094A18683D
:1012A00090420CD008461A60FFF79CFF002008BD52
:1012B0000A88002AF2D0012008BD012070470E20C4
:1012C00008BD00BF54524F5050B1064B02689A42BD
:1012D00004D1D0E9023200205A60704707207047DD
:1012E000012070475450470070B5836984B00446AC
:1012F0008C46164601AD9BB193E8070085E80700D0
:1013000083F804C0E26918469E601A6063699847D2
:10131000A3691BB195E8070083E8070004B070BD1E
:101320002B46EDE72DE9F0470446EFF30382103A30
:101330004FFA82FE2E490EF1C00551F8253002F019
:10134000FF0C23F4803341F825304FEA8E0303F17C
:10135000804303F5C043D3F80023264A52F82E00F9
:101360004668F26992F8302092B98268367804F1C2
:10137000120102EB8102012E4FF0010152680DD0E3
:1013800043699BB32144C9B2BDE8F047FFF7ACBF46
:1013900036780421012E4FF00002F1D14FF00049C0
:1013A0004FF000088768DFF848A0C7F81090C7F82A
:1013B0001490C7F81890C7F82480C7F828805AF806
:1013C000257068F310474AF82570D3F80033BFF34F
:1013D0005F8F094D4FEA5E130CF01F0C603306FA65
:1013E0000CF645F823604369002BCBD1BDE8F087AC
:1013F00000600040282C002000E100E030B48C6E3A
:1014000001342AB1944203D930BC013A1A607047C2
:10141000029D496B0078ED0754BF01F01F01C1F335
:101420000441032808D9090981F001016AB9A1B969
:1014300030BC02225A60704701F00C01A1F1040196
:10144000B1FA81F14909002AF1D0944201D800296A
:10145000EED130BC03225A607047002CE8D0F8E788
:10146000002800DA704710B400F160430901124C03
:10147000C9B203F5614383F80013104B00F1C001BA
:1014800044F8202053F8212022F4803243F8212010
:1014900053F82130BFF35F8F012243099B0000F016
:1014A0001F0003F1604303F561438240C3F88021CC
:1014B0001A605DF8044B7047282C00200060004043
:1014C000002900F0AC802DE9F047CE690C4684B0CD
:1014D000002E00F0A0800746002800F09C800B7AC8
:1014E000072B00F09880092B00F095800A2B00F262
:1014F00092800A78032A00F2E380A74B01689942A0
:1015000000F023810123217C8B40C360C3F30900D9
:10151000002800F017816069002800F0E48094F949
:101520001220002AC0F22B8113F00F0F78610CBF3C
:10153000012000200023994A38740A441202BA603C
:10154000A2697C60C7E90632EFF3108C012282F3B6
:1015500010884FF00041924A257C106921FA05F568
:1015600020EA0500106112698CF310884FF42542BF
:10157000BD682A60EB62EB63AB64227A94F800806A
:10158000D0056268B8F1030F02F1FF3C00F0AF80B4
:10159000E86229616961A961B1696B62AB62E96165
:1015A000F1694FF0FF3029620021C5F868C0CDE92C
:1015B0000201D6F83890D7F804A0C5F864C0B8F195
:1015C000000F40F0C4805208013A6A650292AA6591
:1015D00001224FF0030EB9F1000F22D13378002B16
:1015E00070D14B46B178E9B196F803C020784FEA44
:1015F0000C11022841EA8C1100F0C580032804D0A8
:10160000BCF1000F0CBF06200920014343EA01434F
:1016100043F0807306E0012004B0BDE8F0870120AC
:1016200070474B46DAF81CC09CF83000C10703D560
:10163000DCF828100139E964810703D5DCF82C10A7
:10164000013929650021A963C5F88810B9F1000F97
:1016500007D196F8211096F82000490741EA403159
:101660000B4396F83010002914BF4FF4A0014FF43B
:10167000AA01B8F1010F296402D10021E9642965AA
:101680006B63FB68C5F830E02A63EB603A46617C27
:1016900094F91200FFF7E4FE3A4696F8221096F904
:1016A0002400FFF7DDFE96F925003A4696F8231050
:1016B000FFF7D6FE0020384B3B6004B0BDE8F08752
:1016C0000520A9E7707821780301022943EA8013F5
:1016D00057D0032903D000280CBF062109210B4352
:1016E00043F480737EE7012A7FF41EAF17E79FED76
:1016F000287BB26940F48030E86229616961A961A0
:101700006B62AB62EA61F269D7F804A02A62D6F88C
:101710003890C5F868C0C5F864C00093294602AB8C
:101720005046E2688DED027BFFF768FE029B6B6519
:10173000AB65039B1A0642EA034242F0030E42F0F5
:10174000010248E740F27A5066E70E2064E7B8F1FC
:10175000010F04D14FF0FF336B65AB6538E70093A1
:10176000294602AB5046E268FFF748FE029BB8F1FB
:10177000030F6B65AB6584BFEB652B66D9E70B2068
:101780004AE70921ABE709203FE700BFAFF300803C
:10179000FFFFFFFF0000000054504700901640007C
:1017A00000400840002851D0294B02689A424BD192
:1017B00030B4426892F91230D269002B10DB012458
:1017C00003F01F05AC405909224D203145F8214056
:1017D000BFF34F8FBFF36F8F00241F4941F82340A1
:1017E00092F92430002B10DB012403F01F05AC40DC
:1017F0005909184D203145F82140BFF34F8FBFF3F1
:101800006F8F0024144941F8234092F92530002BB2
:1018100011DB01210F4C5A0903F01F0C203201FA91
:101820000CF144F82210BFF34F8FBFF36F8F0021EC
:10183000094A42F823100023D0E9022130BC03609A
:101840001846916053637047072070470120704726
:101850005450470000E100E0282C0020F0B5EFF3E1
:101860000382103A1F4C4FFA82FC0CF1C00E54F860
:101870002E104FEA8C0321F4803103F1804344F8A9
:101880002E1003F5C043D3F80013174951F82C006C
:1018900041680978012908D043692BB1BDE8F040BF
:1018A00000221146FFF720BDF0BD0025D0E90267F8
:1018B000B760B564F564356554F82E6002F0FF0238
:1018C00065F3104644F82E60D3F80033BFF35F8F02
:1018D000064C4FEA5C1302F01F029140603344F85B
:1018E0002310D9E700600040282C002000E100E030
:1018F0000020FFF717BD00BF58B1074B02689A429E
:1019000005D10023054A036018461370704707206D
:1019100070470120704700BF434C4500002008403D
:1019200050B1064B02689A4204D18022044B002039
:101930001A7070470720704701207047434C4500DC
:101940000020084030B329B3144B026830B59A42E6
:10195000864621D0EFF31080012383F31088104ACC
:10196000946824F480449460926880F31088002284
:101970000C4DC3F3120424B131F812C0141D25F824
:1019800024C00132DB18132AF3D1044B0020CEF817
:10199000003030BD012070470E2030BD434C450063
:1019A0000040084000200840C37803F00C02042ADD
:1019B00011D0827802F00C0104290CD03F2B04D9FD
:1019C000C3899BB2B3F5807F07D83F2A00F110008E
:1019D000EAD800207047062070470120704700BFFA
:1019E000D8B10F4A01680346914214D110B490F95E
:1019F00004100C4801F1C00C50F82C200A4C22F0C5
:101A0000807240F82C20002244F8212010465DF816
:101A1000044B1A607047072070470120704700BFD1
:101A20000043544400600040000000201A4B30B5D1
:101A300053F820304FF0FF34054616E093F802C00B
:101A40000CF00C02042A19D05A68CAB19A68BAB1CB
:101A50009A686FEA010E8A4312D15868103310EA6F
:101A60000E000DD1BCF13F0F0CD9DA78C2F3011191
:101A700002F00C02042A04FA01F1DFD1062030BD85
:101A8000012030BD054AC03552F8253043F080733F
:101A900042F8253030BD00BF00000020006000404B
:101AA00048B1064B02689A4201D00720704790F96E
:101AB0000400FFF7BBBF0120704700BF0043544440
:101AC000002842D0224B026870B59A4204463AD1AF
:101AD0000D46002935D00846FFF766FF88BB94F90C
:101AE00004101C4B01F1C00253F8226060F3186629
:101AF000194843F8226041F40042C3899BB29A42DC
:101B0000FBD02B46DA789C463F2A05D9DA89D2B237
:101B100002EB022292B2DA819CF8022010333F2AB3
:101B2000F0D8082018220C4B18740C4840F82150AB
:101B30001A7494F90400FFF779FF002818BF1320E6
:101B400070BD012070BD072070BD0120704700BF2F
:101B50000043544400600040005400400000002056
:101B6000002838D0F8B502682B4B04469A424FD073
:101B70000D4671B34B6863B3284A117869B393F982
:101B80000060002E46DB264F57F82630002B3DD153
:101B900026712D68CDB12846FFF706FFC0B92B4648
:101BA000DA7819463F2A05D9DA89D2B202EB022245
:101BB00092B2DA818A7810333F2AF1D80822194B81
:101BC0001A74182247F826501A740020124B23600A
:101BD000F8BD0120F8BD0120704701261670EFF313
:101BE000108086F31088104B1A6822F480021A6065
:101BF0001B6880F310880A4B4FF4C072184600F03F
:101C00003EFE084A6B6850611673B8E70820F8BDBD
:101C10000E20F8BD0B20F8BD00435444E02B0020FB
:101C2000000000200054004000400840F0B5C769A3
:101C3000054689B017B3BE466C468C46BEE80F0019
:101C40003E460FC49EE80F0084E80F00BCE80F007A
:101C50000FC69CE80F008EE80F00AB693846984726
:101C6000EB694BB19C46EE46BEE80F00ACE80F00B6
:101C70009EE80F008CE80F0009B0F0BD0F46ECE7BE
:101C800010B5024688B0EFF303831249103B5BB2F4
:101C900051F82300EFF30383103B0F495BB2C033CD
:101CA00051F8234024F4803441F8234051F8233084
:101CB000002143688DF802201C88026A8369ADF810
:101CC000004001928DF8081013B16946FFF7AEFF8E
:101CD00008B010BD282C002000600040C8B10F4A99
:101CE0008368934211D1C2689A4210D148F201012F
:101CF0000268B2F880309BB28B4202D013881B047A
:101D000009D4838A00201380704707207047212060
:101D10007047012070470820704700BF434441527C
:101D200010B400F1604C134C0901134BC9B20CF50F
:101D3000614C8CF8001300F1C00144F8202053F8E6
:101D4000212022F4803243F8212053F82130BFF3C0
:101D50005F8F012243099B0000F01F0003F16043E5
:101D600003F561438240C3F880211A605DF8044B9B
:101D7000704700BF282C002000600040002800F0C1
:101D8000BF802DE9F0410C46002900F0D4800546C3
:101D900003200B88D84010F0010000F0B3806F4A98
:101DA000116A6F4AC1F302661268C1F30211B240B0
:101DB000CA406C498A4240F2C1806669317841B1BB
:101DC000832900F2A180052903D1E278002A40F09E
:101DD0009B8094F802C0BCF1010F00F0978032792B
:101DE00032B1B2783F2A00F08F80002A00F08C8058
:101DF000E278022A00F288805B4FA868B84200F0BF
:101E0000AB80E06820B194F90670002FC0F2988092
:101E10000027A86120695B02C5E9077003F18043D0
:101E200003F5B8136C602B60B37837794FEA4C3CFC
:101E3000002B75D14CF450700FB140F080001FFAA8
:101E400080FCA5F814C0F0781B0200F03F0003F4FA
:101E50007C5303432079520042EAC032707842EA50
:101E60004012EFF31088012080F31088B4F800E0EE
:101E70003E4FCEF1100E00FA0EF0D7F80CE02EEA2D
:101E80000000F860F86888F3108847F6FF500CEA05
:101E9000000C28689BB292B2A0F800C00382C281F5
:101EA0000173B379A3F10103B3FA83F35B0980F8FB
:101EB000D03094F90600002803DB2A46617AFFF748
:101EC0002FFF94F90700002803DB2A46A17AFFF7C9
:101ED00027FF96F90700002803DB2A46717AFFF7EF
:101EE0001FFF96F90800002803DB2A46B17AFFF7A6
:101EF00017FF00231C4A1846AA602B61BDE8F08139
:101F00000120704740F27A50BDE8F081B2783F2A54
:101F1000FAD0002AF8D0F2783F2A7FF466AFF3E7D0
:101F20003F2B4CF4107087D1002F86D14CF4024027
:101F300040F0400083E70120BDE8F0811B20E3E78B
:101F400096F90770002FBFF663AF96F90870002F5F
:101F5000BFF65EAF0B20D7E70E20D5E700E00140CB
:101F6000B02D00203F420F00434441520040084042
:101F7000002800F04A81002900F047810346B34A57
:101F80008068904240F036812DE9F04F0C6883B0B4
:101F9000002C00F036815A68AD48158850F82500AD
:101FA00040F0C040C74334EA000040F02A819678F0
:101FB0004D68012E00F02081002D40F022815269F1
:101FC00092F804900192B9F1000F03D014F0C04FC1
:101FD00040F01781019A8F681278002A40F017812B
:101FE000002F40F00E818A7C002A40F00A81CE68E2
:101FF000CEB1B6F808C0BCF1000F14D00CF42062CA
:10200000B2F5206F00F00E811CF4804F0BD0B6F8B3
:102010000AC0B289944500F2F480B6F80EC0328A44
:10202000944500F2EE801A681FFA84FBA2F804B00F
:102030001FFA85FBA2F814B025F0C04E1FFA87FBEB
:1020400024F0C04827F0C04CA2F808B0DFF80CA27A
:102050004FEA1E4E4FEA1C4C4FEA184BA2F806B04E
:10206000A2F816E0A2F80AC0DFF8F4C1DAF820E01E
:10207000DCF800A0CEF3026C0AFA0CFCCEF3021ED0
:102080002CFA0EFCDFF8DCE12543AEFB0CEC41F250
:10209000360E4FEA9C1C0EFB0CFC0EF1864E0EF524
:1020A000DE1E0EF64D6EAEFB0CEC4FEA9C4C0CF1B6
:1020B000010CBCF1070F38BF4FF0070C15F0005EA4
:1020C00027D0EFF31086012282F31088614AD4688A
:1020D00024F48004D460D26886F3108890245E4A89
:1020E0005FFA8CF614700C681A6814F0005F18BF61
:1020F0004FF4807E82F8DE608F68019E08BF4FF447
:10210000806E96F8049017F0005FCE6818BF4EF00E
:10211000010E6D000ED5650048BF4EF4007E5FFADB
:102120008CFC58BF4EF4006E7D0082F8DFC048BFC3
:102130004EF0020E1FFA8EFEA2F812E0002E6FD0B3
:1021400035892F052BD5D6E900E7B6F80AB0A2F8F5
:1021500090504FEA1E4AA2F89CB0B6F80CB04FEA75
:10216000174C2AF4C04AA2F89EB01FFA8AFA1FFA46
:102170008EFB2CF4C04CCEF3417EA2F894B01FFA33
:102180008CFCA2F896A082F892E01FFA87FEC7F3B3
:102190004177A2F898E0A2F89AC082F89370AF0550
:1021A0000CD5B77C96F813C047EA0C0782F8A670E6
:1021B000F789368AA2F8A870A2F8AA60098AA2F85C
:1021C0009050A2F88010B9F1000F0DD0B8FA88F83D
:1021D000118889B221F01F011F31A1EB080189B2DA
:1021E00011809A8A11439982184AC3E9032403B0E3
:1021F000BDE8F08F072070471DB127432F423FF401
:10220000DEAE012003B0BDE8F08F0120704744EA44
:10221000050237EA0202F4D1002F7FF4E4AEF0E7C2
:102220003546CBE7B27C4FF001081F2A94BF4FF030
:10223000000E4FF0010EA2EB8E0208FA02FE326889
:102240001EEA020F3FF4E0AEDBE700BF4344415219
:10225000C83900000040084000300F4000E0014055
:10226000B02D0020D34D6210002878D03D4A8168FF
:102270000346914271D1002070B45A685469C3E991
:10228000020092F90610814211DB0125364E4A09FF
:1022900001F01F0C203205FA0CF546F82250BFF36E
:1022A0004F8FBFF36F8F314A42F821005A6892F97D
:1022B0000720002A10DB012002F01F05A840510969
:1022C000294D203145F82100BFF34F8FBFF36F8FA9
:1022D0000020264941F8220094F90720002A10DB4B
:1022E000012002F01F05A84051091F4D203145F87B
:1022F0002100BFF34F8FBFF36F8F00201B4941F8C0
:10230000220094F90820002A10DB0120164C510904
:1023100002F01F052031A84044F82100BFF34F8F81
:10232000BFF36F8F0020114941F8220000201A6886
:1023300010821080EFF31084012282F31088596814
:102340000B4B0988C1F110018A40D9680A43DA6051
:10235000DB6884F3108870BC704707207047012049
:10236000704700BF4344415200E100E0282C0020A8
:10237000004008400020FFF783BC00BF0120FFF7AA
:102380007FBC00BF064B074993F826001A6A51F834
:102390002030C2F302620449D3400B60704700BF93
:1023A00000E0014048020020B02D0020704700BF2F
:1023B000F8B54AF2035001234549464AA1F8FE0305
:1023C000A2F80431B2F804319BB2002BFAD10120FB
:1023D0004FF400454FF0090C3F4CDFF818E13F4E39
:1023E000C4F804E0DFF810E13949C4F80CE03C4FD0
:1023F000A2F800013B4AB06030606261276091F84A
:102400002620A5602561086A54F82220364EC0F3C4
:102410000260C240326081F8133481F8A2C091F8A2
:1024200080341BB991F8813499074CD0284D95F828
:102430008034002B3CD00022254B83F8812483F884
:1024400080240023224981F8323091F83C301A0769
:10245000FBD543F2021000231D4A088581F82A307B
:1024600092F83C309B06FBD50320052319494FF019
:10247000F10C81F81C011D49116282F8263092F896
:102480002630156A54F82300C5F302640123E040A6
:102490003060F0244FF42540154981F80CC00B72D0
:1024A0000C7382F8303082F85230A2F8FE03F8BD87
:1024B0000121C82085F8801400F064F895F8803474
:1024C000012BFBD1B7E74FF47A70FFF76FFFB8E746
:1024D00000E0014000C001404802002000700040C0
:1024E000002D310100C2EB0BB02D00202112012084
:1024F0000020004000127A0000366E0138B5002539
:10250000164C0121C82084F8285000F03BF884F8CC
:10251000245094F82430002BFBD194F824300F4A37
:1025200043F0020384F8243092F82430C3F34001CE
:102530009B07F9D4094882F8221090F8223003F062
:10254000FF04002BF9D1012000F0E8F8044B012032
:1025500083F8BB44BDE8384000F0B0B80030084014
:1025600000E00140034618B1024A00201A6070479B
:102570000120704700000705A0F101000028FBD1F1
:10258000704700BF4FF47A7310B400FB01F1114C97
:10259000114A2468B2FBF4F2A1FB03043CB9B0FB7E
:1025A000F2F0800860B15DF8044BFFF7E5BF9200E0
:1025B000B1FBF2F1A1FB03132BB908460028F2D1BD
:1025C0005DF8044B70474FF0FF3C5DF8044B6046EC
:1025D000FFF7D2BFB02D002000CA9A3B70B500248F
:1025E0000B4B0C4EB3F82021B3F84051ADB215405F
:1025F00025FA04F3DB0704D556F82430E0B203B122
:1026000098470134102CF3D1014BA3F8305170BD21
:1026100000600040E42B002030B5032085B000F0BE
:102620007DF86FF0FF054FF0FF31204C002322466C
:102630004FF0010E1E488564CDE90111039104F1AC
:10264000C00532F8020F590960B104A800EB8101FE
:1026500051F80C0C03F01F0C0EFA0CFC20EA0C00D5
:1026600041F80C0C954203F10103EAD10199114B99
:102670000F4A03201167C3F8801202995167C3F80B
:10268000841203999167C3F8881200F017F80023A9
:10269000094834F8022F03F1C00101330AB140F8B0
:1026A0002120A542F5D105B030BD00BFFE380000A5
:1026B0000080004000E100E000600040EFF3108186
:1026C000012383F31088124B33F8102092B22AB101
:1026D00033F81020013A92B223F8102033F810306A
:1026E0009BB293B90B4A10B4B2F8FE330A4C9BB2BA
:1026F00034F8100043F4254323EA0003A2F8FE3324
:1027000081F310885DF8044B704781F3108870479F
:10271000A82D002000E00140D039000030B4EFF3D4
:102720001081012383F310880E4A32F810309BB2D7
:102730006BB90D4C0D4DB4F8FE3335F810C09BB29B
:1027400043EA0C0343F425439BB2A4F8FE3332F86A
:10275000103001339BB222F8103081F3108830BC66
:10276000704700BFA82D002000E00140D0390000D4
:1027700000BE704708B500F003F8FEF7DFFCFEE787
:102780004FF4700270B52B4B2B4CC3F888200020FF
:102790009C60FEF7C7FCFFF70BFE0120FEF7C2FCB2
:1027A0002368A3F5806383F30A882448244A002120
:1027B000121A00F064F82348234A2449121A00F040
:1027C00051F8234D234B5B1B002B07DD00249E108B
:1027D00055F8043B01349847A642F9DCFFF7D2FDD7
:1027E000FFF78CFE0320FFF799FF00234FF6FF70E1
:1027F000194903F108020133092B21F81200F8D11D
:1028000000240320FFF75AFF0320FFF787FF134B35
:1028100003205C609C60DC601C61FFF74FFF0220BE
:10282000FEF780FCFFF7F8FE2046BDE8704000F0A0
:1028300017B800BF00ED00E00000000068020020B3
:10284000B42D00208001002048020020043A00003E
:102850004002002044020020000D084000000E400D
:10286000704700BF0A44431E914200D1704710B523
:1028700011F8014B914203F8014FF9D110BD024408
:102880000346934200D1704703F8011BF9E7FFFFAD
:102890004275696C7420776974682052656E65733F
:1028A000617320416476616E63656420466C65786F
:1028B00069626C6520536F66747761726520506140
:1028C000636B6167652076657273696F6E20352E64
:1028D000372E3000352E372E30000000000007055F
:1028E000F8B500BFF8BC08BC9E467047F8B500BFFD
:1028F000F8BC08BC9E4670475465726D696E616C89
:1029000000000000284E554C4C2900000D0A2A2AD0
:1029100020525F4144435F4F70656E204641494CF1
:102920004544202A2A200D0A000000005B4552522F
:102930005D20496E2046756E6374696F6E3A20257E
:102940007328292C202573000D0A2A2A20525F4162
:1029500044435F5363616E436667204641494C457B
:1029600044202A2A200D0A000D0A2A2A20525F41FB
:1029700044435F436C6F7365204641494C45442096
:102980002A2A200D0A0000000D0A2A2A20525F443C
:1029900054435F4F70656E204641494C4544202AA0
:1029A0002A200D0A000000000D0A2A2A20525F4446
:1029B00054435F5265636F6E666967757265204642
:1029C00041494C4544202A2A200D0A000D0A2A2A92
:1029D00020525F4454435F456E61626C65204641FE
:1029E000494C4544202A2A200D0A00000D0A2A2AB3
:1029F00020525F4454435F436C6F736520464149E6
:102A00004C4544202A2A200D0A0000000D0A2A2ADB
:102A100020525F454C435F4F70656E204641494CE4
:102A20004544202A2A200D0A000000000D0A2A2A07
:102A300020525F454C435F456E61626C65204641A4
:102A4000494C4544202A2A200D0A00000D0A2A2A52
:102A500020525F454C435F436C6F7365204641498C
:102A60004C4544202A2A200D0A0000000D0A2A2A7B
:102A700020525F4750545F4F70656E204641494C6D
:102A80004544202A2A200D0A000000000D0A2A2AA7
:102A900020525F4750545F436C6F73652046414935
:102AA0004C4544202A2A200D0A0000000D0A2A2A3B
:102AB00020525F4750545F537461727420464149FD
:102AC0004C4544202A2A200D0A0000000D0A5265B8
:102AD0007475726E6564204572726F7220436F6404
:102AE000653A203078257820200D0A00312E3000FC
:102AF0000D0A2A2A2A2A2A2A2A2A2A2A2A2A2A2A73
:102B00002A2A2A2A2A2A2A2A2A2A2A2A2A2A2A2A25
:102B10002A2A2A2A2A2A2A2A2A2A2A2A2A2A2A2A15
:102B20002A2A2A2A2A2A2A2A2A2A2A2A2A2A2A2A05
:102B30002A2A2A2A2A2A2A2A2A2A0D0A2A20202050
:102B400052656E6573617320465350204578616D00
:102B5000706C652050726F6A65637420666F7220B6
:102B60006164635F6770745F706572696F646963E5
:102B70005F73616D706C696E67204D6F64756C6515
:102B80002020202A0D0A2A2020204578616D706CB3
:102B9000652050726F6A6563742056657273696F41
:102BA0006E2025732020202020202020202020207F
:102BB0002020202020202020202020202020202015
:102BC0002020202020202020202020202A0D0A2A1A
:102BD000202020466C657820536F6674776172659B
:102BE000205061636B2056657273696F6E202025DB
:102BF000642E25642E2564202020202020202020E3
:102C000020202020202020202020202020202020C4
:102C10002020202020202020202A0D0A2A2A2A2AAB
:102C20002A2A2A2A2A2A2A2A2A2A2A2A2A2A2A2A04
:102C30002A2A2A2A2A2A2A2A2A2A2A2A2A2A2A2AF4
:102C40002A2A2A2A2A2A2A2A2A2A2A2A2A2A2A2AE4
:102C50002A2A2A2A2A2A2A2A2A2A2A2A2A2A2A2AD4
:102C60002A2A2A2A0D0A526566657220746F20721C
:102C70006561646D652E7478742066696C65206684
:102C80006F72206D6F72652064657461696C73206A
:102C90006F6E204578616D706C652050726F6A654B
:102CA000637420616E640D0A46535020557365723B
:102CB0002773204D616E75616C20666F72206D6F99
:102CC000726520696E666F726D6174696F6E2061E6
:102CD000626F7574206164635F6770745F706572A2
:102CE000696F6469635F73616D706C696E6720649E
:102CF00072697665720D0A000D0A54686520457880
:102D0000616D706C652050726F6A656374206465D4
:102D10006D6F6E7374726174657320746865206280
:102D2000617369632066756E6374696F6E616C6947
:102D30007479206F662041444320475054205065E9
:102D400072696F6469632053616D706C696E67208E
:102D50006F6E2052656E65736173200D0A524120BB
:102D60004D435573206261736564206F6E20465336
:102D7000502E204F6E207375636365737366756C98
:102D800020696E697469616C697A6174696F6E201B
:102D90006F66204144432C204750542C20454C431F
:102DA00020616E6420445443206D6F64756C652C03
:102DB0000D0A475054207472696767657273206109
:102DC0006E204144432067726F7570205363616EBB
:102DD00020617420706572696F64696320696E7424
:102DE000657276616C732E205768656E206561632D
:102DF000682067726F7570207363616E20636F6DFA
:102E0000706C657465732C20445443207472696738
:102E1000676572730D0A64617461207472616E7308
:102E200066657220616E6420636F706965732064EB
:102E300061746120746F20757365722062756666B7
:102E400065722E205468652073616D706C65204139
:102E5000444320646174612063616E206265207662
:102E60006965776564207468726F7567682C0D0AF0
:102E700077617665666F726D2072656E64657269E2
:102E80006E67206F66206D656D6F7279207573694E
:102E90006E67206D656D6F727920766965776572F2
:102EA00020696E20653273747564696F2E0D0A0A8D
:102EB000000000000D0A2A2A20696E69745F6861AB
:102EC0006C5F656C63204641494C4544202A2A20AA
:102ED0000D0A00000D0A2A2A206474635F696E6976
:102EE0007420666F7220756E697420302C206772B2
:102EF0006F75702061206661696C6564202A2A20E4
:102F00000D0A00000D0A2A2A20647463207265638A
:102F10006F6E66696775726174696F6E20666F7235
:102F200020756E697420302C2067726F7570206177
:102F3000206661696C6564202A2A200D0A00000061
:102F40000D0A2A2A206474635F696E697420666FB3
:102F50007220756E697420312C2067726F75702035
:102F600061206661696C6564202A2A200D0A0000D0
:102F70000D0A2A2A20647463207265636F6E666985
:102F80006775726174696F6E20666F7220756E6905
:102F90007420312C2067726F757020622066616921
:102FA0006C6564202A2A200D0A0000000D0A2A2AD6
:102FB00020647463207265636F6E66696775726101
:102FC00074696F6E20666F7220756E697420312C83
:102FD0002067726F75702061206661696C6564207E
:102FE0002A2A200D0A0000000D0A2A2A2064746390
:102FF0005F696E697420666F7220756E6974203126
:103000002C2067726F75702062206661696C656440
:10301000202A2A200D0A00000D0A2A2A2061646352
:103020005F696E697420666F7220756E69742030F6
:10303000206661696C6564202A2A200D0A00000060
:103040000D0A2A2A206164635F6368616E6E656C95
:103050005F636F6E66696720666F7220756E697454
:103060002030206661696C6564202A2A200D0A00E0
:103070000D0A2A2A206164635F696E697420666F95
:103080007220756E69742031206661696C656420F8
:103090002A2A200D0A0000000D0A2A2A20616463F2
:1030A0005F6368616E6E656C5F636F6E66696720F3
:1030B000666F7220756E69742031206661696C6577
:1030C00064202A2A200D0A000D0A2A2A206770741B
:1030D0005F696E697420666F722074696D65722015
:1030E00030206661696C6564202A2A200D0A000080
:1030F0000D0A2A2A20525F454C435F456E61626C7F
:1031000065206661696C6564202A2A200D0A00002A
:103110000D0A2A2A206474635F656E61626C652003
:10312000666F722041444320756E697420302067B9
:10313000726F75702061206661696C6564202A2A4F
:10314000200D0A000D0A2A2A206474635F656E61EF
:10315000626C6520666F722041444320756E69740D
:1031600020302067726F75702062206661696C651F
:1031700064202A2A200D0A000D0A2A2A206474637A
:103180005F656E61626C6520666F7220414443200A
:10319000756E697420312067726F757020612066CA
:1031A00061696C6564202A2A200D0A000D0A2A2A0A
:1031B000206474635F656E61626C6520666F722067
:1031C00041444320756E697420312067726F7570B9
:1031D0002062206661696C6564202A2A200D0A003D
:1031E0000D0A41444320706572696F6469632073FE
:1031F00063616E20737461727465642E2E2E0D0AE5
:10320000000000000D0A2A2A2073746172745F6145
:10321000646320666F7220556E69742030204641C9
:10322000494C4544202A2A200D0A00000D0A2A2A6A
:103230002073746172745F61646320666F722055DD
:103240006E69742031204641494C4544202A2A2089
:103250000D0A00000D0A2A2A207374617274206717
:1032600070742074696D65722030204641494C4568
:1032700044202A2A200D0A000D0A55736572206326
:10328000616E206E6F77206F70656E207761766556
:10329000666F726D2072656E646572696E67206F0D
:1032A00066206D656D6F727920696E20653273746A
:1032B0007564696F20746F206F6273657276652024
:1032C000746865206F7574707574206F6620616412
:1032D000632067707420706572696F64696320731E
:1032E000616D706C696E672E0A0A00000D0A2A2A49
:1032F0002064746320656E61626C65206661696C30
:10330000656420666F7220756E6974203020677264
:103310006F7570206120202A2A200D0A000000000D
:103320000D0A2A2A2064746320656E61626C652030
:103330006661696C656420666F7220756E697420C1
:10334000302067726F7570206220202A2A200D0AB3
:10335000000000000D0A2A2A2064746320656E6153
:10336000626C65206661696C656420666F722075A9
:103370006E697420312067726F7570206120202A79
:103380002A200D0A000000000D0A2A2A2064746316
:1033900020656E61626C65206661696C656420669B
:1033A0006F7220756E697420312067726F7570209E
:1033B0006220202A2A200D0A000000000D0A2A2A75
:1033C00020616463207363616E20636F6D706C6550
:1033D0007465206576656E7420666F722067726F03
:1033E00075702041206F722042206F6E20556E69EB
:1033F000742031206F722030206973206E6F74202A
:10340000726563656976656420202A2A200D0A00AA
:1034100000000000000054545220524547474553D5
:1034200000FFFFFF3031323334353637383941420F
:10343000434445467363616E5F73746172745F6188
:10344000646300FF6465696E69745F68616C5F61E5
:10345000646300FF6164635F6368616E6E656C5FE7
:10346000636F6E66696700FF696E69745F68616C9F
:103470005F61646300FFFFFF6465696E69745F6884
:10348000616C5F64746300FF6474635F656E6162A6
:103490006C6500FF6474635F68616C5F7265636F85
:1034A0006E66696775726500696E69745F68616CE4
:1034B0005F64746300FFFFFF6465696E69745F6831
:1034C000616C5F656C6300FF656C635F656E616274
:1034D0006C6500FF696E69745F68616C5F656C6341
:1034E00000FFFFFF6770745F74696D65725F7374CE
:1034F000617274006465696E69745F68616C5F67AE
:10350000707400FF696E69745F68616C5F677074E6
:1035100000FFFFFF67656E6572616C5F7369676EC0
:10352000616C5F6163717569736974696F6E5F69FE
:103530006E69740000000000000000000000000040
:1035400000000000C000C600C000C600000000006F
:10355000000000000000000000000000000000006B
:10356000030000000C00000000000000000000004C
:103570000000001800000100000F0001000202001E
:10358000B1090000000000008C3500000001090AAC
:10359000000000DFDFFFFFFF0000030000000C0061
:1035A0000000000000000000000000180100010001
:1035B000000F020300020200DD090000000000000D
:1035C000C43500000001090A000000DFDFFFFFFF33
:1035D0000000000034080000000000001A04000091
:1035E000000104000000000000000000F0350000B1
:1035F00000000000000000000000000000000000CB
:1036000000000000000000000000000000000000BA
:10361000000002FF05DF00000000000000000000C5
:103620000000000000000000000000000002002078
:103630003436000000FFFFFF10020020403600007B
:1036400001FFFFFF200200204C36000002FFFFFFB9
:10365000300200205836000003FFFFFF5300000037
:10366000683600000000000000800000000000003C
:103670000080000001000000008000000200000047
:1036800000800000030000000400000004000000AF
:10369000004000000500000000400000060000009F
:1036A000008000000700000010400000080000003B
:1036B0000400000009000000008000000E0000006F
:1036C000008000000F000000000C011C0001000041
:1036D000000C011C01010000000C011C0201000093
:1036E000000C011C03010000000C011C040100007F
:1036F000000C011C05010000000C011C060100006B
:10370000000C011C0701000000000100080100007E
:103710000000010009010000000001000A01000092
:10372000040000000B010000040000000F01000075
:103730000000010602020000000001060302000072
:10374000000001060402000000000106050200005E
:10375000000001000003000000000106010300005A
:103760000400000003030000040000000403000044
:10377000000C011105030000000C011106030000FC
:10378000000C011107030000000C011108030000E8
:10379000000C011109030000000C01110A030000D4
:1037A000040000000B030000040000000C030000F4
:1037B000040000000D0300000400000000040000ED
:1037C000000C011701040000000C011702040000A6
:1037D000050C0000030400000400000004040000C5
:1037E000000C011705040000000C0117060400007E
:1037F0001040000009040000000001060A04000057
:10380000000001060B040000000001060C0400008B
:10381000000001060D040000104000000E0400002E
:10382000040000000F0400000080000000050000FC
:10383000008000000105000000800000020500007B
:1038400000800000030500004000010405050000A1
:103850004000010406050000000401070B050000FC
:10386000000401070C050000000C011C000600000C
:10387000000C011C01060000000C011C02060000E7
:10388000000C011C0A060000040000000B060000EA
:10389000040000000C060000000001050D060000F9
:1038A000000001050E060000000C011700070000D3
:1038B000000C011701070000000C011702070000AF
:1038C000000C011703070000000C0117040700009B
:1038D000000C0117050700000400000008070000A5
:1038E0000400000009070000040000000A070000AF
:1038F000040000000C070000040000000D07000099
:103900006001610166016701C600C000000000009F
:1039100000000000000000000000000000000000A7
:103920000000000000000000000000000000000097
:103930000000000000000000000000000000000087
:103940000000000000000000000000000000000077
:103950000000000000000000000000000000000067
:103960000000000000000000000000000000000057
:103970000000000000000000000000000000000047
:103980000000000000000000000000000000000037
:103990000000000000000000000000000000000027
:1039A0000000000000000000000000000000000017
:1039B0000000000000000000000000000000000007
:1039C000020403040404FFFFFF33000007007F002C
:1039D00001000200080010001000000000000000BC
:1039E000017A5200027C0E011B0C0D001000000039
:1039F000180000000000000010000000000000009F
:043A000000000000C2
:103A04000000881024001740441300200000000127
:103A14000000081026001740441700200000000191
:103A240000008810440217404423002000000001D5
:103A3400000008104602174044270020000000013F
:103A44000000881020001740440B002000000001F3
:103A54000000081022001740440F0020000000015D
:103A64000000881040021740441B002000000001A1
:103A74000000081042021740441F0020000000010B
:103A8400000008500000000000000000000040009A
:103A9400000008500000000000000000000040008A
:103AA400000008500000000000000000000040007A
:103AB400000008500000000000000000000040006A
:083AC4002D02000005020000C4
:020000040100F9
:10A10000FFFFFFFFFFFFFFFFFFFFFFFFFFFFFFFF5F
:04A11000FFFFFFFF4F
:04A13400FFFFFFFF2B
:10A20000FFFDFFFFFFFFFFFFFFFFFFFFFFFFFFFF60
:10A21000FFFFFFFFFFFFFFFFFFFFFFFFFFFFFFFF4E
:10A22000FFFFFFFFFFFFFFFFFFFFFFFFFFFFFFFF3E
:10A23000FFFFFFFFFFFFFFFFFFFFFFFFFFFFFFFF2E
:10A24000FFFFFFFFFFFFFFFFFFFFFFFFFFFFFFFF1E
:10A25000FFFFFFFFFFFFFFFFFFFFFFFFFFFFFFFF0E
:10A26000FFFFFFFFFFFFFFFFFFFFFFFFFFFFFFFFFE
:10A27000FFFFFFFFFFFFFFFFFFFFFFFFFFFFFFFFEE
:10A28000F8F8FFFFFFFFFFFFFFFFFFFFFFFFFFFFEC
:10A29000FFFFFFFFFFFFFFFFFFFFFFFFFFFFFFFFCE
:10A2A000FFFFFFFFFFFFFFFFFFFFFFFFFFFFFFFFBE
:10A2B000FFFFFFFFFFFFFFFFFFFFFFFFFFFFFFFFAE
:10A2C000FFFFFFFFFFFFFFFFFFFFFFFFFFFFFFFF9E
:04000003000027755D
:00000001FF
