:10000000600FFE1F691A000055190000651A0000F4
:10001000651A0000651A0000651A00000000000063
:10002000000000000000000000000000651A000051
:10003000651A000000000000651A0000651A000043
:1000400099170000BD14000000000000000000002F
:1000500000000000000000000000000000000000A0
:100060000000000000000000000000000000000090
:100070000000000000000000000000000000000080
:100080000000000000000000000000000000000070
:10040000FFFFFFFFFFFDFFFFFCFFFFFFFFFFFFFF01
:10041000FCFFFFFFFFFFFFFFFCFFFF00FFFFFF00F0
:10042000FCFF0F20FFFF0F20FCFF7F40FFFF7F40FE
:10043000FCFF0D40FFFF0D40FFFFFFFFFFFFFFFF31
:10044000FFFFFFFFFFFFFFFFFFFFFFFFFFFFFFFFBC
:10045000FFFFFFFFFFFFFFFFFFFFFFFFFFFFFFFFAC
:10046000FFFFFFFFFFFFFFFFFFFFFFFFFFFFFFFF9C
:10047000FFFFFFFFFFFFFFFFFFFFFFFFFFFFFFFF8C
:10048000FFFFFFFFFFFFFFFFFFFFFFFFFFFFFFFF7C
:10049000FFFFFFFFFFFFFFFFFFFFFFFFFFFFFFFF6C
:1004A000FFFFFFFFFFFFFFFFFFFFFFFFFFFFFFFF5C
:1004B000FFFFFFFFFFFFFFFFFFFFFFFFFFFFFFFF4C
:1004C000FFFFFFFFFFFFFFFFFFFFFFFFFFFFFFFF3C
:1004D000FFFFFFFFFFFFFFFFFFFFFFFFFFFFFFFF2C
:1004E000FFFFFFFFFFFFFFFFFFFFFFFFFFFFFFFF1C
:1004F000FFFFFFFFFFFFFFFFFFFFFFFFFFFFFFFF0C
:1005000010B5054C237833B9044B13B10448AFF34D
:1005100000800123237010BD8800FE1F0000000032
:10052000AC27000008B5034B1BB103490348AFF3E8
:10053000008008BD000000008C00FE1FAC270000FA
:100540002DE9F843D0E90295A9EB0508904504464A
:10055000164609D94068284401F0F0FABFF35F8FCE
:100560003544E560BDE8F8834068284435440F46CB
:100570004246A5EB090501F0E1FA606807EB0801C6
:100580002A4601F0DBFABFF35F8FE560BDE8F88330
:100590002DE9F8430646D0E90204894617464FF094
:1005A000000833699C42A0EB040503F1FF3224BF2D
:1005B00003F1FF321218BD4228BF3D46121B95427F
:1005C000706828BF154649462A46204401F0B6FA0D
:1005D000B0682C44A8447F1BA944A04208BF002453
:1005E000BFF35F8FF460002FDBD14046BDE8F88396
:1005F000154A164B1068164A164930B4164DC3F802
:1006000007004FF480601024DA6118620022032092
:100610009A62C3E91954C3E904005A62DA621A679C
:10062000DA665A6799611966BFF35F8F0B4A92E8E1
:10063000030018609980BFF35F8F20229A71BFF387
:100640005F8F30BC704700BFE01C0000F804FE1F45
:10065000B400FE1FD41C0000A400FE1FE41C000018
:100660002DE9F04FDFF8A89099F9003083B00546E6
:100670008A469046002B47D005EB450709EBC70794
:100680004FEA450B3E6FFB6E9E421FD89C1B4445B4
:1006900028BF44461CB9204603B0BDE8F08F27466A
:1006A0000BEB050309EBC3032246596E5046314458
:1006B00001F044FA26443C46002CECD05D4409EBA2
:1006C000C50520462E6703B0BDE8F08FD7E91914A1
:1006D000A41B444528BF444622463144504601935A
:1006E00001F02CFABA6E019B2644B242A8EB040832
:1006F00014BF9B1B0026434528BF4346002BDBD07D
:10070000A244E7181C46CBE7FFF772FFB4E700BF2F
:10071000F804FE1F10B50B46EFF311844FF02001D3
:1007200081F311881946FFF79BFF84F3118810BDF0
:1007300070B5204D00EB400305EBC3030130DC6ACC
:1007400000EB4000012C05EBC0000E46154605D01D
:10075000022C20D08CB10024204670BD9A6A5C6ABD
:10076000A24221D9013A141BAC4228BF2C46314683
:100770002246FFF7E5FE204670BD9A6A596A8A4212
:100780000DD9013A521A9542E6D831462A46FFF76A
:10079000D7FE2C46E0E7BDE87040FFF7F9BE1B6AC4
:1007A0001344013B5A1AEEE71B6A1344013B1C1B1E
:1007B000DAE700BFF804FE1F30B50D4B93F90030A7
:1007C00083B00C4663B1EFF311854FF0200181F344
:1007D00011882146FFF7ACFF85F3118803B030BDC7
:1007E000CDE90002FFF704FFDDE90002EBE700BFFF
:1007F000F804FE1F10B5064C94F900302BB1E36EDF
:10080000206FC01A18BF012010BDFFF7F1FEF6E7F8
:10081000F804FE1FD0E9012310B50446581C90428D
:1008200007D82268D154E3686268A060591CE1606F
:1008300003469A4200D010BD21682069FFF7BCFF33
:10084000A368984215BF4FF0FF330023E360A36015
:1008500010BD00BF2DE9F84F1546A942DDE90A9207
:100860000F4683461E4661D30B464FF00108B3FB8B
:10087000F5F39D4208F10108F9D9B04538BFB046FB
:1008800012F0010A02D1B9F1000F36D1DBF80C30B9
:10089000002B30DB012402E0013E05FB04F4012EB5
:1008A000FAD8B7FBF4F39D42F7D9224E06E0AC42EA
:1008B000B4FBF5F30CD31C46B7FBF3F3F1565846E3
:1008C00004FB1377FFF7A6FFDBF80C30002BEEDA02
:1008D000BAF1000F0FD0B9F1000F0CD0C8454FF09E
:1008E0002001584609F1FF3905D2FFF793FFDBF8E5
:1008F0000C30002BEFDABDE8F88F930711D42024D9
:100900000AE0FFF787FFDBF80C30002B09F1FF3915
:10091000F1DBB9F1000FBDD0C84521465846F0D3F0
:10092000B4E7002E0CBF30242024F5E74FF0010877
:10093000A3E700BFEC1C00002DE9F04F9BB0804600
:100940000DF1280A40200023CDE905A0CDE90733A9
:10095000DFF8DC92CDF824800D46164605E005A8A8
:10096000FFF758FF0898002868DB15F9011B0029DC
:1009700067D02529F3D129464FF0000B0D4611F918
:10098000010BA0F123030D2B08D8DFE803F0490782
:1009900007070707070746074C070743A0F130037F
:1009A000DBB2092B4FF000040CD804EB840400EBFD
:1009B000440415F9010FA0F13003DBB2092BA4F1B7
:1009C0003004F2D92E2800F0DD8095F900100023C4
:1009D00001E015F9011F21F004006828F9D025294C
:1009E00024D05839C8B2202823D8202921D8DFE8BC
:1009F00001F0B720202020202020202020AD5E20E4
:100A00002020202020202020202050202040203383
:100A10002020B7004BF0020BB0E74BF0040BADE722
:100A20004BF0080BAAE74BF0010BA7E705A8FFF76F
:100A3000F1FE0898002805F1010596DA1BB0BDE823
:100A4000F08F08980028F9DD079A002A40F0B4805A
:100A500010441BB0BDE8F08F30680168CDF804B0D9
:100A6000043030600A2205A80094FFF7F3FE0898CE
:100A7000E0E733681A1D32601C6804E0FFF7CAFE25
:100A800008980028D6DB14F9011B05A80029F5D128
:100A9000CFE7326800201168082304323260CDE9C4
:100AA0000030102205A8FFF7D5FE0898C2E730688D
:100AB00002680392002AB8BF52420430092A114644
:100AC00030604FF0010708DD08466328A9FB0121CB
:100AD00007F101074FEAD101F6DC9F4238BF1F46FC
:100AE000002C4AD0039A002A6EDB1BF0040F6BD156
:100AF0001BF0020F01D0002B3FD01BF0010F3CD1A7
:100B0000002C3AD0A7424FF0200105A835D202931D
:100B1000FFF780FE089A002A04F1FF34104689DBB3
:100B2000029B002CEED1039900294FDB1BF0040F30
:100B30005BD10BF0030102295ED005A8CDE9004B83
:100B400003990A22FFF786FE089873E733681A1D97
:100B500005A893F900103260FFF75CFE089869E77A
:100B600030680168CDF804B004303060102205A868
:100B70000094FFF76FFE08985CE7089A002A104679
:100B8000D1DA57E795F90110A1F13003DBB2092B57
:100B900005F101054FF000033FF61DAF03EB8303A2
:100BA00001EB430315F9011FA1F13000C0B2092880
:100BB000A3F13003F2D90EE751464046FFF7FCFDA2
:100BC000DDE90720104444E7013C91E70293039BD1
:100BD0002D215B4205A80393FFF71CFE029B089A98
:100BE000002A1046FFF626AFA3E72B2105A80293A3
:100BF000FFF710FE029BF2E7002B9ED1ACB1A7429B
:100C00004FF0300105A80BD20293FFF703FE089ABC
:100C1000002A04F1FF341046FFF60CAF029BEDE70B
:100C2000002A1046FFF606AF87E7002485E700BFDD
:100C3000CDCCCCCC0EB400B582B003AB01AA53F836
:100C4000041B0193FFF778FE02B05DF804EB03B0DC
:100C5000704700BF10B50849084800F079FB04460A
:100C600008B9204610BD064B064A07490020FFF789
:100C7000E1FF204610BD00BF58240000C805FE1F3C
:100C8000FC1C0000FC1D00002C1D000010B50748D6
:100C900000F0B4FB044608B9204610BD044B054AD9
:100CA00005490020FFF7C6FF204610BDC805FE1FFE
:100CB000481D00000C1E00002C1D000010B5064849
:100CC00000F0CAFB00B910BDBDE81040034B044A58
:100CD00004490020FFF7AEBFC805FE1F781D0000C5
:100CE000201E00002C1D000010B5084800F01CFC60
:100CF00020B9BDE810400649FFF79CBFBDE8104091
:100D0000044B054A05490020FFF794BFB405FE1FB8
:100D1000CC1D0000A81D0000341E00002C1D00008A
:100D20002DE9F04389B0002403A8039400F00AFEE3
:100D30007D497E4D2046FFF77DFF7D492046FFF728
:100D400079FF7C4A7C492046FFF774FF9DF80D30FF
:100D50009DF80F207949009320469DF80E30FFF74B
:100D600069FF71492046FFF765FF75492046FFF787
:100D700061FF74492046FFF75DFF73492046FFF786
:100D800059FF72492046FFF755FF71492046FFF78A
:100D900051FF20466F49FFF74DFF2C88002C00F0D3
:100DA0008C806D4BB3F8C010C1F34002890700F18D
:100DB000AB8000F00DF90446002840F09880FFF762
:100DC00049FF0446002840F083806449644DDFF801
:100DD000E481644F00200E46FFF72CFF624900209B
:100DE000FFF728FFFFF706FD58B92B78032BF9D141
:100DF0005E4900202870FFF71DFFFFF7FBFC00286D
:100E0000F3D0002410220DEB02012046CDE904446A
:100E1000CDE90644FFF77EFC04A800F08BFEC0B2CB
:100E2000012810D041462046FFF704FF39462046EE
:100E3000FFF700FF31462046FFF7FCFE4A492046F7
:100E4000FFF7F8FED1E74A4B4A491A694A4864F36A
:100E500041021A6100F042F9814678B900F0D4F8F5
:100E60008146E0B9FFF712FF8146F8B94349FFF721
:100E7000E1FE43494846FFF7DDFEB6E7414B424AF3
:100E800042492046FFF7D6FE00F0D6F8FFF716FFDE
:100E90003F494A460020FFF7CDFE00BEA5E73D4B87
:100EA000394A3A492046FFF7C5FEEDE73A4B364A44
:100EB00036492046FFF7BEFEE6E738492046FFF7F1
:100EC000B9FE334920460622FFF7B4FE00BE68E7AC
:100ED000334B344A2D490020FFF7ACFE00F0ACF84C
:100EE0002B4922460020FFF7A5FE00BE6DE72E4BE2
:100EF0002C4A26490020FFF79DFE25492246002066
:100F0000FFF798FE00BE5AE7B3F8C0106C68274898
:100F10006FF34101A3F8C010218800F02DF9244996
:100F20000020FFF787FE44E7481E0000402600002F
:100F3000901E0000D81E0000DC1E0000201F0000D4
:100F4000681F0000E81F000038200000702000002B
:100F5000C42000000821000000E00140042200003D
:100F6000B404FE1F182300002022000044230000C8
:100F700000B00140BC240000A805FE1FA022000014
:100F8000C8220000302200006C2300002C1D00004D
:100F90004C21000054220000782200003021000083
:100FA000DC21000060230000B8210000A005FE1F26
:100FB0006C21000008230000022800D0704702497D
:100FC000024800F0ADB900BFD0240000A005FE1F0C
:100FD00010B50849084800F037FB044608B9204618
:100FE00010BD064B064A07490020FFF723FE2046A6
:100FF00010BD00BF6C240000B405FE1F802300005C
:10100000182400002C1D000010B5074800F09CFAC1
:10101000044608B9204610BD044B054A0549002086
:10102000FFF708FE204610BDB405FE1FA8230000F0
:10103000282400002C1D000010B5064800F0DAFA44
:1010400000B910BDBDE81040034B044A044900201C
:10105000FFF7F0BDB405FE1FCC23000034240000D0
:101060002C1D000070B5124800F072F870B1114BE1
:1010700011485B680122198800F07EF8BDE87040D5
:101080000E4B0F4A0F490020FFF7D4BD0E4D0F4CF9
:1010900008492A78236849680748098882F00102CC
:1010A00001332A702360BDE8704000F065B800BFCE
:1010B000A805FE1F40260000A005FE1FF02300002B
:1010C000482400002C1D00000000FE1FB404FE1F79
:1010D00008B5FFF725FE002008BD00BF59B1024644
:1010E00048B1184B006898422AD00878022804D0EA
:1010F000031F022B01D9012070470B79012BFAD174
:1011000070B4114C114E8023A3714B788D78365CEE
:10111000C8781B012D0305F44055DBB200022B43B8
:1011200000F44070034306F00306334363804B79B9
:101130000449DB01DBB22372002070BC11607047F0
:101140000E207047544457000042044030260000EF
:1011500058B10268064B9A4205D1064B0020FF2287
:1011600018701A707047072070470120704700BF41
:101170005444570000420440C8B100680D4B9842E7
:101180000FD1012A11D8C8B2012383405AB19BB2B2
:10119000090A490101F1804101F5802100208B609D
:1011A0007047072070471B04F2E7032070470120B7
:1011B000704700BF54524F50F8B500284DD00B680F
:1011C0000024043303EBC001254640F2024040F204
:1011D000034640F204470FE0B24230D153F8042CEA
:1011E00002F0B852B2F1807F14BF44F0020445F01F
:1011F000020508338B4211D01A888242ECD153F891
:10120000042C02F0B852B2F1807F03F1080314BF3E
:1012100044F0010445F001058B42EDD1E443E4B212
:10122000012000F0F7FB0E4B93F8BB042843044069
:1012300083F8BB440120BDE8F84000F0BBBBBA42D4
:10124000D7D153F8042C02F0B852B2F1807F0CBF12
:1012500045F0040544F00404CBE70546FF24DFE72E
:1012600000E001400146F8B5044631F8040BFFF7F1
:10127000A3FFEFF31082012383F31088DFF89CC0F3
:10128000DCF800301BB923494020CB70C870DCF873
:1012900000300133CCF8003082F31088278817B370
:1012A00062681D4D013FBFB202F1080101EBC707A3
:1012B00000E0083110689288130AD4B2C20304EB2C
:1012C000031609D555F826E020F480326FF3104E4E
:1012D00045F826E045F826201B0123448F4245F8B7
:1012E00023000A46E5D1EFF31082012383F310882F
:1012F000DCF8003023B1DCF80030013BCCF80030E2
:10130000DCF800301BB903498020CB70C87082F331
:101310001088F8BD000D044000080440D805FE1FE9
:1013200068B161B108B54B686BB1084B02689A426D
:1013300007D003600846FFF795FF002008BD012095
:1013400070470E2008BD012008BD00BF54524F5009
:10135000002843D0264B02689A4244D000293DD051
:10136000F0B50C7843F6FF73E340DB0738D58A68A5
:1013700012B14B78FF2B38D091F902500571AB00B8
:1013800003F18043D1F80CE01A4E03F5C043002767
:10139000D3F800C3C3F80073C0E9022E4471375577
:1013A00091F804E0CA784F7942EA0E1242EAC71275
:1013B000D2B2002D3255C3F800C30BDB4B780E4977
:1013C00005F160421B0102F56142DBB282F8003395
:1013D00041F82500064B03600020F0BD0120704756
:1013E00040F27A50F0BD0E2070470320F0BD00BFE0
:1013F0005543490000600040DC05FE1F30B3144B2C
:1014000002689A421ED190F90420002A1CDB30B4F5
:10141000104802F1C004530950F824509B006FF3A8
:10142000104503F1604340F8245003F5614302F096
:101430001F02012101FA02F20020C3F8802130BC12
:101440001A607047072070470B20704701207047D3
:10145000554349000060004040B3154B02689A4272
:1014600022D190F90430002B1ADB5A0910B4203233
:10147000104C012103F01F0301FA03F344F822305A
:10148000BFF34F8FBFF36F8F0B4B90F904205DF8C4
:10149000044B002143F822100023036018467047D4
:1014A00000230360184670470720704701207047EB
:1014B0005543490000E100E0DC05FE1F10B582B095
:1014C000EFF30384103C164B164964B253F8242002
:1014D00050790B5C03F00303032B0FD0C03451F899
:1014E00024306FF3104341F82430936823B1D2685D
:1014F000CDE900206846984702B010BD936823B13B
:10150000D268CDE9002068469847064BC03453F8AE
:1015100024206FF3104243F8242002B010BD00BF16
:10152000DC05FE1F0060004050B1064B02689A4285
:1015300004D1D0E9023200209A607047072070473A
:10154000012070475450470050B1064B02689A4240
:1015500004D1D0E9023200205A607047072070475A
:101560000120704754504700002824DB30B400F1BC
:101570006043114D114C03F561430901C9B283F871
:10158000001345F8202000F1C001430954F8215010
:101590009B006FF3104503F1604344F8215003F5BD
:1015A000614300F01F00012202FA00F0C3F880013D
:1015B00030BC186070477047DC05FE1F00600040BB
:1015C000430910B40949203300F01F040122A2404E
:1015D00041F82320BFF34F8FBFF36F8F044B5DF8AB
:1015E000044B002243F82020704700BF00E100E0D8
:1015F000DC05FE1F20B3134B02689A421ED110B5C2
:10160000D0E902244368002101609460516393F99A
:101610001200DC69884201DBFFF7D2FF94F9280051
:10162000002801DBFFF7CCFF94F92900002803DB39
:10163000FFF7C6FF002010BD002010BD0720704737
:101640000120704754504700002900F09580F8B5FC
:10165000CE690B46002E00F08A800546002800F077
:1016600086800A7AD10700F182801878022800F279
:101670008580474A2968914200F085801A7C0121C3
:101680009140C1F30C04E960002C72D05969002923
:1016900076D093F91210002977DB02F5800202F56B
:1016A000F06212020020C5E901322874EFF31084C1
:1016B000012282F3108837491F7C8A68082F34BFC3
:1016C0006FF020076FF040073A408A6084F310887B
:1016D000A9685C684FF42542D6E907C70A60C8626A
:1016E000C86388641A7A52081206CA62013C4FF035
:1016F00000420A614A618A6148628862C1F81CC07E
:101700000F628C664C661C7CFF22E240D2074FF0D1
:10171000000448BF48648C63C1F8884096F82520CF
:1017200096F82470E868520742EA47324FF4AA0755
:101730000F64C860032701204A630F630863597C64
:1017400093F912002A46FFF70FFF96F8261096F934
:1017500028002A46FFF708FF96F9290096F8271077
:101760002A46FFF701FF0A4B2B602046F8BD0120F7
:10177000F8BD40F27A50F8BD012070470520F8BD51
:1017800001288AD185E70E20F8BD0B20F8BD00BFE7
:101790005450470000700440F0B585B0EFF3038368
:1017A000103B5BB21849194C03F1C00051F82020DE
:1017B0006FF3104241F8202054F823506A681478DF
:1017C000012C15D1D5E90265B5600025B564F56435
:1017D000356551F820600E4F65F310465D096035A0
:1017E00003F01F0304FA03F341F8206047F82530A3
:1017F000536933B19269019200228DF8082001A843
:10180000984705B0F0BD00BF00600040DC05FE1F3A
:1018100000E100E0064B074993F826001A6A51F8E8
:1018200020300549C2F30262D3400B60704700BF0D
:1018300000E001407000FE1FF404FE1F3848394BE1
:1018400039493A4A70B43A4C44604AF2035500248C
:10185000A3F8FE53A1F800410260364A93F82650DF
:101860004FF40041C0E90212C0E90412196A50F8AD
:101870002520314DC1F30261CA402A60202109228E
:1018800083F8131483F8A22093F880241AB183F804
:10189000814483F88044234B284A42610021062476
:1018A0004FF41C5283F8A54083F8321019461A856C
:1018B00091F83C301A07FBD500231A4A81F82A30E8
:1018C00092F83C309B06FBD5174B1D49022483F848
:1018D0001C41052482F82640116292F82610146AF1
:1018E00050F82110C4F30260C140402601204FF49B
:1018F0002544296082F82460194682F8300082F875
:101900005200A2F8FE43A3F80401B1F804319BB2DF
:10191000002BFAD1012370BCA1F80031704700BF41
:101920007000FE1F00E0014000C00140002D3101A9
:1019300000127A00001BB700F404FE1F001C4E0EBC
:101940002112012120B14FF0817303600020704704
:10195000012070470B4B70B5B3F840510A4E00247C
:10196000ADB225FA04F3DB07E0B203D556F8243014
:1019700003B1984701340D2CF3D1024BA3F8305139
:1019800070BD00BF00600040B804FE1F10B4074ADD
:10199000074C002303F1C001013332F8020F44F871
:1019A0002100602BF6D15DF8044B70476E250000D6
:1019B00000600040EFF31081012383F31088124B85
:1019C00033F8102092B22AB133F81020013A92B2C3
:1019D00023F8102033F810309BB293B90B4A10B49F
:1019E000B2F8FE330A4C9BB234F8100043F425439E
:1019F00023EA0003A2F8FE3381F310885DF8044B5C
:101A0000704781F310887047EC04FE1F00E001402E
:101A10003826000030B4EFF31081012383F31088DF
:101A20000D4A32F810309BB263B90C4C0C4DB4F82F
:101A3000FE3335F810509BB22B4343F425439BB241
:101A4000A4F8FE3332F8103001339BB222F8103084
:101A500081F3108830BC7047EC04FE1F00E00140A9
:101A60003826000000BE704708B500F003F8FFF705
:101A70002FFBFEE7224AD2F8883043F4700370B59A
:101A80000020C2F88830FFF797FAFFF7D7FE012051
:101A9000FFF792FA1B481C4A1C4D0021121A00F055
:101AA0005BF81B481B4A1C49121A00F047F81B4BF5
:101AB0001B491C4A00244FF425409C8018809A60E2
:101AC0004FF480500122DD60A1F820019A80FFF7D9
:101AD000A1FE0220FFF770FA134D144B5B1BA342CB
:101AE00006DD9E1055F8043B01349847A642F9DC08
:101AF000FFF74CFFBDE87040002000F019B800BFB0
:101B000000ED00E08800FE1F5C07FE1F600FFE1F57
:101B10000000FE1F7000FE1FB0270000000D0040F7
:101B200000600040600BFE1F6800FE1F6C00FE1F7F
:101B3000704700BF0A22002100F090B80A44914289
:101B400000F1FF3300D1704710B511F8014B03F8D5
:101B5000014F9142F9D110BD02440346934200D196
:101B6000704703F8011BF9E72DE9F0473A4E864626
:101B70008C4660461CF8014BA55D15F00805F8D1B0
:101B80002D2C33D19CF800404FF0010800F1020CDD
:101B9000002B5CD0102B0CD1302C0AD19CF800000B
:101BA00000F0DF0058284DD19CF8014010230CF1C3
:101BB000020C08F10047013F0026B7FBF3F930465D
:101BC00003FB197AA4F13005092D18D82C46A3423D
:101BD00024DD751C07D081451DD301D1A2451ADB38
:101BE00000FB034001261CF8014BEBE72B2C08BF40
:101BF0009CF80040A84608BF00F1020CC8E7A4F119
:101C00004105192D01D8373CE1E7A4F16105192DF3
:101C100004D8573CDBE74FF0FF36E4E7731C06D1EE
:101C20002223CEF80030384642B9BDE8F087B8F13B
:101C3000000F00D04042002AF7D00EB10CF1FF3166
:101C40001160F2E73024002BB3D10823B1E7302C28
:101C5000A4D00A23ADE700BF4B26000013460A4676
:101C6000014602480068FFF77FBF00BF0400FE1F67
:101C70004275696C7420776974682052656E65736B
:101C800061732041726D20466C657869626C6520D5
:101C9000536F667477617265205061636B6167652D
:101CA0002076657273696F6E20312E322E300000FF
:101CB000312E322E3000000000000201F8B500BFC6
:101CC000F8BC08BC9E467047F8B500BFF8BC08BC1D
:101CD0009E4670475465726D696E616C000000002D
:101CE0005254540053454747455200FF3031323378
:101CF0003435363738394142434445460D0A202AA7
:101D00002A20525F4943555F45787465726E616C55
:101D10004972714F70656E20415049204661696C6F
:101D20006564202A2A200D0A000000005B455252FB
:101D30005D20496E2046756E6374696F6E3A20258A
:101D40007328292C202573000D0A202A2A20525F8F
:101D50004943555F45787465726E616C497271458F
:101D60006E61626C6520415049204661696C656412
:101D7000202A2A200D0A00FF0D0A202A2A20525F5D
:101D80004943555F45787465726E616C4972714361
:101D90006C6F736520415049206661696C656420F1
:101DA0002A2A200D0A00FFFF0D0A202A2A20525F4E
:101DB0004750545F53746F702041504920666169E9
:101DC0006C6564202A2A200D0A0000000D0A507557
:101DD000736820627574746F6E2069732070726509
:101DE000737365640D0A4750542074696D657220E1
:101DF00073746F707065642E0D0A00FF696E6974EC
:101E00005F6963755F6D6F64756C6500656E6162B7
:101E10006C655F6963755F6D6F64756C6500FFFF6E
:101E20006465696E69745F6963755F6D6F64756C15
:101E30006500FFFF6578745F6972715F63616C6C48
:101E40006261636B00FFFFFF0D0A2A2A2A2A2A2AF1
:101E50002A2A2A2A2A2A2A2A2A2A2A2A2A2A2A2AE2
:101E60002A2A2A2A2A2A2A2A2A2A2A2A2A2A2A2AD2
:101E70002A2A2A2A2A2A2A2A2A2A2A2A2A2A2A2AC2
:101E80002A2A2A2A2A2A2A2A2A2A2A2A000000005A
:101E90000D0A2A20202052656E6573617320465317
:101EA00050204578616D706C652050726F6A656373
:101EB0007420666F7220725F776474204D6F647552
:101EC0006C65202020202020202020202020202081
:101ED0002020202A00000000312E30000D0A2A2088
:101EE00020204578616D706C652050726F6A656363
:101EF000742056657273696F6E2025732020202030
:101F000020202020202020202020202020202020D1
:101F100020202020202020202020202020202A00D7
:101F20000D0A2A202020466C657820536F6674774E
:101F3000617265205061636B2056657273696F6EC4
:101F4000202025642E25642E25642020202020209A
:101F50002020202020202020202020202020202081
:101F60002020202020202A000D0A5265666572205C
:101F7000746F20726561646D652E74787420666973
:101F80006C6520666F72206D6F7265206465746188
:101F9000696C73206F6E204578616D706C652050A0
:101FA000726F6A65637420616E640D0A4653502037
:101FB000557365722773204D616E75616C20666F75
:101FC00072206D6F726520696E666F726D617469E3
:101FD0006F6E2061626F757420725F776474206425
:101FE00072697665720D0A000D0A5468697320657E
:101FF00078616D706C652070726F6A6563742064BF
:10200000656D6F6E7374726174657320746865209A
:102010007479706963616C20757365206F662074D4
:102020006865205744542048414C206D6F64756C9E
:1020300065204150497300000D0A5573657220698F
:102040006E70757420696E697469616C697A657304
:10205000207468652057445420616E642073746155
:102060007274204750542074696D6572000000003E
:102070000D0A57445420636F756E7465722069733E
:102080002072656672657368656420706572696F39
:10209000646963616C6C79206576657279203120A2
:1020A0007365636F6E64207768656E207468652061
:1020B0004750542074696D65722065787069726547
:1020C000730000000D0A4F6E207072657373696EA5
:1020D0006720746865205075736820627574746F2A
:1020E0006E2C2057445420636F756E746572207394
:1020F000746F70732066726F6D207265667265739F
:1021000068696E67000000000D0A5744542072652C
:10211000736574732020746865204D435520696E83
:102120002032207365636F6E64730D0A0000000037
:102130000D0A4E6F206F6E2D626F617264204C45E8
:10214000447320466F756E64000000000D0A5265EE
:102150007475726E6564204572726F7220436F648D
:10216000653A203078257820200D0A000D0A2A2AA9
:102170002A2A2A2A2A2A2A2A2A2A2A2A2A2A2A2ABF
:102180002A2A2A2A2A2A2057445420526573657421
:10219000206465746563746564202A2A2A2A2A2AC1
:1021A0002A2A2A2A2A2A2A2A2A2A2A2A2A2A2A2A8F
:1021B0002A2A0D0A000000000D0A202A2A20475072
:1021C000542054494D455220494E495420464149D6
:1021D0004C4544202A2A200D0A0000000D0A202A1E
:1021E0002A2045585445524E414C204952512049CD
:1021F0004E4954204641494C4544202A2A200D0A84
:10220000000000000D0A456E746572203120746F65
:1022100020456E61626C65205744540D0A00000031
:102220005573657220496E7075743A202000000065
:102230000D0A202A2A20525F5744545F4F70656E62
:1022400020415049204661696C6564202A2A200D8E
:102250000A0000000D0A202A2A2047505420544921
:102260004D4552205354415254204641494C454417
:10227000202A2A200D0A00000D0A202A2A2045586B
:102280005445524E414C2049525120454E41424CFA
:1022900045204641494C4544202A2A200D0A000089
:1022A0000D0A57445420696E697469616C697A65D6
:1022B000642C204750542054696D6572205374611A
:1022C00072746564000000000D0A546F2073746F0F
:1022D000702057445420636F756E74657220667267
:1022E0006F6D2072656672657368696E672C207009
:1022F00072657373207468652070757368206275E9
:1023000074746F6E0D0A00000D0A496E76616C6977
:102310006420496E707574000D0A506C65617365B8
:102320002070726F7669646520696E7075742066BE
:10233000726F6D2062656C6F77206F7074696F6E5D
:10234000000000000D0A57445420636F756E7465D9
:1023500072205265667265736865642E00FFFFFF28
:1023600068616C5F656E74727900FFFF726561640D
:102370005F496E7075745F66726F6D5F5254540082
:102380000D0A202A2A20525F4750545F54696D6518
:10239000724F70656E20415049206661696C6564BA
:1023A000202A2A200D0A00FF0D0A202A2A20525F27
:1023B0004750545F537461727420415049206661E4
:1023C000696C6564202A2A200D0A00FF0D0A202A64
:1023D0002A20525F4750545F436C6F736520415011
:1023E00049206661696C6564202A2A200D0A00FF75
:1023F0000D0A202A2A20525F5744545F52656672A4
:1024000065736820415049206661696C6564202AC3
:102410002A200D0A00FFFFFF696E69745F67707400
:102420005F6D6F64756C650074696D65725F737460
:10243000617274006465696E69745F6770745F6D62
:102440006F64756C6500FFFF6770745F63616C6C2F
:102450006261636B00FFFFFF080C010003010000D5
:10246000E90C000000000000000000000000000077
:10247000000E27070000000000879303000C0000F7
:1024800065100000000000008C2400000000000027
:10249000000000000000000000000000000000003C
:1024A000000000000000000000000000000000002C
:1024B0000000FFFFDFDF000000000000060803034C
:1024C000010100000000000000000000000000000A
:1024D00013000000D8240000008000000400000069
:1024E00000000106000100000000010601010000DB
:1024F00000000106020100000000010603010000C7
:1025000000000104040100000000010405010000B6
:1025100004000000060100000400000007010000A4
:102520000000010008010000000001000901000096
:10253000000001000A010000040000000C0100007E
:1025400000000000010200000000010C0502000074
:102550000000010C07020000000001000003000061
:102560000000011307040000004000000F040000F9
:10257000B60009000000000000000000000000009C
:10258000000000000000000000000000000000004B
:10259000000000000000000000000000000000003B
:1025A000000000000000000000000000000000002B
:1025B000000000000000000000000000000000001B
:1025C000000000000000000000000000000000000B
:1025D00000000000000000000000000000000000FB
:1025E00000000000000000000000000000000000EB
:1025F00000000000000000000000000000000000DB
:1026000000000000000000000000000000000000CA
:1026100000000000000000000000000000000000BA
:1026200000000000000000000000000000000000AA
:10263000FFFF00FF010203FF010002000800FFFF8F
:1026400001000000482600000C010020202020206E
:102650002020202028282828282020202020202052
:102660002020202020202020202020881010101042
:102670001010101010101010101010040404040496
:1026800004040404041010101010101041414141C2
:1026900041410101010101010101010101010101AA
:1026A00001010101010110101010101042424242BC
:1026B000424202020202020202020202020202027A
:1026C000020202020202101010102000000000009E
:1026D00000000000000000000000000000000000FA
:1026E00000000000000000000000000000000000EA
:1026F00000000000000000000000000000000000DA
:1027000000000000000000000000000000000000C9
:1027100000000000000000000000000000000000B9
:1027200000000000000000000000000000000000A9
:102730000000000000000000000000000000000099
:102740000000000000000000000000FF000000008A
:102750000000000000000000000000000000000079
:102760000000000000000000000000000000000069
:102770000000000000000000000000000000000059
:102780000000000000000000000000000000000049
:102790000000000000000000000000000000000039
:1027A0000000000000000000000000000000000029
:1027B000010000000800FE1F000000006C27000060
:1027C0008C2700004C2700000000000000000000E3
:1027D00000000000000000000000000000000000F9
:1027E00000000000000000000000000000000000E9
:1027F00000000000000000000000000000000000D9
:1028000000000000000000000000000000000000C8
:102810000000000000000000250500000105000088
:020000040100F9
:10A15000FFFFFFFFFFFFFFFFFFFFFFFFFFFFFFFF0F
:0400000300001A6976
:00000001FF
