:10000000F00E002061290000C92100006D290000C8
:100010006D2900006D2900006D2900006D29000088
:100020000000000000000000000000006D2900003A
:100030006D290000000000006D2900006D290000FE
:100040005B1600005B1600000000000000000000CE
:1000500000000000000000000000000000000000A0
:100060000000000000000000000000000000000090
:100070000000000000000000000000000000000080
:100080000000000000000000000000000000000070
:100090000000000000000000000000000000000060
:1000A0000000000000000000000000000000000050
:1000B0000000000000000000000000000000000040
:1000C0000000000000000000000000000000000030
:1000D0000000000000000000000000000000000020
:1000E0000000000000000000000000000000000010
:1000F0000000000000000000000000000000000000
:1001000000000000000000000000000000000000EF
:1001100000000000000000000000000000000000DF
:1001200000000000000000000000000000000000CF
:1001300000000000000000000000000000000000BF
:1001400000000000000000000000000000000000AF
:10015000000000000000000000000000000000009F
:10016000000000000000000000000000000000008F
:10017000000000000000000000000000000000007F
:10018000000000000000000000000000000000006F
:10019000000000000000000000000000000000005F
:1001A000000000000000000000000000000000004F
:1001B000000000000000000000000000000000003F
:100500000D0A414754302074696D6572206F706523
:100510006E206661696C65642E0D0A5265737461A4
:10052000727420746865204170706C6963617469CD
:100530006F6E0D0A000000000D0A4F6E6520736893
:100540006F742074696D657220636C6F73652066CB
:1005500061696C65642E0D0A526573746172742052
:10056000746865204170706C69636174696F6E0DA9
:100570000A0000000D0A414754312074696D65720C
:10058000206F70656E206661696C65642E0D0A527D
:1005900065737461727420746865204170706C6951
:1005A000636174696F6E0D0A000000000D0A414717
:1005B00054312043616E6E6F7420626520737461E4
:1005C0007274656420696E20506572696F64696336
:1005D000206D6F64650000000D0A4572726F723AFB
:1005E000204E6F204C6564277320466F756E642023
:1005F0006F6E2074686520626F6172640000000095
:100600000D0A4C45445F50494E2073746174652057
:1006100063616E6E6F7420626520746F67676C65CE
:10062000640000002A2A20525F4147545F436C6FE8
:1006300073652041504920666F72206368616E6E59
:10064000656C2030206661696C6564202A2A202050
:100650000D0A00002A2A20525F4147545F436C6F05
:1006600073652041504920666F72206368616E6E29
:10067000656C2031206661696C6564202A2A20201F
:100680000D0A00000F040404000400000300000031
:10069000840600004000000100000000000000008F
:1006A0000080000000000000004000000103010085
:1006B00075110000000000009406000040000001D9
:1006C00000000000010000000080000000000000A9
:1006D00000400000000300001D11000000000000A9
:1006E000BC0600000D0A2A2A2A2A2A2A2A2A2A2A8D
:1006F0002A2A2A2A2A2A2A2A2A2A2A2A2A2A2A2A5A
:100700002A2A2A2A2A2A2A2A2A2A2A2A2A2A2A2A49
:100710002A2A2A2A2A2A2A2A2A2A2A2A2A2A2A2A39
:100720002A2A2A2A2A2A2A2A0D0A2A202020526521
:100730006E6573617320465350204578616D706C0F
:10074000652050726F6A65637420666F7220725FF5
:10075000616774204D6F64756C6520202020202017
:1007600020202020202020202020202A0D0A2A209E
:1007700020204578616D706C652050726F6A6563EA
:10078000742056657273696F6E20257320202020B7
:100790002020202020202020202020202020202059
:1007A00020202020202020202020202020202A0D52
:1007B0000A2A202020466C657820536F6674776182
:1007C0007265205061636B2056657273696F6E208D
:1007D0002025642E25642E25642020202020202022
:1007E0002020202020202020202020202020202009
:1007F00020202020202A0D0A2A2A2A2A2A2A2A2AC8
:100800002A2A2A2A2A2A2A2A2A2A2A2A2A2A2A2A48
:100810002A2A2A2A2A2A2A2A2A2A2A2A2A2A2A2A38
:100820002A2A2A2A2A2A2A2A2A2A2A2A2A2A2A2A28
:100830002A2A2A2A2A2A2A2A2A2A0D0A526566657B
:100840007220746F20726561646D652E74787420F7
:1008500066696C6520666F72206D6F7265206465D5
:100860007461696C73206F6E204578616D706C6582
:100870002050726F6A65637420616E640D0A46537E
:100880005020557365722773204D616E75616C2021
:10089000666F72206D6F726520696E666F726D6132
:1008A00074696F6E2061626F757420725F61677426
:1008B000206472697665720D0A0000000D0A5468A2
:1008C0006973204578616D706C652050726F6A6540
:1008D00063742064656D6F6E7374726174657320E8
:1008E0007468652066756E6374696F6E616C697497
:1008F00079206F662041475420696E2070657269C7
:100900006F646963206D6F646520616E64206F6E33
:10091000652D73686F74206D6F64652E200D0A4F0E
:100920006E2070726F766964696E6720616E7920DF
:10093000696E707574206F6E20746865205254540F
:100940007669657765722C20414754206368616E33
:100950006E656C20302073746172747320696E2030
:100960006F6E652D73686F74206D6F64652E204106
:100970004754206368616E6E656C2031200D0A73E8
:10098000746172747320696E20706572696F646936
:1009900063206D6F6465207768656E204147542041
:1009A0006368616E6E656C20302065787069726571
:1009B000732E2054696D657220696E2070657269AE
:1009C0006F646963206D6F64652065787069726516
:1009D0007320706572696F646963616C6C790D0A6C
:1009E000617420612074696D6520706572696F643F
:1009F0002073706563696669656420627920757328
:100A0000657220616E6420746F67676C6573207413
:100A10006865206F6E2D626F617264204C45442EB4
:100A20000D0A00000D0A506C6561736520656E74D7
:100A300065722074696D6520706572696F642076D7
:100A4000616C75657320666F72206F6E652D7368BB
:100A50006F7420616E6420706572696F64696320D1
:100A60006D6F64652074696D65727320696E206DA9
:100A7000696C6C697365636F6E64730A2056616C90
:100A800069642072616E67653A203120746F20328C
:100A90003030300D0A0000000D0A54696D65207079
:100AA0006572696F6420666F72206F6E652D736862
:100AB0006F74206D6F64652074696D65723A2025CE
:100AC000640D0A000D0A496E76616C696420696ED6
:100AD0007075742E20506C6561736520656E746549
:100AE000722076616C696420696E7075740D0A00FD
:100AF0000D0A54696D6520706572696F6420666FB8
:100B00007220706572696F646963206D6F6465201F
:100B100074696D65723A2025640D0A000D0A496EEC
:100B2000666F47657420415049206661696C656451
:100B30002E436C6F73696E6720616C6C2064726900
:100B4000766572732E2052657374617274207468B6
:100B500065204170706C69636174696F6E0D0A0085
:100B60000D0A506572696F645365742041504920C5
:100B70006661696C65642E436C6F73696E67206192
:100B80006C6C20647269766572732E205265737482
:100B900061727420746865204170706C696361745F
:100BA000696F6E0D0A0000000D0A506572696F646E
:100BB00053657420415049206661696C65642E203C
:100BC000436C6F73696E6720616C6C206472697628
:100BD0006572732E52657374617274207468652037
:100BE0004170706C69636174696F6E0D0A0000007A
:100BF0000D0A456E74657220616E79206B657920EF
:100C0000746F207374617274206F722073746F70CC
:100C1000207468652074696D657273000D0A414720
:100C2000543020697320456E61626C656420696E82
:100C3000204F6E6553686F74206D6F64650000000F
:100C40000D0A0D0A4F6E652D73686F74206D6F6409
:100C500065204147542074696D657220656C617030
:100C6000736564000D0A0D0A4147543120697320F1
:100C7000456E61626C656420696E20506572696FB3
:100C8000646963206D6F6465000000000D0A4C45C7
:100C9000442077696C6C20746F67676C6520666FA1
:100CA00072207365742074696D6520706572696F58
:100CB000640000000D0A456E74657220616E792033
:100CC0006B657920746F2073746F702074696D6523
:100CD00072730D0A000000000D0A0D0A4F6E652D9B
:100CE00073686F74206D6F64652041475420746988
:100CF0006D657220656C61707365640A00000000A8
:100D00000D0A0D0A4147543120697320616C7265E8
:100D10006164792072756E6E696E6720696E20500D
:100D20006572696F646963206D6F6465000000001F
:100D30000D0A456E74657220616E79206B657920AD
:100D4000746F2073746F70207468652074696D65AA
:100D5000720D0A000D0A4F6E652D73686F74207452
:100D6000696D65722073746F707065642E20456EB6
:100D700074657220616E79206B657920746F2073C1
:100D8000746172742074696D6572732E0D0A0000AF
:100D90000D0A506572696F6469632074696D6572CC
:100DA0002073746F707065642E20456E74657220B8
:100DB000616E79206B657920746F20737461727431
:100DC0002074696D6572732E0D0A000000800000AA
:100DD0000000000000800000010000000080000012
:100DE000030000000040000005000000004000007B
:100DF0000600000000800000070000001040000016
:100E000008000000008000000E00000000800000CC
:100E10000F000000000001040001000000000104B8
:100E200001010000040000000501000000000100B5
:100E3000080100000000010009010000000001009D
:100E40000A010000040000000B0100000400000083
:100E50000F01000000000106020200000000010670
:100E60000302000000000106040200000000010669
:100E70000502000000000106060200000000010655
:100E8000070200000000010000030000000001064E
:100E9000020300000400000003030000040000003F
:100EA000040300000000011105030000000001110F
:100EB00006030000000001110703000000000111FB
:100EC00008030000000001110903000000000111E7
:100ED0000A030000040000000B03000004000000EF
:100EE00000040000040000000404000000000113DE
:100EF0000704000000000103080400001040000087
:100F000009040000104000000E040000040000006E
:100F10000F04000000000113000500000000011391
:100F200001050000008000000505000000800000B1
:100F300006050000000401070B050000000401077E
:100F40000C050000400001050106000040000105FD
:100F500002060000040000000B0600000400000070
:100F60000C06000004000000080700000400000058
:100F700009070000040000000A0700000400000048
:100F80000C070000040000000D07000038000000FE
:100F9000CC0D0000400043000000000000000000F5
:100FA0000000000000000000000000000000000041
:100FB0000000000000000000000000000000000031
:100FC0000000000000000000000000000000000021
:100FD0000000000000000000000000000000000011
:100FE0000000000000000000000000000000000001
:100FF00000000000000000000000000000000000F1
:1010000000000000000000000000000000000000E0
:1010100000000000000000000000000000000000D0
:1010200000000000000000000000000000000000C0
:1010300000000000000000000000000000000000B0
:1010400000000000000000000000000000000000A0
:101050000000000000002115110E0D0C0B0B0A0AF8
:1010600009090909090808080808080807070707FF
:10107000070707070707070707000000303132336B
:101080003435363738396162636465666768696A22
:101090006B6C6D6E6F707172737475767778797A28
:1010A0000000000038B54E4D4E49284600F00EF9BC
:1010B000040008D0DFF830310FF274125FA1002075
:1010C00000F026FD18E04949494800F0FFF8040007
:1010D00012D0284600F059FA30B1464B0FF25012A8
:1010E00056A1002000F014FDDFF80C310FF2401281
:1010F00052A1002000F00CFD204632BD10B538484A
:1011000000F0A5F9040007D00FF264130FF24812A3
:101110004AA1002000F0FCFC204610BD0079002808
:1011200000D070471CB5324C6946204600F00CFADE
:1011300018B101203149086013BD9DF80400012851
:1011400013D0204600F083F958B101202B490860E4
:10115000DFF8AC300FF2381238A1002000F0D8FCD4
:1011600013BD01202749087013BD022225480270D3
:1011700013BD000080B5244B198821B901201F49F7
:101180000860224B12E022490A7882F001020A70BC
:10119000007968B90A785868B0F900101D4800F065
:1011A0000BFD28B10120154908601B4B3EA239E018
:1011B00001BD000080B50A4800F0E7F930B1174BD7
:1011C0000FF2FC021DA1002000F0A2FC084800F074
:1011D000DCF918B1DFF8483039A223E001BD000086
:1011E000F4010020C4060000000500009C06000079
:1011F000D801002038050000740500001802002006
:10120000AC050000110200208C060000D80500008B
:1012100000000020D001002000060000240600008D
:101220005406000005A10020BDE8005000F070BC8D
:101230006167745F696E6974000000005B4552521B
:101240005D20496E2046756E6374696F6E3A202585
:101250007328292C202573006167745F7374617291
:10126000745F6F6E6573686F745F74696D6572002B
:101270000D0A20414754302074696D6572207374E3
:10128000617274206661696C65642E0D0A0000004D
:101290006F6E655F73686F745F74696D65725F63AD
:1012A000616C6C6261636B00706572696F64696325
:1012B0005F74696D65725F63616C6C6261636B0022
:1012C0006167745F6465696E697400000028F0B539
:1012D00018BF002920D0CB69F3B10568DFF80044BE
:1012E000A54242D04A6912B90D78012D05D191F974
:1012F0001220002A01D50B20F0BD4A6862B1B2F17C
:10130000011F09D20D7C3F22EA40D6072AD51A7860
:10131000502A03D1EA0709D40120F0BD002A0A7A35
:1013200008D1042AF8DA022A06D1F5E70A7A002A57
:10133000F2D101E0082AEFDADFF8A82302EB052258
:1013400041608260EFF31082012383F310880D7CEB
:10135000DFF89463042D32BFC5F10305361DC5F1D6
:10136000130504E040F27A50F0BD0E20F0BD37685E
:1013700003FA05F527EA050535600D7C042DDFF835
:10138000685328BF2D1D2E6882F3108885680022BF
:101390002A728268157AC5F34002002AF9D185685D
:1013A000AA72CF69002597F804C03A78FF781646EC
:1013B00007F007072AB90A7A32B1160186F020062B
:1013C00002E0502A18BF0D7A82683E4382F80CC0B2
:1013D00082684FF0000C82F80EC087687E728268C7
:1013E00095724A684668DFF80453C260377C45F856
:1013F00027208568521E2A8091F9122015001DD4DD
:101400004F7CDFF8ECC2DFF8ECE23F010CF8027031
:101410004EF82500DFF8E07257F825C0560902F0B3
:101420001F022CF4803C934047F825C0DFF8CC2203
:1014300042F82630DFF8C85245F826304A69026182
:10144000896900224261816104600020F0BD98B189
:101450000168DFF88C22914201D007207047816833
:10146000097A01F001018268137AC3F340029142C4
:10147000F9D18068F12117E00120704790B101682F
:10148000974A914201D0072070478168097A01F09C
:1014900001018268137AC3F340029142F9D1806856
:1014A000F02101E00120704701720020704701B374
:1014B000B1F1011F1DD2E0B10268894B9A4201D0FF
:1014C000072070478268127A02F00102836893F85D
:1014D00008C0CCF340039A42F8D14368C160834A04
:1014E00093F810C042F82C108068491E018000203B
:1014F00070470120704770B505460C0012D000F00F
:101500006CF870B9E868A0606868C1690A78502A08
:1015100016D1017C7B4E56F8210028B9606000206E
:10152000207070BD012070BDA868A0F5807000F02B
:1015300073F869680A7C56F82210B0FBF1F0EDE709
:10154000A86800F069F8E9E7002918BF00281AD058
:101550000268634B9A4201D0072070478268127A72
:1015600002F00102836893F808C0CCF340039A426A
:10157000F8D18268137AC3F340020A718068028846
:1015800000200A6070470120704710B5044600F043
:1015900024F808BBA168F4200872A1680020087331
:1015A000606890F9121011F1210F13D008000BD4CC
:1015B000012201F01F008240534B490943F82120CA
:1015C000BFF34F8FBFF36F8F61684A4891F91220C4
:1015D00040F822400020206010BD70B10168404AF0
:1015E00091420CD18068017A01F00101027AC2F3C4
:1015F00040029142FAD10020704701207047072035
:1016000070474368C160394A93F810C042F82C1003
:101610008068491E018070470146487AC0F3021273
:1016200012F0FC0F12D139480168394BD3F800C0D1
:10163000080E00F00700090A0CFA00F001F007019B
:10164000C840110007D082F0020204E08A7A4FF409
:10165000004002F00702D040704778B583B0EFF346
:101660000380103840B2244951F8202022F48032FF
:1016700041F820201F4951F82040A068057A616890
:101680000A78012A09D1F4210172A26805F0F00557
:1016900020461572E168FFF7B4FF2069C8B16069A0
:1016A00000280FBF6846694690E84C0081E84C006E
:1016B000AD0644BF00210171A16901602269904714
:1016C000606920B1694691E82C0080E82C00A06890
:1016D000057AA06805F00F05057204B070BD000022
:1016E0005447410000800E400C4008401C0200207E
:1016F00000E400E0480000200063004080E200E0D9
:1017000000E100E01802002080E100E020E001405C
:10171000EC06002038B50446A0686368421C93427A
:1017200005D325682954E068A260401CE060A268E7
:10173000606882420CD12168206900F0F4FBA16846
:10174000884203D04FF0FF30E06031BD0021A1603E
:1017500031BD2DE9F84F07468946924698464846DE
:101760000125012102E0B0FBFAF0491C5045FAD2F4
:10177000404688450B9E0A9C38BF08460090F007FB
:1017800018D4BCB1B0070FD44FF0200B009AA2427E
:1017900010D259463846FFF7BDFFF868641E00288E
:1017A00008D4002CF2D10DE0B8F1000FECD14FF0CD
:1017B000300BEBE7F86800282FD403E0A8F101080C
:1017C0000AFB05F5B8F1010FF8D8B9FBF5F0504563
:1017D00028BF0AFB05F5F8D2B9FBF5F00FF244314A
:1017E00005FB1099095C3846FFF794FFF86800285C
:1017F00003D4B5FBFAF5002DEED1F0070DD564B199
:10180000009DA54209D220213846FFF783FFF868E2
:10181000641E002801D4002CF3D1BDE8F18F000034
:101820002DE9F04F97B080460E46174607A8402195
:101830000022029003910492CDF8188005920FE0E7
:10184000B9FBF5F0B7A205FB1099115C02A8FFF7F0
:1018500061FF0598002800F105812D09F0D1761C63
:1018600016F8010B002800F03F81252840F0348154
:101870004FF0000902E049F00109761C3078232876
:101880000CD02B2807D02D28F5D0302808BF49F0E0
:101890000209F2D005E049F00409EEE749F0080931
:1018A000EBE7002406E004EB840100EB4100761C2A
:1018B000A0F1300431780846A0F130020A2AF2D3B0
:1018C00000252E290DD1761C06E005EB850100EBE5
:1018D0004100761CA0F130053078A0F130010A29D2
:1018E000F3D3307801E016F8010F6C2818BF682890
:1018F000F9D0252800F0EB80582800F08480632878
:101900000CD0642810D0702800F0B280732800F04A
:10191000878075286DD0782875D0A3E0386850F896
:10192000041B3860C9B2D3E0386850F804AB3860A3
:101930005046002848BF4042012106E0734A80FB20
:101940000232491C901000EBD0700A28F6DAAB4640
:101950008D4238BF8B462CB1BAF1000F54BF5FEAFD
:101960004970641E5FEA897000D585B15FEAC9706D
:101970000DD464B1A3450AD2202102A8FFF7CAFE04
:101980000598641E002802D4002CF3D102E00598CB
:10199000002867D4BAF1000F03D5CAF1000A2D213F
:1019A00003E05FEA497006D52B2102A8FFF7B2FEDB
:1019B0000598002856D409F00301022908BF002D1C
:1019C00010D17CB1A3450AD2302102A8FFF7A2FEB4
:1019D0000598641E002802D4002CF3D102E005987B
:1019E00000283FD4CDF8049000942B460A2251469B
:1019F00012E038682B460A2250F8041B3860CDF8F4
:101A00000490009408E038682B46102250F8041B1C
:101A10003860CDF80490009402A8FFF79AFE21E008
:101A2000386850F8044B386014F8010BD0B10499B1
:101A3000039B4A1C934205D3029D68540598049267
:101A4000401C0590049A0398824208D10299069896
:101A500000F069FA0499884206D1002004900598A4
:101A60000028E1D5761C3BE04FF0FF30059048E0C0
:101A700038680824012550F8049BA246AB4638601C
:101A8000484602E000090BF1010B1028FAD2BBF125
:101A9000080F0CD3A3450AD2202102A8FFF73AFE73
:101AA0000598641E002802D4002CF3D102E00598AA
:101AB0000028D7D4AAF1010A2D01BAF1010FF9D8F3
:101AC000B9FBF5F0102828BF2D01F9D2B8E6252181
:101AD00002A8FFF71FFEC5E7014602A8FFF71AFE9E
:101AE000059800287FF5BCAE0598002809DD049A0A
:101AF0001AB107A9404600F016FA05990498411852
:101B00000591059817B0BDE8F08F0000676666661E
:101B10000CB480B502AA00926A46FFF781FE02BCAF
:101B20005DF80CFB303132333435363738394142C9
:101B300043444546EFF31081012282F31088DFF819
:101B4000A021106838B9DFF89C01002303704FF022
:101B5000400C80F800C01068401C106013E0EFF3E8
:101B60001081012282F31088DFF87421106810B10F
:101B700013685B1E1360106828B9DFF86801002243
:101B800002708023037081F310887047002880B5AD
:101B900018BF002908D04A6832B10368DFF848212D
:101BA000934203D10E2002BD012002BD026008460F
:101BB00000F02AF8002002BD30B488B100684A4B1A
:101BC000984210D1022A11DA0020002321F0FF04EC
:101BD000012505FA01F1002A0CBF0B04084608E0B4
:101BE000012030BC7047072030BC7047032030BC58
:101BF00070473F49C4F3072201EB421180B21843FA
:101C00008860002030BC704738B5044600F032F8D8
:101C1000FFF790FF002509E0606850F83510001DBF
:101C200030F935006D1CADB200F006F82088854211
:101C3000F2DBBDE8314092E730B4CA030FD52B4B3D
:101C4000041203EB841300F0FF0221F4803553F8F3
:101C5000224024F4803443F8224043F82250234A9F
:101C6000031202EB831400F0FF0044F8201030BC94
:101C7000704700000146F8B508880024002508B325
:101C8000496800221CA3B1F90460B3F90070BE4298
:101C900011D10E6806F0F856B6F1807F18BFB6F184
:101CA000106F04D101269640F6B2344303E00127B9
:101CB0009740FFB23D43521C9B1C032AE3D30831DB
:101CC000401EDED1012000F08FF90A4801780C4354
:101CD000AC4304700120BDE8F24000F065B900009B
:101CE00044000020030D084054524F5000080840A3
:101CF00000000840BBE401400204030404040000A7
:101D0000F0B4DFF874020321016141610FF2782120
:101D1000816100F1A802C2614FF480630362002276
:101D2000826200234362C262016600F595614166EA
:101D30001022826600210167C16600294167BFF356
:101D40005F8F0FF2502202F10F0313F80449491C70
:101D50004D4200F8014B02F10F04665D491C02F18F
:101D60000F0700F8016BC1F1000C17F80C40491C7B
:101D700002F10F0500F8014B4E42AF5D491C1029DE
:101D800000F8017BE1D3BFF35F8FF0BC7047000028
:101D90002DE9F8430646894615464FF00008F768D6
:101DA00034694946A74231BFE41BB068C01B241800
:101DB000B068641EC01B844228BF0446AC427068F1
:101DC00088BF2C462246C01900F032F9B1682D1B9D
:101DD000E7198F42A044A14408BF0027BFF35F8FDB
:101DE000F760002DDCD14046BDE8F2832DE9F041DB
:101DF0000446E768A56816468846ED1BAE4207D242
:101E00006068384400F014F9BFF35F8FF6190DE0F5
:101E100063682A46761BD81900F00AF960683246D2
:101E200008EB050100F004F9BFF35F8FE660BDE841
:101E3000F08101460869CA68824200D39EE098E0BA
:101E40002DE9F8430446DFF830512878884691465A
:101E500008B9FFF755FF04EB440005EBC00000F1A3
:101E600060063769F5680024BD4212D2B468706814
:101E7000E41B4C4588BF4C46C1192246404600F041
:101E8000D7F8B168E719A0448F42A9EB040908BF4D
:101E90000027ED1B4D4588BF4D463DB170682A4671
:101EA0002C19C119404600F0C3F8EF1904B137618D
:101EB0002046BDE8F28310B5EFF31184202383F3AD
:101EC0001188FFF7BDFF84F3118810BD70B50C4673
:101ED0001546DFF8A41000EB400201EBC20000F150
:101EE0001806716919B1022913D006D318E03046DB
:101EF000FFF79FFFA84206D212E03046FFF799FF96
:101F0000A84298BF05462A4621463046FFF76EFF95
:101F100007E02A4621463046FFF73AFF054600E033
:101F20000025284670BDF8B50D460446DFF8481078
:101F30000878164608B9FFF7E3FEEFF31187202073
:101F400080F31188324629462046FFF7BFFF87F30A
:101F50001188F2BD10B5DFF82040207808B9FFF7EE
:101F6000CFFE206FE16E884201D0012010BD00201D
:101F700010BD801A401E7047340200208968491E37
:101F80008A1A8018704700005465726D696E616C22
:101F90000000000000000000000054545220524590
:101FA0004747455300000000EFF31082012181F301
:101FB00010881B4B33F8101029B133F81010A1F121
:101FC000010C23F810C033F8101049B915490B88DB
:101FD0000FF2540C3CF8100043F4254383430B806C
:101FE00082F310887047000070B4EFF31082012173
:101FF00081F310880A4B33F8101041B909490C8855
:1020000009A535F8106046F4254634430C8033F8B2
:102010001010491C23F8101082F3108870BC704710
:10202000C8010020FEE3014001000200080010008A
:1020300062B38B0708D0521E11F8013B00F8013B38
:1020400000F024808B07F6D1830740F0208000BF8A
:10205000103A07D330B4B1E83810103AA0E838107D
:10206000F9D230BC530724BFB1E80810A0E808102B
:1020700044BF51F8043B40F8043BD20724BF31F879
:10208000022B20F8022B44BF0B7803707047083AEC
:1020900007D3B1E80810083A40F8043B40F804CBF5
:1020A000F7D25307E4E7000035488179334A52F804
:1020B00021100068334A000E00F00700C140116093
:1020C0007047F0B431494AF203500880304A012386
:1020D000938090880028FCD113802E488360036091
:1020E000264B2D4818602D4C5C604FF400409860E2
:1020F0002B4C1861DC602B485861214CA079214D94
:10210000294F53F820002668360E06F00706F040E7
:1021100028600020487509263E70244E307810B1A2
:102120000027777037700026A67443F202102081D2
:10213000207FC0F3C0000028FAD0A672207FC0F331
:1021400040100028FAD0012010770522A27118480B
:102150002060A07953F820002268F024120E02F0CB
:102160000702D04028600848F1220271067004710D
:102170004FF425400880F0BC70470000F00E0020AE
:1021800020E00140EC06002008200040FEE3014072
:1021900000C1014000700040002D310100127A00A2
:1021A00000366E0100C2EB0BA2E0014080E401406A
:1021B0002112022120B103490A6802600020704701
:1021C00001207047F82A0000F8B50B4C258A00263C
:1021D000084F25FA06F0C00703D5396809B1F0B2F7
:1021E0008847761C3F1DF0B21028F2DB2580F1BD38
:1021F000000000000400002030610040F0B583B012
:102200000320FFF7F1FE214D6FF0FF002860FF2251
:102210000C21684600F042F81D4C00212246B2F91C
:10222000000050B14B095DF82360012701F01F0C3D
:1022300007FA0CF7BE434DF82360491C921C602935
:10224000EDD300981349A86200980860019AEA62E9
:102250004A600298286388600320FFF7A5FE0E49B4
:10226000182034F9022B401E41F8042B34F9023BAC
:1022700041F8043B34F9022B41F8042B34F9023BBA
:1022800041F8043BEDD103B0F0BD00BF48800040F1
:10229000940F000080E300E00063004062F30F222F
:1022A00062F31F4200B500BF1300964694461039F2
:1022B00028BFA0E80C50FAD85FEA417C28BF0CC0C8
:1022C00048BF40F8042BC90728BF20F8022B48BF9D
:1022D00000F8012B00BD00000FF2C8402DE9F84DB9
:1022E00001688FB003A8029100210022002300247E
:1022F00080E81E000AA907AD00260027944681E861
:102300001C0085E8C01002A8FFF754FF9DF80900E3
:102310009DF80A109DF80B30DFF86C630190009176
:1023200016A231460020FFF7F3FB06F5EC71002002
:10233000FFF7EEFBFEF7B6FE040010D00FF28C3371
:102340000FF260320FF268310020FFF7E1FB34B189
:1023500022460FF294310020FFF7DAFB00BE06F5AB
:1023600050710020FFF7D4FB0FF29C310020FFF7E3
:10237000CFFB002440F2D17707E000BF312E3100BF
:1023800006F578710020FFF7C3FBFFF7E3FD002897
:10239000FBD003A800210022002380E81E001022A9
:1023A00003A90020FFF787FD03A800F0A7FA054660
:1023B000BD42E5D2002DE3D02A4606F56D7100201E
:1023C000FFF7A6FB0FF25431002002E006F578710A
:1023D0000020FFF79DFBFFF7BDFD0028FBD003A801
:1023E000002100220023002480E81E00102203A9FF
:1023F0000020FFF760FD03A800F080FA0446BC420D
:10240000E4D2002CE2D0224606F20C410020FFF775
:102410007FFB9E4F0AA93846FFF76DF85FEA000878
:1024200000F01380FEF7C6FE06F587630FF27422F4
:102430009FA10020FFF76CFBB8F1000F05D04246CA
:10244000A9A10020FFF764FB00BE0B98904A45430A
:102450003846A5FB0221490AFFF729F8050010D0EC
:10246000FEF7A8FE06F27C430FF2382290A100206E
:10247000FFF74EFB2DB12A469BA10020FFF748FB3A
:1024800000BE844D07A92846FFF735F85FEA00082B
:1024900000F01380FEF78EFE06F587630FF204222C
:1024A00083A10020FFF734FBB8F1000F05D04246AE
:1024B0008DA10020FFF72CFB00BE0898744A44430E
:1024C0002846A4FB0221490AFEF7F1FF040010D0C0
:1024D000FEF770FE06F2C4430FF2C81274A100208A
:1024E000FFF716FB2CB122467FA10020FFF710FB5F
:1024F00000BE06F20C510020FFF70AFBDFF89881BE
:1025000058E000BF96A300BF0FF2402268A1002050
:10251000FFF7FEFA8CB1FEF74DFE00BF0FF210235D
:102520000FF2801262A10020FFF7F2FA2CB12246CE
:102530006DA10020FFF7ECFA00BE98F8000001281A
:1025400007D1002188F8001006F5A7610020FFF7E9
:10255000DFFA98F80100012816D1002188F801104F
:1025600006F25C510020FFF7D3FA06F5B0610020B7
:10257000FFF7CEFA06F5B5610020FFF7C9FA06F5B8
:10258000BA610020FFF7C4FA98F80100022811D1BF
:10259000002188F8011006F2F4510020FFF7B8FA84
:1025A00006F21C610020FFF7B3FA06F24C6100202E
:1025B000FFF7AEFAFFF7CEFC70B103A800210022AE
:1025C0000023002480E81E00102203A90020FFF74A
:1025D00072FC0120C8F80400D8F804000128ACD12E
:1025E0000021C8F8041000BF6FA400BF70A1D4E997
:1025F0000023D1E900AB0DA9CDE90D23CDE900AB56
:102600002846FEF7A1FF04007FF47BAF69463846F9
:10261000FEF79AFF04007FF474AF9DF8040080B1C8
:102620003846FEF72BFF040005D000BF52A1002062
:10263000FFF76EFA6EE706F5CE610020FFF768FA45
:102640007BE79DF8380058B12846FEF717FF0400D5
:1026500018BF0FF224137FF456AF06F2AC61ECE71B
:10266000FEF74CFD040018BF0FF224137FF44BAFAC
:10267000012088F8000060E7022803D107490848D4
:10268000FFF784BA70470000E4060000F401002060
:10269000986E1283D8010020100200208C0F0000D9
:1026A000D001002068616C5F656E74727900000073
:1026B0005B4552525D20496E2046756E6374696FAA
:1026C0006E3A20257328292C202573000D0A202A14
:1026D0002A2041475420494E4954204641494C45FF
:1026E00044202A2A200D0A000D0A52657475726E64
:1026F0006564204572726F7220436F64653A2030C2
:1027000078257820200D0A000D0A4F6E652D73681C
:102710006F74206D6F64653A000000000D0A50650B
:1027200072696F646963206D6F64653A0000000030
:102730000D0A54696D65722073746172742F73741D
:102740006F70206661696C656400000074696D6576
:10275000725F7374617475735F636865636B0000A7
:102760000D0A537461747573476574204150492094
:102770006661696C656400000D0A4147542053741A
:102780006F7020415049206661696C6564000000EB
:102790000D0A204147542073746172742066616988
:1027A0006C656400000000000000000000000000F4
:1027B00000000000000000002DE9F84F84B00BB1CC
:1027C00000241C600446A04601E008F1010898F8C6
:1027D0000000A0F10903052BF7D32028F5D02D2800
:1027E00016BF2B2818F8015B2B25002A019103D472
:1027F000012A01D0252A03DB002959D00C6057E0BB
:10280000002A0CDD102A04BF98F80000302802BF0F
:1028100098F8010040F02000782811D10CE098F8D9
:102820000000302818BF0A220AD198F8010040F0B1
:102830002000782803D1102208F1020800E00822C5
:10284000CDF80C8001E008F1010898F8000030286C
:10285000F9D0074E7E4418364FF0000906F12800E3
:10286000CDF80880CA468DF8000017460CE000BF7E
:10287000E4E7FFFF9DF80010401ACA465FFA80FBAC
:1028800007FB09B908F1010898F80010A1F141000F
:102890001A2838BF20313A4606F1280000F034F8F3
:1028A0000028E7D10399414504D1019800B10460A3
:1028B000002020E00299F05DA8EB0101081A002831
:1028C00010D406DCB9EB0B0103D3B1FBF7F0504594
:1028D00008D0AFF30080049808B1012101604FF0E7
:1028E000FF3903E02D2D08BFC9F10009019808B197
:1028F000C0F80080484605B0BDE8F08FFFE7002330
:102900000A22002158E70000C9B2830706D0521EF0
:1029100022D310F8013B9942F7D11FE0083A13D3B4
:1029200002F1040241EA012141EA014150F8043B6D
:10293000121F21BF4B40A3F1013C2CEA030C1CF0F9
:10294000803FF3D0C9B2001F083210F8013B521E7D
:1029500028BF91EA030FF8D818BF0120401E704726
:1029600080B500F005F800F06DF8FEE700BE704796
:1029700080B54FF4700021490860214A214B1A604C
:102980000020FFF779FEFFF79CFB0120FFF774FEA4
:102990001D4880F30A881D491D4800F059F81D4A5A
:1029A0001D491E48FFF744FB1D4A1E491E48FFF7FC
:1029B0003FFB1E4A1E491F48FFF73AFB1E491F48AE
:1029C00000F04AF8FFF770FB0320FFF70DFB1C49EE
:1029D00003204FF6FF720A804A808A80891D401EBC
:1029E000F9D10320FFF7E0FA0220FFF745FEFFF7D9
:1029F00005FC0020BDE8024000F03AB888ED00E098
:102A00000000000008ED00E0F00A0020EC060000E5
:102A10000400002004000000482B000000000020FB
:102A200000000000000000000000000000000000A6
:102A30000000000000000000000000000000000096
:102A4000100D084080B5FFF747FC002002BD0000D4
:102A5000002200F00FB8000038B504460D46AC4225
:102A600005D0206820188047241DAC42F9D131BD23
:102A700070470000401810F0030308D0C91A1FD394
:102A8000DB0748BF00F8012D28BF20F8022D1300F6
:102A900030B414461546103928BF20E93C00FAD856
:102AA000490728BF20E90C0048BF40F8042D8900E1
:102AB00028BF20F8022D48BF00F8012D30BC704718
:102AC000C91818BF00F8012DCB0728BF00F8012D49
:102AD000704700004EF68851CEF20001086840F4BD
:102AE00070000860BFF34F8FBFF36F8F4FF000701F
:102AF000E1EE100A7047000000000203332E322E70
:102B0000300000004275696C742077697468205247
:102B1000656E6573617320416476616E63656420E0
:102B2000466C657869626C6520536F667477617274
:102B300065205061636B6167652076657273696FAC
:0C2B40006E20332E322E30000100000009
:020000040100F9
:04A10000FFFFFFFF5F
:04A11000FFFFFFFF4F
:04A13400FFFFFFFF2B
:04A20000FFFDFFFF60
:04A21000FFFFFFFF4E
:0CA24000FFFFFFFFFFFFFFFFFFFFFFFF1E
:0CA26000FFFFFFFFFFFFFFFFFFFFFFFFFE
:04A28000F8F8FFFFEC
:04A29000FFFFFFFFCE
:0CA2C000FFFFFFFFFFFFFFFFFFFFFFFF9E
:04000005000029616D
:00000001FF
