:1000000050040020810000008920000061220000CF
:1000100061220000612200006122000061220000D4
:10002000000000000000000000000000612200004D
:100030006122000000000000612200006122000037
:04004000F91D0000A6
:1000440001000000740000000200000054000000E1
:100054000000002000000020000010400000020307
:1000640000000020500000204004000000000103B4
:1000740064040020001700200000000310B500F005
:1000840037F801F019F9FEE7F8B540F24407C0F279
:1000940000073B680500A3B15E007C68F618B60053
:1000A400361902E00C34B4420BD0637AAB42F9D176
:1000B400206862680021121A0C3402F035F9B44247
:1000C400F3D1BE6896B1FC683601361902E01034EB
:1000D400A6420BD0637BAB42F9D120686268A16869
:1000E400121A103402F00AF9A642F3D1F8BDC04640
:1000F40040F200034EF6005270B5CEF20002C0F298
:10010400000382B09360002001F0C6F801F090FE75
:100114006B460026DC1D26700120237802F078F857
:10012400EFF31081012585F3108846F6FC73C4F2C1
:1001340004039A68334802409A609A6881F31088ED
:1001440040F60001C4F204010A68D207D20F2270FB
:100154000A68D207D20F22700A68D207D20F22701F
:10016400EFF3108185F310888022986852050243CA
:100174009A609B6881F31088012002F01FF8012027
:1001840001F08AF840F600531F4AC4F200039E802F
:100194001A8040F2500240F2004CC2F200029A600F
:1001A4006244DA6046F2000240F2201141F200009B
:1001B400C4F2000250529D800020FFF765FF01F059
:1001C4001FFE01F0F9FE022001F066F80120FFF79E
:1001D4005BFF42F6246542F62863C0F20005C0F2D4
:1001E40000035B1B9E10002B05DD002408CD0134A9
:1001F4009847A642FADC01F0D3FF002002F030F861
:0C02040002B070BDFFFFFFEF00A5FFFF80
:04040000FFFFFFFFFC
:04040400DFCFFFFF48
:100440000400002000000000C81500203016002025
:1004500098160020000000000000000000000000CE
:10046000000000000000000000000000000000008C
:10047000000000000000000000000000000000007C
:10048000000000000000000000000000000000006C
:1004900040F2500040F25003C2F20000C2F20003EA
:1004A00010B5834205D040F20003C0F2000303B14F
:1004B000984710BD40F2500040F25003C2F20000D5
:1004C000C2F200031B1A9A10D90F8918491010B5EF
:1004D00029B140F20003C0F2000303B1984710BDF8
:1004E00010B540F26444C2F20004237873B9FFF7F8
:1004F000CFFF40F20003C0F200032BB140F20840EE
:10050000C0F2000000E000BF0123237010BDC04610
:1005100040F20003C0F2000310B54BB140F2684155
:1005200040F20840C2F20001C0F2000000E000BF4B
:10053000FFF7C0FF10BDC046C368F0B5C646984679
:100540008768040040680D0000B5FE1AC01890448A
:10055000964208D901F0D4FEBFF35F8F4346E360B3
:1005600080BCB846F0BD320001F0CAFE4346DB1B3A
:100570001A006068A919984601F0C2FEBFF35F8FA8
:10058000ECE7C046F8B54746CE46884680B516002B
:10059000070040F20009C56884681CE0013B5B1B52
:1005A000641BB44200D934009C4200D91C00786816
:1005B00022004146401901F0A3FE2D19A144A04498
:1005C000361BBC68631B5A1E93415B421D40BFF340
:1005D0005F8FFD6036B13B699D42DFD3013B1B1944
:1005E0005B1BDDE74846C0BCB946B046F8BDC04617
:1005F00010B541F29044C2F20004A822002120006C
:1006000001F094FE032342F27C422361636140F2D5
:100610009043C0F20002C2F20003A261E36141F222
:10062000000323620023A3626362E362226640F256
:100630008042C2F2000262661022A2662367E3666D
:100640006367BFF35F8F054A00215156013AE154B9
:100650000133102BF8D1BFF35F8F10BDEF2A0000DC
:10066000F8B541F290434546DE4657464E46C2F243
:1006700000031B78E0B5884605001400532B01D019
:10068000FFF7B6FF41F29042C2F2000294466E00BC
:100690007319DB006344DA6E1F6F914697422AD8C4
:1006A000D31B9C4207D84CB92000F0BCBB46B246D5
:1006B000A946A046F8BD1C00002CF5D0A24641F288
:1006C0009042C2F2000294467319DB006344596EF3
:1006D0002200C919404601F013FE3F19534643B1A9
:1006E00041F29043C2F200039C467619F60066443C
:1006F00037675446D8E79B6EA246DB1B9C4223D843
:1007000041F29042C2F2000293467319DB009B440F
:100710005B46596E5246C919404601F0F1FD5346F9
:10072000E41A5B469B6E5744BB420FD04B46DB1B23
:1007300099464C4504D8002CD0D0D044A244BEE702
:100740004C46002CCAD0F8E79A46D9E70027F0E7D4
:1007500010B50B00EFF31084012181F3108819000C
:10076000FFF77EFF84F3108810BDC046431C70B5B0
:1007700004005800C01841F29043C2F200039C46A6
:1007800063001B19DB006344DC6AC0001500604491
:10079000012C14D0022C0DD0FCB99A6A5E6AB242C8
:1007A00022D9013A961BB54207D82A00FFF7C4FEAA
:1007B0002C0002E0FFF7E6FE0400200070BD9A6AFC
:1007C0005C6AA2420BD9013A121B2C00954200D957
:1007D00014002200FFF7B0FEEFE70024EDE71B6AEC
:1007E000D218013A121BF0E71B6AD218013A961B85
:1007F000D9E7C046F8B541F29043C2F200031B7836
:1008000004000D001600532B01D0FFF7F1FEEFF3AB
:100810001087012181F31088320029002000FFF7A2
:10082000A5FF87F31088F8BD10B541F29044C2F2DD
:1008300000042378532B01D0FFF7DAFEE36E206F1C
:10084000C01A431E984110BD10B504008268636849
:10085000501C984207D8236899540200E368A060AE
:100860000133E36063689A4200D010BD21682069BB
:10087000FFF7C0FFA368984203D001235B42E36007
:10088000F3E70023A360F0E7F8B54E464546574628
:10089000DE46E0B51E000A9B0F0080461500994613
:1008A0000B99974200D271E03B000122B3FBF5F3B4
:1008B00001329D42FAD9B246964200D292460123B5
:1008C0001A000A4093460B4202D14B46002B42D1FC
:1008D0004346DB680124002B02DA27E06C43013E2B
:1008E000012EFBD8B7FBF4F39D4204D86C43B7FB51
:1008F000F4F39D42FAD942F67836C0F2000606E0DB
:10090000B4FBF5F3AC420DD31C00B7FBF3F32200AC
:100910005A43F1564046BF1AFFF796FF4346DB683D
:10092000002BEDDA5B460BB14B468BB9F0BCBB46F6
:10093000B246A946A046F8BD01235B429C46202151
:100940004046E144FFF780FF4346DB68002BEDDBC8
:10095000D145F1D8EAE72024890714D574427441BF
:1009600024012034D145B3D901235B429C462100A8
:100970004046E144FFF768FF4346DB68002BD5DBC8
:100980004A46002AA6D0D145EED8A1E7012292E737
:10099000F0B5DE4657464E464546E0B59BB00AAB3D
:1009A00005934023069300230C00914640F2010B6F
:1009B000824607930893B94B099002930021615630
:1009C0000134002900D17AE0252907D005A8FFF7D6
:1009D0003BFF089B002BF1DA1F0079E00023E35670
:1009E0000027022508200422611C2D2B0CD02D2B62
:1009F0000EDC232B11D02B2B3FD10C0017430023EF
:100A0000E356611C2D2BF2D15B460C001F43F6E729
:100A1000302B05D10C002F43F1E70C000743EEE724
:100A20001A00303AD2B20026092A01D90DE001316C
:100A3000B20096197600F6180023CB560C001A0067
:100A4000303AD2B2303E092AF1D9611C2E2B26D081
:100A50000023002540F20008E3560C000422190090
:100A6000914368290BD0252B13D0583BDBB2202BA8
:100A7000AFD8029A9B00D3589F460026E8E704218E
:100A80000023E35601341A008A43682AF8D0252B44
:100A9000EBD1252105A8FFF7D7FE089B9AE7012394
:100AA000E3562A2B1CD14B461B6849461A1D1D686C
:100AB00002230A6040F20108E356E11CCDE7089FDB
:100AC0005546002F04DD079C002C00D0AEE03F19F6
:100AD00038001BB0F0BCBB46B246A946A046F0BDEC
:100AE0001A00303AD2B20C000025092A00D9EFE0F2
:100AF0002A009500AD186D00EA1800230134E35672
:100B0000303A19003039C9B20929F2D9150040F23A
:100B10000108611CA1E74B4649461B6805A81A1D40
:100B20000A60196810222B0001970096FFF7ACFEAF
:100B3000089B4FE74B4649461B6805A81A1D0A60EB
:100B4000196800230193083300931022FFF79CFEDD
:100B5000089B3FE74B4649461B681A1D1B680A6005
:100B6000DA1703939B1853400122092B06DD0A2054
:100B70001900013293FBF0F36329F9DCA846954292
:100B80007AD3002E58D10026089B002B00DA23E7E9
:100B9000039B002B00DA8AE07B0700D593E0032358
:100BA0003B40022B00D197E02B000A2203990197CA
:100BB000009605A8FFF768FE089B0BE74B464946E1
:100BC0001B6805A81A1D0A6000215956FFF73CFE54
:100BD000089BFFE64B4649461B6805A81A1D0A609C
:100BE00019680A222B0001970096FFF74DFE089B1B
:100BF000F0E64B4649461B681A1D0A601E68002E27
:100C00004ED00135474675190AE017B1AE4200D102
:100C1000DFE605A8FFF718FE089B002B00DADBE6ED
:100C20000021715601360029EFD1D2E622002800BA
:100C30000AA9FFF7DFFD4AE70223039A3B40002A97
:100C40001EDB7A071CD4002B5ED025B3FB0722D411
:100C5000230044469846A6421AD9202105A8FFF74A
:100C6000F3FD089B013E002B00DAB5E6002EF2D121
:100C70004246A046140088E79046002EDCD182E769
:100C8000013E03B13DB1FB0705D4002EE0D17AE768
:100C90004346A0461C00089B77E7C046F42A0000A4
:100CA00042F2884640F20008C0F20006A9E75B4223
:100CB0002D2105A80393FFF7C7FD089B002B00DB40
:100CC0006DE71F0004E72B2105A8FFF7BDFDF4E742
:100CD00040F200080131C0E6002D00D064E7002E8C
:100CE00000D161E7464517D9302105A8FFF7ACFDD3
:100CF000089B013E002B00DA6EE6002EF2D1002B9D
:100D000000DB51E71F00E3E6FB07A1D5089B002BA2
:100D100000DB49E71F00DBE6089BF0E70EB400B5F7
:100D200082B003AB02CB01AA0193FFF731FE02B000
:100D300008BC03B01847C04641F25C5010B5C2F27F
:100D4000000000F0DDFF00B910BD42F2904342F612
:100D5000943242F2B041C0F20003C0F20002C0F28D
:100D600000010020FFF7DAFFEEE7C04641F24C50E9
:100D700010B5C2F2000000F0DBFB00B910BD42F27A
:100D8000CC4342F6883242F2B041C0F20003C0F2D6
:100D90000002C0F200010020FFF7C0FFEEE7C046EE
:100DA000F0B5C646002300B588B003AC200003931D
:100DB00001F030F96278E3780192A27842F2F041D2
:100DC000009242F2EC42C0F20001C0F200020020A8
:100DD000FFF7A4FF42F20C710020C0F20001FFF700
:100DE0009DFF48F2000241F2445040F20051C0F62B
:100DF0000122C2F2000000F067FA0400002800D0CF
:100E00008DE142F6D83141F24C50C0F20001C2F2FD
:100E1000000000F0B3FB0400002800D0FCE142F623
:100E2000FC3141F25C50C0F20001C2F2000000F05F
:100E3000D7FC0400002800D0D3E142F6E83141F2AB
:100E40005C50C0F20001C2F2000000F0D9FD0400C5
:100E5000002800D0A8E14CF20003F4211E20C4F2C7
:100E600005035A5C02435A5442F6B8010020C0F20E
:100E70000001FFF753FF41F25C500021C2F2000075
:100E800000F090FC0400002800D061E141F23852EB
:100E9000C2F200021378002BFCD042F6241100208D
:100EA000C0F20001FFF73AFF42F64411002041F280
:100EB000405841F23D5541F23A5741F23C56C0F29A
:100EC0000001FFF72BFFC2F20008C2F20005C2F2D8
:100ED0000007C2F20006FFF7A7FC88B92B78002BA9
:100EE00000D195E042F69C2100233A88C0F200012F
:100EF00000202B70FFF712FFFFF796FC0028EDD0C3
:100F00001022002104A801F011FA102204A90020E7
:100F1000FFF71EFC04A801F0FCF94346186040F6F8
:100F2000FE73411E0200994200D9A0E042F68011F2
:100F30000020C0F20001FFF7F1FE434641F24C50A1
:100F40001988C2F2000000F09FFA0400002800D0C7
:100F500096E041F24C50C2F2000000F0A3FA040007
:100F6000002800D0B1E040F2E831012001F05EF845
:100F700041F25C50C2F2000000F0BAFB040000280D
:100F800000D0A7E041F24C50C2F2000000F0B4FAE9
:100F900004000028A2D042F65823C0F2000342F613
:100FA000A03242F2B0410020C0F20002C0F20001C3
:100FB000FFF7B4FE41F25C50C2F2000000F0A0FE68
:100FC000002800D09BE041F24C50C2F2000000F03B
:100FD000AFFA002800D082E042F6782342F6CC3205
:100FE00042F2B041C0F20003C0F20002C0F20001C0
:100FF0000020FFF793FE42F634012200C0F2000108
:101000000020FFF78BFE00BE2B78002B00D069E795
:101010003378002B00D15EE741F25C50C2F2000051
:1010200000F06EFE002840D141F24C50C2F20000A8
:1010300000F07EFA48BB42F6C02342F6CC3242F2C0
:10104000B0410020C0F20003C0F20002C0F2000173
:10105000FFF764FE002C00D13DE742F63401220088
:10106000C0F200010020FFF759FE00BE33E742F650
:10107000AC110020C0F20001FFF750FE03242DE761
:1010800042F6F413C0F2000389E742F2CC4342F681
:10109000883242F2B041C0F20003C0F20002C0F256
:1010A00000010020FFF73AFEC5E742F2904342F606
:1010B000943242F2B041C0F20003C0F20002C0F22A
:1010C00000010020FFF72AFEAEE742F61423C0F22B
:1010D000000364E742F63423C0F200035FE742F204
:1010E000CC4342F6883242F2B041C0F20003C0F273
:1010F0000002C0F200010020FFF710FE6CE742F290
:10110000904342F6943242F2B041C0F20003C0F282
:101110000002C0F200010020FFF700FE53E742F694
:10112000100342F6CC3242F2B041C0F20003C0F2EA
:101130000002C0F200010020FFF7F0FD42F634018A
:101140002200C0F200010020FFF7E8FD00BE58E6D3
:1011500042F6D80342F6B43242F2B041C0F2000384
:10116000C0F20002C0F200010020FFF7D7FDFFF738
:10117000E3FDFFF7FBFD42F6001342F6CC3242F2EC
:10118000B041C0F20003C0F20002C0F20001002032
:10119000FFF7C4FD42F634012200C0F20001002036
:1011A000FFF7BCFD00BE7FE6FFF7C6FDFFF7DEFDE3
:1011B00042F6980342F6CC3242F2B041C0F200034C
:1011C000C0F20002C0F200010020FFF7A7FD42F6C6
:1011D00034012200C0F200010020FFF79FFD00BE95
:1011E00039E6FFF7C3FD42F6740342F6CC3242F211
:1011F000B041C0F20003C0F20002C0F200010020C2
:10120000FFF78CFD42F634012200C0F200010020FD
:10121000FFF784FD00BE10E642F6540342F6CC32DE
:1012200042F2B041C0F20003C0F20002C0F200017D
:101230000020FFF773FD42F634012200C0F20001E6
:101240000020FFF76BFD00BEE9E5C04610B58378CE
:101250004BB1032B00D010BD41F238530122C2F232
:1012600000031A70F7E741F23A5241F25C50002154
:10127000C2F20002C2F2000000F05CFA30B141F2AA
:101280003C530122C2F200031A70E4E741F23D53DD
:101290000122C2F200031A70DDE7C04610B5022831
:1012A00000D010BD42F6204141F24450C0F200018E
:1012B000C2F2000000F0CEF8F3E7C04610B5FFF729
:1012C0006FFD002010BDC046F0B500284FD045F29C
:1012D00054230468C5F24F0307209C4200D0F0BDA0
:1012E000EFF31084012383F3108841F2B450C2F26B
:1012F0000000036833B940F60055C4F20405EB70F2
:101300004033EB7003680133036084F31088FF24DB
:101310000B0A1B012140D4030BD540F600055C18D5
:10132000C4F20405A4006759124E374016406751B5
:10133000665140F600045B18C4F204049B001A5185
:10134000EFF31082012383F31088036813B103685D
:10135000013B0360036833B940F60051C4F2040155
:10136000CB708033CB7082F310880020B7E7012068
:10137000B5E7C046FFFFFEFFF0B5DE4657464E46D6
:101380004546E0B583B0EFF31082012383F3108864
:1013900041F2B453C2F2000301931B6833B940F623
:1013A0000051C4F20401CB704033CB7001990B683B
:1013B00001330B6082F31088038800934BB38023C2
:1013C0005B029846224B40F60005002140F2FF09DF
:1013D0009C464068C4F204054F4682880468130A9C
:1013E0003A4047461B013C420AD09F18BF00BA460C
:1013F00066467F59374056467751674627407751B2
:101400009B189B005C510131009B89B208308B42D4
:10141000E2D1EFF31082012383F31088019B1B6854
:101420001BB101990B68013B0B60019B1B6833B931
:1014300040F60051C4F20401CB708033CB7082F3CC
:10144000108803B0F0BCBB46B246A946A046F0BD2A
:10145000FFFFFEFF10B590B189B14B6863B145F253
:1014600054230268C5F24F039A420AD00360080071
:10147000FFF782FF002010BD0B88002BEFD001206A
:10148000F9E70E20F7E7C04638B143683BB143782F
:10149000C26800205B00995270470120FCE70720DA
:1014A000FAE7C04620B3436823B34378C2689BB9C8
:1014B00013795B06DB0F9BB9EFF31082013383F3E3
:1014C00010884378C1686BB940200B7903430B71D6
:1014D00082F31088002070471379DB09002BEBD0D2
:1014E0000820F8E7802308795B4203430B71EFE79C
:1014F0000120F0E70720EEE7B0B14368B3B1EFF3A6
:101500001083012282F310884278C1683AB17F22A9
:10151000087902400A7183F3108800207047402048
:101520000A7982430A71F6E70120F7E70720F5E719
:1015300010B5F8B14368FBB1EFF31081012383F3D9
:10154000108843786BB17F22C3681C7914401C71EA
:101550001C7A22401A7281F3108800234360002015
:1015600010BD4024C3681A79A2431A711A7AA243A3
:101570001A72F0E70120F3E70720F1E7F8B504005D
:101580000D00002947D0002845D00B78002B4CD106
:101590004668002E47D14B68EBB34EF20003C4F20D
:1015A0000503C3604670EFF31080012181F31088BA
:1015B00046F6FC73C4F20403DA68264F3A40DA6058
:1015C000DB6880F31088EFF3108381F31088627872
:1015D000E1681AB37F22087902400A7183F3108808
:1015E00000216F68E368FA78D201D2B25A716A7842
:1015F000D201D2B29A71D9713A79032A18D0DA712C
:10160000DA793A785A722B78237044F20033C4F2B4
:101610004143636000E001263000F8BD40200A79B4
:1016200082430A71DAE70E26F6E740F27A56F3E7CC
:1016300019800A20013100F0F9FC4021E3683A7971
:101640000520DA711A790A431A71012100F0EEFCC3
:10165000E368D5E7FFFFEFFF70B5C56904000E0032
:1016600088B0A5B120222900684600F049FE20225A
:101670003100280000F044FE2800A3699847E06983
:1016800018B12022694600F03BFE08B070BD0D0085
:10169000F2E7C04630B5040089B0EFF3038341F2AE
:1016A000B852103B5BB2C2F200029B009D58EFF3B0
:1016B0000380103840B200F00FFD6B469C707D2314
:1016C0002A68D15C21B10321684681700021D15480
:1016D0006A466B681B881380002313722B6A019380
:1016E000AB691BB169462800FFF7B6FF09B030BDF2
:1016F000D8B144F243438268C5F241239A4210D1E3
:10170000C36893420FD180220368995A48F20102BC
:10171000914202D01A88D20B4AB9828A00201A80DC
:1017200070470720FCE72120FAE70120F8E70820AE
:10173000F6E7C046030010B518B312B344F24340B5
:101740009C68C5F24120844219D1D868A04226D1B4
:10175000C8B21F2817D8012040F2FF148840C0F2F9
:10176000FF1420420DD0586840698079012808D0C4
:101770001B6810314900CB5A0020138000E007207D
:1017800010BD0120FCE7C41CE4B2012CEBD90C1DF8
:10179000E9D0323804000120012CF1D8E3E7212000
:1017A000EEE7C046B8B144F243438268C5F2412334
:1017B0009A420CD10368094A1988114209D17D2245
:1017C00003210020995475327D31995470470720C8
:1017D000FCE71B20FAE70120F8E7C0460082FFFF84
:1017E000F0B54546DE4657464E46E0B50C000500CE
:1017F00083B0002800D1D7E0002900D1D4E00B88C5
:10180000002B00D0D2E04EF20003C4F20103186AAC
:1018100041F2C4530722C2F200031B68010E1140BB
:101820008B400240D34044F23F22C0F20F02934269
:1018300000D8CBE0002366690120F3563178002BF5
:1018400006DD03B0F0BCBB46B246A946A046F0BDDB
:10185000A378012B00D199E0327922B1B2783F2AE6
:10186000EFD0002AEDD0E2780120042AE9D144F239
:101870004342A868C5F24122904200D1BEE0E2682E
:101880001AB1A0797F2800D9A2E0AA6122696C6010
:101890002A620022EA614CF20002C4F205022A60C8
:1018A000B07837795B03002800D082E040F2403204
:1018B0001A430FB180231A4343F600730002184005
:1018C0003F2392B2AA82F7783B40184344F20003C8
:1018D000777884467F011F430197EFF31089012336
:1018E00083F3108846F6FC73C4F20403DF6840F209
:1018F000100AB8462788BB46574658463F1A380054
:1019000001278740380047468743DF60DB6889F35B
:10191000108847F6FF502B6802401A80624692B248
:101920001A826A46978880229143DF8119730021C9
:10193000703299527279002A54D10620205600281C
:1019400003DB2A00617A00F0E7FB0720205600281D
:1019500003DB2A00A17A00F0DFFB072030560028C5
:1019600003DB2A00717A00F0D7FB082030560028EC
:1019700003DB2A00B17A00F0CFFB00232B6144F295
:101980004343C5F241230020AB605AE7B2783F2AB7
:1019900000D156E7002A00D153E7F2783F2A00D160
:1019A0004FE7002A00D05EE701204AE740F27A5074
:1019B00047E740F240221A433F2800D079E7002F42
:1019C00000D077E748F240221A4375E71B2038E73A
:1019D000F0797F2800D858E7307A7F2800D854E77C
:1019E0000B202EE7F42716310A40DA5596201539D8
:1019F00000F01CFB2B687279DA559EE70E2020E779
:101A0000F0B5DE4657464E464546E0B5040083B085
:101A1000002800D130E1002900D12DE144F24343F8
:101A20008268C5F241239A4200D02EE10A680092F2
:101A3000002A00D120E14FF600631700C9F60063C9
:101A40001F401A4200D017E140684A688578012D8E
:101A500000D110E1002A00D00EE1C023009EDB057A
:101A60001E40B446009E1E4200D019E14369019316
:101A70008B689946019B1B78002B00D124E14846D6
:101A8000009B13439843002800D0F5E04B46002B01
:101A900000D1F1E08B7C002B00D0EDE0CB689C46C0
:101AA000B3B11B89A3B140F6002005001D4085425B
:101AB00000D110E15B040BD5634658899B8998429D
:101AC00000D9D9E06346D8891B8A984200D9D3E06F
:101AD000894B00984D4618408046100046461840F5
:101AE0002B402568B6B2AE8086B2AE829EB22E8101
:101AF0004646000C360C1B0CEE80E8826B814EF2E1
:101B00000003C4F201031B6A9B465846000E82463E
:101B100041F2C45307205646C2F200031B68064038
:101B2000B3405E463040C34040F2E830B3FBF0F0D3
:101B300041F28833434344F24020C0F20F00B3FB2C
:101B4000F0F30133072B00D207230098024392469B
:101B5000802056468005024006420AD040F2DE0B45
:101B60005E46DAB2AA554A461040421E9041421CD7
:101B7000FF3280205646C00506420BD040F2DF0AF5
:101B80005646DBB2AB554B46034200D098E040F2DC
:101B900000231A43634692B26A82002B00D18DE083
:101BA0001B891A0534D59022AB52624650899C227B
:101BB000A852624690899E22A8526246126840F25C
:101BC000960A90B2814694204E462E524B4E100CEF
:101BD0003040B146564640F2920AA853032056467A
:101BE000520F0240AA556246526840F2980A96B2D5
:101BF000B3465646584640F29A0AA8534E46100C31
:101C000006405046520F2E52973810409322A85447
:101C10009A050ED562466046927CC07C0243A6209F
:101C20002A546246D089A822A8526246108AAA2263
:101C3000A8529022AB5280230A8AEA52019B1B7958
:101C40008BB11F222B88934399464346002B40D0EB
:101C5000404600F009FB4B461F331B1A9BB22B80FA
:101C6000A28A1343A38244F24343C5F24123E360B3
:101C7000009B236101E052B90127380003B0F0BC9A
:101C8000BB46B246A946A046F0BD0727F5E7009E31
:101C900033431A42F0D1C023DB051A42ECD1DCE613
:101CA0009C45E9D0144B009E1E42E5D1002DE3D1A6
:101CB000436901931B79002BDED1D9E60023B8E7F5
:101CC00040F202231A4365E74B46002B00D1E1E6C0
:101CD000D2E72020BFE76046857C1F20A8428041D4
:101CE000404280002D1A0120A84065462D6805421B
:101CF00000D1DFE6C0E7C046FFFFFF9FFF9FFFFF69
:101D0000F8B50400002800D173E044F24343826830
:101D1000C5F241239A4200D069E0002706254368B6
:101D20008760C7605D575E69002D51DA07255D57F2
:101D3000002D3EDA07257557002D2BDA082575573B
:101D4000002D1CDA0022002123681A821A80F43246
:101D50009954EFF31080012383F31088616846F6ED
:101D6000FC720C881021091B8B40C4F20402D56858
:101D70002B43D360D36880F310880020F8BD28007F
:101D800000F0B8F941F2B8530022C2F20003AD00EE
:101D9000EA50D7E7280000F0ADF941F2B85300222D
:101DA000AD00C2F20003EA5008257557002DC9DBCB
:101DB000E5E7280000F09EF941F2B8530022AD009B
:101DC000C2F20003EA5007257557002DB6DBE1E7A4
:101DD000280000F08FF941F2B853AD00C2F20003C1
:101DE000EF50072563685D57002DA3DBE1E707206F
:101DF000C4E70120C2E7C04610B50020FFF74AFC47
:101E000010BDC0464EF20003262240F25041C4F2FB
:101E10000103985C1B6A8000C2F2000141585B011B
:101E20005B0F41F2C452D940C2F200021160704708
:101E30007047C0464EF2000340F2FE325D49C4F2E4
:101E4000010370B599524CF2000240F200110020DB
:101E5000C4F20102505240F2504446F60042C2F22F
:101E60000004C0F2DC22226041F20022C0F27A02B9
:101E7000626048F2000241F60031A260226126222F
:101E8000C0F2B701E160995C1A6A89006158520199
:101E9000520F41F2C455D140C2F20005296040F210
:101EA000134200219954A2220921995440F2804200
:101EB0009A5C32B940F281429B5C9B07002B00D1B7
:101EC00073E04EF2000640F28043C4F20106F25C79
:101ED000002A5ED04EF20003002240F28141C4F29B
:101EE00001035A5401395A544EF20002A023C4F29D
:101EF0000102D35CCBB13623D35C1BB93C21535CCC
:101F0000DB07FCD54EF20002A021C4F20102535CB3
:101F1000DB06D80F002BFADB50544EF20002A02152
:101F2000C4F20102535CDB06FCD44EF20002002135
:101F30003623C4F20102D1543C31535CDB07FCD59B
:101F400001213123D154D033C1F2000313620020A8
:101F50002623D054D05C136A800020585B015B0FAD
:101F6000D840D1232860D15440F2FE331248D052D9
:101F70004CF2000240F20413C4F20102D1520431C7
:101F8000FF31535A002BFCD101210133FF33D152D1
:101F900070BD0132F2540121C82000F047F840F230
:101FA0008042B35C012BFCD194E740F2E830FFF7AC
:101FB0003FFF99E703A5FFFF00A5FFFF70B544F2BF
:101FC000000428230025C4F20404E5540121C8209C
:101FD00000F02CF824232422E554A35C002BFCD130
:101FE0000221A35C24200B43A35444F20002C4F258
:101FF0000402135C9B07D90F002BFADB2223D15478
:1020000044F200022221C4F20402535C002BFCD1F2
:1020100070BDC04620B1C023DB04036000207047C0
:102020000120FCE701380028FCD1704741F2C4527E
:102030004CF600234143C2F2000270B51468C3F6A7
:102040009A330D00B3FBF4F4080040F2E8320023A9
:10205000002100F027F931B9B0FBF4F0800808B195
:10206000FFF7E0FF70BDA000B5FBF0F040F2E832F2
:102070000023002100F016F90029F0D00120404291
:10208000FFF7D0FFEEE7C04646F2000340F2201211
:1020900070B500240126C4F200039D5A20329B5AD9
:1020A0001D402B00E3401E420AD041F28052C2F292
:1020B00000029446A30063441B680BB1E0B298474A
:1020C00001340D2CEDD146F2000340F23012C4F27F
:1020D00000039D5270BDC04646F20003C030800030
:1020E000C4F20003C25802490A40C250C3587047A4
:1020F000FFFFFEFF1F21012201408A404EF2001126
:1021000043092033CEF200019B005A50BFF34F8F9A
:10211000BFF36F8F7047C046F0B5C64690464EF28B
:102120000012FF240325CEF200029446220040F262
:1021300000370540ED008901AA400C40AC408308FF
:102140009B006344DE5900B596432643DE5141F2BD
:10215000B85342468100C2F200035A50030046F2CF
:102160000002C033C4F200029B0099580C4C21407D
:1021700099509B58BFF35F8F1F2201230240934069
:102180004EF20012CEF20002944640F28012400954
:10219000800060448350036080BCB846F0BDC046F8
:1021A000FFFFFEFF42F6BC43C0F20003197831B1D5
:1021B00046F2000340F20032C4F200039950704727
:1021C00030B5EFF31081012383F3108841F2BC5343
:1021D0004000C2F200031A5A1AB11A5A013A92B2D6
:1021E0001A521B5A83B94EF2000242F6C04340F223
:1021F000FE34C4F20102C0F20003155B185A044B0E
:102200002B4383439BB2135381F3108830BDC046E8
:1022100000A5FFFF70B5EFF31081012383F3108851
:1022200041F2BC524000C2F20002135A83B94EF28E
:10223000000442F6C04540F2FE36C4F20104C0F28A
:102240000005A35B2D5A2B434AF200552B43A353A1
:10225000135A01339BB2135281F3108870BDC046EC
:1022600000BE70477047C0461C2101231B049842E2
:1022700001D3000C10391B0A984201D3000A083917
:102280001B09984201D30009043902A2105C4018CE
:102290007047C04604030202010101010000000072
:1022A00000000000F0B54FF6FF750400CE462C404C
:1022B000474615400E002900994680B5130C0700CB
:1022C000000C61434543584363430C0C5B19E4180D
:1022D0008C46A54203D980235B0298464044230CD8
:1022E00061461B184FF6FF70084049465643794334
:1022F000240489192018C918C0BCB946B046F0BDDD
:10230000002310B59A4200D110BDCC5CC4540133F7
:10231000F8E710B50A22002100F0A4F810BD000073
:10232000014B18687047C046000000200300821867
:10233000934200D1704719700133F9E7F0B587B0C7
:10234000059002910392242B22D8012B20D04348E0
:10235000082584460800664604780131375D3E0052
:102360002E402F42F6D12D2C19D10C78811C012042
:10237000019010251800A843E8B9302C15D120266B
:102380000878B043582810D14C780231102312E05D
:10239000FFF7C6FF16230360002007B0F0BD0196CB
:1023A0002B2CE6D10C78811CE3E7002BEED10A330D
:1023B000302C00D1023B0198294D4619B6FBF3F7AA
:1023C000180000257843301A049028003022524229
:1023D0009446A4446246092A12D86446A34224DDE6
:1023E0006A1C0AD001256D42874206D302D1049AA5
:1023F000A24217DB0125584320180C780131E5E78C
:10240000412252429446A4446246192A01D8373CDC
:10241000E4E7612252429446A4446246192A04D851
:10242000573CDBE701256D42E7E76B1C09D122230E
:10243000059A30001360039B002BAED04B1E029315
:1024400007E0019B03B14042039B002BA5D0002D68
:10245000F4D1029B039A13609FE7C046C92C000089
:10246000FFFFFF7F10B513000A000100024800685B
:10247000FFF764FF10BDC046000000205465726D78
:10248000696E616C00000000284E554C4C2900001C
:102490002A2A2041444320436C6F736520415049F0
:1024A000206661696C6564202A2A20200D0A0000DC
:1024B0005B4552525D20496E2046756E6374696FAC
:1024C0006E3A20257328292C202573002A2A2044BF
:1024D000414320436C6F7365204150492066616918
:1024E0006C6564202A2A20200D0A0000312E30005D
:1024F0000D0A2A2A2A2A2A2A2A2A2A2A2A2A2A2A79
:102500002A2A2A2A2A2A2A2A2A2A2A2A2A2A2A2A2B
:102510002A2A2A2A2A2A2A2A2A2A2A2A2A2A2A2A1B
:102520002A2A2A2A2A2A2A2A2A2A2A2A2A2A2A2A0B
:102530002A2A2A2A2A2A2A2A2A2A2A2A2A2A2A2AFB
:102540002A2A0D0A2A20202052656E6573617320A5
:10255000465350204578616D706C652050726F6AEB
:1025600065637420666F7220725F646163204D6FD3
:1025700064756C6520202020202020202020202031
:10258000202020202020202020202020202020204B
:102590002020202A0D0A2A2020204578616D706CA9
:1025A000652050726F6A6563742056657273696F37
:1025B0006E20257320202020202020202020202075
:1025C000202020202020202020202020202020200B
:1025D00020202020202020202020202020202020FB
:1025E000202020202A0D0A2A202020466C657820F1
:1025F000536F667477617265205061636B20566516
:102600007273696F6E202025642E25642E25642048
:1026100020202020202020202020202020202020BA
:1026200020202020202020202020202020202020AA
:102630002020202020202020202A0D0A2A2A2A2A91
:102640002A2A2A2A2A2A2A2A2A2A2A2A2A2A2A2AEA
:102650002A2A2A2A2A2A2A2A2A2A2A2A2A2A2A2ADA
:102660002A2A2A2A2A2A2A2A2A2A2A2A2A2A2A2ACA
:102670002A2A2A2A2A2A2A2A2A2A2A2A2A2A2A2ABA
:102680002A2A2A2A2A2A2A2A2A2A2A2A0D0A526584
:1026900066657220746F20726561646D652E747852
:1026A000742066696C6520666F72206D6F7265209C
:1026B00064657461696C73206F6E204578616D701C
:1026C0006C652050726F6A65637420616E640D0AD8
:1026D00046535020557365722773204D616E7561A6
:1026E0006C20666F72206D6F726520696E666F7206
:1026F0006D6174696F6E2061626F757420725F64C2
:102700006163206472697665720D0A000D0A54686F
:10271000652070726F6A65637420696E697469619F
:102720006C697A657320616E642064656D6F6E7389
:1027300074726174657320444143206D6F64756CDD
:1027400065206F6E2052656E657361732052412063
:102750004D435573207573696E67204144432E0DB8
:102760000A557365722063616E20656E7465722010
:102770004441432076616C75652077697468696EA1
:10278000207065726D69747465642072616E67652E
:1027900028302D343039352920616E642074686505
:1027A0000D0A636F6E766572746564206F75747060
:1027B000757420697320676976656E20617320697E
:1027C0006E70757420746F20414443206368616E9D
:1027D0006E656C20302E0D0A414443206F75747075
:1027E00075742076616C7565206973207072696EEE
:1027F000746564206F6E2074686520525454204ABA
:102800006C696E6B5669657765722E0D0A00000063
:102810000D0A202A2A20494F504F52542050696EE9
:10282000636667206661696C6564202A2A200D0A48
:10283000000000000D0A52657475726E65642045D3
:1028400072726F7220436F64653A20307825782069
:10285000200D0A000D0A202A2A20444143204F70EF
:10286000656E20415049206661696C6564202A2AA2
:10287000200D0A000D0A202A2A20414443206D6FB2
:1028800064756C65204F70656E206661696C656467
:10289000202A2A200D0A00002A2A204144432053DE
:1028A00063616E43666720415049206661696C65CB
:1028B00064202A2A200D0A000D0A41444320436166
:1028C0006C6962726174696F6E20537461727465B1
:1028D00064200D0A000000000D0A202A2A2041442D
:1028E000432043616C6962726174652041504920E4
:1028F0006661696C6564202A2A200D0A00000000C8
:102900002A2A204144432043616C696272617465E4
:1029100020415049206661696C6564202A2A200D97
:102920000A0000000D0A4144432043616C69627251
:102930006174696F6E205375636365737366756C3C
:102940000D0A00000D0A456E7465722076616C7583
:10295000657320666F722044414320636F6E766515
:102960007273696F6E2E20496E7075742052616E9D
:1029700067653A3120746F20343039350D0A000014
:102980000D0A5573657220696E7075742076616CDE
:10299000756520666F722044414320636F6E7665D3
:1029A0007273696F6E203A20256400000D0A496E2B
:1029B00076616C696420496E7075742E2056616C66
:1029C00069642052616E67653A203120746F20344B
:1029D0003039352E20506C6561736520656E7465E5
:1029E000722076616C696420696E707574200D0ABE
:1029F000000000002A2A2044414320577269746570
:102A000020415049206661696C6564202A2A200DA6
:102A10000A0000002A2A2044414320537461727442
:102A200020415049206661696C6564202A2A200D86
:102A30000A0000002A2A20414443205363616E5358
:102A40007461727420415049206661696C6564202C
:102A50002A2A200D0A0000002A2A2044414320533C
:102A6000746F7020415049206661696C6564202A4A
:102A70002A200D0A000000002A2A2050726F636588
:102A80007373696E6720696E707574206661696C16
:102A90006564202A2A200D0A000000000D0A446106
:102AA000746120726561642066726F6D20414443D9
:102AB000206368616E6E656C3A2025640D0A000023
:102AC0002A2A204144432052656164204150492014
:102AD0006661696C6564202A2A200D0A00000000E6
:102AE000000000000000545452205245474745530F
:102AF00000000000160B0000D2090000D2090000FF
:102B0000D2090000D2090000D2090000D209000059
:102B1000D2090000D2090000D2090000D209000049
:102B2000BC0B0000540B0000D2090000D2090000C9
:102B3000D2090000D2090000D2090000D209000029
:102B4000D2090000D2090000D2090000D209000019
:102B5000D2090000340B0000D2090000D2090000A5
:102B6000F20B0000D2090000D40B0000D2090000D3
:102B7000D2090000160B00003031323334353637BD
:102B800038394142434445466461635F6465696E18
:102B9000697400006164635F6465696E6974000054
:102BA0006461635F6164635F6F7065726174696FB4
:102BB0006E7300006164635F73746172745F63615C
:102BC0006C6962726174696F6E00000068616C5FAD
:102BD000656E74727900000000000000E02B0000B8
:102BE00001000000010000000100000000000000E2
:102BF00000000000000000000000001800000004B9
:102C0000000F00DF0002FF004D1200000000000076
:102C1000142C000000013F3F000000DFDFFFFF0039
:102C2000120000002C2C0000000000000000010C2D
:102C30000100000000000100080100000000010682
:102C40000B010000000001060C0100000000000064
:102C50000102000000000104040200000400000062
:102C60000502000000400000060200000000010014
:102C7000000300000000010603030000000001063D
:102C80000403000000000113070400000000010C11
:102C900009040000000001040B0400000080010A88
:102CA0000005000000800000010500000000011385
:102CB0000E090000000001130F0900001C000000B5
:102CC0000100020008001000002020202020202009
:102CD00020202828282828202020202020202020CC
:102CE00020202020202020202088101010101010DC
:102CF0001010101010101010100404040404040428
:102D000004040410101010101010414141414141C1
:102D100001010101010101010101010101010101A3
:102D200001010101101010101010424242424242B3
:102D30000202020202020202020202020202020273
:102D4000020202021010101020000000000000001B
:102D50000000000000000000000000000000000073
:102D60000000000000000000000000000000000063
:102D70000000000000000000000000000000000053
:102D80000000000000000000000000000000000043
:102D90000000000000000000000000000000000033
:102DA0000000000000000000000000000000000023
:102DB0000000000000000000000000000000000013
:102DC0000000000000000000000000004275696C77
:102DD0007420776974682052656E65736173204151
:102DE0006476616E63656420466C657869626C65C3
:102DF00020536F667477617265205061636B616701
:102E0000652076657273696F6E20362E302E300025
:0C2E1000362E302E3000000000000006BE
:042E1C00F8B5C046FF
:042E2000F8B5C046FB
:042E24001105000094
:042E2800E1040000C1
:040000030000008178
:00000001FF
