:10000000480E0020F12A0000DD290000ED2A000042
:10001000ED2A0000ED2A0000ED2A0000000000009B
:10002000000000000000000000000000ED2A0000B9
:10003000ED2A000000000000ED2A0000ED2A00007B
:100040002D16000055170000C5220000F123000006
:100050009D2400003D2500008927000000000000CD
:100060000000000000000000000000000000000090
:100070000000000000000000000000000000000080
:100080000000000000000000000000000000000070
:100090000000000000000000000000000000000060
:10040000FFFFFFFFDFCEFFFFFCFF0F00FFFF0F002E
:10041000FCFF0F00FFFF0F00FCFF0F00FFFF0F00AE
:10042000FCFF0F20FFFF0F20FCFF7F40FFFF7F40FE
:10043000FCFF0D40FFFF0D40FFFFFFFFFFFFFFFF31
:10044000FFFFFFFFFFFFFFFFFFFFFFFFFFFFFFFFBC
:10045000FFFFFFFFFFFFFFFFFFFFFFFFFFFFFFFFAC
:10046000FFFFFFFFFFFFFFFFFFFFFFFFFFFFFFFF9C
:10047000FFFFFFFFFFFFFFFFFFFFFFFFFFFFFFFF8C
:10048000FFFFFFFFFFFFFFFFFFFFFFFFFFFFFFFF7C
:10049000FFFFFFFFFFFFFFFFFFFFFFFFFFFFFFFF6C
:1004A000FFFFFFFFFFFFFFFFFFFFFFFFFFFFFFFF5C
:1004B000FFFFFFFFFFFFFFFFFFFFFFFFFFFFFFFF4C
:1004C000FFFFFFFFFFFFFFFFFFFFFFFFFFFFFFFF3C
:1004D000FFFFFFFFFFFFFFFFFFFFFFFFFFFFFFFF2C
:1004E000FFFFFFFFFFFFFFFFFFFFFFFFFFFFFFFF1C
:1004F000FFFFFFFFFFFFFFFFFFFFFFFFFFFFFFFF0C
:1005000010B540F22004C2F20004237863B940F22F
:100510000003C0F200032BB143F2DC60C0F2000024
:1005200000E000BF0123237010BDC04640F200036D
:10053000C0F2000310B54BB140F2240143F2DC607D
:10054000C2F20001C0F2000000E000BF10BDC046D2
:10055000F8B58368C568CE4699465B1B4746984602
:100560004368040080B50E0017005819904507D95C
:10057000ED1902F07FFBE5600CBC90469946F8BD92
:10058000424602F077FB4B463100ED19ED1A2A0086
:100590006068414402F06EFBE560EDE7F8B5474660
:1005A000CE46884680B51600070040F20009C568AF
:1005B00084681AE0013B5B1B641BB44200D9340021
:1005C0009C4200D91C007B6822005819414602F069
:1005D00051FB2D19A144A044361BBC68631B5A1E55
:1005E00093415B421D40FD6036B13B699D42E1D3C2
:1005F000013B1B195B1BDFE748460CBC9046994644
:10060000F8BDC04610B540F2A844032342F6B042FC
:10061000C2F200042361636140F24C03C0F20002A5
:10062000A261226640F23C02C2F20003E36140F2A2
:100630000043C2F20002626642F6BC41102223620D
:100640000023A266E01DC0F200010C3AA3626362BF
:10065000E3622367E366636702F00CFB42F6C04384
:10066000C0F200031A6822609B88A3802023A37134
:1006700010BDC046431C70B504005800C01840F2BD
:10068000A843C2F200039C4663001B19DB006344CD
:10069000DC6AC00015006044012C05D0022C1ED07D
:1006A00084B10024200070BD9A6A5C6AA2421FD9FE
:1006B000013A121B2C00954200D914002200FFF7CA
:1006C00047FFEFE79A6A5E6AB2420CD9013A921B81
:1006D0009542E7D82A00FFF73BFF2C00E2E7FFF73F
:1006E0005DFF0400DEE71B6AD218013A921BEFE7B8
:1006F0001B6AD218013A121BDCE7C046F8B540F27B
:10070000A843C2F200031B7804005BB20D00160080
:1007100063B1EFF31087012181F3108832002900C3
:100720002000FFF7A7FF87F31088F8BDFFF76AFFE7
:10073000EFE7C04610B5040083686268581C904219
:1007400007D82268D154E36862680133E36003008C
:10075000A0609A4200D010BD21682069FFF7CEFF4B
:10076000A368984203D001235B42E360F3E70023D0
:10077000A360F0E7F8B557464E464546DE46E0B57D
:100780001E000A9B0F00814615009A460B9997425E
:1007900000D26FE03B000122B3FBF5F301329D4232
:1007A000FAD99046B24200D2B04601231A000A405C
:1007B00093460B4240D15346002B3DD020248B075B
:1007C00051D4D04538D201235B429C462100484693
:1007D000E244FFF7AFFF4B46DB68002B26DB5346B6
:1007E000002BEED10124012E03D9013E6C43012ED2
:1007F000FBD8B7FBF4F39D42F8D942F64C56C0F251
:10080000000606E0B4FBF5F3AC420DD31C00B7FBC9
:10081000F3F322005A43F1564846BF1AFFF78AFF06
:100820004B46DB68002BEDDA5B46C3B93CBC904617
:100830009946A246AB46F8BD4B46DB68002BD1DAA1
:10084000F4E7D045F2D201235B429C462021484682
:10085000E244FFF76FFF4B46DB68002BE6DB5346B5
:10086000002BEED1E2E774427441634210241C4035
:100870002034A6E7012294E7F0B55746DE464E46FF
:100880004546E0B59DB00CAB079340230893002389
:1008900083460C00914640F2010AB94F09930B9030
:1008A0000A9305E007A8FFF745FF0A98002861DBD7
:1008B000002161560134002963D02529F2D122009C
:1008C0000023D356002602250820140021392D2BA1
:1008D0000DD02D2B0FDC232B12D02B2B00D059E168
:1008E0000E4301320023D35614002D2BF1D1534671
:1008F00001321E43F6E7302B05D12E430132F1E7DA
:1009000006430132EEE71A00303AD2B20025092A36
:100910000FD81900AB005B195B005B180021013494
:100920006156303B0A00303AD2B21D00092AF1D993
:100930000B002E2B00D1D4E0002340F20008E35638
:10094000042102E000230134E3561A008A43682A96
:10095000F8D0252B06D0583BDBB2202B06D89B00C5
:10096000FB589F46252107A8FFF7E4FE0A980134AB
:1009700000289DDA1DB03CBC90469946A246AB4685
:10098000F0BD0A980028F5DD099A002A00D0C7E0DA
:100990008018EFE74B4649461B6807A81A1D0A60F6
:1009A00019680A22434601960095FFF7E3FE0134D9
:1009B0000A98DDE74B4649461B681A1D0A601D6808
:1009C00005E007A8FFF7B6FE0A980028CFDB002154
:1009D000695601350029F4D10A98C8E74B464946C3
:1009E0001B6807A81A1D0A601968002301930833C1
:1009F00010220093FFF7BEFE01340A98B8E74B4679
:100A000049461B681A1D1B680A60DA1703939B1876
:100A100053400122092B06DD0A201900013293FB05
:100A2000F0F36329F9DC43460493904500D27FE05C
:100A3000002D51D0039B002B00DA7DE073077BD49F
:100A4000B30702D54346002B46D05346334243D129
:100A5000002D41D00596049EAE423CD207A820212D
:100A6000FFF768FE0A98013D002800DA7FE7002DB5
:100A7000F2D1059E039B002B60DB730769D403232F
:100A80003340022B6AD007A843460A2203990196F5
:100A90000095FFF76FFE01340A9869E74B46494617
:100AA0001B6807A81A1D0A6000215956FFF742FE6D
:100AB00001340A985CE74B4649461B6807A81A1D93
:100AC0000A6019681022434601960095FFF752FE0E
:100AD00001340A984CE7059E0A980028CADA0134C6
:100AE00046E70123E356611C1A00303AD2B20C00EB
:100AF00040F20008092A00D922E719004046830085
:100B00001B185B005B18002101346156303B0A0062
:100B1000303AD2B21800092AF1D90B0080460FE70B
:100B200058460CA9FFF7EAFD0A98099A801821E7B0
:100B30000492002DD0D07DE7013D81E75B422D215D
:100B400007A80393FFF7F6FD0A98002897DA013407
:100B50000EE72B2107A8FFF7EDFDF5E74346002B35
:100B600091D1ADB1049BAB420CD207A83021FFF765
:100B7000E1FD0A98013D0028F3DA0134F8E6C046A9
:100B8000C82C00000A98002800DB7CE70134EFE65F
:100B9000002578E70025CFE60EB400B582B003ABA0
:100BA00002CB01AA0193FFF767FE02B008BC03B0B5
:100BB0001847C046002310B584B003AC200003934F
:100BC00001F0D2FE6278E3780192A27842F6605199
:100BD000009242F65C52C0F20001C0F20002002016
:100BE000FFF7DAFF42F63C710020C0F20001FFF788
:100BF000D3FF00F099F8040048BB00F009FB0400A3
:100C0000002840D100F052F904000028FAD0012059
:100C100000F02CF943F25C1343F2A01243F2F0010E
:100C2000C0F20003C0F20002C0F200010020FFF792
:100C3000B3FF00F09BFA00F0D1FA43F20C1122004E
:100C4000C0F200010020FFF7A7FF00BEDAE743F281
:100C5000C00343F2A01243F2F001C0F20003C0F25D
:100C60000002C0F200010020FFF796FF012000F013
:100C7000FDF843F20C112200C0F200010020FFF742
:100C80008BFF00BEB9E743F22C1343F2A01243F2EC
:100C9000F001C0F20003C0F20002C0F20001002027
:100CA000FFF77AFF00F062FA012000F0DFF8C4E7F6
:100CB00010B5022800D010BD43F21C6140F2505024
:100CC000C0F20001C2F2000000F08EFFF3E7C04660
:100CD00043F2D063F0B5C646C0F200031F8800B5EA
:100CE0005D68EFB143F2A8530024C0F200031E6810
:100CF0006300EA189046E95A0122300000F00EFE27
:100D000040F2E83140F25E1001F03AFE4346002224
:100D10001988300000F002FE631CDCB2BC42E7D34D
:100D200004BC9046F0BDC04643F2EC5140F2805006
:100D300010B5C0F20001C2F2000000F047FB040051
:100D400048BB43F2C85140F25850C0F20001C2F211
:100D5000000001F0E1F8040008B9200010BD43F2E2
:100D6000CC1343F2185243F2F0010020C0F200030A
:100D7000C0F20002C0F20001FFF70EFF40F2805007
:100D8000C2F2000000F0A8FA0028E6D043F2EC130B
:100D9000C0F2000303E043F2AC13C0F2000343F2DD
:100DA000185243F2F001C0F20002C0F2000100202C
:100DB000FFF7F2FED1E7C04628B140F24C4302797A
:100DC000C2F200031A70704710B548B1037A042BC1
:100DD0001AD0052B05D040F25442C2F20002137023
:100DE00010BD40F2604140F258500622C2F20001AC
:100DF000C2F2000001F08AF80028F1D040F250431E
:100E0000C2F200031860EBE740F2584140F258503C
:100E10000622C2F20001C2F2000001F071F80028BF
:100E2000DED040F25043C2F200031860D8E7C0465B
:100E300010B14368062B00D0704740F26643C2F2FF
:100E400000031A7842B940F200020221C2F2000205
:100E5000117001221A70EFE740F200020121C2F284
:100E60000002117000221A70E6E7C04643F2D06318
:100E7000F0B5C646C0F200031E88050000B55F68E5
:100E800086B143F2A853C0F200031B6800249846C1
:100E90006300D95B2A00404600F040FD631CDCB2D1
:100EA000B442F5D304BC9046F0BDC046F0B5C6468A
:100EB00040F2000300B5C2F200031A7882B0D1B24A
:100EC000012A00D179E00026022971D103220020F5
:100ED0001A70FFF7CBFF43F2444340F258406F468D
:100EE000C0F200031A68002100929B880622C2F219
:100EF0000000BB8040F24C4401F0C5FE40F2544576
:100F000040F28050002306223900C2F20004C2F2EF
:100F10000005C2F2000026702E7000F007FA4FF6AE
:100F2000FF73060030BB40F25042C2F2000210E0F4
:100F30002978012900D18FE02178012900D18BE0A7
:100F40001168002900D0AFE0013B9BB2002B00D11B
:100F5000E5E021780329EBD129780229E8D140F294
:100F60005843C2F200031A6800998A4200D1D0E0C7
:100F700012260EE043F20C2343F2685243F2F001D2
:100F80000020C0F20003C0F20002C0F20001FFF72F
:100F900003FE43F2C823C0F2000343F2385243F287
:100FA000F0010020C0F20002C0F20001FFF7F4FDE2
:100FB000300002B004BC9046F0BD032200201A703D
:100FC0006F46FFF753FF002340F260480093BB8059
:100FD00040F25843C2F200084146C2F200031868CA
:100FE00040F24C4440F254450860002240F28050E8
:100FF0009B88C2F20004C2F200058B80C2F200009E
:10100000227000232A703900062200F0B5F94FF64D
:10101000FF730600002865D140F25042C2F2000280
:101020000DE02978012929D02178012926D01168DD
:10103000002948D1013B9BB2002B00D180E02178F0
:101040000229EED129780329EBD14346009A1B6887
:101050009A4257D0122622E043F23C2343F26852D0
:1010600043F2F0010020C0F20003C0F20002C0F21F
:101070000001FFF791FD40F22C168AE743F25C3342
:1010800043F2545243F2F0010020C0F20003C0F2D8
:101090000002C0F20001FFF77FFD40F22C1643F280
:1010A000E033C0F2000378E7002113681160002BE1
:1010B00057D1FFF70DFE43F2FC210020C0F20001E2
:1010C000FFF76AFD74E7002113681160002B4AD115
:1010D000FFF7FEFD43F210410020C0F20001FFF7D0
:1010E0005BFD65E743F2343343F2545243F2F001BF
:1010F000C0F20003C0F20002C0F200010020FFF7BE
:101100004BFDCCE74346BA889B889A42E0D0122632
:10111000C5E79A88BB889A42CBD0122639E743F2BA
:10112000802343F2685243F2F0010020C0F2000332
:10113000C0F20002C0F20001FFF72EFD142628E7DE
:1011400043F2983343F2545243F2F0010020C0F2CC
:101150000003C0F20002C0F20001FFF71DFD1426DB
:101160009DE71E0015E71E0099E7C04640F280503B
:1011700010B5C2F2000000F0AFF838B940F2585094
:10118000C2F2000000F02CFEB8B910BD43F24C438F
:1011900043F2805243F2F0010020C0F20003C0F29B
:1011A0000002C0F20001FFF7F7FC40F25850C2F213
:1011B000000000F015FE0028E7D043F2784343F228
:1011C000805243F2F001C0F20003C0F20002C0F20C
:1011D00000010020FFF7E0FCD7E7C04640F2B45022
:1011E00010B5C2F2000001F0A1FA00B910BD43F23F
:1011F000A04343F2945243F2F001C0F20003C0F264
:101200000002C0F200010020FFF7C6FCEEE7C04676
:1012100043F2B45140F2B45010B5C0F20001C2F232
:10122000000001F0D9F90400D8B940F2B450C2F27C
:10123000000001F047FA040008B9200010BDFFF7D4
:10124000CDFF43F2F043C0F2000343F2285243F2D1
:10125000F001C0F20002C0F200010020FFF79CFC88
:10126000EBE743F2CC43C0F20003EEE710B5FFF723
:10127000A1FC002010BDC04600232C228354C2696B
:101280002B2102622A2210B533244362825C42542D
:10129000043143540231435403552D33C35C0BB125
:1012A00001234354B421036999708439445C14B90F
:1012B0005122DA7210BD00244454012A09D0292198
:1012C000415CD9702B23013AC25401220133C2542C
:1012D000F0E72821415CF4E730B343F24323C268CE
:1012E000C5F249339A421DD10023F021026993705F
:1012F0009370D172302203628354063A815C0232C9
:101300008154C269C360036842621878802347F23F
:1013100000021B06C3400020C4F2040211680B4304
:10132000136070470720FCE70120FAE710B500B30F
:101330002E240355E9B143F24323C468C5F249336F
:101340009C4214D1037A8161C261012B08D1292208
:101350000021815442682831520042542A22835489
:101360002D230022C254FFF787FF002000E0072052
:1013700010BD0120FCE7C04610B5B0B1AAB12E24C3
:10138000035591B143F24323C468C5F249339C42EB
:1013900019D1037A8161C261012B08D02D2301226A
:1013A000C254FFF769FF002000E0012010BD292290
:1013B000002181540121426852000A4328214254ED
:1013C0002A228354EAE70720F0E7C046F0B5DE465C
:1013D00057464E464546E0B5030083B0002800D18D
:1013E00015E1002900D112E14E6A002E00D10EE174
:1013F000CA69002A00D10AE148F2A0624C68C0F232
:101400000102944207D041F68022C0F20602012078
:10141000944200D0FCE00F228A56002A00DAF6E05F
:10142000102008560090002800DAF0E043F2432034
:10143000DD68C5F24930854200D1F3E0307884465A
:10144000002800D1EBE00325F07875578046012095
:10145000002D00DBDCE0087843F600078246C0F28E
:101460000027886857447F011F6158601960087B16
:101470005546187247F20000C4F20400046840F2B6
:10148000FA09A34680242406EC405D46A543056086
:101490000020F025B870FD72B478ED3D2C403C7012
:1014A0004C46BC7174787C706446A400A446202429
:1014B000A14664464D462C43E4B2FC71747940F277
:1014C00000393C724446BC740124A4466446367913
:1014D000F60026434EF20014F6B27E722326CEF2B8
:1014E0000004A4464C46BE72787303279608B600E3
:1014F000664434591740A446FC00A046FF274546E1
:101500003C00AC40A24664465546497BAC43890149
:101510003940A44645460C00AC40A04664464546CA
:101520002C43A44640F2C85865464C46C2F2000817
:1015300040F2C00C35514446960094443351644601
:1015400046F20006A400C4F20006A446364DA45993
:101550002C40A2466446554640F21F0CA5516446F5
:101560001440A24601245546AC40A3464EF2001456
:10157000CEF20004A24652099200524440F2801A70
:101580005D46544615514EF20014CEF20004A346B7
:101590004C461560009DAA0892005A4414590192C5
:1015A00003222A40D500AF40A940BC4321434C460A
:1015B000019A1D4D11514146009CA200535022003A
:1015C000C032920091592940915162460121224036
:1015D00091400A004EF20011CEF200018C465146B5
:1015E0006409A4006444625022602D229861D8618D
:1015F000186258629854013298540132985401325A
:10160000985443F24322C5F24932DA6000E00120E7
:1016100003B03CBC90469946A246AB46F0BDF0787C
:10162000804618E70E20F3E7FFFFFEFF30B5EFF32B
:10163000038346F20002103B5BB2C033C4F20002E7
:101640009B009958424801409950EFF3038340F2C0
:10165000C852103B5BB2C2F200029B009B58196952
:101660000A7BD207D40F02BB2A202C329A5C185C6A
:1016700090420FD02D20185C08B1022A45D02820B6
:10168000185C0132C8702B20195C013919542C21C7
:101690005A5430BD1A6A5ABB2E229A5C6AB1522241
:1016A000CA720121223A9954F3E72D229A5C3AB981
:1016B000002201201A622F3298545423CB72E8E79B
:1016C00031229A5C002AF3D14A79586A99690A54FE
:1016D0001A6A013A1A625A6A01325A622E229A5CD6
:1016E000B2B152221969CA720121223A9954D0E743
:1016F0002D20185C80B131201D5CB5B11C54012A2D
:1017000021D98C72FF24CC70C3E75223CB72C0E77F
:1017100054221B69DA72BCE7586A9C69013A245C5E
:1017200001301A625862CC70B3E74A79586A9969F5
:10173000FF240A541A6A596A013A013159621A623D
:101740001969012ADFD12023FF248B72CC70A0E716
:10175000FFFFFEFF30B583B0EFF3038340F2C852C2
:101760000820103B5BB2C2F200029B009B581A6932
:10177000D17A8143D1722F21595CD1B1F0211B68FC
:10178000D1721A6A6946009201220A716846DB69C1
:101790009847EFF3038346F20002103B5BB2C0337D
:1017A000C4F200029B00995822480140995003B0AE
:1017B00030BD2A21585C0231595C884214D1186A24
:1017C0000028E6D12D21595C4C42614130241D5D39
:1017D00002312DB3D0721B6868461A6A00926A46BD
:1017E0001171DB699847D4E771B901281ED029200F
:1017F000185C0024D472D0702B201A5C0131013A9D
:101800001A542C229954C4E72D201C5C0020002C73
:10181000EFD00229EDD101242930185C2043E8E7FC
:10182000F020D0729078A0439070D4E72730185CF5
:10183000DFE7C046FFFFFEFF60B145F254230268B8
:10184000C5F24F039A4203D1002303600020704782
:101850000720FCE70120FAE730B140F20013C0F2A4
:1018600000130360002070470120FCE7062070474A
:1018700010B5B8B145F254230068C5F24F03984241
:1018800012D17AB1FF2040F600040B0A084019017A
:1018900009180020C4F2040489000B599B07DB0FD0
:1018A000137010BD0120FCE70720FAE790B145F264
:1018B00054230068C5F24F0398420DD152B1002362
:1018C000C4F204039C460020090A490161444B68A4
:1018D000138070470120FCE70720FAE710B5D0B16C
:1018E00045F254240068C5F24F04A0420FD183B1E1
:1018F0000020C4F2040084461800904300041A40FB
:1019000002430020090A490161448A6010BD072092
:10191000FCE70320FAE70120F8E7C04600B345F2F0
:1019200054230068C5F24F03984213D1012A15D8F9
:10193000FF2001230840834072B14FF6FF7213402D
:101940000022C4F204029446090A490161440020BD
:101950008B6000E0072070471B04F1E70320FAE7E3
:101960000120F8E710B5E0B145F254240068C5F253
:101970004F04A04211D193B10020C4F20400844668
:101980001000090A490161440C681840204380B2E4
:10199000934398430860002010BD0720FCE7032014
:1019A000FAE70120F8E7C046B0B145F254230068D9
:1019B000C5F24F03984211D172B1090A4B1E032B95
:1019C0000ED80023C4F204039C4600204901614460
:1019D0004B681B0C138070470120FCE70720FAE7D7
:1019E0000320F8E710B500B345F254230068C5F2B0
:1019F0004F0398421BD1C2B10B0A581E03281BD8B3
:101A00000020C4F2040084465B016344586801244A
:101A1000FF23194023008B40000C99B203409942E8
:101A200007D000230020137010BD0120FCE7072021
:101A3000FAE700201470F7E70320F5E710B5E8B1E6
:101A400045F254240068C5F24F04A04214D18BB172
:101A5000090A481E03280DD80020C4F20400844659
:101A600018009043000413400343002049016144DF
:101A7000CB6010BD0320FCE70720FAE70120F8E760
:101A800010B5002831D045F254230068C5F24F0349
:101A900098421AD1012A16D80B0A581E032812D8C8
:101AA0005B01012A13D00022C4F204029818FF231C
:101AB0008022194052028A40C4682243120C120448
:101AC000C260002000E0032010BD0720FCE70020DA
:101AD000C4F204001818FF2319408A404FF6FF7320
:101AE000C4681A4022431A40EAE70120ECE7C046E6
:101AF000F0B5DE4657464E464546E0B583B0EFF3B7
:101B00001082012383F3108840F2C453C2F2000311
:101B100001931B6833B940F60054C4F20404E37027
:101B20004033E370019C23680133236082F3108803
:101B30000388C3B30B6840F60004984680235B0219
:101B40009C46284B00229A46C4F204040DE0330A56
:101B50009946FF231E404B461B019B199B001951C0
:101B60000132038892B293421DD96346D1004144A9
:101B70008E8809681942EAD0330A9946FF231E402D
:101B80004B4657461B019D19AD00A9462D593D40B6
:101B9000AB464D465F462F5155460D40AB464D4630
:101BA0005F462F51D9E7EFF31082012383F31088AA
:101BB000019B1B681BB101990B68013B0B60019BEA
:101BC0001B6833B940F60051C4F20401CB70803376
:101BD000CB7082F3108803B03CBC90469946A24675
:101BE000AB46F0BDFFFFFEFF030010B508007BB160
:101BF00071B14A6862B145F254221968C5F24F02C8
:101C0000914207D0011D1A60FFF772FF002010BD3E
:101C10000120FCE70E20FAE7030010B5080073B1BD
:101C200045F254221B68C5F24F02934209D131B1EB
:101C30004B6823B10431FFF75BFF002010BD01208A
:101C4000FCE70720FAE7C046F0B5002851D045F27E
:101C500054230068C5F24F03984248D1EFF3108037
:101C6000012383F3108840F2C454C2F200042368B5
:101C700033B940F60055C4F20405EB704033EB7005
:101C800023680133236080F31088FF23080A19407A
:101C9000D3031ED4030140F600005B18C4F2040015
:101CA0009B001A50EFF31082012383F310882368FE
:101CB00013B12368013B2360236833B940F6005118
:101CC000C4F20401CB708033CB7082F31088002003
:101CD000F0BD40F6000503015818C4F20405800069
:101CE0004759054E3740164047514651D3E7072024
:101CF000EEE70120ECE7C046FFFFFEFF826803002D
:101D0000A02030B500240125D07180381C54033048
:101D10001C54507985B0A84350712520185C80B1BF
:101D200054721A6801A8946901720194DC69002157
:101D300044600224D96121315C545369984705B04D
:101D400030BDDF20107040381070EAE740F2010C1F
:101D5000F0B5C64662462023040040F2210800B5D3
:101D60000D00C25401688368B232DA718A6984B0A6
:101D70000192E269022702924246664601A8A754F0
:101D800005725A79B2435A714B6998470121A36889
:101D9000DF705A790A435A714246A25C012A15D073
:101DA0002122A25C1AB104B004BC9046F0BD052DFE
:101DB000F9D12422A15C0029F5D10C20597A814364
:101DC0005972BF21D9710123A354ECE7FB212A1FCB
:101DD0000A42E5D12422A15C0029E4D1EDE7C04606
:101DE00070B5002859D044F253334268C4F6321318
:101DF0009A4250D100230F2182684360D371036857
:101E00001F22595601231D004C0911408D404EF2EE
:101E100000112034CEF20001A4006550BFF34F8FB3
:101E2000BFF36F8F0C251E00046865576C091540C1
:101E3000AE402034A4006650BFF34F8FBFF36F8FC6
:101E40000D251E00046865576C091540AE4020340E
:101E5000A4006650BFF34F8FBFF36F8F0E25046849
:101E600065576C092A401D009540220020329200DF
:101E70005550BFF34F8FBFF36F8F016847F20002D9
:101E800008780921091A8B400020C4F20402146862
:101E90002343136070BD0720FCE70120FAE7C0462A
:101EA00070B540B339B344F253344568C4F63214C4
:101EB000A5421ED12125445DE6B2022C1DD1C16090
:101EC0000261426143550022242310248261C254DE
:101ED000836819792143082419711979A1430124D0
:101EE0001971DE705979214359712523C25400209C
:101EF00070BD0720FCE70120FAE70820F8E7C0469C
:101F000010B50123FFF7CCFF10BDC04610B500236C
:101F1000FFF7C6FF10BDC046F0B5DE4657464E4639
:101F20004546E0B585B0002800D1A9E1002900D1DF
:101F3000A6E1CD69002D00D1A2E14B69002B00D1B3
:101F40009EE10C23CB56002B00DA99E10D228A5634
:101F50000192002A00DA93E10E240C57002C00DADB
:101F60008EE10F228A569446002A00DA88E144F274
:101F700053364268C4F63216B24200D19EE144F2B2
:101F800040264A68C0F20F06B24200D178E147F21B
:101F9000000B0A78C4F2040B91465A4640F2090A33
:101FA00012684F46904640F230565246C0F2400604
:101FB000D21B92464E4440F2010957464A46BA4067
:101FC000914642464F4640F22408BA435F463602E5
:101FD000866001603A604246002740F21F0987543C
:101FE000AA7890464A4640F25F0932704A4640F26B
:101FF000DF0932704A4632708A7A012A00D147E1FD
:10200000062740F2010A0A899146D2091740524632
:1020100017434A46F772D7B2B772012291464A4631
:10202000CF7AFF001743FFB2B77142460227F7701D
:10203000002A00D132E140F2E0097D274A4677715B
:102040006F78174337742F7870253F013D4008277C
:102050003D43B5704546013DEAB290464246327175
:10206000624697084EF20012A025CEF2000290467A
:1020700040F20032F571BF00013D35704744BA5857
:102080000326914662461640F200FF269640097CE0
:102090006035890129400D0031004E4690468E433F
:1020A00031002A004646B2406646114340F20032F3
:1020B000029540F2C855B950B100C026C2F20005E1
:1020C000485146F200016644B600B0460395C4F29A
:1020D0000001765847463200794E40F2010B3240FB
:1020E0007A5067461F223A4090465A464746BA40C1
:1020F00067467F09BF00BC464EF20017CEF20007CC
:10210000B9469046CC4440F28019674645464A4657
:10211000BD50654647462F60019F8132BD08AD0026
:10212000AC464EF20015CEF20005A846C444654602
:10213000FF32AD5803223A40A846D500FF22474659
:10214000AA409743029AAA406546174340F20032DC
:10215000AF50019F40F2C00CB846039ABD00C44482
:10216000A8506546AD00AC466D583A002F00654654
:1021700037406F501F271740BC465F466546AF404B
:102180004EF20015CEF20005A8464D4652099200C7
:10219000424440F20036575117600327A2089200CC
:1021A000424495592740AC46FD00FF27AF40BA4650
:1021B000A84667465546AF434546029EAE40374364
:1021C00040F200369751039FA200D0512200C03246
:1021D000920055583A4E2F004EF200153740575096
:1021E0001F225F46CEF20005AC46224097404D4686
:1021F0006409A4006444675127600327FF269A08F6
:10220000920081356244FF351F405459FD00AE40B5
:10221000B443029EAE4040F2003534435451039D16
:102220009A0050511A00C03292005458244E344043
:1022300054501F2259461A4091400A004EF2001194
:10224000CEF200018C4649465B099B0063445A501C
:102250001A6000232522C3600361436183618354B4
:1022600044F25332C4F63212426021227F39FF39E0
:10227000815402328354033A8354C361002000E046
:10228000012005B03CBC90469946A246AB46F0BD45
:10229000F7720F897F00FFB2B772BEE640F2E00925
:1022A0005D274A4677716F78174337742F7870250A
:1022B0003F013D4008273D43B570CFE60E20E0E7E3
:1022C000FFFFFEFF70B584B0EFF3038346F2000218
:1022D000103B5BB2C033C4F200029B0099584348E4
:1022E00001409950EFF3038340F2C852103B5BB2B8
:1022F000C2F200029B009C582323E25C7AB9694633
:102300000132E254A368DA7CD2B28A708A7808215A
:102310005A7A8A435A72A822DA7104B070BD202317
:10232000E35C4BB9A3682000197A0907CB17042195
:1023300019400431FFF70AFD2125635DDAB2012B54
:102340000DD0A36810211A790A4308211A711A794D
:102350000A4310211A711A798A431A71DDE7236939
:1023600033B96946A368DA7CD2B2CA70CA78E9E7A1
:10237000A1698B4209D04B1CA361A368E268DB7C96
:102380005354E3690133E361C7E722230021E15499
:10239000216868468B6902260193E369029306234C
:1023A00003736655A0684379934343714B6901A851
:1023B00098470121A368DE705A790A435A71625D19
:1023C000012ABFD1226932B96946DA7CD2B20A71D8
:1023D0006A461279B6E7A269511CA161DB7CE1680B
:1023E0008B54E3690133E36197E7C046FFFFFEFFCB
:1023F00070B5EFF3038346F20002103B5BB2C033CB
:10240000C4F200029B009958234801409950EFF311
:10241000038340F2C852103B5BB29B00C2F2000241
:102420009C582023E35C83B12123E35C63B9A36957
:1024300022699A420ED0E268A168D25C01338A74A4
:10244000A361E3690133E36170BD05212000FFF75B
:102450007DFCE9E70E22236846F200019A56C4F299
:1024600000011300C0339B0058580B4D28405850B2
:10247000002A0BDB1F215309114001228A404EF232
:1024800000116033CEF200019B005A504021A26837
:10249000D3790B43D371D7E7FFFFFEFFF0B585B0CB
:1024A000EFF3038340F2C852103B5BB2C2F200026A
:1024B0009B009C58A3681A79520718D4216801A878
:1024C0008A6921250192E2690226426007220127DA
:1024D000665502725A79BA435A714B69984701217D
:1024E000A368DE705A790A435A71625DD2B1402105
:1024F000DA798A43DA71C02201E0013A12B1D9795E
:102500004906FAD4EFF3038346F20002103B5BB2B4
:10251000C033C4F200029B0099580748014099500B
:1025200005B0F0BDA269E168895C01329974A261CD
:10253000E2690132E261DAE7FFFFFEFF00B583B036
:10254000EFF3038340F2C852103B5BB2C2F20002C9
:102550009B0098588268537AD9B29B072FD10C23DD
:102560000B4220D001221933C254043BC35C012B1F
:102570002CD0036982690321934202D9C369013BCC
:10258000C361FFF7BBFBEFF3038346F20002103B8E
:102590005BB2C033C4F200029B0099580D48014061
:1025A000995003B000BD10230B42ECD06846D17C9B
:1025B000C9B2C171C179D1799943D171E3E72523BA
:1025C00000220121C254FFF799FBDCE70221FFF74B
:1025D00095FBD8E7FFFFFEFFF0B5D6464F464646CF
:1025E000C0B5002864D044F255330268C0F24903F4
:1025F0009A4262D000295BD0FF230A78D340DB07E0
:1026000058D58B6813B14C78FF2C58D002254D5704
:1026100046F20006AC00A44640F2003440F2000945
:10262000C4F20006057166443759B246B8464F46B3
:1026300037518360CB6846F20007C3604B46C4F253
:1026400000074271BB540B79CE781B0133434E799E
:10265000DBB2F6013343DBB2BB544346524613515F
:10266000002D1ADB4EF20013CEF20003984603232E
:10267000AA081D404B78FF21ED009B010B40A940AB
:10268000AB409200424416598E433343135140F2FB
:10269000C8536246C2F20003D05044F25533C0F230
:1026A0004903036000201CBC90469946A246F0BD39
:1026B0000120F8E740F27A50F5E70E20F3E7032017
:1026C000F1E7C04610B500282BD044F2553302681C
:1026D000C0F249039A4220D10423C356002B1EDBCB
:1026E0001A0046F20001C032C4F2000192005058B4
:1026F0000D4C204050501F21012219408A404EF2BB
:102700000011CEF200018C4640F2801100205B09DE
:102710009B0063445A501A6010BD0720FCE70B2051
:10272000FAE70120F8E7C046FFFFFEFF002829D0A6
:1027300044F255330268C0F249039A4220D1042280
:102740008256002A18DB1F215309114001228A40BA
:102750004EF200112033CEF200019B005A50BFF31D
:102760004F8FBFF36F8F042240F2C853002182566F
:10277000C2F200039200D150002303600020704792
:102780000720FCE70120FAE730B583B0EFF30384BC
:1027900040F2C853103C64B2C2F20003A200D15808
:1027A00046F200024879C4F20002135C9B079B0FBB
:1027B000032B0ED0C034A400A3580F4D2B40A350C0
:1027C0008B6823B1CA68019000926846984703B0AD
:1027D00030BD8B6823B1CA68019000926846984763
:1027E00046F20003C034C4F20003A400E2580249D8
:1027F0000A40E250EBE7C046FFFFFEFF4EF2000347
:10280000A022C4F201039A5C824217D036229A5C5D
:102810001AB93C215A5CD207FCD54EF20002A02125
:10282000C4F20102535CDB06FCD450544EF20002A9
:10283000A021C4F20102535CDB06FCD47047C04601
:102840004EF20003262240F20C01C4F20103985C10
:102850001B6A8000C2F2000141585B015B0F40F22D
:10286000A442D940C2F20002116070474EF2000348
:1028700040F2FE323A49C4F2010370B599524CF26B
:10288000000240F200110024C4F20102545240F24E
:102890000C0446F60042C2F20004C0F2DC222260C0
:1028A00041F20022C0F27A02626048F2000241F670
:1028B0000031A26022612622C0F2B701E160995C7A
:1028C0001A6A890061585201520F40F2A445D14062
:1028D000002040F21342C2F20005296098540921F9
:1028E000A222995440F28042995C19B140F2814190
:1028F000585498540020FFF781FF4EF20003002146
:102900003622C4F2010399543C315A5CD207FCD5FB
:1029100001203122002198540B3A99540131FF31A2
:10292000C1F200011962995C1A6A8900615852016A
:10293000520FD14040F2FE3229600A4999524CF2BE
:10294000000240F2041340F20411C4F20102D0521A
:10295000535A002BFCD101210133FF33D15270BDFA
:1029600003A5FFFF00A5FFFF20B180235B040360E8
:10297000002070470120FCE701380028FCD1704797
:1029800040F2A4424CF600234143C2F2000270B56B
:102990001468C3F69A330D00B3FBF4F4080040F258
:1029A000E8320023002100F037F931B9B0FBF4F030
:1029B000800808B1FFF7E0FF70BDA400B5FBF4F09C
:1029C00040F2E8320023002100F026F90029F0D07F
:1029D00001204042FFF7D0FFEEE7C046F8B546F2CF
:1029E000000340F2401240F2684700240126C4F27E
:1029F00000039D5AC2F20007ADB22B00E340E0B2E3
:102A00001E4203D0A300DB5903B1984701340D2CBB
:102A1000F3D146F2000340F23012C4F200039D529B
:102A2000F8BDC04646F200000023C4F2000043F2A5
:102A30006C62C0F200029A1811781A00C03292003B
:102A400001331150202BF2D17047C04670B5EFF31F
:102A50001081012383F3108840F29C434000C2F2AE
:102A600000031A5A1AB11A5A013A92B21A521B5A50
:102A700083B94EF2000240F2FE3543F2C864C4F25C
:102A80000102565B054BC0F20004205A33438343D6
:102A90009BB2535381F3108870BDC04600A5FFFF61
:102AA00070B5EFF31081012383F3108840F29C424C
:102AB0004000C2F20002135A83B94EF2000443F2FE
:102AC000C86540F2FE36C4F20104C0F20005A35B03
:102AD0002D5A2B434AF200552B43A353135A01336B
:102AE0009BB2135281F3108870BDC04600BE704780
:102AF00010B500F003F8FEF7B9FBFEE770B5002053
:102B000082B0FEF7D5F80025FFF7B0FE6B46012036
:102B1000DD71DC1DDB79FFF7C3FF47F20003C4F270
:102B200004035A68394901200A4040F600015A60FE
:102B3000C4F204010A68D207D20F22700A68D207D1
:102B4000D20F22700A68D207D20F227080225968F1
:102B500052050A435A60FFF779FF0120FEF7A8F8F3
:102B600040F2486240F22000C2F20002C2F20000CD
:102B70000021121A00F087F840F2000040F20C0227
:102B800043F2E061C2F20000C2F20002121AC0F287
:102B9000000100F06FF840F600531D4AC4F2000334
:102BA0009D801A8040F64822C2F200029A6040F6E8
:102BB0004862C2F20002DA6046F2000240F22011DE
:102BC00041F20000C4F20002505201229A80FFF745
:102BD00037FE0220FEF76CF840F2040540F20803CD
:102BE000C2F20005C2F200035B1B9E10002B05DD44
:102BF000002408CD01349847A642FADCFFF712FF03
:102C0000002000F007F802B070BDC046FFFFFFEFE4
:102C100000A5FFFF7047C046F0B5CE4647464FF6C9
:102C2000FF7580B50700280015400E002900140C20
:102C3000384099463B0C41435D4360436343401930
:102C40000C0C24189C46A54203D980235B029846AD
:102C5000C4444B464FF6FF707B437243250C6544DA
:102C6000240408405919201889180CBC904699462C
:102C7000F0BDC046002310B59A4200D110BDCC5C17
:102C8000C4540133F8E703008218934200D170471F
:102C900019700133F9E7FFFFF8B5C046F8BC08BC6E
:102CA0009E467047F8B5C046F8BC08BC9E467047C3
:102CB0005465726D696E616C0000000052545400DE
:102CC00053454747455200FFB60A00006C09000013
:102CD0006C0900006C0900006C0900006C09000020
:102CE0006C0900006C0900006C0900006C09000010
:102CF0006C0900009C0A0000FE0900006C0900003D
:102D00006C0900006C0900006C0900006C090000EF
:102D10006C0900006C0900006C0900006C090000DF
:102D20006C0900006C090000DC0900006C0900005F
:102D30006C090000B40900006C090000940900004F
:102D40006C0900006C090000B60A00003031323313
:102D5000343536373839414243444546312E300008
:102D60000D0A2A2A2A2A2A2A2A2A2A2A2A2A2A2A00
:102D70002A2A2A2A2A2A2A2A2A2A2A2A2A2A2A2AB3
:102D80002A2A2A2A2A2A2A2A2A2A2A2A2A2A2A2AA3
:102D90002A2A2A2A2A2A2A2A2A2A2A2A2A2A2A2A93
:102DA0002A2A2A2A0D0A2A20202052656E6573617C
:102DB0007320465350204578616D706C65205072C9
:102DC0006F6A65637420666F7220725F7363695FF8
:102DD000693263204D6F64756C65202020202020AF
:102DE000202020202020202A0D0A2A20202045787B
:102DF000616D706C652050726F6A656374205665F2
:102E00007273696F6E2025732020202020202020DF
:102E100020202020202020202020202020202020B2
:102E2000202020202020202020202A0D0A2A2020B7
:102E300020466C657820536F667477617265205008
:102E400061636B2056657273696F6E202025642E56
:102E500025642E25642020202020202020202020D2
:102E60002020202020202020202020202020202062
:102E7000202A0D0A2A2A2A2A2A2A2A2A2A2A2A2AF9
:102E80002A2A2A2A2A2A2A2A2A2A2A2A2A2A2A2AA2
:102E90002A2A2A2A2A2A2A2A2A2A2A2A2A2A2A2A92
:102EA0002A2A2A2A2A2A2A2A2A2A2A2A2A2A2A2A82
:102EB0002A2A2A2A2A2A0D0A526566657220746F08
:102EC00020726561646D652E7478742066696C6526
:102ED00020666F72206D6F72652064657461696C25
:102EE00073206F6E204578616D706C652050726F35
:102EF0006A65637420616E640D0A465350205573F1
:102F000065722773204D616E75616C20666F72204B
:102F10006D6F726520696E666F726D6174696F6E38
:102F20002061626F757420725F7363695F693263D9
:102F3000206472697665720D0A0000000D0A5468FB
:102F40006973204578616D706C652050726F6A6599
:102F500063742064656D6F6E737472617465732041
:102F60005343495F493243204D6173746572206F4A
:102F70007065726174696F6E207468726F756768CE
:102F80000D0A6C6F6F702D6261636B2077697468D6
:102F90002049494320536C617665206472697665E7
:102FA000722E204F6E207072657373696E67207584
:102FB000736572207075736820627574746F6E2CFF
:102FC00020362062797465730D0A6F66206461741F
:102FD000612077696C6C206265207472616E736D1C
:102FE000697474656420616E6420726563656976D6
:102FF00065642E20546865207472616E736D697407
:1030000074656420646174612069730D0A636F6D77
:1030100070617265642077697468207468652072D5
:103020006563656976656420646174612E20496614
:10303000207468652064617461206D6174636865E3
:10304000732C206F6E2D626F617264204C45440DAD
:103050000A73746172747320626C696E6B696E6757
:103060002E204F6E20612064617461206D69736D44
:10307000617463682C204C4544207374617973201B
:103080004F4E2E204661696C757265206D657373B5
:10309000616765730D0A616E642073746174757382
:1030A00020697320646973706C61796564206F6E48
:1030B000205254545669657765722E0D0A0A0A002B
:1030C0000D0A202A2A2049494320647269766572D4
:1030D00020696E697469616C697A6174696F6E20C8
:1030E0004641494C4544202A2A200D0A0000000090
:1030F0005B4552525D20496E2046756E6374696F60
:103100006E3A20257328292C202573000D0A52655C
:103110007475726E6564204572726F7220436F64BD
:10312000653A203078257820200D0A000D0A202AE3
:103130002A2045787465726E616C2049525120696D
:103140006E697469616C697A6174696F6E20464159
:10315000494C4544202A2A200D0A00000D0A202A45
:103160002A5343495F493243204D6173746572208D
:103170007472616E73616374696F6E204661696C0D
:1031800065642C20636C6F73696E67206F70656E69
:10319000206D6F64756C6573202A2A200D0A00FF6C
:1031A00068616C5F656E74727900FFFF525F534314
:1031B000495F4932435F4F70656E20415049204658
:1031C00041494C4544200D0A00000000525F494926
:1031D000435F534C4156455F4F70656E20415049E7
:1031E000204641494C4544200D0A0000525F53439C
:1031F000495F4932435F436C6F73652041504920FA
:103200004641494C4544200D0A00FFFF0D0A202A83
:103210002A20525F5343495F4932435F4D41535423
:1032200045525F57726974652041504920464149B3
:103230004C4544202A2A200D0A0000002A2A204555
:1032400072726F72204556454E545F41424F525440
:1032500045442072656365697665642064757269AA
:103260006E67204D617374657220577269746520B2
:103270006F7065726174696F6E202A2A0D0A0000F2
:10328000202A2A204E6F206576656E742072656351
:10329000656976656420647572696E67204D617337
:1032A00074657220577269746520616E6420536C76
:1032B0006176652072656164206F70657261746902
:1032C0006F6E202A2A0D0D002A2A205343495F4998
:1032D0003243204D617374657220577269746520A2
:1032E0006F7065726174696F6E206661696C656488
:1032F000202120202A2A0D0A000000002A2A20531B
:1033000043495F493243204D61737465722057729F
:10331000697465206F7065726174696F6E2069737E
:10332000207375636365737366756C202A2A0D0AB2
:10333000000000000D0A202A2A20525F5343495FF3
:103340004932435F526561642041504920464149FA
:103350004C4544202A2A200D0A0000002A2A204534
:1033600056454E545F41424F525445442072656366
:10337000656976656420647572696E67204D617356
:103380007465722072656164206F70657261746922
:103390006F6E202A2A0D0A00202A2A204E6F2065EF
:1033A00076656E7420726563656976656420647500
:1033B00072696E67204D6173746572207265616415
:1033C00020616E6420536C61766520777269746544
:1033D000206F7065726174696F6E202A2A0D0D006E
:1033E0002A2A205343495F493243204D6173746553
:1033F000722052656164206F7065726174696F6ECE
:10340000204661696C65642021202A2A0D0A00008B
:103410002A2A205343495F493243204D6173746522
:10342000722052656164206F7065726174696F6E9D
:10343000206973207375636365737366756C202AE6
:103440002A0D0A00102030405000FFFF202A2A5287
:103450005F5343495F4932435F4D41535445525F87
:10346000436C6F736520415049204641494C4544A7
:10347000202A2A200D0A0000202A2A20525F4949CA
:10348000435F536C6176655F436C6F736520415099
:1034900049204641494C4544202A2A200D0A00FF74
:1034A0002A2A20525F4943555F45787465726E61E0
:1034B0006C497271436C6F736520415049204641DD
:1034C000494C4544202A2A0D0A00FFFF525F494318
:1034D000555F45787465726E616C4972714F7065A5
:1034E0006E20415049204641494C4544200D0A0078
:1034F000525F4943555F45787465726E616C4972DD
:1035000071456E61626C6520415049204641494CCD
:103510004544200D0A00FFFF696E69745F693263DC
:103520005F64726976657200696E69745F6578744C
:103530005F69727100FFFFFF70726F636573735F85
:103540006D61737465725F57726974655265616409
:1035500000FFFFFF7363695F6932635F6D617374BE
:1035600065725F72656164007363695F6932635F8E
:103570006D61737465725F777269746500FFFFFF38
:103580006465696E69745F6932635F6472697665E8
:103590007200FFFF6465696E69745F6578746572B7
:1035A0006E616C5F69727100500500201C3600006E
:1035B0008C3600000602060103010000310E0000F7
:1035C000000000000000000000000000A0860100D4
:1035D0004A0001000203040502000000C90D0000BA
:1035E00000000000E8350000000602FF00000000B7
:1035F000A08601004A0000000102DF000100000077
:103600000000000000000000B90D000000000000F4
:1036100014360000010600EE0801FFFF090000005B
:103620002436000000040107000000000000010033
:10363000080100000000000001020000040000007A
:10364000050200000040000006020000000001002A
:1036500000030000400001040103000040000104D9
:103660000203000000040107010400007273272810
:10367000292A0700000000000000000000000000F0
:10368000000000000000000000000000E91B000036
:1036900039180000191C0000491C0000E519000041
:1036A000811A00006D180000711800001D1900003B
:1036B00065190000A91900003D1A0000AD180000AE
:1036C000DD18000059180000010002000800FFFF8B
:1036D00001000000D83600000502FFFF00000000D6
:0C36E000030000002D05000001050000A3
:020000040101F8
:10001800FFFFFFFFFFFFFFFFFFFFFFFFFFFFFFFFE8
:0C002800FFFFFFFFFFFFFFFFFFFFFFFFD8
:0400000300002AF1DE
:00000001FF
