:020000040000FA
:10000000C0270020250500000D02000009020000A5
:1000100009020000090200000902000009020000B4
:100020000000000000000000000000008109000046
:1000300009020000000000005102000099090000C0
:10004000D50F0000000000000000000000000000CC
:1000500000000000000000000000000000000000A0
:100060000000000000000000000000000000000090
:100070000000000000000000000000000000000080
:100080000000000000000000000000000000000070
:100090000000000000000000000000000000000060
:1000A0000000000000000000000000000000000050
:1000B0000000000000000000000000000000000040
:1000C0000000000000000000000000000000000030
:1000D0000000000000000000000000000000000020
:1000E0000000000000000000000000000000000010
:1000F0000000000000000000000000000000000000
:1001000000000000000000000000000000000000EF
:1001100000000000000000000000000000000000DF
:1001200000000000000000000000000000000000CF
:1001300000000000000000000000000000000000BF
:1001400000000000000000000000000000000000AF
:10015000000000000000000000000000000000009F
:10016000000000000000000000000000000000008F
:10017000000000000000000000000000000000007F
:10018000000000000000000000000000000000006F
:10019000000000000000000000000000000000005F
:1001A000000000000000000000000000000000004F
:1001B000000000000000000000000000000000003F
:1001C00040EA01039B0703D009E008C9121F08C0D9
:1001D000042AFAD203E011F8013B00F8013B521E59
:1001E000F9D27047D2B201E000F8012B491EFBD2D0
:1001F00070470022F6E710B513460A460446194632
:10020000FFF7F0FF204610BD00BE70472DE9F0411A
:1002100046F22018C4F20008B8F80000B8F8201020
:1002200040F2185501EA0006B7B20024C2F20005F8
:1002300027FA04F0C00704D055F8241009B120466D
:1002400088470134102CF3D1A8F81060BDE8F08184
:100250000F4B1968EFF309821EF0100F08BF22ED53
:10026000108A22E9F04FEFF30B8342F8043D0A6055
:100270004FF0100080F31188BFF34F8FBFF36F8FE3
:1002800002F0A0FC4FF0000080F3118801F0E4BD03
:10029000D408002080B50122EFF3108182F310888A
:1002A00040F2F852C2F2000232F810308BB94EF22E
:1002B000FE3C43F67043C4F2010CC0F20003BCF8EC
:1002C00000E033F8103043EA0E0343F42543ACF862
:1002D000003032F81030013322F8103081F31088EA
:1002E00080BD0122EFF3108182F3108840F2F852B2
:1002F000C2F2000232F8103023B132F81030013B64
:1003000022F8103032F810208AB94EF2FE3CC4F2C6
:10031000010C43F67042BCF80030C0F2000232F823
:10032000100043F4254222EA0000ACF8000081F3FB
:1003300010887047022818BF704740F2AC5043F64F
:100340007841C2F20000C0F2000100F0CCB80028F1
:100350000FBF01204FF0A16101600020704700280D
:1003600051D0016845F25402C0F2470291424CD18B
:1003700010B542684EF2801E5169136A40F28C6CCF
:100380000029CEF2000EC2F2000C0ED401F01F02C2
:10039000012404FA02F24C094EF82420BFF34F8FD7
:1003A000BFF36F8F00224CF82120996B00290ED4E7
:1003B00001F01F02012404FA02F24C094EF8242035
:1003C000BFF34F8FBFF36F8F00224CF82120D96B02
:1003D00000290ED401F01F02012303FA02F24B0997
:1003E0004EF82320BFF34F8FBFF36F8F00224CF8DE
:1003F0002120D0E9022300210160936080684163DD
:10040000BDE8104002E0012100E0072108467047E6
:1004100070B5A1B104464FF0010588B1086A78B102
:100420008A680A2A0CD80B68032B23D8226845F265
:100430005406C0F24706B24204D10E2500E0012561
:10044000284670BD0A7C9540092AE56002D940F231
:100450007A55F5E7012B01D08B6913B14B69002B5D
:100460001FD4436A13B1032A04D805E0042A03D336
:10047000806A08B10525E3E700252561087C49F27B
:100480000002C4F2160202EB0020C4E90110D1E917
:100490000602C4E905052046E26100F0F1FD266090
:1004A000CEE70B25CCE760B1016845F25402C0F2FB
:1004B0004702914211BF0720D0E9020141600020AC
:1004C00070470120704760B1016845F25402C0F2E4
:1004D0004702914211BF0720D0E90201816000204C
:1004E0007047012070474FF00102C0B1B9B14A68AE
:1004F0008AB1036845F25422C5F24F02934201D1FA
:100500000E220CE080B50260084601F0BFFB00221D
:10051000BDE8804003E00A88002AEAD001221046A4
:100520007047000000F062FA00F0B6FEFEE7F0B59A
:1005300081B0144640F21002C2F2000212780D4659
:10054000532A064618BF00F0D3FAEFF311874FF095
:10055000200181F3118830462946224600F004F834
:1005600087F3118801B0F0BD2DE9F04381B000EBB5
:10057000400040F21003C2F2000303EBC003144634
:10058000D86A8946022803F1180517D001280DD032
:1005900050B9EE682869B0428FBFF143A968F243B1
:1005A00010440844A04234D2002451E0EE68296986
:1005B000B1420BD9F243A86811440BE028464946E2
:1005C000224601B0BDE8F04300F072BBA868F243D8
:1005D00011440144A14238BF0C46871B6868BC42E5
:1005E000304407D249462246FFF7EAFDBFF35F8F4A
:1005F00026440CE049463A46FFF7E2FDE61B6868F0
:1006000009EB07013246FFF7DBFDBFF35F8FEE60BA
:100610001EE0D5E9010130448F1BBC4208D2494697
:100620002246FFF7CDFDBFF35F8F06EB04080DE018
:1006300049463A46FFF7C4FDA4EB0708686809EB92
:1006400007014246FFF7BCFDBFF35F8FC5F80C8082
:10065000204601B0BDE8F08382B080B582B0CDE91C
:10066000042304AA019201AA00F006F802B0BDE832
:10067000804002B0704700002DE9F04F9BB09346D8
:1006800006AA169240221792002200278A46059059
:100690001A90CDE9182200BF1AF8012B252A07D09D
:1006A000002A00F0598116A8114600F0E1FA38E15D
:1006B000881C4FF0000800BF9AF800102C2905DCB8
:1006C000232909D02B2911D1042108E02D2905D097
:1006D00030290BD1022102E0082100E0012148EA83
:1006E00001080AF1010A0130E6E700BFA1F13A0270
:1006F000002612F10A0F0ED306EB860201EB42022E
:1007000010F8011BA2F13006A1F13A0313F10B0F0F
:10071000F2D8A0F1010A2E290ED1514611F8010F8D
:100720002A280CD1DBF800000AF1020A011DCBF8DF
:10073000001004681FE000BF002000241CE0A0F1AE
:100740003A0212F10A0F03D2002000248A4613E075
:100750000AF10201002400BF04EB840200EB420214
:1007600011F8010BA2F13004A0F13A0313F10B0FC1
:10077000F2D8A1F1010A01201AF8011B01F0FB02D5
:10078000682AF9D063290FDC25292FD0582924D0D5
:10079000632940F0C680DBF80000011DCBF8001093
:1007A000017816A881E700BFA1F17002082A20D8BD
:1007B000DFE802F005B7B753B74CB7B71300DBF863
:1007C00000001022011DCBF80010016816A80823B4
:1007D00000270826CDE90067A1E0DBF80000102221
:1007E000011DCBF80010016816A895E016A8252178
:1007F0005BE7642940F09580DBF80000011DCBF831
:1008000000100568C5F1000C002D284600D5604693
:100810004CF6CD430A28CCF6CC434FF0010907DB58
:10082000A0FB031263284FEAD20009F10109F7D8AF
:100830004C4588BFA1468EB30020002D48BF012043
:1008400008F0040140EA9100361A28E0DBF80000C5
:10085000011DCBF8001001685CE0DBF800100A1DF8
:10086000CBF800200E6844A23146002E18BF0121AB
:1008700000EA010508BF16463178002951D0B4FAC4
:1008800084F0400928404CD116A8013600F0F0F958
:10089000199F013CB7F1FF3FEEDC68E000265FEAFC
:1008A00088710BD554B9002F3BD4002D24D45FEAB6
:1008B000487004952BD503912B2121E05FEAC87085
:1008C000F1D1002EEFD0B145EDD2CDE902C10495B2
:1008D000751E00BF16A8202100F0CAF9199F002F2D
:1008E00045D4681EA84202D2A9450546F2D3DDE9E7
:1008F00002C1049D461CD6E703912D21CDF810C0FE
:1009000016A800F0B5F9199F0399002F2FD40029DC
:100910000ED4049916A80A222346CDE9006800F0F7
:1009200027F9199F5146B7F1FF3F3FF7B5AE1EE0DB
:1009300008F001002043ECD1002EEAD0751EB5422C
:1009400038BFB145E5D216A8302100F091F9199FC2
:100950002E46002FF2D50AE047B1189C24B1059825
:1009600006A92246FFF7E3FD274400E000273846AA
:100970001BB0BDE8F08F00BF284E554C4C2900003D
:100980001EF0040F0CBFEFF30880EFF3098001495C
:1009900008470000A526000010B51020EFF31184D1
:1009A00080F3118802F014FF30B14EF60450CEF2FD
:1009B00000004FF08051016084F3118810BD4EF2A9
:1009C0002000C4F201008179006841F6A472C2F2ED
:1009D0000002C0F3026052F8211021FA00F040F248
:1009E0000C01C2F2000108607047000070B54EF6BD
:1009F0000850CEF200004FF4700140F20004C0F83D
:100A00008010C0F2000401210460EFF3108081F334
:100A1000108844F20801C4F208010A6822F4801226
:100A20000A60096880F310880020FFF783FC00F05B
:100A300079F90120FFF77EFC206841F69871A0F556
:100A4000806080F30A8840F20C00C2F20000C0F21D
:100A50000001FFF7CEFB40F2000044F6506140F287
:100A60000C02C2F20000C0F20001C0F20002FFF767
:100A7000A7FB40F2C01440F2C010C0F20004C0F264
:100A80000000001B8510012D06DB264656F8040BDE
:100A900020448047013DF9D1FFF791FF0320FFF784
:100AA000F9FB4FF630510020C4F201014FF6FF72FE
:100AB00021F8202001300F28FAD10320FFF711FC84
:100AC0000320FFF7E7FB0420C4F20E0000210160C1
:100AD00041608160C1600320FFF703FC0220FFF743
:100AE00029FC00F095F90020BDE8704000F08EB9B7
:100AF00010B540F21004C2F200042046A821FFF70E
:100B000078FB03202061606144F2830040F2C80159
:100B1000C0F20000C2F20001A061E1614FF4806107
:100B200021620021A1626162E162206640F2B800A8
:100B3000C2F2000060661020A0662167E16661676E
:100B4000BFF35F8F0F2005A10A5C013804F8012B69
:100B5000421CF9D1BFF35F8F10BD00BF0000000041
:100B600000005454522052454747455300000000AE
:100B70002DE9F04F81B0DDF828A01F4615468B46C1
:100B8000914281464FF0010405D35846B0FBF5F081
:100B90000134A842FAD20B99A74288BF3C46BAF169
:100BA000000F1DD011F001001AD14FF02008880766
:100BB00048BF4FF030082020002F18BF804600BFEC
:100BC000BAF1000F0CD054450AD248464146AAF16A
:100BD000010A00F04DF8D9F80C00B0F1FF3FEFDC4E
:100BE000D9F80C00002838D4012600BF022F01D309
:100BF000013F03E0BBFBF6F0A84202D306FB05F67B
:100C0000F4E70FF25C0800BFBBFBF6F7484618F8A4
:100C1000071000F02DF8D9F80C00002806D4B6FB18
:100C2000F5F007FB16BBB5420646EDD90B98C00799
:100C300018BFBAF1000F10D009E04846202100F09B
:100C400017F8D9F80C00AA46B0F1FF3F05DDAAF16C
:100C50000105554538BF5445EFD301B0BDE8F08FCD
:100C600030313233343536373839414243444546E2
:100C700010B50446D0E90120431C934207D82268EE
:100C80001154E06862680130E0601846A360904249
:100C900018BF10BD21682069FFF749FCA168884290
:100CA00002D10020A06010BD4FF0FF30E06010BD09
:100CB0002DE9F04381B0C76814460D4680464FF0D9
:100CC000000900BFD8F81010D8F80800FA43B9425C
:100CD0001144A0EB070698BF0144B14238BF0E464D
:100CE000D8F80400A64228BF264638442946324692
:100CF000FFF766FAD8F80800F119A41B0F1AB144DF
:100D000018BF0F463544BFF35F8F002CC8F80C7036
:100D1000D8D1484601B0BDE8F083000000BE00BF56
:100D2000FEE70000B0B54EF2FE3CC4F2010C4AF200
:100D300003504CF20011ACF80000C4F20101012094
:100D4000888000BF88880028FCD147F2000201207B
:100D5000C4F2000208809060106041F6A47242F66E
:100D6000005341F20024C2F20002C0F23113C0F27B
:100D70007A04C2E9003449F280634FF4004EC0F2B5
:100D8000980341F600440025C2E902E3C0F64E6430
:100D90004EF220031561C4F2010354619C79186876
:100DA00052F82440C0F3026040F20C0E24FA00F026
:100DB000C2F2000ECEF8000020208CF815000920A9
:100DC00083F882009D7400BF187F0007FCD54FF4A4
:100DD0003C50188100209872187F8006FCD50120B5
:100DE000087741F22120C2F20200186005209871B4
:100DF0009879196852F82000C1F30261C840CEF812
:100E000000004FF42540ACF80000B0BD7047000072
:100E1000F0B583B048F248070320C4F20007FFF79B
:100E200039FA6FF0FF0038604FF0FF3043F6BC54E2
:100E30000290CDE9000000210122C0F200046846C2
:100E400054F8213053B14D0901F01F0350F82560CB
:100E500002FA03F326EA030340F825300131602942
:100E6000EED14EF280320021CEF2000250F8213055
:100E700007EB8106B36242F8213001310329F5D135
:100E80000320FFF72EFA46F200310020C4F20001E1
:100E900054F820200AB141F820200130602804BF16
:100EA00003B0F0BDF4E72DE9F04100284CD0044632
:100EB00040F6D400C2F200000068844204BF002063
:100EC000BDE8F08101F051FB40F6DC00C2F2000009
:100ED0006569A66A076840F6E000C2F20000D0F833
:100EE000008001F069FB41F6FC60C2F2000086421E
:100EF00004BF0120BDE8F081BD424FF0020018BFE1
:100F0000454501D1BDE8F08141F66C70C2F20000A8
:100F100085420CD0012041F68071002D08BF0420CD
:100F2000C2F200018D4208BF0420BDE8F081A06A32
:100F300010B10220BDE8F08194F85C100320012973
:100F400008BF0220BDE8F08144F6DD3044F62E41B2
:100F5000C0F20000C0F200014FF41C62FFF7DEFE99
:100F600080B582B040F2506240F208634FF0000C4E
:100F70000420C2F200020F21C2F20003CDF800C02B
:100F800001F0ACFE40F20461C2F20001086018B941
:100F90000020002100F0DBFF40F2D0434FF0030CB3
:100FA00001200021C2F200030022CDF800C001F0B0
:100FB00095FE40F2CC41C2F20001086008B102B0D7
:100FC00080BD0020002102B0BDE8804000F0BFBF1E
:100FD000FFF7C6BF10B584B0EFF3038046F20031CF
:100FE0006FF35F201038C4F2000151F8202040F266
:100FF0008C6322F4803241F82020C2F2000351F8C1
:10100000202053F8204062681268012A1FD1D4E9D9
:1010100002239360A26800239364A268D364A26849
:10102000136551F8202022F4803241F8202051F835
:10103000201000F01F01012202FA01F14EF280227D
:10104000BFF35F8F4009CEF2000242F820106169C1
:10105000A1B1A06930B1D0E900C283680393CDE9A2
:1010600001C200E001A8E3690022426082600360DF
:101070008847A06910B101AB0ECB0EC004B010BD03
:10108000B0B549F60032C4F2160201230D6A1360AE
:10109000EFF3108283F3108844F21003C4F20803C4
:1010A0001C6824F000441C601B6882F3108804460E
:1010B00080684FF425420260A0680022C262A068E6
:1010C000C263A0688264D1E9000C8B680328A06821
:1010D0004FEAC35308BF03F58033C362A0684FF0E3
:1010E00000430361A0684361A0688361A068426215
:1010F000A0688262686AA268D061A86AA268106269
:10110000A068ACF101028266A06842666068D5F80A
:1011100050C0026A92F84830D80705D0106CA36816
:101120000138D86492F84830980703D5506CA2680B
:1011300001381065087C092802D8A06800224264A2
:10114000A06800228263A068C0F88820286D30B9AA
:10115000D5E90B02400340EA42704CEA000C95F8D6
:1011600048004FF4A0020028A06808BF4FF4AA026C
:101170000264A0680322C0F834C0A0680263A068BB
:1011800001220263D4E90202C2604869497C224616
:1011900000F050FDA86B95F83410224600F04AFD8F
:1011A000E86B95F835102246BDE8B04000F042BD2E
:1011B000B0B50546FFF72CF910B1044615A315E0AC
:1011C0002846FFF770F9F0B104462846FFF7C7F844
:1011D00058B144F2580144F2740216A3C0F200015F
:1011E0000020C0F20002FFF737FA1AA344F25801B8
:1011F00044F27402C0F200010020C0F20002FFF7C6
:101200002BFA2046B0BD1BA100200024FFF724FAD2
:10121000F7E700BF0D0A4750542054696D657220EE
:101220006F70656E20415049206661696C65640D80
:101230000A0000000D0A4750542054696D65722061
:10124000436C6F736520415049206661696C656429
:101250000D0A00000D0A4750542054696D65722034
:10126000537461727420415049206661696C6564F1
:101270000D0A00000D0A4750542054696D65722014
:101280005374617274656420737563636573736608
:10129000756C6C790D0A000080B540F2A850C2F25E
:1012A00000000021016040F25850C2F2000040F2FC
:1012B000605201704FF48070C2F20002012101F00F
:1012C000EDFC40F25C51C2F20001086018B9002048
:1012D000002100F03CFE00F04DFF00F035FD00F075
:1012E00039FE01F093FB002080BD10B582B040F6BE
:1012F0000C04C2F20004207800210A28019106D1D2
:1013000040F2C840C2F20000012101701EE040F22C
:101310000460C2F20000006840F2000101AAC2F2BB
:101320000001002301F068FE012802D1207801307D
:101330002070019850B14EF60450CEF200004FF0EC
:1013400080510160BFF34F8FBFF36F8F02B010BDAC
:1013500010B582B040F60D04C2F2000420780021DE
:101360000A28019106D140F2C940C2F200000121D1
:10137000017017E040F2CC40C2F20000006801A901
:1013800001F0B9FE207801990130207051B14EF67C
:101390000450CEF200004FF080510160BFF34F8F38
:1013A000BFF36F8F02B010BD2DE9F04381B00E4640
:1013B00041F69471C2F200010D6840F6DC01C2F200
:1013C0000001D1F8008040F6E00140F6D404C2F2FA
:1013D0000001C2F20004D1F8009021680746081D00
:1013E00001F04FF8781C16D1AEB141F66C70C2F224
:1013F0000000D0E90012236801319A6093682768E1
:10140000FB60276804375F602368043393602268B9
:101410000160506117E02068ED194560206800F117
:10142000040105D3484601B0BDE8F04301F074B8AB
:10143000404601F071F841F6F060C2F20000016828
:101440008D4238BF056001B0BDE8F0832DE9F0475B
:10145000044601F08AF841F6BC10C2F200000168AF
:1014600040F6D40701310160C2F20007396841F645
:10147000607A40F6E806C2F2000AC2F2000651B1F4
:10148000DAF8000000283DD13868E16AC06A884275
:1014900098BF3C6036E03C600068012832D10025EE
:1014A000701901F02AF81435642DF9D141F6B868A5
:1014B000C2F20008404601F020F841F6CC69C2F2C1
:1014C0000009484601F019F841F6FC60C2F200003C
:1014D00001F013F841F68070C2F2000001F00DF83F
:1014E00041F66C70C2F2000001F007F840F6DC0033
:1014F000C2F20000C0F8008040F6E000C2F2000036
:10150000C0F8009041F6C810C2F200000168231D27
:101510000131016041F6CC11C2F20001E06A0A68B3
:10152000904288BF086000EB800006EB80014A68AB
:1015300061619568C4E90225936056F820206B60CC
:10154000511C46F8201001F037F8DAF8000078B1A5
:101550003868E16AC06A88420AD24EF60450CEF278
:1015600000004FF080510160BFF34F8FBFF36F8FCA
:10157000BDE8F08770B582B000F0F7FF41F69876CD
:10158000C2F20006306850BB41F69064C2F200041B
:10159000204600F0B2FF41F6A465C2F200052846DD
:1015A00000F0ABFF40F6D800C2F20000046040F645
:1015B000E400C2F2000040F60E0240F68803056027
:1015C00000250A20C2F200020C21C2F2000300959D
:1015D00001F084FB306010B103A101F0FFF802B00C
:1015E000BDE8704000F0E8BF546D7251000000008B
:1015F000F0B581B041F6C015C2F200052868E0B12F
:1016000041F6807641F6BC17C2F20006C2F200072E
:1016100000F0ABFFF068C468201D00F032FF3868AE
:101620000138386028680138286000F0C5FF20467E
:1016300000F036F828680028EAD101B0F0BD70B596
:10164000866B036C044643B31546CAB1E0681A467C
:10165000FEF7B6FDE168206C2268091A9142E1604C
:1016600003D2A16840420844E060A81EB0FA80F0AE
:1016700040093146002E18BF01210840361A0CE0FF
:1016800060681A46FEF79CFDD4E90101226C104403
:101690008842606001D320686060701CA06370BDE8
:1016A00010B5044690F85D00022808BF10BD01285F
:1016B00003D038B9206B00F0A5FF2046BDE81040EC
:1016C00000F0A0BF44F62E4103A0C0F2000141F695
:1016D0002E12FFF723FB00BF70785443422D3E7556
:1016E00063537461746963616C6C79416C6C6F6392
:1016F00061746564203D3D202820282075696E7442
:10170000385F7420292032202900000040F6E804C8
:101710004EF60455C2F20004CEF200054FF080569A
:10172000FFF766FF2068022804D32E60BFF34F8FB7
:10173000BFF36F8F00F0D5FEF2E700002DE9F04710
:101740000A9F8246089C386B984669B107F13403BA
:10175000002600BF8D5D9D551DB10F2E06F10106BF
:10176000F8D1002187F84310052C21D200EB82002C
:10177000DDF82490043820F00706381DFC6200F0E4
:10178000C7FE07F1180000F0C3FEC4F10500396B75
:10179000B8613046524643463F617F6200F036FAF8
:1017A000B9F1000F386018BFC9F80070BDE8F087C4
:1017B00044F62E4103A0C0F2000140F26472FFF72C
:1017C000ADFA00BF75785072696F72697479203C08
:1017D00020283529000000008C46014641F804CF3E
:1017E0009445006108D940F6D8009A42C2F2000040
:1017F0000AD29C450ED207E08069D21A824209D2F1
:1018000040F6E400C2F2000080B5006800F084FEFB
:10181000002080BD0120704770B540F6D802C2F2AA
:10182000000212680646D2680D46D468201D00F0FA
:1018300028FE94F82400410704D400F0FA0084F84C
:10184000240004E0204631462A4600F005F8216ACB
:101850002046BDE87040084770B5054680691446CB
:101860000E460144284600BF3346FFF7B5FF48B196
:10187000A869296A064428468847A869224681192A
:101880002846F1E770BD0000F0B581B0044601F0D4
:1018900099FF40F6D006C2F200063168054688423C
:1018A0000ED240F6D807C2F2000700BF38680168C0
:1018B00041B1C0684FF0FF310068FFF7ADFFF5E7B9
:1018C000002007E040F6E401C2F200010A68086067
:1018D00001203A6020602846356001B0F0BD00006C
:1018E00000BE00BFFEE7000084B040F6D80841F615
:1018F0009875C2F2000801ACC2F200054FF0000971
:10190000EB4600BFD8F80000D0F800A0BAF1000FF5
:101910001ABFC0680668002601F04CF92046FFF7A0
:10192000B3FF019911B102F095F82DE00746BAF125
:10193000000F08D0BE4206D802F08CF83046394677
:10194000FFF76AFF20E0BAF1000F01D0002208E0A3
:1019500040F6E400C2F2000000680068B0FA80F0CF
:1019600042092868F11B00F068FF02F073F858B9CB
:101970004EF604514FF08050CEF200010860BFF3E4
:101980004F8FBFF36F8F00BF2868CDE90299CDF864
:10199000049000BF2146002201F020FC0028B1D0B5
:1019A000019800284CD4039E706910B1301D00F0DE
:1019B00068FD5846FFF768FF0199013908293FD8AB
:1019C0000746DFE801F005052C1C3F05052C1C002F
:1019D00096F82400029BB16940F0010086F82400CB
:1019E000194430463A46FFF7F7FE48B396F824000C
:1019F00041071BD400F0FA0086F824001DE096F899
:101A0000240040F00101029886F82410B06108B368
:101A1000C11930463A463B46FFF7DEFE10E096F825
:101A2000240000F0FE0086F8240009E00298B16965
:101A30003A4601443046FFF70FFF316A3046884787
:101A40002868A7E796F824008107EAD4304600F01A
:101A5000D9FDF5E744F6D04103A0C0F200014FF4F0
:101A60008262FFF75BF900BF2820707854696D65CA
:101A7000722D3E7854696D6572506572696F644964
:101A80006E5469636B73203E2030202900000000F3
:101A9000F0B581B0044600F068FD94F94560012E70
:101AA0000EDB04F1240500BF286848B1284601F088
:101AB00058FF08B100F0F1FE70B2013E0128F3DCDE
:101AC000FF2684F8456000F077FD00F04EFD94F9A4
:101AD0004470012F0EDB04F1100500BF286848B1E7
:101AE000284601F03EFF08B100F0D7FE78B2013F72
:101AF0000128F3DC84F8446001B0BDE8F04000F058
:101B00005BBD000070B500F10805092D05D310F08C
:101B1000070103D009398D4264D9002501F04AF844
:101B200041F6E860C2F200000178C9B940F6B81188
:101B3000C2F20001073141F6647221F00701C2F2DE
:101B400000020023C2E9001341F6E062C2F2000283
:101B500040F6F874C2E90034C1E9002401210170A3
:101B6000012D4FF000044DDB40F2080CC2F2000CD6
:101B7000DCF80000854245D841F66470C2F20000EE
:101B800002685368AB4205D2116819B14B68104620
:101B90000A46F7E741F6E061C2F200018A421FD02F
:101BA0000168D2F800E001F10804591B1029C0F8BF
:101BB00000E01CD902EB050ECEF804105560DEF8EB
:101BC000041041F66473C2F2000300BF18461B689C
:101BD0005E688E42FAD3CEF80030C0F800E007E02D
:101BE00000240FE020F0070000F1100596E755688B
:101BF000DCF800000021401BCCF8000045F000405C
:101C0000C2E9001001F026FF204670BD283140F8DF
:101C1000481D41F6E101C0F200014FF0807C22F046
:101C20000102C1636FF002010264C0F844C0C0E960
:101C300009137047002828D44EF2001CCEF2000C85
:101C4000090100EB0C0383F8001340F28C61C2F22F
:101C5000000141F8202046F20031C4F2000151F8A1
:101C60002020012322F4803241F8202051F8201056
:101C700000F01F02400903FA02F20CEB8003BFF3ED
:101C80005F8FC3F880214CF82020704740F2006C31
:101C9000EFF31081012282F31088C2F2000CDCF80D
:101CA00000203AB94FF60C52C4F20102002313701F
:101CB0004023137070B5DCF800200132CCF800200E
:101CC00081F31088018821B34FF6000E0022C4F280
:101CD000010E00BF416801EBC20351F832105C688D
:101CE000CD034FEA1423E4B20BD50EEB831555F860
:101CF000246026F4803645F8246021F4803645F8C7
:101D000024600EEB8313013243F8241001888A42C9
:101D1000E0D30121EFF3108081F31088DCF800108C
:101D200021B1DCF800100139CCF80010DCF800100B
:101D300039B94FF60C51C4F2010100220A70802219
:101D40000A7080F3108870BD10B582B040F2A850C0
:101D5000C2F20000016844F24C030131016041F617
:101D6000456040F64C144FF0010CC0F200000AA18F
:101D7000C0F200038022C2F20004CDE900C401F0E9
:101D800003FC012804BF02B010BD2068002102B08E
:101D9000BDE8104000F0DBB8526563656976657296
:101DA000205461736B00000082B040F20467002091
:101DB0006C460DA5C2F2000718A6CDE9000000BFD1
:101DC000386821464FF0FF3201F008FA0128F7D1B8
:101DD00000202946FEF740FC9DF80020019B0020D2
:101DE0003146FEF739FCEBE70D0A5265636569760B
:101DF0006572205461736B203A204D65737361677F
:101E000065207265636569766564205375636365F3
:101E1000737366756C6C790D0A0000000D0A202042
:101E20002020446174612020203A20256420200D68
:101E30000A2020202053656E646572203A202573A5
:101E40000000000010B5044600F050F82046BDE840
:101E50001040FFF7A9BF0000074801680A6802CADE
:101E600081F30B88B2E8F04F1EF0100F08BFB2EC00
:101E7000108A82F309887047D408002088B14EF296
:101E80000C00C4F20100B0F90010B1F1FF3F09DD10
:101E9000BFF34F8F30BFBFF36F8F62B6BFF36F8F4B
:101EA00072B6704780B54EF2FE32C4F20102B2F84B
:101EB00000E04AF2025CCFF6FF7C0023A2F800C0EB
:101EC00003804EF425431380BFF34F8F30BFBFF321
:101ED0006F8F62B6BFF36F8F72B61388A2F800C01F
:101EE000018043F42540108080BD0000B0B540F271
:101EF0005C54C2F2000420684FF0FF3101F03CFA5C
:101F0000012803D02068002100F021F840F2585049
:101F1000C2F20000017801B1B0BD01210170FFF7EC
:101F200057F840F2A855C2F2000500BF28680138F2
:101F30002860F1D0206800210022002300F088FFF3
:101F40000128F3D02068002100F001F8EEE700BE80
:101F50007047000010B582B040F2A850C2F20000F5
:101F6000016844F250030131016042F2611040F611
:101F700050144FF0010CC0F200000BA1C0F200039E
:101F80004FF48072C2F20004CDE900C401F0FCFA03
:101F9000012804BF02B010BD2068002102B0BDE8D6
:101FA0001040FFF7D4BF00BF53656D6170686F725A
:101FB00065205461736B00004BA10020FEF74CFBC1
:101FC00040F2D85043F6B471C2F20000C0F20001F2
:101FD000FFF7EEF840B144F28C010246C0F2000176
:101FE0000020FEF739FB00BE40F2C94B40F2D85446
:101FF00044F2580544F2E81644F28C0AC2F2000B8F
:10200000C2F20004C0F20005C0F20006C0F2000AED
:102010000FF20C189BF8000000284DD02046FEF768
:1020200052FAE0B181462046FEF799F940B144F2F8
:10203000AC03002029463246C0F20003FEF70CFB39
:1020400044F2DC03002029463246C0F20003FEF7CA
:1020500003FB002051464A46FEF7FEFA00BE44F25A
:102060000B110020C0F20001FEF7F6FA2046FEF741
:1020700076F978B144F2AC0307460020294632468F
:10208000C0F20003FEF7E8FA002051463A46FEF798
:10209000E3FA00BE44F232110020C0F20001FEF764
:1020A000DBFA44F261110020C0F20001FEF7D4FA1D
:1020B000002000F009FDADE700204146FEF7CCFA14
:1020C00040F2CC40C2F2000000684FF4FA7101F017
:1020D00053F901289ED144F2B2110020C0F2000150
:1020E000FEF7BAFA96E700BF0D0A2053656D6170DE
:1020F000686F7265205461736B203A20537461726B
:1021000074696E6720675F706572696F6469635F89
:1021100074696D65725F73656D2074696D657200B9
:102120000D0A2053656D6170686F7265205461738C
:102130006B203A2057616974696E6720666F722060
:102140004750542049535220746F2072656C65616A
:1021500073652073656D6170686F7265200D0A008C
:1021600010B50446FFF7C2FE2046BDE81040FFF759
:1021700023BF000080B584B040F2A850C2F2000036
:10218000016844F254030131016042F2C071012040
:10219000C2F20001CDE9000142F2714040F6581C44
:1021A000C0F200000CA1C0F200034FF48072C2F232
:1021B000000CCDF808C001F015FA40F65411C2F237
:1021C0000001086008B104B080BD0020002104B007
:1021D000BDE88040FFF7BBBE53656E646572205456
:1021E00061736B0088B043F66840C0F20000D0E92C
:1021F000000100220792CDE9040107A8FEF7A7F825
:102200009DF81D709DF81E609DF81F3044F2F62168
:1022100074A2C0F200010020CDE90067FEF71CFAAD
:1022200044F22F51C0F200010020FEF715FA01F030
:10223000C9FA40F65011C2F200010968039008463D
:10224000FEF731FE022806D840F65010C2F2000018
:10225000006800F039FC64A10020FEF7FDF940F2AF
:10226000B85043F63C71C2F20000C0F20001FEF724
:102270009FFF40B144F28C010246C0F200010020F1
:10228000FEF7EAF900BE40F2C84840F2046B40F2A3
:10229000B85544F2580744F2FE6444F28C09C2F285
:1022A0000008C2F2000BC2F20005C0F20007C0F243
:1022B0000004C0F200090DF1100A00BF98F80010E8
:1022C000DBF8000000296BD0002100F05BFD012845
:1022D000F4D100205CA1FEF7BFF92846FEF7F3F821
:1022E000E0B106462846FEF73AF840B144F227230B
:1022F000002039462246C0F20003FEF7ADF944F251
:102300005423002039462246C0F20003FEF7A4F908
:10231000002049463246FEF79FF900BE44F2A9214B
:102320000020C0F20001FEF797F92846FEF717F8E3
:1023300078B144F227230646002039462246C0F2EF
:102340000003FEF789F9002049463246FEF784F97A
:1023500000BE40F64C10C2F20000006800F0B4FB72
:1023600044F2FD110020C0F20001FEF775F940F6BD
:102370005010C2F20000006800F0E9FA44F2802137
:102380000020C0F20001FEF767F944F2CD210020E1
:10239000C0F20001FEF760F9002000F095FB8DE728
:1023A00051464FF4FA72002300F052FD01287FF4E9
:1023B00085AF44F2C8610020C0F20001FEF74CF97D
:1023C00044F29E610020C0F20001FEF745F903A827
:1023D0004FF4FA7101F076F9002011A1FEF73CF9F3
:1023E0006CE700BF312E30000D0A2053656E646526
:1023F000725F5461736B203A205374617274696E1A
:102400006720675F706572696F6469635F74696D87
:1024100065725F6D7367712074696D65720000008D
:102420000D0A2053656E6465725F5461736B203AC8
:102430002041667465722064656C6179206F662046
:102440003530306D730D0A000D0A53656E64657288
:102450005F5461736B203A204D657373616765202B
:102460005175657565207265736574200D0A0000ED
:1024700010B50446FFF73AFD2046BDE81040FFF7CF
:10248000B1BED0E901320169D1F804C09A60844537
:10249000536008BF4A600B6800220261581E086042
:1024A000704741F6BC10C2F200000068704741F668
:1024B000D033C2F20003036041F6D010C2F2000034
:1024C000086080201060704741F63063C2F200035C
:1024D000036041F63040C2F20000086080201060C6
:1024E000704780B572B600F065FB0120FFF7C6FCAF
:1024F00062B6BDE8804001F0ADBA4FF0FF31024650
:1025000042F8081F0021C0E90322C0E90012704709
:10251000002101617047000080B5D1F800C01CF1B6
:10252000010207D000F1080296465268136863451D
:10253000FAD903E0D0F810E0DEF804204A60916098
:102540000268C1F808E0CEF804100861511C01606F
:1025500080BDD0E900C308619A68C1E901325160C9
:1025600099600CF10101016070471021EFF31180B7
:1025700081F3118841F6B811C2F200010A68531CB8
:102580000B605AB940F2B451C2F2000108604EF635
:102590000450CEF200000068C00500D1704744F638
:1025A000485044F68E51C0F20000C0F2000140F2E3
:1025B000A442FEF7B3FB000041F6B810C2F20000DF
:1025C000016859B10139016018BF704740F2B45039
:1025D000C2F20000006880F31188704744F68E5103
:1025E00003A0C0F2000140F2AD42FEF797FB00BF2E
:1025F0007578437269746963616C4E657374696E52
:1026000067000000B0B538B3044650F8040C002849
:1026100023D5A4F10805296859BB20F0004044F8EF
:10262000040C00F0C7FA54F8040C41F66472C2F2CC
:10263000000200BF1146126853688342FAD32A6031
:1026400040F20802C2F2000213680D6018441060E4
:10265000BDE8B04001F0FEB9B0BD44F2107044F2E4
:102660008371C0F20000C0F200014FF49872FEF7CF
:1026700055FB44F2837103A0C0F2000140F2311215
:10268000FEF74CFB70784C696E6B2D3E70784E6592
:10269000787446726565426C6F636B203D3D2030F7
:1026A00000000000806910F8020C022808BFFFF744
:1026B000D3BB042838BF704744F68E5103A0C0F244
:1026C00000014FF47E72FEF729FB00BF756353567D
:1026D000434E756D626572203C3D20330000000062
:1026E00040F20C00C2F20000006844F6D351C1F27F
:1026F0006201A0FB01014FF0FF3000EB91110020BF
:10270000B0EB116F18BF70474EF21002CEF200020C
:1027100051604EF62351CEF20001F0230B70906011
:102720000720106070470000EFF303806FF35F2015
:10273000102806D34EF2F031CEF20001405C0F2893
:1027400010D94EF60C50CEF200000068400558BF7C
:10275000704744F68E5108A0C0F2000140F2216299
:10276000FEF7DCFA44F68E510EA0C0F2000140F2F2
:102770000F62FEF7D3FA00BF5F5F4E5649435F47D3
:1027800065745072696F7269747947726F75706998
:102790006E672829203C3D202838202D2034292010
:1027A0002D203100756C43757272656E74507269BC
:1027B0006F72697479203E3D202828282831292904
:1027C000203C3C202838202D2034292929203E3E39
:1027D000202838202D20342900000000B0B500B397
:1027E000D1B141F6107E4FF0000C0023C2F2000E72
:1027F000002200BF0EEB03046568A8420DD022B989
:102800002268002A18BF644622460833502BF1D1B3
:10281000002A18BFC2E90010B0BD2246C2E900106C
:10282000B0BD44F6A22044F61E21C0F20000C0F262
:10283000000140F6C932FEF771FA70B515460E4632
:102840000446FFF792FE94F84400FF2804BF0020DE
:1028500084F8440094F84500FF2804BF002084F861
:102860004500FFF7A9FEA06B28B904F1240031460A
:102870002A4600F036F82046BDE87040FFF708B958
:1028800041F6F461C2F200010968016041F69471F9
:10289000C2F2000109684160704741F6A070C2F2BF
:1028A000000001210160704710B570B10C4640F680
:1028B000D401C2F2000109681831FFF72DFE20464D
:1028C0000121BDE81040FEF76FBD44F6AC4044F670
:1028D0002E41C0F20000C0F200014FF4A452FEF7F6
:1028E0001DFAB0B538B30346D0E900C040F6D40EA7
:1028F000C2F2000EDEF80040002AE0618468DEF8D3
:1029000000502C62DEF8005005F118056560DEF815
:1029100000400CF1010504F118048460DEF80000A9
:10292000836218BF4FF0FF31084611461D60BDE8B5
:10293000B040FEF739BD44F6AC4044F62E41C0F23B
:102940000000C0F2000141F2BE42FEF7E7F9F0B527
:1029500081B000284DD040F6D406C2F200060446ED
:102960003068844204BF01B0F0BDFFF7FEFD60692E
:1029700041F66C71C2F20001884235D1A06A98BB61
:1029800094F85C0001282FD0271D3846FFF779FD09
:1029900041F6CC11C2F20001E06A0A6840F6E80C88
:1029A000904288BF086000EB8001C2F2000C0CEB83
:1029B00081035A6863619568C4E9022597605CF8F1
:1029C00021206F6001324CF821203168C96A8142B0
:1029D0000AD24EF60450CEF200004FF08051016052
:1029E000BFF34F8FBFF36F8F01B0BDE8F040FFF72B
:1029F000E3BD44F69E4044F62E41C0F20000C0F212
:102A000000014FF45262FEF789F9000010B58AB058
:102A100044F24940C4F24C500024069005A804A991
:102A200003AA8DF81C40CDE90444FFF740FDDDE921
:102A30000320DDF814C006A90023CDE9004041F2CF
:102A40000D70C0F20000CDF808C000F0CBFD41F6DB
:102A5000EC61C2F20001086028B301F0C7F8012858
:102A60000AD001301FD144F62E4112A0C0F200015D
:102A700040F6A962FEF752F941F6F061C2F2000198
:102A80004FF0FF32012080F310880A6041F6607138
:102A9000C2F20001086041F69470C2F20000002109
:102AA000016000F0DDF844F6FC50C0F20000006860
:102AB0000AB010BD7852657475726E20213D2028D1
:102AC000202D312029000000F0B581B00446FFF729
:102AD0004CFD40F6D407C2F2000704B93C68261D3D
:102AE0003046FFF7CEFCA06A18B104F11800FFF7DA
:102AF000C8FC41F66C75C2F2000528463146FFF766
:102B000028FD94F85C00012804BF002084F85C00D4
:102B1000FFF752FD41F66076C2F200063068A8B1B8
:102B2000FFF723FD40F6DC00C2F2000001680968EF
:102B300019B10068C068006801E04FF0FF3041F64D
:102B4000F061C2F200010860FFF736FD3868844288
:102B50001DD1306888B141F6C410C2F2000000688F
:102B6000E0B94EF60450CEF200004FF08051016003
:102B7000BFF34F8FBFF36F8F09E041F6BC11C2F274
:102B8000000128680968884203D10020386001B03C
:102B9000F0BD01B0BDE8F04000F014B844F6B43028
:102BA00044F62E41C0F20000C0F2000140F6A842F7
:102BB000FEF7B4F841F6C410C2F20000016801311A
:102BC0000160704741F6C410C2F20000006830B1E5
:102BD00041F6A070C2F2000001210160704741F689
:102BE000A070C2F20000002141F6CC1C0160C2F2CC
:102BF000000CDCF8001040F6E80301EB8102C2F2A1
:102C0000000353F8220003EB820228B9B9B152F84D
:102C1000140D01390028F9D05068436802F108000A
:102C20008342536001D1D3685360D86840F6D40220
:102C3000C2F200021060CCF800101068704744F631
:102C40002E4103A0C0F2000141F2FA32FEF766F80D
:102C50007578546F705072696F72697479000000F2
:102C60004EF62250CEF20000F0210170FFF738FD41
:102C70004EF63470CEF20000016841F04041016030
:102C800062B6BFF36F8FEFF3148C2CF0040C8CF34F
:102C90001488BFF36F8F02DF00BEFDE7B0B582B0CE
:102CA00080B10D4681420DD814464FF0000C002132
:102CB00000222346CDF800C000F010F82046A5639E
:102CC00002B0B0BD44F68E2044F61E21C0F20000D2
:102CD000C0F200014FF45E72FEF720F810B582B02A
:102CE0003BB3D0B11C4601B9BAB901B1AAB148236E
:102CF0000193019B482B25D1019B012384F8463089
:102D0000002908BF2246C4E90F01204601212260A4
:102D100000F038F8204602B010BD44F6962044F684
:102D20001E21C0F20000C0F200014FF4D872FDF77E
:102D3000F5FF44F61E210FA0C0F200014FF4C2724D
:102D4000FDF7ECFF44F61E2103A0C0F200014FF492
:102D5000CB72FDF7E3FF00BF7853697A65203D3DF4
:102D60002073697A656F66282051756575655F7493
:102D7000202900007078537461746963517565751A
:102D80006500000070B5002844D00446C06BC0B395
:102D90000E46216CA0FB010199BBFFF7E6FBD4E9CD
:102DA0000F0122680025A56301FB0023013800FB09
:102DB0000120C4E90123E060FF2084F8440084F886
:102DC000450004F110004EB1FFF797FB04F1240019
:102DD000FFF793FBFFF7F0FB012070BD01680029AE
:102DE000F8D000F0BEFD0028F4D04EF60450CEF22C
:102DF00000004FF080510160BFF34F8FBFF36F8F22
:102E0000E8E744F61E2109A0C0F200014FF4B672B3
:102E1000FDF784FF44F6A12044F61E21C0F2000015
:102E2000C0F2000140F23712FDF778FF7852657466
:102E300075726E20213D20282028202820426173B1
:102E400065547970655F742029203020292029007D
:102E50002DE9F04F85B00028049200F09D8099463E
:102E60001546044619B9206C002840F0B980B9F124
:102E7000020F03D1E06B012840F0A680019100F021
:102E80008FFC10B9002D40F09380FFF76EFBA06B14
:102E9000B9F1020F59D0E16B884256D304F1100703
:102EA000012002AE4FF0000A04AD00BF04990029D2
:102EB00066D0C0071CBF3046FFF7E2FCFFF77CFB83
:102EC000FFF778FEFFF751FB94F84400FF2808BF96
:102ED00084F844A094F84500FF2808BF84F845A072
:102EE000FFF76AFB3046294600F000FB00284AD174
:102EF000FFF73BFBD4F838B0D4F83C80FFF75CFB1D
:102F0000C34515D104993846FFF7CEFC2046FEF79D
:102F1000BFFD00F09FFD80B94EF60450CEF20000D8
:102F20004FF080510160BFF34F8FBFF36F8F04E00C
:102F30002046FEF7ADFD00F08DFDFFF716FBA06B00
:102F4000E16B88424FF00000B0D2019920464A461A
:102F5000FEF775FB54F8240F70B1204600F001FD18
:102F600050B14EF60450CEF200004FF08051016097
:102F7000BFF34F8FBFF36F8FFFF71EFB012008E0F9
:102F8000FFF71AFB04E02046FEF782FD00F062FD29
:102F9000002005B0BDE8F08F44F6A12044F61E21C4
:102FA000C0F20000C0F2000140F2B632FDF7B6FEFA
:102FB00044F6520044F61E21C0F20000C0F20001A7
:102FC00040F2BB32FDF7AAFE44F6A50044F61E21EE
:102FD000C0F20000C0F200014FF46E72FDF79EFED9
:102FE00044F6421044F61E21C0F20000C0F2000177
:102FF00040F2B732FDF792FE2DE9F04700284AD0A3
:103000001E46904605460F4611B9286C00285AD135
:10301000022E02D1E86B012849D1FFF785FB102071
:10302000EFF3118980F31188022EA86B04D0E96BAD
:10303000884201D300202AE095F94540A86B284634
:10304000394632465FFA84FAFEF7F9FABAF1FF0F11
:103050000BD0FFF726FAA04218D9BAF17F0F3ED065
:103060000AF1010085F8450010E055F8240F68B119
:10307000284600F076FC0146B8F1000F4FF0010041
:1030800018BF002903D0C8F8000000E0012089F330
:103090001188BDE8F08744F6A12044F61E21C0F255
:1030A0000000C0F200014FF49262FDF737FE44F6D3
:1030B000A50044F61E21C0F20000C0F2000140F25B
:1030C0009242FDF72BFE44F6421044F61E21C0F258
:1030D0000000C0F2000140F29142FDF71FFE44F6ED
:1030E000D71044F61E21C0F20000C0F2000140F2E9
:1030F0001E52FDF713FE2DE9F04100283DD0054694
:10310000006C002845D12868884610B9A8680028B6
:103110004BD1FFF709FB1020EFF3118680F31188E4
:10312000A86BE96B884210D295F945400130E7B2AF
:10313000FF2FA8630BD0FFF7B4F9A04218D97F2F57
:103140003FD0781C85F8450012E0002011E055F8CA
:10315000240F68B1284600F004FC0146B8F1000FC6
:103160004FF0010018BF002903D0C8F8000000E0AC
:10317000012086F31188BDE8F08144F6A12044F6D1
:103180001E21C0F20000C0F200014FF4A862FDF75A
:10319000C5FD44F6052044F61E21C0F20000C0F231
:1031A000000140F24452FDF7B9FD44F6050044F633
:1031B0001E21C0F20000C0F2000140F24952FDF7AA
:1031C000ADFD44F6D71044F61E21C0F20000C0F257
:1031D000000140F2CB52FDF7A1FD00002DE9F04FB8
:1031E00083B00028029200F0A28016468946044669
:1031F00019B9206C002840F0B28000F0D1FA10B963
:10320000002E40F0A080FFF7B0F9D4F838A0BAF152
:10321000000F28D0226C52B1D4E902011144E160C0
:10322000814224BF2168E1604846FCF7C9FF54F899
:10323000100FAAF10101A16270B1204600F091FBCC
:1032400050B14EF60450CEF200004FF080510160B4
:10325000BFF34F8FBFF36F8F0124FFF7ADF9204607
:1032600003B0BDE8F08F04F1240801206F464FF051
:10327000000B02AE0299002955D0C0071CBF38468A
:10328000FFF7FEFAFFF798F9FFF794FCFFF76DF9E7
:1032900094F84400FF2808BF84F844B094F845002F
:1032A000FF2808BF84F845B0FFF786F93846314655
:1032B00000F01CF960B12046FEF7EAFB00F0CAFB03
:1032C000FFF753F9A56BFFF777F91DBB2DE000BFA2
:1032D000FFF74BF9A56BFFF76FF92DB12046FEF70D
:1032E000D7FB00F0B7FB15E002994046FFF7DCFA88
:1032F0002046FEF7CDFB00F0ADFB58B94EF604506A
:10330000CEF200004FF080510160BFF34F8FBFF34A
:103310006F8F00BFFFF729F9D4F838A00020BAF169
:10332000000FA7D076E7002497E7002497E744F63C
:10333000F91044F61E21C0F20000C0F2000140F274
:10334000E952FDF7EBFC44F6520044F61E21C0F2B0
:103350000000C0F2000140F2F252FDF7DFFC44F63B
:10336000F20044F61E21C0F20000C0F2000140F25B
:10337000ED52FDF7D3FC00002DE9F04F83B000289B
:10338000029100F08E800446006C002840F0958089
:103390000D4600F005FA10B9002D40F09A80FFF7B5
:1033A000E4F8A16BD1B154F8100F0139A16270B1EA
:1033B000204600F0D6FA50B14EF60450CEF200008E
:1033C0004FF080510160BFF34F8FBFF36F8F012427
:1033D000FFF7F2F8204603B0BDE8F08F4EF604592F
:1033E00004F1240801206E464FF0000B02AFCEF22C
:1033F00000094FF0805A00BF029900294DD0C00744
:103400001CBF3046FFF73CFAFFF7D6F8FFF7D2FBB8
:10341000FFF7ABF894F84400FF2808BF84F844B0E5
:1034200094F84500FF2808BF84F845B0FFF7C4F8BA
:103430003046394600F05AF860B12046FEF728FBC6
:1034400000F008FBFFF791F8A56BFFF7B5F8EDB9B1
:1034500025E000BFFFF789F8A56BFFF7ADF82DB1A8
:103460002046FEF715FB00F0F5FA0FE00299404602
:10347000FFF71AFA2046FEF70BFB00F0EBFA28B92B
:10348000C9F800A0BFF34F8FBFF36F8FFFF76DF840
:10349000A16B00200029AFD085E7002498E7002425
:1034A00098E744F6F91044F61E21C0F20000C0F27D
:1034B000000140F28262FDF731FC44F6052044F63B
:1034C0001E21C0F20000C0F2000140F28662FDF74A
:1034D00025FC44F6520044F61E21C0F20000C0F262
:1034E000000140F28B62FDF719FC000070B568B373
:1034F0000D46B9B30446FFF738F841F6947EC2F2A0
:10350000000EDEF8003029684A1C16D041F6F46C33
:10351000D4E90002C2F2000CDCF80060864201D05F
:1035200093420CD29A1A914209D9881A2860DCF881
:1035300000002060DEF800006060002402E000204F
:1035400001242860FFF738F8204670BD44F6B840E3
:1035500044F62E41C0F20000C0F2000141F2A55233
:10356000FDF7DCFB44F62E4103A0C0F2000141F25E
:10357000A652FDF7D3FB00BF70785469636B735498
:103580006F576169740000002DE9F04F83B0074662
:103590009000984615468946FEF7B4FAE0B1064613
:1035A0006020FEF7AFFAA0B1DDE90CBA6021044655
:1035B000FCF71FFE384649462A4643462663CDE9B6
:1035C00000BA0294FEF7BAF82046FDF73FFF01204B
:1035D00004E03046FFF716F84FF0FF3003B0BDE8C7
:1035E000F08F00002DE9F04786B0DDF83C900746EB
:1035F0000020B9F1000F049026D0109C6CB360201D
:1036000005900598602831D105980E46DDF838A060
:103610002046602198461546FCF7EBFD022084F811
:103620005D0004A8C4F83090CDE900A038463146CA
:103630002A4643460294FEF781F82046FDF706FF2E
:10364000049806B0BDE8F08744F62E4118A0C0F2F9
:10365000000140F2F142FDF761FB44F62E410FA05C
:10366000C0F2000140F2F242FDF758FB44F62E4151
:1036700003A0C0F2000140F2FA42FDF74FFB00BF89
:103680007853697A65203D3D2073697A656F6628B5
:10369000205443425F742029000000007078546178
:1036A000736B42756666657220213D203000000014
:1036B000707578537461636B42756666657220211C
:1036C0003D20300010B5B8B300293ED041F6C413F8
:1036D000C2F200031A6801321A6041F69472C2F213
:1036E000000212681B68012B38D1036819449A4202
:1036F000016006D299424FF000040DD2914206D8E3
:103700000AE0994203D3914201D8002404E0881AC8
:103710000021FDF749FE012400F09CF950B94EF656
:103720000450CEF200004FF080510160BFF34F8F84
:10373000BFF36F8F204610BD44F62E4113A0C0F298
:10374000000140F62F12FDF7E9FA44F62E4109A0D8
:10375000C0F200014FF41362FDF7E0FA44F61340A3
:1037600044F62E41C0F20000C0F2000140F63812CB
:10377000FDF7D4FA28207854696D65496E63726547
:103780006D656E74203E203055202900707850728F
:103790006576696F757357616B6554696D65000077
:1037A00041F66070C2F20000006848B141F6C410F2
:1037B000C2F200000068B0FA80F040094000704793
:1037C0000120704741F69470C2F200000068704713
:1037D0002DE9F04F81B041F6C410C2F2000000683C
:1037E00040B141F6F860C2F20000016801310160A9
:1037F0000020A7E041F69470C2F20000016841F693
:10380000F06211F1010BC2F20002C0F800B021D346
:1038100040F6DC00C2F2000001680968002940F0AF
:10382000948040F6E003C2F2000301681F6807605D
:10383000196041F6F461C2F200010B6801330B60BC
:103840000168096819B10068C068006801E04FF0BC
:10385000FF3010601068834501D200206AE040F616
:10386000DC0AC2F2000ADAF80000006800285DD025
:1038700041F6CC1940F6E80E40F6D408C2F2000931
:10388000C2F2000EC2F20008002000BFDAF80010F9
:10389000C968CE68374657F8045FAB4541D3D6E9CF
:1038A000023571694A689D60BA426B6008BF4D601D
:1038B0000A68B56A013A0A607DB1D6E90721D5F8F0
:1038C00004C006F118039C4591604A6008BF696016
:1038D000296800220139B2622960F56AD9F800101E
:1038E0008D4288BFC9F8005005EB85010EEB8102BF
:1038F000536872619C68C6E902349F605EF82130AB
:1039000067605A1C4EF82120D8F80010C96ADAF80E
:1039100000208D4288BF012011680029B6D14FF0E8
:10392000FF3541F6F062C2F2000202E04FF0FF35CF
:103930000020156041F6A071C2F20001096800295B
:1039400018BF012001B0BDE8F08F44F6A92044F66D
:103950002E41C0F20000C0F2000141F25F22FDF7EB
:10396000DDF9B0B5C068C068002867D0D0E907139A
:10397000826A00F1180CD2F804E08B60E6455960C9
:1039800008BF5360136800218162591E116041F61F
:10399000C411C2F20001096889B141F6FC61C2F2AA
:1039A0000001D1E9002381629D68C0E90735C3F8B1
:1039B00008C0531CC26AC5F804C00B602DE0D0E9F2
:1039C0000213426900F1040CD2F804E08B60E64572
:1039D000596008BF5360116841F6CC13013911607A
:1039E000C2F20003C26A196840F6E80E8A4288BF34
:1039F0001A6002EB8201C2F2000E0EEB81035C68DA
:103A00004361A568C0E90245C5F804C05EF82150CD
:103A1000C4F808C0681C4EF8210040F6D400C2F279
:103A200000000068C06A824291BF002041F6A07188
:103A3000C2F20001012088BF0860B0BD44F6CE305C
:103A400044F62E41C0F20000C0F2000141F2F542FE
:103A5000FDF764F92DE9F04F81B0FEF786FD41F6E0
:103A6000C410C2F200000168002900F0A8800168BB
:103A700001390160006830B10024FEF79DFD204649
:103A800001B0BDE8F08F41F6BC10C2F20000006842
:103A90000028F1D041F6FC6BC2F2000BDBF80010FD
:103AA00041F6A07940F6D4080029C2F20009C2F21A
:103AB00000085FD041F6CC1A40F6E8034FF0000E44
:103AC000C2F2000AC2F200034FF0010CDBF80C70E6
:103AD000FC68A76AD4E90756796804F11802914294
:103AE000AE60756008BF7E603968C4F828E00139AF
:103AF0003960261D6769D4E902157A68B2428D6083
:103B0000696008BF7D60396801393960E76ADAF8B1
:103B100000108F4288BFCAF8007007EB870103EBE3
:103B2000810255686261A868C4E90250466053F892
:103B30002100AE60013043F82100D8F80000C06ACF
:103B4000874288BFC9F800C0DBF800000028BDD15B
:103B500040F6DC00C2F200000168096819B1006893
:103B6000C068006801E04FF0FF3041F6F061C2F23A
:103B70000001086041F6F864C2F20004266856B1FC
:103B8000012700BFFFF724FE08B1C9F80070013E0D
:103B9000F8D100202060D9F8000000283FF46CAF75
:103BA000D8F800004EF60450CEF200004FF08051DD
:103BB0000160BFF34F8FBFF36F8F01245DE744F6C1
:103BC0002E4103A0C0F2000140F68B72FDF7A6F86B
:103BD00075785363686564756C6572537573706549
:103BE0006E64656420213D203055000080B586B0AC
:103BF000FDF7C0FC41F69870C2F20000006808B3FF
:103C00000020CDE9040005A804A903AAFEF75CFC86
:103C1000DDE903200321DDF814C00023CDE9001005
:103C200041F6E900C0F200000BA1CDF808C0FFF793
:103C3000D9FC41F69C71C2F20001086010B101206C
:103C400006B080BD44F6D04105A0C0F200014FF49B
:103C5000A372FDF763F800BF546D722053766300C2
:103C60007852657475726E00640000009246000020
:103C7000010002000800100027000000843C000042
:103C80000000000000000103080A0000000001031A
:103C9000090A0000000001030A0A000000000103F5
:103CA0000B0A0000000001020C0A000000000100E5
:103CB0000D0A0000000001000E0A000000000100D3
:103CC0000F0A000000400000010B0000000001008E
:103CD000030B000000000103040B000000000103BF
:103CE000050B000000000103060B000000000103AB
:103CF000070B000000000103080B00000000010397
:103D0000090B0000000001030C0B00000000000084
:103D1000000C000000000000010C0000004000004A
:103D2000040C000000400000050C0000050000002D
:103D3000060C000005000000070C00000000010355
:103D4000080C000000000103090C00000000010243
:103D50000D0C0000000001030E0C00000000010328
:103D60000F0C000005000000010D00000500000020
:103D7000020D000005000000030D0000000000001F
:103D8000040D000000000000070D0000000001030A
:103D9000080D000000000103090D000000400000B4
:103DA0000C0D0000004000000D0D00000040000060
:103DB0000E0D0000050000000F0D0000C600000001
:103DC00000000000000000000000000000000000F3
:103DD00000000000000000000000000000000000E3
:103DE00000000000000000000000000000000000D3
:103DF00000000000000000000000000000000000C3
:103E000000000000000000000000000000000000B2
:103E100000000000000000000000000000000000A2
:103E20000000000000000000000000000000000092
:103E30000000000000000000000000000000000082
:103E40000000000000000000000000000000000072
:103E50000000000000000000000000000000000062
:103E60000000000000000000000000000000000052
:103E70000000000000000000000000000000000042
:103E80000000000000000000000000000000000032
:103E90000000000000000000000000000000000022
:103EA0000000000000000000000000000000000012
:103EB0000000000000000000000000000000000002
:103EC00000000000000000000000000000000000F2
:103ED00000000000000000000000000000000000E2
:103EE00000000000000000000000000000000000D2
:103EF00000000000000000000000000000000000C2
:103F000000000000000000000000000000000000B1
:103F100000000000000000000000000000000000A1
:103F20000000000000000000000000000000000091
:103F30000000000000000000000000000000000081
:103F4000000E270700000000008793030002000016
:103F500000000000EB12000000000000603F0000C5
:103F60000000000000000000000000000000000051
:103F70000000000000000000000000000000000041
:103F80000000000000000000000000000000000031
:103F900000000000FFFF0000DFFFFFFFDFFFFFFF6B
:103FA0000000000000000000000000000000000011
:103FB0000000000000000000000E270700000000C5
:103FC000008793030002000000000000511300006E
:103FD00000000000D83F00000000000000000000CA
:103FE00000000000000000000000000000000000D1
:103FF00000000000000000000000000000000000C1
:10400000000000000000000000000000FFFF0000B2
:10401000DFFFFFFFDFFFFFFF0000000000000000E8
:10402000000000000000000000000000007C000014
:1040300000000120000000080080000000000120B6
:104040000000000800000000000000200000000048
:1040500000000000000000005B4552525D20496EE8
:104060002046756E6374696F6E3A20257328292C7B
:10407000202573006770745F74696D65725F696E87
:104080006974005465726D696E616C000D0A526549
:104090007475726E6564204572726F7220436F642E
:1040A000653A203078257820200D0A000D0A5365E6
:1040B0006D6170686F7265205461736B203A2047A0
:1040C00050542054696D657220436C6F73652041B4
:1040D0005049206661696C65640D0A000D0A5365DC
:1040E0006D6170686F7265205461736B203A204770
:1040F00050542054696D65722073746F7020415064
:1041000049206661696C65640D0A000D0A53656D8E
:104110006170686F7265205461736B203A2047505C
:10412000542074696D65722073746F707065640DCE
:104130000A000D0A53656D6170686F7265205461E5
:10414000736B203A2053757370656E64696E6720D7
:1041500053656D6170686F7265205461736B0D0AF1
:10416000000D0A53656D6170686F7265205461734C
:104170006B203A204170706C69636174696F6E20C6
:10418000656E647320686572652E20526573746174
:10419000727420746F2072756E207468652061706F
:1041A000706C69636174696F6E20616761696E0D1F
:1041B0000A000D0A2053656D6170686F72652054A6
:1041C00061736B203A204163717569726564207375
:1041D000656D6170686F7265207375636365737375
:1041E00066756C6C790D0A0073656D6170686F722D
:1041F000655F7461736B5F656E747279000D0A534D
:10420000656E6465725F5461736B203A205265631A
:104210006569766572205461736B205375737065A0
:104220006E6465640D0A000D0A53656E6465725F05
:104230005461736B203A204750542054696D657265
:1042400020436C6F736520415049206661696C653D
:10425000640D0A000D0A53656E6465725F546173E4
:104260006B203A204750542054696D657220737456
:104270006F7020415049206661696C65640D0A00C9
:104280000D0A53656E6465725F5461736B203A204A
:1042900053656D6170686F7265205461736B205255
:1042A0006573756D65640D0A000D0A53656E64656E
:1042B000725F5461736B203A204750542074696DCB
:1042C00065722073746F707065640D0A000D0A5377
:1042D000656E6465725F5461736B203A2053757329
:1042E00070656E64696E672053656E6465722054F4
:1042F00061736B0D0A000D0A2A2A2A2A2A2A2A2A01
:104300002A2A2A2A2A2A2A2A2A2A2A2A2A2A2A2A0D
:104310002A2A2A2A2A2A2A2A2A2A2A2A2A2A2A2AFD
:104320002A2A2A2A2A2A2A2A2A2A2A2A2A2A2A2AED
:104330002A2A2A2A2A2A2A2A2A2A2A2A2A2A2A2ADD
:104340002A2A2A2A2A2A2A2A0D0A2A2020205265C5
:104350006E6573617320465350204578616D706CB3
:10436000652050726F6A65637420666F72204672B2
:10437000656552544F53204D6573736167652051D5
:104380007565756520262053656D6170686F72656F
:10439000204D6F64756C6520202A0D0A2A2020208C
:1043A0004578616D706C652050726F6A656374202A
:1043B00056657273696F6E2025732020202020209F
:1043C00020202020202020202020202020202020ED
:1043D00020202020202020202020202020202020DD
:1043E000202020202020202020202A0D0A2A2020E2
:1043F00020466C657820536F667477617265205033
:1044000061636B2056657273696F6E202025642E80
:1044100025642E25642020202020202020202020FC
:10442000202020202020202020202020202020208C
:104430002020202020202020202020202020202A72
:104440000D0A2A2A2A2A2A2A2A2A2A2A2A2A2A2A09
:104450002A2A2A2A2A2A2A2A2A2A2A2A2A2A2A2ABC
:104460002A2A2A2A2A2A2A2A2A2A2A2A2A2A2A2AAC
:104470002A2A2A2A2A2A2A2A2A2A2A2A2A2A2A2A9C
:104480002A2A2A2A2A2A2A2A2A2A2A2A2A2A2A2A8C
:104490002A2A0D0A526566657220746F2072656162
:1044A000646D652E7478742066696C6520666F7221
:1044B000206D6F72652064657461696C73206F6E26
:1044C000204578616D706C652050726F6A65637409
:1044D00020616E640D0A4653502055736572277330
:1044E000204D616E75616C20666F72206D6F726514
:1044F00020696E666F726D6174696F6E2061626FA4
:104500007574204672656552544F53204D65737320
:1045100061676520517565756520262053656D615D
:1045200070686F7265206472697665720D0A000D9D
:104530000A4D6573736167657320617265207368E6
:1045400061726564206265747765656E2053656E7F
:104550006465725F5461736B2C2049535220616E05
:10456000642052656365697665725F5461736B2080
:10457000666F722074686520666972737420666560
:1045800077207365636F6E64732E0A4C6174657275
:104590002C2053656E64657220616E6420526563E1
:1045A0006569766572205461736B732077696C6CF2
:1045B0002062652073757370656E6465642074692C
:1045C0006D65722077696C6C2062652073746F7002
:1045D0007065642E2053656D6170686F7265206927
:1045E000732061637175697265640A616E6420721B
:1045F000656C6561736564206265747765656E20BE
:1046000053656D6170686F7265205461736B2061D2
:104610006E642049535220666F7220746865206E64
:1046200065787420666577207365636F6E647320A8
:10463000616E642053656D6170686F7265205461AE
:10464000736B2069732073757370656E6465642E77
:104650000A546F20726573746172742074686520E7
:104660006170706C69636174696F6E2C20706F7714
:104670006572206379636C652074686520626F6180
:1046800072642E0A004750542043616C6C6261636F
:104690006B0053656E6465725F5461736B000D0A45
:1046A0002053656E6465725F5461736B203A2047D6
:1046B0006F696E67206F6E2064656C617920666F2C
:1046C00072203530306D73000D0A2053656E6465BD
:1046D000725F5461736B203A204D65737361676537
:1046E00020706F73746564206F6E205175657565F9
:1046F000207375636365737366756C6C790073659D
:104700006E6465725F7461736B5F656E747279005D
:1047100028202820282070784C696E6B2D3E784226
:104720006C6F636B53697A65202920262028202826
:1047300020282073697A655F742029203120292080
:104740003C3C202820282073697A656F66282073F6
:10475000697A655F742029202A202820282073691F
:104760007A655F742029203820292029202D2031C6
:1047700020292029202920213D2030202920213DC9
:10478000203000433A2F6275696C642F6578616D43
:10479000706C655F70726F6A656374732F6D636BA5
:1047A0005F72613674322F6672656572746F732F33
:1047B0006672656572746F735F6D636B5F7261368D
:1047C00074325F65702F6B65696C2F72612F617732
:1047D000732F4672656552544F532F46726565526A
:1047E000544F532F536F757263652F706F727461DE
:1047F000626C652F4D656D4D616E672F68656170E8
:104800005F322E630021282028207078517565754D
:10481000652D3E706348656164203D3D2030202950
:10482000202626202820707851756575652D3E75E7
:104830002E7853656D6170686F72652E784D757452
:104840006578486F6C64657220213D2030202920F6
:1048500029002128202820785461736B4765745300
:1048600063686564756C657253746174652829208A
:104870003D3D202820282042617365547970655F92
:10488000742029203020292029202626202820783D
:104890005469636B73546F5761697420213D2030F4
:1048A0002029202900212820282078436F70795062
:1048B0006F736974696F6E203D3D20282028204267
:1048C000617365547970655F742029203220292036
:1048D00029202626202820707851756575652D3E83
:1048E00075784C656E67746820213D203120292041
:1048F00029002128202820282070764275666665C8
:10490000722029203D3D20302029202626202820E5
:1049100028207078517565756520292D3E75784978
:1049200074656D53697A6520213D202820554261C8
:104930007365547970655F742029203055202920D3
:104940002900212820282070764974656D546F5104
:1049500075657565203D3D203020292026262028BC
:1049600020707851756575652D3E75784974656D53
:1049700053697A6520213D20282055426173655492
:104980007970655F74202920305520292029002165
:10499000282028207076427566666572203D3D208D
:1049A00030202920262620282070785175657565CD
:1049B0002D3E75784974656D53697A6520213D20D7
:1049C00028205542617365547970655F74202920F1
:1049D0003055202920290028206354784C6F636BC0
:1049E000202920213D2028202820696E74385F74FA
:1049F0002029203132372029002820707851756510
:104A00007565202900707851756575652D3E75783E
:104A10004974656D53697A65203D3D203000433A05
:104A20002F6275696C642F6578616D706C655F705D
:104A3000726F6A656374732F6D636B5F7261367436
:104A4000322F6672656572746F732F667265657258
:104A5000746F735F6D636B5F72613674325F657024
:104A60002F6B65696C2F72612F6177732F467265AA
:104A70006552544F532F4672656552544F532F530E
:104A80006F757263652F71756575652E6300784863
:104A9000616E646C650070784E65775175657565FB
:104AA0000070785175657565002820282028202819
:104AB00020707844656C617965645461736B4C69EE
:104AC000737420292D3E75784E756D6265724F6640
:104AD0004974656D73203D3D202820554261736502
:104AE000547970655F74202920302029203F2028C8
:104AF00020282042617365547970655F74202920F5
:104B0000312029203A2028202820426173655479D9
:104B100070655F7420292030202920292029007504
:104B200078496E646578546F576169744F6E203CA4
:104B300020283129007578496E646578546F436C7C
:104B4000656172203C20283129007578496E6465C2
:104B500078546F4E6F74696679203C2028312900A3
:104B6000785469636B436F756E74203D3D20282037
:104B70005469636B547970655F7420292030002874
:104B800020282026282070785443422D3E784576F0
:104B9000656E744C6973744974656D202920292DE4
:104BA0003E7078436F6E7461696E65722029203D96
:104BB0003D20300075785363686564756C65725389
:104BC000757370656E646564203D3D2030007078BB
:104BD000556E626C6F636B65645443420070785429
:104BE00043420049444C45007578536368656475D9
:104BF0006C657253757370656E64656420213D2029
:104C000028205542617365547970655F74202920AE
:104C100030550075785363686564756C65725375BB
:104C20007370656E646564203D3D20315500433AE4
:104C30002F6275696C642F6578616D706C655F704B
:104C4000726F6A656374732F6D636B5F7261367424
:104C5000322F6672656572746F732F667265657246
:104C6000746F735F6D636B5F72613674325F657012
:104C70002F6B65696C2F72612F6177732F46726598
:104C80006552544F532F4672656552544F532F53FC
:104C90006F757263652F7461736B732E6300785444
:104CA00061736B546F526573756D650070784576EE
:104CB000656E744C69737400707854696D654F75D6
:104CC0007400785461736B546F4E6F746966790029
:104CD000433A2F6275696C642F6578616D706C65FD
:104CE0005F70726F6A656374732F6D636B5F72615F
:104CF0003674322F6672656572746F732F667265D3
:104D00006572746F735F6D636B5F72613674325F6F
:104D100065702F6B65696C2F72612F6177732F46F9
:104D200072656552544F532F4672656552544F5306
:104D30002F536F757263652F74696D6572732E637F
:104D4000007854696D6572002828285343425F54E7
:104D5000797065202A292028283078453030304560
:104D6000303030554C29202B2030783044303055AD
:104D70004C2920292D3E49435352202620283078A3
:104D8000314646554C202929203D3D203000433AEC
:104D90002F6275696C642F6578616D706C655F70EA
:104DA000726F6A656374732F6D636B5F72613674C3
:104DB000322F6672656572746F732F6672656572E5
:104DC000746F735F6D636B5F72613674325F6570B1
:104DD0002F6B65696C2F72612F6673702F7372630E
:104DE0002F726D5F6672656572746F735F706F723C
:104DF000742F706F72742E630000000004000000B6
:104E000000000805352E382E30004275696C74207C
:104E1000776974682052656E6573617320416476AA
:104E2000616E63656420466C657869626C652053C9
:104E30006F667477617265205061636B616765208E
:104E400076657273696F6E20352E382E3000000043
:104E5000C800000085460000F80F000000000000B8
:020000040100F9
:10A10000FFFFFFFFFFFFFFFFFFFFFFFFFFFFFFFF5F
:10A11000FFFFFFFFFFFFFFFFFFFFFFFFFFFFFFFF4F
:10A12000FFFFFFFFFFFFFFFFFFFFFFFFFFFFFFFF3F
:10A13000FFFFFFFFFFFFFFFFFFFFFFFFFFFFFFFF2F
:10A14000FFFFFFFFFFFFFFFFFFFFFFFFFFFFFFFF1F
:10A15000FFFFFFFFFFFFFFFFFFFFFFFFFFFFFFFF0F
:10A16000FFFFFFFFFFFFFFFFFFFFFFFFFFFFFFFFFF
:10A17000FFFFFFFFFFFFFFFFFFFFFFFFFFFFFFFFEF
:020000040100F9
:10A20000FFFDF0FFFFFFFFFFFFFFFFFFFFFFFFFF6F
:10A21000FFFFFFFFFFFFFFFFFFFFFFFFFFFFFFFF4E
:10A22000FFFFFFFFFFFFFFFFFFFFFFFFFFFFFFFF3E
:10A23000FFFFFFFFFFFFFFFFFFFFFFFFFFFFFFFF2E
:10A24000FFFFFFFFFFFFFFFFFFFFFFFFFFFFFFFF1E
:10A25000FFFFFFFFFFFFFFFFFFFFFFFFFFFFFFFF0E
:10A26000FFFFFFFFFFFFFFFFFFFFFFFFFFFFFFFFFE
:10A27000FFFFFFFFFFFFFFFFFFFFFFFFFFFFFFFFEE
:10A28000F8F8F0FFFFFFFFFFFFFFFFFFFFFFFFFFFB
:10A29000FFFFFFFFFFFFFFFFFFFFFFFFFFFFFFFFCE
:10A2A000FFFFFFFFFFFFFFFFFFFFFFFFFFFFFFFFBE
:10A2B000FFFFFFFFFFFFFFFFFFFFFFFFFFFFFFFFAE
:10A2C000FFFFFFFFFFFFFFFFFFFFFFFFFFFFFFFF9E
:10A2D000FFFFFFFFFFFFFFFFFFFFFFFFFFFFFFFF8E
:10A2E000FFFFFFFFFFFFFFFFFFFFFFFFFFFFFFFF7E
:10A2F000FFFFFFFFFFFFFFFFFFFFFFFFFFFFFFFF6E
:0400000500000525CD
:00000001FF
