:10000000A06400208921000031200000852100002B
:100010008521000085210000852100008521000048
:10002000000000000000000000000000852100002A
:1000300085210000000000008521000085210000CE
:10004000ED1700008517000065180000A9180000D2
:1000500000000000000000000000000000000000A0
:100060000000000000000000000000000000000090
:100070000000000000000000000000000000000080
:100080000000000000000000000000000000000070
:10040000FFFFFFFFDFCEFFFFFCFF0F00FFFF0F002E
:10041000FCFF0F00FFFF0F00FCFF0F00FFFF0F00AE
:10042000FCFF0F20FFFF0F20FCFF7F40FFFF7F40FE
:10043000FCFF0D40FFFF0D40FFFFFFFFFFFFFFFF31
:10044000FFFFFFFFFFFFFFFFFFFFFFFFFFFFFFFFBC
:10045000FFFFFFFFFFFFFFFFFFFFFFFFFFFFFFFFAC
:10046000FFFFFFFFFFFFFFFFFFFFFFFFFFFFFFFF9C
:10047000FFFFFFFFFFFFFFFFFFFFFFFFFFFFFFFF8C
:10048000FFFFFFFFFFFFFFFFFFFFFFFFFFFFFFFF7C
:10049000FFFFFFFFFFFFFFFFFFFFFFFFFFFFFFFF6C
:1004A000FFFFFFFFFFFFFFFFFFFFFFFFFFFFFFFF5C
:1004B000FFFFFFFFFFFFFFFFFFFFFFFFFFFFFFFF4C
:1004C000FFFFFFFFFFFFFFFFFFFFFFFFFFFFFFFF3C
:1004D000FFFFFFFFFFFFFFFFFFFFFFFFFFFFFFFF2C
:1004E000FFFFFFFFFFFFFFFFFFFFFFFFFFFFFFFF1C
:1004F000FFFFFFFFFFFFFFFFFFFFFFFFFFFFFFFF0C
:1005000044F2607044F26073C2F20000C2F2000371
:1005100010B5834205D040F20003C0F2000303B1DE
:10052000984710BD44F2607044F26073C2F200005C
:10053000C2F200031B1A9A10D90F8918491010B57E
:1005400029B140F20003C0F2000303B1984710BD87
:1005500010B544F27874C2F20004237873B9FFF73F
:10056000CFFF40F20003C0F200032BB14AF2241087
:10057000C0F2000000E000BF0123237010BDC046A0
:1005800040F20003C0F2000310B54BB144F27C719D
:100590004AF22410C2F20001C0F2000000E000BFE5
:1005A000FFF7C0FF10BDC046C368F0B5C646984609
:1005B0008768040040680D0000B5FE1AC01890441A
:1005C000964208D902F042F9BFF35F8F4346E360D9
:1005D00080BCB846F0BD320002F038F94346DB1B60
:1005E0001A006068A919984602F030F9BFF35F8FCE
:1005F000ECE7C046F8B54746CE46884680B51600BB
:10060000070040F20009C56884681CE0013B5B1BE1
:10061000641BB44200D934009C4200D91C007868A5
:1006200022004146401902F011F92D19A144A044BD
:10063000361BBC68631B5A1E93415B421D40BFF3CF
:100640005F8FFD6036B13B699D42DFD3013B1B19D3
:100650005B1BDDE74846C0BCB946B046F8BDC046A6
:1006600010B544F6A434C2F20004A82200212000F0
:1006700002F092F8032349F270422361636144F26D
:10068000A473C0F20002C2F20003A261E36140F26F
:10069000004323620023A3626362E362226644F2A2
:1006A0009472C2F2000262661022A2662367E366B9
:1006B0006367BFF35F8F054A00215156013AE15449
:1006C0000133102BF8D1BFF35F8F10BD8B94000066
:1006D000431C70B504005800C01844F6A433C2F29D
:1006E00000039C4663001B19DB006344DC6AC00006
:1006F00015006044012C05D0022C1ED084B10024CA
:10070000200070BD9A6A5C6AA2421FD9013A121B8E
:100710002C00954200D914002200FFF745FFEFE7B7
:100720009A6A5E6AB2420CD9013A961BB542E7D882
:100730002A00FFF739FF2C00E2E7FFF75BFF040018
:10074000DEE71B6AD218013A961BEFE71B6AD21844
:10075000013A121BDCE7C046F8B544F6A433C2F2F6
:1007600000031B7804000D001600532B01D0FFF787
:1007700077FFEFF31087012181F310883200290001
:100780002000FFF7A5FF87F31088F8BD10B504001F
:1007900083686268581C904207D82268D154E36885
:1007A00062680133E3600300A0609A4200D010BD8C
:1007B00021682069FFF7D0FFA368984203D0012386
:1007C0005B42E360F3E70023A360F0E7F8B54E4631
:1007D00045465746DE46E0B51E000A9B0F008046A0
:1007E000150099460B99974200D270E03B00012218
:1007F000B3FBF5F301329D42FAD9B246964200D2DC
:10080000924601231A000A4093460B4202D14B46FE
:10081000002B3ED14346DB680124002B24DB012E54
:1008200003D9013E6C43012EFBD8B7FBF4F39D4284
:10083000F8D949F21456C0F2000606E0B4FBF5F30D
:10084000AC420DD31C00B7FBF3F322005A43F15620
:100850004046BF1AFFF79AFF4346DB68002BEDDAEC
:100860005B460BB14B468BB9F0BCBB46B246A946C2
:10087000A046F8BD01235B429C4620214046E1444E
:10088000FFF784FF4346DB68002BEDDBD145F1D851
:10089000EAE72024890717D53400631E9C410F2303
:1008A00064429C433034CA45B4D201235B429C4627
:1008B00021004046E144FFF769FF4346DB68002B17
:1008C000D2DB4A46002AA7D0CA45EED3A2E70122CE
:1008D00093E7C046F0B5DE4657464E464546E0B57E
:1008E0009BB00AAB0593402306930023079308931C
:1008F000AF4B0C00914640F2010A9B46804609909E
:10090000002161560134002966D0252907D005A8A9
:10091000FFF73CFF089B002BF2DA1F0065E0002385
:10092000E3560027022508200422611C2D2B0DD040
:100930002D2B0FDC232B12D02B2B00D061E10C00D0
:1009400017430023E356611C2D2BF1D153460C00B5
:100950001F43F6E7302B05D10C002F43F1E70C00C5
:100960000743EEE71A00303AD2B20026092A0DD822
:10097000B20096197600F6180023CB560C001A0028
:10098000303AD2B2303E0131092AF1D92E2B00D1B2
:10099000B1E000230025E3560C0004221900914326
:1009A000682909D0252B11D0583BDBB2202BB1D8B8
:1009B0005A469B00D3589F4604210023E356013436
:1009C0001A008A43682AF8D0252BEDD1252105A8E5
:1009D000FFF7DCFE089B9EE7089F4546002F04DDDD
:1009E000079C002C00D0A0E03F1938001BB0F0BCE1
:1009F000BB46B246A946A046F0BD4B4649461B68D9
:100A000005A81A1D0A60196810222B00019700968C
:100A1000FFF7DCFE089B7EE74B4649461B6805A8AE
:100A20001A1D0A6000215956FFF7B0FE089B72E7B5
:100A30004B4649461B6805A81A1D0A6019680A2218
:100A40002B0001970096FFF7C1FE089B63E74B461A
:100A500049461B681A1D0A601D6806E005A8FFF7D5
:100A600095FE089B002B00DA57E7002169560135F7
:100A70000029F3D14EE74B4649461B6805A81A1DCD
:100A80000A60196800230193083300931022FFF7CE
:100A90009DFE089B3FE74B4649461B681A1D1B6895
:100AA0000A60DA1703939B1853400122092B06DDD5
:100AB0000A201900013293FBF0F36329F9DC029557
:100AC000954247D3BEBB0026089B002B00DA24E7E3
:100AD000039B002B59DB7B0762D403233B40022B93
:100AE00068D02B000A2203990197009605A8FFF70A
:100AF0006DFE089B0FE70123E3561A00303AD2B28D
:100B0000092A52D800250C002A009500AD186D0066
:100B1000EA1800230134E356303A19003039C9B2DB
:100B20000929F2D91500611C36E7220028000AA91C
:100B3000FFF712FE58E70223039A3B40002A0DDB21
:100B40007A070BD4002B4CD015B1FB0700D46EB93B
:100B5000089BBAE70292002EEDD1B4E7013E0BB13B
:100B6000002DF5D0FB07F3D4002EACD0029BB3428E
:100B7000EED2202105A8FFF709FE089B013E002BBD
:100B800000DACAE6002EF1D1E2E75B422D2105A88A
:100B90000393FFF7FBFD089B002B9EDA1F0024E761
:100BA0002B2105A8FFF7F2FDF5E700250131F3E65B
:100BB00090940000002D94D1002E92D0029B9E4272
:100BC0001DD9302105A8FFF7E1FD089B013E002B50
:100BD00000DAA2E6002EF1D1002B00DB81E71F0036
:100BE00003E7FB07B3D5089B002B00DA95E6032348
:100BF0003B40022B00D074E7002DDFD071E7089B4B
:100C0000EAE70026C5E6C0460EB400B582B003ABE5
:100C100002CB01AA0193FFF75DFE02B008BC03B04E
:100C20001847C04644F67C4010B5C2F2000000F000
:100C300045FA00B910BD49F2245349F64C1249F265
:100C40005451C0F20003C0F20002C0F200010020C3
:100C5000FFF7DAFFEEE7C04670B544F67345C2F21F
:100C600000052B78012B33D044F28404C2F2000437
:100C700005E02B78022B2CD02B78012B28D0236871
:100C8000013B23602368002BF3DC44F67C40C2F276
:100C9000000000F013FA002834D149F2705349F6ED
:100CA000381249F25451C0F200020020C0F2000391
:100CB000C0F20001FFF7A8FF142249F2A051002062
:100CC000C0F20001FFF7A0FF00BE2B78012BD6D1A8
:100CD00070BD44F67C40C2F2000000F0EFF908BBA2
:100CE00049F2C05349F6381249F25451C0F2000299
:100CF0000020C0F20003C0F20001FFF785FF40F2C0
:100D00002C12DAE749F2245349F64C1249F25451B5
:100D1000C0F20003C0F20002C0F200010020FFF7A1
:100D200073FFBAE749F2245349F64C1249F2545181
:100D3000C0F20003C0F20002C0F200010020FFF781
:100D400063FFCDE70023F0B585B0039349F6341374
:100D5000C0F200031A8802AC22809B7803AD280001
:100D6000A37001F027F96A78EB780192AA7849F22A
:100D7000E851009249F2E452C0F20001C0F20002D0
:100D80000020FFF741FF49F2C4710020C0F20001CA
:100D9000FFF73AFF49F6681144F67C40C0F20001C3
:100DA000C2F2000000F000FA0500002800D02AE19D
:100DB00044F67440012240F20341C2F2000000F008
:100DC00097FD44F67C40072303222100C2F2000075
:100DD00000F0BCFC0500002800D0F9E0FFF73CFF64
:100DE00044F67440002240F20341C2F2000000F0D9
:100DF0007FFD44F6734644F674400023012240F21E
:100E00000341C2F20006C2F20000337000F070FD30
:100E100044F66C4144F67C4007230222C2F20001F2
:100E2000C2F2000000F084FC0500002800D0B4E00D
:100E3000FFF712FF44F67440002240F20341C2F271
:100E4000000000F055FD44F66C43C2F200036278E6
:100E50005B789A4208D049F2A0511B22C0F20001EF
:100E60000020FFF7D1FE00BE44F6704540F2E831A5
:100E7000C82001F0AFF80027C2F200054EE049F6A5
:100E8000FC0349F65C1249F25451C0F20003C0F26F
:100E90000002C0F200010020FFF7B6FE49F2A051A7
:100EA0002200C0F200010020FFF7AEFE00BEFFF7F7
:100EB000D3FE44F67440002240F20341C2F2000027
:100EC00000F016FDA8786B7800011B09184301F0AB
:100ED00071FBF621890501F02FFA01F0B7FB49F605
:100EE00018120090019144F64C401E21C0F20002FD
:100EF000C2F2000001F00EFC44F64C4249F61C110F
:100F00000020C0F20001C2F20002FFF77DFE44F2B1
:100F100040210220C0F20F0101F05CF844F64C4081
:100F20001E220021C2F20000377001F035FC44F6A9
:100F30007440012240F20341C2F2000000F0D8FCEC
:100F4000072344F6704244F2800144F67C4000934B
:100F5000C2F20002043BC2F20001C2F2000000F043
:100F600003FC04000028A2D044F67C40C2F200003A
:100F700000F0A4F8002800D181E749F2245349F693
:100F80004C1249F25451C0F20003C0F20002C0F208
:100F900000010020FFF738FE71E7FFF743FE49F636
:100FA000E40349F65C1249F25451C0F20003C0F266
:100FB0000002C0F200010020FFF726FE49F2A05116
:100FC0002A00C0F200010020FFF71EFE00BE2FE73E
:100FD000FFF728FE49F6E40349F65C1249F2545142
:100FE000C0F20003C0F20002C0F200010020FFF7CF
:100FF0000BFE49F2A0512A00C0F200010020FFF7C9
:1010000003FE00BEEAE649F6CC0349F65C1249F25B
:101010005451C0F20003C0F20002C0F200010020EF
:10102000FFF7F2FD49F2A0512A00C0F200010020B2
:10103000FFF7EAFD00BEBBE60379012B06D044F6BC
:1010400073430222C2F200031A70704744F67342DF
:10105000C2F200021370F8E710B5022800D010BDEC
:1010600049F6C01144F67440C0F20001C2F200001B
:1010700000F0D0FCF3E7C04610B5FFF763FE002098
:1010800010BDC046F0B50400406A85B08C4601AD85
:1010900090B12B000200C2CAC2C363681B78036010
:1010A00063460371A36A8360236A9847636A0BB13E
:1010B00013CD13C305B0F0BD2800EEE770B50400F2
:1010C000002800D16EE044F653130268C5F24333A2
:1010D0009A4265D10022022183689A7043680132E6
:1010E00059561F231500480919408D404EF2001132
:1010F0002030CEF2000180004550BFF34F8FBFF388
:101100006F8F012516006068455768091D40AE4085
:10111000203080004650BFF34F8FBFF36F8F042500
:1011200016006068455768091D40AE4020308000B9
:101130004650BFF34F8FBFF36F8F0325606845574D
:101140002B40680915009D40203083005D50BFF39F
:101150004F8FBFF36F8FEFF3108182F310886368B6
:1011600046F6FC721D7880231B06EB40C4F2040295
:10117000506803435360536881F3108863685A6969
:1011800022B1936810681B6A984763681B691BB19A
:1011900018689B681B6A984700230020236070BD75
:1011A0000720FCE70120FAE7F0B54546DE46574642
:1011B0004E46E0B50C00050085B0002800D1BCE12A
:1011C00044F653130268C5F243339A4200D1BDE19D
:1011D000002900D1B1E10B6A002B00D1ADE1886993
:1011E000002800D1A9E10A7840F207230121D34069
:1011F0000E001E40194200D1AAE163787F2B00D96E
:101200009CE1A3787F2B00D998E1E3787F2B00D96C
:1012100094E123797F2B00D990E143F60003C0F2DB
:1012200000239C46E3696244AB6200236B626369FE
:101230005201AA606C60286273B180265968360337
:10124000086805320660426018689B681B6898470A
:101250000600002800D071E123697BB18022596823
:10126000120508680260AA680332826018689B68E9
:101270001B6898470600002800D06CE180226F6848
:1012800040F20408396A4B789B079B0F13430222F4
:1012900001938B788A569946002A03DB40F20008B6
:1012A00040F2FF097A7A012A00D162E1002300208E
:1012B0000293BE7AFA7A012E00D154E1012A00D1BC
:1012C0005BE1802210437A7B56427241D200E232C7
:1012D000EFF3108A40F2010B8BF3108846F6FC7690
:1012E000C4F2040673683F78039380231B06FB4017
:1012F000039F9F43776076688AF31088002740F247
:10130000840CAE68C0B2B7703379634633719C4BBE
:10131000B3826B461B793370029BB3700B78B2714A
:1013200073704B46B3744346F37140237073377246
:101330007772B772F7727783F3743E3B33774EF26E
:1013400000130122CEF200039C4640F20030A25668
:10135000FF219608B600664433589846032313408D
:10136000DB009C466046637967469B010B408340E7
:101370000800B84084464046674644F6005CB843DF
:10138000034340F20030C2F2000C33506046930039
:1013900016001D5046F20003C036C4F20003B6002A
:1013A000F058070077480740F750F658BFF35F8FB3
:1013B0001F265F461640B7403E004EF20017CEF2A1
:1013C0000007B84640F2801052099200424416507D
:1013D00016600222A25681309608B600B0444646F6
:1013E000FF303658B24603261640F600B1464F4647
:1013F000A6794846B6010E40BE400F008740B94668
:101400005746484687433E4340F2003047463E50E9
:1014100067469600F5511600C036B600F758594891
:101420000740F750F658BFF35F8F1F265F46164000
:10143000B7403E004EF20017CEF20007B84640F229
:101440008010520992004244165016600322A256A0
:1014500081309608B600B0444646FF303658B24652
:1014600003261640F600B1464F46E6794846B601D7
:101470000E40BE400F008740B94657464846874356
:101480003E4340F2003047463E5067469600F551D5
:101490001600C036B600F7583A480740F750F658DD
:1014A000BFF35F8F1F265F461640B7403E004EF2E7
:1014B0000017CEF20007B84640F2801052099200A1
:1014C0004244165016600422A25681309608B60097
:1014D0004644FF3037580320247A1040C000A4014E
:1014E0000C40814084408F4340F200313C437450B3
:1014F000664691008D511100C0318900C858214CB9
:101500002040C850CB58BFF35F8F1F23594613406C
:1015100099400B004EF20011CEF200018C4640F2D1
:1015200080105209920062441350136044F6531322
:10153000C5F2433300262B6000E00126300005B0E1
:10154000F0BCBB46B246A946A046F0BD0E26F5E764
:1015500040F27A56F2E76369002BEFD018689B6877
:101560001B6A9847EAE7002A00D0ACE640321043F5
:10157000A9E60223052002939BE6C0221043A2E6BF
:1015800000F8FFFFFFFFFEFFF0B5C646040016009F
:101590001D0000B5002851D044F653130268C5F26F
:1015A00043339A424ED1002D48D0436898461B6978
:1015B000002B4BD04FF6FF7085423FD830273A00C2
:1015C000A0688078024007423ED1E5616261A26175
:1015D000E1602661002B58D05A6865611768AAB28D
:1015E000FA81002945D0796002210C20FA7889001F
:1015F000824318689B680A435B683900FA70984711
:10160000E8B963689846596959B156B18A6808685B
:10161000976800213200A561ABB2B84778B963681A
:101620009846A06843461969236943B300292FD01F
:10163000F022837813438370002000E0012080BCF7
:10164000B846F0BD0720FAE70820F8E7424650699F
:101650000028AFD130273A00A06883781A4094461A
:101660001F42F1D16346E5616361A361E1602661D8
:10167000D8E744F6B842C2F200027A60B5E7A02289
:101680008378134383700020D9E743465969BBE749
:10169000434659690B005D1EAB418578DB01703311
:1016A0002B43DBB283700029C6D1434601221F21A0
:1016B0009A561140530901228A404EF200112033FC
:1016C000CEF200019B005A50BFF34F8FBFF36F8FD4
:1016D0006369E269934206D2E168A06819B3C95C04
:1016E000C170013363616368597A01290ED0012208
:1016F0009A561F215309114001228A404EF20011CF
:101700009B00CEF200015A50002098E7012AEED942
:1017100061698A42EBD9E268A06832B1525CC2705A
:1017200001316161E3E7C170DBE7C270F8E7C046F1
:1017300010B5072B08D129B113000A000021FFF7CB
:1017400023FF10BD0120FCE70620FAE710B5072BA8
:1017500007D121B113000022FFF716FF10BD0120B1
:10176000FCE70620FAE7C04610B502AC2478072C47
:1017700006D119B112B1FFF707FF10BD0120FCE738
:101780000620FAE710B5EFF30383103B5BB21A00B3
:1017900046F20001C032C4F2000192005058124CCF
:1017A00020405050525844F600529B00C2F20002B2
:1017B0009B585A69D9698A4206D2D8689C6888B110
:1017C000805CE07001325A618A4200D010BD1A6913
:1017D000002AFBD19A687B2391780B4004210B43AC
:1017E0009370F3E7E070EDE7FFFFFEFF10B5EFF356
:1017F0000383103B5BB21A0046F20001C032C4F210
:10180000000192005058164C20405050525844F657
:1018100000529B00C2F200029B585A69D9698A4261
:1018200006D2D8689C68C0B1805CE07001325A6111
:101830009A698A4207D29868541C9C611969407958
:1018400088549A69D969914206D19A683B23917864
:101850000B4004210B43937010BDE070E6E7C046D7
:10186000FFFFFEFF10B5EFF3038444F60053103C76
:1018700064B2A200C2F20003D05803238268C034CD
:101880009178A4000B4093700121FFF7FBFB46F217
:101890000002C4F20002A15802480140A150A3581E
:1018A00010BDC046FFFFFEFF10B5EFF3038444F602
:1018B0000053103C64B2A200C2F20003D0580322CD
:1018C0008368C0349978A4000A409A701A798422F7
:1018D00004211A71FFF7D6FB46F20002C4F200029F
:1018E000A15802480140A150A35810BDFFFFFEFFC0
:1018F00000B345F254230068C5F24F03984213D158
:10190000012A15D8FF2301200B4098404FF6FF73A2
:1019100003405AB10022C4F2040294460020090A8E
:10192000490161448B6070470720FCE71B04F1E725
:101930000320F8E70120F6E7F0B5DE4657464E46AD
:101940004546E0B583B0EFF31082012383F310889E
:1019500044F6FC43C2F2000301931B6833B940F61E
:101960000051C4F20401CB704033CB7001990B6875
:1019700001330B6082F31088038800934BB38023FC
:101980005B029846224B40F60005002140F2FF0919
:101990009C464068C4F204054F4682880468130AD6
:1019A0003A4047461B013C420AD09F18BF00BA4646
:1019B00066467F59374056467751674627407751EC
:1019C0009B189B005C510131009B89B208308B420F
:1019D000E2D1EFF31082012383F31088019B1B688F
:1019E0001BB101990B68013B0B60019B1B6833B96C
:1019F00040F60051C4F20401CB708033CB7082F307
:101A0000108803B0F0BCBB46B246A946A046F0BD64
:101A1000FFFFFEFF030010B5080073B169B14A680B
:101A20005AB145F254221968C5F24F02914206D0CC
:101A30001A60FFF781FF002010BD0120FCE70E2097
:101A4000FAE7C0460620704706207047B0B144F25E
:101A500000330268C4F254439A420DD1042346F283
:101A60000002C356C4F20002C0339B0099580448D8
:101A700001400020995070470720FCE70120FAE759
:101A8000FFFFFFFE30B50C2140F200150CE00C000A
:101A900082781440042C0CD03F2B02D9C389AB426E
:101AA0000BD810303F2A06D90A00C3781A40042AFE
:101AB000EDD1062030BD0020FCE70120FAE7C0464A
:101AC00010B510B344F200330268C4F254439A4292
:101AD0001DD1D1B1042244F200038256C2F20003A8
:101AE0009200D25800230B604B60D3783F2B10D963
:101AF00040F200108860D48901382040C8603F203F
:101B00008343802B0BD0002010BD0120FCE7072071
:101B1000FAE780235B028B60D389CB60F3E78023F5
:101B20005B020B6093894B60EDE7C04630B5F8B1BE
:101B300044F200330268C4F254439A4216D104239B
:101B4000C35646F200011A00C032C4F200019200EE
:101B50005458084D9B002C40545044F20002002180
:101B6000C2F2000299500160002030BD0720FCE75E
:101B70000120FAE7FFFFFFFE44F20003F0B5012762
:101B8000C2F2000382000C26D3587F4219E03100D4
:101B90009C782140042919D05968C9B19968B9B114
:101BA0003D009206920F95402A009968ED439143BB
:101BB00071B929005A6811402A4209D110333F2CCB
:101BC00009D93100DA7811400429E0D1062100E07A
:101BD00001210800F0BD46F200038022C030C4F2AB
:101BE00000038000C45852042243C250F1E7C046AB
:101BF000030010B568B144F200320168C4F25442E7
:101C00000720914200D010BD04201856FFF7B4FF02
:101C1000F9E70120F7E7C04670B582B00191009264
:101C200000284FD044F200320168C4F2544291427D
:101C300040D10425455746F200012A00C0329200E7
:101C4000C4F200015458214E34405450515845F2CA
:101C5000004448F20002C905C90D1143C4F2000452
:101C6000E2898A42FCD0082244F200012270019AE3
:101C7000C2F2000112B3AA008C58019D6560009C5D
:101C800014B18C58009DA5608A583F24D1780D006E
:101C9000A543802D14D03F290ED945F200431822C8
:101CA000C4F200031A70007940B2FFF765FF58B91B
:101CB00002B070BD0720FBE7D381EEE7AA00DEE7A4
:101CC0009381EAE70120F3E71320F1E7FFFFFFFE2E
:101CD000F8B504000E0000284CD044F2003302682E
:101CE000C4F254439A4247D1002943D00800FFF779
:101CF000C9FE00283ED10420205646F2000203000F
:101D0000C0339B00C4F2000299581D4D29409950E0
:101D10009A5845F2004148F20003D205D20D1A4309
:101D2000C4F20001CB899A42FCD03300FF27DA7855
:101D30001D003F2A06D93900DA891140D2B21202B9
:101D40000A43DA81AA7810333F2AF0D845F20043DB
:101D50000822C4F200031A7044F200028000C2F2AA
:101D600000028650182204201A702056FFF704FF44
:101D700020B9F8BD0120FCE70720FAE71320F8E7B7
:101D8000FFFFFFFEF8B504000D00002845D044F227
:101D900000330268C4F254439A4262D0E9B34A68FD
:101DA000DAB344F6B943C2F200031978002936D0F9
:101DB0000023D356002B56DB44F200069F00C2F2EC
:101DC0000006F25908204ABB23712D68F5B128009E
:101DD000FFF758FE10BB2B0040F2FF0CDA78190019
:101DE0003F2A06D96046DA891040D2B21202024375
:101DF000DA818A7810333F2AF0D845F2004308226E
:101E0000C4F200031A701032F5511A7044F2003314
:101E1000C4F254430020236000E00120F8BD0127F4
:101E20001F70EFF3108187F310884EF20003C4F2A5
:101E30000103DA690D480240DA61DB6981F3108839
:101E400044F20006C2F2000680220021300000F0B9
:101E5000A3FC45F20043C4F200035E606A681F738E
:101E6000A6E70E20DAE70B20D8E7C046FFFFBFFF4A
:101E70004EF20003262244F26071C4F20103985C22
:101E80001B6A8000C2F2000141585B015B0F44F6FF
:101E90008C52D940C2F20002116070474EF200032A
:101EA00040F2FE323D49C4F2010330B599524CF282
:101EB0000001002243F6C870C4F27E010A5444F2C5
:101EC000607046F60041C2F20000C0F2DC21016001
:101ED00041F20021C0F27A01416048F20001C26083
:101EE000026181602632995C1A6A89004158520168
:101EF000520F44F68C54D140C2F20004216040F2EB
:101F0000804201219954A0229A5CCAB136229A5C7F
:101F10001AB93B315A5CD207FCD54EF20002A0211F
:101F2000C4F20102535CDB06DD0F002BFADB5554D3
:101F30004EF20002A021C4F20102535CDB06FCD485
:101F40004EF2000200213623C4F20102D1543C318A
:101F5000535CDB07FCD501213123D1544FF6C47308
:101F6000C4F27E03197040F2001300251362DA3BBD
:101F7000D554D55C136AAD0040595B015B0FD84066
:101F800040F2FE3320600648D0524CF2000343F684
:101F9000C872C4F27E03995430BDC04603A5FFFF4A
:101FA00000A5FFFF44F2000328220021C4F204032D
:101FB0009954704728B10023C0F206430360002003
:101FC00070470120FCE7C04600BEFEE7013800284C
:101FD000FCD1704744F68C524CF600234143C2F2C8
:101FE000000270B51468C3F69A330D00B3FBF4F425
:101FF000080040F2E8320023002100F06FF931B907
:10200000B0FBF4F0800808B1FFF7E0FF70BDA0005E
:10201000B5FBF0F040F2E8320023002100F05EF959
:102020000029F0D001204042FFF7D0FFEEE7C04684
:10203000F8B546F2000340F2401244F6BC450024D5
:102040000127C4F200039E5AC2F20005B6B2330063
:10205000E3401F4203D02B680BB1E0B29847013434
:102060000435102CF3D146F2000340F23012C4F2D2
:1020700000039E52F8BDC04646F200000023C4F2A1
:10208000000049F6F822C0F200029A1811781A00EE
:10209000C032920001331150202BF2D17047C0465C
:1020A00030B5EFF31081012383F3108844F6805399
:1020B0004000C2F200031A5A1AB11A5A013A92B2F7
:1020C0001A521B5A83B94EF2000249F63C3340F2D1
:1020D000FE34C4F20102C0F20003155B185A044B2F
:1020E0002B4383439BB2135381F3108830BDC0460A
:1020F00000A5FFFF70B5EFF31081012383F3108873
:1021000044F680524000C2F20002135A83B94EF2E4
:10211000000449F63C3540F2FE36C4F20104C0F238
:102120000005A35B2D5A2B434AF200552B43A353C2
:10213000135A01339BB2135281F3108870BDC0460D
:1021400044F68852C2F200020300106810B558B17C
:10215000032103338B4346F2A001C318C2F20001EE
:102160008B4207D8136010BD45F2A000C2F20000F8
:102170001060EDE700F060FB0C230360012040429B
:10218000F1E7C04600BE704710B500F003F8FEF757
:1021900073FFFEE7F0B54EF6005340F20005CEF2B5
:1021A0000003C0F2000583B09D600020FEF754FFDD
:1021B000FFF774FE6B460027DC1D27700120237893
:1021C000FFF798FFEFF31081012686F3108846F69B
:1021D000FC73C4F204039A683C4802409A609A680F
:1021E00081F3108840F60001C4F204010A68D207A6
:1021F000D20F22700A68D207D20F22700A68D20763
:10220000D20F2270EFF3108186F310888022986835
:10221000520502439A609B6881F310880120FFF702
:102220003FFF0120FEF718FF40F60053284AC4F292
:1022300000039F8027491A802A6841F20000511844
:102240009960DA6046F2000240F22011C4F2000206
:10225000505245F29C0244F27870C2F20002C2F27F
:1022600000009E800021121A00F096FA44F28000CD
:1022700044F260724AF23011C2F20000C2F200026F
:10228000121AC0F2000100F0E1FA44F2547544F26F
:102290005C73C2F20005C2F200035B1B9E10002BB0
:1022A00005DD002408CD01349847A642FADCFFF78B
:1022B000DFFDFFF777FE0220FEF7CEFEFFF7DCFE24
:1022C000002000F009F803B0F0BDC046FFFFFFEFAB
:1022D00000A5FFFF00FCFFFF7047C046F0B54FF6BA
:1022E000FF750400CE462C40474615400E002900DD
:1022F000994680B5130C0700000C614345435843D1
:1023000063430C0C5B19E4188C46A54203D9802367
:102310005B0298464044230C61461B184FF6FF7041
:102320000840494656437943240489192018C9189E
:10233000C0BCB946B046F0BDF0B54F46D64646469D
:10234000430244005B0A240EC0B599460F1CC50F1A
:10235000002C00D189E0FF2C00D18DE08022DB0031
:10236000D2041A43914640F2000840F2000A7F3C32
:102370007B007E021B0E760AFF0F002B68D0FF2B1E
:1023800021D08022F600D204164342467F3B1B191F
:1023900000215C1C0A2A2EDC7D404246022A23DCF6
:1023A000013A012A00D9BCE002296CD001292CD1C4
:1023B00000200022C005ED0710432843E0BCBA46C8
:1023C000B146A846F0BD2300FF33002E63D00322A0
:1023D000414611432A00013488467A40FF340A29D5
:1023E00000DDD8E01500032140460122824040F282
:1023F0003050104220D05346022B44D0032B00D142
:10240000BBE051464E460129D2D023007F33002B3A
:102410006FDD720704D00F223240042A00D0043648
:10242000320103D5624B1E4023008033FE2B2ADC91
:10243000B201520AD8B2BDE740F24020104225D185
:10244000B938FF3810426CD03D00B1468A46D2E719
:10245000002E40D1012342461A43904623004246B3
:1024600001215C1C0A2A97DDC5E72BBB40F204085A
:10247000002440F2010A7BE7C3B940F20808FF24B8
:1024800040F2020A74E7FF20002293E78022002531
:10249000FF20D2038EE741460222013411438846D1
:1024A000FF340A29A7DC02217D4076E740F20C08C0
:1024B000FF2440F2030A5BE7180000F00DF94A46DA
:1024C0007624431F9A406442914640F2000840F24D
:1024D000000A241A4CE7300000F0FEF84246431F81
:1024E0009E40231A763B00215C1C0A2A00DC53E73D
:1024F00081E70122D31A1B2B00DD59E79E343200FD
:10250000A640DA40731E9E413243530704D00F2386
:102510001340042B00D00432530138D5012000228F
:1025200048E74A464FF6FF71170C0A403140300C1D
:102530000E007943564347435043320C401812185B
:10254000914203D9802149028C4667444FF6FF70BF
:102550001104304009188E01701E8641120C890E3C
:10256000D2190E439201164312010ED501237208AF
:102570001E40164349E73D00B14680224B46D20338
:102580001A435202FF20520A14E71C003DE7920151
:102590000020520A0EE70F29EDD180224B46D203CC
:1025A0001342EAD01642E8D13D00FF20324301E752
:1025B000FFFFFFF770B598B1C317C5185D40C40F92
:1025C000280000F089F89E2301001B1A962B0FDCCF
:1025D000082834D008398D406D026D0AD8B202E067
:1025E000002400200025C0052843E407204370BDD7
:1025F000992B16DC421F052800D095402A0012486E
:1026000002406E0709D00F263540042D05D0043254
:10261000550102D59F2302405B1A9201550AD8B298
:10262000E1E70522121A2800D040020008001B3002
:1026300085402800451EA84102431500DEE76D02D3
:1026400096206D0ACFE7C046FFFFFFFB70B5420240
:102650004300C40FFE201B0E591C550A08420BD024
:1026600040F2803C6D07120B63441B051343E407E3
:1026700023432800190070BDABB9EDB1280000F06C
:102680002BF80A281FDC0B232A001B1ADA40030050
:1026900015339D4040F2893140F2FF731203091A4D
:1026A000120B0B40E1E755B1130B802212031A43C2
:1026B0006D0740F2FF73D8E700230022D5E740F210
:1026C000FF730022D1E703002A000B3B9A4000254C
:1026D000E0E7C0467047C0461C2101231B04984216
:1026E00001D3000C10391B0A984201D3000A0839A3
:1026F0001B09984201D30009043902A2105C40185A
:102700007047C046040302020101010100000000FD
:10271000000000000CB444F2A80310B5C2F200039C
:102720001C689CB0002931DB40F208236A46029005
:1027300093820690A1B1012301395B42D3820491B7
:102740001FAB079120001E9A02A9019300F068FDBB
:10275000431C01DA8B2323600022029B1A7010E0D5
:1027600001236A465B42D38204911FAB079120008C
:102770001E9A02A9019300F053FD431C01DA8B233A
:1027800023601CB010BC08BC02B018478B2301208A
:1027900023604042F5E7C046F0B5830747D0541E9A
:1027A000002A43D003000325CEB201E0013C3DD313
:1027B00001335A1E16702B42F8D1032C2FD9FF2259
:1027C0000A401502AD182A04AD180F2C32D9270083
:1027D000103F3F093E01B4461E001A001036664401
:1027E000156055609560D56010329642F8D101377A
:1027F0003F010C22DB190F27224027403C0072B119
:102800003E1FB608B400A4461A001C1D644420C232
:10281000A242FCD103240136B6009B193C402CB1E6
:10282000C9B21C19197001339C42FBD1F0BD0300E1
:102830001400C2E72700E3E744F2A803C2F2000352
:10284000186870477047C0467047C046F0B505002D
:102850000F2A33D90324030026000B431E401C42D9
:1028600036D11500103D2D0903000C00AC462F0198
:102870003F1865685D60A5689D60E568DD60256856
:1028800010341D601D001033BD42F2D165460F2388
:102890000C2401352D01491913404519144219D052
:1028A0008C59AC5104369C1B032CF9D8043B9B0873
:1028B00001339B00ED18C91803231A40561E32B18C
:1028C0000023CC5C1A00EC5401339642F9D1F0BDE0
:1028D000561EF5E71A00F1E710B583070AD003008A
:1028E000032102E001330B4205D01A78002AF9D106
:1028F000181A10BD03004FF6FF6248F280041968F1
:10290000CFF6FE628A188A43C8F2800422420BD1B5
:102910004FF6FF625968CFF6FE628A188A43043385
:102920002242F5D000E001331A78002AFBD1DFE71C
:1029300040F20003C0F2000310B52BB144F6017061
:10294000C0F2000000F002F810BDC04610B5010052
:1029500000230022002002F06DFB10BDF8B5CE462A
:102960004746060080B50820894644F2E01802F088
:10297000E3FAC2F200080500300000F041FC4346D3
:102980009B685F6803239F433C004B46113CE41A5D
:102990006419B4FBF5F4013C6C43A54208DC00214A
:1029A000300002F099FA43469B68DB19984207D041
:1029B000300000F02DFC0020C0BCB946B046F8BD88
:1029C0003000614202F088FA013011D04346012202
:1029D0009B683F1B17435F6044F6D863C2F2000355
:1029E0001A683000121B1A6000F012FC0120E3E7A5
:1029F0000021300002F070FA43469A68831A0F2BC8
:102A0000D6DD44F2D41444F6D861C2F2000424683E
:102A1000C2F20001001B086001210B435360C7E7AD
:102A2000F8B5CE46474605000C0080B500295ED0BB
:102A300000F0E6FB210040F2010C08394C686246C8
:102A4000230003209343CF187A68824344F2E010B6
:102A5000C2F200008668BE4200D179E0BE18B146DD
:102A600066467A60264220D10C68091B1B198C68C7
:102A7000A0464C466468344006000836A146B0457E
:102A80005AD04446CE68E660B4604C468CB99B1878
:102A90005D4CBA68A24200D18FE0FC68D460A260AD
:102AA00001221A434A60CB5007E04C466468344226
:102AB000EDD062461A434A603B6040F2FF129342F7
:102AC00019D8DA085C090123A34044682343436012
:102AD000D30044F2E012C2F20002944663449A68C2
:102AE000CB608A609960D160280000F091FBC0BC87
:102AF000B946B046F8BD5C0A042C48D89C092600AB
:102B000039343836E40044F2E012C2F2000294464E
:102B100064442268083C0327944203D146E092684B
:102B2000944203D05068B8439842F8D8D468CC6037
:102B30008A60A160D160D7E7002C5FD1B868D21855
:102B4000FB68C3609860634613434B608A50CBE7D1
:102B50009A186346234206D10B68C91A8C68D218AA
:102B6000CB68E3609C60012313434B6044F2D813AD
:102B7000C2F200031B6881609342B5D844F6087323
:102B8000C2F2000328001968FFF7E8FEACE7142C36
:102B900007D9542C1AD81C0B26006F346E36E4006B
:102BA000B1E726005C345B36E400ACE70123B610E5
:102BB000B340466833434360B9E741610161CA608D
:102BC0008A6001221A434A60CB508DE740F25412CA
:102BD000944205D8DC0B260078347736E40092E77F
:102BE00040F25452944205D89C0C26007D347C3629
:102BF000E40088E740F2F8347E2684E762461A4310
:102C00004A603B6070E7C046E8410020F0B54E46A0
:102C10004546DE465746E0B50D000B35060085B04B
:102C2000162D2BD8102900D9E8E000F0E9FA10257C
:102C30001823022144F2E012C2F2000294466344D7
:102C40001A005C68083A944200D15DE1032263688F
:102C5000A1689343E268CA6091600121E3185A6851
:102C600030000A435A6000F0D3FA2000083005B063
:102C7000F0BCBB46B246A946A046F0BD07239D4323
:102C800000D5BBE0A94200D9B8E000F0B9FA40F2A3
:102C9000F7139D4200D8ABE1690A002900D1B1E0E9
:102CA000042900D96AE140F23808A9098844393179
:102CB000CF0044F2E013C2F200039C4667447C68F4
:102CC000083FA74210D040F2030C06E0E068002A5B
:102CD00000DB15E1874207D0040062466368934336
:102CE0005A1B0F2AF2DD414644F2E017C2F20007F8
:102CF0003A003C690832944200D1F0E00320636856
:102D00008343581B0F2800DD76E13A617A61002881
:102D1000A3DA7A68904640F2FF12934200D9F9E0B4
:102D2000DA0858090123834040461843D30044F28F
:102D3000E012C2F200029446804663449A687860CA
:102D4000E360A2609C60D46001208B1098404045F5
:102D500060D8434603420AD10323994343464000C7
:102D60000431034203D1400004310342FBD0B34697
:102D700040F2030C0E00B946019044F2E013C2F297
:102D800000039A46F00050440100B246CB680BE0C5
:102D900064465A681F00A243DB68541B0F2C00DDF9
:102DA000F8E0002C00DB13E19942F1D140F2010878
:102DB000C244534608319B07E8D1032205E003686B
:102DC0000838013E834200D016E23242F7D14B462A
:102DD000019A5B6893434A465360019A52000192FC
:102DE0009A4215D832B913E040F20408019AC2445D
:102DF000520001921342F7D05646BEE70C23002042
:102E0000336034E740F20027402140F23F0850E7AA
:102E10005E464F460322BC68636893439A46AB42C2
:102E200002D35B1B0F2B5DDC23005344029344F65B
:102E3000087344F2D41BC2F200031B68082010334D
:102E40005B19C2F2000B019302F076F859460B6849
:102E50000390013306D08446019B4242013B634408
:102E6000134001933000019902F036F803008046C8
:102E7000013300D1DFE0029B834200D9D9E044F660
:102E8000D869C2F200094B46019A19689446614418
:102E9000039A1960029B0800013A434500D0ECE018
:102EA0004346134200D0E8E0BB689846634653446B
:102EB0001A0001231A4343465A6044F60473C2F2CF
:102EC00000031868884200D2196044F60073C2F209
:102ED00000031868884200D219604446ADE07B6860
:102EE000984631E7012229001343114365196160B7
:102EF0003000BD606B6000F08BF920000830B6E652
:102F0000A268D0608260A8E6DC680231A34200D1EA
:102F1000EAE69BE65A0A042A00D883E0142A00D97C
:102F20000DE110005B3082465C32D20044F2E010CA
:102F3000C2F2000084460820404262448446944421
:102F40006246926840F20309944500D1DEE0080031
:102F5000A2466146844602E09268914204D04C4603
:102F60005068A0439842F7D8D368614654469C46BF
:102F70006346A260E3609C60D460E5E6142969D9E9
:102F8000542900D9E4E040F26E08290B88446F31DF
:102F9000CF008EE6BA4640F2010C51466046491910
:102FA00005435046456085684F466046EB605E4687
:102FB0009D60534639617961204308374860CF608E
:102FC00030008F609C5000F023F9504608304EE6E8
:102FD000BA4601205E465244516801435160BA68C6
:102FE0003000D3609A6000F013F9380008303EE6F4
:102FF0002B00E90808331DE640F2010C61198846F0
:1030000061460D434146656039617961CA608A60F5
:10301000624602434A60E050300000F0F9F82000B8
:10302000083024E69A091000393238308246D2003E
:103030007CE7BC4214D0BC68626803239A43531BEC
:10304000AA4202D30F2B00DD4CE7300000F0E0F87D
:1030500000200CE640F25B0888445C31CF0028E693
:1030600044F6D869C2F200094B461868019B9C4699
:103070004B4660441860039B5A1E5B461B68013335
:1030800071D0434602995B1A49461B180B6007230F
:103090004146404619400291184240D003980133FE
:1030A00084465B1A0199984441440191634411405C
:1030B0005B1A1A4011003000934601F00DFF431CCB
:1030C00079D04346C01A03005B4401934B4619680C
:1030D0000120594419604346019ABB6002435A607B
:1030E000BC4200D1E9E653460F2B40D907220C3BE6
:1030F00093436268024005201A436260E218506000
:1031000090600F2B4CD843465A68D6E65346981029
:1031100001238340404618438046786028E7019B9E
:10312000039943441340CB1A1A40110030009346D0
:1031300001F0D2FE431CC4D140F2000BC6E7542A72
:1031400018D81A0B10006F326E308246D200EDE6AE
:1031500040F25413994218D840F27708E90B88449A
:103160007831CF00A5E55B46414619608FE74346BD
:1031700058606AE740F25410824227D8DA0B1000F8
:10318000783277308246D200D0E640F254539942EA
:1031900027D840F27C08A90C88447D31CF0088E50F
:1031A000210030000831FFF73BFC4B461968BB6833
:1031B00098465A6881E6019A029B94464246083B2B
:1031C00063449B1A40F2000B01937FE740F2545096
:1031D00082420CD89A0C10007D327C308246D2009C
:1031E000A4E640F2F8377F2140F27E0861E540F224
:1031F000F83240F27E0A99E64B465B68EDE5C04640
:1032000044F6CC6010B5C2F20000FFF71BFB10BD06
:1032100044F6CC6010B5C2F20000FFF715FB10BDFC
:10322000F0B5DE464E4645465746E0B5E1B00C00E7
:10323000914608911093804601F04AFE03681800F9
:103240002093FFF749FB08221E90002130A8FFF7CA
:10325000A3FAA3891B0604D52369002B01D100F032
:103260008FFF37AB349300230024369335931993A3
:1032700000231A931B9400231F9321931D932293E1
:1032800023930A9344F2E853C2F200031693C94B06
:103290004E461193434637AF079340F2E409BA46CE
:1032A0003500B046079C169E4B46F75801F008FEC5
:1032B00030AA0300009220002A002CA9B847002859
:1032C00000D1D9E0002800DACEE02C9B252B01D0DC
:1032D0002D18E9E74646AB1B57460400994645457D
:1032E00000D0D0E0002322AAD377012240F2000BC5
:1032F0005242914600226B786C1C5D460B92494607
:1033000001341A00203A5A2A16D81198920082588D
:103310009746303B00201A0083001B185B000134E5
:10332000D018631E1B781A00303A092AF4D91A0003
:10333000203A0B905A2AE8D9AB4614941593002BE7
:1033400000D1B2E047AE3370002322AAD377002227
:103350000F92013201330E920022099340F20009CC
:1033600000231C9217921892022259461140129182
:1033700059460A4202D0099A0232099284225946D9
:10338000114013915946369C0A4206D10B9A09996D
:10339000521A9046002A00DDFFE083B122AA1F23C3
:1033A000944663443B6001237B60359B01340133C9
:1033B00036943593072B01DD00F096FC0837129BFD
:1033C0006BB12AAB3B6002237B60359B0234013337
:1033D00036943593072B01DD00F07AFC0837139BF8
:1033E000802B00D16EE34B460E9A9D1A002D00DD16
:1033F000A8E35B46DB0500D5D8E20E9B3E609C4609
:103400007B60359B6444013336943593072B00DD94
:1034100008E108375B465B0706D50B9B099A9E1AA5
:10342000002E01DD00F06CFC0B9B099A934200DA40
:1034300013000A9A94469C4463460A93002C00D0D9
:10344000B5E3002335930F9B1BB10F990798FFF746
:10345000E7FA149E37AF20E7894623784FE7202309
:1034600089461D4323784AE70822002130A8FFF748
:1034700093F901202D1817E74646AB1B5746040069
:103480009946454511D04B467B60369B3E604B4488
:103490003693359B01333593072B1DDC08370A9B88
:1034A0004B440A93002C00D01CE7079B9846369BA0
:1034B000002B01D001F0E9F9089B9A8940231340C1
:1034C000002B01D001F0CDFB0A9861B0F0BCBB46E7
:1034D000B246A946A046F0BD0899079834AA03F061
:1034E00005FB0028E8D137AFD9E707221593109BD9
:1034F000AB4607339343149430CB10936B005B08B7
:10350000259301224FF6FF73249489462498259928
:103510005242C7F6EF731A941B9505F0D1FE0028AE
:1035200001D000F088FD2498259901224FF6FF7301
:103530005242C7F6EF7303F077FE002801D000F087
:103540007AFD002200232000290003F063FE0028FA
:1035500001D001F06CF822ABDB7F159A472A01DC21
:1035600001F04EF849F64836C0F20006802259466E
:1035700091437D3A099200228B460F9203320E92BC
:10358000002240F200091C9217921892002B00D1E1
:10359000EAE6099A01320992E6E649F69C55359B1E
:1035A000C0F20005102A24DD220040F2100A444631
:1035B00006E0C046889B0000103C0837102C16DD42
:1035C0005146103201333D60796036923593072BB6
:1035D000F2DD0899079834AA03F088FA002800D091
:1035E000EDE2103C369A359B37AF102CE8DCA04654
:1035F00014004246444401333D607A60369435936A
:10360000072B01DD00F024FF22ABDB7F0837C4E687
:103610005246A41901333A607E6036943593072BE5
:1036200000DCF6E60899079834AA03F05FFA002850
:1036300000D0C4E2369C37AFECE6109A1494AB4647
:103640001593141D432B04D02B00DB0601D400F08E
:103650002CFD0822002132A8FFF79EF8109B47AEF0
:103660001A68310032AB079803F00AFA03000E9093
:10367000013301D101F0F0FA0E9AD343DB171A405F
:103680000992002322AAD377002240F20009109465
:103690000F921C921792189266E615930023AB4680
:1036A000109D22AA40CD89461494D377002E01D1D3
:1036B00000F076FD159B532B01D100F0F6FE102390
:1036C0005A461A4018925A46134201D000F0EDFEB5
:1036D0000B00013301D101F0E3F80A0030000021B2
:1036E00001F038FC0F90002801D101F01AFB0F9B6C
:1036F000991BCA43D2170E911140002222AB1C9293
:1037000017920F92733240F20009DB7F09911095F6
:1037100015923BE723788946682B01D100F01EFD06
:1037200040221543EBE5082389461D432378E6E54F
:103730002A00159310231A438946934614945B4636
:10374000109A9B0601D400F0F6FB072340F2080C08
:1037500007329A43944463461093536812680D935A
:103760000C92002B01DA00F009FC4B465C46013359
:1037700019D080239C430C9A0D9B1100194391B9D9
:103780004B46D3B9A3460E9360AE4A4609920E9AB1
:1037900022ABDB7F914500DA099200220F921C9246
:1037A00017921892F2E60C9A0D9B002B01D000F0B4
:1037B000C3FD092A01D900F0BFFD63220C9B47A974
:1037C00030338B5401230E9322ABF7269C46A3463D
:1037D0006644DAE72B0014949B0601D400F018FC31
:1037E000109B0A9A1B681A60D2175A60109B149E8D
:1037F0000433109351E52A00159310231A43894688
:10380000934614945B469B0600D486E30722109BE4
:10381000073393431A0018CA0C930D9410925B4619
:10382000CE4C23401C000023002222A9CA774A461E
:10383000013200D114E18022210091438B460C9982
:103840000D9A08001043002800D008E14A46002ADB
:1038500001D000F014FE002B00D09AE301331A00CF
:1038600022400E9260AE23428FD03021623347AAAD
:10387000D15422ABF7269C46664486E714941593F0
:1038800010242B00234389461C00A30600D460E3C8
:103890000722109B0733934319000CC90C920D9318
:1038A00010910123C0E7802389461D43237826E534
:1038B000109B149404CB02240C9200220D922A0037
:1038C000894647F630012243140010932AAA49F68C
:1038D000543311807822C0F200031F931592022303
:1038E000A2E7237889466C2B01D100F031FC10222D
:1038F000154304E5109A894608CA0B93002B00DA99
:10390000CAE323781092FAE4079B894618009A4686
:1039100001F0DEFA436818002393FEF7DDFF8046CE
:103920002290504601F0D4FA83681D934346002B41
:1039300000D192E51D9A2378002A00D1DFE41278A5
:10394000002A00D1DBE440F200421543D7E4012312
:1039500089461D432378D2E422AAD27F8946237860
:10396000002A00D0CBE4203222A9CA77C7E42B2357
:1039700022AAD37789462378C1E42378611C2A2BB5
:1039800001D101F049FA1A00303A0C000021092A4D
:1039900000D9B6E48B005B185B0001349918631EF4
:1039A0001B781A00303A092AF4D9AAE4159B652B32
:1039B00000DC13E11A981B990022002303F024FC79
:1039C000002800D1D5E149F68433C0F200033B6002
:1039D00001237B60359B0134013336943593072BEB
:1039E00001DD00F055FD08372B9B199A934200DB4F
:1039F000EEE2209B3B601E9B9C467B60359B6444B3
:103A0000013336943593072B00DDAEE30837199B5D
:103A10005E1E002E00DCFDE449F68C5A1025359B15
:103A2000C0F2000A102E05DCF2E50837103E102E19
:103A300000DCEDE55246103401333A607D60369487
:103A40003593072BF1DD0899079834AA03F04EF857
:103A5000002800D0B3E0369C359B37AFE6E75C46E4
:103A6000012B00D19FE660AE022B00D103E10C9A3E
:103A70000D9B40F20708A446BA465F07D508D80850
:103A80002F43414603003800114034003031013EDD
:103A900018433A0031700028EFD12500644657469C
:103AA0000C920D93E20700D40DE1302900D10AE118
:103AB0003022013EAB1E327060AAD21AE3461E00CD
:103AC0000E9262E60B9B099A9D1A002D00DC8AE497
:103AD00049F68C5A359BC0F2000A102D20DD2200D9
:103AE00040F21008544603E0103D0837102D15DD54
:103AF0004146103201333C60796036923593072B92
:103B0000F2DD0899079834AA02F0F0FF002856D198
:103B1000103D369A359B37AF102DE9DCA2461400D4
:103B20005246641901333A607D6036943593072B11
:103B300001DD00F0EAFC4B460E9A08379D1A002D75
:103B400000DC56E449F68C5A359BC0F2000A102D71
:103B500021DDB04640F21009564605E0FFFBFFFFAD
:103B6000103D0837102D14DD4A46103401333E60F5
:103B70007A6036943593072BF2DD0899079834AABA
:103B800002F0B4FFD8B9103D369C359B37AF102DED
:103B9000EADCB24646465246641901333A607D601B
:103BA00036943593072B00DDABE1083721E4089903
:103BB000079834AA02F09AFF002800D141E4079B3D
:103BC00098460F9B002B00D176E440460F99FEF7F4
:103BD00027FF089B9A894023134071E43D00359BE1
:103BE000013401339846199B08353E60012B00DCF7
:103BF00046E101237B60434636943593072B00DD75
:103C0000D9E1209B2B601E9B9C46644440F2010C32
:103C1000E0446B60434636943593072B00DDBDE1ED
:103C20000835199B00221A981B995F1E002303F088
:103C3000EBFA002800D03CE140F2010CE04443469E
:103C40000136E4192E606F6036943593072B00DD42
:103C500022E108352EAB2B60219B9C466B604346CE
:103C60006444013336943593072B00DDDAE40835DC
:103C70002F00FFF7CFFB0F210C9A0D9BA446B846EF
:103C80001F9F08001040385C1C071509013E2C439B
:103C90003070180903002000184322000028F0D1DA
:103CA0000C920D9360AB9B1B4746E3460E936CE56D
:103CB000092C00D964E3534619930E9B5F4699463D
:103CC0000C940D95099C60AB9B1BA3460E935CE581
:103CD0000899079834AA02F009FF002800D06EE77F
:103CE000369C37AFFFF77BFB0899079834AA02F0A0
:103CF000FDFE002800D062E7369C37AFFFF75FFB80
:103D000049F69C5540F21008359BC0F20005102E74
:103D100004DC1AE0103E0837102E16DD424610343F
:103D200001333D607A6036943593072BF2DD0899B4
:103D3000079834AA02F0DAFE002800D03FE7103ED0
:103D4000369C359B37AF102EE8DCA419013360C7D1
:103D500036943593072B01DCFFF766FB089907982B
:103D600034AA02F0C3FE002800D028E7369CFFF7F3
:103D70005BFB2B9A002A00DC3FE3199B9C46B44472
:103D800062460E92189A15009A4200DD96E1002DC7
:103D90000BDD359B641901333E607D6036943593AD
:103DA000072B01DD00F0B5FE0837EB43189ADB174F
:103DB0002B40D51A002D00DD08E2189B9A465B4681
:103DC000B2445B0500D52DE22B9E199B9E4204DB7D
:103DD0005B46DB0701D400F035FD209B3B601E9B5A
:103DE0009C467B60359B6444013336943593072BA6
:103DF00001DD00F09BFE08375146199B0E9A9B1B74
:103E0000561A9E4200DD1E00002E0CDD52463A601E
:103E1000359AA41901327E6036943592072A01DD65
:103E200000F092FE0837F243D21716409E1B002E78
:103E300001DCFFF7EFFA49F68C5A1025359BC0F2EA
:103E4000000A102E07DCFFF7E3FB0837103E102EA8
:103E500001DCFFF7DDFB5246103401333A607D6030
:103E600036943593072BF0DD0899079834AA02F0B1
:103E70003DFE002800D0A2E6369C359B37AFE5E733
:103E800001235A46134200D0B3E67B604346369482
:103E90003593072B00DCDDE60899079834AA02F079
:103EA00025FE002800D08AE6359B369C984637AD23
:103EB000D0E6199B012B00DCCCE649F68C5AC0F207
:103EC000000A112B00DC41E31026434604E00835CC
:103ED000103F102F00DC38E35246103401332A60C3
:103EE0006E6036943593072BF1DD0899079834AA54
:103EF00002F0FCFD002800D061E6369C359B37AD12
:103F0000E6E70899079834AA02F0F0FD002800D0EF
:103F100055E6369C37AFFFF76CFA109A08CA109234
:103F20005A46D2066FD45A46520667D59BB20C93B6
:103F300000230D9373E408CA10925A46D20658D44F
:103F40005A46520650D51BB20C93DB170D93FFF760
:103F500008FC109A08CA1092E2060AD4620605D537
:103F60009BB20C9300230D9301335DE4A20500D5B1
:103F7000DBB20C9300230D93013355E40C990D9A99
:103F800000244B4294412D220C930D945C46012356
:103F90004BE4002360AE0E93FFF7F7FB08990798F8
:103FA00034AA02F0A3FD002800D008E6359B369C19
:103FB000984637AD35E60899079834AA02F096FD81
:103FC000002800D0FBE5359B369C984637AD18E6B7
:103FD0005B46DB0701D4FFF71DFA0AE5AB468946CD
:103FE00014941593FFF7ABFB5A46920501D500F0E8
:103FF00046FC0C93DB170D93FFF7B3FB5A46920573
:1040000001D500F036FC0C9300230D93FFF707FC5D
:104010002B00DB0600D592E22B005B0601D500F0F9
:104020001DFC2B009B0500D489E2109B0A9A1B689B
:104030001A70FFF7DBFB1A981B9902000B0005F0C2
:104040003FF9002801D000F05EFE159B612B00D1E6
:10405000ABE25822412B00D1A8E24B46013301D1FB
:1040600000F053FC2023159A9A43472A01D100F00F
:1040700015FE40F200135A461A4312921A991B9ADF
:10408000002A01DA00F026FD5B4609930023269101
:10409000279213930F93ABE20B9B10925B420B930F
:1040A00004231D432378FFF72AF9109B47AE1B68B2
:1040B0003370012309930E93FFF7E3FA1D1E00DD11
:1040C00067E672E6149489462C001593FFF7DDFB32
:1040D000159349F66833AB468946C0F20003149441
:1040E0001F935B469B0600D466E10722109B0733B3
:1040F00093431A0018CA0C930D9410925B46DB0789
:104100000DD50C9A0D9B1100194341B130222AABF9
:104110001A70159A5A705A4602231A4393465B4600
:10412000DA4C23401C000223FFF77EFB159349F66F
:104130005433C0F20003AB46894614941F93D0E772
:104140008946ADE7AB46894614941593FFF75AFBB1
:104150004C3B1D4301342378FFF7D1F89933FF33EB
:104160001D4301342378FFF7CAF80899079834AA49
:1041700002F0BCFC002800D021E5369C37AF46E4B5
:1041800040214046FEF742FD089B18601861002858
:1041900001D100F05BFE4023089A5361FFF761F8FC
:1041A0000991062900D94AE30023002249F67C360A
:1041B0000F93099B40F200090E93109500231C9267
:1041C00017921892C0F20006FFF7CEF849F68C5A03
:1041D000359BC0F2000A102D00DC1BE23A002100E2
:1041E000B04640F210095746079C089E04E008328A
:1041F000103D102D00DC09E24846103101331760F4
:10420000506036913593072BF1DD3100200034AA40
:1042100002F06CFC002801D000F05AFD3699359B65
:1042200037AAE5E749F68C581D9B079999465B46E6
:104230008B461C99C0F20008220044468846179914
:10424000129310253B005746A9B34146002900D1DF
:104250000DE1012149428C46E044239919602299DD
:104260008C4659603599624401313692359107295F
:1042700000DDAFE0083349460E980978C61B8E4230
:1042800000DD0E00002E0CDD3599921901311F6002
:104290005E6036923591072900DD43E14946097891
:1042A0000833F043C01706408E1B002E13DC7F1826
:1042B00017990029C9D141460029CAD14946BA46B1
:1042C0001D911F0012990E9B8B4614009A4500D831
:1042D0007AE59A4678E549F68C5A3599C0F2000A93
:1042E000102E04DC19E0103E0833102E15DD1032BC
:1042F00001311C605D60369235910729F3DD584627
:10430000089934AA02F0F2FB002800D0D4E1103E54
:10431000369A359937AB102EE9DC504692190131A7
:1043200018605E6036923591072900DDE2E3494668
:10433000097808337F18BBE740F2004323409846D2
:1043400000239A464B46BB4660AE0E9309940C9CE4
:104350000D9D0A2200232000290002F083FF40F275
:10436000010C4346013E303281460F003270E24478
:104370001BB11D9B1B789A4505D0002D00D197E4F9
:104380004C463D00E5E75346FF2BF6D015B9092C06
:1043900000D891E4229B2399F61A1A00300000F00D
:1043A0005FFD1D9940F2000A4B788C465A1E9341DE
:1043B0009C4463461D93E3E7109A08CA10925A463C
:1043C000D20616D45A4652060FD59BB20C93002340
:1043D0000D9393E65846089934AA02F087FB00280B
:1043E00000D069E1369A37AB45E75A46920500D5C9
:1043F0003AE20C9300230D9380E649F68433C0F231
:1044000000033B6001237B60359B0134013336940C
:104410003593072B00DD42E10837002A00D0A4E0E5
:104420005A4601231340199A1343002B01D1FEF77A
:10443000F1FF209B3B601E9B18197B60359B3690DB
:1044400001333593072B00DD51E2390008319DE03F
:104450000899079834AA02F049FB002801D0FFF719
:10446000AEFB22ABDB7F369C37AFFEF796FF012118
:1044700049428C461799E14461441791EDE65C4648
:10448000012B01D0FFF7EFFAFFF797F9FFFBFFFFD2
:104490000899079834AA02F029FB002801D0FFF7F9
:1044A0008EFB369C37AFFFF79FFA32AB180008221D
:1044B000002198462D96FEF76FF94B46013300D147
:1044C000BAE02A0000234D46B246099700241E0098
:1044D0009146079F10E04346380047A902F0D0FA02
:1044E000431C00D1B8E33018A84209DC0434A842C8
:1044F00001D100F025FC06002D9B1A59002AEAD1B3
:104500000E964D465646099FA4E00899079834AA8E
:1045100002F0ECFA002801D0FFF751FB369C37AFD0
:10452000FEF761FF5846089934AA02F0DFFA002826
:1045300000D0C1E04B46369A197837ABB1E6109BF4
:104540000A9A1B681A60FFF751F9984640F2010C6D
:104550005346E0442B604346E4196F60369435932C
:10456000072B01DCFFF775FB96E4209B3B601E9B4D
:1045700018197B60359B369001333593072B00DD8E
:10458000B5E139000831002A00DA0DE3199A013348
:1045900014180E604A6036943593072B01DDFFF73F
:1045A00041F808310F00FEF735FF782230212AABA1
:1045B0005A7019705A4602231A434B460992632BCC
:1045C00000DD7DE1002347AE0F9340F202135A460F
:1045D0001A431B9B1292002B00DA7FE21A9B1B9C52
:1045E0002693279400231393159B612B00D172E32C
:1045F000159B413B252B6FD8E14A9B00D3589F4622
:1046000049F64436C0F20006FEF7B0FFBA460C0089
:10461000464617005246641901333A607D6036946D
:104620003593072B00DD55E10837FFF7C6FB2D2337
:1046300022AAD377FEF791FF434600210093079803
:1046400000232DAA02F046FA03000E90013300D198
:1046500002E32D960E9B93B3632B00DD26E100232E
:1046600047AE0F93082200214046FEF795F84346D7
:104670000E9C00933100230007982DAA02F02AFA1D
:10468000844200D0D5E30E990023CA43D217735455
:1046900022AB1140DB7F09911095FEF771FF08995D
:1046A000079834AA02F022FA002801D0FFF787FA0F
:1046B0002B9A369C37AFB0E6D846FFF782FA002235
:1046C00022AB40F20009DB7F099210951C921792F1
:1046D00018920F92FEF75AFFC846022332AA04929C
:1046E0002DAA03922BAA02924246009301920798A8
:1046F000269A279B00F098FD159B0600672B00D19A
:10470000A6E1159B472B00D1A2E14346C418202304
:10471000159D9D43462D05D10378302B00D1F8E03F
:104720002B9BE418002326982799002202F06CFDA9
:10473000230048B9329BA34206D230215A1C329240
:104740001970329B9C42F9D89B1B19932B9B189391
:10475000472D00D184E1462D00D105E215995A1E5E
:104760002B92612900D152E35020412900D081E1F0
:1047700001212EAD28702B20002A02DA01220230FE
:10478000D21A6870092A00DC57E222A98C46472316
:1047900063449846180040F20A0C92FBFCF18B002F
:1047A0005B185B00D31A3033040001380370130028
:1047B0000A00632BF1DCA31E30321A70434500D38C
:1047C00027E322A932228C46624419780133117002
:1047D00001329845F9D122AA9446322249236244F3
:1047E000634494461B1B63445B1B2193199B2199D3
:1047F0001A008C4662440E92012B00DC57E21E9A8E
:104800000E9B944663440E935E4B099A1A40130024
:1048100040F2001213430E9A9B46D343DB171A4013
:10482000002309921C9317931893139B002B00D01D
:1048300029E122AB40F20009DB7FFEF7A7FE062349
:104840000993B1E45146199B0E9A9B1B561A9E423E
:1048500001DCFFF7E8FA1E00FFF7E5FA109B0A9A61
:104860001B681A80FEF7C2FFDBB20C9300230D9386
:1048700044E4DBB20C9300230D93FEF7D0FF5BB250
:104880000C93DB170D93FEF76CFF089C34AA2100F4
:10489000404602F02BF94023A2891340FEF710FE98
:1048A0003000FEF719F80100FEF723FF0798591CA6
:1048B000FEF7ACF90600002800D1CBE20F90D1E65C
:1048C0000798591CFEF7A2F90600002800D1C1E2A2
:1048D0000F907AE60899079834AA02F007F90028A1
:1048E00001D0FFF76CF9369C37AFFFF766FA0899ED
:1048F000079834AA02F0FAF8002801D0FFF75FF910
:104900002B9A3698359B37A93DE640F20609FFF70A
:10491000B0FB002226982799002302F075FC00289E
:1049200000D0FDE6012342469B1A2B93F9E60123B2
:104930004B4498460223D1E62BAA2698279900F0EB
:1049400043FBFF2300229B0503F046FE00220023C9
:1049500004000D0002F058FC28B101232B93159B95
:10496000612B00D1CAE149F6683BC0F2000B33006D
:104970004B440E934B46B046B946179337000AE0B6
:10498000F49C0000FFFBFFFF0022002302F03CFC30
:10499000002800D090E100230022C4F23003200060
:1049A000290003F019FE0D00040004F0A5FC060028
:1049B00004F0DAFCBA4602000B002000290004F0E3
:1049C000D3F85B4652469B5D040013700E9B0D00AE
:1049D00001375345D8D1179B18964646B8464F46DF
:1049E000994601235B42179343460E93002300220E
:1049F00020002900C3F6E07302F020FC002800D05C
:104A000034E10023002220002900C3F6E07302F005
:104A1000FBFB18B1189BDB0700D527E1179B302261
:104A200019004144002B0CDB434618001A70013377
:104A30008142FAD10E9B179C9C460134A4446346E4
:104A40000E930E9B159D9B1B199320239D437DE682
:104A5000099BDB0700D5A3E0329B9B1B19932B9B83
:104A60001893DA1C01DB994514DA159A023A15926B
:104A70005A1E2B925420694609180878002178E6BE
:104A8000C84603232AE62D2322AA40F20009D37741
:104A9000FEF77FFD19998B4200DAA8E0099A0E9380
:104AA000D20704D51E9A94469C4462460E92099AF7
:104AB000520502D5002B00DD4AE10E9AD343DB17E5
:104AC0001A40129B09929B466723159300231C935F
:104AD0001793AAE65B46099300230F9380221A9B43
:104AE0001B9C1206944626932300634427932D2390
:104AF000139379E55846089934AA01F0F7FF002886
:104B000000D0D9E54B461978369A37AB7F18FFF7B6
:104B1000CFFB0899079834AA01F0E8FF002801D0DC
:104B2000FFF74DF8369C37AFFFF73FF90899079824
:104B300034AA01F0DBFF002801D0FFF740F82B9EDC
:104B4000369C37AFFFF758F90899079834AA01F057
:104B5000CDFF002801D0FFF732F82B9B199A369C25
:104B6000D31A37AFFFF75FF90123099A13404A467A
:104B70001343189A002A00DC31E1002B00D017E122
:104B8000189B0E9366231593099B5B0500D5E1E006
:104B90000E9AD343DB171A40129B09929B4695E766
:104BA00043464725F418BDE549F68C5AC0F2000A81
:104BB000102755465442103204DB27E00831103CE0
:104BC000102C22DD103001330D604F60369035938C
:104BD000072BF3DD0899079834AA01F087FF002816
:104BE00001D0FEF7ECFF3698359B37A9E7E71E9A10
:104BF000199B944667221592189A63440E93002AD3
:104C0000C2DC9B1A5A1C0E92C3E7AA4652460019F0
:104C100001330A604C6036903593072B00DC15E4B5
:104C20000899079834AA01F061FF002801D0FEF727
:104C3000C6FF3698359B37A9A8E422A832238446BC
:104C4000634419B93023AB700333634430321A70B4
:104C500001335B1B2193C9E5402208998B891343DB
:104C60008B8101235B420A93FEF72EFC534632935D
:104C700043465946013B1A78C97B8A4207D1302006
:104C80001870329B013B32931A789142F8D0392A3E
:104C900000D1A0E00132D2B21A70D2E64B46002B0E
:104CA00001D0FFF7E6F940F20109FFF7E2F9099BAD
:104CB000DB0700D4A8E5A2E55246179B18964646A6
:104CC000B8464F4699460E9B013B9B1A17938BE6BD
:104CD000A046FEF776FF2BAA2698279900F074F9D4
:104CE000FF2300229B0503F077FC00220023040031
:104CF0000D0002F089FA002800D02EE649F6543B58
:104D0000C0F2000B33E61B9B002B60DB22ABDB7F8A
:104D1000159A472A55DD49F65036C0F20006FEF7CF
:104D200025FC4A4609920E92002222AB1C92179251
:104D3000733240F20009DB7F10951592FEF726FCD6
:104D40004B46A9461D004B465646099F0E9381E4EB
:104D5000672315931D990B78FF2B73D000221C92AB
:104D60001792189A05E01798013101301790FF2B20
:104D70000AD0934208DAD21A4B78002BF3D11C9B4D
:104D800001331C930B78F2E71D911892179A1C9B24
:104D90009446229A634453430E9A94469C44624636
:104DA000D343DB170E921A40129B09929B463CE5B7
:104DB00013001E9A944663444B440E936623159346
:104DC000E2E649F64C36C0F20006FEF7CFFB2D2393
:104DD00022AAD3779CE75A46927A1A7031E643B9F1
:104DE000129B9B460123099365331593653B0E93F4
:104DF0006CE61E9B01331A004A44D343DB170E9224
:104E00001A40129B09929B46662315935EE670201A
:104E1000AEE402232193E9E4109A08CA9946002BD4
:104E200002DA01235B429946637810920C00FEF788
:104E300066FA4022079B089998468B8913438B8119
:104E4000FEF7BFFE00231C9317939FE70C234246F7
:104E5000136006E7402308998A8913438B8100E792
:104E600003000B4370B59B0711D0030072B10C789F
:104E700001335D1E013A2C700131002CF6D1002166
:104E80009C181AB119700133A342FBD170BD030005
:104E9000032AEBD948F28006C8F2800606E0043304
:104EA0001C1F043A04312560032ADFD94FF6FF6442
:104EB0000D68CFF6FE642C19AC433442EFD0D5E731
:104EC00044F2E85340F22812C2F20003985C7047A3
:104ED00000487047D846002070B544F6C8640023E7
:104EE0000500C2F2000408002360FDF729F9431C05
:104EF00000D070BD2368002BFBD02B60F9E7C046C3
:104F000044F25C7310B544F26074C2F20003C2F262
:104F10000004E41AA4105CB144F25C72C2F2000214
:104F20009446013CA30063441B689847002CF3D1CE
:104F300004F098FA10BDC04641F2000310B50828ED
:104F400001D1180010BDFDF777FC16230360173B55
:104F5000F7E7C04670B5CCB283070ED0531E52B1EE
:104F6000032504E00130284208D0013B03D3027836
:104F7000A242F7D170BD0020FCE71300032B18D923
:104F8000FF2248F280060A401502AD182A04AD1827
:104F9000C8F2800603E0043B0430032B09D94FF626
:104FA000FF610268CFF6FE616A40511891433142B9
:104FB000F1D0C2181BB9DEE701309042DBD0037894
:104FC000A342F9D1D6E7C04670B514000022226092
:104FD0004FF6FF724B00C7F6EF720D005B0893426D
:104FE00018D81A000243AAB10022C7F6F072114283
:104FF00011D000220E4E1B15B44663449B1823604B
:105000004FF6FF730022C8F20F032B40C3F6E07285
:105010001A43110070BD00230022C4F2503303F084
:10502000DBFA36224B000D005B085242E2E7C04635
:1050300002FCFFFFF0B5D6464F464646C0B544F2E7
:10504000D016C2F20006070030688846924699469C
:10505000FDF7F8FB44F6D460C2F20000056865B3C2
:105060006C6830681F2C2EDC6FB9631C6B60434684
:105070000234A4006351FDF7E7FB0020E0BCBA4610
:10508000B146A846F0BD882251462E00A300EB1879
:105090009950873AA2408936FF3631681143316012
:1050A00040F208114E465E50022FDED129008D31AC
:1050B000FF310B6813430B60D7E744F60C75C2F25F
:1050C00000050560CCE7FDF7BFFB01204042D5E7B6
:1050D000F0B54546DE4657464E46E0B503690D69D4
:1050E000804685B0AB4200DA9BE040F2140C1424F9
:1050F0008C4463464444A446013DA8001F18019314
:1051000060443B6802680133B2FBF3F600949A42B4
:1051100045D3019BA1469C4640F2000A0B0040F299
:10512000000B61464FF6FF74B4464E46B9465746EB
:105130009A460290039525006346200004C9154055
:105140005D43120C5A435D442B0CD218130C9B4642
:10515000336825401840401BC01922401B0C9B1A85
:1051600002149B181F1420401B04184301C68945D4
:10517000E1D20298664603684F465146039D73B9D3
:10518000009B0438984208D9009A03E00438013D96
:10519000904202D90368002BF8D043461D61404677
:1051A00001F0FCFA002834DB40F2000CA9464FF66F
:1051B000FF726546BB46B44600990198140017007B
:1051C00040C80B6837401C40E41B64191B0C350CAD
:1051D0005B1B25145B191D1414401B041C4310C1D8
:1051E0008345EBD200994D4666468C46AB0063443E
:1051F0001A686AB9043B8B4208D9009903E0043B62
:10520000013D8B4202D91A68002AF8D043461D613D
:105210000136300005B0F0BCBB46B246A946A046F8
:10522000F0BD0020F6E7C046F0B54E464546DE46E6
:1052300057461400E0B51D00816B9DB08146029475
:10524000039549B10123C26B93404A608B6000F023
:10525000EBFF00234A4693632E000023002D03DA60
:105260006E00760803960133299A136000233200FA
:10527000C7F6F0731A409A4200D1C4E1029A039B28
:1052800010001900002200230690079101F0BCFFD6
:10529000B0B10123289A13602A9B13B1074B2A9AB5
:1052A000136049F6843BC0F2000B58461DB0F0BCB9
:1052B000BB46B246A946A046F0BDC046859B00004D
:1052C0001AAB01931BAB00934846069A079B01F06B
:1052D00063FB330D8246002B00D0A9E11B9B1A9F74
:1052E000984640F23243B8444344202B00DC3BE371
:1052F0004022D31A9E4040F212434344DC40300027
:105300002043002404F05CF846460123CFF61064E5
:105310000919013E0E9300230022C3F6F87303F02F
:1053200023FC44F2613248F2A773C6F26F32C3F62F
:10533000D27303F051F94CF6B30248F62823C8F6AD
:105340006032C3F6C67302F073F9040030000D003A
:1053500004F00AF847F6FB1244F21343C5F29F0229
:10536000C3F6D37303F038F902000B0020002900C4
:1053700002F05EF904000D0003F0BEFF002280463B
:10538000059000232000290001F044FF58B1404659
:1053900003F0EAFF2B00220001F036FF43425841A0
:1053A00043461B1A0593BF1B059C7B1E9846162C73
:1053B00000D9BDE20698079949F61872C0F20002BA
:1053C0009446E30063441A685B6801F023FF0028F9
:1053D00000D1A9E10023013C05940D93002309931A
:1053E0004346002B04DA012340F20008DB1B09933B
:1053F000059B002B00DB9DE1059B099A0A93D21ABD
:1054000009925A4200230593269B0C92092B00D93E
:105410009AE1052B00DCAFE2043B00242693032B2A
:1054200001D100F02DFC01DC00F01DFC269B042BBB
:1054300000D1D8E305232693043B0B930A9A279BBC
:1054400094466344149301331D1E089301DC00F05D
:1054500097FE01220423172D01DC00F091FE5B0072
:105460001800143011000132A842F8D94B46D96314
:10547000484600F0B3FE8346002801D100F085FEC7
:105480004B469863089B0E2B00D987E0002C00D177
:1054900084E00A99002901DC00F0EDFC49F618705F
:1054A0000F220B00C0F2000084461340DB0063446F
:1054B0005C681B68109311940C11CB0500D4CCE3ED
:1054C0000698079949F6F063C0F2000314401A6A7F
:1054D0005B6A02F023FC0326129013919CB1109892
:1054E000119949F6F0650127C0F20005274204D062
:1054F0002A686B68013603F06FF864100835002CD9
:10550000F4D11090119112981399109A119B02F0F6
:1055100005FC129013910D9B63B1129C139D002307
:10552000002220002900C3F6F07301F073FE00286A
:1055300000D0A9E3300003F017FF129A139B03F089
:105540004BF800230022C4F21C0302F071F8002380
:10555000CFF6C043CF180A9B06001593089B109303
:10556000002B00D0BBE31298139900230022C4F251
:10557000140303F0F9FA32003B0004000D0001F0BF
:105580005DFE002801D000F07EFD802109067B1819
:1055900032002000290001F03DFE68BB1B9B002B60
:1055A00000DAE1E00A9A0E2A00DDDDE049F6187221
:1055B000C0F2000294460A9BDB0063445C681B68EF
:1055C00002930394279B002B4DDA089B002B4ADCA7
:1055D000089B8BB90298039900230022C4F214039C
:1055E00002F0FAFF02000B000698079901F01CFE7A
:1055F000002801D100F047FD00235E4600240693F9
:10560000279BDD43B2E242F20F733603289A360B32
:1056100026431360E6B149F6006B2A9BC0F2000BEB
:10562000002B00D141E65B4603332A9A13603CE627
:10563000069C079D200000242A03120BC3F6F07479
:105640001443CC4A21009E1800231A9F0E9362E651
:1056500049F6F45B2A9BC0F2000B002B00D124E634
:105660005B460833E1E7029A039B069C079D2000F6
:10567000290002F053FB03F03FFE060003F074FE26
:10568000029A039B02F0A8FF02000B0020002900F1
:1056900003F06AFA5B465F1C33005A4630331370DE
:1056A000089B012B01D100F020FC5B4640F2010871
:1056B000013B05934346B8461F0021E0029A039B35
:1056C0002000290002F02AFB03F016FE060003F07A
:1056D0004BFE029A039B02F07FFF02000B002000AA
:1056E000290003F041FA330040F2010C059A3033EF
:1056F0000137D355089BE044BB4201D100F0F4FBD5
:1057000000230022C4F2240302F066FF00220023DB
:1057100004000D0001F078FD0028CFD047460A9B19
:105720003E0001330993D6E0002F00DC9BE3002309
:105730000D930993059B9C460A9300230C93269B8B
:10574000E044092B00D864E60023269301330B9331
:10575000023B089300230124279300234A46D36386
:10576000089B0021149383E60B9A002A00D0E4E002
:10577000002300240C9E099D0B936DB14346002B22
:105780000ADD2B00454500DD45E2099AED1AD21AE3
:1057900009924246D31A98460C9B53B10B9B13B106
:1057A000002E00D0D4E3514648460C9A00F010FF7A
:1057B00082460121484600F0F9FD059B0690002B2A
:1057C00000D0F9E1269B012B00DC93E001231F228E
:1057D0001100434419401A4200D1ACE020235B1A67
:1057E000042B00DC06E21C235B1A099AED18944690
:1057F0009C44624698440992099B002B05DD514662
:105800001A00484600F04CFF82464346002B05DD57
:1058100042464846069900F043FF06900D9B002B38
:1058200000D0ADE1089B002B00DC82E10B9B002B3C
:1058300000D0C3E00A9B013309935B465E1E069BC2
:1058400057460125A2469846089C07E039000023E8
:105850000A22484600F0F2FC0700013541463800B4
:10586000FFF736FC30307055AC42EFDC5446BA4698
:105870000590089B0125002B00DD1D0000235D44E1
:10588000029351460122484600F00AFF06998246DB
:1058900000F084FF002800DCB2E15A4602E0AA4290
:1058A00000D1D9E22E00013D2B78392BF7D0934659
:1058B00001332B704846069900F0B6FC5CB1029BA0
:1058C0002BB1A34203D01900484600F0ADFC2100E3
:1058D000484600F0A9FC5146484600F0A5FC0023CC
:1058E000099A3370289B1A602A9B002B00D1DCE4B4
:1058F0001E60DAE4029B002B00D067E70299039A4E
:1059000013001203002A00D060E70022C7F6F072ED
:105910000021134206D040F2010C099BE044013300
:1059200009930131059B0591002B00D14EE74EE113
:1059300001230D9352E51C2357E7269A012A00DC28
:105940007AE2089B0C9A5E1EB24200DA65E1961B71
:10595000099AD51A002B00DA6FE19C46099AE044B7
:1059600015006244099268E120222000D31A984071
:10597000C7E4C04601FCFFFF269B0124032B00D196
:105980007EE100DD52E500230B93269B022B00D025
:10599000E2E3279B002B00DC28E11D001493089311
:1059A00057E5002321000A22484600F047FC149BDB
:1059B00004000A96002B00DCB3E30893002D05DDFC
:1059C00021002A00484600F06BFE0400059BA0461B
:1059D000002B00D0A5E2089A5B469446013B9C440C
:1059E0006346099301235F465646DA46CB46029A40
:1059F0001A400C92069D30002900FFF769FB030056
:105A0000210030330B903000059300F0C7FE2900D1
:105A100081464246584600F0DFFEC3680500ABBB36
:105A20000100300000F0BAFE29000890584600F04E
:105A3000FBFB089B269A1343002B5BD10C9B002B8E
:105A400000D124E34B46002B00DA2BE3059B7D1CA1
:105A50003B70099B9F4200D1F4E2310000230A22EF
:105A6000584600F0EBFB002306000A2221005846AE
:105A7000444539D000F0E2FB4146040000230A22ED
:105A8000584600F0DBFB2F008046B3E75B464D46EF
:105A900001001800D3469946B24600F0C5FB002D20
:105AA00006DB0123029A1340269A15432B4393BB2E
:105AB00051460122484600F0F3FD0699824600F067
:105AC0006DFE002800DCD3E0059B392B00D1CFE22E
:105AD0000B9B31330593059B02943B700A9B444614
:105AE00001337E1C0993E5E600F0A8FB2F000400BB
:105AF00080467FE74B46002B00DA53E3269A134398
:105B00000C9A1343002B00D14CE3089B002B9DDD26
:105B1000D946D346B246059B392B00D1A8E20A9B51
:105B2000029401330993059B444601337E1C3B706C
:105B3000C0E6269B022B00DC78E6089B5E46002B25
:105B400000D05DE506990522484600F077FB01008C
:105B50000690504600F022FE002800DC50E55B462F
:105B60005A465E1C31230A9D13700135484606993A
:105B700000F05AFB6B1C0993002C00D0A7E6AAE6A4
:105B80005046069900F00AFE002800DB4AE60A9B10
:105B900051460A2248465E1E002300F04FFB0B9B35
:105BA0008246002B00D0FCE6149B002B00DCA4E214
:105BB0000A9A0893099240E61A000100484600F04C
:105BC00007FD269B0690012B3DDD00230593069AD9
:105BD0009446136903339B006344586800F090FBBC
:105BE00020231B1AF3E501230B93D2E6012308932C
:105BF0002793B2E5042B00D1FEE53C235B1AF4E5C4
:105C000018B9059BDF0700D547E62E00013D2B782C
:105C1000302BFAD04EE64346B7E5059A0C9B9446E6
:105C2000F31A9C4463460593089B0C969C460026F9
:105C3000099AE0441500624409920121484600F0A7
:105C4000B5FB040099E5029B002BBED10299039A93
:105C500013001203002AB8D157E6069A079B0226C2
:105C6000129213933AE40223269300230B9390E6B7
:105C7000002800D02FE7059BDB0700D524E72AE7A3
:105C800000230B93FFF7DAFB089B002B00D10DE2FA
:105C9000149B002B00DC81E400230A9AC4F2240345
:105CA000013A200029001592002202F095FC040020
:105CB0000D00701C1294139503F056FB22002B006C
:105CC00002F08AFC00230022C4F21C0301F0B0FCA5
:105CD00000220600149BCFF6C0428F18109349F69D
:105CE0001871C0F200018C46109B16961797013B65
:105CF000DB0063445C681B6818931994129C139D25
:105D00002900200003F0F8FA060003F02DFB020042
:105D10000B002000290002F027FF189A199B0D00A4
:105D200059464F1C0B9930360400F6B2002900D1B9
:105D30002AE100210020C3F6E07101F0EFFF169A7E
:105D4000179B02F011FF5B4622001E702B00129081
:105D5000139101F073FA002800D0C0E14246189276
:105D60005246002316924A46BA46129E139F9946FF
:105D7000129238E040F2010C109BE144994500DB9F
:105D8000B3E10023002230003900C4F2240302F002
:105D900023FC00230022C4F2240306000F0020008D
:105DA000290002F019FC0D00040003F0A5FA80465A
:105DB00003F0DAFA02000B002000290002F0D4FE02
:105DC00043460D005A464946040040F2010C303368
:105DD0005354200032003B002900E24401F01AFA3B
:105DE000002800D076E1002122002B000020C3F61D
:105DF000F07102F0B9FE32003B0001F00BFA00280E
:105E0000B8D0169B57469A46129B994640F2010C11
:105E1000159B5A466344984602E0BA4200D121E1FC
:105E20003E00013F3B78392BF7D093460133DBB27C
:105E30003B70434609934EE50E9A002A00D19FE03D
:105E400040F2334C6344099A984494469C44634618
