:020000041200E8
:1080000080350032198700120582001201820012A9
:10801000018200120182001201820012018200120C
:10802000000000000000000000000000358C00127D
:1080300001820012000000004D8200124D8C0012DF
:1080400057E200128BE20012BDE200120902220088
:10805000010104E0320904000001030001000921CC
:1080600000010001224C000705810308000A1201EB
:1080700000020000004000001300000201020301A2
:10808000040309041003520065006E0065007300CC
:10809000610073002003550053004200200050008F
:1080A000650072006900200048004900440020007B
:1080B000460057000A03500030003000310018031A
:1080C0004600530020004B006500790042006F001D
:1080D0006100720064000000342000323820003259
:1080E0004820003268200032722000320000000078
:1080F000F03B0032183C0032083C0032F03A0032CB
:10810000483C0032FC3B0032003C0032F43B003281
:10811000F83B0032C83C0032043C00320000000052
:10812000000000000000000000000000000000004F
:10813000000000000000000000000000E7BF001287
:1081400039C00012E7BF001239C000120000000061
:10815000000000000000000000000000000000001F
:10816000000000000000000000000000000000000F
:1081700000000000000000000000000000000000FF
:1081800000000000000000000000000000000000EF
:1081900000000000000000000000000000000000DF
:1081A00000000000000000000000000000000000CF
:0881B0000000000004000000C3
:020000041200E8
:1081B80040EA01039B0703D009E008C9121F08C061
:1081C800042AFAD203E011F8013B00F8013B521EE1
:1081D800F9D27047D2B201E000F8012B491EFBD258
:1081E80070470022F6E710B513460A4604461946BA
:1081F800FFF7F0FF204610BD00BE7047F0B581B014
:108208004CF2001543F69427C5F200050024C3F28A
:1082180000272868296A01EA000600BF26FA04F048
:10822800C00703D0396809B12046884701340437AC
:10823800152CF3D12E6100BF286A3042FCD101B061
:10824800F0BD0000164A1068164B1968EFF3098252
:1082580040B107B507F064F9BDE807401EF0400FCC
:1082680018BF06E01EF0100F08BF22ED108A22E9A1
:10827800F00FEFF30B83744622E919000A604FF000
:10828800100080F31188BFF34F8FBFF36F8F06F094
:108298004DFB4FF0000080F3118802F00FBE000084
:1082A8004C770032CC48003210B5EFF31081012230
:1082B80082F3108843F6CC42C3F2002232F8103021
:1082C80083B94EF2FE3E4FF6002CC5F2010EC1F204
:1082D800002CBEF800403CF81030234343F42543FB
:1082E800AEF8003032F81030013322F8103081F344
:1082F800108810BDEFF31081012282F3108843F635
:10830800CC42C3F2002232F8103023B132F81030D8
:10831800013B22F8103032F810207AB94EF2FE32C2
:108328004FF6002CC5F20102C1F2002C13883CF86C
:10833800100043F4254323EA0000108081F31088DD
:10834800704743F2AC5241F20023C3F20022C0F25C
:108358007A03484312689A420FD344F23F21C0F28D
:108368000F0111444DF68362C4F21B32A1FB0212C5
:10837800910CA0FB0101C9B11BE04CF60021C3F62A
:108388009A31B1FBF2F148F63812C0F2410290423C
:1083980005D24FF47A725043B0FBF1F006E0B0FB1F
:1083A800F1F0904205D24FF47A71484328B100F0B9
:1083B80087BE4FF0FF3000F083BE7047022818BF19
:1083C800704743F60C404FF29871C3F20020C1F297
:1083D800002100F007B8014600220020C0F2036225
:1083E8000A60704780B545F25422C5F24F02026018
:1083F800084602F003FD002080BD70B5044606F073
:108408008CFA207803F040FB10B14FF4BC651FE0F4
:10841800207844F29871C3F2002144F25C76C3F2EA
:10842800002600250D5436F81010012905D004F057
:10843800B0F9207804F05EF8207843F6CC61C3F2F6
:10844800002141F8205005F03FFE207826F8105012
:1084580006F07EFF284670BDB0B592B0054600789C
:1084680043F6CC62C3F2002252F8200088B30C46CF
:1084780006F053FA287844F25C71C3F2002131F80F
:1084880010200622A2708DF8280031F8100001286B
:108498001BD00020207001A803F050F9C0285FEA23
:1084A8001F91802828784FEA410108BF0121617097
:1084B80001F02AFA43F6E442C0F3021007A1C3F21E
:1084C8000022085C1178A070E17006F041FF0020DE
:1084D80001E040F2DC5012B0B0BD00BF060102035B
:1084E80004040404F0B591B00446087A44F298767E
:1084F8000D46C3F200262070096C216243F6DC4168
:10850800325CC3F20021EB6B012A41F82030E968A4
:1085180001F07F01616002D140F2DD5664E0296814
:10852800012906D044F25C710222C3F2002121F82D
:108538001020284605F052FD10B140F2DC5653E0F9
:1085480070783178C0B2084307D143F610504FF421
:10855800DC71C3F20020FFF744FE207843F6CC67B5
:10856800C3F2002701213154002647F8206043F662
:10857800D460C3F200204FF42A71FFF732FE286856
:10858800012831D0207803F04DFA064660BB20461A
:10859800294603F0C1FA2078294602F0C0FD686830
:1085A800022805D120788DF82400684601F034FBB4
:1085B800207801F061F8207803F038FF402808D1CE
:1085C800207801F000FB0A2002F0A7FD207801F0D6
:1085D800BCF82868012806D0207857F8201041F008
:1085E800100147F820100026304611B0F0BDF0B554
:1085F80081B015460E46074606F08FF969460022F7
:1086080038460024FFF728FF10B140F2DC540CE094
:10861800384631462A4603F004F9FF2808BF40F2DD
:10862800DC54D52808BF40F2DD5406F091FE204600
:1086380001B0F0BDF0B581B015460E46074606F00C
:108648006CF96946002238460024FFF705FF10B18F
:1086580040F2DC540CE0384631462A4603F007F96C
:10866800FF2808BF40F2DC54D52808BF40F2DD548B
:1086780006F06EFE204601B0F0BDB0B582B00C46E3
:10868800054606F04AF901A900222846FFF7E4FE4C
:1086980010B140F2DC5405E02878A1B22C8100F03A
:1086A800D4FF002406F054FE204602B0B0BDF0B559
:1086B80081B01F4614460D46064606F02EF930785E
:1086C80044F25C71C3F2002131F81000022802D193
:1086D80007F07F007060694600223046FFF7BCFE55
:1086E800074680B99DF8020040F2DC5703280AD1FA
:1086F80030462946224603F001F9D52857EA179152
:10870800002851EA108706F023FE384601B0F0BD74
:1087180000F00EFB01F09BFCFEE710B543F2B054ED
:10872800C3F200242078532801D000F06BFBE06EE0
:10873800216F81425FEA0F9010BD10B50B46EFF331
:1087480011844FF0200181F31188194600F003F8D5
:1087580084F3118810BD2DE9F04381B043F2B05580
:108768001646C3F20025894604462B78532B01D0C0
:1087780000F048FB04EB440005EBC00000F1600882
:10878800C56E076FAF4213D9D8E90101C91BB142C1
:1087980051EA3684C11948462246FFF709FDE01917
:1087A800D8F80810411AA14450EA1187361B00E096
:1087B8000024E81BB04250EA368646B1D8F80400D7
:1087C8003246C1194846FFF7F3FC344437440CB12C
:1087D800C8F81070204601B0BDE8F083F0B581B04C
:1087E80043F2B0531446C3F200230D4606461B78E5
:1087F800532B01D000F006FBEFF311874FF0200157
:1088080081F3118830462946224600F004F887F3A0
:10881800118801B0F0BD2DE9F04381B000EB4000B4
:1088280043F2B053C3F20023144603EBC003894656
:1088380003F11805D86A022812D0012808D00028A8
:108848003ED1EE682869F143B04234D9084435E096
:10885800EE682969B1420BD9F0430144A8680BE0DE
:1088680028464946224601B0BDE8F04300F0A2BBC5
:10887800F243A86811440144A14251EA3484871B99
:1088880068683044BC4207D249462246FFF790FC4C
:10889800BFF35F8F26440CE049463A46FFF788FC51
:1088A800E61B686809EB07013246FFF781FCBFF356
:1088B8005F8FEE6025E0AA6808441044A04201D208
:1088C80000241EE0D5E901018F1B3044BC4208D2C8
:1088D80049462246FFF76CFCBFF35F8F06EB04089E
:1088E8000DE049463A46FFF763FCA4EB07086868C1
:1088F80009EB07014246FFF75BFCBFF35F8FC5F842
:108908000C80204601B0BDE8F08382B080B582B00B
:10891800CDE9042304AA019201AA00F005F802B0E7
:10892800BDE8804002B070472DE9F04F9BB09146FA
:108938000F46002406A916914021179100210590A1
:108948001A90CDE9181100BF17F8011B252907D087
:10895800002900F0578116A800F00CFBD4E000BFF6
:108968004FF0000839782C2906DC23290AD02B2956
:1089780010D1042009E000BF2D2905D0302909D1E4
:10898800022002E0082000E0012048EA0008013740
:10899800E8E700BFA1F13A0010F10A0F02D2002067
:1089A80010E000BF00200A4617F8011F00EB800006
:1089B800A1F13A0302EB400013F10B0FA0F13000D4
:1089C8000A46F1D82E290DD13A4612F8011F2A2954
:1089D8000BD1D9F8001002370A1DC9F800200E681B
:1089E80001211BE00021002618E0A1F13A0313F150
:1089F8000A0F02D2002100260FE0002612F8013FDC
:108A080006EB8607A3F13A0601EB470116F10B0FB7
:108A1800A1F130061946F1D80121174617F8012BA4
:108A280002F0FB03682BF9D0632A0DDC252A2CD031
:108A3800582A22D0632A67D1D9F80000011DC9F845
:108A48000010017887E700BFA2F17003082B1ED839
:108A5800DFE803F0055A5A605A4D5A5A1300D9F8FC
:108A680000001022011DC9F8001001680823002029
:108A78000826CDE9006016A844E0D9F800100A1DC0
:108A8800C9F800200968102238E0252163E7642A24
:108A98003AD1D9F800104CF6CD4C0A1DC9F800207F
:108AA800D1F800E0CCF6CC4CCEF100017246BEF114
:108AB800000F48BF0A460A2A03914FF0010107DB5D
:108AC800A2FB0C35632A01F101014FEAD502F7D860
:108AD8008E4256EA818BD8B3BEF1000F5FEA5F91F0
:108AE80008F0040241EA9201A0EB010A32E0D9F849
:108AF80000100A1DC9F8002009680A22CDE90008FB
:108B080016A8334600F0BAF9199CB4F1FF3F3FF7B5
:108B18001BAF82E0D9F80000021DC9F800200068E8
:108B280040A2002850EA12855FEA01882978002EC1
:108B38005FEA18800029E7D00028E5D116A801359A
:108B480000F018FA199C013EB4F1FF3FEEDC64E036
:108B58004FF0000A5FEA88750CD55EB9002CD3D4B3
:108B6800BEF1000F27D45FEA4870CDF810E02BD58E
:108B78002B2123E05FEAC870F0D1BAF1000FEDD0E5
:108B8800D345EBD20295CDF810E0AAF1010500BF5C
:108B9800202116A800F0EEF9199C002C3DD4681E7F
:108BA800A84202D2AB450546F2D300F1010ADDF82E
:108BB80010E0029DD2E72D210398049016A800F03A
:108BC800D9F9199C002C28D4002D05D40A22CDE906
:108BD80000A816A8049994E708F001003043F5D1DD
:108BE800BAF1000FF2D0AAF10105554538BFD345B7
:108BF800ECD2302116A800F0BDF9199CAA46002C29
:108C0800F1D50AE044B1189D25B106A905982A4670
:108C1800FFF7E4FD2C4400E0002420461BB0BDE82B
:108C2800F08F00BF284E554C4C2900001EF0040F51
:108C38000CBFEFF30880EFF30980014908470000F3
:108C480035E5001210B51020EFF3118480F3118878
:108C580006F04EFA30B14EF604504FF08051CEF285
:108C68000000016084F3118810BD0000B0B54EF219
:108C78002405C5F20105D5F89C03C00707D1A81C37
:108C880006F053FC0446284606F04FFC01E0AC7899
:108C9800288800F00F01A1F1080003283BD8DFE87D
:108CA80000F0022C101E43F280504AF6AB21C3F2AA
:108CB8000020CAF6AA2150F82400A0FB01014808A8
:108CC80030E043F280504AF6AB21C3F20020CAF6E6
:108CD800AA2150F82400A0FB0101C80822E043F2B1
:108CE80080504AF6AB21C3F20020CAF6AA2150F8F8
:108CF8002400A0FB0101080914E043F280504AF661
:108D0800AB21C3F20020CAF6AA2150F82400A0FB28
:108D18000101880806E043F28050C3F2002050F8B1
:108D28002400C84043F2AC51C3F200210860B0BD32
:108D3800B0B54EF6145440F20120CEF20004C0F251
:108D48000E00002520604FF47000BFF34F8FBFF373
:108D58006F8F60670020FFF731FB00F069F9012091
:108D6800FFF72CFB43F28010C3F2002080F30A883F
:108D7800002000F019F8FFF779FF0220FFF71EFB2B
:108D8800012000F011F8BFF34F8FBFF36F8FC4F8C5
:108D98003C52BFF34F8FBFF36F8F00F07BF9002079
:108DA800BDE8B04000F074B9F0B581B04FF6DC15FD
:108DB8000446C1F200252E6876B16868071D00BF19
:108DC8007879844204D157E90101091AFFF709FAB1
:108DD800013E07F10C07F3D1AE6886B1E86800F1EF
:108DE800080500BF6879844205D155E9020229685F
:108DF800121AFFF7DDF9013E05F11005F2D101B0B5
:108E0800F0BD000010B543F2B054A821C3F200240D
:108E18002046FFF7E6F90320206160614FF60570F0
:108E280043F26861C1F20020A061C3F20021E16150
:108E38004FF4806121620021A1626162E16243F224
:108E4800586220664FF0100E4FF26A50C3F20022AB
:108E58006266C4F868E02167E1666167BFF35F8F07
:108E6800C1F200200F3000BF10F8011904F8011BEF
:108E78000FF007C0BFF35F8F10BD00002DE9F04F62
:108E880081B015460E4691421F468146DDF828B04E
:108E98004FF0010005D33146B1FBF5F10130A9428D
:108EA800FAD2874257EA808ABBF1000F0B991BD090
:108EB80011F0010018D188074FF0200048BF30207A
:108EC8002021002F50EA0188BBF1000F0CD0DA45B1
:108ED8000AD248464146ABF1010B00F04BF8D9F8ED
:108EE8000C00B0F1FF3FEFDCD9F80C00002836D4B5
:108EF800012400BF022F01D3013F03E0B6FBF4F0C9
:108F0800A84201D36C43F5E70FF25808B6FBF4F713
:108F1800484618F8071000F02DF8D9F80C0000287A
:108F280006D4B4FBF5F007FB1466A5420446EDD958
:108F38000B98C00718BFBBF1000F10D009E0202123
:108F4800484600F017F8D9F80C00A346B0F1FF3FE7
:108F580005DDABF101045C4538BFDA45EFD301B05C
:108F6800BDE8F08F30313233343536373839414245
:108F78004344454610B50446D0E90120431C9342BA
:108F880007D822681154A360E06862680130E06085
:108F98001846904218BF10BD21682069FFF71EFCD3
:108FA800A168884202D10020A06010BD4FF0FF30B8
:108FB800E06010BD2DE9F04381B014460D468046AF
:108FC800C7684FF0000900BFD8F81000FA43B8424C
:108FD80004D91044D8F8081004E000BFD8F80810E5
:108FE80010440844C91B884250EA31802946A042EF
:108FF80050EA3486D8F8040038443246FFF7D8F8E7
:10900800F019D8F80810411AA4EB060450EA1187A1
:10901800B1443544BFF35F8FC8F80C700CB12FF022
:109028002DC8484601B0BDE8F083000000000000EC
:109038000FA013A140F6000243F6000390ED001FB5
:1090480043F28050C2F6AF72C3F20020C1F69C43CF
:1090580080ED001F91ED001F48F2004180ED041FD4
:109068002030C1F2D7710EC0FFF700BE00BF00BFAD
:10907800006CDC0200127A000080000000366E01ED
:109088000080000000CA9A3B0046C3235543DE1304
:109098007047000080B54FF0030E4CF200304FF6D9
:1090A800F411C5F20000C1F2002100BF51F8042BF1
:1090B80002B1026004300FF007C880BD0000000054
:1090C80001380028FCD170472DE9F04F81B00446E3
:1090D8000088002800F08F8044F210034EF2D0354B
:1090E800C5F220030026C5F2010500BF42F2400B7D
:1090F8004FF000080FF20419C5F2200B606859F808
:10910800041B00EBC60042688A4267D100682968E0
:1091180000F0B850B0F1807F4FEA417028D10028A4
:109128001AD54EF64C400121C5F2010001FA08F7A4
:109138000078074210D10120FFF7B6F84EF64C41EF
:10914800C5F201010878384308700120FFF7D2F80A
:1091580044F21003C5F22003186800073ED59BF9B6
:10916800000000283AD49BF8000040F080002AE074
:1091780000281CD54EF64C400121C5F2010001FA29
:1091880008FA00781AEA000F11D00120FFF78CF8CE
:109198004EF64C41C5F20101087820EA0A00087031
:1091A8000120FFF7A7F844F21003C5F2200318685E
:1091B800000713D59BF90000B0F1FF3F0EDC9BF8C8
:1091C800000000F07F008BF80000C8200121FFF7A5
:1091D800B8F844F21003C5F2200300BF08F10108F3
:1091E8000BF1020BB8F1030F7FF488AF208801362A
:1091F8008642FFF47BAF01B0BDE8F08F02040000A7
:10920800030400000404000080B543F66820C3F29C
:109218000020FFF7F2F850B14FF6BC3104A2C1F2BA
:10922800002106A30020BDE88040FFF76EBB80BD8B
:109238006465696E69745F75736200000D0A525F38
:109248005553425F436C6F7365206661696C656452
:109258000D0A000080B582B043F64C3243F6043361
:10926800C3F20022C3F20023142004214FF0000CA3
:10927800CDF800C005F0F6FB43F60031C3F200213B
:10928800086008B102B080BD0020002102B0BDE82E
:10929800804001F09CBEFFF7DDBF90F8240044F247
:1092A8005C72C3F2002232F81020022A18BF7047FD
:1092B80041F270020028C5F2350204BF7022C5F2DF
:1092C800250202EB410030F8021C21F4007120F85D
:1092D800021C704790F8242044F25C70C3F200200E
:1092E800012A30F8120008BF022800D0704741F266
:1092F8004010C5F23500028822EA0101018070475A
:1093080090F8240044F25C72C3F2002232F8102074
:10931800022A18BF704741F23A020028C5F2350206
:109328004FF0010004BF3A22C5F225028840118897
:1093380021EA00001080704790F8240044F25C7223
:10934800C3F2002232F81020022A18BF704741F2F7
:1093580036020028C5F235024FF0010004BF36225C
:10936800C5F225028840118821EA00001080704764
:1093780090F8241044F25C70C3F20020012930F800
:10938800110008BF022800D0704741F20000C5F262
:109398003500018821F480710180704790F824001D
:1093A80044F25C72C3F2002232F81020022A18BF7D
:1093B800704741F238020028C5F235024FF001002B
:1093C80004BF3822C5F225028840118821EA00002E
:1093D8001080704790F8240044F25C73C3F20023B5
:1093E80033F81030022B18BF704758B141F26000B3
:1093F800C5F2350011B100EB41000E3001889143F0
:109408000180704760200029C5F22500F3D1F5E7F7
:1094180090F8240044F25C72C3F2002232F8102063
:10942800022A18BF70470122002802FA01F141F20E
:109438004A02C5F2350240F2FF3004BF4A22C5F2A3
:10944800250288431080704790F8240044F25C722B
:10945800C3F2002232F81020022A18BF70470122F6
:10946800002802FA01F141F24802C5F2350240F241
:10947800FF3004BF4822C5F2250288431080704798
:1094880090F8240044F25C72C3F2002232F81020F3
:10949800022A18BF70470122002802FA01F141F29E
:1094A8004602C5F2350240F2FF3004BF4622C5F23B
:1094B8002502884310807047012818BF704741F281
:1094C8000210C5F23500018821F4804101807047FF
:1094D80090F8240044F25C72C3F2002232F81020A3
:1094E800022A18BF704741F290020028C5F23502DF
:1094F80004BF9022C5F2250202EB810030F8041C5B
:1095080021F4007120F8041C704790F8242044F2DC
:109518005C70C3F2002030F8120002280ED1022934
:109528001BD001290CD049B92220012AC5F22500F7
:1095380004BF41F22200C5F2350070470020704791
:10954800222041F22201C5F22500C5F2350108307A
:10955800012A08BF01F108007047222041F22201C8
:10956800C5F22500C5F235010C30012A08BF01F10A
:109578000C00704790F8242044F25C70C3F200207D
:1095880030F8120002280ED102291BD001290CD074
:1095980049B92020012AC5F2250004BF41F2200064
:1095A800C5F23500704700207047202041F22001A5
:1095B800C5F22500C5F235010830012A08BF01F1BE
:1095C80008007047202041F22001C5F22500C5F2AD
:1095D80035010C30012A08BF01F10C00704741F237
:1095E80000010028C5F2350104BF0021C5F225019C
:1095F800088820F010000880704741F230010028E8
:10960800C5F2350104BF3021C5F22501088820F4D0
:1096180080400880704741F240010028C5F23501BA
:109628004BF6FF7004BF4021C5F225010880704742
:1096380041F240010028C5F235014FF6F77004BF2A
:109648004021C5F225010880704720B141F2600031
:10965800C5F2350002E06020C5F22500028822F03C
:1096680003020280028811B142F0020101E042F0D7
:10967800010101807047000010B5E0B341F2000419
:10968800C5F23504E08F40F03100E087E08F6FF3DA
:10969800DF30E087012001F03DFDE08F20F0010080
:1096A800E087012001F039FDE08F20F00200E0871B
:1096B800208820F020002080208840F001002080B1
:1096C800B4F8020140F48040A4F80201E088C00721
:1096D800FCD040F607706080E08F40F48070E0872F
:1096E8004FF4006020842085A0850020A4F8400065
:1096F80004F1300017E00020C5F22500018841F48C
:109708008061018001884905FCD5018821F020018C
:109718000180018841F0010101804FF480610184DA
:109728000185818530304FF41D41018010BD41F223
:1097380060010028C5F2350104BF6021C5F225018A
:10974800088840F004000880704741F200010028B2
:10975800C5F2350104BF0021C5F22501088840F093
:1097680010000880704741F230010028C5F2350129
:1097780004BF3021C5F22501088840F480400880E4
:10978800704741F208010028C5F2350104BF0821DD
:10979800C5F22501088840F480700880704790F869
:1097A800240044F25C71C3F20021012831F8101042
:1097B8004FF0000001BF022941F24010C5F2350008
:1097C8000088704790F8240044F25C71C3F20021CD
:1097D80031F8101002290AD141F25C010028C5F2C3
:1097E800350104BF5C21C5F22501088870470020B7
:1097F800704741F260010028C5F2350104BF6021BD
:10980800C5F225010888704790F8240044F25C717D
:10981800C3F2002131F8101002290AD141F25E0189
:109828000028C5F2350104BF5E21C5F2250108886C
:1098380070470020704790F8240044F25C71C3F22E
:10984800002131F8101002290AD141F2080100283C
:10985800C5F2350104BF0821C5F225010888704703
:109868000020704790F8242044F25C70C3F2002076
:1098780030F812304FF0000069B9022B18BF70475A
:10988800012A04D141F21600C5F2350002E0142085
:10989800C5F225000088704790F8240044F25C72F5
:1098A800C3F20022012832F810204FF0000008BF50
:1098B800002900D07047022A02BF41F21400C5F205
:1098C80035000068704780B5FFF71FFE008880BD2F
:1098D80080B5FFF74FFE008880BD90F8240044F261
:1098E8005C71C3F2002131F8101002290AD141F24B
:1098F8004C010028C5F2350104BF4C21C5F22501F1
:10990800088870470020704741F240010028C5F2DE
:10991800350104BF4021C5F225010888704790F839
:10992800240044F25C71C3F20021002831F81010C1
:109938004FF0000006D0022902BF41F26A00C5F2CA
:1099480035000088704790F8240044F25C71C3F237
:10995800002131F8101002290AD141F268010028CB
:10996800C5F2350104BF6821C5F225010888704792
:109978000020704781B00022ADF8022090F8240042
:1099880044F25C72C3F2002232F81020022A18D185
:1099980041F2600240F2600CC5F23502C5F2250CB6
:1099A80002F11003002802BF0CF110036022C5F277
:1099B800250203EB4100002918BF821E1088ADF86C
:1099C8000200BDF8020001B0704790F8240044F28C
:1099D8005C71C3F2002131F8101002290AD141F25A
:1099E8006C010028C5F2350104BF6C21C5F22501C0
:1099F800088870470020704790F8240044F25C7192
:109A0800C3F2002131F8101002290AD141F20001F5
:109A18000028C5F2350104BF0021C5F225010888D8
:109A280070470020704790F8240044F25C71C3F23C
:109A3800002131F8101002290AD141F2040100284E
:109A4800C5F2350104BF0421C5F225010888704715
:109A58000020704741F258010028C5F2350104BFC3
:109A68005821C5F225010888704741F25A0100289B
:109A7800C5F2350104BF5A21C5F22501088870478F
:109A880041F254010028C5F2350104BF5421C5F242
:109A980025010888704741F256010028C5F23501B2
:109AA80004BF5621C5F2250108887047B0B51C4689
:109AB8001546FFF75FFD018804EA0502A14311443A
:109AC8000180B0BD90F8240044F25C72C3F2002219
:109AD80032F81020022A18BF704741F2700200289D
:109AE800C5F2350204BF7022C5F2250202EB41001F
:109AF80030F8021C41F4007120F8021C704790F8FD
:109B0800242044F25C70C3F20020012A30F81200CD
:109B180008BF022800D0704741F24010C5F2350056
:109B2800028811430180704780B5FFF7EEFC4FF4BF
:109B38008041018080BD90F8240044F25C72C3F239
:109B4800002232F81020022A18BF704743F6E64276
:109B58000028C3F2002241F23A0018BF1432C5F2BD
:109B680035004FF0010C04BF3A20C5F22500002350
:109B780022F811300CFA01F1028811430180704774
:109B880090F8240044F25C72C3F2002232F81020EC
:109B9800022A18BF704741F236020028C5F2350282
:109BA8004FF0010004BF3622C5F225028840118813
:109BB80008431080704780B5FFF7A7FC018841F47F
:109BC8000041018080BD012818BF704741F20000A4
:109BD800C5F23500018841F480710180704790F822
:109BE800240044F25C72C3F2002232F81020022AE8
:109BF80018BF704741F270020028C5F2350204BF51
:109C08007022C5F2250202EB410030F8021C41F433
:109C1800005120F8021C704790F8241044F25C7040
:109C2800C3F20020012930F8110008BF022800D033
:109C3800704741F20000C5F23500018841F080010B
:109C480001807047B0B514460546FFF793FC95F8B8
:109C5800241044F25C72C3F2002232F81110022977
:109C680009D10188002C21F44061018008BFB0BDF2
:109C7800018821430180B0BD90F8240044F25C7251
:109C8800C3F2002232F81020022A18BF704741F2AE
:109C980038020028C5F235024FF0010004BF38220F
:109CA800C5F225028840118808431080704790F853
:109CB800240044F25C73C3F2002333F81030022B03
:109CC80018BF704780B541F2600340F2600CC5F2DE
:109CD8003503C5F2250C03F1100E002802BF0CF164
:109CE800100E6023C5F225030EEB4100002918BFB2
:109CF800831E188820F003001880188810431880E5
:109D0800BDE88040704790F8240044F25C72C3F2CA
:109D1800002232F81020022A18BF704758B141F2C9
:109D28006000C5F2350059B100EB4100C18941F42A
:109D38008071C181704760200029C5F22500F3D1E8
:109D4800018841F4807101807047012818BF70476D
:109D580041F20210C5F23500018841F480410180CA
:109D6800704790F8240044F25C72C3F2002232F883
:109D78001020022A18BF704741F290020028C5F24D
:109D8800350204BF9022C5F2250202EB810030F8AB
:109D9800041C41F4807120F8041C704790F82400DA
:109DA80044F25C72C3F2002232F81020022A18BF73
:109DB800704741F290020028C5F2350204BF902294
:109DC800C5F2250202EB810030F8041C41F4007151
:109DD80020F8041C704790F8242044F25C70C3F209
:109DE800002030F8120032B1022802BF41F20C0004
:109DF800C5F235000180704790F8240044F25C7287
:109E0800C3F2002232F81020022A18BF704741F22C
:109E18005C020028C5F2350204BF5C22C5F22502A7
:109E28001180704790F8240044F25C72C3F200225B
:109E380032F81020022A18BF704741F25E0200284B
:109E4800C5F2350204BF5E22C5F2250211807047B3
:109E580090F8243044F25C70C3F20020012B30F8F3
:109E6800130008BF022808D002291BD001290FD0EF
:109E780009BB1420C5F2250008E0022916D00129E3
:109E88000AD0C1B941F21600C5F235000280704708
:109E98001420C5F2250003E041F21600C5F2350092
:109EA800828070471420C5F2250003E041F21600B5
:109EB800C5F235000281704790F8243044F25C7096
:109EC800C3F20020012B30F8130008BF002900D08E
:109ED8007047022802BF41F21400C5F23500026043
:109EE800704790F8243044F25C70C3F20020012BD4
:109EF80030F8130008BF022808D002291BD0012916
:109F08000FD009BB1420C5F2250008E0022916D09D
:109F180001290AD0C1B941F21700C5F23500027013
:109F280070471420C5F2250003E041F21700C5F27E
:109F38003500027170471420C5F2250003E041F294
:109F48001700C5F235000272704790F8242044F2D9
:109F58005C70C3F20020012A30F8120001BF022809
:109F680041F26A00C5F235000180704790F824007C
:109F780044F25C72C3F2002232F81020022A18BFA1
:109F8800704741F268020028C5F2350204BF682212
:109F9800C5F225021180704790F8240044F25C72E3
:109FA800C3F2002232F81020022A18BF704741F28B
:109FB8006C020028C5F2350204BF6C22C5F22502E6
:109FC8001180704790F8240044F25C72C3F20022BA
:109FD80032F81020022A18BF704741F26E0200289A
:109FE800C5F2350204BF6E22C5F225021180704702
:109FF80090F8240044F25C72C3F2002232F8102078
:10A00800022A18BF704741F264020028C5F23502DF
:10A0180004BF6422C5F225021180704790F824001D
:10A0280044F25C73C3F2002333F81030022B18BFDC
:10A03800704741F292030028C5F2350304BF92230A
:10A04800C5F2250303EB810020F8042C704780B586
:10A0580043F69C3243F6EC30C3F20022C3F20020F0
:10A068000021117043F6A4320160C3F200224FF4BC
:10A078008070012104F0B8FC43F6A031C3F200213E
:10A08800086018B90020002100F0A1FF00F006F8D0
:10A0980000F0A0FF04F0F5FB002080BD80B584B07F
:10A0A80043F6EC304FF6B423C3F2002044F2A87C08
:10A0B80047F2907EC1F2002301684FF4007201312B
:10A0C8000160052000904AF235500DA1C1F2002030
:10A0D800C3F2002CC3F2002ECDE901EC04F0B4FF6A
:10A0E80044F2A471C3F20021086008B104B080BD35
:10A0F8000020002104B0BDE8804000F068BF00BF28
:10A1080050686964205468726561640082B043F6DF
:10A1180068204FF24871C3F20020C1F20021FEF717
:10A12800E1F9A8B14FF6BC314FF6D8320446C1F276
:10A138000021C1F20022DDA30020FEF7E6FB4FF666
:10A14800BC210020C1F200212246FEF7DEFB00BE42
:10A1580043F6003B44F2A07443F668254FF6BC363C
:10A1680042F2000044F260794FF6D838C3F2002B6F
:10A17800C3F20024C3F20025C1F20026C3F2002076
:10A18800C3F20029C1F200280FF2383A12300190C8
:10A19800DBF800004FF0FF32214604F0BBFD012838
:10A1A80005D00020314642465346FEF7AEFB2068F4
:10A1B800C1680339072947D8DFE801F00442460A95
:10A1C8004A7A460D4FF661310020C1F2002139E08C
:10A1D8000020CAA136E0642004F079FA99F800005A
:10A1E800012874D142F26812C3F20022107827289D
:10A1F80000F2B68043F6F4218423C3F2002188706C
:10A208000130107008222846FEF751FAE0B14FF6E7
:10A21800A8324FF6DC23074600203146C1F200225F
:10A22800C1F20023FEF771FBFEF7EEFF4FF6BC21EB
:10A238000020C1F200213A46FEF767FB00BE03E0AA
:10A248000020B4A1FEF761FB012004F040FA9FE76B
:10A25800417D0902B1F5C06F00F0D280B1F5206FE1
:10A2680000F0A880B1F5106FEED143F61C41022230
:10A278002846C3F20021FEF7BAF90028E4D04FF6C9
:10A2880098324FF6F323074600203146C1F20022E8
:10A29800C1F20023FEF739FBFEF7B6FF4FF6BC21EB
:10A2A8000020C1F200213A46FEF72FFB00BECBE7A3
:10A2B800417D0902B1F5306FC6D0B1F5206F2AD1C2
:10A2C80044F29C711630C3F200210860BCE743F6E3
:10A2D800E821082284232846C3F20021FEF7E7F983
:10A2E8000028B1D04FF6A8324FF6DC2307460020ED
:10A2F8003146C1F20022C1F20023FEF706FBFEF749
:10A3080083FF4FF6BC210020C1F200213A46FEF738
:10A31800FCFA00BE98E743F6E82108228423284681
:10A32800C3F20021FEF7C3F900283FF48DAF4FF6C2
:10A3380086324FF6DC23074600203146C1F2002260
:10A34800C1F20023FEF7E1FAFEF75EFF4FF6BC21EB
:10A358000020C1F200213A46FEF7D7FA00BE73E7A3
:10A3680043F6E82104201070002089F80000082234
:10A3780084232846C3F20021FEF799F900283FF408
:10A3880063AF4FF6A8324FF6DC230746002031466C
:10A39800C1F20022C1F20023FEF7B7FAFEF734FF3C
:10A3A8004FF6BC210020C1F200213A46FEF7ADFA73
:10A3B80000BE49E744F29C7200F11601C3F2002284
:10A3C80011600021FEF759F900283FF43DAF4FF620
:10A3D80098324FF63B33074600203146C1F200223F
:10A3E800C1F20023FEF791FAFEF70EFF4FF6BC21EB
:10A3F8000020C1F200213A46FEF787FA00BE23E7A3
:10A40800C08AB0F5085F2DD0B0F5045F7FF41CAFAB
:10A4180044F674270922C3F2002701993846FDF74C
:10A42800C7FE092228463946FEF704F900283FF4FA
:10A438000BAF4FF698324FF61733074600203146D8
:10A44800C1F20022C1F20023FEF75FFAFEF7DCFE3C
:10A458004FF6BC210020C1F200213A46FEF755FA1A
:10A4680000BEF1E64FF2FC614C222846C1F2002101
:10A47800FEF7E0F800283FF4E7AE4FF698324FF6C3
:10A488001733074600203146C1F20022C1F20023EB
:10A49800FEF73BFAFEF7B8FE4FF6BC210020C1F2EA
:10A4A80000213A46FEF731FA00BECDE60D0A525FAA
:10A4B8005553425F4F70656E206661696C65640D27
:10A4C8000A0000000D0A4E6F20555342206576653C
:10A4D8006E742072656365697665642E20506C65BC
:10A4E80061736520636865636B2055534220636F11
:10A4F8006E6E656374696F6E0D0A00000D0A555320
:10A5080042205354415455533A20444554414348FA
:10A518000D0A00000D0A5553422053544154555317
:10A528003A2053555350454E440D0A0010B5044681
:10A5380000F01CFD002003F050FF2046BDE810404D
:10A54800FFF7E4BD2DE9F04381B047F2807244F68D
:10A55800D403C3F2002244F6CC04C3F20023C3F2AE
:10A568000024156844F6DC02C3F20022D3F8008008
:10A5780006460F46D2F800902268101D03F0B4FE7C
:10A58800701C16D1AFB147F25870C3F20020D0E961
:10A598000012236801319A6093682768FB60276876
:10A5A80004375F6023680433936022680160506158
:10A5B80017E02068AD194560206800F1040105D353
:10A5C800484601B0BDE8F04303F0DEBE404603F064
:10A5D800DBFE47F2D060C3F2002001688D4238BF2D
:10A5E800056001B0BDE8F0832DE9F04381B0044671
:10A5F80003F0F5FE47F2A01044F6CC07C3F20020A2
:10A60800C3F2002747F248790168C3F200290131F3
:10A618000160396851B1D9F80000002842D1386882
:10A62800E16AC06A884298BF3C603BE03C600068D1
:10A63800012837D144F6E4050F26C3F2002500BFF0
:10A64800284603F093FE013E05F11405F8D147F2C0
:10A658009C68C3F20028404603F088FE47F2B065C4
:10A66800C3F20025284603F081FE47F2E460C3F2F6
:10A67800002003F07BFE47F26C70C3F2002003F069
:10A6880075FE47F25870C3F2002003F06FFE44F6DF
:10A69800D40044F6DC01C3F20020C3F20021C0F864
:10A6A80000800D6047F2AC10261DC3F2002001683F
:10A6B8000131016047F2B011E06AC3F200210A6873
:10A6C800904288BF086000EB800044F6E401C3F2C2
:10A6D800002101EB80026261536851F820200132A9
:10A6E80041F820209D68C4E902359E606E6003F041
:10A6F80095FED9F8000078B13868E16AC06A8842E6
:10A708000AD24EF604504FF08051CEF2000001609C
:10A71800BFF34F8FBFF36F8F01B0BDE8F083000028
:10A7280070B582B003F05BFE47F28476C3F2002670
:10A73800306850BB47F27464C3F20024204603F02B
:10A7480015FE47F28865C3F20025284603F00EFE81
:10A7580044F6D00044F6E001C3F20020C3F2002121
:10A7680044F6080244F6800304600D60C3F2002238
:10A77800C3F200230A200C210025009504F072F989
:10A78800306010B103A103F03BFF02B0BDE8704098
:10A7980003F044BE546D725100000000F0B581B062
:10A7A80047F2A415C3F200252868E8B147F26C7691
:10A7B80047F2A017C3F20026C3F2002703F00FFEEA
:10A7C800F068C468201D03F08FFD386801383860D0
:10A7D80028680138286003F021FE204600F034F88C
:10A7E800286808B12FF017C001B0F0BD70B5866BAE
:10A7F800036C04462BB31546B2B1E0681A46FDF760
:10A80800D7FC2168E268206C121AE2608A4203D2FF
:10A818004042A1680844E060022D5FEA1F90002EC4
:10A828005FEA0080361A0CE060681A46FDF7C0FC43
:10A83800D4E90101226C10446060884201D3206889
:10A848006060701CA06370BD10B5044603F067FE1D
:10A8580094F85D0002280BD0012803D038B9206B8A
:10A8680003F0F0FD2046BDE8104003F0EBBD00BE4C
:10A8780010BD00004FF4807003F0AFFD44F6E4040F
:10A888004EF60455C3F20024CEF200054FF0805670
:10A89800FFF784FF2068022804D32E60BFF34F8F90
:10A8A800BFF36F8F03F056FDF2E700002DE9F04388
:10A8B80081B00A9F054698463E6B089C06EB8200CD
:10A8C800A0F1040020F0070671B107F134000F224F
:10A8D80011F8013B00F8013B1BB1002AA2F101026B
:10A8E800F6D1002087F843000F2CDDF8249000D320
:10A8F80000BE0E2C07F1040028BF0E24FC6203F0F2
:10A9080040FD07F1180003F03CFD84F00F00B8612A
:10A91800396B30462A4643463F617F6200F056FA5B
:10A92800B9F1000F386018BFC9F8007001B0BDE870
:10A93800F0838C4601469445006141F804CF08D95C
:10A9480044F6D0009A42C3F200200AD29C450ED2A7
:10A9580007E08069D21A824209D244F6E000C3F2C5
:10A96800002080B5006803F00FFD002080BD0120A5
:10A97800704770B544F6D0020646C3F200220D4671
:10A988001268D268D468201D03F0AEFC94F8240045
:10A99800410704D400F0FA0084F8240004E02046BB
:10A9A80031462A4600F006F8216A2046BDE8704084
:10A9B8000847000070B50446806915460E460144F4
:10A9C800204600BF3346FFF7B4FF48B1A069216AAB
:10A9D800064420468847A0692A4681192046F1E79F
:10A9E80070BD0000F0B581B0044604F07BFB44F66E
:10A9F800C8060546C3F20026316888420ED244F6DE
:10AA0800D007C3F2002700BF3868016841B1C068A9
:10AA18004FF0FF310068FFF7ACFFF5E7002007E0D3
:10AA280044F6E001C3F200210A68086001203A6098
:10AA380020603560284601B0F0BD000000BE00BFB0
:10AA4800FEE7000084B044F6D00847F28475C3F2EC
:10AA5800002801ACC3F200254FF0000BEA4600BF06
:10AA6800D8F80000D0F80090B9F1000F02D0C06803
:10AA7800066800E0002603F050FF2046FFF7B2FF0B
:10AA8800019919B104F064FC2EE000BF0746B9F142
:10AA9800000F08D0BE4206D804F05AFC30463946AA
:10AAA800FFF767FF20E0B9F1000F01D0002208E0AE
:10AAB80044F6E000C3F200200068006800285FEA5E
:10AAC8001F922868F11B03F0DFFD04F041FC58B920
:10AAD8004EF604504FF08051CEF200000160BFF3F3
:10AAE8004F8FBFF36F8F00BFCDF80CB0CDE901BB1E
:10AAF80028680022214604F00DF908B92FF051C04A
:10AB080001980028F4D4039E706910B1301D03F039
:10AB1800EBFB5046FFF766FF019901390829E7D892
:10AB28000746DFE801F00505301E420505301E0026
:10AB380096F82400029BB1693A4640F0010086F875
:10AB4800240019443046FFF7F4FE08B92FF031C04D
:10AB580096F8240041071DD400F0FA0086F8240076
:10AB68001FE096F824100298B06141F0010186F8C0
:10AB7800241008B900BEB069C11930463A463B46B0
:10AB8800FFF7D7FEB4E796F8240000F0FE0086F839
:10AB98002400ADE70298B169014430463A46FFF710
:10ABA80009FF316A30468847A2E796F824008107F2
:10ABB800EBD4304603F046FC9AE70000F0B581B0CC
:10ABC800044603F00CFC94F94560012E0EDB04F1F9
:10ABD800240500BF286848B1284604F045FB08B1A1
:10ABE80003F00FFE70B2013E0128F3DCFF2684F863
:10ABF800456003F013FC03F0F2FB94F94470012F55
:10AC08000EDB04F1100500BF286848B1284604F09F
:10AC18002BFB08B103F0F5FD78B2013F0128F3DC06
:10AC280084F8446001B0BDE8F04003F0F7BB0000D1
:10AC3800B0B500F10805092D06D310F0070104D0BE
:10AC480009398D4240F2BD80002503F066FE44F6C6
:10AC5800D80CC3F2002CDCF8000028B147F2C4601D
:10AC6800C3F2002000682BE044F68420C3F20020E1
:10AC7800420742F2107200F107010244034647F20C
:10AC88005070C3F2002018BF21F007030021C0E96B
:10AC9800003122F00700A0F10802CCF8002040E9BA
:10ACA8000211D01A47F2C4625860DCF8001019602B
:10ACB80047F2CC61C3F20022C3F2002110600860A1
:10ACC800012D4FF00004C0F27580854272D847F21A
:10ACD800507044F68421C3F20020C3F200210268B8
:10ACE8008A4204D342F20F700844824200D900BE5F
:10ACF8005068A84212D2106880B142F20F73CC1883
:10AD080013460246884201D3A24200D900BE5068C9
:10AD1800A84207D2106828B12FF00FC047F250732D
:10AD2800C3F20023DCF80000824242D0186800F128
:10AD380008048C4204D342F20F700844844200D9BC
:10AD480000BED2E900011860A94201D200BE5168D4
:10AD5800481B11280FD302EB050C5FEA4C7102D097
:10AD680000BE5068401B2946CCF804001868CCF88F
:10AD78000000C3F800C047F2C46547F2CC6CC3F2C8
:10AD88000025C3F2002C2B68DCF800005B1A2B604E
:10AD9800834241F0004038BFCCF8003047F2D86316
:10ADA8000021C3F20023C2E90010186801301860BE
:10ADB80000E0002404F0CCFA600700D000BE204672
:10ADC800B0BD20F0070000F110053EE780B54FF058
:10ADD800000C40F84CCD4AF6452E4FF0807CC1F26D
:10ADE800002E22F00102C0E910E26FF04302C0F821
:10ADF80048C0C3623031C0E9011280BD70B5044655
:10AE0800FEF762F943F6D84CEFF31081C3F2002C39
:10AE1800012080F31088DCF8000038B940F60C50A7
:10AE28000022C5F24000027040220270DCF80000E7
:10AE38000130CCF8000081F31088208818B340F660
:10AE4800000E0021C5F2400E606800EBC10250F808
:10AE580031305268D8034FEA1220D2B20BD50EEB2C
:10AE6800801555F8226026F4803645F8226023F4D0
:10AE7800803645F822600EEB8010013140F8223010
:10AE880020888142E0D30120EFF3108180F31088FD
:10AE9800DCF8000020B1DCF800000138CCF8000034
:10AEA800DCF8000038B940F60C500022C5F240002A
:10AEB80002708022027081F3108870BD0D4801680D
:10AEC8000A680BCA81F30B889E460B49086038B1A3
:10AED80004B504F02FFBBDE804401EF0400F06D176
:10AEE800B2E8F00F1EF0100F08BFB2EC108A82F320
:10AEF80009887047CC4800324C77003280B598B347
:10AF08004EF6902EC5F2010E9EF800100A0722D0C8
:10AF18004EF2FE324AF2025CC5F20102CFF6FF7C25
:10AF280000201388A2F800C08EF8000043F42540E2
:10AF38001080BFF34F8F30BFBFF36F8F62B6BFF380
:10AF48006F8F72B61088A2F800C08EF8001040F417
:10AF58002540108080BDBFF34F8F30BFBFF36F8F88
:10AF680062B6BFF36F8F72B680BD0000B0B543F60E
:10AF7800A0344FF0FF31C3F20024206803F074FFBF
:10AF8800012803D02068002100F021F843F69C3006
:10AF9800C3F20020017801B1B0BD01210170FEF7B4
:10AFA8007AF943F6EC35C3F2002500BF286801386A
:10AFB8002860F1D0206800210022002303F0BAFDA8
:10AFC8000128F3D02068002100F001F8EEE700BE68
:10AFD8007047000080B584B043F6EC304FF6B823D4
:10AFE800C3F2002044F6142C47F6907EC1F20023E9
:10AFF80001684FF4807201310160012000904BF22A
:10B0080005100DA1C1F20020C3F2002CC3F2002EDE
:10B01800CDE901EC04F018F844F61021C3F2002140
:10B02800086008B104B080BD0020002104B0BDE86C
:10B038008040FFF7CCBF00BF52747420546872651B
:10B048006164000088B000200790CDE90500CDE9D3
:10B05800030003A8FDF7BFF99DF80F304FF62A51FA
:10B068009DF80D70C1F200219DF80E601AA2002013
:10B07800CDE90067FDF749FC4FF6EF310020C1F23A
:10B088000021FDF742FC4FF6FA480020C1F20028E3
:10B098004146FDF73AFC44F26074012704AD0FA65F
:10B0A800C3F20024FDF739FB88B10020102229469D
:10B0B800FDF743FB00203146FDF727FC40F6B8308A
:10B0C80003F005FB002041462770FDF71EFC012018
:10B0D80003F0FDFAE6E700BF312E30000D0A4E4FAF
:10B0E80054453A20506C65617365204F70656E2039
:10B0F8004E6F74657061640D0A00000010B5044657
:10B10800FFF734FF002003F068F92046BDE810403F
:10B11800FFF798BF0121FDF714B903F0D8BAB0B50D
:10B1280001285BD0002840F0868040F200404EF2B3
:10B13800001EC5F2250044F2647CCEF2000EC3F274
:10B14800002C026822F010020260CB694CF2003237
:10B15800002BC5F200021ED491F835000EEB030453
:10B168000125000184F800034CF8231052F823004D
:10B1780020F4803042F8230052F82300580903F0E5
:10B188001F03BFF35F8F0EEB800405FA03F3C4F8C7
:10B1980080314EF820308B69002B4CD491F8340064
:10B1A8000EEB0304000184F800034CF8231052F856
:10B1B800230020F4803042F8230052F82300580975
:10B1C80003F01F0201230EEB800103FA02F2BFF322
:10B1D8005F8FC1F880214EF82020B0BD886A002812
:10B1E80029D44EF2001391F83820CEF20003C51886
:10B1F800120185F8002344F26472C3F2002201258B
:10B2080042F820104CF20031C5F2000151F820201C
:10B2180022F4803241F8202051F82010410900F032
:10B228001F00BFF35F8F03EB810205FA00F0C2F83D
:10B23800800143F82100B0BD02B17047B0B543EAC0
:10B248000105002145F4004248F22F030446FEF7A9
:10B258002DFC00BF00212046FEF73AFB00F02F002E
:10B26800A842F7D1BDE8B040704770B5044690F8E1
:10B27800240044F25C720D46C3F2002232F810003A
:10B2880002280BD143F62046C3F2002656F82500C3
:10B2980008B103F0D7F8002046F8250020462946D3
:10B2A80000F04CF820462946FEF746F82046294685
:10B2B800FEF774F820462946FEF722F800210022FE
:10B2C80000232046FFF7B8FF20462946FEF790FEE8
:10B2D80000212046FEF74AFE00212046FEF735FEF3
:10B2E80000212046FEF758FE00212046FEF76AFEA0
:10B2F80000212046FEF77CFE20462946FEF703FD86
:10B308002046294600F034F820462946FEF767FC17
:10B3180020462946FEF7DCF820462946FEF721FD9F
:10B3280020462946FEF7ACF820462946FEF78CF859
:10B3380020462946BDE87040FEF76AB8092988BF4B
:10B348007047B0B50C46054600F02EFA0222284692
:10B358002146BDE8B040FEF73DB8B0B50C460546FD
:10B36800FEF7B6F828462146BDE8B040FEF7F9BC1E
:10B37800092988BF7047B0B50C460546FEF7A2FB01
:10B3880028462146BDE8B040FDF787BF10B5044602
:10B3980061B1FEF72DFE2046FEF7D5FAC0050FD4A1
:10B3A8002046FEF712FB6FF3DF2010BDFEF70AFA06
:10B3B800C0050ED42046FEF727FA00F07F0010BD26
:10B3C8002046FEF7ACFA6FF03F0101EA101040305A
:10B3D80010BD4FF4807010BD092901D900207047B5
:10B3E80010B5044631B12046FEF702FE2046FEF7AE
:10B3F800ECFA02E02046FEF707FA6FF3DF2010BDF3
:10B40800092901D90020704780B5FEF7B3FA00F08A
:10B41800030080BD092901D90020704710B50446F2
:10B42800FEF7E6FD2046FEF78EFA00F0100010BD8C
:10B43800092901D90020704710B50446FEF7D8FD48
:10B448002046FEF780FA00F4404010BD70B514465F
:10B458000546FFF7F1FE002628462146FEF733FA97
:10B4680081040DD42846FEF7C7FA2846FEF7DBFA12
:10B478000A20FFF74FFE632E06F10106ECD3FF20EA
:10B4880070BD80B582B0002901914FF00001009194
:10B498001CD042F2A0016A46C3F20021002351F8F1
:10B4A800200001A9006803F0E5FB01280ED10098EF
:10B4B80050B14EF604504FF08051CEF200000160BA
:10B4C800BFF34F8FBFF36F8F002000E0FF2002B063
:10B4D80080BD092988BF7047FEF7CEBBB0B582B0E2
:10B4E80090F824500C4602F0ADFFA01F10F1050F94
:10B4F80001D202B0B0BD05EB850043F65041C3F25E
:10B508000021002201EB800501A955F8240003F071
:10B5180001FC0128EDD101980028EAD005EB84054B
:10B5280001AC00BF02F08EFF28680022214603F01C
:10B53800F1FB0128DDD101980028F3D1D9E7F0B556
:10B5480081B0044690F8246044F25C700D46C3F262
:10B55800002030F81600022816D143F62046C3F220
:10B56800002656F8250008B102F06CFF002046F8C6
:10B5780025002046294601F055FC013894F824603E
:10B5880002285FEA2F9700E0002720462946FDF7AA
:10B59800D3FE20462946FDF701FF20462946FDF740
:10B5A800AFFE20462946FFF7C9FE20462946FEF78A
:10B5B8001FFD44F294106421C3F2002016FB010021
:10B5C80005EB850100EB410232F8021F17B141F487
:10B5D8008061118005EB850200EB42072046FEF7EB
:10B5E800C5FC012E03D1B9882046FEF7AEFCF988C8
:10B5F8002046FEF7D1FC39892046FEF7E3FC0021FE
:10B608002046FEF7F5FC20462946FEF77CFB20463F
:10B618002946FFF7ADFE20462946FEF7E0FA204608
:10B628002946FDF72DFF20462946FDF70DFF204648
:10B63800294601B0BDE8F040FDF7EABEB0B582B0DA
:10B6480090F824500C4602F0FDFEA4F10A0010F117
:10B65800090F01D202B0B0BD05EB850043F6784171
:10B66800C3F20021002201EBC00501A955F824000E
:10B6780003F050FB0128EDD101980028EAD005EB32
:10B68800840501AC02F0DEFE28680022214603F0A2
:10B6980041FB0128DED101980028F3D1DAE780B513
:10B6A80082B0A1F10A02019012F1090F10D390F8AB
:10B6B800240043F67842C3F20022002300EB800006
:10B6C80002EBC000002250F8210001A903F032FA71
:10B6D80002B080BDA1F10A0212F1090F38BF70470C
:10B6E80010B582B0044600EB800043F67842C3F2FE
:10B6F800002202EBC000002250F8210001A903F04B
:10B7080009FB012816D10198A0B144F25C701421FC
:10B71800C3F200200022002330F81400012842F26E
:10B72800A000C3F2002008BF0421405801A9006806
:10B7380003F000FA02B0BDE81040704780B5FEF78C
:10B748007AF800F007000138032803D802A131F87D
:10B75800100080BD002080BD40008000C0000000B7
:10B76800C9B110B50C460021002A216042F2A0019F
:10B77800C3F2002151F82000214608BF40F6B83234
:10B78800006803F0C7FA012803D1206808B1002037
:10B7980010BDFF2010BDFF207047092988BF7047E2
:10B7A8000122FEF784BA0000F0B581B001220C46F0
:10B7B8000546FDF70FFE00264FF6FF77284621467F
:10B7C800FEF7D8F8800602D50136BE42F6D101B0A0
:10B7D800F0BD70B514460D460646FEF7C2FA30466F
:10B7E80029462246FEF71AFC30462946BDE8704035
:10B7F800FEF7D4BA80B582B0019179B142F2A001C6
:10B808000022C3F20021002351F8200001A900689A
:10B8180003F090F9013818BFFF2000E0FF2002B0C4
:10B8280080BD007844F25C73C3F2002333F8103013
:10B83800022B08D144F22473C3F200231B88012B86
:10B8480003D1D52070470020704780B592B08DF89D
:10B85800280044F25470C3F200200123038001AB96
:10B8680010461A4600F0DFFE002012B080BD10B569
:10B878009CB00446007844F25C738DF82400C3F24F
:10B88800002333F8100002281BD131B92AB92089C6
:10B89800C8B1684601F097FD19E044F22470C3F27C
:10B8A80000200088012801D1D52424E044F25470F6
:10B8B8000123C3F2002003806B4610461A4600F0AD
:10B8C80079FE002417E068460021FFF766FFD4E9F7
:10B8D8000501CDE91601207800248DF8440015945F
:10B8E800ADF84C409320129003F0E4FB189011A996
:10B8F800082002F037FC20461CB010BD4368092B15
:10B9080001D90020704780B592B05B00007803F140
:10B91800010C44F282138DF8280042F2D000C3F2E1
:10B928000023C3F200200391059213F80C3050F85D
:10B938002C00029001A8ADF8263002F01EFA12B0D1
:10B9480080BDC0B341F200000021C5F2350080225D
:10B958000181A0F86020A0F87010A0F87210A0F87B
:10B968007410A0F87610A0F87810A0F87A10A0F853
:10B978007C10A0F87E10A0F88010C186018741874E
:10B9880001864186A0F84610A0F84810A0F84A1091
:10B99800028822F010020280028822F0200202802F
:10B9A800028822F040020280028822F0010202800E
:10B9B800A0F8021134E000200021C5F22500802201
:10B9C8000181A0F86020A0F87010A0F87210A0F80B
:10B9D8007410A0F87610A0F87810A0F87A10A0F8E3
:10B9E8007C10A0F87E10A0F88010C18601874187DE
:10B9F80001864186A0F84610A0F84810A0F84A1021
:10BA0800018821F010010180018821F020010180C6
:10BA1800018821F040010180018821F001010180A5
:10BA28000020704710B543F204010028C5F2200138
:10BA3800086812D0C00412D50120EFF3108480F3F7
:10BA48001088086820F48050086008681E200121CA
:10BA5800FCF777FC84F3108814E0000502D440F268
:10BA6800DD5010BD0120EFF3108480F310880868C2
:10BA780020F40060086008681E200121FCF761FCC2
:10BA880084F31088002010BD10B50446FFF759FF55
:10BA9800012C1CD0002C39D143F20400C5F220003F
:10BAA800016809052FD40168090532D40121EFF393
:10BAB800108481F31088016841F400610160006816
:10BAC8001E200121FCF73DFC84F3108819E043F2A5
:10BAD8000400C5F220000168C90414D40168C9042F
:10BAE80017D40121EFF3108481F31088016841F421
:10BAF8008051016000681E200121FCF722FC84F3BC
:10BB08001088002010BD40F2DC5010BD40F2E25019
:10BB180010BD4FF4BC6010BDB0B5054644F2C4403A
:10BB28000C46C3F200204021FCF75BFB44F25C208A
:10BB38004FF4FF71C3F20020FCF753FB44F2587036
:10BB48000021C3F2002044F23C72C3F200220180BB
:10BB580044F23670C3F200201160018044F238705C
:10BB6800C3F20020018044F22A70C3F20020018051
:10BB780044F22C70C3F20020018044F22470C3F216
:10BB88000020018044F25470C3F20020018044F286
:10BB98007C10C3F20020018044F22E70C3F2002012
:10BBA8004160016044F290403421C3F20020FCF768
:10BBB80018FB44F270702821C3F20020FCF711FB37
:10BBC80044F25C402821C3F20020FCF70AFB4FF046
:10BBD8000A0E43F61050C3F200200C300E2100BFAD
:10BBE80040F82C1B0FF005C044F240701421C3F23A
:10BBF8000020FCF7F6FA43F620402821C3F2002083
:10BC0800FCF7EFFA44F25A4044F22672C3F20020DD
:10BC1800C3F2002200210180118028462146BDE898
:10BC2800B04000F06FB9000080B58CB0038803F015
:10BC38006003402B18BF202B16D1062928D8DFE82F
:10BC480001F034042E044046270092F824108DF8A1
:10BC58000410016840680790069100200590ADF82F
:10BC68000C00932002900DE0932102910168406836
:10BC7800CDE9061092F824008DF804000020059004
:10BC8800ADF80C0001A9072002F06CFA0CB080BDD9
:10BC9800072011460CB0BDE8804000F04FBC1146AB
:10BCA8000CB0BDE8804000F018B844F2247044F2AB
:10BCB8005472C3F20020C3F20022002101801180D7
:10BCC800E4E711460CB0BDE8804000F048B81146E2
:10BCD8000CB0BDE8804000F027B8B0B58CB00C4679
:10BCE80001684068CDE90610002120460025FFF7CD
:10BCF80054FD94F8240005958DF80400ADF80C5017
:10BD08009320029003F0D6F9089001A9082002F0C8
:10BD180029FA44F254702146C3F20020058000201D
:10BD280000F00CFC0CB0B0BD10B58CB00C4601682E
:10BD38004068CDE9061094F8240001A98DF80400A4
:10BD480000200590ADF80C0093200290072002F027
:10BD580009FA0020214600F0F1FB0CB010BD70B5C7
:10BD68008CB00C4601684568CDE9061500212046CF
:10BD78000026FFF712FD44F25C4094F82410C3F249
:10BD880000208DF80410ADF80C600068C0EB154079
:10BD980005909320029003F08DF9089001A90820DE
:10BDA80002F0E0F944F254702146C3F20020068004
:10BDB800002000F0C3FB0CB070BD80B58CB044F21D
:10BDC8007C1190F82400C3F2002101228DF80400B0
:10BDD80003200A8001A902F0C5F90CB080BD44F225
:10BDE8007C11C3F200210A88012A18BF704780B568
:10BDF8008CB090F8240000220A808DF8040001A974
:10BE0800062002F0AFF90CB0BDE880407047000092
:10BE180070B58CB044F27C120D46C3F20022044681
:10BE28001388012B09D194F82410002010808DF874
:10BE3800041001A9062002F095F9C02D0DD144F295
:10BE48009041C3F20021D1E90225284612B107200A
:10BE58005070C86868B102210AE044F29040C3F209
:10BE6800002085680DB102216970C06808B10721FA
:10BE78004170ADB194F824006E8800F03BFB0021BE
:10BE880028463246234600F00DF894F8240001A90C
:10BE98008DF80400012002F065F90CB070BD00BFF8
:10BEA800FEE770472DE9F04F81B00678964222D21E
:10BEB8000446154698464FF0FF094FF0000A4FF028
:10BEC800000B00BFA7197878052805D004280CD1E5
:10BED80097F805B009E000BF5FFA8BF23846414693
:10BEE80001F0D0F9002859EA0A893878304486B236
:10BEF800AE42E7D301E04FF0FF091FFA89F001B025
:10BF0800BDE8F08FF0B5086944F29044C3F200240C
:10BF18004BF61965D0E900C2C1F20025002AD0F815
:10BF280010E0D0E9023153EA0282C4E900C104F109
:10BF380008014BF6C3564BF6E75781E80C4004F16D
:10BF48001401C1F20026C1F2002704F1200CE0C15F
:10BF58004BF6A171007DC1F200214BF685724BF6BC
:10BF6800AB634BF63147C1F20022C1F20023C1F2A4
:10BF7800002784F830008CE88E00F0BD80B58CB0C6
:10BF880090F82410C0698DF80410089001A90520C4
:10BF980002F0E8F80CB080BD80B58CB090F82400B1
:10BFA80001A98DF80400042002F0DCF80CB080BD73
:10BFB80080B582B043F600310190C3F2002100221F
:10BFC8000023086801A902F055FE012805D043F6B0
:10BFD800FC200121C3F20020017002B080BD80B5B1
:10BFE8008CB0D0E90312891A028D059190F82210BD
:10BFF8008DF80610D11E89B290F8242002298DF8F8
:10C0080004204FF08402029206D84FF26452C1F223
:10C01800002232F8111001E040F2DC51ADF80C10AA
:10C02800C069089001A9092002F09CF80CB080BDF5
:10C0380080B58CB090F82210028D8DF8061090F81B
:10C0480024108DF8041084210291511E18BF40F26B
:10C05800DC51ADF80C10C069089001A90A2002F063
:10C0680081F80CB080BD10B504460A20FFF755F8DA
:10C07800204600F035F894F82400BDE81040FDF79C
:10C0880064BB000070B5044690F82400FDF79BFDE2
:10C0980001212046FDF733FD0520FFF73EF8002576
:10C0A80040F257262046FDF7BEFC800708D10B203A
:10C0B800FFF733F82046FDF7B6FC800709D00B35AB
:10C0C8000120FFF72AF8B54205F10105EAD300255A
:10C0D80000E0012501212046FDF7FCF8284670BD47
:10C0E80010B58CB00446FFF7CDFF204600F01EF8CF
:10C0F800A0B1204600F030F80121002851EA019053
:10C1080043F6E441C3F2002194F824208DF804207A
:10C11800088001A90B2002F025F805E043F6E44069
:10C128000021C3F2002001800CB010BDB0B506217B
:10C138000446FDF7E4FC2A20FEF7EFFF2046FDF752
:10C148002EFB054606212046FDF7C4F81620FEF70B
:10C15800E4FFC5F30020B0BDB0B518210446FDF7D3
:10C16800CEFC2A20FEF7D9FF2046FDF718FB05462E
:10C1780018212046FDF7AEF8C5F34020B0BD10B534
:10C18800CA07044604D12046BDE8104000F01EB896
:10C1980000200021224601F04BFE022809D30ED0D0
:10C1A800FF2818BF10BD07202146BDE8104000F049
:10C1B800C5B900212046BDE81040FDF7A1B800210F
:10C1C8002046BDE81040FFF7E8BA00002DE9F04727
:10C1D800824643F6E640C3F2002043F620480C4668
:10C1E800871C4FF00109C3F20028012524FA05F045
:10C1F800C0072DD058F8250050B39AF8240000EB5A
:10C20800800037F82000012822D0AEB250463146CF
:10C21800FFF7F6F8800711D450463146FDF7AAFB20
:10C22800400411D49AF824000121524600EB800002
:10C2380027F82090304600F020FA09E00621304621
:10C24800524600F008FB03E050463146FDF773FC08
:10C2580001350237062DC9D1062500BF24FA05F09D
:10C26800C00715D058F8250090B1AEB250463146F7
:10C27800FFF7C6F8800705D401213046524600F082
:10C28800FCF905E006213046524600F0E4FA00BF0A
:10C2980001350A2DE2D1BDE8F08710B5CA0704467A
:10C2A80004D12046BDE8104000F028B80020002145
:10C2B800224600F0B9FD022806DC0CD200212046F7
:10C2C800BDE81040FDF738B803280CD0FF2818BF88
:10C2D80010BD07200CE002280FD100212046BDE840
:10C2E8001040FFF75ABA00212046FDF71DFC052033
:10C2F8002146BDE8104000F021B910BD2DE9F041FC
:10C3080043F620480C4605460127C3F2002800BF23
:10C3180024FA07F0C00717D0BEB228463146FDF709
:10C3280077F858F8270078B128463146FFF772F8B1
:10C338000021102804D130462A4600F00AF803E00C
:10C3480030462A4600F062FA01370A2FE0D1BDE8EC
:10C35800F08170B5092888BF70BD04460E461046A6
:10C3680021461546FCF7E8FF204631462A4601F0EB
:10C378005FFD022808D3FF2810D0022810D12846D4
:10C388002146FDF7FDFB03E028462146FDF7D3FBD8
:10C3980028462146BDE87040FFF79BB8152100E00C
:10C3A800072120462A46BDE8704000F054BAB0B5CF
:10C3B800044600F01EF800F06CF82046FFF7BEF9BE
:10C3C80044F29045C3F200256B693BB1014643F640
:10C3D800E440C3F200200288204698470021204606
:10C3E800FDF70AFD2868C1792046BDE8B040FDF791
:10C3F80019BD704780B590F82400FDF785FA00F064
:10C40800700030285FEA1F9080BD44F25A40C3F2A2
:10C418000020008840B144F29040C3F200208068B8
:10C42800C079C0F3401070470020704770B50446CB
:10C438002046FDF769FA05460A20FEF76BFE2046FE
:10C44800FDF762FA06460A20FEF764FE2046FDF76D
:10C458005BFA06F0800205F080019142E8D100F015
:10C4680080008242E4D14020002908BF432070BDEB
:10C4780080B54FF0020E44F2C440C3F200202030D1
:10C4880087FF5F0800ED901EA0EC881E0FF007C024
:10C4980080BD80B544F25A4044F22672C3F20020AF
:10C4A800C3F200220021018044F25C201180C3F213
:10C4B80000204FF4FF71FBF794FE80BDF0B581B00A
:10C4C80044F294110446C3F20021012601F10A0541
:10C4D800642700BF94F824007843285A012803D120
:10C4E800B1B22046FEF7C1FE01360A350A2EF1D157
:10C4F80001B0F0BD80B544F294116422C3F200216A
:10C5080010FB02114FF0090E00220A310B88012B93
:10C5180005D101280A6008BF8A80C1F806200A31BF
:10C528000FF00DC044F27E1144F28013C3F20021D3
:10C53800C3F2002300220A541A5480BDB0B5054640
:10C5480044F22470C3F2002044F254720C46C3F241
:10C5580000220021018020461180FCF7D1FE002135
:10C568002046FCF7E9FE00212046FCF717FF94F867
:10C5780024004FF4806200210128204608BF4FF4B0
:10C588000062FDF75FFB25F00200052804D1204674
:10C59800BDE8B04000F017BF082D05D100212046A6
:10C5A800BDE8B040FFF700B994F82400BDE8B040FA
:10C5B800FDF7BDB8B0B5144644F22472C3F20022A8
:10C5C8000123138044F25C4244F27073C3F20022E8
:10C5D800C3F20023106000221960002120232046A6
:10C5E800FEF72AFE00212046FDF79EFA002120468C
:10C5F800FCF70EFF00200021224601F019FC054639
:10C60800022802D0012D04D05DB900212046FDF793
:10C6180092FA00212046FEF75CFF00212046FFF732
:10C62800BCF82846B0BD10B5144644F22472C3F2D3
:10C6380000220123138044F25C4244F27073C3F277
:10C648000022C3F200231060002219600021002399
:10C658002046FEF7F1FD00212046FDF765FA00218E
:10C668002046FDF78DFA00212046FEF732FF002113
:10C678002046BDE81040FFF790B82DE9F0410928A1
:10C6880088BFBDE8F08104460E461046214615468F
:10C69800FFF78AF828462146FCF74EFE2846214631
:10C6A800FCF77CFE28462146FCF72AFE2846214650
:10C6B800FEF753FE43F62047C3F2002757F824003D
:10C6C80018B344F25C410685C3F2002151F82410E6
:10C6D800016128462146FDF74DF957F8243000211D
:10C6E80000224FF0000858855E6818465C84B04701
:10C6F80057F8240001F0A6FE95F8240047F8248096
:10C708002146BDE8F041FEF7E5BFBDE8F081000035
:10C718002DE9F0410446FCF72BFE94F82400FCF7C1
:10C728005EFF44F25A400021C3F2002044F2941202
:10C73800C3F200220127018044F22670C3F20020D0
:10C7480002F10A064FF06408018000BF94F8240043
:10C7580000FB08F0305A012809D1BDB2082128464B
:10C76800224600F078F820462946FEF77EFD01377C
:10C778000A360A2FEAD144F29040C3F20020C36976
:10C788002BB11E2100222046BDE8F0411847BDE824
:10C79800F08110B544F290441421C3F200242046DD
:10C7A800FBF71FFD4CF2CD704CF2CF71C1F20020A7
:10C7B800C1F20021C4E90500E162C4E90700C4E947
:10C7C800090010BD7047704791F8241044F2941284
:10C7D8006423C3F2002211FB0322102101EAD001D5
:10C7E80000F00F0001440C32012000BF32F8023C77
:10C7F800012B04D1138803F01F03994204D00130A0
:10C808000A320A28F2D1FF2080B27047B0B5092851
:10C8180088BFB0BD0546144600F006FB032805D8BE
:10C82800DFE800F002120A0B03210EE0FF2801D115
:10C83800152103E0072101E0B0BD05212846224665
:10C84800BDE8B04000F007B8042128462246BDE8FC
:10C85800B040FFF712BFF0B581B004460E4610464F
:10C8680021461546FEF7A0FF28462146FCF764FD41
:10C8780028462146FCF792FD28462146FCF740FD54
:10C8880028462146FEF769FD00212846FDF720F8D5
:10C8980000F00F00A04205D1002100220023284605
:10C8A800FEF7CAFC28462146FEF762FD28462146C7
:10C8B800FDF795F943F62047C3F2002757F82400FF
:10C8C80020B344F25C410685C3F2002151F82410DC
:10C8D800016128462146FDF74DF857F824305E6877
:10C8E80058852EB1002100221846B04757F8243049
:10C8F800184601F0A7FD95F82400002147F82410F8
:10C90800214601B0BDE8F040FEF7E4BE01B0F0BD3D
:10C9180080B544F29041C3F200218B681A78B3F8CD
:10C9280002E0964511D913444FF0000C59780429B8
:10C9380004D19978884208BF93F803C019780A444B
:10C948000B4492B27245F1D301E04FF0000C1FFA8C
:10C958008CF080BD44F29040C3F200208068C0791A
:10C96800C0F38010704744F29040C3F20020806802
:10C978000079704780B5FDF73FF8C0F3C01080BD5F
:10C9880010B543F6C864C3F20024218831B1FDF71D
:10C99800DCF96420FEF7BEFB0020208010BD2DE9E5
:10C9A800F04F81B041F2300B9246012A8946C5F218
:10C9B800350B00900FD10BF1060C0BF108010BF1B0
:10C9C8000A030BF110020BF116040BF118060BF118
:10C9D8001A005F4610E03027C5F2250707F1060C5C
:10C9E80007F1080107F10A0307F1100207F116041D
:10C9F80007F1180607F11A0015882288B6F800E032
:10CA08000488B7F80080BCF8006008881F88009B7D
:10CA1800B5F5807F4FF000011980A9F800103ED3CA
:10CA280008EA05014B0421D40BB2B3F1FF3F29DD1D
:10CA3800B1F5005F009B35D2CC46B1F5805F40D29E
:10CA480006EA0203CA059BB24CD513F0010649D089
:10CA58003020BAF1010FC5F225005BEA008040F2F0
:10CA6800FE31C18201200099088065E03020BAF1CA
:10CA7800010FC5F225005BEA00806FF48041018256
:10CA880012200AE03020BAF1010FC5F225005BEA56
:10CA9800008047F6FF71018211200099088001B0DB
:10CAA800BDE8F08F3020BAF1010FC5F225005BEA2E
:10CAB80000806FF4804101F5005101821320188035
:10CAC800EDE73020BAF1010FC5F225005BEA0080DE
:10CAD8006FF4804101F54051018214201880ACF8B0
:10CAE8000050DCE707EA04064F05B5B20ED515F08D
:10CAF80001060BD03020BAF1010FC5F225005BEA20
:10CB0800008040F2FE314183022012E000EA0E006C
:10CB18008E0580B213D510F0010410D03020BAF180
:10CB2800010FC5F225005BEA008040F2FE31018367
:10CB38000320009908800120ACF80000AFE7B1F5A8
:10CB4800006F14D2002A36D4002F45D4002E009B43
:10CB5800A5D53021BAF1010FC5F225015BEA0181A3
:10CB680040F2FF3282430A8303211980E4E75046EA
:10CB7800FCF7CAFE3021BAF1010FC5F225015BEAC4
:10CB88000181A9F800006FF4804000F56050088228
:10CB9800152000990880B9F8000000F00700062861
:10CBA8007FF47DAF50460C46FCF742FD0020208004
:10CBB800A9F8000073E73020BAF1010FC5F225008B
:10CBC8005BEA008040F2FF319943C182012000995D
:10CBD8000880ACF8003062E73020BAF1010FC5F2E6
:10CBE80025005BEA008040F2FF31A943418302201F
:10CBF8000099088073E7CA0718BF7047AFF3008031
:10CC08002DE9F04143F620480C4605460127C3F2BA
:10CC1800002800BF24FA07F0C00717D058F82700EB
:10CC2800A0B1BEB228463146FEF702FCB0F5404F2F
:10CC38000CD12846FCF751FE00B20521B0F1FF3FA8
:10CC480030462A46C8BF0721FFF705FE01370A2FDD
:10CC5800E0D1BDE8F081000082B044F2904844F28F
:10CC6800367B44F22E7544F22C7A01ACC3F20028CC
:10CC78004FF00109C3F2002BC3F20025C3F2002ACA
:10CC880005204FF47A722146FEF76AFD08B12FF0AD
:10CC980009C8019E308CA0F251100428F0D8DFE8B2
:10CCA80000F0042F1F032500EAE7708C318D10284F
:10CCB8002ADD11380428E3D8DFE800F004490330FE
:10CCC8003B00DDE796F82400FCF77DFF96F824008A
:10CCD800FFF7ACFB402855D13046FFF7C4F9CFE742
:10CCE800708C08213246FFF7B6FDC9E796F8240094
:10CCF80000F0E3F9019890F8240000F086F9BFE706
:10CD0800304600F064FBBBE701282BD002282DD069
:10CD18000328B5D13046FFF76EFFB1E7C1F3021023
:10CD280009FA00F010F0F00F24D0304600F0D9FFD7
:10CD3800A6E711F0070729D001F00500012818BF60
:10CD4800052F2DD196F8240000F092F928E0D8F8A4
:10CD580024301BB10021002230469847304600F0AD
:10CD68007BF98DE73046FFF798FA89E73046FFF7F9
:10CD780006FA85E710F00D0F7FF482AF3046FFF713
:10CD880016FB7DE73046FFF7C3FC79E744F256709F
:10CD9800C3F200200088012802D1304600F0D6FFF7
:10CDA800BBF8000010F0600F19D044F238712880E9
:10CDB800C3F2002144F22A70C3F20020D8F82C30C4
:10CDC800098869800088BAF80010A880E9800BB942
:10CDD8002FF0ABC0284639463246984750E7DFE87F
:10CDE80007F015190D11091D040407203146FFF736
:10CDF800A5FB45E7304600F01FFF41E7304600F04D
:10CE0800C9FE3DE7304600F0DEFC39E7304600F069
:10CE18000CFB35E7304600F051FB31E7304600F0B7
:10CE2800D5FC2DE7002070472DE9F04F81B0092887
:10CE38000AD804468846154600231046214642462D
:10CE4800FEF704FBFF2801D1FF2657E007462846D6
:10CE580021466FF31F37FEF7BFFA44F25C4AC3F26C
:10CE6800002A5AF82410B94209D228462146FEF76A
:10CE78009BFC5AF824904AF82470032623E0814644
:10CE88000BD124B9B7FBF9F000FB1970C8B12846DB
:10CE98002146FEF789FC002614E00FB1022604E0C3
:10CEA80028462146FEF780FC0126B7FBF9F000FB77
:10CEB800197038B128462146FEF776FC0126B94696
:10CEC80003E00226B94677B14F4644F2707BB8B208
:10CED800C3F2002B41462B465BF8242000F012F8E1
:10CEE8004BF8240003E028464146FCF71DFE1FFAD4
:10CEF80089F05AF82410081A4AF82400304601B07C
:10CF0800BDE8F08F2DE9F0411D4693F82430144612
:10CF18000E468046F3B15FEA980708D028463146A6
:10CF2800FCF7BAFC013F44F8040B3804F6D118F0BA
:10CF3800030025D00138012111FA80F7284631462F
:10CF4800FCF7AAFC47F001E004F8010B000A0FF017
:10CF580005C815E05FEA580709D000BF28463146E2
:10CF6800FCF780FC013F24F8020B3804F6D15FEA95
:10CF7800C87005D028463146FCF774FC04F8010B4C
:10CF88002046BDE8F081092888BF704770B504467F
:10CF980043F62040C3F20020214650F8245028468A
:10CFA8002E69FEF701FC44F25C40A968C3F2002038
:10CFB8000022002340F8246044F27070C3F200207D
:10CFC80040F8241028462146FEF736F9284621461F
:10CFD800FEF702FA5EB1B6FBF0F101FB1060002823
:10CFE80051EA0190214682B22846FEF7F2FB284614
:10CFF8002146FEF7D2FB28462146FCF7C1FD28460C
:10D008002146BDE87040FEF764BAB0B544F2267117
:10D0180044F22875C3F20021C3F200250446FF201C
:10D028000988288001290FD12046FCF7E6FA204616
:10D03800FCF76AFC410408D4400658BFB0BD20463E
:10D04800FCF79FFB00202880B0BDD5202880204613
:10D05800BDE8B040FCF7DFBA10B5044690F82400EC
:10D06800FCF7D9FA94F82400BDE81040FCF7C5BADB
:10D0780010B50446FCF7DCFA2046FCF701FD44F243
:10D088003671C3F2002108802046FCF704FD44F203
:10D098003871C3F2002108802046FCF7DBFC44F21B
:10D0A8002A71C3F2002108802046FCF7DEFC44F216
:10D0B8002C71C3F20021088010BD10B543F6C86476
:10D0C800C3F20024218831B1FCF73FFE6420FEF74B
:10D0D80021F80020208010BD092888BF704770B54E
:10D0E800044643F62040C3F20020214650F824505D
:10D0F80028462E69FEF758FB44F25C40A968C3F243
:10D10800002040F8246044F27070C3F2002040F818
:10D11800241028462146FCF77BF928462146FCF7CF
:10D12800AFF9002120462A46FFF713F92846214681
:10D13800BDE87040FEF731BB80B544F25A41C3F2F6
:10D148000021088044F25C20C3F200204FF4FF71F4
:10D15800FBF747F880BD00002DE9F04744F2904204
:10D16800C3F2002293681F785A88BA4298BFBDE874
:10D17800F08744F2C4483B444FF0000C4FF0200EB7
:10D18800C3F200284FF000094FF0000A3C4600BFE8
:10D198005D78052D0AD0042D1BD19D78A8421BD19E
:10D1A800DD78A94218D193F804C017E01FFA8CF46F
:10D1B8001FFA8AF5A5420CD29C7809EB0A060AF1F7
:10D1C800010AF6B204F00F050EEA9404444424F868
:10D1D80015601D787C1904E01D79A9441D782C443C
:10D1E800E4B2A7B22B449742D2D3BDE8F08700F04F
:10D1F800EAB800002DE9F04144F294110446C3F264
:10D208000021012701F10A064FF0640894F8240070
:10D2180000FB08F0305A01282ED100212046FCF7E7
:10D2280057FBBDB200F00F00A84205D10021002233
:10D2380000232046FEF700F801212046FCF748FBB2
:10D2480000F00F00A84205D100210122002320464A
:10D25800FDF7F2FF02212046FCF73AFB00F00F0031
:10D26800A84205D10021022200232046FDF7E4FF51
:10D2780020462946FEF763F901370A360A2FC5D139
:10D28800BDE8F0812DE9F0414378052B54D1C378EE
:10D2980003F00303032B4FD190F90230B3F1FF3FA2
:10D2A80025DD032A48D111F8243F44F2941264275B
:10D2B800C3F2002244F2801E13FB072244F28217B5
:10D2C800C3F2002EC3F200270EEB030402F13C0662
:10D2D800062207F1080500BF36F80A7B0FB9277840
:10D2E80077B301320A2AF7D14FF4004C22E0032A1F
:10D2F80022D111F8243F44F294126426C3F200228A
:10D3080044F27E1E13FB062244F28215C3F2002E5D
:10D31800C3F2002548F2100C0EEB030402F13C06A0
:10D328000622093536F80A7B0FB9277857B101323A
:10D338000A2AF7D10A220AE00025E8B2BDE8F081FE
:10D348004FF4004C22700B781EF803102970D6B2E7
:10D3580044F2941E6421C3F2002E13FB01E4B100D1
:10D3680051FA82F134F81150012D4FF00005E4D044
:10D37800877806EB860804EB4101808807F00F07E1
:10D3880004EB4804012B4FF0010647EA0C070E8016
:10D398006780E08025810ED16420511E13FB00E0D8
:10D3A800C9B241F60843002700EB4800052938BFF9
:10D3B80003EB011787801546BFE70346022208469C
:10D3C8001946FCF774BC00210222FCF770BCB0B50A
:10D3D800448C0546FFF70EF801280BD143F6204090
:10D3E800C3F2002050F8241051B128462146FEF718
:10D3F80056F918E07CB128462146FEF71FF912E0DD
:10D4080040F8245028462146FEF704F840B120464B
:10D41800FFF762FE07E000212846FEF75FF802E00A
:10D428002046FFF7B0FD0020B0BDF0B581B044F252
:10D4380036716FF0FF02C3F200210446497802EB0F
:10D44800012100224FEA712044F25471C3F20021F5
:10D4580005280A8017D004282DD144F2387644F2E2
:10D468005A45C3F20026C3F2002530882F88FFF7FB
:10D4780063FE3088B8421ED044F29040C3F20020C8
:10D4880083698BB917E044F29040C3F20020836AA5
:10D498008BB144F22A7044F25C21C3F20020C3F23B
:10D4A8000021008801EB400529880022204601B0B0
:10D4B800BDE8F040184701B0F0BD000070B544F277
:10D4C80036710446C3F20021098821F0FF024FEAB1
:10D4D8007222062A00F26B80DFE802F004696938DC
:10D4E800606E690044F23870C3F20020008800289A
:10D4F8005DD144F22C70C3F200200088022856D176
:10D5080047F2981501F01F00C3F2002502284FF0DA
:10D518000001298000F0C180012800F0AE800028B9
:10D5280045D144F22A70C3F20020008800283ED179
:10D53800FFF710FA44F226712870C3F20021098817
:10D54800012940F0CB8040F00200C6E001F01F0046
:10D5580001286FD058BB44F238704FF0FF31C3F246
:10D568000020008801EB1021072920D8C5B2DFE888
:10D5780011F00800BF00FB001E001E000D01D500C1
:10D588001E0044F22A70C3F20020008828430ED1FE
:10D5980044F29040C3F2002001680AE1C80601BFC6
:10D5A80044F23870C3F200200088002828D02046B2
:10D5B800BDE87040FFF707BF01F01F000128F6D152
:10D5C80044F23870C3F2002000880028EFD144F2FA
:10D5D8002C70C3F2002000880128E8D144F22A7098
:10D5E800C3F200200088FE28E1D844F25C21C3F28F
:10D5F800002111F8102047F29611C3F2002116E01D
:10D6080044F22A70C3F2002000880028CFD144F2E7
:10D618002C70C3F2002000880128C8D144F25A4077
:10D6280047F29411C3F20020C3F2002102780120CE
:10D638000A7058E044F22E7044F23872C3F20020A7
:10D64800C3F2002244F22C760180118844F2904201
:10D65800418044F22A71C3F20022C3F20021C3F2CE
:10D668000026D36A098832888180C28023B10021CC
:10D678002246BDE87040184770BD2046FEF7BAFE46
:10D68800012894D144F22A70C3F200200588FFF7DC
:10D698006AF98542BFF48BAF20E044F22A76C3F2E0
:10D6A80000263088000711D02046FEF7A3FE012887
:10D6B8007FF47DAF30882146FFF786F8FF283FF4D6
:10D6C80076AF01462046FDF79BFE03E094F8240060
:10D6D800FCF78FF8800701D50120287047F29811D0
:10D6E8000220C3F200212246BDE87040FEF762BF67
:10D6F80044F22A70C3F20020008828437FF457AF11
:10D708002046FEF71BF844F29041C028C3F20021DE
:10D7180001F1080208BF01F10C021AE02046FFF7E8
:10D7280029F9012801BF44F22A70C3F200200088B9
:10D7380050EA05007FF43BAF2046FDF7FFFF44F2B7
:10D748009041C028C3F2002101F10C0208BF01F189
:10D75800080244F22C701168C3F200204A8800883D
:10D76800824298BF1046BEE744F29040C3F20020C0
:10D7780090F830108D42BFF41AAF006944F22C7251
:10D78800C3F2002250F82510087817E02046FFF76A
:10D79800F1F8012801BF44F22A70C3F20020008882
:10D7A80050EA05007FF403AF44F29040C3F2002032
:10D7B800416844F22C720878C3F20022128882422F
:10D7C80091D210468FE7FFF7FEBD00002DE9F0412A
:10D7D8008CB044F236760446C3F20026318821F034
:10D7E800FF02A2F580724FEA7222052A00F26D81CB
:10D7F800DFE812F00600530035006B018500D00009
:10D8080044F22C70C3F200200088002840F05D81AB
:10D8180001F01F00022800F0FD80012800F055816A
:10D82800002840F0528144F23870C3F2002000888A
:10D83800012840F04A8144F22A70C3F2002000888F
:10D84800002840F04281FEF7E0FD012840F03D81CC
:10D8580044F226700021C3F20020018019E0C806B6
:10D8680040F0338144F22C7044F22A71C3F2002054
:10D87800C3F200210088098880B2084340F025815E
:10D8880044F23870C3F2002000887F2800F21D811E
:10D8980000212046FDF781FF1AE144F22C70C3F203
:10D8A80000200088002840F0108101F01F000228A5
:10D8B80000F0D980012800F00881002840F0058197
:10D8C80044F23870C3F200200088022800F0E28099
:10D8D800012840F0358144F22A70C3F20020008804
:10D8E800002840F0F280FEF790FD012840F0ED801E
:10D8F80044F226700121C3F200200180C8E7C8065F
:10D9080040F0E38044F2904044F23875C3F20020BE
:10D91800C3F2002580682988407900295FEA0F92C0
:10D9280081425FEA0F90024240F0CF8044F22A70B1
:10D93800C3F200200088002840F0C78044F22C7011
:10D94800C3F200200088002840F0BF800021204654
:10D95800FDF723FF2888002800F0BA8044F25A41D6
:10D96800C3F200210988884200F0B280FEF780FDEA
:10D97800FEF7F9FF50B10546002700BFB8B20021F5
:10D98800FFF7EAFB0137B8B2A842F7D32046FEF703
:10D9980095FD3BE02046FEF72DFD012840F09580DF
:10D9A800308800F01F00012840F08F8044F22A756B
:10D9B800C3F200252F88FEF7D6FF874200F2858044
:10D9C80044F22C70C3F20020008800287DD144F274
:10D9D80038782888C3F20028B8F80070FEF798FF56
:10D9E800874272D8288844F25C27C3F2002798F847
:10D9F800001027F8101000212046FDF7CEFEFEF794
:10DA080037FD288837F81010FFF7A6FB2046FFF7E8
:10DA1800F1FB5DE044F23870C3F200200088002872
:10DA280053D144F22A70C3F200200088010700F0A5
:10DA38008B802146FEF7C8FEFF2846D005462046C3
:10DA48002946FDF7DDFC012840F083802046294661
:10DA5800FDF7AAFE20462946FCF755F92046294637
:10DA6800FDF79BFE7DE044F23870C3F20020008889
:10DA780058BB44F22A70C3F20020008801073FF423
:10DA880007AF2146FEF7A0FEFF281ED02146FFF76C
:10DA980094FCFDE62046FDF751FEC02815D144F25E
:10DAA8002A70C3F20020008800F5804109B20029DD
:10DAB8000BD444F2567144F25873C3F20021C3F2F6
:10DAC800002301220A801880E2E62046FFF77BFC4B
