:10000000200400201D120000CD1000001912000075
:100010001912000019120000191200001912000034
:1000200000000000000000000000000019120000A5
:10003000191200000000000019120000191200003F
:080040000C06180B1314201D1F
:100048000348044B834202D0034B03B1184770475F
:10005800080000200800002000000000064B0749A7
:10006800C91A891048BF0131491003D0044B0BB19C
:1000780001481847704700BF08000020080000200A
:100088000000000010B5064C237843B9FFF7D8FFED
:10009800044B13B10448AFF300800123237010BD53
:1000A800380400200000000084A2000108B5054BB8
:1000B8001BB105490548AFF30080BDE80840FFF7CC
:1000C800CDBF00BF000000003C04002084A2000156
:1000D8002DE9F0410446D0E902854068A8EB050700
:1000E80097422844154408D80E463A46A5EB080519
:1000F80001F032F92A466068F11901F02DF9BFF3D1
:100108005F8FE560BDE8F0812DE9F8434FF0000905
:10011800064688461746D0E902243369151B9C42D7
:1001280003F1FF3125BF03F1FF339B180B1B1B1B8A
:10013800BD4228BF3D469D4228BF1D4670684146C6
:100148002A46204401F008F9B2682C44A24208BFAC
:100158000024A944A8447F1BBFF35F8FF460002FDD
:10016800DBD14846BDE8F883F8B5164CA822002133
:10017800204601F0E9F84FF400660023032110201F
:10018800114A124F124D21616161A261E761266235
:10019800A3626362E36222666566A0662367E3661C
:1001A8006367BFF35F8F0B4B9C46A3F11000ACEB6A
:1001B800030213F9011D8342A154F8D1BFF35F8FE5
:1001C800F8BD00BF640C00207C130000640400200C
:1001D800540400205419000038B5214B00EB4004AA
:1001E80003EBC40EDEF82C40013000EB4000012C7C
:1001F8008C46154603EBC00015D0022C0FD034BB3B
:10020800DEF82830DEF8242093429CBFDEF8201068
:100218005B18013B9A1A95421CD9204638BDBDE8A7
:100228003840FFF771BFDEF82830DEF82440A342DB
:100238009CBFDEF820105B18013B1C1B944228BFB2
:10024800144661462246FFF743FF204638BD002486
:10025800204638BD2A466146FFF73AFF2C46DCE7C0
:10026800640C0020F8B50B4B04461B780D46532B45
:10027800164601D0FFF778FFEFF311874FF0200102
:1002880081F31188324629462046FFF7A5FF87F3F8
:100298001188F8BD640C002010B50446D0E901327D
:1002A800501C984207D8236899540246E16863684D
:1002B8000131C4E902019A4200D010BD21682069C9
:1002C800FFF7D0FFA368984215BF4FF0FF33002314
:1002D800E360A36010BD00BF2DE9F84F91420F46BF
:1002E800DDE90A94154683461E4668D30B464FF04F
:1002F8000108B3FBF5F39D4208F10108F9D9B045AF
:1003080038BFB04614F0010A02D1B9F1000F3DD14F
:10031800DBF80C30002B29DB012402E005FB04F498
:10032800013E012EFAD8B7FBF4F39D4205D805FB30
:1003380004F4B7FBF4F39D42F9D9224E06E0AC422F
:10034800B4FBF5F30CD31C46B7FBF3F3F156584650
:1003580004FB1377FFF7A0FFDBF80C30002BEEDA75
:10036800BAF1000F02D0B9F1000F09D1BDE8F88F3A
:1003780020215846FFF790FFDBF80C30002BF5DB07
:10038800C14509F1FF39F3D8BDE8F88FA30711D4A7
:1003980020240CE021465846FFF77EFFDBF80C309E
:1003A80009F1FF39002BE1DBB9F1000FB2D0C145EB
:1003B800F0D8ADE7002E0CBF30242024F7E74FF02B
:1003C80001089CE7581900002DE9F04F002340244C
:1003D8009BB00DF12809CDE9049480460C461746D8
:1003E800CDE90633089006E004A8FFF755FF079B00
:1003F800002BC0F2AE8014F9011B002900F0A18087
:100408002529F1D10026234613F9011BA1F1230266
:100418000D2A08D8DFE802F0800707070707070753
:100428007C0784070778A1F13002D2B2092A4FF07D
:10043800000501D90EE0013305EB850501EB450503
:1004480093F900101C46A1F13002D2B2092AA5F195
:100458003005F0D92E2900F080800022924694F9C8
:10046800001021F00403682B04F101045CD0252955
:10047800BAD05839CBB2202BB9D82029B7D801A384
:1004880053F821F0B1050000F7030000F70300005E
:10049800F7030000F7030000F7030000F70300006C
:1004A800F7030000F7030000F7030000F70300005C
:1004B800CD05000055060000F7030000F703000013
:1004C800F7030000F7030000F7030000F70300003C
:1004D800F7030000F7030000F7030000F70300002C
:1004E800F703000037060000F7030000F7030000D9
:1004F800FB050000F7030000E1050000F70300001A
:10050800F7030000B10500001C4646F002067AE732
:100518001C4646F0040676E71C4646F0080672E7D5
:100528001C4646F001066EE714F9011B21F004038E
:10053800682B9CD114F9011B21F00403682B96D178
:10054800F2E7079B002B04DD069C002C40F0B280EC
:10055800234418461BB0BDE8F08F94F901102A29EE
:1005680009D13B684FF0010A1A1D3A6094F902104C
:100578001A68023475E7A1F13003DBB2092B4FF09A
:10058800000204F1010400F2E18002EB820201EBB7
:10059800420214F9011F303AA1F13003DBB2092BF2
:1005A800F3D94FF0010A5CE7134610223968081D99
:1005B800386009680DEB0200CDE90056FFF78CFEA4
:1005C800079B15E73B6804A81A1D3A6093F90010C9
:1005D800FFF762FE079B0BE739681346081D386072
:1005E80009680A22CDE9005604A8FFF775FE079BA3
:1005F800FEE63B68191D39601D68002D00F08D80EE
:100608000132AE1815F9011B00293FF4F0AEBAF11A
:10061800000F02D0B5423FF4EAAE04A8FFF73CFE53
:10062800079B002BEEDA18461BB0BDE8F08F0823B5
:100638000020102239680D1D3D600968CDE90030A1
:100648000DEB0200FFF748FE079BD1E63B684FF031
:10065800010A191D3960D3F800B08BEAEB73A3EBDC
:10066800EB73092B09DD4A481946A0FB03C363292C
:100678000AF1010A4FEAD303F6DC924538BF9246E5
:100688000DBB079900250B460029FFF662AFBBF1A9
:10069800000F46DB730752D406F00303022B57D032
:1006A800134659460A22CDE9005604A8FFF714FE5E
:1006B800079B9DE62246494640460393FFF7D2FD35
:1006C800039B234445E7BBF1000F06F002031BDB45
:1006D800710719D4002B53D09AB1F3070FD510E046
:1006E800202104A80392FFF7D7FD0799039A002950
:1006F8000B4605F1FF35FFF62CAF002DC4D0AA45F7
:10070800EED307990B46BFE7013D0BB1002AF8D09D
:10071800F107F6D4002DF2D1B3E74FF0000A1D4DD2
:100728006EE72D2104A80392FFF7B6FD039ACBF1DB
:10073800000B079900290B46FFF60BAFACE72B21FE
:1007480004A80392FFF7A8FD039AF2E7924688E609
:10075800002AA5D1002DA3D0554517D9302104A8CA
:100768000392FFF799FD0799013D00290B46FFF613
:10077800F0AE039A002DEFD10029FFF6EAAE8FE71D
:10078800F007BCD5079B002B8ADAE2E60B46F3E7B5
:10079800CDCCCCCC881300000EB400B582B003AB2E
:1007A80053F8041B01AA0193FFF70EFE02B05DF88F
:1007B80004EB03B0704700BF2DE9F0470025DFF8D0
:1007C8007080164E164F08F101095FFA85FCBCF1DE
:1007D800020C18BF4FF0010C012306EB4C023846FF
:1007E80018F815100CFA03F400F0A6F9621C32444C
:1007F80058B919F815100123384600F09DF901354C
:1008080018B9032DE1D1BDE8F0870020BDE8F04715
:10081800044B054A0549FFF7BFBF00BFB8190000E0
:10082800140D00209013000078190000B813000080
:10083800000000202DE9F04F002585B003A803959E
:1008480000F008FC9DF80D009DF80E30964ACDE9A1
:10085800003096499DF80F302846FFF79DFF9449D0
:100868002846FFF799FF9349934800F0A9F9002813
:1008780040F009814FF47A71052000F0F7FB8E48AB
:1008880000F080F90446002840F0C08001468A48FC
:1008980000F08AF90446002840F0FD8000208749CE
:1008A800FFF77AFF40F2DE35DFF85892DFF858821A
:1008B800DFF858A2DFF858B2AAFB05364FF47A736E
:1008C800B60903FB1656ABFB0636760919F816204F
:1008D80098F80410D3437848DBB200F045F9044691
:1008E800002840F0BD8009EB4606727898F805109C
:1008F800D3437148DBB200F037F90446002840F0D2
:10090800AF806423ABFB05277F0903FB17576C4EA9
:1009180098F80210A6FB0737FF0819F81720664851
:10092800D343DBB200F020F90446002840F08F8062
:1009380009EB47077A7898F80310D3435E48DBB28F
:1009480000F012F90446002840F08180A6FB053625
:10095800F60806EB8606A5EB460619F8162098F861
:100968000010D3435448DBB200F0FEF804460028D8
:1009780064D109EB4606727898F80110D3434E48C3
:10098800DBB200F0F1F80446002857D14FF47A7131
:10099800142000F06BFB42F2247315359D426FD092
:1009A800AAFB0536B60919F8162098F80610D3439D
:1009B8004148DBB200F0D8F8044668B909EB4606AE
:1009C800727898F80710D3433B48DBB200F0CCF8B4
:1009D800044600283FF470AF3A4B3B4A3B4900209D
:1009E800FFF7DAFEFFF7E8FE0020394B394A3749AE
:1009F800FFF7D2FE304800F043F9002839D12246EB
:100A080035490020FFF7C8FE00BEBFE7334B284634
:100A1800334A2E49FFF7C0FE274800F031F9002875
:100A28003BD1304B2B4A29490020FFF7B5FE22461F
:100A380029490020FFF7B0FE00BE2FE72A4B224AC3
:100A480022490020FFF7A8FEFFF7B6FECCE7274BA8
:100A58001D4A1E490020FFF79FFEFFF7ADFEC3E7C2
:100A6800234B194A19490020FFF796FEFFF7A4FE09
:100A7800BAE7204B204A15490020FFF78DFEBEE754
:100A880005B0BDE8F08F04461C4B2846144A0F49B0
:100A9800FFF782FEC5E71A4BB9E72846154B164AF9
:100AA8000A49FFF779FEBCE7D4130000D813000009
:100AB800B0150000D0190000140D0020081800001F
:100AC800CDCCCCCC281800008C190000B81300003D
:100AD80018190000AC190000E817000044170000BE
:100AE800A0190000C0170000DC180000A4180000BE
:100AF800681800006C170000681900002017000033
:100B080090170000BC19000000000020D34D6210AF
:100B18001F85EB51022800D070470249024800F0B7
:100B280081B900BFD81900000C0D002008B5FFF7E7
:100B380081FE002008BD00BF8BB1084670B5094E84
:100B48008D1A12F8014B06EB000E5019C0B2A0EB3B
:100B5800010C9C458EF80041F3DB002070BD00209D
:100B6800704700BF00400D4001F1402101F55021C0
:100B780091F800C100202CEA030C42EA0C0281F82B
:100B88000021704743685B7923B1064A537843F0E4
:100B980020035370034A0020537843F0C003537076
:100BA800704700BF00400D40044A0020537803F00E
:100BB800E70343EAC103DBB25370704700400D40BE
:100BC80070B506460C4682B0EFF31080012282F31E
:100BD8001088274B996821F0100199609B6880F371
:100BE8001088E379234DDB0143F00403DBB2EB709B
:100BF800237961795B0103EB8113A17800200B4411
:100C0800E17803EB8103DBB22B706A7000F0D6FA4F
:100C18000020194B83F850006278AA70227883F874
:100C2800502093F8502093F8502042F080028DF81D
:100C380007209DF80720D2B283F8502000F08EFAE2
:100C48006379012B0AD00422EB7862F30403EB707A
:100C580000200A4BC6E9003402B070BDEA78A379D7
:100C680002F0800204331343DBB2EB70F0E700BFFD
:100C78000040084000400D4000E0014044434C5310
:100C880010B5174B04465A78002002F03F025A70FC
:100C98005A7822F020025A701A7822F0C0021A708C
:100CA800DA7822F08002DA7000F088FA0D4A002023
:100CB80092F8503023F0800382F8503000F04EFA5A
:100CC800EFF31081012383F31088074B9A6842F0F1
:100CD80010029A609B6881F310880020206010BD84
:100CE80000400D4000E00140004008402DE9F84375
:100CF8000388BBB107464FF00008DFF8789000245E
:100D08001B4D4FEAC8067B6835F8022B991989886C
:100D1800914209D00134032CF5D13B8808F1010830
:100D28004345ECD8BDE8F8839B5904F1200203F051
:100D3800B853B3F1807F19F812300CD0DB09E9D031
:100D480019F81230012123F08003C82009F8123065
:100D580000F08CF9DEE7DB09DCD119F8123001214B
:100D680043F08003C82009F8123000F07FF9D1E77A
:100D7800FC1B000000300840F8B50646FFF7B6FF38
:100D8800EFF31082012383F31088234F3B681BB9CC
:100D98002249CB704023CB703B6801333B6082F320
:100DA8001088338823B300211D4D08E01B0113442C
:100DB80045F82340328801318BB29A4218D97368BA
:100DC80053F8314003EBC1029288E0034FEA122343
:100DD800D2B2EBD502EB031055F820E024F4803CA6
:100DE8002EF4803E45F820E01B0145F820C0DEE7E0
:100DF800EFF31082012383F310883B6813B13B683B
:100E0800013B3B603B681BB980200449CB70C8702C
:100E180082F31088F8BD00BF600D002000FD01407E
:100E280000F8014008B5034B03600846FFF7A4FF2C
:100E3800002008BD54524F50064B074993F826002E
:100E48001A6A51F82030C2F302620449D3400B6099
:100E5800704700BF00E00140200400206C0D002016
:100E6800704700BF144B93F8C524D20600D47047CE
:100E780010B593F8802442B993F881349B0704D1C4
:100E88004FF4FA70FFF7ECFF10BD0B4C94F8803468
:100E980033B10022084B83F8812483F8802410BDE5
:100EA8000121C82084F8801400F0E0F894F8803418
:100EB800012BFBD1EDE700BF00E001402DE9F04137
:100EC80001234AF203584FF400424FF0080E4FF046
:100ED800090C384D384C394939483A4F6860E86050
:100EE800394EA4F8FE838B600B6087F8C83F374BF8
:100EF8002E60AA602A616B6194F82630226A55F840
:100F08002330C2F30262324ED340336084F813E4D4
:100F180084F8A2C0FFF7A6FF94F8A0308BB194F82C
:100F28003630002B3DD0244A92F8A030D806C3F3BF
:100F38000011F9D4204882F8A01090F8A030D90602
:100F4800FBD400231C4981F8323091F83C301A0751
:100F5800FBD54FF498500023174A088581F82A30AA
:100F680092F83C309B06FBD505234FF0020E4FF05C
:100F7800010C4FF425401749174C82F831E084F8EA
:100F8800C4C0116282F8263092F82630116A55F8EA
:100F98002330C1F30261CB403360A2F8FE03BDE801
:100FA800F08194F83C30DF07BDD494F83C30DF077B
:100FB800F7D5B8E72004002000E0014000700040A9
:100FC80000127A0000F07E40006CDC0200B4C40419
:100FD8006C0D00201001001000FF7E4038B51B4B3F
:100FE80093F8C534DA0600D438BD0025184C012121
:100FF800C82084F8285000F039F884F8245094F870
:101008002430002BFBD194F82430114943F002031B
:1010180084F8243091F82430C3F340009B07F9D4B6
:101028000B4A81F8220092F8223003F0FF01002BCE
:10103800F9D192F84030064861F3C71382F840307E
:1010480090F84030DB09FBD138BD00BF00E001401B
:101058000030084003464FF0C06200201A60704715
:10106800A0F101000028FBD1704700BF4FF47A734C
:1010780010B400FB01F1114C114A2468B2FBF4F2E0
:10108800A1FB03043CB9B0FBF2F0800860B15DF845
:10109800044BFFF7E5BF9200B1FBF2F1A1FB03138C
:1010A8002BB908460028F2D15DF8044B70474FF081
:1010B800FF3C5DF8044B6046FFF7D2BF6C0D002083
:1010C80000CA9A3B70B500240B4B0C4EB3F8202194
:1010D800B3F84051ADB2154025FA04F3DB0704D547
:1010E80056F82430E0B203B198470134102CF3D1FC
:1010F800014BA3F8305170BD00600040200D002066
:1011080010B5032082B000F059F84FF0FF326FF0AD
:10111800FF010E480E4B04889964CDE900221CB1EA
:101128006FF001031A46009309490A4B0A67C3F88E
:101138008022019A03204A67C3F8842200F00EF83F
:1011480014B1054BC3F8004302B010BD6C1C00007D
:101158000080004000E100E000600040EFF31081F3
:10116800012383F31088124B33F8102092B22AB16E
:1011780033F81020013A92B223F8102033F81030D7
:101188009BB293B910B40B4A0B4CB2F8FE3334F847
:1011980010009BB243F4254323EA0003A2F8FE3370
:1011A80081F310885DF8044B704781F3108870470D
:1011B800640D002000E00140701C000030B4EFF323
:1011C8001081012383F310880E4A32F810309BB245
:1011D8006BB90D4C0D4DB4F8FE3335F810C09BB209
:1011E80043EA0C0343F425439BB2A4F8FE3332F8D8
:1011F800103001339BB222F8103081F3108830BCD4
:10120800704700BF640D002000E00140701C000022
:1012180000BE704708B500F035F8FFF787FCFEE719
:10122800F8B5174F05463E68A6B17C6806EB46063A
:1012380004EB860602E00C34B4420BD0637AAB426E
:10124800F9D1D4E900020021121A0C3400F07CF81C
:10125800B442F3D1BE6896B1FC6804EB061602E00E
:101268001034A6420BD0637BAB42F9D1D4E900021B
:10127800A168121A103400F06FF8A642F3D1F8BD35
:10128800041C00004FF47001274B284A70B5002059
:10129800C3F888109A60FFF73DFCFFF70FFE0120A6
:1012A800FFF738FC224B83F30A880020FFF7B8FFCA
:1012B800FFF7C2FDFFF792FE0320FFF77FFF002331
:1012C8004FF6FF701B4903F108020133092B21F87F
:1012D8001200F8D100240320FFF740FF0320FFF796
:1012E8006DFF154B03205C609C60DC601C61FFF7A0
:1012F80035FF0220FFF70EFC0120FFF791FF0F4D8D
:101308000F4B5B1BA3424FEAA30605DD55F8043BD0
:1013180001349847A642F9DCFFF7F2FEBDE87040B9
:10132800002000F00FB800BF00ED00E00000000052
:101338002000002000FD014000000E40D01C0000ED
:10134800D41C0000704700BF02440346934200D1FA
:10135800704703F8011BF9E70A44431E914200D184
:10136800704710B511F8014B914203F8014FF9D1BC
:1013780010BD00005465726D696E616C000000005C
:10138800284E554C4C2900000D0A202A2A20525F6D
:10139800534C4344435F5772697465204150492058
:1013A8004641494C4544202A2A200D0A00000000E5
:1013B8005B4552525D20496E2046756E6374696FB5
:1013C8006E3A20257328292C20257300312E3000F1
:1013D8000D0A2A2A2A2A2A2A2A2A2A2A2A2A2A2AA2
:1013E8002A2A2A2A2A2A2A2A2A2A2A2A2A2A2A2A55
:1013F8002A2A2A2A2A2A2A2A2A2A2A2A2A2A2A2A45
:101408002A2A2A2A2A2A2A2A2A2A2A2A2A2A2A2A34
:101418002A2A2A2A0D0A2A20202052656E6573611D
:101428007320465350204578616D706C652050726A
:101438006F6A65637420666F7220725F736C636491
:1014480063204D6F64756C652020202020202020AB
:10145800202020202020202A0D0A2A20202045781C
:10146800616D706C652050726F6A65637420566593
:101478007273696F6E202573202020202020202081
:101488002020202020202020202020202020202054
:10149800202020202020202020202A0D0A2A202059
:1014A80020466C657820536F6674776172652050AA
:1014B80061636B2056657273696F6E202025642EF8
:1014C80025642E2564202020202020202020202074
:1014D8002020202020202020202020202020202004
:1014E800202A0D0A2A2A2A2A2A2A2A2A2A2A2A2A9B
:1014F8002A2A2A2A2A2A2A2A2A2A2A2A2A2A2A2A44
:101508002A2A2A2A2A2A2A2A2A2A2A2A2A2A2A2A33
:101518002A2A2A2A2A2A2A2A2A2A2A2A2A2A2A2A23
:101528002A2A2A2A2A2A0D0A526566657220746FA9
:1015380020726561646D652E7478742066696C65C7
:1015480020666F72206D6F72652064657461696CC6
:1015580073206F6E204578616D706C652050726FD6
:101568006A65637420616E640D0A46535020557392
:1015780065722773204D616E75616C20666F7220ED
:101588006D6F726520696E666F726D6174696F6EDA
:101598002061626F757420725F736C63646320648A
:1015A80072697665720D0A000D0A546869732065C0
:1015B80078616D706C652070726F6A656374206401
:1015C800656D6F6E737472617465732074686520DD
:1015D8007479706963616C20757365206F66207417
:1015E800686520534C4344432048414C206D6F6448
:1015F800756C6520415049732E0D0A54686520703A
:10160800726F6A65637420646973706C61797320A2
:101618006469676974732066726F6D203939302088
:10162800746F2039393939206F6E205365676D65BD
:101638006E74204C4344207769746820696E637225
:10164800656D656E74206F662032312E0D0A49660D
:1016580020616E206572726F72206F63637572739A
:1016680020696E20746865206F7065726174696F97
:101678006E2C207468652070726F6A6563742064CC
:101688006973706C617973202745727227206F6EB9
:1016980020746865204C43442073637265656E202E
:1016A800616E640D0A52545420566965776572203C
:1016B80077696C6C207072696E7420746865206537
:1016C80072726F722E20526566657220526561646F
:1016D8006D652E7478742066696C6520746F206B54
:1016E8006E6F772064657461696C732061626F75D1
:1016F80074207468652072657175697265640D0A75
:1017080065787465726E616C20636F6E6E65637464
:10171800696F6E730D0A00000D0A202A2A20525F95
:10172800534C4344435F4F70656E204150492046F7
:1017380041494C4544202A2A200D0A000D0A202A36
:101748002A20525F534C4344435F537461727420A0
:10175800415049204641494C4544202A2A200D0A37
:10176800000000000D0A2A2A20525F534C434443CC
:101778005F436C6F736520415049204641494C4591
:1017880044202A2A200D0A000D0A202A2A20525F06
:10179800534C4344435F536574446973706C617977
:1017A8004172656120415049204641494C454420D9
:1017B8002A2A200D0A0000000D0A202A2A20534C4C
:1017C80043444320494E495449414C495A4154499C
:1017D8004F4E204641494C4544202A2A200D0A00F4
:1017E8000D0A52657475726E6564204572726F7267
:1017F80020436F64653A203078257820200D0A0050
:101808000D0A4C434420696E697469616C697A6594
:101818006420616E642073746172746564000000F2
:101828000D0A202A2A20525F534C4344435F4D6FD0
:101838006469667920415049204641494C45442015
:101848004154205448452054484F5553414E445321
:1018580020504C414345202A2A200D0A0000000050
:101868000D0A202A2A20525F534C4344435F4D6F90
:101878006469667920415049204641494C454420D5
:101888004154205448452048554E4452454453201D
:10189800504C414345202A2A200D0A000D0A202ACF
:1018A8002A20525F534C4344435F4D6F6469667905
:1018B80020415049204641494C4544204154205438
:1018C80048452054454E5320504C414345202A2A30
:1018D800200D0A000D0A202A2A20525F534C434447
:1018E800435F4D6F646966792041504920464149FC
:1018F8004C45442041542054484520554E495453A2
:1019080020504C414345202A2A200D0A000000009F
:101918000D0A202A2A2053455454494E472053453E
:10192800474D454E54204449474954532046414960
:101938004C4544202A2A200D0A000000000000001F
:1019480000005454522052454747455300000000B8
:1019580030313233343536373839414243444546DD
:101968006465696E69745F736C636463000000008A
:101978007365745F6572725F7365676D656E7473A6
:10198800000000007365745F7365676D656E74733E
:101998005F64696769747300736C63645F696E6917
:1019A8007400000068616C5F656E747279000000F5
:1019B8000E0906000A0F0006060D040F0C060C0B94
:1019C8000E0B000E0E0F0C0F00070103000116008E
:1019D80043000000E419000000000000008000003F
:1019E80000000000008000000100000000800000EE
:1019F80002000000008000000300000000800000DA
:101A080004000000000001000A00000000000100BE
:101A18000B0000000000010D000100000000010D96
:101A2800010100000000010D040100000000000099
:101A3800050100000000010D060100000000010D75
:101A48000701000000000100080100000000010D6E
:101A58000D0100000000010D0F0100000040000012
:101A68000002000000000100010200000000010D5A
:101A7800040200000000010D050200000000010D35
:101A8800080200000000010D090200000000010D1D
:101A98000A0200000000010D0B0200000000010016
:101AA8000C020000000001000D020000000001000F
:101AB8000E020000000001000F02000000000100FB
:101AC800000300000000010D010300000000010DEB
:101AD800020300000000010D030300000000010DD7
:101AE800040300000000010D050300000000010DC3
:101AF800060300000000010D070300000000010DAF
:101B0800000400000000010D020400000000010DA7
:101B18000304000004000000040400000000010D9C
:101B28000504000004000000070400000000010D87
:101B3800080400000000010D090400000000010D68
:101B48000A0400000000010D0B0400000000010D54
:101B58000C0400000000010D0D0400000000010D40
:101B68000E0400000000010D0F040000000000003A
:101B78000605000000000000070500000000000046
:101B88000805000000000000090500000000000032
:101B98000A050000000000000B050000000000001E
:101BA8000C050000000000000D0500000000010DFC
:101BB800000600000000010D010600000000010DF4
:101BC800020600000000010D080600000000010DDB
:101BD80009060000040000000A06000000000000DA
:101BE800080700000000010D0E0800000000010DAC
:101BF8000F080000020403040404000002000000AF
:101C0800541C000003000000241C00000100000018
:101C18001C1C0000200000202000002000000020E4
:101C2800000000200000006000010C0300000020FC
:101C3800000000200000000800000203000000204F
:101C480008000020400000000000010308000020F8
:101C5800200000200000000338040020700D002040
:101C6800000000030000000001000200080010004E
:101C78004275696C7420776974682052656E657363
:101C8800617320416476616E63656420466C657893
:101C980069626C6520536F66747761726520506164
:101CA800636B6167652076657273696F6E20362E87
:101CB800302E3000362E302E300000000000000696
:041CC800F8B500BFAC
:041CCC00F8B500BFA8
:041CD000B50000005B
:041CD4008D0000007F
:020000040100F9
:04A10000FFFFFFFF5F
:04A20000FEF1FFFF6D
:04A28000F8F0FFFFF4
:040000030000121DCA
:00000001FF
