:10000000E80D00200D160000F11400000916000094
:100010000916000009160000091600000916000064
:1000200000000000000000000000000009160000B1
:100030000916000000000000091600000916000063
:10004000D9110000000000000000000000000000C6
:1000500000000000000000000000000000000000A0
:100060000000000000000000000000000000000090
:100070000000000000000000000000000000000080
:100080000000000000000000000000000000000070
:10040000FFFFFFFFDF8EFFFFFCFFFF00FFFFFF008E
:10041000FCFFFF00FFFFFF00FCFFFF00FFFFFF00EE
:10042000FCFF0F20FFFF0F20FCFF7F40FFFF7F40FE
:10043000FCFF0D40FFFF0D40FFFFFFFFFFFFFFFF31
:10044000FFFFFFFFFFFFFFFFFFFFFFFFFFFFFFFFBC
:10045000FFFFFFFFFFFFFFFFFFFFFFFFFFFFFFFFAC
:10046000FFFFFFFFFFFFFFFFFFFFFFFFFFFFFFFF9C
:10047000FFFFFFFFFFFFFFFFFFFFFFFFFFFFFFFF8C
:10048000FFFFFFFFFFFFFFFFFFFFFFFFFFFFFFFF7C
:10049000FFFFFFFFFFFFFFFFFFFFFFFFFFFFFFFF6C
:1004A000FFFFFFFFFFFFFFFFFFFFFFFFFFFFFFFF5C
:1004B000FFFFFFFFFFFFFFFFFFFFFFFFFFFFFFFF4C
:1004C000FFFFFFFFFFFFFFFFFFFFFFFFFFFFFFFF3C
:1004D000FFFFFFFFFFFFFFFFFFFFFFFFFFFFFFFF2C
:1004E000FFFFFFFFFFFFFFFFFFFFFFFFFFFFFFFF1C
:1004F000FFFFFFFFFFFFFFFFFFFFFFFFFFFFFFFF0C
:100500000348044B834202D0034B03B118477047A2
:100510000800002008000020000000000548064BED
:100520001B1AD90F01EBA301491002D0034B03B1F1
:100530001847704708000020080000200000000055
:1005400010B5064C237843B9FFF7DAFF044B13B11B
:100550000448AFF300800123237010BD2000002069
:1005600000000000A01E000008B5054B1BB10549A6
:100570000548AFF30080BDE80840FFF7CFBF00BFDC
:100580000000000024000020A01E0000F8B5D0E903
:1005900002E50446AEEB050740689742284415443F
:1005A00008D83A460E46A5EB0E0501F0EBF8606858
:1005B0002A46F11901F0E6F8BFF35F8FE560F8BD58
:1005C0002DE9F8430646D0E90204894617464FF064
:1005D000000833699C4203F1FF3228BF03F1FF3367
:1005E000A0EB04052ABF1B18131B1B1BBD4228BF11
:1005F0003D469D42706828BF1D46494620442A4614
:1006000001F0C0F8B0682C44A844A9447F1BA04264
:1006100008BF0024BFF35F8FF460002FD9D140469C
:10062000BDE8F88310B5154CA8220021204601F042
:10063000A1F803212161124A61611248A2614FF4BD
:100640008061E061002321620F48A3621021636290
:10065000E36222666066A1662367E3666367BFF3B1
:100660005F8F0A4BA3F1100C1846C21A13F9011D33
:10067000A1546345F9D1BFF35F8F10BD4C04002036
:10068000081800004C0000203C0000202418000046
:1006900038B5204B00EB400403EBC40E0130DEF80C
:1006A0002C4000EB4000012C8C46154603EBC000AB
:1006B00005D0022C2AD0B4B10024204638BDDEF883
:1006C0002830DEF82440A3429CBFDEF820105B18DF
:1006D000013B1C1B944228BF144622466146FFF78B
:1006E00055FF204638BDDEF82830DEF8242093423E
:1006F0009CBFDEF820105B18013B9A1A9542DCD8AB
:100700002A466146FFF742FF2C46D6E7BDE838404F
:10071000FFF756BF4C040020F8B50B4B1B78532B4A
:1007200004460D46164601D0FFF77CFFEFF3118714
:100730004FF0200181F31188324629462046FFF709
:10074000A7FF87F31188F8BD4C040020D0E90123EE
:1007500010B50446581C904207D82268D154E3686B
:100760006268A0600133E36003469A4200D010BD86
:1007700021682069FFF7D0FFA368984215BF4FF0AA
:10078000FF330023E360A36010BD00BF2DE9F84FE5
:100790001546A942DDF828900B9A0F4683461E465F
:1007A00063D30B464FF00108B3FBF5F39D4208F10C
:1007B0000108F9D9B04538BFB04612F0010A02D19C
:1007C000B9F1000F38D1DBF80C30002B23DB01240A
:1007D00002E0013E05FB04F4012EFAD8B7FBF4F366
:1007E0009D42F7D9224E06E0AC42B4FBF5F30CD3A0
:1007F0001C46B7FBF3F3F156584604FB1377FFF79B
:10080000A5FFDBF80C30002BEEDABAF1000F02D0B6
:10081000B9F1000F07D1BDE8F88FFFF797FFDBF8BC
:100820000C30002BF7DBC1454FF02001584609F191
:10083000FF39F2D8BDE8F88F930711D420240AE0DD
:10084000FFF784FFDBF80C30002B09F1FF39E2DB06
:10085000B9F1000FB9D0C84521465846F0D3B2E7E8
:10086000002E14BF20243024F5E74FF00108A1E743
:10087000281800002DE9F04F9BB040230DF1280A05
:1008800005930023CDE9073081460C461746CDF885
:1008900010A0069306E004A8FFF758FF079B002B63
:1008A000C0F2AD8014F9011B002900F0A0802529B9
:1008B000F1D10026234613F9012BA2F123010D29C2
:1008C00008D8DFE801F07F070707070707077B075E
:1008D00083070777A2F13001C9B209294FF000055B
:1008E0000FD805EB850502EB450593F90020A2F131
:1008F0003001C9B209291C46A5F1300503F10103F5
:10090000EFD92E2A00F0FB8094F900104FF0000B75
:1009100021F0040068281C465CD02529BBD058393A
:10092000CBB2202BBAD82029B8D801A353F821F094
:10093000070A00009D0800009D0800009D080000B7
:100940009D0800009D0800009D0800009D08000013
:100950009D0800009D0800009D080000EB0A0000B3
:10096000810A00009D0800009D0800009D0800000D
:100970009D0800009D0800009D0800009D080000E3
:100980009D0800009D0800009D0800009D080000D3
:10099000630A00009D0800009D0800003D0A000059
:1009A0009D080000230A00009D0800009D0800002B
:1009B000070A000046F002061C467BE746F00406E4
:1009C0001C4677E746F008061C4673E746F001062A
:1009D0001C466FE714F9011B21F00403682B9CD11E
:1009E00014F9011B21F00403682B96D1F2E7079B51
:1009F000002B04DD069C002C40F09A80234418460E
:100A00001BB0BDE8F08F3868102201680430CDE9D2
:100A100000565B4638600DEB0200FFF7B7FE079B00
:100A20003DE7386801680430CDE900565B46386020
:100A30000A2204A8FFF7AAFE079B30E73B681A1DAD
:100A40003A601D6815F9011B04A800293FF426AF80
:100A5000FFF77CFE079B002BF4DA18461BB0BDE8BD
:100A6000F08F3A68116804323A600022082301923C
:100A7000102200930DEB0200FFF788FE079B0EE7A4
:100A80003B681A68039204333B6082EAE273A3EB8B
:100A9000E273092B40F3948060484FF00108194637
:100AA0006329A0FB03C308F101084FEAD303F6DC76
:100AB000D84538BFD846002D43D1079800250346B6
:100AC00000289CDB039B002B65DB73076FD406F0CB
:100AD0000303022B77D05B46CDE9005603990A2227
:100AE00004A8FFF753FE079BD9E63B681A1D93F94C
:100AF00000103A6004A8FFF729FE079BCFE694F99F
:100B00000110A1F13002D2B2092A55D81C464FF08B
:100B1000000B0BEB8B0201EB420214F9011FA1F158
:100B20003003DBB2092BA2F1300BF2D9631CEFE6E4
:100B30002246514648460393FFF7EEFD039B2344AC
:100B40005DE7039A002A06F002031ADB720718D445
:100B5000002B51D0BBF1000F10D0F0070AD50DE0EB
:100B6000A8450BD2FFF7F2FD079B002B05F1FF35DF
:100B7000FFF645AF202104A8002DF1D107980346C8
:100B80009EE7013D13B1BBF1000FF7D0F207F5D49A
:100B9000002DEFD191E75B422D2104A80393FFF7CD
:100BA000D5FD079800280346FFF629AF8FE72B21D4
:100BB00004A8FFF7CBFDF4E701334FF0000BA7E6E5
:100BC0004FF0010874E7BBF1000F84D1002D82D0F3
:100BD00045454FF030011FD904A8FFF7B7FD07982E
:100BE000002805F1FF350346FFF609AF002DEFD1D0
:100BF0000028FFF604AF6EE7F107BBD50798002881
:100C00000346FFF6FCAE06F00303022B7FF463AF4E
:100C1000BBF1000FDCD05EE70346E9E7CDCCCCCCDE
:100C20000EB400B582B003AB01AA53F8041B0193C4
:100C3000FFF720FE02B05DF804EB03B0704700BF81
:100C400010B5094800F084FA00B910BD074B0849F7
:100C5000084A04460020FFF7E3FF07492246002028
:100C6000FFF7DEFF00BE10BD0005002038180000B1
:100C7000541800008C1D00007018000030B585B0BD
:100C8000002403A8039400F0FBFB9DF80D009DF8E1
:100C90000E109DF80F30554ACDE9001054492046FA
:100CA000FFF7BEFF53492046FFF7BAFF52495348AA
:100CB00000F0E4F900286DD14F4B1B78042B24D8A9
:100CC000DFE803F0485503233B004D490020FFF7C0
:100CD000A7FF4A484AF2A45100F0BEF90446002892
:100CE00075D14648022100F0B7F9044668B1454B7A
:100CF0004549464A0020FFF793FFFFF7A1FF44490B
:100D000022460020FFF78CFF00BE424B187880B1CE
:100D1000414900201870FFF783FF404B40485B6853
:100D20000122198800F016F93E490020FFF778FFEC
:100D3000FEE73D49FFF774FFF6E73C490020FFF767
:100D40006FFF2E484AF2A55100F086F904460028AC
:100D5000DBD0CCE736490020FFF762FF27484BF293
:100D6000B55100F079F904460028CED0BFE73149EB
:100D70000020FFF755FF214845F65A2100F06CF995
:100D80000446A8B91D48012100F066F90446002870
:100D9000BBD0ACE7284B1C491C4A05462046FFF750
:100DA0003FFF1B492A462046FFF73AFF00BE83E774
:100DB000144B1549154A0020FFF732FFFFF740FF9B
:100DC000134922460020FFF72BFF00BEDAE70D4B48
:100DD0000D490E4A0020FFF723FFFFF731FF0C49B2
:100DE00022460020FFF71CFF00BE7AE790180000A3
:100DF000941800006C1A0000A41D000000050020DB
:100E0000CC1C00005C1C000054180000981D000061
:100E100070180000F4040020F81C0000941E00006C
:100E2000F8040020601D0000301D00007C1C000044
:100E3000301C0000A41C0000101C0000014B01220B
:100E40001A707047F4040020022800D0704702494D
:100E5000024800F0EBB800BFBC1D0000F804002001
:100E600008B5FFF70BFF002008BD00BF2DE9F84FC4
:100E70000388DBB1DFF8D88082464FF0000B4FF0DB
:100E80000109314D4FEACB070024DAF8043035F878
:100E9000022BD919898891420AD00134032CF4D14C
:100EA000BAF800300BF1010B5B45EAD8BDE8F88FCA
:100EB000DB5903F0B85309FA04F6B3F1807FF6B2B8
:100EC00098F8BB3413D0334231D1204A04F12001C9
:100ED00012F81130DB09E0D012F811306FF3C713AC
:100EE00002F81130C820012100F0DAFAD5E73342C8
:100EF00011D0164A04F1200112F81130DB09CCD1CF
:100F000012F8113043F0800302F81130C82001219B
:100F100000F0C6FAC1E7012000F04CFB98F8BB34A2
:100F2000334388F8BB34012000F014FBE1E70120D3
:100F300000F040FB98F8BB3423EA060388F8BB3482
:100F4000012000F007FBC0E7841E000000400440C1
:100F500000E00140C0B10D4B0068984210D1012A59
:100F600010D8C8B2012383409BB202B91B04090AFE
:100F7000490101F1804101F5802100208B6070471B
:100F800007207047032070470120704754524F508C
:100F9000F8B50446FFF76AFFEFF31082012383F3ED
:100FA00010881F4F3B681BB91E49CB704023CB7084
:100FB0003B6801333B6082F310882388E3B16168AA
:100FC000194C01EBC30E8A880868130AC503D2B214
:100FD00002EB031C09D554F82C6020F480356FF324
:100FE000104644F82C6044F82C501B01134408317F
:100FF0008E4544F82300E6D1EFF31082012383F3FA
:1010000010883B6813B13B68013B3B603B681BB9F0
:1010100004498020CB70C87082F31088F8BD00BFEF
:1010200054050020000D04400008044070B169B16F
:101030004A685AB108B5074A03460068904207D08B
:1010400008461A60FFF7A4FF002008BD0120704782
:101050000E2008BD54524F5050B1064B42689A4280
:1010600004D1054B89B25980002070470720704792
:10107000012070474F434F4400410540002858D09D
:10108000002956D00B69002B53D091F90D20002A6E
:101090004FDB70B44268294DAA424CD04A690261C4
:1010A000002401608360C460EFF310864FF0010CF0
:1010B0008CF31088224BD3F8042122F40052C3F899
:1010C0000421D3F8043186F310880B7802681D4E92
:1010D00043F0400333709388B38092F90D200B7B6B
:1010E00002F1604101F561411B01DBB281F800337F
:1010F000154B02F1C00143F82200144B53F8216054
:1011000064F3104643F8216053F82130BFF35F8F3A
:1011100053099B0003F1604303F5614302F01F0292
:101120000CFA02F2C3F880211A604560204670BCB8
:101130007047012070470E20F9E700BF4F434F442E
:10114000006F044000410540580500200060004049
:10115000002836D01C4A4168914203462FD110B472
:10116000026892F90D20002A14DB5109174C012066
:10117000203102F01F0200FA02F244F82120BFF3EE
:101180004F8FBFF36F8F1968114A91F90D1000202E
:1011900042F82100EFF31080012282F310880D4AFB
:1011A000D2F8041141F40051C2F80411D2F804211C
:1011B00080F3108800205DF8044B586070470720CA
:1011C00070470120704700BF4F434F4400E100E0EB
:1011D00058050020006F044030B583B0EFF303835F
:1011E000103B124A5CB252F82450E868E0B1036840
:1011F00001932A69AB6802609847EB680BB1019ACA
:101200001A602B680A4819780A4A04F1C00341F0B1
:101210004001017052F823106FF3104142F823107F
:1012200052F8233003B030BD01A8E2E75805002092
:101230000041054000600040064B074993F8260036
:101240001A6A51F820300549C2F30262D3400B609C
:10125000704700BF00E0014008000020E0050020CA
:10126000704700BF514B5249524A70B50020524D51
:10127000524E4AF20354A3F8FE43A1F8000150492C
:10128000696050492A604FF40042C5E902214E4C82
:1012900093F826106C612A6155F82120196AC1F370
:1012A0000261CA400921326083F8130483F8A21056
:1012B00093F880241AB993F881349B0771D03B4C82
:1012C00094F88034002B61D0384B002283F88124BD
:1012D00083F88024354A92F8A0308BB192F83630EA
:1012E000002B4AD0314A92F8A030D806C3F300113F
:1012F000F9D42E4882F8A01090F8A030D906FBD47B
:101300002A4C0122002384F8362084F8323094F8E5
:101310003C301A07FBD5472384F82B30072000F018
:10132000B9F80023214A84F82A3092F83C309B0611
:10133000FBD5264B1E49012482F831401362052358
:1013400082F8263092F82630106A55F82330C0F320
:101350000260C340336000254FF4254382F8D0502B
:10136000A2F8FE33A1F80441B1F804319BB2002B7E
:10137000FAD10123A1F8003170BD92F83C30DC07AE
:10138000B0D492F83C30DC07F7D5ABE7012184F804
:101390008014C82000F084F894F88034012BFBD12D
:1013A00092E74FF47A70FFF75BFF93E700E00140AC
:1013B00000C0014000366E0108000020E00500205A
:1013C00000127A00001BB700006CDC020001011063
:1013D00038B5294C002584F828500121C82000F098
:1013E0005FF884F8245094F82430002BFBD194F853
:1013F0002430214943F0020384F8243091F824304A
:10140000C3F340009B07F9D41B4A81F8220092F8ED
:10141000223003F0FF00002BF9D192F8403016493A
:1014200060F3C71382F8403091F84030DB09FBD1FC
:1014300091F84200104A63F3C71081F8420092F815
:101440004230DB09FBD192F844000B4963F3C7102B
:1014500082F8440091F84430C3F3C014DB09F9D199
:10146000012000F0A7F8054B012083F8BB44BDE83C
:10147000384000F06FB800BF0040044000E0014079
:1014800018B1034B0360002070470120704700BF74
:1014900000000604A0F101000028FBD1704700BF46
:1014A00030B400FB01F1104D104A2868B2FBF0F295
:1014B0004FF47A73A1FB03C43CB9BCFBF2FC4FEAC6
:1014C0009C0070B130BCFFF7E5BF9200B1FBF2F1B8
:1014D000A1FB03134FF0FF30002BF3D10846002887
:1014E000F0D130BC704700BFE005002000CA9A3B35
:1014F0000B4B70B5B3F840510A4E0024ADB225FA3B
:1015000004F3DB0704D556F82430E0B203B1984762
:101510000134102CF3D1024BA3F8305170BD00BF41
:101520000060004014050020084B10B4084C03F183
:10153000200C5842C21813F8011FC032634544F80A
:101540002210F7D15DF8044B704700BF631E000006
:1015500000600040EFF31081012383F31088124BE9
:1015600033F8102092B22AB133F81020013A92B227
:1015700023F8102033F810309BB293B90B4A10B403
:10158000B2F8FE330A4C9BB234F8100043F4254302
:1015900023EA0003A2F8FE3381F310885DF8044BC0
:1015A000704781F310887047D805002000E00140A3
:1015B0008C1E000030B4EFF31081012383F31088F8
:1015C0000E4A32F810309BB26BB90D4C0D4DB4F889
:1015D000FE3335F810C09BB243EA0C0343F42543B5
:1015E0009BB2A4F8FE3332F8103001339BB222F8DC
:1015F000103081F3108830BC704700BFD805002040
:1016000000E001408C1E000000BE704708B500F0ED
:1016100003F8FFF725FCFEE7F0B5474B474A484E75
:101620004FF47000C3F888004AF202519E60012313
:10163000A2F8FE1383B082F81F3492F8B134DB06AF
:10164000FBD500204FF425470446A2F8FE73FFF7B0
:10165000FBFBFFF707FE8DF8074001209DF80730E0
:10166000FFF7A8FFEFF31081012585F31088354BB4
:10167000D3F8042122F00042C3F80421D3F8042156
:1016800081F31088304A1168C1F300018DF807100A
:101690001168C1F300018DF807101268C2F300024F
:1016A0008DF80720EFF3108185F31088D3F804211B
:1016B00042F00042C3F80421D3F8043181F31088CA
:1016C0002846FFF747FF2846FFF7BEFB32681F4B4F
:1016D0001F489C80A2F580611F809960DA601D49D7
:1016E0001D4A4FF48056A1F82061121A9D802146B0
:1016F00000F040F819481A4A1A491B4D121A00F016
:1017000041F81A4B5B1BA3424FEAA30605DD55F8CF
:10171000043B01349847A642F9DCFFF78DFDFFF743
:1017200057FE0220FFF790FBFFF7FEFE002003B0FC
:10173000BDE8F04000F01CB800ED00E000E0014022
:1017400000000000006F044000080440000D00404D
:101750002000002000600040E40500200000002080
:1017600008000020CC1E0000000000200400002023
:10177000704700BF02440346934200D1704703F80C
:10178000011BF9E70A44914200F1FF3300D1704791
:1017900010B511F8014B03F8014F9142F9D110BD7A
:1017A0004275696C7420776974682052656E657340
:1017B000617320416476616E63656420466C657870
:1017C00069626C6520536F66747761726520506141
:1017D000636B6167652076657273696F6E20342E66
:1017E000362E3000342E362E300000000000060465
:1017F000F8B500BFF8BC08BC9E467047F8B500BFFE
:10180000F8BC08BC9E4670475465726D696E616C89
:1018100000FFFFFF0000000000005454522052451A
:101820004747455300FFFFFF3031323334353637F9
:1018300038394142434445460D0A202A2A444F4341
:1018400020436C6F736520415049206661696C6567
:10185000642A2A005B4552525D20496E2046756E0F
:101860006374696F6E3A20257328292C2025730034
:101870000D0A52657475726E6564204572726F72DE
:1018800020436F64653A203078257820200D0A00C7
:10189000312E30000D0A2A2A2A2A2A2A2A2A2A2AFE
:1018A0002A2A2A2A2A2A2A2A2A2A2A2A2A2A2A2A98
:1018B0002A2A2A2A2A2A2A2A2A2A2A2A2A2A2A2A88
:1018C0002A2A2A2A2A2A2A2A2A2A2A2A2A2A2A2A78
:1018D0002A2A2A2A2A2A2A2A0D0A2A202020526560
:1018E0006E6573617320465350204578616D706C4E
:1018F000652050726F6A65637420666F7220725F34
:10190000646F63204D6F64756C652020202020205B
:1019100020202020202020202020202A0D0A2A20DC
:1019200020204578616D706C652050726F6A656328
:10193000742056657273696F6E20257320202020F5
:101940002020202020202020202020202020202097
:1019500020202020202020202020202020202A0D90
:101960000A2A202020466C657820536F66747761C0
:101970007265205061636B2056657273696F6E20CB
:101980002025642E25642E25642020202020202060
:101990002020202020202020202020202020202047
:1019A00020202020202A0D0A2A2A2A2A2A2A2A2A06
:1019B0002A2A2A2A2A2A2A2A2A2A2A2A2A2A2A2A87
:1019C0002A2A2A2A2A2A2A2A2A2A2A2A2A2A2A2A77
:1019D0002A2A2A2A2A2A2A2A2A2A2A2A2A2A2A2A67
:1019E0002A2A2A2A2A2A2A2A2A2A0D0A52656665BA
:1019F0007220746F20726561646D652E7478742036
:101A000066696C6520666F72206D6F726520646513
:101A10007461696C73206F6E204578616D706C65C0
:101A20002050726F6A65637420616E640D0A4653BC
:101A30005020557365722773204D616E75616C205F
:101A4000666F72206D6F726520696E666F726D6170
:101A500074696F6E2061626F757420725F646F636A
:101A6000206472697665720D0A0000000D0A5468E0
:101A700069732070726F6A6563742064656D6F6E40
:101A80007374726174657320746865206261736930
:101A9000632066756E6374696F6E616C697479201A
:101AA0006F6620444F43206472697665722E0D0A7A
:101AB000444F43206D6F64756C6520706572666F6E
:101AC000726D73206F6E65206F6620746865206686
:101AD0006F7572206F7065726174696F6E732843E1
:101AE0006F6D70617269736F6E204D69736D617493
:101AF00063682C20436F6D70617269736F6E204D47
:101B0000617463682C0D0A4164646974696F6E20A6
:101B10004F766572666C6F772026205375627472FB
:101B2000616374696F6E20556E646572666C6F7761
:101B300029206F6E207265666572656E636520642C
:101B4000617461206261736564206F6E20746865E2
:101B500020757365722073656C656374696F6E20A0
:101B6000696E20524120636F6E6669677572617499
:101B70006F722E0D0A53746174757320616E642048
:101B8000526573756C74206F6620746865206F7081
:101B900065726174696F6E206973207072696E740A
:101BA0006564206F6E205254545669657765722EB5
:101BB000200D0A4C4544207475726E73204F4E20E0
:101BC000746F20696E646963617465207468652050
:101BD00073756363657373206F66206F70657261E0
:101BE00074696F6E20616E64207374617973204F25
:101BF000464620696620746865206F70657261745E
:101C0000696F6E206661696C732E0D0A000000001A
:101C10000D0A202A2A20444F43204F70656E204130
:101C20005049204661696C6564202A2A0000000042
:101C30000D0A53656C6563746564206576656E7422
:101C400020697320436F6D70617269736F6E204DF0
:101C500069734D6173746368000000000D0A202AE7
:101C60002A20444F4320577269746520415049200F
:101C70004661696C6564202A2A0000000D0A5365DC
:101C80006C6563746564206576656E742069732085
:101C9000436F6D70617269736F6E204D617463681C
:101CA000000000000D0A53656C656374656420656F
:101CB00076656E74206973204164646974696F6E1F
:101CC000204F766572666C6F770000000D0A5365D1
:101CD0006C6563746564206576656E742069732035
:101CE0005375627472616374696F6E20556E6465BA
:101CF00072666C6F770000000D0A444F43206F70CE
:101D000065726174696F6E206973207375636365B2
:101D1000737366756C20666F7220746865207365D6
:101D20006C6563746564206576656E740000000000
:101D30000D0A444F43206F7065726174696F6E20A5
:101D40006661696C656420666F72207468652073D3
:101D5000656C6563746564206576656E740000006B
:101D60000D0A526573746172742074686520617025
:101D7000706C69636174696F6E20746F2072657234
:101D8000756E2074686520636F646500646F635FBF
:101D90006465696E697400FF68616C5F656E74727A
:101DA0007900FFFF00000000A5A500000000000072
:101DB000020000003D0E00000000000014000000C2
:101DC000C41D0000008000000400000000000106A7
:101DD00000010000000001060101000000000106F2
:101DE00002010000000001060301000000400000A5
:101DF00005010000040000000601000000000100D1
:101E000008010000000001000901000000000100BD
:101E10000A0100000000010C0F0100000000010C8D
:101E200005020000000001000003000004000000A3
:101E3000000400000000010501040000000001058D
:101E4000020400000400000003040000000001136D
:101E500007040000000001130E0900000000011338
:101E60000F09000046000000000000000000000014
:101E70000000000000000000000000000000000062
:101E800000000000020403040404FFFF010002003C
:101E900008001000010000009C1E00000601FFFF6A
:101EA0001000000000000000017A5200027C0E01C8
:101EB0001B0C0D00100000001800000000000000C6
:0C1EC00010000000000000000000000006
:081ECC0069050000410500005A
:020000040101F8
:10001800FFFFFFFFFFFFFFFFFFFFFFFFFFFFFFFFE8
:0C002800FFFFFFFFFFFFFFFFFFFFFFFFD8
:040000030000160DD6
:00000001FF
