:10000000E04C0020A1020000B90100009D020000A8
:100010009D0200009D0200009D0200009D02000064
:100020000000000000000000000000009D02000031
:100030009D020000000000009D0200009D020000E3
:1000400000000000000000000000000000000000B0
:1000500000000000000000000000000000000000A0
:100060000000000000000000000000000000000090
:100070000000000000000000000000000000000080
:100080000000000000000000BD0F000000000000A4
:100090000000000000000000000000000000000060
:1000A0000000000000000000000000003910000007
:1000B0000000000000000000000000000000000040
:1000C0000000000000000000000000000000000030
:1000D0000000000000000000000000000000000020
:1000E000000000000000000040F623020F4B995C66
:1000F0000F4A890709D540F622015B5C1BB1936862
:100100000C4A136070471369FAE740F62001595C06
:10011000890705D540F61901595C5368CB40EFE7D4
:1001200040F61801595C1368F8E7C04600E001404A
:10013000D4400020DC48002001380028FCD1704762
:1001400070B54143114B124D1B680C00B5FBF3F524
:10015000080040F2E8320023002101F04BFA31B9E7
:10016000B0FBF5F0800808B1FFF7E6FF70BDAD0009
:10017000B4FBF5F040F2E8320023002101F03AFA36
:100180000029F0D001204042EEE7C046DC480020C4
:1001900000CA9A3B10B5034B8200D35803B198476D
:1001A00010BDC0460C480020024B800019500020B2
:1001B0007047C0460C480020F8B540F240130024B8
:1001C0000127084E084A758CD35A1D402B00E34086
:1001D0003B4202D0E0B2FFF7DDFF0134092CF5D13C
:1001E0007586F8BDFE600040006000401F22430994
:1001F00010401E3A8240024960339B005A507047BB
:1002000000E100E0F7B5FF27019283080A4A0326C0
:100210009B009B183A0040F200350640F600890129
:10022000B2403940B1405C59800094430C435C516A
:10023000019A024B1A50F7BD00E100E0344800205B
:100240001F22430910401E3A824002499B005A5027
:100250007047C04600E100E010B50400FFF7C6FF9C
:100260002000FFF7EDFF10BD1F22430910401E3A8A
:100270008240044920339B005A50BFF34F8FBFF395
:100280006F8F704700E100E010B50400FFF7BAFF80
:100290002000FFF7E1FF10BD7047C04600BE704769
:1002A00010B501F055F900F0B1FCFEE7FFFFFFFFCC
:1002B000FFFFFFFFFFFFFFFFFFFFFFFFFFFFFFFF4E
:1002C000FFFFFFFFFFFFFFFFFFFFFFFFFFFFFFFF3E
:1002D000FFFFFFFFFFFFFFFFFFFFFFFFFFFFFFFF2E
:1002E000FFFFFFFFFFFFFFFFFFFFFFFFFFFFFFFF1E
:1002F000FFFFFFFFFFFFFFFFFFFFFFFFFFFFFFFF0E
:10030000FFFFFFFFFFFFFFFFFFFFFFFFFFFFFFFFFD
:10031000FFFFFFFFFFFFFFFFFFFFFFFFFFFFFFFFED
:10032000FFFFFFFFFFFFFFFFFFFFFFFFFFFFFFFFDD
:10033000FFFFFFFFFFFFFFFFFFFFFFFFFFFFFFFFCD
:10034000FFFFFFFFFFFFFFFFFFFFFFFFFFFFFFFFBD
:10035000FFFFFFFFFFFFFFFFFFFFFFFFFFFFFFFFAD
:10036000FFFFFFFFFFFFFFFFFFFFFFFFFFFFFFFF9D
:10037000FFFFFFFFFFFFFFFFFFFFFFFFFFFFFFFF8D
:10038000FFFFFFFFFFFFFFFFFFFFFFFFFFFFFFFF7D
:10039000FFFFFFFFFFFFFFFFFFFFFFFFFFFFFFFF6D
:1003A000FFFFFFFFFFFFFFFFFFFFFFFFFFFFFFFF5D
:1003B000FFFFFFFFFFFFFFFFFFFFFFFFFFFFFFFF4D
:1003C000FFFFFFFFFFFFFFFFFFFFFFFFFFFFFFFF3D
:1003D000FFFFFFFFFFFFFFFFFFFFFFFFFFFFFFFF2D
:1003E000FFFFFFFFFFFFFFFFFFFFFFFFFFFFFFFF1D
:1003F000FFFFFFFFFFFFFFFFFFFFFFFFFFFFFFFF0D
:10040000FFFFFFFFF7AFC1FF44F2D40044F2D40373
:10041000C2F20000C2F2000310B5834205D040F2E0
:100420000003C0F2000303B1984710BD44F2D400AA
:1004300044F2D403C2F20000C2F200031B1A9A1065
:10044000D90F8918491010B529B140F20003C0F244
:10045000000303B1984710BD10B544F2E804C2F29E
:100460000004237873B9FFF7CFFF40F20003C0F216
:1004700000032BB141F69870C0F2000000E000BF0D
:100480000123237010BDC04640F20003C0F20003F8
:1004900010B54BB144F2EC0141F69870C2F2000184
:1004A000C0F2000000E000BFFFF7C0FF10BDC04673
:1004B0000369C268934201D881685B18013B981AAE
:1004C0007047F7B50500C468836840681F1B0019B2
:1004D0000E000193A418974207D83A0001F0CDF816
:1004E000019B6868E41A2200F11901F0C6F8BFF315
:1004F0005F8FEC60F7BD0023F7B506001700C568F5
:10050000019100933369B4689D4221D2013B5B1B8A
:10051000641BBC4200D93C009C4200D91C0070689E
:1005200022004019019901F0A8F8009B2D191B1910
:100530000093019B3F1B1B190193B368AB4200D191
:100540000025BFF35F8FF560002FDBD10098FEBD63
:100550001B19DBE710B5154CA8220021200001F083
:1005600077F80323124A23616361124BA261E361AE
:1005700040F2004323620023A3626362E3622266C7
:100580000D4A62661022A2662367E3666367BFF3C3
:100590005F8F0F3318000949C21A5918097849B2F8
:1005A000A154013BF7D2BFF35F8F10BD144500206B
:1005B000041700001441002004410020C01D000069
:1005C000182370B5451C5D4343431400114A0E00C7
:1005D0009B18DB6AAD18012B0AD0022B14D023B96B
:1005E0002800FFF765FF844208D90024200070BD71
:1005F0002800FFF75DFF844200D90400220031008B
:100600002800FFF75EFFF1E722002800FFF773FFE5
:100610000400EBE714450020F8B50B4B04001B78F1
:100620000E001700532B01D0FFF794FFEFF3108556
:10063000012181F310883A0031002000FFF7C0FF4C
:1006400085F31088F8BDC0461445002010B58268B7
:1006500004004068531C834205D820688154A3607D
:10066000E3680133E360A26863689A4209D12168B4
:100670002069FFF7D1FFA368984203D001235B42B2
:10068000E36010BD0023A360FBE7FFFFF0B515009A
:100690000400012285B000930A9F0B9B0191A9429F
:1006A00017D2009902928A4200D2029101221900C7
:1006B00011400391134201D17FB90027E36801265D
:1006C000002B3BDB009B012B1CD9013B00936E43AD
:1006D000F8E7B1FBF5F10132E1E720269B0703D5EE
:1006E000009B103603B1103E029BBB42E6D23100A4
:1006F0002000FFF7ABFFE368013F002BDEDB002F9C
:10070000F2D1DAE7019BB3FBF6F39D42DFD9019BFF
:100710003200B3FBF6F35A43019920008A1A019282
:100720000E4AD156FFF792FFE368002B03DBB6FBBE
:10073000F5F3AE4204D2039B03B15FB905B0F0BD3F
:100740001E00E4E720212000FFF780FFE368013F5F
:10075000002BF3DB029B9F42F4D8EFE7D11D000092
:10076000F0B59DB00CAB07934023089300230D0018
:100770001700059009930B900A93002169560135E3
:1007800031B90A9D002D00DD08E10A981DB0F0BDC9
:10079000252900D0B2E0002604201D390023EB56A5
:1007A0006A1C2D2B17D012DC232B1AD02B2B16D022
:1007B00000240A210023EB566A1C18003038C0B20E
:1007C000092810D84C43303C15001C19F2E7302B97
:1007D000EED1022300E001231E431500DEE70643AD
:1007E000FBE70E43F9E7002102912E2B10D11500F3
:1007F0000A200022AA56691C1300303BDBB2092BE9
:1008000006D8029B0D004343303BD3180293F0E718
:100810000021042369560A0001359A43682A02D14F
:1008200000216956F7E7782909DC6F290CDC632978
:100830005FD018DC252961D0582900D18BE00A9BB4
:10084000002B00DB99E79CE7703908000829F6D8EF
:1008500000F0C6FE9C00F5FFF5FF8900F5FF78006B
:10086000F5FFF5FF81006429E9D13B680A211A1DD3
:100870003A601B681A000393DB17D2185A40012311
:10088000092A3FDC029A04929A4200D204932CB1C6
:10089000039B002B01DB730700D5013CB30701D597
:1008A000029B1BB1F30701D484BB00240A9B002BDD
:1008B000C5DB039B002B35DA2D215B42039307A890
:1008C000FFF7C4FE0A9B002BB9DB03233340022B46
:1008D00003D1029B0BB94CBB00240A9B002BAEDB5F
:1008E0000A22029B03990196009407A8FFF7CEFE07
:1008F000A5E700213B681A1D3A60595607A8FFF783
:10090000A5FE9CE792FBF1F20133B9E7049B9C4200
:10091000CCD9202107A8FFF799FE0A9B013C002BA8
:10092000C2DAC3E77307D0D52B21C8E7049B9C42EA
:10093000D3D9302107A8FFF789FE0A9B013C002B81
:10094000C9DACAE70A2239680B1D3B60029B01968F
:1009500000940968C9E739680B1D3B60029B01964A
:1009600000941022F5E73B681A1D3A601C6804B930
:100970000F4C002161560134002900D15FE707A820
:10098000FFF764FE0A9B002BF3DA58E739680B1D6A
:100990003B600023019308330093E2E7099C24B1F4
:1009A000220005980CA9FFF737FE64190A94ECE6BB
:1009B0000D1700000EB403B503AB02CB01AA0193DF
:1009C000FFF7CEFE02B008BC03B0184710B500F028
:1009D00061F810BD10B518B90122054B1A7010BD91
:1009E0000228FCD10349044800F0A4FBF7E7C04605
:1009F00090C07E40781E0000C447002010B504005F
:100A00000020FFF7D7FF0948436843B100F05CFAC4
:100A100028B10020064B074A0749FFF7CBFF220009
:100A200006490020FFF7C6FF00BE10BDCC470020DE
:100A300014170000E11D0000321700004E170000DF
:100A400098B103790E4A1370042B0ED10D4B8068B8
:100A50001A880D280AD142B11A880B4992B20A802D
:100A600001210A4A117000221A807047FF2AFCD81F
:100A700019884A1C92B21A80054B5854F5E7C046B3
:100A8000BF450020BC450020C0450020BE450020D9
:100A9000C2460020F0B5002485B003AD28000394C1
:100AA00000F050FD6A78EB780192AA7840490092F4
:100AB0002000404AFFF77EFF40F2E831C820FFF7F0
:100AC0003FFB3D492000FFF775FF40F2E831C820A9
:100AD000FFF736FB39492000FFF76CFF40F2E831A1
:100AE000C820FFF72DFB3649364800F0A3F8050073
:100AF00048B135492000354B354AFFF75BFF354992
:100B00002800FFF77BFF344B1A78002AFCD0002620
:100B10001E70324B32491A88324892B200F0ADFD55
:100B200040F2001231002E4800F092FD2D4A2E496D
:100B30003000FFF73FFF2D492A4800F091FD29487A
:100B400000F0A4FD40F2E834294F444325483E70AC
:100B500000F09CFD234902001A4800F0F8F9050056
:100B6000D8B13000234B244A1749FFF723FF164919
:100B70000020224B224AFFF71DFF2249C0E73CB963
:100B80002000214B1C4A1049FFF714FF1425EEE703
:100B900001210800013CFFF7D3FA3B78022BEED18C
:100BA00040F2001200210F4800F052FDABE7C046B2
:100BB000721700006E1700004D190000EC1B0000BA
:100BC000201E0000CC47002032170000FC1C000053
:100BD000121E0000191D0000BE450020C045002067
:100BE000C2460020C2450020301D0000F91C000054
:100BF000BF450020481D0000F11D00008D1D0000B4
:100C0000FF1D0000A41D0000661D000010B5FFF7C9
:100C1000DDFE002010BD1FB5436A4BB18468247807
:100C2000029169460A71826A009468460392984765
:100C30001FBDFFFFF8B50B780D005B0803740A7841
:100C4000022152000A4042749B4A85609B185B0255
:100C5000C3606B6904004362AB6983626B78013BDC
:100C60005A4253410370EF68002F00D0D5E0A368CB
:100C70001B69002B00D0EFE0EFF31086012181F318
:100C800010880F00207C8D4B063087405A68BA438D
:100C90005A605B6886F31088E368EA69FE33198559
:100CA0005068637C0778232088338B40FF03E66815
:100CB000384380B29853EF786B787F183F013B43FD
:100CC000AF78607C3F023B4357788C30FF013B4359
:100CD00048F204078840E6683B438353607C0F007A
:100CE00088405368E6685B785B029BB28353667CFE
:100CF000E068B740FE30838DBB438385E06897781A
:100D00009C46667CFE308F4200D0C7E03B00B3407B
:100D1000C18E194389B2C186667CE168B740FE3155
:100D2000488DB843488501210B00667CE068B340DC
:100D30001E00634633439BB2FE3083852E786048A5
:100D40008E40B14003780B43DBB203700720637C15
:100D5000E16885335B0058525168637C0E78917866
:100D6000F60389010E4340F22211E06831438933D2
:100D700089B25B001952AB7AAE78FF3B59424B41C6
:100D800044F204415B429B0A6F789B025B18360277
:100D90003B4333435678617CF60133431026E068C9
:100DA00033438D319BB249000B525268637C5278B9
:100DB000E1680133520292B25B005A5200230520CF
:100DC0006361A361E3612362297922002856FFF75A
:100DD0005BFAA368DB7A5BB2213305D00B202200DB
:100DE000A97A2856FFF750FA01263100627C0720C5
:100DF00001329140E3688AB2FE339A84A9792200D5
:100E00002856FFF741FA637CE2689E40FE32B3B297
:100E100093842C4B002663601CE07B681A68802357
:100E20001B0313600323017830201940D378090194
:100E300083430B43D370637CE16801335B00CB18C1
:100E40005360BB6879681B683868984706000028BB
:100E500000D10CE73000F8BD5A68302610688122B6
:100E600012050260032221781140C2780901B243C1
:100E70000A43C270617CE2684900521882609A6835
:100E800003CB126890470600002800D1F4E6002F3B
:100E9000E0D0BB6838681B6A9847DBE70B00B340BB
:100EA000C78E9F43C786677CE068B940FE30468D99
:100EB000314389B2418536E710052000FC6F0440BC
:100EC00000100A40555541530023012270B543607C
:100ED000417C040010004B1C98408A4003001343DF
:100EE000E2689BB2FE32D384E2681000FE301D003F
:100EF000418C0D400B42FAD10720637C8C335B00A0
:100F00009D52A3681856FFF7AFF90520637CE2688D
:100F10008D335B009D52A3681856FFF7A5F90B208F
:100F2000A36818560300213301D0FFF79DF9A36889
:100F3000DB681BB19A681868126A9047A3681B693E
:100F40001BB19A681868126A9047002070BDF8B506
:100F500003780E00DA401500427CC36852009B18EB
:100F60000122FE33598A04000A435A820378013D64
:100F70000133F318436183681F696FB165B10720BE
:100F80001856FFF771F9BA68ABB2616995683868AD
:100F90000022A84708B1F8BDA561637C2178E2680A
:100FA0005B0041B131880720D152A3681856FFF782
:100FB00047F90020EFE73178F5E7FFFF70B5EFF371
:100FC0000383103B1B4A5BB29B009C58627CE36826
:100FD00052009B181A00FE32558AA169ADB2D1B1F8
:100FE000A168C968B9B92178626991B112881A807B
:100FF0002278636901329B186361A369013BA36195
:101000000BB901339D43637CE26888335B009D52DA
:1010100070BD1278EBE70023636101331D42F1D10B
:10102000538899B2002BEED102222000FFF7F3FD86
:10103000E9E7C0463448002010B5EFF30383103BC6
:10104000154A5BB29B009858437CC26801335B0031
:10105000995A036A89B223B90422C361FFF7DBFD01
:1010600010BD8368DB6823B10021C16101620122E8
:10107000F4E70278C36952B11980C3690233016A87
:10108000C361013901620029EAD1C161EFE719703A
:10109000C3690133F3E7C04634480020EFF3108002
:1010A000012383F31088064B196819B9054A11709A
:1010B000403111701A6801321A6080F3108870474D
:1010C0003048002040030A40EFF31081012383F3EE
:1010D0001088074B1A6812B11A68013A1A601A6828
:1010E0001AB9044B1A7080321A7081F31088704755
:1010F0003048002040030A4070B50400FFF7CEFFDF
:101100000022FF200A4D2388934202D8FFF7DCFF1C
:1011100070BD6168D300C9188E880968330A1B0145
:1011200006409B1989B25B000132595392B2EAE73B
:1011300000020A4010B5034B03600800FFF7DCFF14
:10114000002010BD54524F500620704706207047B3
:101150000423C356104A9B009B5800220A604A6031
:10116000DA783F2A11D940F200123F208A60DA89EA
:10117000D2B2CA60DA788243802A04D18022520235
:101180000A609B894B6000207047802252028A606F
:10119000DB89CB60F7E7C04600400020062070479F
:1011A0000620704770B50A00FF24D37815003F2B46
:1011B00005D9D38923401E029B199BB2D381AB78FA
:1011C00010323F2BF1D80823044A13700423C3566E
:1011D00003489B0019501823137070BD0054004041
:1011E000004000201F22430910401E3A824002495D
:1011F000C8339B005A5070470060004010B500791A
:1012000040B2FFF7EFFF002010BDFFFF70B50425CF
:10121000455704002800FFF7E5FF0020024BAD0012
:10122000E850206070BDC04600400020F7B51B4B61
:101230000D0019780400D9B901261E70EFF3108350
:10124000019386F3108840F2400C40F60243674653
:10125000134AD05AB843D052D35A019B83F3108813
:10126000104FA822380000F0F3F90F4B5F601E7397
:101270006B680B201B785BB2002B0DDB094A9900D1
:101280008A58033842B92371296811B12000FFF749
:1012900089FF0020054B2360FEBDC04608480020A2
:1012A00000E001400040002000540040004354444E
:1012B00073B5040004200191009220561E00194BC2
:1012C0008200D558FFF78EFF042348F20002E35650
:1012D0001A43154BD9898A42FCD008221A70019A08
:1012E0000AB1019A6A60009A0AB1009AAA60EA7883
:1012F0003F2110008843802810D1AE8118221A7037
:1013000004221F21A256002053090A401E39914091
:101310000A00C43305499B005A5076BD3F2AEDD8D8
:10132000EE81EBE7004000200054004000600040E8
:1013300004221F218256002053090A401E39914081
:101340000A00C43301499B005A50704700600040B6
:1013500070B50400042020560D00FFF743FF04225F
:1013600048F20003A2560B491343CA899342FCD0AA
:1013700029002000FFF716FF04221F21A25600209B
:1013800053090A401E3991400A00C43302499B00A8
:101390005A5070BD005400400060004040F20A22E4
:1013A00030B50F4B995C8909814218D040F20B246B
:1013B00001211D5D29431955022805D0995C890931
:1013C000022901D08021995440F20A2240F20B21D7
:1013D0008001C0B2985401205A5C82435A5430BDF7
:1013E00000C07E40F8B540F623050127214C665D1C
:1013F000BE436655665DB607F70FBC46002EF9DBA7
:101400000127B84224D840F62105665DBE436655E3
:10141000665DB607FCD4012640F6200588B9605DFC
:10142000B0436055605D8007FCD440F6180021543D
:1014300040F61901625440F61A02A354FEF754FE16
:10144000F8BD615D0E436655615D8907FCD5EFE728
:1014500040F6220102280AD167540121605D014350
:1014600040F623006155215C8907FCD5E0E7604622
:101470006054F2E700E001407047FFFF40F6FE03D2
:1014800070B5264A264C0025E252264B264ADD60DE
:101490001A60264A5A6048F200029A601A61FEF702
:1014A00023FE40F600031A2240F62401E254635C56
:1014B0008BB11F4B1F48DA680240DA60DA687F267A
:1014C0001D48C27A3240C2728022D8681204024398
:1014D000DA60DB68655440F60C03E25CC2B10022BE
:1014E000E2540320FFF75AFF002240F60803E254BB
:1014F00040F61202A35CDB07FCD500231A0019009A
:101500001800FFF76FFF40F6FE030C4AE25270BD71
:1015100040F2E830FFF7B0FFE3E7C04603A5FFFF66
:1015200000E00140D44000200048E80100093D00EF
:10153000FC6F0440FFFF7FFF002C0A4000A5FFFF67
:101540007047FFFF014B0360002070470000040557
:1015500070B50025184B194A00209A60FFF73AFA37
:10156000FFF78CFF0120FFF735FA1548154A0021D7
:10157000121A00F06DF81448144A1549121A00F0B6
:101580007CF8144C144BE41AA410A5420CDBFEF7B3
:10159000ABFDFFF7D5FF0220FFF71CFAFEF77CFE3C
:1015A000002000F01BF870BD0B4AAB009B181B68B5
:1015B00098470135E9E7C04600ED00E00000000073
:1015C000E8400020E0480020A8400020D44000204F
:1015D0009C1F0000D0400020CC4000207047FFFF3F
:1015E00003B47146490840004900095E49008E4431
:1015F00003BC7047F0B54FF6FF750400CE462C4093
:10160000474615400E002900994680B5130C070087
:10161000000C61434543584363430C0C5B19E418C9
:101620008C46A54203D980235B0298464044230C94
:1016300061461B184FF6FF700840494656437943F0
:10164000240489192018C918C0BCB946B046F0BD99
:1016500003008218934200D1704719700133F9E7F3
:10166000020010B5137814000132002BFAD1CA5CC5
:10167000E2540133002AFAD110BD002310B59A427A
:1016800000D110BDCC5CC4540133F8E70023C25C28
:101690000133002AFBD1581E7047FFFF4275696C69
:1016A0007420776974682052656E65736173204198
:1016B0006476616E63656420466C657869626C650A
:1016C00020536F667477617265205061636B616748
:1016D000652076657273696F6E20352E342E30006A
:1016E000352E342E3000000000000405F8B5C04649
:1016F000F8BC08BC9E467047F8B5C046F8BC08BCAC
:101700009E4670475465726D696E616C00284E5537
:101710004C4C2900525F5341555F554152545F4331
:101720006C6F736520415049206661696C65640D7A
:101730000A005B4552525D20496E2046756E637407
:10174000696F6E3A20257328292C202573000D0A15
:1017500052657475726E6564204572726F722043B3
:101760006F64653A203078257820200D0A00312EEC
:1017700030000D0A2A2A2A2A2A2A2A2A2A2A2A2A2A
:101780002A2A2A2A2A2A2A2A2A2A2A2A2A2A2A2AB9
:101790002A2A2A2A2A2A2A2A2A2A2A2A2A2A2A2AA9
:1017A0002A2A2A2A2A2A2A2A2A2A2A2A2A2A2A2A99
:1017B0002A2A2A2A2A2A0D0A2A20202052656E6502
:1017C00073617320465350204578616D706C6520BD
:1017D00050726F6A65637420666F7220725F736106
:1017E000755F75617274204D6F64756C6520202083
:1017F0002020202020202020202A0D0A2A202020FE
:101800004578616D706C652050726F6A65637420F5
:1018100056657273696F6E2025732020202020206A
:1018200020202020202020202020202020202020B8
:101830002020202020202020202020202A0D0A2ABD
:10184000202020466C657820536F6674776172653E
:10185000205061636B2056657273696F6E2020257E
:10186000642E25642E256420202020202020202086
:101870002020202020202020202020202020202068
:101880002020202A0D0A2A2A2A2A2A2A2A2A2A2A13
:101890002A2A2A2A2A2A2A2A2A2A2A2A2A2A2A2AA8
:1018A0002A2A2A2A2A2A2A2A2A2A2A2A2A2A2A2A98
:1018B0002A2A2A2A2A2A2A2A2A2A2A2A2A2A2A2A88
:1018C0002A2A2A2A2A2A2A2A0D0A5265666572209D
:1018D000746F20726561646D652E7478742066691A
:1018E0006C6520666F72206D6F726520646574612F
:1018F000696C73206F6E204578616D706C65205047
:10190000726F6A65637420616E640D0A46535020DD
:10191000557365722773204D616E75616C20666F1B
:1019200072206D6F726520696E666F726D61746989
:101930006F6E2061626F757420725F7361755F7581
:10194000617274206472697665720D0A000D0A5422
:101950006865204578616D706C652050726F6A65AE
:1019600063742064656D6F6E737472617465732047
:101970007468652062617369632066756E6374695B
:101980006F6E616C697479206F662074686520538E
:101990004155205541525420647269766572206F1A
:1019A0006E0D0A52656E65736173205241204D437E
:1019B0005573206261736564206F6E204653502E0C
:1019C0002055706F6E207375636365737366756CF5
:1019D0006C7920696E697469616C697A696E6720D7
:1019E000746865205341552055415254206D6F64F1
:1019F000756C652C0D0A61206D65737361676520D8
:101A000072657175657374696E6720746865207599
:101A100073657220746F206F70656E207468652026
:101A200054657261205465726D206170706C6963D9
:101A30006174696F6E206F6E20746865205043205A
:101A4000616C6F6E670D0A77697468207468652031
:101A5000636F6E66696775726174696F6E2070611D
:101A600072616D657465727320666F72207468654B
:101A70002054657261205465726D206170706C69CC
:101A8000636174696F6E2077696C6C206265206495
:101A90006973706C61796564206F6E0D0A74686596
:101AA00020525454205669657765722E2041667421
:101AB0006572206F70656E696E6720616E64206369
:101AC0006F6E6669677572696E6720746865205409
:101AD000657261205465726D206170706C6963611C
:101AE00074696F6E2C20746865207573657220634D
:101AF000616E0D0A656E74657220616E79204153C6
:101B0000434949206368617261637465722073742C
:101B100072696E6720776974682061206C656E67F2
:101B20007468206C657373207468616E203235367A
:101B3000206368617261637465727320696E746F8B
:101B4000207468652054657261205465726D0D0AB9
:101B50006170706C69636174696F6E2C2074686564
:101B60006E20707265737320656E7465722D6B657F
:101B70007920746F2073656E6420697420746F20FF
:101B800074686520524120626F6172642E2054682F
:101B90006520524120426F6172642077696C6C202D
:101BA0006563686F0D0A616E7920646174612072EB
:101BB00065636569766564206261636B20746F207C
:101BC0007468652054657261205465726D2061707F
:101BD000706C69636174696F6E206F6E20746865E4
:101BE00020686F73742050432E0D0A000D0A506C4C
:101BF00065617365206F70656E207468652054653B
:101C00007261205465726D206170706C69636174DB
:101C1000696F6E206F6E2074686520504320616E7E
:101C20006420736574207570207468652073657214
:101C300069616C20636F6E6E656374696F6E20748A
:101C40006F3A0D0A54686520434F4D20706F7274CF
:101C500020697320666163696C69746174656420CE
:101C600062792074686520506D6F64555342554108
:101C700052542C206F7065726174696E67206174B4
:101C8000206120626175642072617465206F662036
:101C9000313135323030206270732C0D0A7769741F
:101CA0006820612064617461206C656E67746820CF
:101CB0006F66203820626974732C206E6F2070610B
:101CC0007269747920636865636B2C206F6E652D73
:101CD0006269742073746F702C20616E6420776960
:101CE00074686F757420616E7920666C6F772063FD
:101CF0006F6E74726F6C2E0D0A0D0A00525F5341A5
:101D0000555F554152545F4F70656E2041504920D8
:101D10006661696C65640D0A007361755F75617257
:101D2000745F696E6974206661696C65640D0A0090
:101D30005265636569766564206120737472696EAB
:101D4000673A2025730D0A00525F5341555F554194
:101D500052545F5772697465204150492066616929
:101D60006C65640D0A004E6F205341552055415259
:101D7000542063616C6C6261636B206576656E7480
:101D8000732072656365697665640D0A0073617519
:101D90005F756172745F73656E64206661696C65FE
:101DA000640D0A007361755F756172745F6F7065B1
:101DB000726174696F6E206661696C65640D0A00FA
:101DC000000000000000545452205245474745533C
:101DD00000303132333435363738394142434445A7
:101DE000467361755F756172745F6465696E69746D
:101DF000007361755F756172745F73656E64007303
:101E000061755F756172745F6F7065726174696F1F
:101E10006E007361755F756172745F696E697400DD
:101E200000030000021B02120000FFDF601E000022
:101E3000481E0000410A000000000000401E000093
:101E400000010000A8400020F8470020541E0000B8
:101E50006C1F0000AC4000205C1E000012FFFFFF62
:101E6000004800206C1E00006C1F0000BC400020D9
:101E7000741E00001BFFFFFF1D000000841E0000F9
:101E80000000000004000000080000000400000042
:101E900009000000000000000A00000000800000AF
:101EA0000B000000008000000C000000008000001B
:101EB0000D000000008000000E0000000040000047
:101EC0000F000000000300000001000004030000F8
:101ED00001010000100000000201000010000000DD
:101EE00003010000000100000801000010000000D4
:101EF00009010000100000000A01000010000000AD
:101F00000C01000000400000000200001000000072
:101F100001020000000000000602000000020000B4
:101F20000702000004020000080200000004000094
:101F30000C020000040400000D020000000000007C
:101F40000E020000000000000F020000000100006F
:101F5000000300000401000007040000400000002E
:101F60000D090000400000000E0900002D120000C5
:101F700051130000B112000031130000FD110000E8
:101F8000491100004D110000511100000D12000018
:0C1F90009D110000A111000000000000E5
:101F9C0000440100000010080000000000000000D8
:101FAC00000000000000080000000000000000001D
:0C1FBC000000000089040000590400002F
:020000040101F8
:10001800FFFFFFFFFFFFFFFFFFFFFFFFFFFFFFFFE8
:0C002800FFFFFFFFFFFFFFFFFFFFFFFFD8
:04000003000002A156
:00000001FF
