:020000040000FA
:1000000028180020A10A0000F5020000EF020000FD
:10001000EF020000EF020000EF020000EF0200001C
:10002000000000000000000000000000EF020000DF
:10003000EF02000000000000EF020000EF020000ED
:10004000751C00005B1D0000F51C00003D1B00003E
:1000500000000000000000000000000000000000A0
:100060000000000000000000000000000000000090
:100070000000000000000000000000000000000080
:100080000000000000000000000000000000000070
:100090000000000000000000000000000000000060
:1000A0000000000000000000000000000000000050
:1000B0000000000000000000000000000000000040
:1000C0000000000000000000000000000000000030
:1000D0000000000000000000000000000000000020
:1000E0000000000000000000000000000000000010
:1000F0000000000000000000000000000000000000
:1001000000000000000000000000000000000000EF
:1001100000000000000000000000000000000000DF
:1001200000000000000000000000000000000000CF
:1001300000000000000000000000000000000000BF
:1001400040EA01039B0703D009E008C9121F08C059
:10015000042AFAD203E011F8013B00F8013B521ED9
:10016000F9D27047D2B201E000F8012B491EFBD250
:1001700070470022F6E710B513460A4604461946B2
:10018000FFF7F0FF204610BD30B5044600200346BF
:1001900000E05B1C934203D2E05CCD5C401BF8D0D6
:1001A00030BD70B5064602F019F8046805460A220B
:1001B0000021304600F002F82C6070BD2DE9F047B8
:1001C00091460F4680460446002614F8015B2DB187
:1001D00000F02CF80068405DC007F6D12B2D02D04E
:1001E0002D2D18D0641E4A463946204600F022F8CC
:1001F00027B13968A14201D1C7F8008071054FF0DD
:1002000002040BD54042002803DD01F0E7FF046043
:10021000A007BDE8F08746F48066E4E70028F8DA36
:1002200001F0DCFF04606FF00040F2E70048704727
:10023000682200002DE9F05F82460078002715460D
:100240008B460AF10104B946302801D09DB113E074
:1002500014F8010B0127782803D0582801D045B1A4
:100260000AE00DB1102D07D10027102514F8010B5D
:1002700002E0082500E00A250026B0460EE005FB56
:10028000080005FB06F1012701EB10461FFA80F874
:10029000B6F5803F00D3B94614F8010B294600F0AB
:1002A00018F80028EBDABBF1000F05D00FB1641E7F
:1002B00000E05446CBF80040B9F1000F06D001F041
:1002C0008DFF02210160C81EBDE8F09F48EA06408C
:1002D000FAE73A2800D2303820F02002412A01D330
:1002E000A2F13700884201D34FF0FF30704700BEC3
:1002F000704700002DE9F04146F22018C4F20008D2
:10030000B8F80000B8F8201040F6EC5501EA0006F5
:10031000B7B20024C2F2000527FA04F0C00704D0E7
:1003200055F8241009B1204688470134102CF3D128
:10033000A8F81060BDE8F081B0B543F22404C4F21F
:1003400008040025C8200121257100F0F7F8257068
:1003500020780028FCD1207840F00200207000BFF7
:1003600020788007FCD4002004F8020C14F8020C5A
:100370000028FBD1002004F11C0100BF11F810205F
:1003800002F07F0201F8102011F91020002AFBD49E
:100390000130032808BFB0BDF0E74EF20043090169
:1003A000CEF20003C15440F60471C2F2000141F8DC
:1003B000202070474EF2001CCEF2000C090100EB29
:1003C0000C0383F8001340F60471C2F2000141F8F7
:1003D000202046F20031C4F2000151F82020012310
:1003E00022F4803241F8202051F8201000F01F0242
:1003F000400903FA02F20CEB8003BFF35F8FC3F8EE
:1004000080214CF82020704700F01F01012202FAE1
:1004100001F14EF280124009CEF2000242F82010A3
:10042000BFF34F8FBFF36F8F704746F20031C4F2B6
:10043000000151F820204EF2001C22F4803241F8D5
:10044000202051F8201000F01F0201234009CEF2B5
:10045000000C03FA02F20CEB8003BFF35F8FC3F8CA
:1004600080214CF82020704700F01F01012202FA81
:1004700001F14EF200124009CEF2000242F82010C3
:10048000704746F20031C4F2000151F8202022F4F6
:10049000803241F8202051F82000704780B50122B9
:1004A000EFF3108182F3108840F63462C2F200024A
:1004B00032F810308BB94EF2FE3C42F26C23C4F29B
:1004C000010CC0F20003BCF800E033F8103043EA3E
:1004D0000E0343F42543ACF8003032F810300133FA
:1004E00022F8103081F3108880BD0122EFF31081D3
:1004F00082F3108840F63462C2F2000232F8103003
:1005000023B132F81030013B22F8103032F81020BD
:100510008AB94EF2FE3CC4F2010C42F26C22BCF8E5
:100520000030C0F2000232F8100043F4254222EA03
:100530000000ACF8000081F31088704740F20052D0
:10054000C2F20002136801FB00F04CF60021C3F672
:100550009A3148F63812C0F24102B1FBF3F19042F1
:1005600007D24FF47A7200FB02F0B0FBF1F0800882
:1005700008E08900B0FBF1F0904207D24FF47A71A5
:1005800000FB01F008B100F096BF70474FF0FF305C
:1005900000F091BF7047022818BF704740F62C60EA
:1005A00042F27421C2F20000C0F2000100F00EB964
:1005B000062070470146406846F20032C4F200024D
:1005C00052F8203023F0807342F8203040F200428D
:1005D000C2F20002002342F8203000200B60704776
:1005E000416846F20032C4F2000252F8210020F0C5
:1005F0008073002042F821307047416846F2003293
:10060000C4F2000252F8210040F08073002042F84A
:1006100021307047406840F20042C2F2000252F8B6
:1006200020000022C1E90022C278402A05D24FF4FE
:1006300080328A60C089C8600FE04FF480728A609F
:10064000C289D2B2CA60C27802F0C002802A04D144
:100650004FF480320A608089486000207047F0B50E
:1006600081B041F20402C2F20002137840F2004667
:100670000D460446C2F20006DBB9012744F2000130
:100680001770EFF3108087F31088C4F208010A682E
:1006900022F480020A60096880F3108830464FF423
:1006A0008071FFF766FD45F20C40C4F200008660E1
:1006B000077068680068002804D456F8201019B143
:1006C00008200DE00B200BE02968606011B1204686
:1006D00001F0AAF844F20030C4F254402060002037
:1006E00001B0F0BDB0B50446406846F20035C4F232
:1006F000000555F8202022F0807245F8202060681F
:1007000045F20E4240F40040C4F2000213889842C1
:10071000FCD0204601F088F8616855F8210040F0CF
:100720008072002045F82120B0BD062070470000EF
:1007300010B582B001910092416840F2004246F249
:10074000003CC2F20002C4F2000C52F821E05CF856
:10075000212022F080724CF82120426845F20E419F
:10076000C4F2000142F400420C88A242FCD00822EC
:100770008A70019A12B1019ACEF80420009A12B13F
:10078000009ACEF808209EF8032002F0C004802CC6
:1007900002D1AEF80C3003E03F2A98BFAEF80E301D
:1007A00018228A7041685CF8210040F080720020B5
:1007B0004CF8212002B010BD06207047062070477B
:1007C00001464FF0A16200200A60704780B545F2F3
:1007D0005422C5F24F020260084601F047F800209B
:1007E00080BD10B541680446086B0022226020B12C
:1007F00081680068096A88476168C86A20B18168B1
:100800000068096A884761688868002802D4FFF791
:10081000FBFD61684868002802D4FFF7F5FD6168B8
:10082000C868FFF7F1FD60680069FFF7EDFDA0689B
:100830000022017801F0BF010170A168C878002092
:10084000CA7010BD2DE9F04F85B0814608784AF294
:100850000008C4F21108CF6A08EB00200D4600F131
:1008600004047FB178684FF0006100680160D7E947
:10087000011238680B689C60126890470646002891
:1008800040F0EC80286BB0B141684FF40022096859
:100890000A60D0E9011200680B685C60126890473A
:1008A00006462FB126B1B9683868096A8847D5E08D
:1008B000002E40F0D380D5E90D012E6AC9F824003E
:1008C0000020C9F82800D5E90620AC6A2B78C9F8C1
:1008D0002C1040EA4606E86B46EA0434066808EB4A
:1008E0000327B021002AC9F8045008BFB821C9F86D
:1008F000087016B141F0010104E01BB9002A08BFDD
:1009000044F08004D0E90137D0E903C624F0700434
:1009100044EA0C140397D0E905750495457F05F06A
:10092000030544EA85082AB1002200250292CDE998
:10093000002208E0026A48F460480292426A1025E8
:100940000192826A00920124EFF3108E84F31088E2
:1009500044F2040AD9F80420C4F2080A1278DAF83A
:1009600000B0C2F1130204FA02F22BEA0202CAF842
:100970000020DAF800208EF3108821EAC311D9F89C
:100980000820012FD4784FF00004D4704FEA4302BE
:1009900042EA4312D9F8083041EA020119704FF0D7
:1009A000010108BF0321002F18BF0D43039AD9F896
:1009B000081002FA0CF24A702021022E08BF3021E2
:1009C000D9F80820002E08BF31469170007FD9F871
:1009D00008108872D9F8080002990173D9F8080044
:1009E00001994173D9F8080000998173D9F808007A
:1009F000C573D9F80800A0F81080D9F80800049948
:100A000080F82010D9F80800102180F82110D9F8BA
:100A100004108868002805D4497D4A46FFF7CAFCBF
:100A2000D9F804104868002805D4097D4A46FFF724
:100A3000C1FCD9F804100869C97D4A46FFF7BAFC21
:100A4000D9F804104A46C868897DFFF7A6FC45F22C
:100A50004900C5F253200026C9F80000304605B011
:100A6000BDE8F08F80B582B09C4613460A4600214F
:100A7000CDF800C000F077FF02B080BD80B582B035
:100A80009C4613460022CDF800C000F06CFF02B077
:100A900080BDDDF800C0CDF800C000F064BF0000EC
:100AA00000F0A2FA00F0BAFEFEE710B540F20454DE
:100AB000C2F200042078532818BF00F009FBE06E52
:100AC000216F081A18BF012010BD10B50B46EFF3B7
:100AD00011844FF0200181F31188194600F003F8CA
:100AE00084F3118810BD2DE9F04381B040F2045623
:100AF000C2F20006144632788946532A054618BFCA
:100B000000F0E6FA05EB450006EBC000C66E076F85
:100B100000F16008B74213D9D8E90101CD1BA54205
:100B200028BF2546C11948462A46FFF709FBD8F8D1
:100B30000800E919A944641B0F1A18BF0F4600E00A
:100B40000025F01BA04238BF044644B1D8F8040089
:100B50002246C1194846FFF7F3FA254427440DB150
:100B6000C8F81070284601B0BDE8F083F0B581B038
:100B7000144640F20452C2F2000212780D46532A83
:100B8000064618BF00F0A4FAEFF311874FF02001DA
:100B900081F3118830462946224600F004F887F395
:100BA000118801B0F0BD2DE9F04381B000EB4000A9
:100BB00040F20453C2F2000303EBC0031446D86AA8
:100BC0008946022803F1180517D001280DD050B925
:100BD000EE682869B0428FBFF143A968F243104420
:100BE0000844A04234D2002451E0EE682969B142A1
:100BF0000BD9F243A86811440BE028464946224627
:100C000001B0BDE8F04300F043BBA868F2431144D3
:100C10000144A14238BF0C46871B6868BC4230447F
:100C200007D249462246FFF78BFABFF35F8F26446F
:100C30000CE049463A46FFF783FAE61B686809EB81
:100C400007013246FFF77CFABFF35F8FEE601EE0CC
:100C5000D5E9010130448F1BBC4208D249462246E7
:100C6000FFF76EFABFF35F8F06EB04080DE049460D
:100C70003A46FFF765FAA4EB0708686809EB070135
:100C80004246FFF75DFABFF35F8FC5F80C80204640
:100C900001B0BDE8F08382B080B582B0CDE9042315
:100CA00004AA019201AA00F005F802B0BDE8804054
:100CB00002B070472DE9F04F9BB0934606AA1692FA
:100CC00040221792002200278A4605901A90CDE90B
:100CD000182200BF1AF8012B252A07D0002A00F09D
:100CE000598116A8114600F0B3FA38E1881C4FF07C
:100CF000000800BF9AF800102C2905DC232909D030
:100D00002B2911D1042108E02D2905D030290BD140
:100D1000022102E0082100E0012148EA01080AF16D
:100D2000010A0130E6E700BFA1F13A02002612F104
:100D30000A0F0ED306EB860201EB420210F8011BEC
:100D4000A2F13006A1F13A0313F10B0FF2D8A0F192
:100D5000010A2E290ED1514611F8010F2A280CD173
:100D6000DBF800000AF1020A011DCBF8001004684C
:100D70001FE000BF002000241CE0A0F13A0212F1A5
:100D80000A0F03D2002000248A4613E00AF1020170
:100D9000002400BF04EB840200EB420211F8010BB7
:100DA000A2F13004A0F13A0313F10B0FF2D8A1F134
:100DB000010A01201AF8011B01F0FB02682AF9D090
:100DC00063290FDC25292FD0582924D0632940F02E
:100DD000C680DBF80000011DCBF80010017816A8D2
:100DE00081E700BFA1F17002082A20D8DFE802F0F5
:100DF00005B7B753B74CB7B71300DBF800001022A4
:100E0000011DCBF80010016816A80823002708264A
:100E1000CDE90067A1E0DBF800001022011DCBF84E
:100E20000010016816A895E016A825215BE7642943
:100E300040F09580DBF80000011DCBF8001005683C
:100E4000C5F1000C002D284600D560464CF6CD4378
:100E50000A28CCF6CC434FF0010907DBA0FB0312B4
:100E600063284FEAD20009F10109F7D84C4588BF41
:100E7000A1468EB30020002D48BF012008F00401D8
:100E800040EA9100361A28E0DBF80000011DCBF89B
:100E9000001001685CE0DBF800100A1DCBF80020B0
:100EA0000E6844A23146002E18BF012100EA010558
:100EB00008BF16463178002951D0B4FA84F04009B1
:100EC00028404CD116A8013600F0C2F9199F013C08
:100ED000B7F1FF3FEEDC68E000265FEA88710BD5D2
:100EE00054B9002F3BD4002D24D45FEA48700495F8
:100EF0002BD503912B2121E05FEAC870F1D1002EA0
:100F0000EFD0B145EDD2CDE902C10495751E00BF09
:100F100016A8202100F09CF9199F002F45D4681EC7
:100F2000A84202D2A9450546F2D3DDE902C1049DDB
:100F3000461CD6E703912D21CDF810C016A800F06D
:100F400087F9199F0399002F2FD400290ED40499F3
:100F500016A80A222346CDE9006800F0F9F8199F87
:100F60005146B7F1FF3F3FF7B5AE1EE008F0010074
:100F70002043ECD1002EEAD0751EB54238BFB145F2
:100F8000E5D216A8302100F063F9199F2E46002FF4
:100F9000F2D50AE047B1189C24B1059806A922466B
:100FA000FFF7E4FD274400E0002738461BB0BDE80A
:100FB000F08F00BF284E554C4C2900004EF2200007
:100FC000C4F201008179006841F21002C2F200020D
:100FD000C0F3026052F8211021FA00F040F20051F3
:100FE000C2F200010860704770B54EF6085040F23A
:100FF0000004CEF200004FF47001C0F20004C0F80B
:10100000801004600020FFF7C6FA00F077F9012095
:10101000FFF7C1FA206840F61031A0F5806080F338
:101020000A8840F20050C2F20000C0F20001FFF74F
:10103000A0F840F2000043F2000140F20052C2F278
:101040000000C0F20001C0F20002FFF779F840F2A0
:10105000401440F24010C0F20004C0F20000001B37
:101060008510012D06DB264656F8040B20448047E8
:10107000013DF9D1FFF7A2FFFFF75EF90320FFF76B
:101080000DFA4FF610510020C4F201014FF6FF7225
:1010900021F8102001300928FAD10320FFF725FAA2
:1010A0000320FFF7FBF90420C4F20E0000210160C9
:1010B00041608160C1600320FFF717FA0220FFF74B
:1010C0006AFA00F0B1F90020BDE8704000F0ABB959
:1010D00010B540F20454C2F200042046A821FFF7E4
:1010E00048F803202061606142F6892040F2EC510B
:1010F000C0F20000C2F20001A061E1614FF40061A2
:1011000021620021A1626162E162206640F2AC507E
:10111000C2F2000060664020A0662167E166616758
:10112000BFF35F8F0F2005A10A5C013804F8012B83
:10113000421CF9D1BFF35F8F10BD00BF000000005B
:1011400000005454522052454747455300000000C8
:101150002DE9F04F81B0DDF828A01F4615468B46DB
:10116000914281464FF0010405D35846B0FBF5F09B
:101170000134A842FAD20B99A74288BF3C46BAF183
:10118000000F1DD011F001001AD14FF02008880780
:1011900048BF4FF030082020002F18BF804600BF06
:1011A000BAF1000F0CD054450AD248464146AAF184
:1011B000010A00F04DF8D9F80C00B0F1FF3FEFDC68
:1011C000D9F80C00002838D4012600BF022F01D323
:1011D000013F03E0BBFBF6F0A84202D306FB05F695
:1011E000F4E70FF25C0800BFBBFBF6F7484618F8BF
:1011F000071000F02DF8D9F80C00002806D4B6FB33
:10120000F5F007FB16BBB5420646EDD90B98C007B3
:1012100018BFBAF1000F10D009E04846202100F0B5
:1012200017F8D9F80C00AA46B0F1FF3F05DDAAF186
:101230000105554538BF5445EFD301B0BDE8F08FE7
:1012400030313233343536373839414243444546FC
:1012500010B50446D0E90120431C934207D8226808
:101260001154E06862680130E0601846A360904263
:1012700018BF10BD21682069FFF778FCA16888427B
:1012800002D10020A06010BD4FF0FF30E06010BD23
:101290002DE9F04381B0C76814460D4680464FF0F3
:1012A000000900BFD8F81010D8F80800FA43B94276
:1012B0001144A0EB070698BF0144B14238BF0E4667
:1012C000D8F80400A64228BF2646384429463246AC
:1012D000FEF736FFD8F80800F119A41B0F1AB14425
:1012E00018BF0F463544BFF35F8F002CC8F80C7051
:1012F000D8D1484601B0BDE8F08300002DE9F041A7
:101300004EF2FE34C4F201044AF20350208047F248
:101310000000C4F20000012181604FF6C478016032
:1013200041F2100546F6004041F20022C4F27E0868
:10133000C2F20005C0F2DC20C0F27A0288F8041084
:10134000C5E900024BF200404FF40041C0F2C44036
:101350004EF22007C5E902122961C4F20107686153
:10136000B879396855F82000C1F3026140F200569F
:10137000C840C2F20006306008206075092087F876
:10138000820094F8820018B994F88300800745D051
:1013900094F8820050B9012084F88200C82001210D
:1013A000FFF7CCF894F882000128FBD1002084F8E4
:1013B000830084F8820000BF97F88000C006FBD449
:1013C000002087F8800000BF97F88000C006FBD49B
:1013D0000020B874387F0007FCD54FF4985038814E
:1013E0000020B872387F8006FCD502207874012076
:1013F00088F8000040F21010C1F2000038600520AB
:10140000B871B879396855F82000C1F30261C84055
:1014100030604FF425402080BDE8F0814FF47A70B1
:10142000FFF7B8F8C8E77047F0B583B048F248074F
:101430000320C4F20007FFF731F86FF0FF003860B7
:101440004FF0FF3042F22844CDE900000020012196
:10145000C0F200046A4600BF54F8203053B1450979
:1014600000F01F0352F8256001FA03F326EA030394
:1014700042F8253001304028EED1DDE900014EF27E
:101480008032CEF20002B86210600320F96251602F
:10149000FFF72BF846F200310020C4F2000100BF34
:1014A00054F820200AB141F820200130402804BF20
:1014B00003B0F0BDF4E701380028FCD1704700000C
:1014C0002DE9F04104460088A0B343F2400700250F
:1014D0000FF26408C4F20807002600BF606858F8DD
:1014E000262000EBC500416891421CD1006800F045
:1014F000B85117F91600B1F1807F07D1002812D436
:1015000017F8160060F07F0007E000BFB0F1FF3F62
:1015100009DC17F8160000F07F0007F81600C82055
:101520000121FFF70BF80136032ED7D120880135B2
:101530008542D1D3BDE8F08102040000030400001D
:101540000404000080B542F62531C0F200010020FD
:10155000FFF7A1FB42F69221C0F200010020BDE896
:101560008040FFF798BB00002DE9F04F93B00020BA
:10157000129002A84021FEF7FCFD12A8FFF720F907
:1015800042F62124C0F2000400202146FFF783FB2D
:1015900042F6DC11C0F200010020FFF77CFB42F6AE
:1015A00015117AA2C0F200010020FFF774FB9DF82C
:1015B00049709DF84A309DF84B2042F69311C0F2D5
:1015C000000100200097FFF766FB00202146FFF78F
:1015D00062FB42F62B01C0F200010020FFF75BFB2B
:1015E00042F20E71C0F200010020FFF754FB68A127
:1015F0000020FFF750FB00F009FB70B104466BA11F
:101600000020FFF748FB42F21061C0F20001002009
:101610002246FFF740FB00BE03E06BA10020FFF76E
:101620003AFB42F6AB01C0F2000100204FF0000887
:10163000FFF731FB42F6581BC0F2000B0020594661
:10164000FFF729FB42F6791AC0F2000A0020514642
:10165000FFF721FB64A10020FFF71DFB42F210649D
:1016600042F6D20502AFC0F20004C0F2000500BF8E
:10167000FFF71BFA002800F07B800020394640224B
:10168000FFF723FA3846FEF78CFD5FFA80F8B8F1D1
:10169000030F2ED0B8F1020F17D0B8F1010F37D1D8
:1016A00000F09EFB002854D042F2476181460020A2
:1016B000C0F20001FFF7EFFA00F00EFA0020214619
:1016C0004A46FFF7E8FA00BE4AE000F055FCA0B336
:1016D00042F2706106460020C0F20001FFF7DBFA1B
:1016E00000F0FAF9002021463246FFF7D4FA00BE96
:1016F00036E000F05FFA30B3064600203FA1FFF766
:10170000CAFA002021463246FFF7C5FA00BE27E09C
:1017100042F6AB010020C0F20001FFF7BCFA002046
:101720005946FFF7B8FA00205146FFF7B4FA42F2E3
:1017300030610020C0F2000110E042F2C2610020DE
:10174000C0F200010AE042F2EB610020C0F20001A9
:1017500004E042F295610020C0F20001FFF79BFA1D
:10176000A8F10100012803D800202946FFF793FAC9
:10177000B8F1030F7FF47CAF42F66621C0F200019E
:101780000020FFF788FA13B0BDE8F08F312E30004B
:101790000D0A202A2A20535049204D4F44453A2013
:1017A000534C415645202A2A200D0A000D0A202AB2
:1017B0002A2053504920494E4954204641494C451E
:1017C00044202A2A200D0A000D0A202A2A205350DC
:1017D0004920494E49542053554343455353465598
:1017E0004C202A2A200D0A000D0A507265737320BE
:1017F0003320746F20457869740D0A000D0A2A2A77
:101800002053504920455849542044656D6F206647
:1018100061696C6564202A2A0D0A000080B5FFF713
:10182000A3FE002080BD000001F10E0212F80B3C67
:10183000402B06D3B2F800C05FFA8CF343EA0C23C6
:10184000138012F80C3C10323F2BEFD845F21042B7
:10185000C4F2000208231370406840F20043C2F251
:10186000000343F8201018201070704770B504462C
:10187000FFF726FE40F63C6CEFF31080012181F368
:101880001088C2F2000CDCF8001039B94FF6035191
:10189000C4F2010100220A7040220A70DCF8001034
:1018A0000131CCF8001080F31088208818B34FF66F
:1018B000000E0021C4F2010E606800EBC10250F876
:1018C00031305268DD034FEA1220D2B20BD50EEB55
:1018D000801555F8226026F4803645F8226023F4FE
:1018E000803645F822600EEB8010013140F822303E
:1018F00020888142E0D30120EFF3108180F310882B
:10190000DCF8000020B1DCF800000138CCF8000061
:10191000DCF8000038B94FF60350C4F20100002291
:1019200002708022027081F3108870BD10B584B0FF
:101930000446806A30B1D0E900C283680393CDE9E0
:1019400001C200E001A86268D4F824C01278E36AFA
:10195000C0E900218360E047A06A10B101AB0ECB63
:101960000EC004B010BD70B5044680680078400613
:1019700044BF082070BD04F10C0C1D460E46002328
:101980008CE80E006168A3610B6B0498E56120622E
:10199000D3B31028A56107D358680068C17801F057
:1019A000CF012031C17009E0596807280968CB7858
:1019B00023F0300088BF40F01000C8706068006BF2
:1019C00040680068817801F0F30101F1080181703D
:1019D0006068006B41680968CD818A6062B9887867
:1019E00041F2080200F0F30088706068C2F2000261
:1019F000006B416809688A60826800685268904795
:101A000000B170BD6168206AC96A002941D0102800
:101A1000656107D348680068C17801F0CF012031C3
:101A2000C17009E0496807280968CA7822F03000C7
:101A300088BF40F01000C8706068C06A40680068E5
:101A4000C17801F0F30101F10801C1706068C06A5A
:101A500040680068C581466066B9C17801F0F3014D
:101A6000C170606841F20C01C06AC2F200014068B6
:101A700000684160A068017801F0DF0101706068D2
:101A8000C16A07C9526809689047002818BF70BD2D
:101A9000206AA1681028CB7A0A8A03D303F09F0337
:101AA000203305E007288CBF03F09F0343F0400379
:101AB000461CFB250F2888BF05EB960022F47062B8
:101AC000CB7242EA0020A1680882A068017841F048
:101AD00060010170002070BD80B540F6C460C2F2A4
:101AE0000000FEF77EFE50B142F6634104A208A357
:101AF000C0F200010020BDE88040FFF7CCB880BDF7
:101B00007370695F636C65616E5F757000000000E3
:101B10002A2A20525F5350495F436C6F73652041FE
:101B2000504920666F7220736C617665206661692A
:101B30006C6564202A2A0D0A0000000070B5EFF3DE
:101B400003806FF35F20A0F1100440F60470C2F22E
:101B5000000050F8245068688068002801D4FEF71F
:101B600053FCA868017801F0BF01017068688068C3
:101B7000002801D4FEF759FCA8680021C678C1707E
:101B8000320703D528460521FFF7D0FEF00703D022
:101B900028460421FFF7CAFE06F01400142803D1DA
:101BA00028460821FFF7C2FE2046BDE87040FEF738
:101BB00068BC000010B540F6C460C2F20000FEF739
:101BC00010FE044640B142F6634104A207A3C0F2EE
:101BD00000010020FFF75FF8204610BD7370695FB9
:101BE000657869745F64656D6F0000000D0A536C61
:101BF00061766520525F5350495F436C6F7365286F
:101C000029206661696C65640000000010B540F62B
:101C1000C46042F22851C2F20000C0F20001FEF797
:101C200011FE044640B142F6634104A206A3C0F28D
:101C300000010020FFF72FF8204610BD7370695F88
:101C4000696E6974000000002A2A20525F535049CF
:101C50005F4F70656E2041504920666F722053506F
:101C60004920536C617665206661696C6564202A41
:101C70002A0D0A0010B5EFF303806FF35F20A0F187
:101C800010042046FEF7FDFB40F60470C2F200008F
:101C900050F82400D0E9061291421BD002693AB1F3
:101CA000046A102C07D383685B6842F821300BE08C
:101CB0008268526808E08368072C02D81B79535465
:101CC00002E09B8822F81130C269013191428161A2
:101CD00018BF10BD4068C068BDE81040FEF7C4BB27
:101CE000406840F64061C2F20001012818BF02209E
:101CF00008607047B0B5EFF303806FF35F20A0F189
:101D000010052846FEF7BDFB40F60470C2F2000045
:101D100050F82540A068C078800704D560688069C5
:101D2000012818BFB0BD2846FEF76EFB60688068CA
:101D3000002801D4FEF768FBA068017801F0BF011C
:101D4000017060688068002801D4FEF76EFB2046B1
:101D50000121BDE8B040FFF7E9BD10B5EFF3038006
:101D60006FF35F20A0F110042046FEF78AFB40F6D7
:101D70000470C2F2000050F824406068C16B81B169
:101D8000496801290DD1E169626901398A4203D1AB
:101D9000C068FEF74AFB04E0C16A11B1C068FEF7F3
:101DA00063FB6069E169884208BF10BDE16839B131
:101DB000236A102B08D351F82010A26851600CE060
:101DC000A16800224A6008E0A268072B02D8095CDB
:101DD000117102E031F8101091800130606110BD86
:101DE00010B582B000208DF807008DF8060040F68F
:101DF0004460C2F200004021FEF7BBF942F64E31CA
:101E0000C0F200010020FEF746FF40F6C460C2F2B7
:101E100000000DF1070101220723FEF723FE70B138
:101E200042F6634142F6D53242F6F7330446C0F239
:101E300000010020C0F20002C0F200032AE000F01E
:101E40006DF970B142F6634142F6D53242F6F6239F
:101E50000446C0F200010020C0F20002C0F20003FC
:101E600018E040F6C460C2F200000DF10701012243
:101E70000723FEF703FE90B142F6634142F6D532E6
:101E800042F634430446C0F200010020C0F20002D2
:101E9000C0F20003FEF7FFFE204602B010BD00F0C6
:101EA0003DF90028CED19DF8072040F6C46040F6E9
:101EB0004461C2F20000C2F200011F23FEF7D2FD0E
:101EC0000028ADD100F02AF90028BBD19DF80720E9
:101ED00040F6C46040F64461C2F20000C2F2000164
:101EE0001F23FEF7CBFD0028C6D100F017F900280C
:101EF000A8D140F6C460C2F200000DF10601012233
:101F00000723FEF7AFFD00287FF48AAF00F006F943
:101F1000002897D19DF8060058B142F68631C0F2EC
:101F200000010020FEF7B7FEFFF70CFB40F22F1474
:101F3000B2E740F6446204A10020C2F2000200248D
:101F4000FEF7A9FEA8E700BF0D0A4D617374657224
:101F50002073656E647320746F20536C6176652006
:101F60007769746820746865206D6573736167654F
:101F70003A2025730D0A000070B58CB042F68040FF
:101F8000C0F2000090E81E50D0E906560291D0E958
:101F90000801059440F64464C2F20004CDE90A0148
:101FA0002046402103920493CDF818C0CDF81CE0E0
:101FB000CDE90856FEF7DDF840F68460C2F2000075
:101FC0004021FEF7D6F842F64E31C0F20001002063
:101FD000FEF761FE40F6C4601F26C2F2000002A9AF
:101FE000224610230096FEF754FD70B142F663417D
:101FF00042F6E83242F613430446C0F200010020E4
:10200000C0F20002C0F2000310E000F087F890B1C7
:1020100042F6634142F6E83242F6F6230446C0F245
:1020200000010020C0F20002C0F20003FEF733FE00
:1020300020460CB070BD40F64464C2F200041DA1FD
:1020400000202246FEF727FE40F6C46040F6846278
:102050001F26C2F20000C2F20002214610230096A1
:10206000FEF717FD0028C1D100F058F80028CFD1A5
:1020700042F6804040F68461C0F20000C2F20001E6
:102080002722FEF781F858B142F6A721C0F20001DD
:102090000020FEF700FEFFF755FA40F22F14C7E7C5
:1020A00040F6846210A10020C2F200020024FEF774
:1020B000F2FDBDE70D0A536C6176652072656365BC
:1020C000697665642066726F6D204D617374657208
:1020D000207769746820746865206D657373616723
:1020E000653A2025730D0A000D0A4D6173746572FF
:1020F0002072656365697665642066726F6D205332
:102100006C617665207769746820746865206D65F8
:1021100073736167653A2025730D0A00B0B540F20C
:10212000240449F2005040F64065C2F20004C0F6B3
:10213000BA20C2F200052060286801280CD020686F
:1021400001382060206850B12868022826D001207C
:102150000121FEF7F3F9EFE700202860B0BD42F659
:10216000634142F6514242F6F623C0F200010020DC
:10217000C0F20002C0F20003FEF78DFD42F62531E9
:10218000C0F200010020FEF786FD42F69221C0F267
:1021900000010020FEF77FFD1420B0BD42F6634130
:1021A00042F6514242F6F623C0F200010020C0F28E
:1021B0000002C0F20003FEF76EFD42F62531C0F2C8
:1021C00000010020FEF767FD42F69221C0F20001F7
:1021D0000020FEF760FD4FF49670B0BD00487047D8
:1021E000000000200040404040404040404041410D
:1021F00041414140404040404040404040404040DC
:102200004040404040050202020202020202020275
:102210000202020202202020202020202020200272
:102220000202020202029090909090901010101002
:10223000101010101010101010101010101010109E
:102240000202020202028888888888880808080832
:1022500008080808080808080808080808080808FE
:102260000202020240000000E5210000010002001D
:10227000080010003500000080220000000000006F
:1022800000400000000000000040000001000000CD
:102290000080000002000000008000000300000039
:1022A0000080000004000000000001000A0000009F
:1022B000000001000B000000000001070001000009
:1022C00000000107010100000040000004010000BF
:1022D00000400000050100000400000006010000AD
:1022E00000000100080100000000010509010000D4
:1022F000000001050A010000000001050B010000BB
:10230000000001050C0100000000010001020000B6
:102310000000010609020000000001060A02000098
:10232000000001060B020000000001000C0200008A
:10233000000001000D020000000001000E0200007C
:10234000000001000F020000000001000003000077
:102350000000000001030000000000000203000074
:10236000000000000503000000000000060300005C
:102370000000000007030000000001070004000047
:102380000000010701040000000000000D0400002F
:10239000000001110005000000000111010500000E
:1023A00000000111020500000000011103050000FA
:1023B00000000111040500000000011105050000E6
:1023C00000000105060500000000010507050000EA
:1023D00000000000080500000000000009050000E2
:1023E000008000000A050000008000000B050000CE
:1023F000008000000C050000008000000D050000BA
:1024000004000000010600000400000009060000AE
:10241000040000000A060000000001000E08000091
:10242000000001000F080000C4010000C501000009
:10243000C8010000C701000000000000000000000B
:10244000000000000000000000000000000000008C
:10245000000000000000000000000000000000007C
:10246000000000000000000000000000000000006C
:10247000000000000000000000000000000000005C
:10248000000000000000000000000000000000004C
:10249000000000000000000000000000000000003C
:1024A000000000000000000000000000000000002C
:1024B000000000000000000000000000000000001C
:1024C000000000000000000000000000000000000C
:1024D00000000000000000000000000000000000FC
:1024E00000000000000000000000000000000000EC
:1024F00000000000000000000000000000000000DC
:1025000000000000000000000000000000000000CB
:1025100000000000000000000000000000000000BB
:1025200000000000000000000000000000000000AB
:10253000010000000200000003000000020202028D
:102540000100000001000000000000000100000088
:102550000000000094250000AC250000E11C0000F4
:1025600000000000682500000100000000000000DD
:10257000000000000000000000000000000000005B
:102580000000000027000000000000000000000024
:1025900000000000F40E0020A0250000C42500006B
:1025A00004000020A825000001000000FC0E00200F
:1025B000B8250000C425000014000020C02500003C
:1025C000000000005F060000E50600003107000083
:1025D000FB050000E1050000B9070000BD07000091
:1025E00015060000B50500002B070000B10500002E
:1025F000004C0000000001200000000800800000E6
:102600000000012000000008000000000000002081
:102610000D0A52657475726E6564204572726F7230
:1026200020436F64653A203078257820200D0A0019
:102630000D0A5072657373203320666F72204578DF
:10264000697428290D0A000D0A2A2A2053504920AE
:10265000575249544520414E44205245414420445C
:10266000656D6F206661696C6564202A2A0D0A0019
:102670000D0A2A2A205350492057524954452052C6
:102680004541442044656D6F206661696C65642036
:102690002A2A0D0A000D0A2A2A205350492057528F
:1026A00049544520414E4420524541442044656DE3
:1026B0006F205375636365737366756C202A2A0DEA
:1026C0000A000D0A2A2A20535049205752495445DE
:1026D00020524541442044656D6F20537563636506
:1026E000737366756C202A2A0D0A000D0A2A2A20A7
:1026F00053504920455849542044656D6F20537507
:10270000636365737366756C202A2A0D0A000D0ACF
:102710005468652070726F6A65637420696E6974AD
:1027200069616C697A6573205350492064726976D7
:10273000657220616E6420636F6E6669677572658D
:102740007320535049206368616E6E656C73206915
:102750006E204D617374657220616E6420536C61EC
:102760007665206D6F64652E0D0A41667465722072
:10277000696E697469616C697A6174696F6E2C2025
:102780004D617374657220616E6420536C6176656F
:102790002063616E207472616E736D697420616E66
:1027A00064207265636569766520646174610D0AF1
:1027B0006261736564206F6E2074686520636F6D5D
:1027C0006D616E64732066726F6D2074686520752C
:1027D0007365722E0D0A526566657220746F2074DF
:1027E0006865204D43552055736572204D616E75A7
:1027F000616C20666F722076616C69642062697416
:1028000020726174657320616E6420636F727265FB
:1028100073706F6E64696E6720636C6F636B207397
:10282000657474696E67732E0D0A000D0A52656631
:10283000657220746F20726561646D652E747874A2
:102840002066696C6520666F72206D6F726520640A
:10285000657461696C73206F6E204578616D706C72
:10286000652050726F6A65637420616E640D0A465C
:10287000535020557365722773204D616E75616CDE
:1028800020666F72206D6F726520696E666F726D63
:102890006174696F6E2061626F757420725F73700E
:1028A00069206472697665720D0A000D0A53656CC1
:1028B0006563742066726F6D207468652062656C54
:1028C0006F77204D656E75206F7074696F6E730D34
:1028D0000A000D0A456E74657220616E79206B6581
:1028E0007920286F74686572207468616E20312CBD
:1028F00020322C20332920746F20676F206261639F
:102900006B20746F20746865206D61696E206D6541
:102910006E750D0A000D0A2A2020204578616D7021
:102920006C652050726F6A656374205665727369B6
:102930006F6E2025732020202020202020202020A2
:102940002020202020202020202020202020202087
:1029500020202020202020000D0A50726573732053
:102960003120666F72205772697465282920616E64
:102970006420526561642829000D0A5072657373E2
:10298000203220666F7220577269746552656164E7
:102990002829002A0D0A2A202020466C6578205319
:1029A0006F667477617265205061636B2056657243
:1029B00073696F6E202025642E25642E25642020E7
:1029C0002020202020202020202020202020202007
:1029D000202020202020202020202A000D0A2A202C
:1029E000202052656E6573617320465350204578F0
:1029F000616D706C652050726F6A65637420666FDC
:102A00007220725F737069204D6F64756C65202051
:102A10002020202020202020202020202020202AAC
:102A2000000D0A2A2A2A2A2A2A2A2A2A2A2A2A2A6D
:102A30002A2A2A2A2A2A2A2A2A2A2A2A2A2A2A2AF6
:102A40002A2A2A2A2A2A2A2A2A2A2A2A2A2A2A2AE6
:102A50002A2A2A2A2A2A2A2A2A2A2A2A2A2A2A2AD6
:102A60002A2A2A2A2A001B5B313B33366D0D0A4580
:102A7000786974696E67205350492064656D6F2EC4
:102A80002E2E0D0A1B5B306D005465726D696E61F0
:102A90006C000D0A526573657420746865204D439F
:102AA000552E2E2E0D0A000D0A4D6173746572208D
:102AB00072656365697665642061206D6573736115
:102AC0006765207468617420646F6573206E6F742D
:102AD000206D6174636820746865206F6E65207472
:102AE00072616E736D697474656420627920536CD1
:102AF0006176650D0A000D0A535049206D6F6475AB
:102B00006C6520626C6F636B656420696E20577220
:102B10006974652F52656164206F706572617469B4
:102B20006F6E0D0A000D0A4572726F7220696E2079
:102B3000636F6E66696775726174696F6E206F721C
:102B400020636F6E6E656374696F6E0D0A000D0A07
:102B500057616974696E6720666F722074686520BA
:102B60007472616E736D6974746564206D657373DE
:102B70006167652066726F6D20746865204D6173B2
:102B80007465720D0A000D0A536C617665207265DA
:102B90006365697665642061206D6573736167653F
:102BA000207468617420646F6573206E6F74206D8B
:102BB0006174636820746865206F6E65207472614B
:102BC0006E736D6974746564206279204D617374ED
:102BD00065720D0A007370695F77726974655F6171
:102BE0006E645F72656164007370695F77726974A7
:102BF000655F72656164000D0A536C6176652052F1
:102C00005F5350495F526561642829206661696C91
:102C10006564000D0A536C61766520525F5350491C
:102C20005F5772697465526561642829206661691D
:102C30006C6564000D0A536C61766520525F5350D9
:102C4000495F57726974652829206661696C6564FB
:102C500000776169745F7472616E736665725F6537
:102C60006E64005B4552525D20496E2046756E636E
:102C700074696F6E3A20257328292C202573000073
:102C8000546869732069732061206D65737361678F
:102C9000652066726F6D2074686520536C6176657F
:102CA000206465766963650000000805352E382EBE
:102CB00030004275696C7420776974682052656EC3
:102CC0006573617320416476616E63656420466C50
:102CD000657869626C6520536F66747761726520F0
:102CE0005061636B6167652076657273696F6E20F2
:102CF000352E382E300000000000000000000000DB
:102D000000000000000000000000000000000000C3
:102D100000000000000000000000000000000000B3
:102D200000000000000000000000000000000000A3
:102D30000000000000000000000000000000000093
:103000000000000000001018000000000000000098
:103010000000000000000810000000000000000098
:10302000000000000095BA0A000000000000000047
:103030000000000000000000000000000000000090
:103040000000000000000000000000000000000080
:103050000000000000000000000000000000000070
:103060000000000000000000000000000000000060
:020000040100F9
:020000040100F9
:10A20000FEF1FFFFFFFFFFFFFFFFFFFFFFFFFFFF6D
:10A21000FFFFFFFFFFFFFFFFFFFFFFFFFFFFFFFF4E
:10A22000FFFFFFFFFFFFFFFFFFFFFFFFFFFFFFFF3E
:10A23000FFFFFFFFFFFFFFFFFFFFFFFFFFFFFFFF2E
:10A24000FFFFFFFFFFFFFFFFFFFFFFFFFFFFFFFF1E
:10A25000FFFFFFFFFFFFFFFFFFFFFFFFFFFFFFFF0E
:10A26000FFFFFFFFFFFFFFFFFFFFFFFFFFFFFFFFFE
:10A27000FFFFFFFFFFFFFFFFFFFFFFFFFFFFFFFFEE
:10A28000F8F0FFFFFFFFFFFFFFFFFFFFFFFFFFFFF4
:10A29000FFFFFFFFFFFFFFFFFFFFFFFFFFFFFFFFCE
:10A2A000FFFFFFFFFFFFFFFFFFFFFFFFFFFFFFFFBE
:10A2B000FFFFFFFFFFFFFFFFFFFFFFFFFFFFFFFFAE
:10A2C000FFFFFFFFFFFFFFFFFFFFFFFFFFFFFFFF9E
:10A2D000FFFFFFFFFFFFFFFFFFFFFFFFFFFFFFFF8E
:10A2E000FFFFFFFFFFFFFFFFFFFFFFFFFFFFFFFF7E
:10A2F000FFFFFFFFFFFFFFFFFFFFFFFFFFFFFFFF6E
:0400000500000AA14C
:00000001FF
