:10000000400A0020152F0000F9110000212F0000E8
:10001000212F0000212F0000212F0000212F0000A0
:10002000000000000000000000000000212F000080
:10003000212F000000000000212F0000212F0000D0
:10004000000000006F2C00006F2C0000C32C00008B
:1000500000000000000000000000000000000000A0
:100060000000000000000000000000000000000090
:100070000000000000000000000000000000000080
:100080000000000000000000000000000000000070
:100090000000000000000000000000000000000060
:1000A0000000000000000000000000000000000050
:1000B0000000000000000000000000000000000040
:10040000FFFFFFFFDFCEFFFFFCFF0F00FFFF0F002E
:10041000FCFF0F00FFFF0F00FCFF0F00FFFF0F00AE
:10042000FCFF0F20FFFF0F20FCFF7F40FFFF7F40FE
:10043000FCFF0D40FFFF0D40FFFFFFFF030504051C
:1004400005050000030000003C040000010001005D
:100450000000000001000000FF0000004C0400004C
:1004600002010202020300007B1E000000000000E7
:10047000000000000D0A2A2A2A2A2A2A2A2A2A2AC1
:100480002A2A2A2A2A2A2A2A2A2A2A2A2A2A2A2ACC
:100490002A2A2A2A2A2A2A2A2A2A2A2A2A2A2A2ABC
:1004A0002A2A2A2A2A2A2A2A2A2A2A2A2A2A2A2AAC
:1004B0002A2A2A2A2A2A2A2A0D0A2A202020526594
:1004C0006E6573617320465350204578616D706C82
:1004D000652050726F6A65637420666F7220725F68
:1004E000727463204D6F64756C652020202020207D
:1004F00020202020202020202020202A0D0A2A2011
:1005000020204578616D706C652050726F6A65635C
:10051000742056657273696F6E2025732020202029
:1005200020202020202020202020202020202020CB
:1005300020202020202020202020202020202A0DC4
:100540000A2A202020466C657820536F66747761F4
:100550007265205061636B2056657273696F6E20FF
:100560002025642E25642E25642020202020202094
:10057000202020202020202020202020202020207B
:1005800020202020202A0D0A2A2A2A2A2A2A2A2A3A
:100590002A2A2A2A2A2A2A2A2A2A2A2A2A2A2A2ABB
:1005A0002A2A2A2A2A2A2A2A2A2A2A2A2A2A2A2AAB
:1005B0002A2A2A2A2A2A2A2A2A2A2A2A2A2A2A2A9B
:1005C0002A2A2A2A2A2A2A2A2A2A0D0A52656665EE
:1005D0007220746F20726561646D652E747874206A
:1005E00066696C6520666F72206D6F726520646548
:1005F0007461696C73206F6E204578616D706C65F5
:100600002050726F6A65637420616E640D0A4653F0
:100610005020557365722773204D616E75616C2093
:10062000666F72206D6F726520696E666F726D61A4
:1006300074696F6E2061626F757420725F7274638B
:10064000206472697665720D0A0000000D0A546814
:1006500065206578616D706C652070726F6A656386
:10066000742064656D6F6E7374726174657320526B
:100670005443206D6F64756C652E0D0A5573696E59
:10068000672052545420696E7075742C2075736500
:10069000722063616E20736574205254432043615D
:1006A0006C656E6461722074696D6520616E642092
:1006B00043616C656E64617220616C61726D0D0ADC
:1006C000557365722063616E20656E61626C652092
:1006D000706572696F64696320696E7465727275A2
:1006E000707420616E642076696577207468652077
:1006F00063757272656E74205254432043616C6559
:100700006E6461722074696D652E0D0A0000000030
:100710000D0A2A2A2A2A2A2A2A2A2A2A2A2A2A2A76
:100720002A2A20525443204170706C6963617469B5
:100730006F6E204D656E75202A2A2A2A2A2A2A2AB7
:100740002A2A2A2A2A2A2A2A0D0A31203A20205324
:100750006574205254432043616C656E646172205D
:100760004461746520616E642054696D650D0A32C0
:10077000203A2020536574205254432043616C6515
:100780006E64617220416C61726D204461746520F9
:10079000616E642054696D650D0A33203A20205340
:1007A00065742052544320506572696F64696320F8
:1007B000495251205261746520616E642053746106
:1007C00072742069740D0A34203A20204765742021
:1007D00043757272656E742052544320446174658F
:1007E00020616E642054696D650D0A557365722031
:1007F000496E707574203A20200000000D0A202AEE
:100800002A2047657474696E6720525443204361FF
:100810006C656E6461722074696D65206661696CD7
:100820006564202A2A200D0A000000000D0A2052CB
:10083000544320416C61726D206F63637572726501
:1008400064206174202044617465203A2025642F5F
:1008500025642F2564200A2054696D6520203A20E4
:100860002564203A202564203A202564200D0A0AB8
:10087000000000000D0A204C45442077696C6C2074
:100880006265207475726E6564204F4E20666F72CB
:100890002032207365636F6E6473200D0A000000C0
:1008A0000D0A456E74657220616E79206B65792042
:1008B000286F74686572207468616E20312C322C48
:1008C000332C342920746F20676F206261636B20A2
:1008D000746F20746865206D656E75200D0A0000C8
:1008E0000D0A202A2A20525F494F504F52545F5020
:1008F000696E52656164204641494C4544202A2A6C
:10090000200D0A000D0A5254432043616C656E6449
:1009100061722054696D6520536574206661696C4D
:1009200065642E0D0A436C6F73696E672074686589
:10093000206472697665722E2052657374617274D8
:1009400020746865204170706C69636174696F6EB2
:100950000D0A00000D0A5254432043616C656E6419
:1009600061722054696D652069732073657420730A
:1009700075636365737366756C6C79000D0A525408
:10098000432043616C656E64617220416C61726DDD
:1009900020536574206661696C65642E0D0A436C92
:1009A0006F73696E6720746865206472697665721A
:1009B0002E205265737461727420746865204170D2
:1009C000706C69636174696F6E0D0A000D0A506C7A
:1009D0006561736520736574205254432063616CB4
:1009E000656E646172204461746520616E64205498
:1009F000696D650D0A0000000D0A525443204361E1
:100A00006C656E64617220416C61726D2069732047
:100A1000736574207375636365737366756C6C7945
:100A2000000000000D0A506572696F6469632069F7
:100A30006E7465727275707420726174652073656E
:100A40007474696E67206661696C65642E0D0A4373
:100A50006C6F73696E67207468652064726976656F
:100A6000722E20526573746172742074686520411F
:100A700070706C69636174696F6E0D0A000000002C
:100A80000D0A506572696F64696320696E746572DE
:100A90007275707420726174652069732073657457
:100AA000207375636365737366756C6C7900000001
:100AB0000D0A47657474696E672063757272656E9E
:100AC00074205254432043616C656E6461722074DB
:100AD000696D65206661696C65642E0D0A436C6FF3
:100AE00073696E6720746865206472697665722E1A
:100AF000205265737461727420746865204170704F
:100B00006C69636174696F6E0D0A00000D0A4765B8
:100B10007474696E672063757272656E74205254C6
:100B2000432043616C656E6461722074696D652059
:100B30006973207375636365737366756C00000079
:100B40000D0A202A2A20525F494F504F52545F50BD
:100B5000696E5772697465204641494C4544202AA4
:100B60002A200D0A000000000080000000000000A4
:100B70000080000001000000008000000200000072
:100B8000008000000300000000400000040000009E
:100B9000008000000C000000008000000E0000003B
:100BA000004000000F0000000000010600010000EE
:100BB0000000010601010000000001060201000022
:100BC000000001060301000000000106050100000D
:100BD00000000106060100000400000007010000FB
:100BE00000000100080100000400000009010000ED
:100BF000104000000A010000040000000B0100008A
:100C0000040000000C010000040000000D010000C1
:100C100000000105020200000000010503020000BF
:100C200000000105040200000000010505020000AB
:100C3000040000000602000004000000070200009B
:100C40000400000008020000000001000003000092
:100C50004000010401030000400001040203000001
:100C6000040000000303000004000000040300006F
:100C70000000010300040000104000000204000016
:100C8000000001070704000000000107080400003D
:100C90001040000009040000000001040A040000E4
:100CA000000001040B040000040000000005000027
:100CB000400001050105000040000105020500009B
:100CC000040000000305000004000000040500000B
:100CD00004000000050500002E000000680B000065
:100CE000000000000D0A525443206D6F64756C655E
:100CF000206F70656E206661696C65642E0D0A5206
:100D000065737461727420746865204170706C69D9
:100D1000636174696F6E0D0A000000000D0A456E74
:100D2000746572204461746520616E642054696D3D
:100D30006520696E2044443A4D4D3A59595959201D
:100D400048483A4D4D3A535320666F726D61742E88
:100D50000A53616D706C6520496E7075743A202776
:100D600030343A31313A323031392031353A323358
:100D70003A3035270D0A00000D0A205254432063F3
:100D8000616C656E6461722073657420746F2020DD
:100D900044617465203A2025642F25642F25642042
:100DA0000A2054696D6520203A202564203A2025C8
:100DB00064203A202564200D0A0A0000000000008B
:100DC0000000000000000000000000000000000023
:100DD0000000000000000000000000000000000013
:100DE0000000000000000000000000000000000003
:100DF00000000000000000000000000000000000F3
:100E000000000000000000000000000000000000E2
:100E100000000000000000000000000000000000D2
:100E200000000000000000000000000000000000C2
:100E3000000000000D0A53657474696E67204361F9
:100E40006C656E64617220416C61726D20666F72B8
:100E500020525443200D0A000D0A456E746572201D
:100E60007365636F6E64732076616C7565202846C8
:100E70006F726D61743A2053532920666F72207728
:100E8000686963682072656375727369766520614D
:100E90006C61726D2068617320746F2062652073CD
:100EA00065742E200A506C6561736520696E7075DB
:100EB00074207365636F6E64732076616C75652052
:100EC000696E207468652072616E67652062657462
:100ED0007765656E20303020616E642035392E0ACA
:100EE00053616D706C6520496E7075743A202733BC
:100EF00035270D0A000000000D0A5365636F6E640C
:100F0000732076616C756520666F722077686963FF
:100F10006820616C61726D206973207365743A207A
:100F2000256400000D0A2053657474696E672050B3
:100F30006572696F646963204952512072617465FA
:100F400020666F7220525443200D0A000D0A50652E
:100F500072696F64696320696E746572727570740A
:100F600020726174652073657474696E67206661B0
:100F7000696C65642E0D0A000D0A47657474696E0C
:100F800067205254432043616C656E646172207423
:100F9000696D65206661696C65642E0D0A0000004C
:100FA0000D0A20525443202044617465203A2025C4
:100FB000642F25642F2564200A202020202020541F
:100FC000696D65203A202564203A202564203A2066
:100FD0002564200D0A0A00002A2A20525443206D5D
:100FE0006F64756C6520436C6F7365206661696C16
:100FF0006564202A2A20200D0A0000000004040451
:1010000000000000000000000000000000000000E0
:10101000000000000000000000000000000021159A
:10102000110E0D0C0B0B0A0A090909090908080819
:10103000080808080707070707070707070707073C
:1010400007000000303132333435363738396162C9
:10105000636465666768696A6B6C6D6E6F707172E8
:10106000737475767778797A000000002A490B78D6
:1010700098420FD0294A137813B99379DB07FCD52E
:1010800001220B781B091342FAD108700878000975
:101090001042FBD17047224988790968214A8000B3
:1010A00010584901490FC8401F4908607047F8B5FA
:1010B0001F4C4AF2035020801C4F01253D711948F6
:1010C0001C4901601C494160E90381601B49C16002
:1010D00000260661FFF7DFFF002060750920184930
:1010E0000870184805700020FFF7C0FF0C48002169
:1010F0008175017F2942FCD045743D70810D0160EE
:101100008671FFF7C8FF4AF200502080F1BD002031
:101110000D49087070470000A0E0014036E0014032
:1011200020E00140400E00203C060020C4FF7E402D
:10113000FEE30140006CDC0200127A000024F4009F
:10114000A2E0014080E401402840044020B103496E
:101150000968016000207047012070478830000056
:1011600038B548430400124812490968B0FBF1F54C
:101170002000002140F2E832002300F023F801298A
:1011800006D2B0FBF5F0800808B100F015F831BDCB
:10119000A800B4FBF0F0002140F2E832002300F098
:1011A00011F8012900D8EFD30020C043EDE700007B
:1011B00000CA9A3B3C06002001380028FCD1704749
:1011C0007047000030B4434351435D18010C0C00DC
:1011D000130C5C432D1980B2434392B25143002457
:1011E000C918644124040B04090C09195043C018A0
:1011F000694130BC70470000F8B50C4F3C88388C12
:1012000004400025084E2000E840C00703D531689F
:1012100009B1E8B288476D1C361DE8B20D28F2DB33
:101220003C82F1BD00000000000000202061004071
:101230003349800008180168324A0A400260006899
:10124000704710B50400FFF7F3FFBFF35F8F012075
:10125000E106C90E88402C4962099200885010BDF1
:1012600070B40300294C9D08AD006419C500182016
:1012700028402568FF268640B5438907090E81402E
:101280002943216022489900425070BC70470000F9
:101290000121C206D20E91401E4A40098000115021
:1012A000704710B504000CE00121C206D20E914037
:1012B000194A400980001150BFF34F8FBFF36F8F61
:1012C0007047FFF7BEFF2000FFF7E2FF10BD0020D0
:1012D00012490B4A0B7803B11360401C4B7803B1E1
:1012E0005360401C8B7803B19360401CCB7803B1F2
:1012F000D360401C1032091D2028EBD3704700003A
:1013000000630040FFFFFEFF80E200E000E400E039
:101310003800002000E100E080E100E0FC0F000068
:1013200010B4EFF31081012282F310884000194AB3
:101330001218138813B113885B1E138012884AB9E0
:10134000154A13884AF200541C4300BF13A3185ACD
:101350008443148081F3108810BC704730B4EFF3DD
:101360001081012282F3108840000A4A1218138863
:101370004BB9094B1C8800BF08A5285A20434AF2E4
:10138000005404431C801088401C108081F3108896
:1013900030BC7047B8000020FEE3014001000200AD
:1013A00008001000F8B586B058A000680590002726
:1013B00069460F7405A8FFF7C9FEB14E05A841782C
:1013C000019181780091C378AEA23100002000F035
:1013D000E1FB40F2D8103118002000F0DBFB00F0F8
:1013E000E7FB04000FD000BFBEA300BFB3A200BF45
:1013F000B5A1002000F0CEFB2CB12200C0A100203E
:1014000000F0C8FB00BE40F29C203118002000F024
:10141000C1FB9D4C27E0206B012824D104AA9B48E6
:10142000406801889A4800F033FE050011D000F0B2
:101430002DFD40F26C403318A0A200BFA2A10020F5
:1014400000F0A8FB2DB12A00ADA1002000F0A2FB06
:1014500000BE6846007C0121414068460174084690
:1014600000F0EAF8276300F0CDFF08B100F050F873
:10147000E06A0128CFD100BFA9A1002000F08AFBBB
:101480002100844801F008F905002AD1200000F06D
:10149000EBFC2068039060680290A068019060698E
:1014A00000902369E26840F2B8303118002000F063
:1014B00071FB40F200403118002000F06BFB01206E
:1014C00000F0BAF874490220FFF74AFE002000F04D
:1014D000B3F8E76240F22C403118002000F05AFBCC
:1014E00099E700F0D3FC40F28830331873A200BFB4
:1014F00075A1002000F04EFB002DC7D02A0000BFD0
:101500007FA1002000F046FB00BEBFE70000000006
:1015100038B588B02021684601F0FAFB20226946E0
:10152000002000F01EFF684601F0B5FCC0B20128A3
:1015300007D000D279E003283CD015D3042854D03A
:1015400073E000F045FB040003D000F09FFC534B18
:1015500037E04B4C40F2E0402118002000F01AFB2D
:1015600040F22C40211861E000F0C6FB040003D0DB
:1015700000F08CFC4A4B24E04A4D28680128404C7E
:101580000ED140F258502118002000F003FB40F229
:101590002C402118002000F0FDFA0020286048E0CF
:1015A00040F284502118002000F0F4FA40F22C4060
:1015B00021183BE000F012FC04000BD000F066FCA8
:1015C000394B00BF5DA200BF3FA1002000F0E2FA4E
:1015D000CCB92EE02A4C40F20C602118002000F01B
:1015E000D9FA40F22C40211820E000F00DFC040054
:1015F00010D000F04BFC2D4B50A200BF32A10020B8
:1016000000F0C8FAACB122003DA1002000F0C2FAFF
:1016100000BE0EE01A4C40F298602118002000F045
:10162000B9FA40F22C40211800E02149002000F0D6
:10163000B1FA09B030BD000010B50200134840688F
:101640000188134800F03AFD040010D000F01EFCA1
:10165000184B00BF3EA200BF1BA1002000F09AFA69
:101660002CB1220026A1002000F094FA00BE10BD8B
:10167000022803D11049064800F0F4BC704700006E
:1016800074040000312E3000E0000020440400000B
:10169000C0000020C800002040420F0004090000E4
:1016A0007C09000014010020240A0000B00A000098
:1016B00010070000400B0000D80C000068616C5F50
:1016C000656E7472790000005B4552525D20496E70
:1016D0002046756E6374696F6E3A20257328292C35
:1016E000202573000D0A202A2A2052544320494EF7
:1016F0004954204641494C4544202A2A200D0A00DD
:101700000D0A52657475726E6564204572726F724F
:1017100020436F64653A203078257820200D0A0038
:101720000D0A2052544320416C61726D20496E7441
:10173000657272757074200D0A0000007265616434
:101740005F496E7075745F66726F6D5F52545400BE
:101750006C65645F6C6576656C5F73657400000032
:1017600010B50400A068421C6368934205D3236847
:101770001954A260E068401CE060A2686068824280
:101780000CD12168206900F024FEA168884203D0B2
:101790000020C043E06010BD0020A06010BD00002C
:1017A000F3B583B00C460125012102E0B4FBF2F44D
:1017B000491C9442FAD202921F008F4200D3390092
:1017C000019100900A9E0B98C00715D4A6B10B9802
:1017D000800700D50FB120240BE0302409E0761EED
:1017E00021000098FFF7BCFF0098C068002803D4D0
:1017F00056B10198B042F2D30098C068002835D4A1
:1018000002E07F1E02984543012FFAD80498B0FBEE
:10181000F5F00299884202D308464543F6E704985A
:10182000B0FBF5F211006943401A049010A0815CEE
:101830000098FFF795FF0098C068002804D402982C
:10184000B5FBF0F5002DEAD1009C0B98C0070DD533
:1018500066B1019DB54209D2761E20212000FFF716
:101860007FFFE068002801D4002EF3D105B0F0BD61
:1018700030313233343536373839414243444546C6
:10188000F1B59AB00AA8029040200390002004907D
:101890001A9B069305900F00079238787F1C00284A
:1018A00000D167E1252800D05CE1002603E030008C
:1018B000012606437F1C387823280BD02B2806D01E
:1018C0002D28F4D0302808D130000226F1E730006E
:1018D0000426EEE730000826EBE7002405E07F1C35
:1018E000A100091949000C18303C397808000200A1
:1018F000303A0A2AF3D30020009008902E291DD1F7
:101900007F1C39782A2908D17F1C012007990A6891
:101910001168121D079B1A600DE0002106E00120EE
:101920007F1C8B0059184900891830393A78130008
:10193000303B0A2BF3D3089100E07F1C39786C29E7
:10194000FBD06829F9D0252900D106E1582900D11A
:10195000B9E063290ED0642914D0702900D1ECE0DD
:10196000732900D1B9E0752900D1A1E0782900D10F
:10197000A9E0F5E0079801680868091D079A116059
:10198000C1B2EAE0079801680868091D079A11606A
:1019900009900246002A00D55242012001210A2363
:1019A00002E092FBF3F2491C0A2AFADA089D8D4202
:1019B00000D20D002CB10999002901D4710700D57E
:1019C000641EB10701D5089931B3304024D11CB34E
:1019D000A54221D2641E0498411C039A8A4207D270
:1019E000049A039882420BD00598002814D411E081
:1019F0002022029B1A5404910598401C0590EFE7A1
:101A00000299069800F0E5FC0499884242D10098BA
:101A10000490E9E724B1DBE70598002800D59FE0B2
:101A20000998002803D5414209912D2102E0700751
:101A300007D52B2102A8FFF793FE0598002800D5B3
:101A40008EE0B007800F02282CD1089850BB4CB311
:101A5000A54224D2641E0498411C039A8A4207D2EC
:101A6000049A039882420BD00598002817D414E0FA
:101A70003022029B1A5404910598401C0590EFE710
:101A80000299069800F0A5FC0499884202D10098BA
:101A90000490E9E70020C04378E01CB1D8E705983E
:101AA00000285DD401960094089B0A22099950E011
:101AB000079800680168001D079A1060019600945D
:101AC000089B0A2245E0079800680168001D079AF4
:101AD000106001960094089B3AE0079909680C6829
:101AE000091D079A11600CB92FA400980600089DE3
:101AF0002078641CA0B3310600D08DB304994A1C31
:101B0000039B934208D2049A039882420BD06D1E25
:101B100005980028ECD523E0029B585404920598C0
:101B2000401C0590EFE70299069800F052FC0499DA
:101B30008842AFD100980490E9E7079800680168EF
:101B4000001D079A106000200190082000900823D3
:101B5000102202A8FFF724FE02E002A8FFF700FE11
:101B60007F1C03E0010002A8FFF7FAFD059800289A
:101B700000D492E60598002809DD049A1AB10AA952
:101B80001A9800F026FC05980499401805900598CD
:101B90001BB0F0BD0CB480B502AA00926A46FFF7F4
:101BA0006FFE019904B00847284E554C4C2900009F
:101BB00010B5AB49AB4800F043FC040006D0BA4B6B
:101BC000C8A200BFCAA10020FFF7E4FF200010BD9B
:101BD000F8B58CB0202104A801F09AF8D1A100201A
:101BE000FFF7D8FFB14D29000020FFF7D3FF00F029
:101BF00009FC0028FBD0202204A9002000F0B1FB42
:101C0000AB4CAC4804A90A7893009A1852004B7860
:101C1000D2181218E260CA7893009A1852000B7911
:101C2000D218A54BD21822618A7940F2E8335A4380
:101C3000CB7964267343D2180B7A9E00F3185B00AD
:101C4000D2184B7AD2189D4BD2186261CA7A93008F
:101C50009A1852000B7BD2181218A2608A7B93004C
:101C60009A185200CB7BD218121862604A7C9300FB
:101C70009A185200897C511808182060904E210053
:101C8000300000F06AFC07000AD000BFADA300BF1F
:101C90009EA200BF96A10020FFF77CFF380029E03C
:101CA00021002C31300000F0F7FC06000AD000BF04
:101CB000ACA300BF95A200BF8DA10020FFF76AFF73
:101CC000300017E0E36B5B1C206C40F26C71401835
:101CD0002064E363E16A0391216B0291616B0191DE
:101CE0000090A26B29005C310020FFF753FF012018
:101CF000A06500200DB0F0BD70B5A6B00024714DF8
:101D000008A829003C2201F0CDF817A829003C3191
:101D10003C2201F0C7F82021684600F0F9FF644832
:101D2000806D012853D1290078310020FFF732FF60
:101D300008A82E2284542D22845401212C2281545F
:101D40002F228454302284543121445429009C3160
:101D50000020FFF71FFF00F055FB0028FBD02022DA
:101D60006946002000F0FDFA684601788A005118A3
:101D70004900407808184F4940180890394C08A984
:101D8000200000F019FD06000AD000BF83A300BFA9
:101D90007CA200BF56A10020FFF7FCFE30001AE035
:101DA00017A9200000F00EFE040008D083A300BF96
:101DB00074A200BF4EA10020FFF7ECFE0AE0179AC4
:101DC00040F23C1029180020FFF7E4FE02E0012059
:101DD0003D490860200026B070BD000038B53B4D7D
:101DE00029000020FFF7D6FE0E21354800F05CFEEA
:101DF000040007D02B00283378A200BF3CA10020AC
:101E0000FFF7C8FE200032BD38B584B0284C210051
:101E10002C31144800F040FC050009D02C4B00BFC9
:101E200074A200BF32A10020FFF7B4FE280014E026
:101E3000E36B5B1C206C40F26C7140182064E36320
:101E4000E16A0391216B0291616B01910090A26B99
:101E500020490020FFF79EFE002005B030BD0000A5
:101E600054040000C80000200169491C0161416957
:101E700040F26C72891841617047007810B90120F6
:101E8000154901E0012015490860704780B50C48EC
:101E900000F020FB30B1124B5CA200BF14A1002067
:101EA000FFF778FE01BD0000E40C00001C0D0000EF
:101EB00018010020F0FDFFFFEFFDFFFF4428FFFFAA
:101EC000C8000020BC0D000014010020240F0000F9
:101ED000780F0000A00F00000C010020100100206E
:101EE000D80F00007274635F696E697400000000AF
:101EF0005B4552525D20496E2046756E6374696F72
:101F00006E3A20257328292C202573007365745F91
:101F10007274635F63616C656E6461725F74696D36
:101F2000650000000D0A53657474696E6720525491
:101F300043204461746520616E642054696D65209E
:101F40000D0A00000D0A43616C656E64617254698C
:101F50006D6520536574206661696C65642E0D0A99
:101F6000000000000D0A43616C656E646172546983
:101F70006D6520476574206661696C65642E0D0A85
:101F8000000000007365745F7274635F63616C6569
:101F90006E6461725F616C61726D00000D0A436175
:101FA0006C656E64617220616C61726D2053657442
:101FB000206661696C65642E0D0A00000D0A43619C
:101FC0006C656E64617220616C61726D204765742E
:101FD000206661696C65642E0D0A00007365745F8C
:101FE0007274635F706572696F6469635F72617454
:101FF000650000006765745F7274635F63616C65A0
:102000006E6461725F74696D650000007274635F75
:102010006465696E69740000EFF31080012181F33B
:10202000108839490A6822B9384A002313704023BE
:1020300013700A68521C0A6011E0EFF3108001214E
:1020400081F3108830490A6812B10A68521E0A608A
:10205000096821B92D4900220A7080220A7080F394
:102060001088704780B50200080052B148B141683D
:1020700009B9018829B9264913688B4203D10E207A
:1020800002BD012002BD116000F044F8002002BD35
:1020900090B100681E4B98420CD16AB135480B0ACA
:1020A0009B01C0180906890D40588007C10F1170A7
:1020B00000207047072070470120704730B478B186
:1020C0000068134B98420DD1022A0DDA002300203C
:1020D000FF24E4430C4001258D403AB92B0406E06F
:1020E00001200EE007200CE003200AE0280022492E
:1020F000240422161206D20C891880B203438B6086
:10210000002030BC7047000034000020030D044064
:1021100054524F5038B50400FFF77EFF002508E009
:102120006068EA008158001D805A00F008F86D1CB4
:10213000ADB220888542F3DBFFF77FFF31BD10B4DD
:10214000CA030CD50B4B040AA4011B190206920DFD
:102150009A180A4B14681C4014600B401360054A1F
:10216000030A9B01D2180006800D115010BC704765
:10217000000000000008044000000440FFFFFEFFD4
:1021800038B57D4CA821200000F0C0FD032020615F
:10219000606100BF1BA1A1612000A830E06140F296
:1021A000004020620020A0626062E062216640F28E
:1021B000A841611861662021A1662067E06660671A
:1021C000BFF35F8F12A10A000F3213782370401CF7
:1021D0000B000F3345425B5D6370401C0B000F33F7
:1021E00045425B5DA370401C0B000F3345425B5DB5
:1021F000E370401C241D121F1028E6D3BFF35F8F2D
:1022000031BD00005465726D696E616C00000000A4
:1022100000000000000054545220524547474553E7
:1022200000000000FEB50026C76800900C001500F5
:1022300000980069874201D2C01B03E000998968B9
:10224000C91B0818401E00998968C91B88421AD208
:10225000A84200D928000190024621000098406859
:10226000C01900F039FE0198361824182D1A3F18AD
:1022700000988068874208D0BFF35F8F0098C760DE
:10228000002DD5D103E00800E2E70027F4E7300095
:1022900003B0F0BDF8B504000D001600E768A068B3
:1022A000C01B0090864207D26068C01900F014FE7F
:1022B000BFF35F8FBE190DE002466068C01900F0E1
:1022C0000BFE0098361A32002918606800F004FEF0
:1022D000BFF35F8FE660F1BD0169C2688A4200D337
:1022E000A7E0A3E0F7B505000C00234E3078532893
:1022F00001D0FFF745FF68004019C0003518603570
:102300002E69E86800900027B04214D2A868871BA5
:102310000298874200D907003A00686881192000B6
:1023200000F0DAFDE4190298C01B0290F619A868C3
:10233000864200D100260098801B0299884200D96D
:102340000800009040B1024668688119200000F042
:10235000C3FD00983F18361807B12E61380003B04E
:10236000F0BD10B5EFF31084012383F31088FFF75D
:10237000B9FF84F3108810BD7401002070B50E0001
:1023800014001F4942001018C0000D181835686964
:1023900018B1022813D006D318E02800FFF79CFFDD
:1023A000A04206D212E02800FFF796FFA04200D814
:1023B0000400220031002800FFF76CFF07E0220034
:1023C00031002800FFF72EFF040000E00024200069
:1023D00070BD70B504000D00160009480078532840
:1023E00001D0FFF7CDFE320029002000EFF310846A
:1023F000012383F31088FFF7C1FF84F3108870BDB9
:102400007401002010B5084C2078532801D0FFF744
:10241000B7FE200060300169C068814201D0012010
:1024200010BD002010BD000074010020881A401E5D
:1024300070478068401E801A4018704700000000F6
:1024400070B5040007D00D0005D0924E2068B04250
:1024500003D10E2070BD012070BD65606869E06029
:10246000A8696061002020612978012925D1696867
:10247000083940F2F71291422AD220722900200036
:1024800000F042FB0F202856010003D42200A97B54
:10249000FEF7E6FE0D202856010003D42200297B1A
:1024A000FEF7DEFE11202856010003D42200297C0D
:1024B000FEF7D6FE2660002070BD616889684A6814
:1024C0000B78012B02D14978022901D0402AD4D3BC
:1024D000032070BD38B504003BD020686D498842A8
:1024E00039D10025AF480021017001780029FCD1C5
:1024F0008178FE220A4082708178C907FCD4606826
:102500000F214056010007D4FEF7CEFEA6486168B1
:102510000F2289568900455060680D214056010000
:1025200007D4FEF7C1FEA04861680D2289568900D4
:102530004550606811214056010007D4FEF7B4FEF3
:10254000994861681122895689004550256000200C
:1025500032BD012032BD072032BDF8B5070000D1E1
:1025600091E00C0000D18EE038684A49884200D0E2
:102570008BE020683C2800D389E060683C2800D3C9
:1025800085E0A068182800D381E0200000F0F2FA6E
:1025900000287CD1864D2878FE2101402970012633
:1025A00028783042FCD12368DBB282480A2193FBB1
:1025B000F1F21201944693FBF1F24A439A1A6346F0
:1025C0001A4302706368DBB293FBF1F21201944686
:1025D00093FBF1F24A439A1A63461A438270A36846
:1025E000DBB293FBF1F21201944693FBF1F24A4302
:1025F0009A1A63461A439206920E0271A369DBB2DD
:1026000093FBF1F21201944693FBF1F24A439A1ABA
:1026100063461A438271E368DBB293FBF1F2120165
:10262000944693FBF1F24A439A1A63461A430272A4
:1026300023695B1CDBB293FBF1F21201944693FB1E
:10264000F1F24A439A1A63461A43827263699C33D1
:10265000DBB293FBF1F212011C0094FBF1F34B434C
:10266000E31A1343DBB283817868017811B980687B
:1026700000F0B9FA28780121014329702878304206
:10268000FCD00020F2BD0120F2BD0720F2BD0320E6
:10269000F2BD000043545200F8B504007BD00D0099
:1026A00079D020684149884277D16068112140562D
:1026B000010074D4C249420992008958C006C00E74
:1026C000C140CE07F60F0CD13648022102780A43EA
:1026D000027002780A42FCD0606811214056FEF771
:1026E000E0FD00202072334801780F220B099F0083
:1026F000FB185B0011405918C9B2296081780B0999
:102700009F00FB185B0011405918C9B2696001793C
:102710008906890E0B099F00FB185B0011405918B0
:10272000A96081790B099F00FB185B0011405918C3
:10273000C9B2A961017A0B099F00FB185B00114027
:102740005918C9B2E960817A0B099F00FB185B0038
:1027500011405918C9B2491E296180890106090F23
:102760008B005918490002408818C0B26430686173
:10277000207A0028B5D166B90A480178FD220A40BE
:10278000027001788907FCD4606811214056FEF779
:102790008BFD0020F2BD0120F2BD0720F2BD0B2011
:1027A000F2BD000022400440380000204354520093
:1027B0002440044002400440F8B504002BD00D0032
:1027C00029D02068B749884227D160680D2140563A
:1027D000002869D42C20285C10B128683C2818D225
:1027E0002D20285C10B168683C2812D22E20285C6D
:1027F00010B1A86818280CD23120285C78B130219B
:10280000695C99B12F21695C61B1280000F0B2F9CF
:1028100058B30320F2BD0120F2BD0720F2BD3021E4
:10282000695C39B129690C29F3D218B16869643837
:102830006428EED2E8683022AA5C3AB12A69012AFB
:1028400001D11D2203E0AE4B9A5C00E01F222F2332
:10285000EB5C23B10028DCDDC1B28A42D9D332203F
:10286000285C10B1A8690728D3D260680D214456AE
:102870002000FEF719FD2C20285CB8B969460870C5
:10288000A048097801702D21695CE9B16B68DBB261
:102890000A2293FBF2F6360193FBF2F75743DF1B54
:1028A0003743C90139430FE00B20F2BD2A68D2B289
:1028B0000A2192FBF1F31B0192FBF1F64E43961BAA
:1028C0001E43C0013043D9E76A4611706946097852
:1028D00081702E216A5C6AB1AB68DBB20A2193FB7E
:1028E000F1F6360193FBF1F74F43DF1B3743D1017C
:1028F000394300E000216A46117069460978017188
:102900003221695C19B1AA69C90111436A46117083
:102910006946097881712F216A5C6AB1EB68DBB284
:102920000A2193FBF1F6360193FBF1F74F43DF1BCE
:102930003743D101394300E001216A4611706946ED
:102940000978017230216A5C72B12B695B1CDBB2C1
:102950000A2193FBF1F6360193FBF1F74F43DF1B9E
:102960003743D101394300E000216A4611706946BE
:10297000097881723121695C71B16B699C33DBB27A
:102980000A2293FBF2F52D0193FBF2F656439E1BB0
:102990002E436A46167002E000226B461A706A46A1
:1029A00012788281C9018173817C01220A43827479
:1029B000817CC907FCD52000FEF773FC0020F2BD26
:1029C00000E100E0F0B4002867D0002965D000687D
:1029D000344A904263D14B4A14787F202500054049
:1029E0000F232E09B700BE1976001D4075190D6022
:1029F000E4092C254C559478250005402E09B70094
:102A0000BE1976001D4075194D60E4092D254C5501
:102A10001479250005402E09B700BE1976001D4027
:102A200075198D60E4092E254C55947925000540D3
:102A30002E09B700BE1976001D4075198D61E40995
:102A400032254C55147A250005402E09B700BE19D1
:102A500076001D407519CD60E4092F254C55947AF8
:102A600020400509AE0075196D0018402818401E59
:102A70000861E0093024085590890406240FA50058
:102A80002C1964000340E018C0B264304861907BA8
:102A9000C00931228854002002E0012000E0072014
:102AA000F0BC70474354520010B510B302688B4B12
:102AB0009A4220D142680F23D256002A1DD4884A58
:102AC00013781B071B0F0C011C43147013781B0990
:102AD0008B42FBD10421137804241C431470137817
:102AE0000B42FCD040680F214056FEF7DAFB002075
:102AF00010BD012010BD072010BD0B2010BD00002F
:102B0000EC2C00001040044070B504000E00744D21
:102B100060680078A8710121C820FEF721FBA87821
:102B2000FE210140A9700120A9780142FCD1616811
:102B30000978012903D10021298171686981002167
:102B40000022AA70AA78D209FCD1AA7802231343E2
:102B5000AB70AA7852080242FBD12970297800296B
:102B6000FCD1A97840220A43AA70A97889090142B8
:102B7000FBD070BD70B4C16803695C1C466940F24B
:102B80006C757519643E642E2AD20C2B28D200BFB6
:102B900056A6F35C022C02D1AE0700D11D230129F9
:102BA0001EDB8B421CD3032C01D20C346D1E07227A
:102BB000641C0D235C430523B4FBF3F3C9184919C6
:102BC000AB08C9180F39B1FBF2F35343CB1A9B1D65
:102BD000B3FBF2F15143591A09B28161002000E0C0
:102BE000032070BC7047D0B40300187859789A78E5
:102BF0005B683C4C2678360901273740B84214D030
:102C00000026A672A67A002EFCD12778EF263E4039
:102C1000B4460701102637406646374327702678AA
:102C20003609012737408742F9D1012813D120788E
:102C3000400901260640B1420DD02678DF20304001
:102C40004F0120263740074327702078400901268E
:102C500006408E42F9D190019906890E0143C9B20E
:102C60000800A072A07A8842FCD1D0BC70477CB525
:102C7000EFF30384103C1C48210689154558E86889
:102C8000D8B169680D22895660B2884201D100230B
:102C900000E002232A690AB96A4603E003CA083A37
:102CA0006E4603C61370686950601000E968884773
:102CB0002A6912B1684603C803C260B2FEF7B8FAC7
:102CC00073BDEFF3038010380121074A03069B15FB
:102CD000D258117240B2FEF7ABBA00004354520012
:102CE0002240044024400440380000201F1C1F1EC6
:102CF0001F1E1F1F1E1F1E1F094205D0830709D05C
:102D00000270401C491EF9D1704700000022F3E711
:102D10000022FFE71300103906D330B41400150069
:102D200010393CC0FCD230BC490700D30CC000D5E0
:102D300004C0890002D30280801C002900D50270E3
:102D400070470000FCB587B0002B02D00023089C20
:102D500023600390054600E06D1C28780300093BC2
:102D6000052BF9D32028F7D02D2801D02B2803D10B
:102D70006B4618706D1C02E02B206B461870019199
:102D8000002A03D4012A01D0252A03DB002953D0CD
:102D9000039850E0002A0ADD102A16D1287830283E
:102DA00013D168782021014378290ED10AE02878D0
:102DB000302801D00A2208E06878202101437829D0
:102DC00002D11022AD1C00E00822069500E06D1C27
:102DD00028783028FBD0002405952B497944A83168
:102DE0002831597002920494274E7E449A3608E0A6
:102DF000049469464978471AFFB202984443E4199B
:102E00006D1C2978080041381A2800D22031029A16
:102E10003000283000F06EF80028E9D1029938001F
:102E20002F002500049C069ABA4207D10198002879
:102E300002D0039801990860002022E0059ABA1A8E
:102E4000735CD21A002A11D405DC281A03D300F0CF
:102E50005DF8A0420AD000BF00BF0898002802D049
:102E60000120089908600025ED4305E068460078D8
:102E70002D2801D1684205000198002800D0076084
:102E8000280009B0F0BD00BF94E1FFFF80B500232A
:102E9000FFF758FF02BD80B5FFE70A220021FFF7C8
:102EA000F5FF02BD70B4103A03D378C9103A78C068
:102EB000FBD2530701D318C918C001D508C908C0EF
:102EC000D20704D30B880380891C801C002A01D5FB
:102ED0000B78037070BC70478B0701D18307E1D07A
:102EE000124205D00B78491C0370401C521EF9D1C8
:102EF00070470000C9B2521E05D30378401C8B42B4
:102F0000F9D1401E7047002070470000B0FBF1F07F
:102F10007047000080B500F005F800F0A1F8FEE76A
:102F200000BE70477CB5394C394804600020FEF77C
:102F30009FFBFEF7BCF80025002069460870684634
:102F400000780120FEF70AFAEFF31081012080F3E8
:102F5000108830480268304B13400360026881F3E8
:102F600010882E4901260A68012313406A4613700F
:102F70000A68012313406A461370096801220A4057
:102F800069460A70EFF31081012282F3108802680B
:102F9000330713430360006881F310880120FEF7B4
:102FA000BFF90120FEF764FB1D4885804AF20051FD
:102FB000018021681B4A8A188260C160810C1A4A0C
:102FC0001180868019491A48FFF7A0FE194A1A494C
:102FD0001A48FFF781FF1A4A1A491B48FFF77CFF7E
:102FE0001A4A1B491B48FFF777FF1B491B4800F093
:102FF0003DF8FEF750F8FEF78AF80220FEF738FB9E
:10300000FEF765F9002000F03DF873BD00000000F8
:1030100008ED00E004700440FFFFFFEF00080440EB
:10302000000D004000FCFFFF206100404006000052
:103030000000002000000000000000000000000070
:103040000000000000000000000000000000000080
:103050000000000000000000000000000000000070
:1030600080B5FEF79FF9002002BD000038B50500CD
:103070000C00A54205D02868401980472D1DA542A7
:10308000F9D131BD7047000000000805352E382EFB
:10309000300000004275696C7420776974682052B2
:1030A000656E6573617320416476616E636564204B
:1030B000466C657869626C6520536F6674776172DF
:1030C00065205061636B6167652076657273696F17
:0830D0006E20352E382E300071
:020000040101F8
:10001800FFFFFFFFFFFFFFFFFFFFFFFFFFFFFFFFE8
:0C002800FFFFFFFFFFFFFFFFFFFFFFFFD8
:0400000500002F15B3
:00000001FF
