:020000040000FA
:10000000680FFE1F211100009D06000097060000EA
:10001000970600009706000097060000970600006C
:100020000000000000000000000000009706000033
:1000300097060000000000009706000097060000E9
:100040006F2300006F230000FB230000000000006E
:1000500000000000000000000000000000000000A0
:100060000000000000000000000000000000000090
:100070000000000000000000000000000000000080
:100080000000000000000000000000000000000070
:10040000FFFFFFFFFFFDFFFFFCFFFFFFFFFFFFFF01
:10041000FCFFFFFFFFFFFFFFFCFFFF00FFFFFF00F0
:10042000FCFF0F20FFFF0F20FCFF7F40FFFF7F40FE
:10043000FCFF0D40FFFF0D40FFFFFFFFFFFFFFFF31
:10044000FFFFFFFFFFFFFFFFFFFFFFFFFFFFFFFFBC
:10045000FFFFFFFFFFFFFFFFFFFFFFFFFFFFFFFFAC
:10046000FFFFFFFFFFFFFFFFFFFFFFFFFFFFFFFF9C
:10047000FFFFFFFFFFFFFFFFFFFFFFFFFFFFFFFF8C
:10048000FFFFFFFFFFFFFFFFFFFFFFFFFFFFFFFF7C
:10049000FFFFFFFFFFFFFFFFFFFFFFFFFFFFFFFF6C
:1004A000FFFFFFFFFFFFFFFFFFFFFFFFFFFFFFFF5C
:1004B000FFFFFFFFFFFFFFFFFFFFFFFFFFFFFFFF4C
:1004C000FFFFFFFFFFFFFFFFFFFFFFFFFFFFFFFF3C
:1004D000FFFFFFFFFFFFFFFFFFFFFFFFFFFFFFFF2C
:1004E000FFFFFFFFFFFFFFFFFFFFFFFFFFFFFFFF1C
:1004F000FFFFFFFFFFFFFFFFFFFFFFFFFFFFFFFF0C
:1005000040EA01039B0703D009E008C9121F08C095
:10051000042AFAD203E011F8013B00F8013B521E15
:10052000F9D27047D2B201E000F8012B491EFBD28C
:1005300070470022F6E710B513460A4604461946EE
:10054000FFF7F0FF204610BD70B5064602F0C4F973
:10055000046805460A220021304600F002F82C60AB
:1005600070BD2DE9F04791460F46804604460026AF
:1005700014F8015B2DB100F02DF80068405DC00754
:10058000F6D12B2D02D02D2D18D0641E4A463946A7
:10059000204600F023F827B13968A14201D1C7F8FD
:1005A000008071054FF002040BD54042002803DDA6
:1005B00002F092F90460A007BDE8F08746F4806677
:1005C000E4E70028F8DA02F087F904606FF00040F1
:1005D000F2E7000000487047642900002DE9F05F51
:1005E00082460078002715468B460AF10104B94679
:1005F000302801D09DB113E014F8010B01277828B1
:1006000003D0582801D045B10AE00DB1102D07D113
:100610000027102514F8010B02E0082500E00A2548
:100620000026B0460EE005FB080005FB06F1012799
:1006300001EB10461FFA80F8B6F5803F00D3B946AB
:1006400014F8010B294600F018F80028EBDABBF18A
:10065000000F05D00FB1641E00E05446CBF80040F7
:10066000B9F1000F06D002F037F902210160C81E6F
:10067000BDE8F09F48EA0640FAE73A2800D2303851
:1006800020F02002412A01D3A2F13700884201D391
:100690004FF0FF30704700BE70470000F0B581B0EA
:1006A00046F23015C4F200052E8A40F2D4470024E9
:1006B000C1F6FE7726FA04F0C00704D057F82410DC
:1006C00009B1204688470134102CF3D12E8001B0A7
:1006D000F0BD10B544F22800C4F2040000240470F8
:1006E000012000F00AF84EF2BB41C4F201010120E2
:1006F0000C70BDE8104000F027B880B50122EFF380
:10070000108182F3108840F27C52C1F6FE7232F8FA
:1007100010308BB94EF2FE3C42F66813C4F2010C65
:10072000C0F20003BCF800E033F8103043EA0E03D7
:1007300043F42543ACF8003032F81030013322F88E
:10074000103081F3108880BD0122EFF3108182F315
:10075000108840F27C52C1F6FE7232F8103023B19C
:1007600032F81030013B22F8103032F810208AB9EC
:100770004EF2FE3CC4F2010C42F66812BCF80030A6
:10078000C0F2000232F8100043F4254222EA0000D1
:10079000ACF8000081F31088704780B540F2040384
:1007A000C1F6FE731B684CF6002248434FF47A7C76
:1007B000C3F69A32A0FB0CE1B2FBF3F319B9BEFB0E
:1007C000F3F0800805E09900B0FBF1F0A0FB0C010C
:1007D00009B910B980BD4FF0FF30BDE8804001F08D
:1007E00055B97047022818BF704740F2445042F68E
:1007F0008411C1F6FE70C0F2000100F00AB80028B2
:100800000FBF01200021C0F20641016018BF002087
:10081000704780B5024600284FF0010018BF00293C
:1008200000D180BD486870B1136845F25420C5F20C
:100830004F00834204BF0E2080BD1060084601F0C7
:100840004BFC002080BD012080BDD0B1006845F286
:100850005423C5F24F0398421CBF0720704782B152
:100860006FF03F0000EA9100C9B200EB810040F652
:100870000001C4F204014058C0F3400010600020A1
:1008800070470120704700B3006845F25423C5F259
:100890004F0398421CBF07207047012A84BF0320E2
:1008A0007047C8B2012383409BB24FF4803C002ABA
:1008B00008BF0CFA00F34FF4FF5000EAD100082102
:1008C000C4F20401435000207047012070470246E3
:1008D00000284FF0010018BF002900D170471068B0
:1008E00045F24342C0F2520290421CBF07207047BB
:1008F00044F2100CC4F2040C9CF80020C2F3021362
:1009000003EB830302F00F0000EB43000860D00903
:1009100081F82C009CF80200C0F3021202EB820264
:1009200000F00F0303EB4202C0094A6081F82D007A
:100930009CF80400C0F3021202EB820200F00F03E5
:1009400003EB4202C0098A6081F82E009CF8060081
:10095000C0F3021202EB820200F00F0303EB42022B
:10096000C0098A6181F832009CF80800C0F30212C5
:1009700002EB820200F00F0303EB4202C009CA60DF
:1009800081F82F009CF80A00C0F3021202EB8202E9
:1009900000F00F0303EB4202013AC0090A6181F83B
:1009A0003000BCF80C00C2B2120902EB820200F067
:1009B0000F0000EB4200642252FA80F048619CF87C
:1009C0000E00C00981F83100002070472DE9F04188
:1009D00082B0054600284FF0010063D00C46002984
:1009E00060D0286845F24341C0F25201884225D1C7
:1009F00068680169002923D494F82C0010B120689C
:100A00003B284ED894F82D0010B160683B2848D898
:100A100094F82E0010B1A068172842D894F831201D
:100A200094F8300072B190B194F82F00B8B120461C
:100A300001F0B4FBA8BB6868016936E0072031E02B
:100A40000B202FE040B120690B2810D929E0606904
:100A5000C83810F1640F24D3E2681F2311E0206925
:100A60000B281ED86269C83A12F1640F19D3E268E4
:100A7000012801D11D2304E042F67013C0F20003E7
:100A80001B5C94F82F0030B1012A4FF0030009DB02
:100A9000D2B29A4206D894F8320030B1A069062842
:100AA00003D9032002B0BDE8F0814EF2001CCEF263
:100AB000000C01F01F0001224FEA511E82400CEB96
:100AC0008E08C8F88020BFF34F8FBFF36F8F94F864
:100AD0002C0068B12378CD27DEB27E43F60A06EB00
:100AE0008607A3EB470343EA061343EAC01000E07E
:100AF00000208DF807009DF8073044F21000C4F282
:100B00000400037094F82D306BB12679CD25F7B22F
:100B10007D43ED0A05EB8507A6EB470646EA05157A
:100B200045EAC31300E000238DF807309DF8073035
:100B3000837094F82E306BB1257ACD27EEB27E43C8
:100B4000F60A06EB8607A5EB470545EA061545EAD2
:100B5000C31300E000238DF807309DF807300371C0
:100B600094F83230002B0EBF0023237E43F0800325
:100B70008DF807309DF80730837194F82F306BB1F2
:100B8000257BCD27EEB27E43F60A06EB8607A5EB62
:100B9000470545EA061545EAC31300E001238DF831
:100BA00007309DF80730037294F8303073B1257C1C
:100BB000CD270135EEB27E43F60A06EB8607A5EB9C
:100BC000470545EA061545EAC31300E000238DF802
:100BD00007309DF80730837294F8313063B1247D7B
:100BE000CD26643CE5B27543ED0A05EB8506A4EB22
:100BF000460444EA051400E000248DF807409DF8FF
:100C00000740DB0184818373837C43F00103837499
:100C1000837CDB07FCD046F20030C4F2000050F8C1
:100C2000213023F4803340F8213050F82100BFF305
:100C30005F8FC8F880214CF82E20002032E700009A
:100C4000F0B500284FF0010200F0BD80002900F04F
:100C5000BA80026845F24343C0F252039A4240F020
:100C6000AF804268126A002A00F1AC804EF2001C8C
:100C7000CEF2000C53095CF8233002F01F0201256C
:100C800005FA02F213EA020E44F20203C4F204036C
:100C900026D193F8202042F0020283F8202000BFE2
:100CA00093F820209207FBD5426846F20034126A7E
:100CB000C4F2000454F8225025F4803544F8225040
:100CC00054F8224002F01F040125520905FA04F4E9
:100CD0000CEB8205BFF35F8FC5F880414CF82240D2
:100CE00000224FF0FF34642502721E78370907EBAB
:100CF000870706F00F0606EB4706F6B20E609E78F1
:100D0000370907EB870706F00F0606EB4706F6B232
:100D10004E601E79C6F3011747EA870706F00F06F3
:100D200006EB47068E609E79370907EB870706F0CA
:100D30000F0606EB4706F6B28E611E7A370907EBFF
:100D4000870706F00F0606EB4706F6B2CE609E7ADE
:100D5000370907EB870706F00F0606EB470654FA3C
:100D600086F60E619E89F7B23F0907EB870706F00A
:100D70000F0606EB470655FA86F64E61067A002EF8
:100D8000B2D1BEF1000F19D193F8201001F0FD018E
:100D900083F8201093F820108907FBD440680122C3
:100DA000006A00F01F01400902FA01F10CEB80001B
:100DB000C0F88010BFF34F8FBFF36F8F002202E0A7
:100DC000072200E00B221046F0BD000070B504467B
:100DD00000284FF0010000F091800D46002900F03E
:100DE0008D80206845F24341C0F2520188421CBF09
:100DF000072070BD28683B2809D868683B2806D8BA
:100E0000A868172803D8284601F0C8F908B10320BC
:100E100070BD44F20206C4F2040696F8220000F007
:100E2000FE0086F8220000BF96F82200C007FBD122
:100E30002978CD20CAB24243D20A02EB8203A1EB49
:100E4000430141EA021131702979CAB24243D20A00
:100E500002EB8203A1EB430141EA0211B170297A4E
:100E6000CAB24243D30A03EB8303A1EB430130230D
:100E700003EAD21211433171297ECAB24243D20A27
:100E800002EB8203A1EB430141EA0211B171297B1C
:100E9000CAB24243D20A02EB8203A1EB430141EA08
:100EA00002113172297C0131CAB24243D20A02EBEB
:100EB0008203A1EB430141EA0211B172297D643939
:100EC000CAB25043C00A00EB8002A1EB420141EAE2
:100ED0000010C0B2B0816068016811B9806801F08B
:100EE000BDF996F8220040F0010086F8220000BF0C
:100EF00096F82200C0074FF00000F9D070BD000046
:100F000080B5002860D0016845F24342C0F2520229
:100F100091425BD144F22201C4F2040100220A7022
:100F20000A78002AFCD18A7802F0FE028A7000BF9B
:100F30008A78D207FCD143684EF2801E996940F24C
:100F4000CC5CCEF2000E0029C1F6FE7C10D401F07C
:100F50001F0301229A4049094EF82120BFF34F8F09
:100F6000BFF36F8F4168002289694CF821204368E4
:100F70001969002911D401F01F02012303FA02F2BA
:100F800049094EF82120BFF34F8FBFF36F8F41689F
:100F9000002209694CF821204368196A002910D4FD
:100FA00001F01F02012303FA02F249094EF8212041
:100FB000BFF34F8FBFF36F8F41680022096A4CF86F
:100FC00021200021016002E0012100E00721084604
:100FD00080BDF0B581B0044600284FF0010050D02C
:100FE0000D4600294DD0206845F24346C0F2520616
:100FF000B04201D10E2044E02868D5E9091200234F
:1010000001286560C4E90313626106D16868A0F530
:10101000007010F5FD7F0AD90BE0A868016801296E
:1010200002D14168022902D0C0683F2801D90320BB
:1010300027E000204EF20047207220462946CEF2DB
:10104000000701F049F9A96940F2CC500029C1F626
:10105000FE7004D42A7D12017A5440F82140296997
:10106000002904D42A7B12017A5440F82140296ACD
:10107000002904D42A7F12017A5440F8214000202C
:10108000266001B0F0BD0000002844D0026845F29F
:101090004343C0F252039A421CBF07207047426884
:1010A0009269002A39D444F22202C4F2040213786D
:1010B00003F00F0343EA0113137000BF1378B1EB81
:1010C000131FFBD1117841F0040111701178490709
:1010D000FCD5406846F200318069C4F2000151F845
:1010E000202022F4803241F8202051F8201000F016
:1010F0001F01012202FA01F14EF200124009CEF264
:10110000000202EB8003BFF35F8FC3F8801142F847
:10111000201000207047012070470B20704700000E
:1011200000F08AFA00F0D2FFFEE710B540F20804A2
:10113000C1F6FE742078532818BF00F0E7FAE06E7D
:10114000216F081A18BF012010BD10B50B46EFF330
:1011500011844FF0200181F31188194600F003F843
:1011600084F3118810BD2DE9F04740F20806C1F65E
:10117000FE76144632788846532A054618BF00F09A
:10118000C5FA05EB450006EBC007B94659F8706F84
:1011900059F804AC564512D9D7E91910851BA54258
:1011A00028BF2546314440462A46FFF7A9F9B86EC4
:1011B000A919A844641B0E1A18BF0E4600E00025AA
:1011C000AAEB0600A04238BF04463CB1786E224626
:1011D00081194046FFF794F9254426440DB1C9F81A
:1011E00000602846BDE8F087F0B581B0144640F2B3
:1011F0000802C1F6FE7212780D46532A064618BF41
:1012000000F084FAEFF311874FF0200181F3118889
:1012100030462946224600F004F887F3118801B0D1
:10122000F0BD2DE9F04740F2080300EB4000C1F6A5
:10123000FE7303EBC005E86A1446022888460AD00C
:10124000012810D000BB2E4656F8247F7068B842A3
:1012500014D9F94315E005F1180041462246BDE8CE
:10126000F04700F02DBBA94659F8247FD9F80410A7
:10127000B9420BD9FA43286A11440BE0296AFA43B0
:1012800010440844A04216D2002445E0286AFA43DC
:1012900011440144A14238BF0C46C61B55F81C0F2F
:1012A000B442384418D241462246FFF729F9BFF329
:1012B0005F8F27441DE055F81C0F69683844A1EB87
:1012C000070AA24518D941462246FFF719F9BFF38C
:1012D0005F8F07EB04091DE041463246FFF710F926
:1012E000A71B286808EB06013A46FFF709F9BFF388
:1012F0005F8FC9F800700FE041465246FFF700F9D2
:10130000A4EB0A09286808EB0A014A46FFF7F8F837
:10131000BFF35F8FC6F800902046BDE8F08782B02B
:1013200080B582B0CDE9042304AA019201AA00F09D
:1013300005F802B0BDE8804002B070472DE9F04FDB
:101340009BB0059206AA169240221792002216AD73
:1013500000278A4604901A90CDE918221AF8012B2A
:10136000252A07D0002A00F042812846114600F0C5
:1013700087FA35E102314FF0000800BF9AF80020EB
:101380002C2A05DC232A09D02B2A11D1042008E0BD
:101390002D2A05D0302A0BD1022002E0082000E0DF
:1013A000012048EA00080AF1010A0131E6E700BF1E
:1013B000A2F13A0010F10A0F02D2002010E000BFA3
:1013C000002000BF00EB800002EB400011F8012B71
:1013D0003038A2F13A0313F10B0FF3D8A1F1010A4F
:1013E0002E2A0BD1514611F8012FA2F13A0313F125
:1013F0000A0F05D200248A4616E000BF002413E03D
:101400000AF10201002400BF04EB840302EB430352
:1014100011F8012BA3F13004A2F13A0515F10B0FDD
:10142000F2D8A1F1010A16AD1AF8011B01F0FB0276
:10143000682AF9D063290DDC25292CD0582921D020
:10144000632940F0CD80059A1068011D1160017874
:1014500028468CE7A1F17002082A1FD8DFE802F0C5
:1014600005C0C04BC05CC0C01200059A08231068BC
:101470000027011D116001680820009028461022F5
:101480000197ABE0059B19680A1D1A600968009076
:10149000284610229FE02846252168E7642940F06D
:1014A0009F80059B19680A1D1A600E68C6F1000C22
:1014B000002E314600D561464CF6CD450A29CCF6C2
:1014C000CC454FF0010B07D3A1FB052363294FEA5D
:1014D000D3010BF1010BF7D8A34598BFA34618B36E
:1014E0000021002E48BF012108F0040241EA9201C8
:1014F000A0EB01091AE0059A1068011D116004684B
:10150000217800296CD02846013400F0B9F9199FE0
:10151000B7F1FF3FF4DC75E0059B19680A1D1A60FE
:1015200009680090284655E04FF0000916AD18F004
:10153000020100D0F4B15FEAC8701BD1B9F1000F0D
:1015400018D0CB4516D2CDE902C1A9F1010500BFE3
:1015500016A8202100F094F9199F002F52D4681E7C
:10156000A84202D2AB450546F2D3DDE902C100F143
:10157000010916AD002F33D4002E05D45FEA487060
:101580000CD503912B2102E003912D2166462846BC
:1015900000F076F9199F0399002F33D4A9B108F010
:1015A0000100204311D1B9F1000F0ED0A9F10105BE
:1015B0004D4538BFCB4508D216A8302100F060F960
:1015C000199FA946002FF1D51CE016AD28463146DB
:1015D000CDF800900A222346CDF8048000F0D6F81A
:1015E000199F5146B7F1FF3F3FF7B8AE0AE047B148
:1015F000189C24B1049806A92246FFF7F5FD27445C
:1016000000E0002738461BB0BDE8F08F4EF2200006
:10161000C4F20100817940F25072C1F6FE7252F8B4
:1016200021100068C0F3026021FA00F040F20401CA
:10163000C1F6FE710860704770B54EF6085040F272
:101640000005CEF200004FF47001C0F20005C0F8B2
:101650008010056000200026FFF7C4F800F06AF94A
:1016600001200124FFF7BEF840F60050C4F200004C
:101670004FF425418680018029684FF48052A1F5FE
:10168000806181602968C16046F22011C4F20001C6
:101690000A80848040F2040040F24C71C1F6FE7072
:1016A000C0F20001FEF745FF40F2000043F2247152
:1016B00040F20402C1F6FE70C0F20001C0F2000266
:1016C000FEF71EFF40F2005540F20050C0F2000548
:1016D000C0F20000401B8110012909DB2E46C8BF63
:1016E000841000BF56F8040B28448047013CF9D110
:1016F000FFF78CFFFEF7EDFF0220FFF773F800F015
:10170000B3F90020BDE8704000F0ACB910B540F26C
:101710000804C1F6FE742046A821FEF70AFF032044
:101720002061606143F2C96040F2D001C0F2000064
:10173000C1F6FE71A061E1614FF480612162002178
:10174000A1626162E162206640F2B000C1F6FE7003
:1017500060662020A0662167E16661670F2006A110
:10176000BFF35F8F0A5C0138431C04F8012BF9D1E9
:10177000BFF35F8F10BD00BF000000000000545495
:101780005220524547474553000000002DE9F04FD5
:1017900081B08B46DDE90AA11F4615469345814677
:1017A0004FF0010405D35846B0FBF5F00134A842D0
:1017B000FAD2BC4298BF3C46BAF1000F01F00106D4
:1017C0001AD0CEB94FF02008880748BF4FF0300834
:1017D0002020002F18BF8046BAF1000F0CD05445CE
:1017E0000AD248464146AAF1010A00F049F8D9F860
:1017F0000C00B0F1FF3FEFDCD9F80C00002834D426
:1018000000960126022F01D3013F03E0BBFBF6F057
:10181000A84201D36E43F5E70FF25408BBFBF6F77D
:10182000484618F8071000F02BF8D9F80C000028EB
:1018300006D4B6FBF5F007FB16BBAE420646EDD26A
:10184000009890B1BAF1000F0FD0AAF101055545EB
:1018500038BF544509D24846202100F011F8D9F884
:101860000C00AA46B0F1FF3FEFDC01B0BDE8F08FFD
:1018700030313233343536373839414243444546C6
:1018800010B5044680686268431C934207D82268FA
:101890001154E06862680130E0601846A36090422D
:1018A00018BF10BD21682069FFF79EFCA16888421F
:1018B00002D10020A06010BD4FF0FF30E06010BDED
:1018C0002DE9F04381B0C76814460D4680464FF0BD
:1018D000000900BFD8F81010B94205D9FA43D8F86A
:1018E0000800114405E000BFD8F80800FA4311448D
:1018F0000144C61BB14238BF0E46D8F80400A642C8
:1019000028BF2646384429463246FEF7F9FDD8F866
:101910000800F119A41B0F1AB144354418BF0F4633
:10192000002CBFF35F8FC8F80C70D3D1484601B0CC
:10193000BDE8F0832DE9F0414EF2FE35C4F2010519
:101940004CF200144AF2035040F2507742F6005134
:10195000C4F2010428804FF0000CC1F6FE77C0F2FB
:10196000311141F2002243F200604EF22006A4F849
:1019700000C0C0F27A024FF40043C0F26E1041F68C
:10198000004E87E80E0007F10C01C4F20106C0F614
:101990004E6E81E80940B07940F2040857F8200003
:1019A0003168C1F6FE78C1F30261C840C8F8000092
:1019B000092085F815C086F8820095F8820018B9CC
:1019C00095F88300800748D095F8820050B901202F
:1019D00085F88200C8200121FEF7DFFE95F882001D
:1019E0000128FBD1002085F8830085F882000620BD
:1019F00086F885000020B074307F0007FCD542F2E5
:101A0000017030810020B072307F8006FCD502204A
:101A1000207741F22120C2F2011030600520B07120
:101A2000B07957F820003168C1F30261C840C8F8A6
:101A3000000001204021307486F8320086F833001F
:101A400031714FF425412980A08000BFA088002873
:101A5000FCD101202080BDE8F0814FF47A70FEF7C0
:101A6000C0FEC4E77047000042F6B44146F20032BF
:101A70000020C0F20001C4F2000200BF51F8203083
:101A800042F8203001306028F8D170470138002832
:101A9000FCD170472DE9F04F81B004460088002842
:101AA0005AD044F240084EF2BB4AC4F20408002661
:101AB000C4F2010A0FF2A80B4FF00109002700BF82
:101AC00060685BF8272000EBC601496891423CD171
:101AD00050F836009AF8001000F0B85009FA07F5EF
:101AE000B0F1807F05EA010014D150B90120FEF762
:101AF00004FE9AF8000028438AF800000120FEF74F
:101B000023FE18F9170000281FD418F8170040F01A
:101B1000800014E050B10120FEF7EFFD9AF80000BC
:101B2000A8438AF800000120FEF70EFE18F91700FE
:101B3000B0F1FF3F09DC18F8170000F07F0008F84B
:101B40001700C8200121FEF728FE0137032FB7D167
:101B5000208801368642B1D301B0BDE8F08F00BFC6
:101B6000020400000304000004040000B0B584B0C7
:101B700040F2505540F28850C1F6FE75C1F6FE7035
:101B80002946FFF75DF8044638B143F2BF41C0F281
:101B900000010DA212A3002010E02869D5E900CEB3
:101BA000431C6869D5E9021200F26C7068618DE827
:101BB000034015A100202B61CDF80CC0FFF7AFFB4F
:101BC000204604B0B0BD00BF6765745F7274635F88
:101BD00063616C656E6461725F74696D65000000BD
:101BE0000D0A47657474696E67205254432043613F
:101BF0006C656E6461722074696D65206661696CE4
:101C000065642E0D0A0000000D0A20525443202066
:101C100044617465203A2025642F25642F256420B3
:101C20000A20202020202054696D65203A20256458
:101C3000203A202564203A202564200D0A0A00005D
:101C40008EB0002605A8CDE90466FEF7D8FD9DF804
:101C500016009DF815709DF8173043F2EB110090B7
:101C6000C0F20001D7A200200197FFF758FB42F60F
:101C7000AD71C0F200010020FFF751FB00F00AFC3B
:101C8000A8B143F2BF4143F22C520446C0F2000116
:101C9000C0F20002CCA30020FFF741FB42F6B9617D
:101CA000C0F2000100202246FFF739FB00BE43F2DC
:101CB000C131C0F200010020FFF731FB40F2D048F3
:101CC00042F6547B40F2145740F24C59C1F6FE786C
:101CD000C0F2000BC1F6FE77C1F6FE790DF1180ACD
:101CE000FFF723FA002800F0DB8050462021FEF7A2
:101CF00020FC002051462022FFF727FA5046FEF72D
:101D000023FC4FF0FF3151FA80F0032825D8DFE89B
:101D100000F0022A4A6A5C4600F0A6FC002800F0A7
:101D20008280834600F08AFB43F2BF4143F2AB421C
:101D300043F24C130020C0F20001C0F20002C0F2D6
:101D40000003FFF7ECFA42F6B9610020C0F200018F
:101D50005A46FFF7E4FA00BE73E043F2C1310020B7
:101D6000C0F200019AE000F0CFFB00286CD00546DD
:101D700000F064FB43F2BF4143F2AB4243F29B13DA
:101D80000020C0F20001C0F20002C0F20003FFF721
:101D9000C6FA42F6B9610020C0F200012A46FFF7F8
:101DA000BEFA00BE7CE000F047FD002864D0054686
:101DB00000F044FB43F2BF4143F2AB4243F2F30372
:101DC0000020C0F20001C0F20002C0F20003FFF7E1
:101DD000A6FA42F6B9610020C0F200012A46FFF7D8
:101DE0009EFA00BE5CE0FFF7C1FE002847D0054622
:101DF00000F024FB43F2BF4143F2AB4243F29803AD
:101E00000020C0F20001C0F20002C0F20003FFF7A0
:101E100086FA42F6B9610020C0F200012A46FFF7B7
:101E20007EFA00BE3CE043F2DB410020C0F200013C
:101E3000FFF775FA42F66E710020C0F20001FFF75D
:101E40006EFA0026A3462BE040F24051C1F6FE7127
:101E50000868012816D10C4643F26E010020C0F23A
:101E60000001FFF75CFA42F66E710020C0F200013B
:101E7000FFF755FA266013E0002067A107E0002075
:101E800058A104E043F203510020C0F20001FFF723
:101E900046FA42F66E710020C0F20001FFF73FFAE9
:101EA000D8F80000012856D100205946FFF737FA2C
:101EB00040F28850C1F6FE703946FEF7C1FED0B13F
:101EC000054600F0BBFA43F2BF4143F22C5242F602
:101ED000FD630020C0F20001C0F20002C0F2000366
:101EE000FFF71DFA42F6B9610020C0F200012A4650
:101EF000FFF715FA00BE384600F098FA07F108041B
:101F00001ECCD7E90050CDE9004142F67461029041
:101F10000020C0F200010395FFF701FA42F62A7192
:101F20000020C0F20001FFF7FAF9012000F08CF860
:101F300044F240210220C0F20F01FEF72EFC0020E7
:101F400000F082F842F66E710020C0F20001C8F87D
:101F50000060FFF7E4F9D9F8000001287FF4C0AE73
:101F600042F67C10C0F20000406804AA018840F2EA
:101F70004450C1F6FE70FEF768FCD0B1054600F093
:101F80005DFA43F2BF4143F22C5242F6D96300207E
:101F9000C0F20001C0F20002C0F20003FFF7BFF977
:101FA00042F6B9610020C0F200012A46FFF7B7F9F6
:101FB00000BE049880F00100049000F045F8C9F8D4
:101FC00000608DE6312E30000D0A202A2A2052545E
:101FD0004320494E4954204641494C4544202A2A31
:101FE000200D0A000D0A47657474696E67206375D9
:101FF0007272656E74205254432043616C656E6446
:1020000061722074696D65206973207375636365FF
:10201000737366756C0000000D0A506572696F6419
:10202000696320696E746572727570742072617470
:1020300065206973207365742073756363657373BA
:1020400066756C6C7900000010B542F67C11C0F228
:10205000000149680246098840F24450C1F6FE700A
:10206000FEF711FCA0B1044600F0E8F943F2BF41CD
:10207000C0F2000107A20BA30020FFF750F942F6BF
:10208000B961C0F2000100202246FFF748F900BE06
:1020900010BD00BF6C65645F6C6576656C5F7365D1
:1020A000740000000D0A202A2A20525F494F504F29
:1020B00052545F50696E5772697465204641494CAD
:1020C0004544202A2A200D0A0000000080B5FFF7B1
:1020D000B7FD002080BD000070B50446FFF7DAFCB4
:1020E00040F2845CEFF31080012181F31088C1F687
:1020F000FE7CDCF8001039B940F60351C4F204014B
:1021000000220A7040220A70DCF800100131CCF87D
:10211000001080F31088208828B340F6000E0021BC
:10212000C4F2040E606800EBC10250F8313052680E
:10213000D8034FEA122001D4D2B20CE00EEB801586
:10214000D2B255F8226026F4803645F8226023F496
:10215000803645F822600EEB801040F8223020884F
:1021600001318142DED3EFF31081012080F310882A
:10217000DCF8000020B1DCF800000138CCF80000E9
:10218000DCF8000038B940F60350C4F20400002225
:1021900002708022027081F3108870BDB0B5426970
:1021A000A2F1C80111F1640F4FF0030153D3036989
:1021B000002B50D40B2B4EDC42F6701103F1010EB4
:1021C000C0F20001D0F80CC0CC5C8EF0020102F02D
:1021D0000305294308BF1D24BCF1010F4FF0030183
:1021E00039DBA44537D840F26C71BEF1030F38BF1C
:1021F00003F10D0E38BF40F26B7111440D220EFB3E
:1022000002F20D3292B24CF6CD435A430CEB01036D
:1022100003EB910101EB924144F625120F39C2F212
:102220009242A1FB0223CA1A03EB52029208A2EBCC
:10223000C20211440631CAB225235A43A1EB12232C
:10224000DBB25B0803EB12229208A2EBC20211443C
:10225000C9B2816100210846B0BD000010B544F24A
:102260002401C4F2040190E80C500878C0F3001077
:10227000824212D000208872887A0028FCD1087827
:1022800002F0010400F0EF0040EA0410087000BF03
:102290000878C0F300108242FAD1012A11D10878DF
:1022A000C0F3401083420CD0087803F0010200F024
:1022B000DF0040EA421008700878C0F34010834203
:1022C000FAD10EF03F0040EA8C108872C0B200BF15
:1022D0008A7A8242FCD110BD70B50546406844F24E
:1022E00024060068C4F204060C463071C82001219F
:1022F000FEF753FA307800F0FE0030703078C007F7
:10230000FCD168680068012803D10020F080606873
:1023100030810020307000BF96F900000028FBD407
:10232000307840F00200307030788007FCD4002014
:1023300006F8020C16F8020C0028FBD1307840F0A9
:102340004000307030784006FCD5002006F11C01BA
:1023500011F8102002F07F0201F8102011F910206E
:10236000002AFBD40130032808BF70BDF0E7B0B5E8
:1023700082B0EFF303806FF35F20A0F1100440F20E
:10238000CC50C1F6FE7050F82450E968B9B16868C5
:102390000069221A286918BF012200281ABFD0E953
:1023A00000C3CDE900C368466B695200C0E9002351
:1023B0008847286918B1DDE90012C0E9001246F229
:1023C0000030C4F2000050F8241021F4803140F8AD
:1023D000241050F8240002B0B0BD006840F24C5206
:1023E00040F2D041C1F6FE7200284FF00100C1F664
:1023F000FE7108BF0A4610607047EFF3038040F299
:10240000FC7101EA800040F2CC51C1F6FE7101443A
:1024100051F8401C01220A7246F2C021C4F20001A8
:10242000425822F48032425040587047D0E904129A
:10243000013102F26C72C0E90412704780B540F2BB
:102440008850C1F6FE70FEF75BFD50B143F2BF410C
:10245000C0F2000103A206A30020BDE88040FEF701
:102460005EBF80BD7274635F6465696E69740000ED
:102470002A2A20525443206D6F64756C6520436C8A
:102480006F7365206661696C6564202A2A20200DBF
:102490000A00000010B540F2885042F63461C1F6DF
:1024A000FE70C0F20001FEF794FD044640B143F215
:1024B000BF41C0F2000103A205A30020FEF72FFFD9
:1024C000204610BD7274635F696E6974000000007D
:1024D0000D0A525443206D6F64756C65206F7065F2
:1024E0006E206661696C65642E0D0A5265737461B5
:1024F000727420746865204170706C6963617469DE
:102500006F6E0D0A0000000010B5A4B016A80430CC
:102510003421FEF70EF808A83821FEF70AF86846BD
:102520002021FEF706F840F24C70C1F6FE700078EC
:1025300001283CD133A100200024FEF7F0FE012049
:1025400043F2D451ADF88400C0F2000100208DF8B0
:102550008640ADF887408DF88940FEF7E0FE00BF69
:10256000FEF7E3FD0028FBD0694600202022FEF79D
:10257000ECFD9DF800009DF8011000EB800001EBE0
:102580004000A0F50470169040F28850C1F6FE702D
:1025900016A9FEF71BFA90B143F2BF4143F2B262B3
:1025A0000446C0F20001C0F200021FA319E040F28D
:1025B0004050C1F6FE7001210024016014E040F299
:1025C0008850C1F6FE7008A9FEF781F978B143F290
:1025D000BF4143F2B2620446C0F20001C0F2000201
:1025E00019A30020FEF79BFE204624B010BD089AD8
:1025F00043F27161C0F2000100200024FEF78FFE5B
:10260000F2E700BF0D0A53657474696E6720436179
:102610006C656E64617220416C61726D20666F72D0
:1026200020525443200D0A000D0A43616C656E640C
:10263000617220616C61726D2053657420666169FE
:102640006C65642E0D0A00000D0A43616C656E64B2
:10265000617220616C61726D2047657420666169EA
:102660006C65642E0D0A0000B0B58CB004A8202162
:10267000FDF75FFF58A10020FEF751FE43F27951AC
:10268000C0F200010020FEF74AFE00BFFEF74DFD3C
:102690000028FBD004A900202022FEF756FD9DF85B
:1026A00010009DF8111000EB80009DF8132001EB45
:1026B000400040F2A0519DF81430A0F50470C1F61E
:1026C000FE71C86002EB820003EB4000A0F2112013
:1026D00008619DF816004FF47A7250439DF8182057
:1026E0009DF81730642402EB82029DF8195013FB09
:1026F000040000EB420028444DF2BC72801A48618D
:102700009DF81B009DF81C2000EB800002EB4000B0
:10271000A0F5047088609DF81E009DF81F2000EB56
:10272000800002EB4000A0F5047048609DF8210095
:102730009DF8222000EB800002EB4000A0F5047021
:10274000086040F28850C1F6FE70FEF73FFB50B1C2
:1027500043F2BF4143F29C620446C0F20001C0F262
:10276000000225A315E040F2505540F28850C1F612
:10277000FE75C1F6FE702946FEF762FA78B143F2A3
:10278000BF4143F29C620446C0F20001C0F2000265
:1027900021A30020FEF7C3FD20460CB0B0BD286980
:1027A000D5E90212431C6869D5E900C400F26C70D7
:1027B0008DE8131043F236516861C0F20001002029
:1027C0002B610024FEF7ABFD40F24C70C1F6FE70A9
:1027D00001210170E0E700BF0D0A53657474696E52
:1027E0006720525443204461746520616E64205414
:1027F000696D65200D0A00000D0A43616C656E6409
:10280000617254696D6520536574206661696C65F9
:10281000642E0D0A000000000D0A43616C656E64B1
:10282000617254696D6520476574206661696C65E5
:10283000642E0D0A0000000010B50CA10020FEF768
:102840006EFD40F28850C1F6FE700E21FEF71CFCB2
:10285000044640B143F2BF41C0F200010DA213A3F0
:102860000020FEF75CFD204610BD00BF0D0A20537E
:10287000657474696E6720506572696F646963205E
:10288000495251207261746520666F722052544320
:10289000200D0A007365745F7274635F70657269FE
:1028A0006F6469635F726174650000000D0A5065B2
:1028B00072696F64696320696E7465727275707491
:1028C00020726174652073657474696E6720666137
:1028D000696C65642E0D0A00004870470000FE1FF9
:1028E0000040404040404040404041414141414023
:1028F00040404040404040404040404040404040D8
:102900004005020202020202020202020202020266
:10291000022020202020202020202002020202026B
:1029200002029090909090901010101010101010C3
:1029300010101010101010101010101002020202CF
:102940000202888888888888080808080808080813
:10295000080808080808080808080808020202020F
:1029600040000000E1280000010002000800100003
:102970001F1C1F1E1F1E1F1F1E1F1E1F03000000E7
:10298000AC2C0000640000008C29000000800000D6
:102990000000000000800000010000000080000036
:1029A00002000000004000000400000000400000A1
:1029B0000800000000400000090000000080000046
:1029C0000E0000000400000000010000000C0119CE
:1029D00001010000000C011902010000000C0119A6
:1029E00003010000000C011904010000000C011992
:1029F00006010000000C01190701000000000100A1
:102A000008010000000001000901000000000100B1
:102A10000A010000000C01190B010000000C011953
:102A20000C010000000C01190D010000000C01193F
:102A30000E010000000C01190F010000000001064A
:102A4000020200000000010603020000000001066F
:102A50000402000000000106050200001040000012
:102A600006020000000C011A08020000000C011A06
:102A700009020000000C011A0A020000000C011AF1
:102A80000B020000000001090C0200000000010917
:102A90000D020000000C011A0E02000000000100EF
:102AA00000030000000C011901030000000C0119D3
:102AB00002030000000C01190303000005000000E0
:102AC00004030000000C011105030000000C0111BB
:102AD00006030000000C011107030000000C0111A7
:102AE00008030000000C011109030000000C011193
:102AF0000A0300000400000000040000000C01179D
:102B000001040000000C0117020400000400000092
:102B1000030400000500000004040000000C01177D
:102B200005040000000C011706040000000001135A
:102B300007040000400001050804000040000105F2
:102B400009040000000001060A040000000001065C
:102B50000B040000000001060C040000040000004B
:102B60000D040000000001060E0400000000010337
:102B70000F04000000000113000500000000011315
:102B8000010500000400000003050000040000002F
:102B900004050000004000000505000000400000A2
:102BA000060500000080000007050000008000000E
:102BB00008050000000401070B05000000040107E0
:102BC0000C050000000C011900060000000C0119A2
:102BD00001060000000C01190206000004000000BC
:102BE00003060000000C011908060000000C011982
:102BF00009060000000C01190A060000040000008C
:102C00000B060000000001050D0600000000010594
:102C10000E060000000C011700070000000C011751
:102C200001070000000C011702070000000C01174B
:102C300003070000000C011704070000000C011737
:102C40000507000000400000060700000000011416
:102C50000707000000400000080700000400000013
:102C6000000800000400000001080000040000004B
:102C70000208000004000000030800000400000037
:102C80000408000004000000050800000400000023
:102C900007090000040000000809000000000114FA
:102CA000000B000000000114010B000003040004ED
:102CB0000001000048000000490000004A00000038
:102CC0000000000000000000000000000000000004
:102CD00000000000000000000000000000000000F4
:102CE00000000000000000000000000000000000E4
:102CF00000000000000000000000000000000000D4
:102D000000000000000000000000000000000000C3
:102D100000000000000000000000000000000000B3
:102D200000000000000000000000000000000000A3
:102D30000000000000000000000000000000000093
:102D40000000000000000000000000000000000083
:102D50000000000000000000000000000000000073
:102D60000000000000000000000000000000000063
:102D70000000000000000000000000000000000053
:102D80000000000000000000000000000000000043
:102D90000000000000000000000000000000000033
:102DA0000000000000000000000000000000000023
:102DB0000000000000000000000000000000000013
:102DC0000000000000000000000000000000000003
:102DD00000000000000000000000000000000000F3
:102DE00000000000000000000000000000000000E3
:102DF00000000000000000000000000000000000D3
:102E000000000000000000000000000000000000C2
:102E100000000000000000000000000000000000B2
:102E200000000000000000000000000000000000A2
:102E30000000000000000000FF000000642E000001
:102E4000020000000000000002000000010000007D
:102E50000200000002000000DB2300000000000070
:102E60000000000001000000000000000100000060
:102E7000000000000D0A2052544320416C61726D25
:102E8000206F6363757272656420617420204461F1
:102E90007465203A2025642F25642F2564200A209C
:102EA00054696D6520203A202564203A202564204D
:102EB0003A202564200D0A0A000D0A5265747572C5
:102EC0006E6564204572726F7220436F64653A20AC
:102ED0003078257820200D0A000D0A202A2A205259
:102EE0005F494F504F52545F50696E526561642084
:102EF0004641494C4544202A2A200D0A000D0A204B
:102F00002A2A2047657474696E672052544320430F
:102F1000616C656E6461722074696D6520666169BB
:102F20006C6564202A2A200D0A000D0A204C4544B5
:102F30002077696C6C206265207475726E65642000
:102F40004F4E20666F722032207365636F6E64731C
:102F5000200D0A000D0A2052544320416C61726D0D
:102F600020496E74657272757074200D0A000D0A26
:102F7000456E74657220616E79206B657920286FCB
:102F800074686572207468616E20312C322C332C89
:102F9000342920746F20676F206261636B20746F27
:102FA00020746865206D656E75200D0A000D0A5449
:102FB0006865206578616D706C652070726F6A65F8
:102FC00063742064656D6F6E7374726174657320D1
:102FD000525443206D6F64756C652E0D0A557369EC
:102FE0006E672052545420696E7075742C2075736E
:102FF00065722063616E20736574205254432043D0
:10300000616C656E6461722074696D6520616E64C7
:103010002043616C656E64617220616C61726D0D3C
:103020000A557365722063616E20656E61626C651E
:1030300020706572696F64696320696E746572726D
:1030400075707420616E6420766965772074686598
:103050002063757272656E74205254432043616C14
:10306000656E6461722074696D652E0D0A000D0A2B
:10307000506C6561736520736574205254432063FE
:10308000616C656E646172204461746520616E6478
:103090002054696D650D0A000D0A47657474696EE8
:1030A000672063757272656E7420525443204361C9
:1030B0006C656E6461722074696D65206661696C0F
:1030C00065642E0D0A436C6F73696E6720746865C2
:1030D000206472697665722E205265737461727411
:1030E00020746865204170706C69636174696F6EEB
:1030F0000D0A000D0A506572696F64696320696E7C
:103100007465727275707420726174652073657471
:1031100074696E67206661696C65642E0D0A436C84
:103120006F73696E67207468652064726976657272
:103130002E2052657374617274207468652041702A
:10314000706C69636174696F6E0D0A000D0A5254E8
:10315000432043616C656E6461722054696D652023
:10316000536574206661696C65642E0D0A436C6F4B
:1031700073696E6720746865206472697665722E63
:103180002052657374617274207468652041707098
:103190006C69636174696F6E0D0A000D0A525443C5
:1031A0002043616C656E64617220416C61726D20B8
:1031B000536574206661696C65642E0D0A436C6FFB
:1031C00073696E6720746865206472697665722E13
:1031D0002052657374617274207468652041707048
:1031E0006C69636174696F6E0D0A000D0A2A2A2AE0
:1031F0002A2A2A2A2A2A2A2A2A2A2A2A2A2A2A2A2F
:103200002A2A2A2A2A2A2A2A2A2A2A2A2A2A2A2A1E
:103210002A2A2A2A2A2A2A2A2A2A2A2A2A2A2A2A0E
:103220002A2A2A2A2A2A2A2A2A2A2A2A2A2A2A0D1B
:103230000A2A20202052656E657361732046535020
:10324000204578616D706C652050726F6A6563749B
:1032500020666F7220725F727463204D6F64756CAC
:103260006520202020202020202020202020202019
:1032700020202A0D0A2A2020204578616D706C6577
:103280002050726F6A6563742056657273696F6E41
:1032900020257320202020202020202020202020D6
:1032A000202020202020202020202020202020201E
:1032B00020202020202A0D0A2A202020466C657814
:1032C00020536F667477617265205061636B20567E
:1032D000657273696F6E202025642E25642E256427
:1032E00020202020202020202020202020202020DE
:1032F0002020202020202020202020202A0D0A2AE3
:103300002A2A2A2A2A2A2A2A2A2A2A2A2A2A2A2A1D
:103310002A2A2A2A2A2A2A2A2A2A2A2A2A2A2A2A0D
:103320002A2A2A2A2A2A2A2A2A2A2A2A2A2A2A2AFD
:103330002A2A2A2A2A2A2A2A2A2A2A2A2A2A2A2AED
:103340002A0D0A526566657220746F207265616489
:103350006D652E7478742066696C6520666F7220C6
:103360006D6F72652064657461696C73206F6E2087
:103370004578616D706C652050726F6A656374206A
:10338000616E640D0A465350205573657227732091
:103390004D616E75616C20666F72206D6F72652075
:1033A000696E666F726D6174696F6E2061626F75B0
:1033B0007420725F727463206472697665720D0A9C
:1033C000000D0A2A2A2A2A2A2A2A2A2A2A2A2A2AC4
:1033D0002A2A2A20525443204170706C6963617418
:1033E000696F6E204D656E75202A2A2A2A2A2A2A9C
:1033F0002A2A2A2A2A2A2A2A2A0D0A31203A202071
:10340000536574205254432043616C656E6461724D
:10341000204461746520616E642054696D650D0AF5
:1034200032203A2020536574205254432043616C6B
:10343000656E64617220416C61726D2044617465D7
:1034400020616E642054696D650D0A33203A202096
:103450005365742052544320506572696F646963E8
:1034600020495251205261746520616E642053746A
:103470006172742069740D0A34203A202047657403
:103480002043757272656E742052544320446174F7
:103490006520616E642054696D650D0A557365720F
:1034A00020496E707574203A202000726561645F57
:1034B000496E7075745F66726F6D5F525454005B35
:1034C0004552525D20496E2046756E6374696F6E79
:1034D0003A20257328292C202573000D0A525443C5
:1034E0002043616C656E6461722054696D6520696A
:1034F0007320736574207375636365737366756C8D
:103500006C79000D0A5254432043616C656E64610E
:103510007220416C61726D20697320736574207331
:1035200075636365737366756C6C790068616C5F55
:10353000656E747279000D0A205254432063616CE9
:10354000656E6461722073657420746F202044611D
:103550007465203A2025642F25642F2564200A20D5
:1035600054696D6520203A202564203A2025642086
:103570003A202564200D0A0A000D0A456E74657212
:10358000204461746520616E642054696D65206912
:103590006E2044443A4D4D3A595959592048483AB9
:1035A0004D4D3A535320666F726D61742E0A53610C
:1035B0006D706C6520496E7075743A202730343A0E
:1035C00031313A323031392031353A32333A3035CF
:1035D000270D0A000D0A456E746572207365636FCE
:1035E0006E64732076616C75652028466F726D611C
:1035F000743A2053532920666F7220776869636894
:103600002072656375727369766520616C61726D95
:103610002068617320746F206265207365742E20AA
:103620000A506C6561736520696E707574207365EE
:10363000636F6E64732076616C756520696E2074AB
:1036400068652072616E6765206265747765656E76
:1036500020303020616E642035392E0A53616D7040
:103660006C6520496E7075743A20273335270D0A32
:10367000000D0A5365636F6E64732076616C756527
:1036800020666F7220776869636820616C61726D73
:10369000206973207365743A202564007365745F34
:1036A0007274635F63616C656E6461725F74696D8F
:1036B00065007365745F7274635F63616C656E64EB
:1036C00061725F616C61726D005465726D696E61EB
:1036D0006C00000000000604342E362E30004275C7
:1036E000696C7420776974682052656E65736173C4
:1036F00020416476616E63656420466C657869621A
:103700006C6520536F667477617265205061636BDE
:103710006167652076657273696F6E20342E362E70
:08372000300000000000000071
:020000040100F9
:10A15000FFFFFFFFFFFFFFFFFFFFFFFFFFFFFFFF0F
:0400000500001121C5
:00000001FF
