:10000000E812FE1F393500003914000045350000A4
:1000100045350000453500004535000045350000F8
:100020000000000000000000000000004535000056
:100030004535000000000000453500004535000052
:10004000152E0000912E0000192F0000AD2F00008A
:10005000152E0000912E0000192F0000AD2F00007A
:100060000000000000000000000000000000000090
:100070000000000000000000000000000000000080
:100080000000000000000000000000000000000070
:100090000000000000000000000000000000000060
:1000A0000000000000000000000000000000000050
:1000B0000000000000000000000000000000000040
:1000C0000000000000000000000000000000000030
:1000D0000000000000000000000000000000000020
:1000E0000000000000000000000000000000000010
:1000F0000000000000000000000000000000000000
:1001000000000000000000000000000000000000EF
:1001100000000000000000000000000000000000DF
:1001200000000000000000000000000000000000CF
:1001300000000000000000000000000000000000BF
:1001400000000000000000000000000000000000AF
:10015000000000000000000000000000000000009F
:10016000000000000000000000000000000000008F
:10017000000000000000000000000000000000007F
:10018000000000000000000000000000000000006F
:10019000000000000000000000000000000000005F
:1001A000000000000000000000000000000000004F
:1001B000000000000000000000000000000000003F
:10040000FFFFFFFFFFFDFFFFFCFFFFFFFFFFFFFF01
:10041000FCFFFFFFFFFFFFFFFCFFFF00FFFFFF00F0
:10042000FCFF0F20FFFF0F20FCFF7F40FFFF7F40FE
:0C043000FCFF0D40FFFF0D40FFFFFFFF31
:100500008001FE1F221400001C05FE1F00050000D4
:10051000040D00009001FE1F231400002405FE1F9F
:1005200014050000040D0000010000000000003B65
:10053000000000000104050607020202020101009A
:10054000010000001C0500000805000097200000C5
:100550000000000028050000A001FE1F6E30000012
:100560005C05FE1F58050000040D0000B001FE1FD1
:100570006F3000006405FE1F6C050000040D0000D4
:10058000010000000000003B00000000000001022C
:1005900003020202020001000100000074050000D5
:1005A00060050000812000000000000080050000C0
:1005B0000D0A2A2A2A2A2A2A2A2A2A2A2A2A2A2AD8
:1005C0002A2A2A2A2A2A2A2A2A2A2A2A2A2A2A2A8B
:1005D0002A2A2A2A2A2A2A2A2A2A2A2A2A2A2A2A7B
:1005E0002A2A2A2A2A2A2A2A2A2A2A2A2A2A2A2A6B
:1005F0002A2A2A2A000000000D0A2A2020205265FB
:100600006E6573617320465350204578616D706C40
:10061000652050726F6A65637420666F7220725F26
:10062000737069204D6F64756C6520202020202038
:1006300020202020202020202020202A0000000030
:100640000D0A2A2020204578616D706C652050725B
:100650006F6A6563742056657273696F6E202573C7
:10066000202020202020202020202020202020208A
:10067000202020202020202020202020202020207A
:10068000202000002A0D0A2A202020466C657820B0
:10069000536F667477617265205061636B20566595
:1006A0007273696F6E202025642E25642E256420C8
:1006B000202020202020202020202020202020203A
:1006C00020202020202020202020202A00000000A0
:1006D0000D0A526566657220746F20726561646DE3
:1006E000652E7478742066696C6520666F72206D63
:1006F0006F72652064657461696C73206F6E20454C
:1007000078616D706C652050726F6A6563742061EA
:100710006E640D0A46535020557365722773204D41
:10072000616E75616C20666F72206D6F72652069F5
:100730006E666F726D6174696F6E2061626F757441
:1007400020725F737069206472697665720D0A00A9
:100750000D0A5468652070726F6A65637420696E53
:10076000697469616C697A657320535049206472B9
:100770006976657220616E6420636F6E6669677565
:1007800072657320535049206368616E6E656C73A7
:1007900020696E204D617374657220616E64205310
:1007A0006C617665206D6F64652E0D0A4166746517
:1007B0007220696E697469616C697A6174696F6EBF
:1007C0002C206D617374657220616E6420736C619E
:1007D00076652063616E207472616E736D6974203A
:1007E000616E642072656365697665206461746119
:1007F000206261736564206F6E2074686520636F8A
:100800006D6D616E64732066726F6D2075736572B5
:100810002E0D0A526566657220746F20746865201B
:100820004D43552055736572204D616E75616C2086
:10083000666F722076616C696420626974207261EF
:1008400074657320616E6420636F72726573706F7C
:100850006E64696E6720636C6F636B20736574747C
:10086000696E67732E0D0A000D0A53656C6563741B
:100870002066726F6D207468652062656C6F7720EA
:100880004D656E75206F7074696F6E730D0A000090
:100890000D0A5072657373203120666F7220577293
:1008A000697465282920616E642052656164282975
:1008B000000000002A2A205350492057524954452D
:1008C00020414E4420524541442044656D6F2066CE
:1008D00061696C6564202A2A20200D0A000000004E
:1008E0000D0A2A2A20535049205752495445204185
:1008F0004E4420524541442044656D6F205375633A
:100900006365737366756C2A2A20200D0A00000047
:100910000D0A2A2A20535049205752495445204451
:10092000656D6F206661696C6564202A2A20200D40
:100930000A0000002A2A20535049205752495445A2
:1009400020414E4420524541442044656D6F205360
:1009500075636365737366756C2A2A20200D0A001F
:100960002A2A2053504920455849542044656D6F28
:10097000207375636365737366756C202A2A200D76
:100980000A0000000D0A456E74657220616E7920C0
:100990006F74686572206B657920746F20676F20B3
:1009A0006261636B20746F20746865206D61696E8D
:1009B000206D656E750D0A001B5B313B33366D0D86
:1009C0000A45786974696E67205350492064656DE3
:1009D0006F2E2E2E2E0D0A1B5B306D000080000046
:1009E0000000000000800000010000000080000006
:1009F0000200000000400000040000000040000071
:100A00000800000000400000090000000080000015
:100A10000E0000000400000000010000000C01199D
:100A200001010000000C011902010000000C011975
:100A300003010000000C011904010000000C011961
:100A400006010000000C0119070100000000010070
:100A50000801000000000100090100000000010081
:100A60000A010000000C01190B010000000C011923
:100A70000C010000000C01190D010000000C01190F
:100A80000E010000000C01190F010000000C01060E
:100A900002020000000C010603020000000C010627
:100AA00004020000000001060502000010400000E2
:100AB00006020000000C011A08020000000C011AD6
:100AC00009020000000C011A0A020000000C011AC1
:100AD0000B020000000001090C02000000000109E7
:100AE0000D020000000C011A0E02000000000100BF
:100AF00000030000000C011901030000000C0119A3
:100B000002030000000C01190303000005000000AF
:100B100004030000000C011105030000000C01118A
:100B200006030000000C011107030000000C011176
:100B300008030000000C011109030000000C011162
:100B40000A0300000400000000040000000C01176C
:100B500001040000000C0117020400000400000062
:100B6000030400000500000004040000000C01174D
:100B700005040000000C011706040000000001132A
:100B800007040000400001050804000040000105C2
:100B900009040000000C01060A040000000C010614
:100BA0000B040000000C01060C040000040000000F
:100BB0000D040000000001060E0400000000010307
:100BC0000F040000000001130005000000000113E5
:100BD00001050000040000000305000004000000FF
:100BE0000405000000400000050500000040000072
:100BF00006050000008000000705000000800000DE
:100C000008050000000401070B05000000040107AF
:100C10000C050000000C011900060000000C011971
:100C200001060000000C011902060000000001038B
:100C300003060000000C011908060000000C011951
:100C400009060000000C01190A060000040000005B
:100C50000B060000000001050D0600000000010564
:100C60000E060000000C011700070000000C011721
:100C700001070000000C011702070000000C01171B
:100C800003070000000C011704070000000C011707
:100C900005070000004000000607000000000114E6
:100CA00007070000004000000807000004000000E3
:100CB000000800000400000001080000040000001B
:100CC0000208000004000000030800000400000007
:100CD00004080000040000000508000004000000F3
:100CE00007090000040000000809000000000114CA
:100CF000000B000000000114010B00006400000064
:100D0000DC090000D931000065320000C732000064
:100D100065330000793300005D330000613300006B
:100D20009D330000F53300002A2A20525F535049BA
:100D30005F4F70656E2041504920666F722053509E
:100D400049204D6173746572206661696C65642029
:100D50002A2A200D0A0000002A2A20525F535049F7
:100D60005F436C6F73652041504920666F7220535A
:100D70005049204D6173746572206661696C6564C9
:100D8000202A2A200D0A00000D0A456E7465722083
:100D90007465787420696E70757420666F72204D6A
:100DA0006173746572206275666665722E20446197
:100DB00074612073697A652073686F756C64206E46
:100DC0006F742065786365656420363420627974B9
:100DD00065732E200D0A00000D0A535049206D6FD7
:100DE00064756C6520626C6F636B656420696E204E
:100DF00057726974652F52656164206F7065726106
:100E000074696F6E2E0D0A000D0A4D617374657260
:100E1000207472616E736D69747465642075736596
:100E20007220696E707574206461746120746F2023
:100E3000536C617665200D0A000000000D0A536CAA
:100E4000617665207472616E736D69747465642077
:100E50007468652064617461206261636B20746FE3
:100E6000204D6173746572200D0A00000D0A4D61FA
:100E70007374657220726563656976656420646168
:100E800074613A1B5B313B33326D202573200D0AB0
:100E90001B5B306D000000000D0A526563656976CA
:100EA0006564206461746120646F6573206E6F7483
:100EB000206D617463682077697468207472616E54
:100EC000736D697474656420446174612E0D0A0049
:100ED0000D0A456E746572207465787420696E70B1
:100EE000757420666F72204D61737465722062752F
:100EF000666665722E20446174612073697A65208C
:100F000073686F756C64206E6F74206578636565B7
:100F1000642036342062797465732E0D0A00000057
:100F20000D0A456E746572207465787420696E7060
:100F3000757420666F7220536C61766520627566E9
:100F40006665722E20446174612073697A6520732E
:100F5000686F756C64206E6F742065786365656476
:100F60002036342062797465732E0D0A000000006B
:100F70000D0A536C61766520525F5350495F57727A
:100F8000697465526561642829206661696C6564CD
:100F9000000000000D0A4D617374657220525F53AA
:100FA00050495F57726974655265616428292066EB
:100FB00061696C65640000000D0A535049206D6F33
:100FC00064756C65206661696C656420696E205784
:100FD000726974652F52656164206F706572617407
:100FE000696F6E2E0D0A00000D0A4D6173746572F3
:100FF0002062756666657220646174612074726136
:101000006E736D697474656420746F20536C6176BF
:1010100065200D0A000000000D0A536C6176652002
:101020006275666665722064617461207472616EB7
:10103000736D697474656420746F204D6173746599
:1010400072200D0A000000000D0A4D617374657274
:1010500020726563656976656420646174613A1B1A
:101060005B313B33326D2025730D0A1B5B306D0005
:101070000D0A4D61737465722072656365697665EA
:1010800064206461746120646F6573206E6F7420E6
:101090006D61746368207769746820536C6176654C
:1010A000207472616E736D69747465642044617438
:1010B000612E0D0A000000000D0A536C6176652058
:1010C000726563656976656420646174613A1B5B6F
:1010D000313B33326D2025730D0A1B5B306D0000F0
:1010E0000D0A536C61766520726563656976656487
:1010F000206461746120646F6573206E6F74206D6D
:10110000617463682077697468204D6173746572D7
:10111000207472616E736D697474656420446174C7
:10112000612E0D0A000000000D0A4572726F7220D8
:10113000696E20636F6E66696775726174696F6E40
:10114000206F7220636F6E6E656374696F6E2E0D13
:101150000A0000002A2A20525F5350495F436C6FF7
:1011600073652041504920666F72206D617374650C
:1011700072206661696C6564202A2A20200D0A00AD
:101180002A2A20525F5350495F436C6F7365204198
:10119000504920666F7220736C61766520666169C4
:1011A0006C6564202A2A20200D0A0000BC01BD01C4
:1011B000C001BF01C101C201C501C401000000009E
:1011C000000000000000000000000000000000001F
:1011D000000000000000000000000000000000000F
:1011E00000000000000000000000000000000000FF
:1011F00000000000000000000000000000000000EF
:1012000000000000000000000000000000000000DE
:1012100000000000000000000000000000000000CE
:1012200000000000000000000000000000000000BE
:1012300000000000000000000000000000000000AE
:10124000000000000000000000000000000000009E
:10125000000000000000000000000000000000008E
:101260000000000000000000000000000000211548
:10127000110E0D0C0B0B0A0A0909090909080808C7
:1012800008080808070707070707070707070707EA
:101290000700000030313233343536373839616277
:1012A000636465666768696A6B6C6D6E6F70717296
:1012B000737475767778797A000000003248314A85
:1012C000817952F821100068304A000E00F00700C2
:1012D000C14011607047F8B52D4D2E4C2E4A2F4B52
:1012E0002F4E304F4AF2035028800021254821809C
:1012F00002604FF400418160016143602A4A2B493A
:10130000C2604161FFF7DAFF002068750921317082
:10131000387828B90121397040F2C44000F04CF807
:1013200000207870002139700622F270164EB074D9
:10133000307FC0F3C0000028FAD042F20170308143
:10134000B172307FC0F340100028FAD0022020771D
:10135000052217493160B271FFF7B0FF01203074E8
:1013600001211448017001224270602030714FF455
:1013700025412980A280A0880028FCD1012121805C
:10138000F1BD0000E816FE1F20E00140DC0EFE1F4C
:10139000FEE3014000C10140002D310100127A003E
:1013A000A2E0014080E4014000366E01001C4E0EB8
:1013B0002112012152E001402DE95802144B154A37
:1013C0001C68B2FBF4F648434FF47A740021A4FB86
:1013D000002314FB01334FF001094B4509D2B2FB46
:1013E000F6F0800810B1BDE8520215E0BDE85102E8
:1013F0007047B600B0FBF6F20023A4FB020114FB19
:101400000311494500D8EDD34FF0FF30EBE7000062
:10141000DC0EFE1F00CA9A3B01380028FCD1704741
:101420007047040520B103490A6802600020704734
:1014300001207047CC360000F8B50B4C094F258AC7
:10144000002625FA06F0C00703D5396809B1F0B2C5
:101450008847761C3F1DF0B21028F2DB2580F1BDD5
:10146000000000004803FE1F306100400A490B4A9B
:10147000182031F9023B42F8043B401E31F902CBFF
:1014800042F804CB31F9023B42F8043B31F902CB7C
:1014900042F804CBEDD17047AC110000006300406E
:1014A000EFF31082012181F310881C4B33F81010E8
:1014B00029B133F81010A1F1010C23F810C033F852
:1014C000101049B916490FF25C0C0B883CF810005B
:1014D00043F4254383430B8082F310887047000058
:1014E00070B4EFF31082012181F310880B4B33F8B5
:1014F000101049B9DFF828400AA6258836F81010E0
:101500000D4345F42545258033F81010491C23F878
:10151000101082F3108870BC704700000C05FE1F8D
:10152000FEE3014001000200080010002DE9F04731
:101530009AA06C4E016886B000200191002202A999
:101540000023002481E81D0001A8FFF76BFF31464E
:10155000002000F023FB06F14801002000F01EFBF4
:101560005FA206F19001002000F018FB9DF8050035
:101570009DF806309DF80720009006F1D401002068
:1015800000F00CFB3146002000F008FB06F59071DE
:10159000002000F003FB06F5D071002000F0FEFAF9
:1015A00000F00EFB04000BD051A1002000F0F6FA71
:1015B00054B1224655A1002000F0F0FA00BE03E02D
:1015C0005AA1002000F0EAFA06F52E7739460020ED
:1015D00000F0E4FA06F538784146002000F0DEFA23
:1015E0000FF268194946002000F0D8FA0FF2781A75
:1015F00051460AE006F54171002000F0CFFA00F0F4
:1016000053FD002C3BD106F57571002000F0C6FAA1
:1016100000F058FF0028FBD0102202A9002000F0A3
:1016200002FF02A801F01AF8C5B2012D04D03FD381
:10163000032D1BD00AD33BE000F0F6FA0400D9D109
:1016400006F54C71002000F0A9FADCE700F0FCFB85
:10165000040008D006F55871002000F09FFA00F051
:1016600023FD64B9CFE706F56171EBE700F0EAFC12
:10167000040010D041A1002000F090FA84B122466D
:1016800022A1002000F08AFA00BE002DC0D0032D58
:10169000B9DBBDD104E006F56C71002000F07EFAE4
:1016A00006F58161002000F079FA06B0BDE8F08708
:1016B0003946002000F072FA4146002000F06EFA30
:1016C0004946002000F06AFA5146002000F066FA10
:1016D000DBE7022803D10449044800F0F1BF70475A
:1016E000312E3000B0050000FC0C00001405FE1F78
:1016F0000D0A202A2A2053504920494E4954204699
:1017000041494C4544202A2A200D0A000D0A526501
:101710007475726E6564204572726F7220436F64D7
:10172000653A203078257820200D0A000D0A202AFD
:101730002A2053504920494E49542053554343458C
:10174000535346554C202A2A200D0A000D0A507288
:10175000657373203220666F722057726974655208
:1017600065616428290000000D0A507265737320BA
:101770003320746F20457869740D0A002A2A20539B
:10178000504920455849542044656D6F2066616971
:101790006C6564202A2A200D0A0000000000000069
:1017A00038B50446A0686368421C934205D3256897
:1017B0002954A260E068401CE060A2686068824230
:1017C0000CD12168206900F066FEA168884203D030
:1017D0004FF0FF30E06031BD0021A16031BD2DE947
:1017E000F84F07468946924698464846012501210A
:1017F00002E0B0FBFAF0491C5045FAD20B9E40467D
:10180000884538BF08460090F0070A9C17D4B4B149
:10181000B00702D5B8F1000F02D04FF0200B0BE05B
:101820004FF0300B08E059463846FFF7B9FFF8682B
:10183000641E002803D454B10098A042F3D3F96881
:1018400000292FD403E0A8F101080AFB05F5B8F13F
:10185000010FF8D8B9FBF5F0504528BF0AFB05F594
:10186000F8D20FF24C31B9FBF5F005FB1099095C89
:101870003846FFF795FFF868002803D4B5FBFAF562
:10188000002DEED1F0070DD564B1009DA54209D21F
:1018900020213846FFF784FFF868641E002801D431
:1018A000002CF3D1BDE8F18F2DE9F04F97B08046C1
:1018B0000E46174607A84021002202900391049289
:1018C000CDF8188005920FE0B9A2B9FBF5F005FB41
:1018D0001099115C02A8FFF763FF0598002800F13A
:1018E0003F812D09F0D1761C16F8010B002800F07D
:1018F0004181252840F036814FF0000902E049F08F
:101900000109761C307823280CD02B2807D02D28ED
:10191000F5D0302808BF49F00209F2D005E049F0BF
:101920000409EEE749F00809EBE7002406E004EBC0
:10193000840100EB4100761CA0F1300431780846A8
:10194000A0F130020A2AF2D300252E290DD1761CEF
:1019500006E005EB850100EB4100761CA0F13005A7
:101960003078A0F130010A29F3D3307801E016F87D
:10197000010F6C2818BF6828F9D0252800F0EC80EA
:10198000582800F0868063280CD0642810D0702876
:1019900000F0B380732800F0898075286FD0782814
:1019A00077D0DDE0386850F8041B3860C9B2D4E065
:1019B000386850F804AB38605046002848BF4042B1
:1019C000012106E0744A80FB0232901000EBD070D7
:1019D000491C0A28F6DAAB468D4238BF8B462CB13B
:1019E000BAF1000F54BF5FEA4970641E5FEA897064
:1019F00000D585B15FEAC9700DD464B1A3450AD2A0
:101A0000202102A8FFF7CCFE0598641E002802D40E
:101A1000002CF3D103E00598002800F1A180BAF171
:101A2000000F03D5CAF1000A2D2103E05FEA4970D7
:101A300007D52B2102A8FFF7B3FE0598002800F177
:101A40008F8009F00301022908BF002D10D17CB15D
:101A5000A3450AD2302102A8FFF7A2FE0598641E12
:101A6000002802D4002CF3D102E00598002877D496
:101A7000CDF8049000942B460A22514612E03868B3
:101A800050F8041B3860CDF8049000942B460A22CD
:101A900008E0386850F8041B3860CDF804900094D2
:101AA0002B46102202A8FFF79AFE59E0386850F83A
:101AB000044B386014F8010B002851D00499039BA3
:101AC0004A1C934205D3029D685404920598401C19
:101AD0000590049A0398824208D10299069800F072
:101AE000DAFC0499884205D100200490059800286A
:101AF000E0D535E04FF0FF3148E00824386850F871
:101B0000049B38600125A2464846AB4602E0000926
:101B10000BF1010B1028FAD2BBF1080F0CD3A3452F
:101B20000AD2202102A8FFF73BFE0598641E002878
:101B300002D4002CF3D102E00598002810D4AAF1B9
:101B4000010A2D01BAF1010FF9D8B9FBF5F01028FF
:101B500028BF2D01F9D2B7E6252102A8FFF720FE04
:101B6000761C03E0014602A8FFF71AFE059800283C
:101B70007FF5BAAE0598002809DD049A1AB107A9C5
:101B8000404600F088FC0599049841180591059895
:101B900017B0BDE8F08F0000676666660CB480B5CC
:101BA00002AA00926A46FFF77FFE02BC5DF80CFBBA
:101BB0003031323334353637383941424344454683
:101BC00038B5DFF81C55DFF81C15284600F02CFE50
:101BD000040009D0DFF810350FF23C520FF24451E7
:101BE0000020FFF7DBFF1DE0DFF80015DFF8000540
:101BF00000F01AFE040015D0284600F076FF40B130
:101C0000DFF8F0340FF210520FF218510020FFF7F6
:101C1000C5FFDFF8D4340FF200520FF20851002054
:101C2000FFF7BCFF204632BD2DE9F84FDFF8C8446E
:101C30002021204601F018FADFF8C054202105F1D8
:101C4000880001F011FA202105F5847001F00CFAEA
:101C5000DFF8ACB45946002001E00FF2F841FFF77D
:101C60009DFF00F02FFC0028FBD0802221460020A1
:101C700000F0D9FB0028F0D0401E10F0030F12D165
:101C80008708002044F82700DFF878A4DFF8608494
:101C90001F233A465146404600F00DFF060005D08E
:101CA0000FF2C0430EE08008471CEDE7DFF83094E8
:101CB0001F233A462146484600F003FF06000BD09A
:101CC0000FF2BC430FF278420FF258410020FFF7A9
:101CD00065FF3046BDE8F28F2878012804BF687898
:101CE00001280CD06868401E6860686800284FD0E2
:101CF000297802291CBF68780228EDD15EE06FF0D8
:101D00007F466E6000202870002169700BF1800111
:101D1000FFF744FF1F233A465146404600F0D1FEEC
:101D20005FEA00080BD00FF278430FF214420FF273
:101D3000F4310020FFF732FF4046BDE8F28FDFF8B4
:101D4000C8831F233A464146484600F0B4FE5FEA86
:101D500000090BD00FF268430FF2E4320FF2C431E6
:101D60000020FFF71BFF4846BDE8F28F28780128C6
:101D700004BF6878012838D06868401E68606868C9
:101D800030B12978022919D068780228EED115E0FF
:101D90000BF150030FF2A8320FF288310020FFF749
:101DA000FDFE0BF568710020FFF7F8FE0FF2904181
:101DB0000020FFF7F3FE1420BDE8F28F0BF1500373
:101DC0000FF27C320FF25C310020FFF7E7FE0BF5DB
:101DD00068710020FFF7E2FE0FF264410020FFF778
:101DE000DDFE4FF49670BDE8F28F6E600020287023
:101DF000002169700BF1B401FFF7D0FE3A4641466D
:101E0000204601F035F958B942460BF1E401FFF7DD
:101E1000C5FEBE490120FFF7CFFA0020BDE8F28FD2
:101E20000BF588710020FFF7B9FE0BF568710020F3
:101E3000FFF7B4FE0FF208410020FFF7AFFE40F2BB
:101E40002F10BDE8F28F00002DE9FC47AA4E20219B
:101E5000304601F009F9A94FDFF8A4A207F188087C
:101E60002021404601F000F9202107F1080001F08F
:101E7000FBF807F584792021484601F0F5F80AF5CA
:101E8000A47100E0B3A10020FFF788FE00F01AFB68
:101E90000028FBD080223146002000F0C4FA040064
:101EA000F0D0441E14F0030F16D1A408002046F809
:101EB00024000AF5CC710020FFF770FE00F002FB51
:101EC0000028FBD0802207F10801002000F0ABFAC7
:101ED00028B900BF9FA1EFE7A408641CE9E7401EF2
:101EE00010F0030F05D107F108018008002241F826
:101EF00020201F20009023464A4607F108017C4815
:101F000000F0E6FD050018BF0AF5F4730BD11F20A1
:101F10000090234642463146714800F0D9FD050045
:101F20000BD00AF5037300BF0FF2B4227DA100208D
:101F3000FFF734FE2846BDE8F6873878012804BF4D
:101F40007878012836D07868401E7860786830B19B
:101F50003978022917D078780228EED113E00AF5F3
:101F60000C7300BF0FF278226EA1FFF717FE0AF57F
:101F700068710020FFF712FEB1A10020FFF70EFEEE
:101F80001420BDE8F6870AF50C7300BF0FF250224B
:101F900064A10020FFF702FE0AF568710020FFF738
:101FA000FDFD00BFA6A10020FFF7F8FD4FF49670DD
:101FB000BDE8F6876FF07F4078600021397000221D
:101FC0007A700AF518710020FFF7E8FD0AF5247110
:101FD0000020FFF7E3FD2246414607F1080001F02B
:101FE00047F8B0B942460AF53071FFF7D7FD2246EF
:101FF0004946304601F03CF870B94A460AF54C7142
:10200000FFF7CCFD41490120FFF7D6F90020BDE8DC
:10201000F6870AF53A7301E00AF556730FF2C0121B
:1020200040A10020FFF7BAFD0AF568710020FFF714
:10203000B5FD00BF82A10020FFF7B0FD40F22F10D8
:10204000BDE8F68710B5264800F04FFD040008D023
:102050000FF2AC130FF2981232A10020FFF79EFD91
:102060000CE0234800F041FD040007D00FF2B0134C
:102070000FF27C122BA10020FFF790FD204610BD2F
:102080000079012803D11D480121017070471B49C7
:1020900002220A707047007901280CBF0121022139
:1020A000164841707047000080B50D4800F01DFDD6
:1020B00030B1174B0FF2A0121AA10020FFF76EFDEE
:1020C0000B4800F012FD48B1BDE80050DFF8443085
:1020D0000FF2841213A10020FFF760BD01BD0000C4
:1020E0006C05FE1F8C050000280D00003405000063
:1020F0002C05FE1F580D00005C0EFE1FC001FE1FC8
:10210000880D0000C802FE1F4802FE1F40420F005B
:1021100054110000801100007370695F696E69746A
:10212000000000005B4552525D20496E2046756EEE
:102130006374696F6E3A20257328292C202573005B
:102140007370695F77726974655F616E645F7265F1
:10215000616400000D0A4E6F20496E7075740D0A9F
:10216000000000000D0A536C61766520525F5350E9
:10217000495F526561642829206661696C65640065
:102180000D0A4D617374657220525F5350495F5759
:10219000726974652829206661696C6564000000B5
:1021A0000D0A536C61766520525F5350495F577238
:1021B0006974652829206661696C65640000000007
:1021C0000D0A4D617374657220525F5350495F521E
:1021D0006561642829206661696C656400000000FF
:1021E0007370695F77726974655F7265616400001E
:1021F0007370695F657869745F64656D6F00000076
:102200000D0A4D617374657220525F5350495F43EC
:102210006C6F73652829206661696C656400000035
:102220000D0A536C61766520525F5350495F436CD1
:102230006F73652829206661696C65640000000081
:102240000D0A526573657420746865204D43552EE0
:102250002E2E0D0A000000007370695F636C6561CB
:102260006E5F757000000000F8B5DFF87C42A821B1
:10227000204600F0F9FE032222610320606104F190
:10228000A8010FF27420A061E1614FF400622262A4
:102290000021A16200226262E1622066102104F640
:1022A000A8006066A166002020670021E166002882
:1022B0006067BFF35F8F0FF24C2101F10F0212F83C
:1022C000043904F8013B401C01F10F034542401C56
:1022D0005E5D01F10F07C0F1000C04F8016B401CBA
:1022E00017F80C3001F10F05464204F8013B401C81
:1022F000AF5D04F8017B1028E1D3BFF35F8FF1BD20
:102300002DE9F84306468946F76815464FF0000860
:102310003469A74231BFE41BB068C01B2418B06801
:10232000641EC01B844228BF0446AC4288BF2C46B2
:10233000706822464946C01900F0CCFEB1682D1BDA
:10234000E719A044A1448F4208BF0027BFF35F8F65
:10235000002DF760DCD14046BDE8F2832DE9F04165
:102360000446E768A5681646ED1BAE42884607D2CC
:102370006068384400F0AEFEBFF35F8FF6190DE0E1
:1023800063682A46D81900F0A5FE761B60683246BD
:1023900008EB050100F09EFEBFF35F8FE660BDE82D
:1023A000F08101460869CA68824200D39EE098E045
:1023B0002DE9F843DFF830510446287888469146E5
:1023C00008B9FFF751FF04EB440005EBC00000F132
:1023D000600600243769F568BD4212D2B468E41B78
:1023E0004C4588BF4C467068C1192246404600F0F3
:1023F00071FEB168E719A044A9EB04098F4208BF38
:102400000027ED1B4D4588BF4D463DB17068C11991
:102410002A46404600F05EFE2C19EF1904B13761E0
:102420002046BDE8F28310B5EFF31184202383F337
:102430001188FFF7BDFF84F3118810BD70B50C46FD
:102440001546DFF8A41000EB400201EBC20000F1DA
:102450001806716919B1022913D006D318E0304665
:10246000FFF79FFFA84206D212E03046FFF799FF20
:10247000A84298BF05462A4621463046FFF76EFF20
:1024800007E02A4621463046FFF73AFF054600E0BE
:102490000025284670BDF8B50D46DFF84C100446FF
:1024A0000878164608B9FFF7DFFEEFF31187202002
:1024B00080F31188324629462046FFF7BFFF87F395
:1024C0001188F2BD10B5DFF82040207808B9FFF779
:1024D000CBFE206FE16E884201D0012010BD0020AC
:1024E00010BD801A401E7047A405FE1F8968491E52
:1024F0008A1A8018704700005465726D696E616CAD
:10250000000000000000000000005454522052451A
:1025100047474553000000002DE9F84F84B00BB148
:1025200000241C600446A04601E008F1010898F868
:102530000000A0F10903052BF7D32028F5D02D28A2
:1025400016BF2B2818F8015B2B25002A019103D414
:10255000012A01D0252A03DB002959D00C6057E05D
:10256000002A0CDD102A04BF98F80000302802BFB2
:1025700098F8010040F02000782811D10CE098F87C
:102580000000302818BF0A220AD198F8010040F054
:102590002000782803D1102208F1020800E0082268
:1025A000CDF80C8001E008F1010898F8000030280F
:1025B000F9D0074E7E4418364FF0000906F1280086
:1025C000CDF80880CA468DF8000017460CE000BF21
:1025D0009CECFFFF9DF80010401ACA465FFA80FB92
:1025E00007FB09B908F1010898F80010A1F14100B2
:1025F0001A2838BF20313A4606F1280000F0A6FD1F
:102600000028E7D10399414504D1019800B1046045
:10261000002020E00299F05DA8EB0101081A0028D3
:1026200010D406DCB9EB0B0103D3B1FBF7F0504536
:1026300008D0AFF30080049808B1012101604FF089
:10264000FF3903E02D2D08BFC9F10009019808B139
:10265000C0F80080484605B0BDE8F08FFFE70023D2
:102660000A22002158E70000EFF31081012282F3D3
:102670001088DFF85021106838B9DFF84C010023CA
:1026800003704FF0400C80F800C01068401C1060D0
:1026900013E0EFF31081012282F31088DFF8242188
:1026A000106810B113685B1E1360106828B9DFF85A
:1026B0001801002202708023037081F31088704794
:1026C00080B5002818BF002908D04A6832B10368D5
:1026D000DFF8F820934203D10E2002BD012002BD95
:1026E0000260084600F002F8002002BD38B504463A
:1026F00000F032F8FFF7B8FF002509E0606850F8F5
:102700003510001D30F9350000F008F86D1CADB231
:1027100020888542F2DBBDE83140BAE730B4CA0315
:102720000FD52B4B041203EB841300F0FF0203EBD5
:102730008204256825F48035256021F4803443F82F
:1027400022400312224A02EB831400F0FF0044F8F7
:10275000201030BC70470000F8B5014600240888FE
:10276000002508B3496800221BA3B1F90460B3F93E
:102770000070BE4211D10E6806F0F856B6F1807FA7
:1027800018BFB6F1106F04D101269640F6B234435B
:1027900003E001279740FFB23D43521C9B1C032AD4
:1027A000E3D30831401EDED10120FEF799FE09482F
:1027B00001780C43AC4304700120BDE8F240FEF701
:1027C0006FBE00008803FE1F030D044054524F509B
:1027D00000080440BBE401400204030404040000B8
:1027E000012200F01F01DFF854388A40400943F805
:1027F0002020704718B40146DFF8442802EB81031B
:102800001C6824F480341C6052F82110BFF35F8FE1
:10281000DFF83038012200F01F018A40440943F8F4
:10282000242012BCDCE700002DE9F04F040083B047
:102830000D4623D02068DFF81088404519D0002DC0
:102840001CBFA869002819D0286AB8B128780228C6
:1028500011D295F9031000295CBF95F904100029E5
:102860000CD4697A01290BD1A97A012908D0062054
:102870001EE10E201CE140F27A5019E1012017E11F
:10288000DFF8C8672F6906EB00204FF0000900F160
:10289000040A77B179680A684FF0006010600B682D
:1028A000C3F808A0BA683868136898475FEA000957
:1028B00016D16A69A2B151680B684FF40020186004
:1028C000D1F80090C9F804A010689268136898477E
:1028D0005FEA000908D01FB1B96838680A6A9047F2
:1028E000B9F1000F40F0E38065600023A8696062E1
:1028F0000020E969E162A06200256168087806EBC2
:102900000026A6609E466168487A9C46002807BF5C
:10291000B8224FF01009B02299468F7AC87A4E7BC0
:10292000096A47EA4007087847EA063778B96668CF
:10293000F0564FF0010A0AFA00F010F0030F08D029
:10294000707A00280CBF80200020074301E042F08D
:1029500001024878460122EAC01246EA40063243A4
:10296000029227F07007C8788A78824047EA0017F9
:10297000087918B12023022808BF3023487928B1EC
:1029800049F00109012808BF49F002098E79019632
:10299000087A666800F0030047EA8007707A30B969
:1029A00091F80BC091F80AE04D7A47F46047EFF3D5
:1029B0001086012080F31088DFF894A6DAF800B0C2
:1029C000CDF800B0D4F804B09BF800B0CBF1130BF5
:1029D00000FA0BFB009820EA0B0BCAF800B0DAF8FB
:1029E000000086F31088A068C6784FF0000A80F8CF
:1029F00003A0A66802983070A0684270A268937025
:102A0000C879A1688872A0680573A16881F80DE093
:102A1000A06880F80EC0A16881F80F90A0680782B6
:102A2000A068019980F82010616891F90200020005
:102A30000CD48979DFF81C36DFF81C768146090151
:102A400003F8091047F82240FFF7D4FE616891F9B6
:102A5000010002000CD44979DFF8F835DFF8F87589
:102A60008146090103F8091047F82240FFF7C2FE2A
:102A70006168DFF8E09591F90400097ADFF8D8750C
:102A80000246090109F80210034647F82340FFF700
:102A9000B1FE606890F90310C0790A46000109F898
:102AA000020047F82140C4F80080002000E04846BA
:102AB00003B0BDE8F08F80B5009313460A460021AD
:102AC00003E080B500931346002200F077F802BDC2
:102AD0001CB5002918BF002A05D09DF810400094AD
:102AE00000F06CF816BD012016BD10B5040061D0D1
:102AF0002068DFF8541588425ED1002222606068A9
:102B0000416919B1086889680A6A90476068016973
:102B100019B1086889680A6A9047606890F90210DC
:102B20000A000CD4012301F01F00DFF83025834098
:102B3000490942F82130BFF34F8FBFF36F8F6068B0
:102B400090F901100A000CD4012301F01F00DFF8F6
:102B50000C258340490942F82130BFF34F8FBFF362
:102B60006F8F01216068DFF8F42490F9030000F012
:102B70001F0301FA03F3400942F82030BFF34F8FDF
:102B8000BFF36F8F636893F9043003F01F00814037
:102B90005B0942F82310BFF34F8FBFF36F8F002202
:102BA000A068017801F0BF010170A068C178C2700F
:102BB000002010BD012010BD072010BDF8B5060093
:102BC00084B00C4615461F4652D03068DFF87814A2
:102BD00088424AD1002C0CBF002D002F48D07068CD
:102BE000426952B110689268D369694698470028D3
:102BF00040F0F0800298B8423AD371680A6952B145
:102C000010689268D36969469847002840F0E280CE
:102C10000298B8422CD30A98072829DB102803DB36
:102C2000411C11F0030F23D11B2821D0B1680A7871
:102C3000530620D400217161B16186F82000F46050
:102C40003561F76171684869002851D096F8200015
:102C5000B761102812DB7068416948680068C17864
:102C600001F0CF0141F0200113E0072005B0F0BDD5
:102C7000012005B0F0BD082005B0F0BD082870683F
:102C8000416948680068C17801F0CF01A8BF41F0F0
:102C90001001C1707068416948680068817801F06E
:102CA000F30141F008018170706841694868026869
:102CB000D7817068416948680268956075B9706825
:102CC000416948680068817801F0F3018170DFF89C
:102CD000900371684A6951680B689860706842692E
:102CE000506801681068926853689847002871D14D
:102CF00071680869002849D096F82000776110288B
:102D000008DB096948680068C17801F0CF0141F02B
:102D1000200109E00969082848680068C17801F0C5
:102D2000CF01A8BF41F01001C17070680169486807
:102D30000068C17801F0F30141F00801C1707068CA
:102D4000016948680268D78170680169486802684B
:102D500054606CB97068016948680068C17801F016
:102D6000F301C170BF4871680A6951680B68586007
:102D7000B068017801F0DF01017070680269506885
:102D80000168106892685368984718BBB068C17AA8
:102D9000028A96F82030102B03DB012464F34611DD
:102DA00005E0082BB4BF41F0400121F06001102B79
:102DB00002D35B1C9B085B1FC1724FF2FF00B1681E
:102DC000024042EA03220A82B068017841F06001C1
:102DD0000170002005B0F0BDF0B5044683B0A06AD4
:102DE00000280FBF68466A4690E8680082E86800DD
:102DF00067683A7802600171E16A8160626A9047AF
:102E0000A06A20B1694691E81C0080E81C0003B06C
:102E1000F0BD000010B4EFF30380103840B28849D1
:102E200001EB8002136823F48033136051F8201003
:102E3000894951F820108A69C869824217D0086907
:102E400010B98868436810E091F82030102B04DB3B
:102E50008B685C6840F8224007E0082B8B68B9BF9C
:102E60001C7984549C8820F81240521C8A6188691D
:102E7000CA6990420AD1486890F903106F4B012249
:102E800001F01F008240490943F8212010BC70471F
:102E900010B5EFF30380103840B2694901EB8002AE
:102EA000136823F48033136051F820106A4951F8F5
:102EB00020406168086A90B1407801280FD1E2692A
:102EC0006069521E904204D191F90300FFF792FC11
:102ED00005E0086918B191F90300FFF781FC616909
:102EE000E069814216D0E06828B194F82020102AC9
:102EF00004DB50F82100A268506009E0082A03DAD8
:102F0000A268405C107103E0A26830F81100908064
:102F1000491C616110BD000038B5EFF30380103823
:102F200040B20146464A02EB81031C6824F4803417
:102F30001C6052F82110484951F82040A168CA7815
:102F4000C2F3400100291EBF61684A7A012A2CD1D0
:102F50004249012200F01F0302FA03F3400941F83D
:102F60002030BFF34F8FBFF36F8F606890F902304E
:102F70001D0009D403F01F0082405B0941F82320A3
:102F8000BFF34F8FBFF36F8FA068017801F0BF01CF
:102F90000170606890F90200010058BFFFF72AFC39
:102FA0002046BDE83440012116E731BD70B5EFF38E
:102FB0000380A0F11004284864B250F824506868D7
:102FC00090F902100A000BD4012301F01F00234ADC
:102FD0008340490942F82130BFF34F8FBFF36F8F11
:102FE000A868017801F0BF010170686890F90200DB
:102FF000010058BFFFF7FEFBA868C6780021320722
:10300000C17003D505212846FFF7E6FEF00703D57A
:1030100004212846FFF7E0FE06F01406142E03D123
:1030200008212846FFF7D8FE054800EB84010A680E
:1030300022F480320A6050F8240070BD00E100E004
:103040000063004080E200E04950535200200740F6
:103050000070044000E400E08C03FE1F80E100E00B
:103060009C05FE1FA005FE1F002200F09BB800017A
:103070000300002013F0030F09D0521E22BF13F8E3
:10308000010B11F801CBB0EB0C00F3D07047121F0D
:1030900022BF53F8040B51F804CB6045F7D0121D42
:1030A0000AD200BA9CFA8CFCB0EB0C0038BF6FF06F
:1030B000000088BF01207047521E22BF13F8010B89
:1030C00011F801CBB0EB0C00F6D0521C08BF104633
:1030D0007047000062B38B0708D0521E11F8013B05
:1030E00000F8013B00F024808B07F6D1830740F005
:1030F000208000BF103A07D330B4B1E83810103A3E
:10310000A0E83810F9D230BC530724BFB1E808104A
:10311000A0E8081044BF51F8043B40F8043BD20734
:1031200024BF31F8022B20F8022B44BF0B78037028
:103130007047083A07D3B1E80810083A40F8043B52
:1031400040F804CBF7D25307E4E70000C9B2830785
:1031500006D0521E22D310F8013B9942F7D11FE04E
:10316000083A13D302F1040241EA012141EA014184
:1031700050F8043B121F21BF4B40A3F1013C2CEA45
:10318000030C1CF0803FF3D0C9B2001F083210F8C6
:10319000013B521E28BF91EA030FF8D818BF012047
:1031A000401E704700B500BF130096469446103984
:1031B00028BFA0E80C50FAD85FEA417C28BF0CC0B9
:1031C00048BF40F8042BC90728BF20F8022B48BF8E
:1031D00000F8012B00BD0000F8B504000D463BD0FF
:1031E0002068C04EB04235D0002D1CBF6868002852
:1031F00032D0286880B300F085F990BBBA490878CE
:10320000B8B901220A70EFF3108082F31088B74931
:103210000A6822F480020A60096880F31088B44FBB
:103220004FF4C0713846FFF71FFFB2480760012115
:103230000172686890F9001000290FD4AC4A52F866
:10324000210068B921712046296800F02FF9266015
:103250000020F2BD0E20F2BD0120F2BD0B20F2BD18
:103260000820F2BD38B504000D4628D020689D49DD
:10327000884222D11DB3284600F044F9F8B994F9E8
:1032800004109D4800EB81010A6822F080720A60F8
:1032900094F9041050F821009849C0F3080040F454
:1032A00000400A889042FCD02946204600F0FEF8F3
:1032B000204600F0BBF820B932BD072032BD012006
:1032C00032BD132032BD37B5002837D00168854A9A
:1032D000914236D190F90420874901EB82021468AB
:1032E00024F08074146090F9042051F82210844A6C
:1032F000C1F3080141F40041D489A142FCD0082562
:103300001570019931B17A4C90F9041054F82140AC
:10331000019D6560029931B1754C90F9041054F823
:1033200021400299A160724C90F9041054F8214098
:10333000E1788909022907D1A38107E0012003B0C0
:1033400030BD072003B030BD01B9E38118211170F1
:1033500000F06CF800B1132003B030BD06207047B8
:103360000620704720B101685E4A914202D15DE0BB
:10337000012070470720704760B10168594A9142A7
:103380000AD190F904005C4B03EB8000016821F046
:10339000807148E0012070470720704770B4D8B1B1
:1033A0000268504B9A4214D1B1B1514A90F90400CD
:1033B00052F82020D0780023002480090FD1D6892C
:1033C0004FF480350B604C608D60CE60002070BC87
:1033D000704770BC0720704770BC01207047D689C9
:1033E00002284FF4807506F0FF06EBD194894FF464
:1033F0008033E7E798B101683A4A914211D190F9D8
:1034000004103D4B03EB8101394B0A6822F08072B6
:103410000A60002190F9042043F8221003E0012003
:1034200070470720704701600020704710B490F982
:1034300004102F4850F82120121D12F8010CC0F37F
:10344000810001281EBF12F8020CC0F38100012880
:1034500029D0106820B3506810B3536812F8014C9B
:103460000120C4F3011400FA04F4641E234217D1AE
:10347000136812F8014CC4F30114A040401E03422B
:103480000ED1103212F8120C8009D6D11A4800EB76
:103490008100016841F080710160002010BC70471C
:1034A00010BC0120704710BC0620704701F10E03CC
:1034B00013F80B2C920904D01A88D2B242EA0222E5
:1034C0001A80103313F81C2C9209F1D10C4ADFF842
:1034D00020C00823137090F904004CF82010182124
:1034E0001170704700435444E00EFE1F1CE0014081
:1034F0000000FE1F04540040006300400E540040D2
:1035000000540040821C5178C1F3810001281EBF85
:103510001078C0F38103012B0AD0890904D0918966
:1035200040F20113994205DA10328009EBD170475D
:10353000062070470120704780B500F005F800F0C4
:103540006BF8FEE700BE704710B52149214A224CB6
:103550004FF47000086014600020FEF7BAF8FDF721
:10356000BAFE0120FEF7B5F81C48002181804FF417
:103570002542028021681A4AA1F580638360C160F8
:1035800001234FF48051118083801649164800F0C2
:1035900049F8164A16491748FFF79CFD164A17497D
:1035A0001748FFF797FD174A17491848FFF792FD8C
:1035B0001749184800F03AF8FDF780FE0220FEF7A0
:1035C00088F8FDF753FFBDE81040002000F03AB83E
:1035D00088ED00E008ED00E000000000000D004074
:1035E00020610040990B00004803FE1FC801000045
:1035F0001C3700008001FE1F0000000000000000DA
:1036000000000000000000000000000000000000BA
:10361000000000000000000080B5FDF787FF0020DB
:1036200002BD0000002200F00FB8000038B50446CB
:103630000D46AC4205D0206820188047241DAC42BE
:10364000F9D131BD70470000401810F0030308D0D5
:10365000C91A1FD3DB0748BF00F8012D28BF20F887
:10366000022D130030B414461546103928BF20E946
:103670003C00FAD8490728BF20E90C0048BF40F8B1
:10368000042D890028BF20F8022D48BF00F8012D25
:1036900030BC7047C91818BF00F8012DCB0728BFF0
:1036A00000F8012D704700004EF68851CEF200015F
:1036B000086840F470000860BFF34F8FBFF36F8F4E
:1036C0004FF00170E1EE100A7047000000000204A4
:1036D000342E322E300000004275696C74207769F8
:1036E00074682052656E6573617320416476616E03
:1036F00063656420466C657869626C6520536F660B
:103700007477617265205061636B616765207665CF
:103710007273696F6E20342E322E30000000081054
:103720000000000000000000000000000000101871
:103730000000000000000000000000000000081071
:103740000000000000000000000000000000101851
:103750000000000000000000000000000000000069
:10376000FFFFFF000000000000000000000000005C
:103770000000000000000000000000000000000049
:103780000000000000000000000000000000000039
:103790000000000000000000000000000000000029
:1037A0000000000000000000000000000000000019
:1037B0000000000000000000000000000000000009
:1037C00000000000000000000000000000000000F9
:1037D00000000000000000000000000000000000E9
:1037E00000000000000000000000000000000000D9
:1037F00000000000000000000000000000000000C9
:1038000000000000000000000000000000000000B8
:1038100000000000000000000000000000000000A8
:103820000000000000000000000000000000000098
:103830000000000000000000000000000000000088
:103840000000000000000000000000000000000078
:103850000000000000000000000000000000000068
:103860000000000000000000000000000000000058
:103870000000000000000000000000000000000048
:103880000000000000000000000000000000000038
:103890000000000000000000000000000000000028
:1038A0000000000000000000000000000000000018
:1038B0000000000000000000000000000000000008
:1038C00000000000000000000000000000000000F8
:1038D00000000000000000000000000000000000E8
:0438E00000000000E4
:020000040100F9
:10A15000FFFFFFFFFFFFFFFFFFFFFFFFFFFFFFFF0F
:040000050000353989
:00000001FF
